{
  "_format": "hh-sol-artifact-1",
  "contractName": "NFTSale",
  "sourceName": "src/app/contracts/NFTSale.sol",
  "abi": [
    {
      "inputs": [
        {
          "internalType": "address",
          "name": "_tokenAddress",
          "type": "address"
        },
        {
          "internalType": "address",
          "name": "_treasury",
          "type": "address"
        }
      ],
      "stateMutability": "nonpayable",
      "type": "constructor"
    },
    {
      "anonymous": false,
      "inputs": [
        {
          "indexed": true,
          "internalType": "address",
          "name": "owner",
          "type": "address"
        },
        {
          "indexed": false,
          "internalType": "uint256",
          "name": "timestamp",
          "type": "uint256"
        }
      ],
      "name": "ContractReset",
      "type": "event"
    },
    {
      "anonymous": false,
      "inputs": [
        {
          "indexed": true,
          "internalType": "address",
          "name": "buyer",
          "type": "address"
        },
        {
          "indexed": false,
          "internalType": "uint256",
          "name": "serialNumber",
          "type": "uint256"
        }
      ],
      "name": "NFTSold",
      "type": "event"
    },
    {
      "anonymous": false,
      "inputs": [
        {
          "indexed": false,
          "internalType": "address",
          "name": "to",
          "type": "address"
        },
        {
          "indexed": false,
          "internalType": "uint256",
          "name": "amount",
          "type": "uint256"
        }
      ],
      "name": "PaymentForwarded",
      "type": "event"
    },
    {
      "anonymous": false,
      "inputs": [
        {
          "indexed": false,
          "internalType": "address",
          "name": "from",
          "type": "address"
        },
        {
          "indexed": false,
          "internalType": "uint256",
          "name": "amount",
          "type": "uint256"
        }
      ],
      "name": "PaymentReceived",
      "type": "event"
    },
    {
      "anonymous": false,
      "inputs": [
        {
          "indexed": false,
          "internalType": "uint256",
          "name": "oldPrice",
          "type": "uint256"
        },
        {
          "indexed": false,
          "internalType": "uint256",
          "name": "newPrice",
          "type": "uint256"
        }
      ],
      "name": "PriceUpdated",
      "type": "event"
    },
    {
      "inputs": [],
      "name": "PRICE_INCREMENT",
      "outputs": [
        {
          "internalType": "uint256",
          "name": "",
          "type": "uint256"
        }
      ],
      "stateMutability": "view",
      "type": "function"
    },
    {
      "inputs": [
        {
          "internalType": "address[]",
          "name": "recipients",
          "type": "address[]"
        }
      ],
      "name": "batchGiveawayNFTs",
      "outputs": [],
      "stateMutability": "nonpayable",
      "type": "function"
    },
    {
      "inputs": [],
      "name": "currentTokenId",
      "outputs": [
        {
          "internalType": "uint256",
          "name": "",
          "type": "uint256"
        }
      ],
      "stateMutability": "view",
      "type": "function"
    },
    {
      "inputs": [],
      "name": "getCurrentPrice",
      "outputs": [
        {
          "internalType": "uint256",
          "name": "",
          "type": "uint256"
        }
      ],
      "stateMutability": "view",
      "type": "function"
    },
    {
      "inputs": [
        {
          "internalType": "address",
          "name": "buyer",
          "type": "address"
        }
      ],
      "name": "getPurchaseState",
      "outputs": [
        {
          "internalType": "bool",
          "name": "purchased",
          "type": "bool"
        },
        {
          "internalType": "uint256",
          "name": "nextToken",
          "type": "uint256"
        },
        {
          "internalType": "uint256",
          "name": "remaining",
          "type": "uint256"
        },
        {
          "internalType": "uint256",
          "name": "currentPrice",
          "type": "uint256"
        }
      ],
      "stateMutability": "view",
      "type": "function"
    },
    {
      "inputs": [
        {
          "internalType": "address",
          "name": "recipient",
          "type": "address"
        }
      ],
      "name": "giveawayNFT",
      "outputs": [],
      "stateMutability": "nonpayable",
      "type": "function"
    },
    {
      "inputs": [
        {
          "internalType": "address",
          "name": "",
          "type": "address"
        }
      ],
      "name": "hasPurchased",
      "outputs": [
        {
          "internalType": "bool",
          "name": "",
          "type": "bool"
        }
      ],
      "stateMutability": "view",
      "type": "function"
    },
    {
      "inputs": [],
      "name": "maxSupply",
      "outputs": [
        {
          "internalType": "uint256",
          "name": "",
          "type": "uint256"
        }
      ],
      "stateMutability": "view",
      "type": "function"
    },
    {
      "inputs": [],
      "name": "owner",
      "outputs": [
        {
          "internalType": "address",
          "name": "",
          "type": "address"
        }
      ],
      "stateMutability": "view",
      "type": "function"
    },
    {
      "inputs": [],
      "name": "price",
      "outputs": [
        {
          "internalType": "uint256",
          "name": "",
          "type": "uint256"
        }
      ],
      "stateMutability": "view",
      "type": "function"
    },
    {
      "inputs": [],
      "name": "purchaseNFT",
      "outputs": [],
      "stateMutability": "payable",
      "type": "function"
    },
    {
      "inputs": [],
      "name": "resetContract",
      "outputs": [],
      "stateMutability": "nonpayable",
      "type": "function"
    },
    {
      "inputs": [],
      "name": "soldSupply",
      "outputs": [
        {
          "internalType": "uint256",
          "name": "",
          "type": "uint256"
        }
      ],
      "stateMutability": "view",
      "type": "function"
    },
    {
      "inputs": [],
      "name": "tokenAddress",
      "outputs": [
        {
          "internalType": "address",
          "name": "",
          "type": "address"
        }
      ],
      "stateMutability": "view",
      "type": "function"
    },
    {
      "inputs": [],
      "name": "treasury",
      "outputs": [
        {
          "internalType": "address",
          "name": "",
          "type": "address"
        }
      ],
      "stateMutability": "view",
      "type": "function"
    }
  ],
  "bytecode": "0x60806040526402540be40060035560646004556000600555600160065534801561002857600080fd5b50604051610cfe380380610cfe8339810160408190526100479161009f565b600080546001600160a01b03199081163317909155600280546001600160a01b03948516908316179055600180549290931691161790556100d2565b80516001600160a01b038116811461009a57600080fd5b919050565b600080604083850312156100b257600080fd5b6100bb83610083565b91506100c960208401610083565b90509250929050565b610c1d806100e16000396000f3fe6080604052600436106100e75760003560e01c806390118fb41161008a578063d5abeb0111610059578063d5abeb011461027c578063e10577a814610292578063eb91d37e146102b2578063fa2299ee146102c757600080fd5b806390118fb4146101f15780639d76ea5814610231578063a035b1fe14610251578063b181a8fc1461026757600080fd5b806361d027b3116100c657806361d027b31461013f5780636b958125146101775780636d25d802146101b95780638da5cb5b146101d157600080fd5b80629a9b7b146100ec5780633548bfb514610115578063613b4d3214610137575b600080fd5b3480156100f857600080fd5b5061010260065481565b6040519081526020015b60405180910390f35b34801561012157600080fd5b50610135610130366004610ad1565b6102dd565b005b61013561053d565b34801561014b57600080fd5b5060015461015f906001600160a01b031681565b6040516001600160a01b03909116815260200161010c565b34801561018357600080fd5b50610197610192366004610b46565b6107b4565b604080519415158552602085019390935291830152606082015260800161010c565b3480156101c557600080fd5b50610102633b9aca0081565b3480156101dd57600080fd5b5060005461015f906001600160a01b031681565b3480156101fd57600080fd5b5061022161020c366004610b46565b60076020526000908152604090205460ff1681565b604051901515815260200161010c565b34801561023d57600080fd5b5060025461015f906001600160a01b031681565b34801561025d57600080fd5b5061010260035481565b34801561027357600080fd5b506101356107ff565b34801561028857600080fd5b5061010260045481565b34801561029e57600080fd5b506101356102ad366004610b46565b61089a565b3480156102be57600080fd5b50600354610102565b3480156102d357600080fd5b5061010260055481565b6000546001600160a01b0316331461033c5760405162461bcd60e51b815260206004820152601d60248201527f4f6e6c79206f776e65722063616e20676976652061776179204e46547300000060448201526064015b60405180910390fd5b60045460055461034d908390610b8c565b111561039b5760405162461bcd60e51b815260206004820152601960248201527f4e6f7420656e6f756768204e4654732072656d61696e696e67000000000000006044820152606401610333565b60005b8181101561053857600760008484848181106103bc576103bc610ba5565b90506020020160208101906103d19190610b46565b6001600160a01b0316815260208101919091526040016000205460ff161561043b5760405162461bcd60e51b815260206004820152601f60248201527f4164647265737320616c726561647920726563656976656420616e204e4654006044820152606401610333565b60068054908190600061044d83610bbb565b90915550506005805490600061046283610bbb565b919050555060016007600086868681811061047f5761047f610ba5565b90506020020160208101906104949190610b46565b6001600160a01b031681526020810191909152604001600020805460ff19169115159190911790558383838181106104ce576104ce610ba5565b90506020020160208101906104e39190610b46565b6001600160a01b03167ff025e0c58bf784c030caa814abce9ca7cf237831d4dff71c2ade33bed4d8dd228260405161051d91815260200190565b60405180910390a2508061053081610bbb565b91505061039e565b505050565b600354341461058e5760405162461bcd60e51b815260206004820152601860248201527f496e636f7272656374207061796d656e7420616d6f756e7400000000000000006044820152606401610333565b600454600554106105d55760405162461bcd60e51b8152602060048201526011602482015270105b1b081391951cc81cdbdb19081bdd5d607a1b6044820152606401610333565b3360009081526007602052604090205460ff16156106295760405162461bcd60e51b8152602060048201526011602482015270105b1c9958591e481c1d5c98da185cd959607a1b6044820152606401610333565b60045460065411156106765760405162461bcd60e51b81526020600482015260166024820152754e6f206d6f7265204e46547320617661696c61626c6560501b6044820152606401610333565b60068054908190600061068883610bbb565b90915550506005805490600061069d83610bbb565b909155505033600081815260076020908152604091829020805460ff19166001179055815192835234908301527f6ef95f06320e7a25a04a175ca677b7052bdd97131872c2192525a629f51be770910160405180910390a16001546040516001600160a01b03909116903480156108fc02916000818181858888f1935050505015801561072e573d6000803e3d6000fd5b50600154604080516001600160a01b0390921682523460208301527f7e99594d80a854f08e1995929bca50d03000411d5987bfea7071cc8d125762c4910160405180910390a160405181815233907ff025e0c58bf784c030caa814abce9ca7cf237831d4dff71c2ade33bed4d8dd229060200160405180910390a26107b1610a7e565b50565b6001600160a01b03811660009081526007602052604081205460065460055460045484938493849360ff9092169290916107ed91610bd4565b60035493509350935093509193509193565b6000546001600160a01b031633146108505760405162461bcd60e51b815260206004820152601460248201527313db9b1e481bdddb995c8818d85b881c995cd95d60621b6044820152606401610333565b600060055560016006556402540be40060035560405142815233907f52792a7f5b0a52571949f1e7fb3a5a1672bd8a877707942a21cb3300fa02d1019060200160405180910390a2565b6000546001600160a01b031633146108f45760405162461bcd60e51b815260206004820152601d60248201527f4f6e6c79206f776e65722063616e20676976652061776179204e4654730000006044820152606401610333565b6004546005541061093b5760405162461bcd60e51b8152602060048201526011602482015270105b1b081391951cc81cdbdb19081bdd5d607a1b6044820152606401610333565b60045460065411156109885760405162461bcd60e51b81526020600482015260166024820152754e6f206d6f7265204e46547320617661696c61626c6560501b6044820152606401610333565b6001600160a01b03811660009081526007602052604090205460ff16156109f15760405162461bcd60e51b815260206004820152601f60248201527f4164647265737320616c726561647920726563656976656420616e204e4654006044820152606401610333565b600680549081906000610a0383610bbb565b909155505060058054906000610a1883610bbb565b90915550506001600160a01b03821660008181526007602052604090819020805460ff19166001179055517ff025e0c58bf784c030caa814abce9ca7cf237831d4dff71c2ade33bed4d8dd2290610a729084815260200190565b60405180910390a25050565b600354610a8f633b9aca0082610b8c565b60038190556040805183815260208101929092527f945c1c4e99aa89f648fbfe3df471b916f719e16d960fcec0737d4d56bd696838910160405180910390a150565b60008060208385031215610ae457600080fd5b823567ffffffffffffffff80821115610afc57600080fd5b818501915085601f830112610b1057600080fd5b813581811115610b1f57600080fd5b8660208260051b8501011115610b3457600080fd5b60209290920196919550909350505050565b600060208284031215610b5857600080fd5b81356001600160a01b0381168114610b6f57600080fd5b9392505050565b634e487b7160e01b600052601160045260246000fd5b80820180821115610b9f57610b9f610b76565b92915050565b634e487b7160e01b600052603260045260246000fd5b600060018201610bcd57610bcd610b76565b5060010190565b81810381811115610b9f57610b9f610b7656fea2646970667358221220a1615bc34172b6d324dc3b77848fa26f6ac7511a1e795a70584d6d730092289464736f6c63430008140033",
  "linkReferences": {},
  "deployedLinkReferences": {}
}