{"src/app/contracts/LynxMinter.sol":{"LynxMinter":{"abi":[{"inputs":[{"internalType":"address","name":"lynxToken","type":"address"},{"internalType":"address","name":"sauceToken","type":"address"},{"internalType":"address","name":"clxyToken","type":"address"}],"stateMutability":"nonpayable","type":"constructor"},{"inputs":[],"name":"InsufficientClxyAllowance","type":"error"},{"inputs":[],"name":"InsufficientHBAR","type":"error"},{"inputs":[],"name":"InsufficientLynxBalance","type":"error"},{"inputs":[],"name":"InsufficientSauceAllowance","type":"error"},{"inputs":[],"name":"InvalidAmount","type":"error"},{"inputs":[],"name":"TokenAssociationFailed","type":"error"},{"inputs":[],"name":"TokenTransferFailed","type":"error"},{"anonymous":false,"inputs":[{"indexed":true,"internalType":"address","name":"user","type":"address"},{"indexed":false,"internalType":"uint256","name":"lynxAmount","type":"uint256"},{"indexed":false,"internalType":"uint256","name":"hbarAmount","type":"uint256"},{"indexed":false,"internalType":"uint256","name":"sauceAmount","type":"uint256"},{"indexed":false,"internalType":"uint256","name":"clxyAmount","type":"uint256"}],"name":"LynxBurned","type":"event"},{"anonymous":false,"inputs":[{"indexed":true,"internalType":"address","name":"user","type":"address"},{"indexed":false,"internalType":"uint256","name":"lynxAmount","type":"uint256"},{"indexed":false,"internalType":"uint256","name":"hbarAmount","type":"uint256"},{"indexed":false,"internalType":"uint256","name":"sauceAmount","type":"uint256"},{"indexed":false,"internalType":"uint256","name":"clxyAmount","type":"uint256"}],"name":"LynxMinted","type":"event"},{"inputs":[],"name":"CLXY_TOKEN","outputs":[{"internalType":"address","name":"","type":"address"}],"stateMutability":"view","type":"function"},{"inputs":[],"name":"HTS_PRECOMPILE","outputs":[{"internalType":"address","name":"","type":"address"}],"stateMutability":"view","type":"function"},{"inputs":[],"name":"LYNX_TOKEN","outputs":[{"internalType":"address","name":"","type":"address"}],"stateMutability":"view","type":"function"},{"inputs":[],"name":"SAUCE_TOKEN","outputs":[{"internalType":"address","name":"","type":"address"}],"stateMutability":"view","type":"function"},{"inputs":[],"name":"associateTokens","outputs":[],"stateMutability":"nonpayable","type":"function"},{"inputs":[{"internalType":"uint256","name":"amount","type":"uint256"}],"name":"burn","outputs":[],"stateMutability":"nonpayable","type":"function"},{"inputs":[],"name":"hts","outputs":[{"internalType":"contract IHederaTokenService","name":"","type":"address"}],"stateMutability":"view","type":"function"},{"inputs":[{"internalType":"uint256","name":"amount","type":"uint256"}],"name":"mint","outputs":[],"stateMutability":"payable","type":"function"},{"inputs":[{"internalType":"address","name":"mockHtsPrecompile","type":"address"}],"name":"setMockHtsPrecompile","outputs":[],"stateMutability":"nonpayable","type":"function"},{"stateMutability":"payable","type":"receive"}],"evm":{"bytecode":{"linkReferences":{},"object":"60e06040525f80546001600160a01b031916610167179055348015610022575f80fd5b506040516110c53803806110c583398101604081905261004191610091565b6001600160a01b0392831660805290821660a052811660c0525f54600180546001600160a01b031916919092161790556100d1565b80516001600160a01b038116811461008c575f80fd5b919050565b5f805f606084860312156100a3575f80fd5b6100ac84610076565b92506100ba60208501610076565b91506100c860408501610076565b90509250925092565b60805160a05160c051610f6961015c5f395f818160fe015281816103a10152818161079e015281816109e10152610b6501525f818161014d015281816102e9015281816106e3015281816109260152610aaa01525f81816101d001528181610231015281816104780152818161053b015281816105e301528181610c0d0152610d0d0152610f695ff3fe608060405260043610610087575f3560e01c806342966c681161005757806342966c681461016f5780634543873d1461018e578063a0712d68146101ac578063e1e99576146101bf578063f453a53e146101f2575f80fd5b806303bd89001461009257806310ca0bce146100d95780631da965c2146100ed5780631ec65c361461013c575f80fd5b3661008e57005b5f80fd5b34801561009d575f80fd5b506100d76100ac366004610de7565b5f80546001600160a01b039092166001600160a01b0319928316811790915560018054909216179055565b005b3480156100e4575f80fd5b506100d7610211565b3480156100f8575f80fd5b506101207f000000000000000000000000000000000000000000000000000000000000000081565b6040516001600160a01b03909116815260200160405180910390f35b348015610147575f80fd5b506101207f000000000000000000000000000000000000000000000000000000000000000081565b34801561017a575f80fd5b506100d7610189366004610e14565b61043e565b348015610199575f80fd5b505f54610120906001600160a01b031681565b6100d76101ba366004610e14565b6108eb565b3480156101ca575f80fd5b506101207f000000000000000000000000000000000000000000000000000000000000000081565b3480156101fd575f80fd5b50600154610120906001600160a01b031681565b60015460405163248a35ef60e11b81523060048201526001600160a01b037f0000000000000000000000000000000000000000000000000000000000000000811660248301525f9216906349146bde906044016020604051808303815f875af1158015610280573d5f803e3d5ffd5b505050506040513d601f19601f820116820180604052508101906102a49190610e2b565b90508060070b5f146102c9576040516326ffa34560e11b815260040160405180910390fd5b60015460405163248a35ef60e11b81523060048201526001600160a01b037f0000000000000000000000000000000000000000000000000000000000000000811660248301525f9216906349146bde906044016020604051808303815f875af1158015610338573d5f803e3d5ffd5b505050506040513d601f19601f8201168201806040525081019061035c9190610e2b565b90508060070b5f14610381576040516326ffa34560e11b815260040160405180910390fd5b60015460405163248a35ef60e11b81523060048201526001600160a01b037f0000000000000000000000000000000000000000000000000000000000000000811660248301525f9216906349146bde906044016020604051808303815f875af11580156103f0573d5f803e3d5ffd5b505050506040513d601f19601f820116820180604052508101906104149190610e2b565b90508060070b5f14610439576040516326ffa34560e11b815260040160405180910390fd5b505050565b805f0361045e5760405163162908e360e11b815260040160405180910390fd5b600154604051633de222bb60e21b81526001600160a01b037f0000000000000000000000000000000000000000000000000000000000000000811660048301523360248301525f92169063f7888aec90604401602060405180830381865afa1580156104cc573d5f803e3d5ffd5b505050506040513d601f19601f820116820180604052508101906104f09190610e4b565b90508181101561051357604051632e4a20db60e11b815260040160405180910390fd5b600154604051632c54de4f60e01b81525f916001600160a01b031690632c54de4f90610569907f000000000000000000000000000000000000000000000000000000000000000090339030908990600401610e62565b6020604051808303815f875af1158015610585573d5f803e3d5ffd5b505050506040513d601f19601f820116820180604052508101906105a99190610e2b565b90508060070b5f146105ce5760405163022e258160e11b815260040160405180910390fd5b6001545f906001600160a01b031663f3fc76fa7f0000000000000000000000000000000000000000000000000000000000000000868460405190808252806020026020018201604052801561063757816020015b60608152602001906001900390816106225790505b506040518463ffffffff1660e01b815260040161065693929190610e8c565b6020604051808303815f875af1158015610672573d5f803e3d5ffd5b505050506040513d601f19601f820116820180604052508101906106969190610e2b565b90508060070b5f146106bb5760405163022e258160e11b815260040160405180910390fd5b600154604051632c54de4f60e01b81525f916001600160a01b031690632c54de4f90610711907f000000000000000000000000000000000000000000000000000000000000000090309033908b90600401610e62565b6020604051808303815f875af115801561072d573d5f803e3d5ffd5b505050506040513d601f19601f820116820180604052508101906107519190610e2b565b90508060070b5f146107765760405163022e258160e11b815260040160405180910390fd5b600154604051632c54de4f60e01b81525f916001600160a01b031690632c54de4f906107cc907f000000000000000000000000000000000000000000000000000000000000000090309033908c90600401610e62565b6020604051808303815f875af11580156107e8573d5f803e3d5ffd5b505050506040513d601f19601f8201168201806040525081019061080c9190610e2b565b90508060070b5f146108315760405163022e258160e11b815260040160405180910390fd5b6040515f90339088908381818185875af1925050503d805f8114610870576040519150601f19603f3d011682016040523d82523d5f602084013e610875565b606091505b50509050806108975760405163022e258160e11b815260040160405180910390fd5b60408051888152602081018990529081018890526060810188905233907f0a99e3ea632fcdc816b71d0e418dc65b991272ad5bbdd78f5ccf117bfe076b41906080015b60405180910390a250505050505050565b8034101561090c57604051634a4531f360e11b815260040160405180910390fd5b60015460405163927da10560e01b81526001600160a01b037f0000000000000000000000000000000000000000000000000000000000000000811660048301523360248301523060448301525f92169063927da10590606401602060405180830381865afa158015610980573d5f803e3d5ffd5b505050506040513d601f19601f820116820180604052508101906109a49190610e4b565b9050818110156109c7576040516337263f2f60e01b815260040160405180910390fd5b60015460405163927da10560e01b81526001600160a01b037f0000000000000000000000000000000000000000000000000000000000000000811660048301523360248301523060448301525f92169063927da10590606401602060405180830381865afa158015610a3b573d5f803e3d5ffd5b505050506040513d601f19601f82011682018060405250810190610a5f9190610e4b565b905082811015610a8257604051636e222fcd60e01b815260040160405180910390fd5b600154604051632c54de4f60e01b81525f916001600160a01b031690632c54de4f90610ad8907f000000000000000000000000000000000000000000000000000000000000000090339030908a90600401610e62565b6020604051808303815f875af1158015610af4573d5f803e3d5ffd5b505050506040513d601f19601f82011682018060405250810190610b189190610e2b565b90508060070b5f14610b3d5760405163022e258160e11b815260040160405180910390fd5b600154604051632c54de4f60e01b81525f916001600160a01b031690632c54de4f90610b93907f000000000000000000000000000000000000000000000000000000000000000090339030908b90600401610e62565b6020604051808303815f875af1158015610baf573d5f803e3d5ffd5b505050506040513d601f19601f82011682018060405250810190610bd39190610e2b565b90508060070b5f14610bf85760405163022e258160e11b815260040160405180910390fd5b6001545f906001600160a01b031663ec12dc027f00000000000000000000000000000000000000000000000000000000000000008884604051908082528060200260200182016040528015610c6157816020015b6060815260200190600190039081610c4c5790505b506040518463ffffffff1660e01b8152600401610c8093929190610e8c565b6020604051808303815f875af1158015610c9c573d5f803e3d5ffd5b505050506040513d601f19601f82011682018060405250810190610cc09190610e2b565b90508060070b5f14610ce55760405163022e258160e11b815260040160405180910390fd5b600154604051632c54de4f60e01b81525f916001600160a01b031690632c54de4f90610d3b907f000000000000000000000000000000000000000000000000000000000000000090309033908d90600401610e62565b6020604051808303815f875af1158015610d57573d5f803e3d5ffd5b505050506040513d601f19601f82011682018060405250810190610d7b9190610e2b565b90508060070b5f14610da05760405163022e258160e11b815260040160405180910390fd5b60408051888152602081018990529081018890526060810188905233907fc8692244b89e2a7e07e1d9ea03612e5d30118c61dd11d7e664e945287a3ce61b906080016108da565b5f60208284031215610df7575f80fd5b81356001600160a01b0381168114610e0d575f80fd5b9392505050565b5f60208284031215610e24575f80fd5b5035919050565b5f60208284031215610e3b575f80fd5b81518060070b8114610e0d575f80fd5b5f60208284031215610e5b575f80fd5b5051919050565b6001600160a01b039485168152928416602084015292166040820152606081019190915260800190565b5f6060820160018060a01b0386168352602085818501526060604085015281855180845260808601915060808160051b87010193508287015f805b83811015610f2357888703607f1901855282518051808952835b81811015610efc578281018901518a82018a01528801610ee1565b508881018801849052601f01601f1916909701860196509385019391850191600101610ec7565b50949a995050505050505050505056fea2646970667358221220c3f141c7f8f156a9122f089a5f6f4c2a21874f3cd098970fcb79649858e37f3264736f6c63430008140033","opcodes":"PUSH1 0xE0 PUSH1 0x40 MSTORE PUSH0 DUP1 SLOAD PUSH1 0x1 PUSH1 0x1 PUSH1 0xA0 SHL SUB NOT AND PUSH2 0x167 OR SWAP1 SSTORE CALLVALUE DUP1 ISZERO PUSH2 0x22 JUMPI PUSH0 DUP1 REVERT JUMPDEST POP PUSH1 0x40 MLOAD PUSH2 0x10C5 CODESIZE SUB DUP1 PUSH2 0x10C5 DUP4 CODECOPY DUP2 ADD PUSH1 0x40 DUP2 SWAP1 MSTORE PUSH2 0x41 SWAP2 PUSH2 0x91 JUMP JUMPDEST PUSH1 0x1 PUSH1 0x1 PUSH1 0xA0 SHL SUB SWAP3 DUP4 AND PUSH1 0x80 MSTORE SWAP1 DUP3 AND PUSH1 0xA0 MSTORE DUP2 AND PUSH1 0xC0 MSTORE PUSH0 SLOAD PUSH1 0x1 DUP1 SLOAD PUSH1 0x1 PUSH1 0x1 PUSH1 0xA0 SHL SUB NOT AND SWAP2 SWAP1 SWAP3 AND OR SWAP1 SSTORE PUSH2 0xD1 JUMP JUMPDEST DUP1 MLOAD PUSH1 0x1 PUSH1 0x1 PUSH1 0xA0 SHL SUB DUP2 AND DUP2 EQ PUSH2 0x8C JUMPI PUSH0 DUP1 REVERT JUMPDEST SWAP2 SWAP1 POP JUMP JUMPDEST PUSH0 DUP1 PUSH0 PUSH1 0x60 DUP5 DUP7 SUB SLT ISZERO PUSH2 0xA3 JUMPI PUSH0 DUP1 REVERT JUMPDEST PUSH2 0xAC DUP5 PUSH2 0x76 JUMP JUMPDEST SWAP3 POP PUSH2 0xBA PUSH1 0x20 DUP6 ADD PUSH2 0x76 JUMP JUMPDEST SWAP2 POP PUSH2 0xC8 PUSH1 0x40 DUP6 ADD PUSH2 0x76 JUMP JUMPDEST SWAP1 POP SWAP3 POP SWAP3 POP SWAP3 JUMP JUMPDEST PUSH1 0x80 MLOAD PUSH1 0xA0 MLOAD PUSH1 0xC0 MLOAD PUSH2 0xF69 PUSH2 0x15C PUSH0 CODECOPY PUSH0 DUP2 DUP2 PUSH1 0xFE ADD MSTORE DUP2 DUP2 PUSH2 0x3A1 ADD MSTORE DUP2 DUP2 PUSH2 0x79E ADD MSTORE DUP2 DUP2 PUSH2 0x9E1 ADD MSTORE PUSH2 0xB65 ADD MSTORE PUSH0 DUP2 DUP2 PUSH2 0x14D ADD MSTORE DUP2 DUP2 PUSH2 0x2E9 ADD MSTORE DUP2 DUP2 PUSH2 0x6E3 ADD MSTORE DUP2 DUP2 PUSH2 0x926 ADD MSTORE PUSH2 0xAAA ADD MSTORE PUSH0 DUP2 DUP2 PUSH2 0x1D0 ADD MSTORE DUP2 DUP2 PUSH2 0x231 ADD MSTORE DUP2 DUP2 PUSH2 0x478 ADD MSTORE DUP2 DUP2 PUSH2 0x53B ADD MSTORE DUP2 DUP2 PUSH2 0x5E3 ADD MSTORE DUP2 DUP2 PUSH2 0xC0D ADD MSTORE PUSH2 0xD0D ADD MSTORE PUSH2 0xF69 PUSH0 RETURN INVALID PUSH1 0x80 PUSH1 0x40 MSTORE PUSH1 0x4 CALLDATASIZE LT PUSH2 0x87 JUMPI PUSH0 CALLDATALOAD PUSH1 0xE0 SHR DUP1 PUSH4 0x42966C68 GT PUSH2 0x57 JUMPI DUP1 PUSH4 0x42966C68 EQ PUSH2 0x16F JUMPI DUP1 PUSH4 0x4543873D EQ PUSH2 0x18E JUMPI DUP1 PUSH4 0xA0712D68 EQ PUSH2 0x1AC JUMPI DUP1 PUSH4 0xE1E99576 EQ PUSH2 0x1BF JUMPI DUP1 PUSH4 0xF453A53E EQ PUSH2 0x1F2 JUMPI PUSH0 DUP1 REVERT JUMPDEST DUP1 PUSH4 0x3BD8900 EQ PUSH2 0x92 JUMPI DUP1 PUSH4 0x10CA0BCE EQ PUSH2 0xD9 JUMPI DUP1 PUSH4 0x1DA965C2 EQ PUSH2 0xED JUMPI DUP1 PUSH4 0x1EC65C36 EQ PUSH2 0x13C JUMPI PUSH0 DUP1 REVERT JUMPDEST CALLDATASIZE PUSH2 0x8E JUMPI STOP JUMPDEST PUSH0 DUP1 REVERT JUMPDEST CALLVALUE DUP1 ISZERO PUSH2 0x9D JUMPI PUSH0 DUP1 REVERT JUMPDEST POP PUSH2 0xD7 PUSH2 0xAC CALLDATASIZE PUSH1 0x4 PUSH2 0xDE7 JUMP JUMPDEST PUSH0 DUP1 SLOAD PUSH1 0x1 PUSH1 0x1 PUSH1 0xA0 SHL SUB SWAP1 SWAP3 AND PUSH1 0x1 PUSH1 0x1 PUSH1 0xA0 SHL SUB NOT SWAP3 DUP4 AND DUP2 OR SWAP1 SWAP2 SSTORE PUSH1 0x1 DUP1 SLOAD SWAP1 SWAP3 AND OR SWAP1 SSTORE JUMP JUMPDEST STOP JUMPDEST CALLVALUE DUP1 ISZERO PUSH2 0xE4 JUMPI PUSH0 DUP1 REVERT JUMPDEST POP PUSH2 0xD7 PUSH2 0x211 JUMP JUMPDEST CALLVALUE DUP1 ISZERO PUSH2 0xF8 JUMPI PUSH0 DUP1 REVERT JUMPDEST POP PUSH2 0x120 PUSH32 0x0 DUP2 JUMP JUMPDEST PUSH1 0x40 MLOAD PUSH1 0x1 PUSH1 0x1 PUSH1 0xA0 SHL SUB SWAP1 SWAP2 AND DUP2 MSTORE PUSH1 0x20 ADD PUSH1 0x40 MLOAD DUP1 SWAP2 SUB SWAP1 RETURN JUMPDEST CALLVALUE DUP1 ISZERO PUSH2 0x147 JUMPI PUSH0 DUP1 REVERT JUMPDEST POP PUSH2 0x120 PUSH32 0x0 DUP2 JUMP JUMPDEST CALLVALUE DUP1 ISZERO PUSH2 0x17A JUMPI PUSH0 DUP1 REVERT JUMPDEST POP PUSH2 0xD7 PUSH2 0x189 CALLDATASIZE PUSH1 0x4 PUSH2 0xE14 JUMP JUMPDEST PUSH2 0x43E JUMP JUMPDEST CALLVALUE DUP1 ISZERO PUSH2 0x199 JUMPI PUSH0 DUP1 REVERT JUMPDEST POP PUSH0 SLOAD PUSH2 0x120 SWAP1 PUSH1 0x1 PUSH1 0x1 PUSH1 0xA0 SHL SUB AND DUP2 JUMP JUMPDEST PUSH2 0xD7 PUSH2 0x1BA CALLDATASIZE PUSH1 0x4 PUSH2 0xE14 JUMP JUMPDEST PUSH2 0x8EB JUMP JUMPDEST CALLVALUE DUP1 ISZERO PUSH2 0x1CA JUMPI PUSH0 DUP1 REVERT JUMPDEST POP PUSH2 0x120 PUSH32 0x0 DUP2 JUMP JUMPDEST CALLVALUE DUP1 ISZERO PUSH2 0x1FD JUMPI PUSH0 DUP1 REVERT JUMPDEST POP PUSH1 0x1 SLOAD PUSH2 0x120 SWAP1 PUSH1 0x1 PUSH1 0x1 PUSH1 0xA0 SHL SUB AND DUP2 JUMP JUMPDEST PUSH1 0x1 SLOAD PUSH1 0x40 MLOAD PUSH4 0x248A35EF PUSH1 0xE1 SHL DUP2 MSTORE ADDRESS PUSH1 0x4 DUP3 ADD MSTORE PUSH1 0x1 PUSH1 0x1 PUSH1 0xA0 SHL SUB PUSH32 0x0 DUP2 AND PUSH1 0x24 DUP4 ADD MSTORE PUSH0 SWAP3 AND SWAP1 PUSH4 0x49146BDE SWAP1 PUSH1 0x44 ADD PUSH1 0x20 PUSH1 0x40 MLOAD DUP1 DUP4 SUB DUP2 PUSH0 DUP8 GAS CALL ISZERO DUP1 ISZERO PUSH2 0x280 JUMPI RETURNDATASIZE PUSH0 DUP1 RETURNDATACOPY RETURNDATASIZE PUSH0 REVERT JUMPDEST POP POP POP POP PUSH1 0x40 MLOAD RETURNDATASIZE PUSH1 0x1F NOT PUSH1 0x1F DUP3 ADD AND DUP3 ADD DUP1 PUSH1 0x40 MSTORE POP DUP2 ADD SWAP1 PUSH2 0x2A4 SWAP2 SWAP1 PUSH2 0xE2B JUMP JUMPDEST SWAP1 POP DUP1 PUSH1 0x7 SIGNEXTEND PUSH0 EQ PUSH2 0x2C9 JUMPI PUSH1 0x40 MLOAD PUSH4 0x26FFA345 PUSH1 0xE1 SHL DUP2 MSTORE PUSH1 0x4 ADD PUSH1 0x40 MLOAD DUP1 SWAP2 SUB SWAP1 REVERT JUMPDEST PUSH1 0x1 SLOAD PUSH1 0x40 MLOAD PUSH4 0x248A35EF PUSH1 0xE1 SHL DUP2 MSTORE ADDRESS PUSH1 0x4 DUP3 ADD MSTORE PUSH1 0x1 PUSH1 0x1 PUSH1 0xA0 SHL SUB PUSH32 0x0 DUP2 AND PUSH1 0x24 DUP4 ADD MSTORE PUSH0 SWAP3 AND SWAP1 PUSH4 0x49146BDE SWAP1 PUSH1 0x44 ADD PUSH1 0x20 PUSH1 0x40 MLOAD DUP1 DUP4 SUB DUP2 PUSH0 DUP8 GAS CALL ISZERO DUP1 ISZERO PUSH2 0x338 JUMPI RETURNDATASIZE PUSH0 DUP1 RETURNDATACOPY RETURNDATASIZE PUSH0 REVERT JUMPDEST POP POP POP POP PUSH1 0x40 MLOAD RETURNDATASIZE PUSH1 0x1F NOT PUSH1 0x1F DUP3 ADD AND DUP3 ADD DUP1 PUSH1 0x40 MSTORE POP DUP2 ADD SWAP1 PUSH2 0x35C SWAP2 SWAP1 PUSH2 0xE2B JUMP JUMPDEST SWAP1 POP DUP1 PUSH1 0x7 SIGNEXTEND PUSH0 EQ PUSH2 0x381 JUMPI PUSH1 0x40 MLOAD PUSH4 0x26FFA345 PUSH1 0xE1 SHL DUP2 MSTORE PUSH1 0x4 ADD PUSH1 0x40 MLOAD DUP1 SWAP2 SUB SWAP1 REVERT JUMPDEST PUSH1 0x1 SLOAD PUSH1 0x40 MLOAD PUSH4 0x248A35EF PUSH1 0xE1 SHL DUP2 MSTORE ADDRESS PUSH1 0x4 DUP3 ADD MSTORE PUSH1 0x1 PUSH1 0x1 PUSH1 0xA0 SHL SUB PUSH32 0x0 DUP2 AND PUSH1 0x24 DUP4 ADD MSTORE PUSH0 SWAP3 AND SWAP1 PUSH4 0x49146BDE SWAP1 PUSH1 0x44 ADD PUSH1 0x20 PUSH1 0x40 MLOAD DUP1 DUP4 SUB DUP2 PUSH0 DUP8 GAS CALL ISZERO DUP1 ISZERO PUSH2 0x3F0 JUMPI RETURNDATASIZE PUSH0 DUP1 RETURNDATACOPY RETURNDATASIZE PUSH0 REVERT JUMPDEST POP POP POP POP PUSH1 0x40 MLOAD RETURNDATASIZE PUSH1 0x1F NOT PUSH1 0x1F DUP3 ADD AND DUP3 ADD DUP1 PUSH1 0x40 MSTORE POP DUP2 ADD SWAP1 PUSH2 0x414 SWAP2 SWAP1 PUSH2 0xE2B JUMP JUMPDEST SWAP1 POP DUP1 PUSH1 0x7 SIGNEXTEND PUSH0 EQ PUSH2 0x439 JUMPI PUSH1 0x40 MLOAD PUSH4 0x26FFA345 PUSH1 0xE1 SHL DUP2 MSTORE PUSH1 0x4 ADD PUSH1 0x40 MLOAD DUP1 SWAP2 SUB SWAP1 REVERT JUMPDEST POP POP POP JUMP JUMPDEST DUP1 PUSH0 SUB PUSH2 0x45E JUMPI PUSH1 0x40 MLOAD PUSH4 0x162908E3 PUSH1 0xE1 SHL DUP2 MSTORE PUSH1 0x4 ADD PUSH1 0x40 MLOAD DUP1 SWAP2 SUB SWAP1 REVERT JUMPDEST PUSH1 0x1 SLOAD PUSH1 0x40 MLOAD PUSH4 0x3DE222BB PUSH1 0xE2 SHL DUP2 MSTORE PUSH1 0x1 PUSH1 0x1 PUSH1 0xA0 SHL SUB PUSH32 0x0 DUP2 AND PUSH1 0x4 DUP4 ADD MSTORE CALLER PUSH1 0x24 DUP4 ADD MSTORE PUSH0 SWAP3 AND SWAP1 PUSH4 0xF7888AEC SWAP1 PUSH1 0x44 ADD PUSH1 0x20 PUSH1 0x40 MLOAD DUP1 DUP4 SUB DUP2 DUP7 GAS STATICCALL ISZERO DUP1 ISZERO PUSH2 0x4CC JUMPI RETURNDATASIZE PUSH0 DUP1 RETURNDATACOPY RETURNDATASIZE PUSH0 REVERT JUMPDEST POP POP POP POP PUSH1 0x40 MLOAD RETURNDATASIZE PUSH1 0x1F NOT PUSH1 0x1F DUP3 ADD AND DUP3 ADD DUP1 PUSH1 0x40 MSTORE POP DUP2 ADD SWAP1 PUSH2 0x4F0 SWAP2 SWAP1 PUSH2 0xE4B JUMP JUMPDEST SWAP1 POP DUP2 DUP2 LT ISZERO PUSH2 0x513 JUMPI PUSH1 0x40 MLOAD PUSH4 0x2E4A20DB PUSH1 0xE1 SHL DUP2 MSTORE PUSH1 0x4 ADD PUSH1 0x40 MLOAD DUP1 SWAP2 SUB SWAP1 REVERT JUMPDEST PUSH1 0x1 SLOAD PUSH1 0x40 MLOAD PUSH4 0x2C54DE4F PUSH1 0xE0 SHL DUP2 MSTORE PUSH0 SWAP2 PUSH1 0x1 PUSH1 0x1 PUSH1 0xA0 SHL SUB AND SWAP1 PUSH4 0x2C54DE4F SWAP1 PUSH2 0x569 SWAP1 PUSH32 0x0 SWAP1 CALLER SWAP1 ADDRESS SWAP1 DUP10 SWAP1 PUSH1 0x4 ADD PUSH2 0xE62 JUMP JUMPDEST PUSH1 0x20 PUSH1 0x40 MLOAD DUP1 DUP4 SUB DUP2 PUSH0 DUP8 GAS CALL ISZERO DUP1 ISZERO PUSH2 0x585 JUMPI RETURNDATASIZE PUSH0 DUP1 RETURNDATACOPY RETURNDATASIZE PUSH0 REVERT JUMPDEST POP POP POP POP PUSH1 0x40 MLOAD RETURNDATASIZE PUSH1 0x1F NOT PUSH1 0x1F DUP3 ADD AND DUP3 ADD DUP1 PUSH1 0x40 MSTORE POP DUP2 ADD SWAP1 PUSH2 0x5A9 SWAP2 SWAP1 PUSH2 0xE2B JUMP JUMPDEST SWAP1 POP DUP1 PUSH1 0x7 SIGNEXTEND PUSH0 EQ PUSH2 0x5CE JUMPI PUSH1 0x40 MLOAD PUSH4 0x22E2581 PUSH1 0xE1 SHL DUP2 MSTORE PUSH1 0x4 ADD PUSH1 0x40 MLOAD DUP1 SWAP2 SUB SWAP1 REVERT JUMPDEST PUSH1 0x1 SLOAD PUSH0 SWAP1 PUSH1 0x1 PUSH1 0x1 PUSH1 0xA0 SHL SUB AND PUSH4 0xF3FC76FA PUSH32 0x0 DUP7 DUP5 PUSH1 0x40 MLOAD SWAP1 DUP1 DUP3 MSTORE DUP1 PUSH1 0x20 MUL PUSH1 0x20 ADD DUP3 ADD PUSH1 0x40 MSTORE DUP1 ISZERO PUSH2 0x637 JUMPI DUP2 PUSH1 0x20 ADD JUMPDEST PUSH1 0x60 DUP2 MSTORE PUSH1 0x20 ADD SWAP1 PUSH1 0x1 SWAP1 SUB SWAP1 DUP2 PUSH2 0x622 JUMPI SWAP1 POP JUMPDEST POP PUSH1 0x40 MLOAD DUP5 PUSH4 0xFFFFFFFF AND PUSH1 0xE0 SHL DUP2 MSTORE PUSH1 0x4 ADD PUSH2 0x656 SWAP4 SWAP3 SWAP2 SWAP1 PUSH2 0xE8C JUMP JUMPDEST PUSH1 0x20 PUSH1 0x40 MLOAD DUP1 DUP4 SUB DUP2 PUSH0 DUP8 GAS CALL ISZERO DUP1 ISZERO PUSH2 0x672 JUMPI RETURNDATASIZE PUSH0 DUP1 RETURNDATACOPY RETURNDATASIZE PUSH0 REVERT JUMPDEST POP POP POP POP PUSH1 0x40 MLOAD RETURNDATASIZE PUSH1 0x1F NOT PUSH1 0x1F DUP3 ADD AND DUP3 ADD DUP1 PUSH1 0x40 MSTORE POP DUP2 ADD SWAP1 PUSH2 0x696 SWAP2 SWAP1 PUSH2 0xE2B JUMP JUMPDEST SWAP1 POP DUP1 PUSH1 0x7 SIGNEXTEND PUSH0 EQ PUSH2 0x6BB JUMPI PUSH1 0x40 MLOAD PUSH4 0x22E2581 PUSH1 0xE1 SHL DUP2 MSTORE PUSH1 0x4 ADD PUSH1 0x40 MLOAD DUP1 SWAP2 SUB SWAP1 REVERT JUMPDEST PUSH1 0x1 SLOAD PUSH1 0x40 MLOAD PUSH4 0x2C54DE4F PUSH1 0xE0 SHL DUP2 MSTORE PUSH0 SWAP2 PUSH1 0x1 PUSH1 0x1 PUSH1 0xA0 SHL SUB AND SWAP1 PUSH4 0x2C54DE4F SWAP1 PUSH2 0x711 SWAP1 PUSH32 0x0 SWAP1 ADDRESS SWAP1 CALLER SWAP1 DUP12 SWAP1 PUSH1 0x4 ADD PUSH2 0xE62 JUMP JUMPDEST PUSH1 0x20 PUSH1 0x40 MLOAD DUP1 DUP4 SUB DUP2 PUSH0 DUP8 GAS CALL ISZERO DUP1 ISZERO PUSH2 0x72D JUMPI RETURNDATASIZE PUSH0 DUP1 RETURNDATACOPY RETURNDATASIZE PUSH0 REVERT JUMPDEST POP POP POP POP PUSH1 0x40 MLOAD RETURNDATASIZE PUSH1 0x1F NOT PUSH1 0x1F DUP3 ADD AND DUP3 ADD DUP1 PUSH1 0x40 MSTORE POP DUP2 ADD SWAP1 PUSH2 0x751 SWAP2 SWAP1 PUSH2 0xE2B JUMP JUMPDEST SWAP1 POP DUP1 PUSH1 0x7 SIGNEXTEND PUSH0 EQ PUSH2 0x776 JUMPI PUSH1 0x40 MLOAD PUSH4 0x22E2581 PUSH1 0xE1 SHL DUP2 MSTORE PUSH1 0x4 ADD PUSH1 0x40 MLOAD DUP1 SWAP2 SUB SWAP1 REVERT JUMPDEST PUSH1 0x1 SLOAD PUSH1 0x40 MLOAD PUSH4 0x2C54DE4F PUSH1 0xE0 SHL DUP2 MSTORE PUSH0 SWAP2 PUSH1 0x1 PUSH1 0x1 PUSH1 0xA0 SHL SUB AND SWAP1 PUSH4 0x2C54DE4F SWAP1 PUSH2 0x7CC SWAP1 PUSH32 0x0 SWAP1 ADDRESS SWAP1 CALLER SWAP1 DUP13 SWAP1 PUSH1 0x4 ADD PUSH2 0xE62 JUMP JUMPDEST PUSH1 0x20 PUSH1 0x40 MLOAD DUP1 DUP4 SUB DUP2 PUSH0 DUP8 GAS CALL ISZERO DUP1 ISZERO PUSH2 0x7E8 JUMPI RETURNDATASIZE PUSH0 DUP1 RETURNDATACOPY RETURNDATASIZE PUSH0 REVERT JUMPDEST POP POP POP POP PUSH1 0x40 MLOAD RETURNDATASIZE PUSH1 0x1F NOT PUSH1 0x1F DUP3 ADD AND DUP3 ADD DUP1 PUSH1 0x40 MSTORE POP DUP2 ADD SWAP1 PUSH2 0x80C SWAP2 SWAP1 PUSH2 0xE2B JUMP JUMPDEST SWAP1 POP DUP1 PUSH1 0x7 SIGNEXTEND PUSH0 EQ PUSH2 0x831 JUMPI PUSH1 0x40 MLOAD PUSH4 0x22E2581 PUSH1 0xE1 SHL DUP2 MSTORE PUSH1 0x4 ADD PUSH1 0x40 MLOAD DUP1 SWAP2 SUB SWAP1 REVERT JUMPDEST PUSH1 0x40 MLOAD PUSH0 SWAP1 CALLER SWAP1 DUP9 SWAP1 DUP4 DUP2 DUP2 DUP2 DUP6 DUP8 GAS CALL SWAP3 POP POP POP RETURNDATASIZE DUP1 PUSH0 DUP2 EQ PUSH2 0x870 JUMPI PUSH1 0x40 MLOAD SWAP2 POP PUSH1 0x1F NOT PUSH1 0x3F RETURNDATASIZE ADD AND DUP3 ADD PUSH1 0x40 MSTORE RETURNDATASIZE DUP3 MSTORE RETURNDATASIZE PUSH0 PUSH1 0x20 DUP5 ADD RETURNDATACOPY PUSH2 0x875 JUMP JUMPDEST PUSH1 0x60 SWAP2 POP JUMPDEST POP POP SWAP1 POP DUP1 PUSH2 0x897 JUMPI PUSH1 0x40 MLOAD PUSH4 0x22E2581 PUSH1 0xE1 SHL DUP2 MSTORE PUSH1 0x4 ADD PUSH1 0x40 MLOAD DUP1 SWAP2 SUB SWAP1 REVERT JUMPDEST PUSH1 0x40 DUP1 MLOAD DUP9 DUP2 MSTORE PUSH1 0x20 DUP2 ADD DUP10 SWAP1 MSTORE SWAP1 DUP2 ADD DUP9 SWAP1 MSTORE PUSH1 0x60 DUP2 ADD DUP9 SWAP1 MSTORE CALLER SWAP1 PUSH32 0xA99E3EA632FCDC816B71D0E418DC65B991272AD5BBDD78F5CCF117BFE076B41 SWAP1 PUSH1 0x80 ADD JUMPDEST PUSH1 0x40 MLOAD DUP1 SWAP2 SUB SWAP1 LOG2 POP POP POP POP POP POP POP JUMP JUMPDEST DUP1 CALLVALUE LT ISZERO PUSH2 0x90C JUMPI PUSH1 0x40 MLOAD PUSH4 0x4A4531F3 PUSH1 0xE1 SHL DUP2 MSTORE PUSH1 0x4 ADD PUSH1 0x40 MLOAD DUP1 SWAP2 SUB SWAP1 REVERT JUMPDEST PUSH1 0x1 SLOAD PUSH1 0x40 MLOAD PUSH4 0x927DA105 PUSH1 0xE0 SHL DUP2 MSTORE PUSH1 0x1 PUSH1 0x1 PUSH1 0xA0 SHL SUB PUSH32 0x0 DUP2 AND PUSH1 0x4 DUP4 ADD MSTORE CALLER PUSH1 0x24 DUP4 ADD MSTORE ADDRESS PUSH1 0x44 DUP4 ADD MSTORE PUSH0 SWAP3 AND SWAP1 PUSH4 0x927DA105 SWAP1 PUSH1 0x64 ADD PUSH1 0x20 PUSH1 0x40 MLOAD DUP1 DUP4 SUB DUP2 DUP7 GAS STATICCALL ISZERO DUP1 ISZERO PUSH2 0x980 JUMPI RETURNDATASIZE PUSH0 DUP1 RETURNDATACOPY RETURNDATASIZE PUSH0 REVERT JUMPDEST POP POP POP POP PUSH1 0x40 MLOAD RETURNDATASIZE PUSH1 0x1F NOT PUSH1 0x1F DUP3 ADD AND DUP3 ADD DUP1 PUSH1 0x40 MSTORE POP DUP2 ADD SWAP1 PUSH2 0x9A4 SWAP2 SWAP1 PUSH2 0xE4B JUMP JUMPDEST SWAP1 POP DUP2 DUP2 LT ISZERO PUSH2 0x9C7 JUMPI PUSH1 0x40 MLOAD PUSH4 0x37263F2F PUSH1 0xE0 SHL DUP2 MSTORE PUSH1 0x4 ADD PUSH1 0x40 MLOAD DUP1 SWAP2 SUB SWAP1 REVERT JUMPDEST PUSH1 0x1 SLOAD PUSH1 0x40 MLOAD PUSH4 0x927DA105 PUSH1 0xE0 SHL DUP2 MSTORE PUSH1 0x1 PUSH1 0x1 PUSH1 0xA0 SHL SUB PUSH32 0x0 DUP2 AND PUSH1 0x4 DUP4 ADD MSTORE CALLER PUSH1 0x24 DUP4 ADD MSTORE ADDRESS PUSH1 0x44 DUP4 ADD MSTORE PUSH0 SWAP3 AND SWAP1 PUSH4 0x927DA105 SWAP1 PUSH1 0x64 ADD PUSH1 0x20 PUSH1 0x40 MLOAD DUP1 DUP4 SUB DUP2 DUP7 GAS STATICCALL ISZERO DUP1 ISZERO PUSH2 0xA3B JUMPI RETURNDATASIZE PUSH0 DUP1 RETURNDATACOPY RETURNDATASIZE PUSH0 REVERT JUMPDEST POP POP POP POP PUSH1 0x40 MLOAD RETURNDATASIZE PUSH1 0x1F NOT PUSH1 0x1F DUP3 ADD AND DUP3 ADD DUP1 PUSH1 0x40 MSTORE POP DUP2 ADD SWAP1 PUSH2 0xA5F SWAP2 SWAP1 PUSH2 0xE4B JUMP JUMPDEST SWAP1 POP DUP3 DUP2 LT ISZERO PUSH2 0xA82 JUMPI PUSH1 0x40 MLOAD PUSH4 0x6E222FCD PUSH1 0xE0 SHL DUP2 MSTORE PUSH1 0x4 ADD PUSH1 0x40 MLOAD DUP1 SWAP2 SUB SWAP1 REVERT JUMPDEST PUSH1 0x1 SLOAD PUSH1 0x40 MLOAD PUSH4 0x2C54DE4F PUSH1 0xE0 SHL DUP2 MSTORE PUSH0 SWAP2 PUSH1 0x1 PUSH1 0x1 PUSH1 0xA0 SHL SUB AND SWAP1 PUSH4 0x2C54DE4F SWAP1 PUSH2 0xAD8 SWAP1 PUSH32 0x0 SWAP1 CALLER SWAP1 ADDRESS SWAP1 DUP11 SWAP1 PUSH1 0x4 ADD PUSH2 0xE62 JUMP JUMPDEST PUSH1 0x20 PUSH1 0x40 MLOAD DUP1 DUP4 SUB DUP2 PUSH0 DUP8 GAS CALL ISZERO DUP1 ISZERO PUSH2 0xAF4 JUMPI RETURNDATASIZE PUSH0 DUP1 RETURNDATACOPY RETURNDATASIZE PUSH0 REVERT JUMPDEST POP POP POP POP PUSH1 0x40 MLOAD RETURNDATASIZE PUSH1 0x1F NOT PUSH1 0x1F DUP3 ADD AND DUP3 ADD DUP1 PUSH1 0x40 MSTORE POP DUP2 ADD SWAP1 PUSH2 0xB18 SWAP2 SWAP1 PUSH2 0xE2B JUMP JUMPDEST SWAP1 POP DUP1 PUSH1 0x7 SIGNEXTEND PUSH0 EQ PUSH2 0xB3D JUMPI PUSH1 0x40 MLOAD PUSH4 0x22E2581 PUSH1 0xE1 SHL DUP2 MSTORE PUSH1 0x4 ADD PUSH1 0x40 MLOAD DUP1 SWAP2 SUB SWAP1 REVERT JUMPDEST PUSH1 0x1 SLOAD PUSH1 0x40 MLOAD PUSH4 0x2C54DE4F PUSH1 0xE0 SHL DUP2 MSTORE PUSH0 SWAP2 PUSH1 0x1 PUSH1 0x1 PUSH1 0xA0 SHL SUB AND SWAP1 PUSH4 0x2C54DE4F SWAP1 PUSH2 0xB93 SWAP1 PUSH32 0x0 SWAP1 CALLER SWAP1 ADDRESS SWAP1 DUP12 SWAP1 PUSH1 0x4 ADD PUSH2 0xE62 JUMP JUMPDEST PUSH1 0x20 PUSH1 0x40 MLOAD DUP1 DUP4 SUB DUP2 PUSH0 DUP8 GAS CALL ISZERO DUP1 ISZERO PUSH2 0xBAF JUMPI RETURNDATASIZE PUSH0 DUP1 RETURNDATACOPY RETURNDATASIZE PUSH0 REVERT JUMPDEST POP POP POP POP PUSH1 0x40 MLOAD RETURNDATASIZE PUSH1 0x1F NOT PUSH1 0x1F DUP3 ADD AND DUP3 ADD DUP1 PUSH1 0x40 MSTORE POP DUP2 ADD SWAP1 PUSH2 0xBD3 SWAP2 SWAP1 PUSH2 0xE2B JUMP JUMPDEST SWAP1 POP DUP1 PUSH1 0x7 SIGNEXTEND PUSH0 EQ PUSH2 0xBF8 JUMPI PUSH1 0x40 MLOAD PUSH4 0x22E2581 PUSH1 0xE1 SHL DUP2 MSTORE PUSH1 0x4 ADD PUSH1 0x40 MLOAD DUP1 SWAP2 SUB SWAP1 REVERT JUMPDEST PUSH1 0x1 SLOAD PUSH0 SWAP1 PUSH1 0x1 PUSH1 0x1 PUSH1 0xA0 SHL SUB AND PUSH4 0xEC12DC02 PUSH32 0x0 DUP9 DUP5 PUSH1 0x40 MLOAD SWAP1 DUP1 DUP3 MSTORE DUP1 PUSH1 0x20 MUL PUSH1 0x20 ADD DUP3 ADD PUSH1 0x40 MSTORE DUP1 ISZERO PUSH2 0xC61 JUMPI DUP2 PUSH1 0x20 ADD JUMPDEST PUSH1 0x60 DUP2 MSTORE PUSH1 0x20 ADD SWAP1 PUSH1 0x1 SWAP1 SUB SWAP1 DUP2 PUSH2 0xC4C JUMPI SWAP1 POP JUMPDEST POP PUSH1 0x40 MLOAD DUP5 PUSH4 0xFFFFFFFF AND PUSH1 0xE0 SHL DUP2 MSTORE PUSH1 0x4 ADD PUSH2 0xC80 SWAP4 SWAP3 SWAP2 SWAP1 PUSH2 0xE8C JUMP JUMPDEST PUSH1 0x20 PUSH1 0x40 MLOAD DUP1 DUP4 SUB DUP2 PUSH0 DUP8 GAS CALL ISZERO DUP1 ISZERO PUSH2 0xC9C JUMPI RETURNDATASIZE PUSH0 DUP1 RETURNDATACOPY RETURNDATASIZE PUSH0 REVERT JUMPDEST POP POP POP POP PUSH1 0x40 MLOAD RETURNDATASIZE PUSH1 0x1F NOT PUSH1 0x1F DUP3 ADD AND DUP3 ADD DUP1 PUSH1 0x40 MSTORE POP DUP2 ADD SWAP1 PUSH2 0xCC0 SWAP2 SWAP1 PUSH2 0xE2B JUMP JUMPDEST SWAP1 POP DUP1 PUSH1 0x7 SIGNEXTEND PUSH0 EQ PUSH2 0xCE5 JUMPI PUSH1 0x40 MLOAD PUSH4 0x22E2581 PUSH1 0xE1 SHL DUP2 MSTORE PUSH1 0x4 ADD PUSH1 0x40 MLOAD DUP1 SWAP2 SUB SWAP1 REVERT JUMPDEST PUSH1 0x1 SLOAD PUSH1 0x40 MLOAD PUSH4 0x2C54DE4F PUSH1 0xE0 SHL DUP2 MSTORE PUSH0 SWAP2 PUSH1 0x1 PUSH1 0x1 PUSH1 0xA0 SHL SUB AND SWAP1 PUSH4 0x2C54DE4F SWAP1 PUSH2 0xD3B SWAP1 PUSH32 0x0 SWAP1 ADDRESS SWAP1 CALLER SWAP1 DUP14 SWAP1 PUSH1 0x4 ADD PUSH2 0xE62 JUMP JUMPDEST PUSH1 0x20 PUSH1 0x40 MLOAD DUP1 DUP4 SUB DUP2 PUSH0 DUP8 GAS CALL ISZERO DUP1 ISZERO PUSH2 0xD57 JUMPI RETURNDATASIZE PUSH0 DUP1 RETURNDATACOPY RETURNDATASIZE PUSH0 REVERT JUMPDEST POP POP POP POP PUSH1 0x40 MLOAD RETURNDATASIZE PUSH1 0x1F NOT PUSH1 0x1F DUP3 ADD AND DUP3 ADD DUP1 PUSH1 0x40 MSTORE POP DUP2 ADD SWAP1 PUSH2 0xD7B SWAP2 SWAP1 PUSH2 0xE2B JUMP JUMPDEST SWAP1 POP DUP1 PUSH1 0x7 SIGNEXTEND PUSH0 EQ PUSH2 0xDA0 JUMPI PUSH1 0x40 MLOAD PUSH4 0x22E2581 PUSH1 0xE1 SHL DUP2 MSTORE PUSH1 0x4 ADD PUSH1 0x40 MLOAD DUP1 SWAP2 SUB SWAP1 REVERT JUMPDEST PUSH1 0x40 DUP1 MLOAD DUP9 DUP2 MSTORE PUSH1 0x20 DUP2 ADD DUP10 SWAP1 MSTORE SWAP1 DUP2 ADD DUP9 SWAP1 MSTORE PUSH1 0x60 DUP2 ADD DUP9 SWAP1 MSTORE CALLER SWAP1 PUSH32 0xC8692244B89E2A7E07E1D9EA03612E5D30118C61DD11D7E664E945287A3CE61B SWAP1 PUSH1 0x80 ADD PUSH2 0x8DA JUMP JUMPDEST PUSH0 PUSH1 0x20 DUP3 DUP5 SUB SLT ISZERO PUSH2 0xDF7 JUMPI PUSH0 DUP1 REVERT JUMPDEST DUP2 CALLDATALOAD PUSH1 0x1 PUSH1 0x1 PUSH1 0xA0 SHL SUB DUP2 AND DUP2 EQ PUSH2 0xE0D JUMPI PUSH0 DUP1 REVERT JUMPDEST SWAP4 SWAP3 POP POP POP JUMP JUMPDEST PUSH0 PUSH1 0x20 DUP3 DUP5 SUB SLT ISZERO PUSH2 0xE24 JUMPI PUSH0 DUP1 REVERT JUMPDEST POP CALLDATALOAD SWAP2 SWAP1 POP JUMP JUMPDEST PUSH0 PUSH1 0x20 DUP3 DUP5 SUB SLT ISZERO PUSH2 0xE3B JUMPI PUSH0 DUP1 REVERT JUMPDEST DUP2 MLOAD DUP1 PUSH1 0x7 SIGNEXTEND DUP2 EQ PUSH2 0xE0D JUMPI PUSH0 DUP1 REVERT JUMPDEST PUSH0 PUSH1 0x20 DUP3 DUP5 SUB SLT ISZERO PUSH2 0xE5B JUMPI PUSH0 DUP1 REVERT JUMPDEST POP MLOAD SWAP2 SWAP1 POP JUMP JUMPDEST PUSH1 0x1 PUSH1 0x1 PUSH1 0xA0 SHL SUB SWAP5 DUP6 AND DUP2 MSTORE SWAP3 DUP5 AND PUSH1 0x20 DUP5 ADD MSTORE SWAP3 AND PUSH1 0x40 DUP3 ADD MSTORE PUSH1 0x60 DUP2 ADD SWAP2 SWAP1 SWAP2 MSTORE PUSH1 0x80 ADD SWAP1 JUMP JUMPDEST PUSH0 PUSH1 0x60 DUP3 ADD PUSH1 0x1 DUP1 PUSH1 0xA0 SHL SUB DUP7 AND DUP4 MSTORE PUSH1 0x20 DUP6 DUP2 DUP6 ADD MSTORE PUSH1 0x60 PUSH1 0x40 DUP6 ADD MSTORE DUP2 DUP6 MLOAD DUP1 DUP5 MSTORE PUSH1 0x80 DUP7 ADD SWAP2 POP PUSH1 0x80 DUP2 PUSH1 0x5 SHL DUP8 ADD ADD SWAP4 POP DUP3 DUP8 ADD PUSH0 DUP1 JUMPDEST DUP4 DUP2 LT ISZERO PUSH2 0xF23 JUMPI DUP9 DUP8 SUB PUSH1 0x7F NOT ADD DUP6 MSTORE DUP3 MLOAD DUP1 MLOAD DUP1 DUP10 MSTORE DUP4 JUMPDEST DUP2 DUP2 LT ISZERO PUSH2 0xEFC JUMPI DUP3 DUP2 ADD DUP10 ADD MLOAD DUP11 DUP3 ADD DUP11 ADD MSTORE DUP9 ADD PUSH2 0xEE1 JUMP JUMPDEST POP DUP9 DUP2 ADD DUP9 ADD DUP5 SWAP1 MSTORE PUSH1 0x1F ADD PUSH1 0x1F NOT AND SWAP1 SWAP8 ADD DUP7 ADD SWAP7 POP SWAP4 DUP6 ADD SWAP4 SWAP2 DUP6 ADD SWAP2 PUSH1 0x1 ADD PUSH2 0xEC7 JUMP JUMPDEST POP SWAP5 SWAP11 SWAP10 POP POP POP POP POP POP POP POP POP POP JUMP INVALID LOG2 PUSH5 0x6970667358 0x22 SLT KECCAK256 0xC3 CALL COINBASE 0xC7 0xF8 CALL JUMP 0xA9 SLT 0x2F ADDMOD SWAP11 PUSH0 PUSH16 0x4C2A21874F3CD098970FCB79649858E3 PUSH32 0x3264736F6C634300081400330000000000000000000000000000000000000000 "},"methodIdentifiers":{"CLXY_TOKEN()":"1da965c2","HTS_PRECOMPILE()":"4543873d","LYNX_TOKEN()":"e1e99576","SAUCE_TOKEN()":"1ec65c36","associateTokens()":"10ca0bce","burn(uint256)":"42966c68","hts()":"f453a53e","mint(uint256)":"a0712d68","setMockHtsPrecompile(address)":"03bd8900"}}}}}