{"src/app/contracts/LynxMinter.sol":{"LynxMinter":{"abi":[{"inputs":[{"internalType":"address","name":"_lynxToken","type":"address"},{"internalType":"address","name":"_sauceToken","type":"address"},{"internalType":"address","name":"_clxyToken","type":"address"}],"stateMutability":"nonpayable","type":"constructor"},{"inputs":[],"name":"AmountMismatch","type":"error"},{"inputs":[],"name":"BurnNotPending","type":"error"},{"inputs":[],"name":"InsufficientAllowance","type":"error"},{"inputs":[],"name":"InsufficientBalance","type":"error"},{"inputs":[],"name":"InsufficientClxyAllowance","type":"error"},{"inputs":[],"name":"InsufficientClxyBalance","type":"error"},{"inputs":[],"name":"InsufficientContractBalance","type":"error"},{"inputs":[],"name":"InsufficientHBAR","type":"error"},{"inputs":[],"name":"InsufficientLynxBalance","type":"error"},{"inputs":[],"name":"InsufficientSauceAllowance","type":"error"},{"inputs":[],"name":"InsufficientSauceBalance","type":"error"},{"inputs":[],"name":"InvalidAmount","type":"error"},{"inputs":[],"name":"InvalidBurnRequester","type":"error"},{"inputs":[],"name":"OnlyOwner","type":"error"},{"inputs":[],"name":"ReentrancyGuardReentrantCall","type":"error"},{"inputs":[],"name":"TokenNotAssociated","type":"error"},{"inputs":[],"name":"TransferFailed","type":"error"},{"anonymous":false,"inputs":[{"indexed":false,"internalType":"string","name":"message","type":"string"},{"indexed":false,"internalType":"uint256","name":"amount","type":"uint256"},{"indexed":false,"internalType":"uint256","name":"nonce","type":"uint256"}],"name":"DebugBurn","type":"event"},{"anonymous":false,"inputs":[{"indexed":false,"internalType":"string","name":"message","type":"string"},{"indexed":false,"internalType":"address","name":"sender","type":"address"},{"indexed":false,"internalType":"address","name":"owner","type":"address"},{"indexed":false,"internalType":"uint256","name":"nonce","type":"uint256"},{"indexed":false,"internalType":"bool","name":"isPending","type":"bool"}],"name":"DebugConfirmMint","type":"event"},{"anonymous":false,"inputs":[{"indexed":false,"internalType":"string","name":"message","type":"string"},{"indexed":false,"internalType":"uint256","name":"value1","type":"uint256"},{"indexed":false,"internalType":"uint256","name":"value2","type":"uint256"}],"name":"DebugMint","type":"event"},{"anonymous":false,"inputs":[{"indexed":false,"internalType":"string","name":"message","type":"string"},{"indexed":false,"internalType":"address","name":"msgSender","type":"address"},{"indexed":false,"internalType":"address","name":"contractOwner","type":"address"}],"name":"DebugOwner","type":"event"},{"anonymous":false,"inputs":[{"indexed":true,"internalType":"address","name":"user","type":"address"},{"indexed":false,"internalType":"uint256","name":"hbarAmount","type":"uint256"},{"indexed":false,"internalType":"uint256","name":"sauceAmount","type":"uint256"},{"indexed":false,"internalType":"uint256","name":"clxyAmount","type":"uint256"},{"indexed":false,"internalType":"uint256","name":"lynxBurned","type":"uint256"},{"indexed":false,"internalType":"uint256","name":"burnNonce","type":"uint256"}],"name":"LynxBurned","type":"event"},{"anonymous":false,"inputs":[{"indexed":true,"internalType":"address","name":"user","type":"address"},{"indexed":false,"internalType":"uint256","name":"hbarAmount","type":"uint256"},{"indexed":false,"internalType":"uint256","name":"sauceAmount","type":"uint256"},{"indexed":false,"internalType":"uint256","name":"clxyAmount","type":"uint256"},{"indexed":false,"internalType":"uint256","name":"lynxMinted","type":"uint256"},{"indexed":false,"internalType":"uint256","name":"nonce","type":"uint256"}],"name":"LynxMinted","type":"event"},{"anonymous":false,"inputs":[{"indexed":false,"internalType":"address","name":"token","type":"address"},{"indexed":false,"internalType":"int64","name":"responseCode","type":"int64"}],"name":"TokenAssociationAttempted","type":"event"},{"anonymous":false,"inputs":[{"indexed":false,"internalType":"string","name":"message","type":"string"},{"indexed":false,"internalType":"address","name":"token","type":"address"}],"name":"TokenAssociationDebug","type":"event"},{"inputs":[],"name":"RATIO_PRECISION","outputs":[{"internalType":"uint256","name":"","type":"uint256"}],"stateMutability":"view","type":"function"},{"inputs":[],"name":"associateTokens","outputs":[],"stateMutability":"nonpayable","type":"function"},{"inputs":[{"internalType":"uint256","name":"amount","type":"uint256"}],"name":"burn","outputs":[],"stateMutability":"nonpayable","type":"function"},{"inputs":[{"internalType":"uint256","name":"","type":"uint256"}],"name":"burnAmounts","outputs":[{"internalType":"uint256","name":"","type":"uint256"}],"stateMutability":"view","type":"function"},{"inputs":[],"name":"burnNonce","outputs":[{"internalType":"uint256","name":"","type":"uint256"}],"stateMutability":"view","type":"function"},{"inputs":[{"internalType":"uint256","name":"","type":"uint256"}],"name":"burnRequester","outputs":[{"internalType":"address","name":"","type":"address"}],"stateMutability":"view","type":"function"},{"inputs":[],"name":"clxyToken","outputs":[{"internalType":"address","name":"","type":"address"}],"stateMutability":"view","type":"function"},{"inputs":[{"internalType":"uint256","name":"nonce","type":"uint256"},{"internalType":"uint256","name":"amount","type":"uint256"}],"name":"confirmBurn","outputs":[],"stateMutability":"nonpayable","type":"function"},{"inputs":[],"name":"getBalance","outputs":[{"internalType":"uint256","name":"","type":"uint256"}],"stateMutability":"view","type":"function"},{"inputs":[],"name":"getMaxMintableAmount","outputs":[{"internalType":"uint256","name":"","type":"uint256"}],"stateMutability":"view","type":"function"},{"inputs":[],"name":"lynxToken","outputs":[{"internalType":"address","name":"","type":"address"}],"stateMutability":"view","type":"function"},{"inputs":[{"internalType":"uint256","name":"amount","type":"uint256"}],"name":"mint","outputs":[],"stateMutability":"payable","type":"function"},{"inputs":[],"name":"mintNonce","outputs":[{"internalType":"uint256","name":"","type":"uint256"}],"stateMutability":"view","type":"function"},{"inputs":[],"name":"owner","outputs":[{"internalType":"address","name":"","type":"address"}],"stateMutability":"view","type":"function"},{"inputs":[{"internalType":"uint256","name":"","type":"uint256"}],"name":"pendingBurns","outputs":[{"internalType":"bool","name":"","type":"bool"}],"stateMutability":"view","type":"function"},{"inputs":[{"internalType":"uint256","name":"","type":"uint256"}],"name":"pendingMints","outputs":[{"internalType":"bool","name":"","type":"bool"}],"stateMutability":"view","type":"function"},{"inputs":[],"name":"sauceToken","outputs":[{"internalType":"address","name":"","type":"address"}],"stateMutability":"view","type":"function"},{"inputs":[{"internalType":"address","name":"_mockHtsPrecompile","type":"address"}],"name":"setMockHtsPrecompile","outputs":[],"stateMutability":"nonpayable","type":"function"},{"inputs":[],"name":"totalClxyDeposited","outputs":[{"internalType":"uint256","name":"","type":"uint256"}],"stateMutability":"view","type":"function"},{"inputs":[],"name":"totalHbarDeposited","outputs":[{"internalType":"uint256","name":"","type":"uint256"}],"stateMutability":"view","type":"function"},{"inputs":[],"name":"totalLynxMinted","outputs":[{"internalType":"uint256","name":"","type":"uint256"}],"stateMutability":"view","type":"function"},{"inputs":[],"name":"totalSauceDeposited","outputs":[{"internalType":"uint256","name":"","type":"uint256"}],"stateMutability":"view","type":"function"},{"inputs":[{"internalType":"uint256","name":"amount","type":"uint256"}],"name":"withdrawCLXY","outputs":[],"stateMutability":"nonpayable","type":"function"},{"inputs":[{"internalType":"uint256","name":"amount","type":"uint256"}],"name":"withdrawHBAR","outputs":[],"stateMutability":"nonpayable","type":"function"},{"inputs":[{"internalType":"uint256","name":"amount","type":"uint256"}],"name":"withdrawSAUCE","outputs":[],"stateMutability":"nonpayable","type":"function"}],"evm":{"bytecode":{"linkReferences":{},"object":"608060405234801562000010575f80fd5b5060405162001cd638038062001cd68339810160408190526200003391620001d1565b6001600160a01b038316620000995760405162461bcd60e51b815260206004820152602160248201527f4c594e5820746f6b656e20616464726573732063616e6e6f74206265207a65726044820152606f60f81b60648201526084015b60405180910390fd5b6001600160a01b038216620000fc5760405162461bcd60e51b815260206004820152602260248201527f534155434520746f6b656e20616464726573732063616e6e6f74206265207a65604482015261726f60f01b606482015260840162000090565b6001600160a01b0381166200015e5760405162461bcd60e51b815260206004820152602160248201527f434c585920746f6b656e20616464726573732063616e6e6f74206265207a65726044820152606f60f81b606482015260840162000090565b5f8054336001600160a01b0319918216178255600180556003805482166001600160a01b03968716179055600480548216948616949094179093556005805490931691909316179055600a819055600b5562000218565b80516001600160a01b0381168114620001cc575f80fd5b919050565b5f805f60608486031215620001e4575f80fd5b620001ef84620001b5565b9250620001ff60208501620001b5565b91506200020f60408501620001b5565b90509250925092565b611ab080620002265f395ff3fe608060405260043610610161575f3560e01c806363900ca6116100cd578063a9a0c7ff11610087578063d32867d011610062578063d32867d0146103dc578063e83a5a55146103f3578063e860ff741461041e578063ef1643e41461043d575f80fd5b8063a9a0c7ff1461036a578063acb5fb6614610389578063c9852664146103bd575f80fd5b806363900ca6146102c25780638a782285146102f05780638da5cb5b14610305578063912654cc14610323578063931679a214610342578063a0712d6814610357575f80fd5b80632ac2555f1161011e5780632ac2555f146101ef57806342966c6814610226578063474d6dea146102455780634ac647391461025a5780634c5f47f5146102985780636196d282146102ad575f80fd5b8063021074821461016557806303bd8900146101865780630a2565e4146101a757806310ca0bce146101bc57806312065fe0146101655780631b34fba2146101d0575b5f80fd5b348015610170575f80fd5b50475b6040519081526020015b60405180910390f35b348015610191575f80fd5b506101a56101a0366004611921565b61045c565b005b3480156101b2575f80fd5b5061017360065481565b3480156101c7575f80fd5b506101a56104a8565b3480156101db575f80fd5b506101a56101ea36600461194e565b610797565b3480156101fa575f80fd5b5060055461020e906001600160a01b031681565b6040516001600160a01b03909116815260200161017d565b348015610231575f80fd5b506101a561024036600461196e565b610ad1565b348015610250575f80fd5b50610173600b5481565b348015610265575f80fd5b5061028861027436600461196e565b600d6020525f908152604090205460ff1681565b604051901515815260200161017d565b3480156102a3575f80fd5b5061017360075481565b3480156102b8575f80fd5b5061017360085481565b3480156102cd575f80fd5b506102886102dc36600461196e565b600c6020525f908152604090205460ff1681565b3480156102fb575f80fd5b5061017360095481565b348015610310575f80fd5b505f5461020e906001600160a01b031681565b34801561032e575f80fd5b506101a561033d36600461196e565b610e5f565b34801561034d575f80fd5b50610173600a5481565b6101a561036536600461196e565b610ffd565b348015610375575f80fd5b506101a561038436600461196e565b6114ed565b348015610394575f80fd5b5061020e6103a336600461196e565b600e6020525f90815260409020546001600160a01b031681565b3480156103c8575f80fd5b506101a56103d736600461196e565b6115a1565b3480156103e7575f80fd5b506101736305f5e10081565b3480156103fe575f80fd5b5061017361040d36600461196e565b600f6020525f908152604090205481565b348015610429575f80fd5b5060045461020e906001600160a01b031681565b348015610448575f80fd5b5060035461020e906001600160a01b031681565b5f546001600160a01b0316331461048657604051635fc483c560e01b815260040160405180910390fd5b600280546001600160a01b0319166001600160a01b0392909216919091179055565b5f546001600160a01b031633146104d257604051635fc483c560e01b815260040160405180910390fd5b5f6104db611740565b60035460405163248a35ef60e11b81529192505f916001600160a01b03808516926349146bde926105129230921690600401611985565b6020604051808303815f875af115801561052e573d5f803e3d5ffd5b505050506040513d601f19601f82011682018060405250810190610552919061199f565b90508060070b5f148061056857508060070b60c8145b8061057657508060070b60c5145b6105c75760405162461bcd60e51b815260206004820152601760248201527f4c594e58206173736f63696174696f6e206661696c656400000000000000000060448201526064015b60405180910390fd5b6004805460405163248a35ef60e11b81525f926001600160a01b03868116936349146bde936105fc9330939092169101611985565b6020604051808303815f875af1158015610618573d5f803e3d5ffd5b505050506040513d601f19601f8201168201806040525081019061063c919061199f565b90508060070b5f148061065257508060070b60c8145b8061066057508060070b60c5145b6106ac5760405162461bcd60e51b815260206004820152601860248201527f5341554345206173736f63696174696f6e206661696c6564000000000000000060448201526064016105be565b60055460405163248a35ef60e11b81525f916001600160a01b03808716926349146bde926106e1923092911690600401611985565b6020604051808303815f875af11580156106fd573d5f803e3d5ffd5b505050506040513d601f19601f82011682018060405250810190610721919061199f565b90508060070b5f148061073757508060070b60c8145b8061074557508060070b60c5145b6107915760405162461bcd60e51b815260206004820152601760248201527f434c5859206173736f63696174696f6e206661696c656400000000000000000060448201526064016105be565b50505050565b5f546001600160a01b031633146107c157604051635fc483c560e01b815260040160405180910390fd5b6002600154036107e457604051633ee5aeb560e01b815260040160405180910390fd5b60026001555f828152600d602052604090205460ff16610817576040516361a30cc360e01b815260040160405180910390fd5b5f828152600e60205260409020546001600160a01b03168061084c576040516367d7349960e11b815260040160405180910390fd5b5f838152600f60205260409020548214610879576040516355e97b0d60e01b815260040160405180910390fd5b5f610882611740565b5f858152600d60205260408120805460ff191690556006805492935085929091906108ae9084906119d3565b925050819055508260075f8282546108c691906119d3565b925050819055508260085f8282546108de91906119d3565b925050819055508260095f8282546108f691906119d3565b90915550506040516001600160a01b0383169084156108fc029085905f818181858888f1935050505015801561092e573d5f803e3d5ffd5b506004805460405163eca3691760e01b81525f926001600160a01b038086169363eca3691793610969939190921691309189918b91016119ec565b6020604051808303815f875af1158015610985573d5f803e3d5ffd5b505050506040513d601f19601f820116820180604052508101906109a9919061199f565b90508060070b5f146109ce576040516312171d8360e31b815260040160405180910390fd5b60055460405163eca3691760e01b81525f916001600160a01b038086169263eca3691792610a06921690309089908b906004016119ec565b6020604051808303815f875af1158015610a22573d5f803e3d5ffd5b505050506040513d601f19601f82011682018060405250810190610a46919061199f565b90508060070b5f14610a6b576040516312171d8360e31b815260040160405180910390fd5b604080518681526020810187905290810186905260608101869052608081018790526001600160a01b038516907f66b3c5e78f483a532f4c956e94f29ed448255a1e505015a9fe62f66a6fca6bf99060a00160405180910390a250506001805550505050565b600260015403610af457604051633ee5aeb560e01b815260040160405180910390fd5b60026001555f819003610b1a5760405163162908e360e11b815260040160405180910390fd5b5f610b23611740565b600354604051633de222bb60e21b81529192505f916001600160a01b038085169263f7888aec92610b5c92909116903390600401611985565b602060405180830381865afa158015610b77573d5f803e3d5ffd5b505050506040513d601f19601f82011682018060405250810190610b9b919061199f565b90508260070b8160070b1215610bc457604051632e4a20db60e11b815260040160405180910390fd5b60048054604051633de222bb60e21b81525f926001600160a01b038087169363f7888aec93610bfa939190921691309101611985565b602060405180830381865afa158015610c15573d5f803e3d5ffd5b505050506040513d601f19601f82011682018060405250810190610c39919061199f565b90508360070b8160070b1215610c625760405163786e0a9960e01b815260040160405180910390fd5b600554604051633de222bb60e21b81525f916001600160a01b038087169263f7888aec92610c969216903090600401611985565b602060405180830381865afa158015610cb1573d5f803e3d5ffd5b505050506040513d601f19601f82011682018060405250810190610cd5919061199f565b90508460070b8160070b1215610cfe5760405163786e0a9960e01b815260040160405180910390fd5b60035460405163eca3691760e01b81525f916001600160a01b038088169263eca3691792610d36921690339030908c906004016119ec565b6020604051808303815f875af1158015610d52573d5f803e3d5ffd5b505050506040513d601f19601f82011682018060405250810190610d76919061199f565b90508060070b5f14610d9b576040516312171d8360e31b815260040160405180910390fd5b600b54610da9816001611a19565b600b555f818152600d60209081526040808320805460ff19166001179055600e825280832080546001600160a01b03191633179055600f90915290819020889055517fefd5ef4b032e5dbca3969a4b897938af19686b7f857ca2d8607866a51940924a90610e4a90899084906060808252600e908201526d109d5c9b881a5b9a5d1a585d195960921b60808201526020810192909252604082015260a00190565b60405180910390a15050600180555050505050565b5f546001600160a01b03163314610e8957604051635fc483c560e01b815260040160405180910390fd5b6005546040516370a0823160e01b81523060048201526001600160a01b03909116906370a0823190602401602060405180830381865afa158015610ecf573d5f803e3d5ffd5b505050506040513d601f19601f82011682018060405250810190610ef39190611a2c565b811115610f425760405162461bcd60e51b815260206004820152601960248201527f496e73756666696369656e7420434c58592062616c616e63650000000000000060448201526064016105be565b6005545f5460405163a9059cbb60e01b81526001600160a01b0391821660048201526024810184905291169063a9059cbb906044016020604051808303815f875af1158015610f93573d5f803e3d5ffd5b505050506040513d601f19601f82011682018060405250810190610fb79190611a43565b610ffa5760405162461bcd60e51b815260206004820152601460248201527310d31616481d1c985b9cd9995c8819985a5b195960621b60448201526064016105be565b50565b60026001540361102057604051633ee5aeb560e01b815260040160405180910390fd5b600260015534811461104557604051634a4531f360e11b815260040160405180910390fd5b61104e33611769565b5f611057611740565b6004805460405163927da10560e01b81526001600160a01b03918216928101929092523360248301523060448301529192505f9183169063927da10590606401602060405180830381865afa1580156110b2573d5f803e3d5ffd5b505050506040513d601f19601f820116820180604052508101906110d6919061199f565b90508260070b8160070b12156110ff576040516337263f2f60e01b815260040160405180910390fd5b60055460405163927da10560e01b81526001600160a01b0391821660048201523360248201523060448201525f9184169063927da10590606401602060405180830381865afa158015611154573d5f803e3d5ffd5b505050506040513d601f19601f82011682018060405250810190611178919061199f565b90508360070b8160070b12156111a157604051636e222fcd60e01b815260040160405180910390fd5b60048054604051633de222bb60e21b81525f926001600160a01b038088169363f7888aec936111d7939190921691339101611985565b602060405180830381865afa1580156111f2573d5f803e3d5ffd5b505050506040513d601f19601f82011682018060405250810190611216919061199f565b90508460070b8160070b121561123f5760405163052d5dcf60e51b815260040160405180910390fd5b600554604051633de222bb60e21b81525f916001600160a01b038088169263f7888aec926112739216903390600401611985565b602060405180830381865afa15801561128e573d5f803e3d5ffd5b505050506040513d601f19601f820116820180604052508101906112b2919061199f565b90508560070b8160070b12156112db576040516329be0c4d60e01b815260040160405180910390fd5b6004805460405163eca3691760e01b81525f926001600160a01b03808a169363eca3691793611315939190921691339130918e91016119ec565b6020604051808303815f875af1158015611331573d5f803e3d5ffd5b505050506040513d601f19601f82011682018060405250810190611355919061199f565b90508060070b5f1461137a576040516312171d8360e31b815260040160405180910390fd5b60055460405163eca3691760e01b81525f916001600160a01b03808a169263eca36917926113b2921690339030908e906004016119ec565b6020604051808303815f875af11580156113ce573d5f803e3d5ffd5b505050506040513d601f19601f820116820180604052508101906113f2919061199f565b90508060070b5f14611417576040516312171d8360e31b815260040160405180910390fd5b8760065f8282546114289190611a19565b925050819055508760075f8282546114409190611a19565b925050819055508760085f8282546114589190611a19565b925050819055508760095f8282546114709190611a19565b9091555050600a805433917f9cfe9c3d9b47958471f4b9ec1d8b9e9c27e0fe2eb3e3a56635045c68b03a9d31918b91829182918291905f6114b083611a62565b90915550604080519586526020860194909452928401919091526060830152608082015260a00160405180910390a2505060018055505050505050565b5f546001600160a01b0316331461151757604051635fc483c560e01b815260040160405180910390fd5b478111156115675760405162461bcd60e51b815260206004820152601960248201527f496e73756666696369656e7420484241522062616c616e63650000000000000060448201526064016105be565b5f80546040516001600160a01b039091169183156108fc02918491818181858888f1935050505015801561159d573d5f803e3d5ffd5b5050565b5f546001600160a01b031633146115cb57604051635fc483c560e01b815260040160405180910390fd5b600480546040516370a0823160e01b815230928101929092526001600160a01b0316906370a0823190602401602060405180830381865afa158015611612573d5f803e3d5ffd5b505050506040513d601f19601f820116820180604052508101906116369190611a2c565b8111156116855760405162461bcd60e51b815260206004820152601a60248201527f496e73756666696369656e742053415543452062616c616e636500000000000060448201526064016105be565b600480545f5460405163a9059cbb60e01b81526001600160a01b039182169381019390935260248301849052169063a9059cbb906044016020604051808303815f875af11580156116d8573d5f803e3d5ffd5b505050506040513d601f19601f820116820180604052508101906116fc9190611a43565b610ffa5760405162461bcd60e51b815260206004820152601560248201527414d05550d1481d1c985b9cd9995c8819985a5b1959605a1b60448201526064016105be565b6002545f906001600160a01b0316611759575061036090565b506002546001600160a01b031690565b5f611772611740565b600354604051631c97fa2960e21b81529192506001600160a01b038084169263725fe8a4926117a8928792911690600401611985565b602060405180830381865afa1580156117c3573d5f803e3d5ffd5b505050506040513d601f19601f820116820180604052508101906117e79190611a43565b61180457604051631b6521eb60e31b815260040160405180910390fd5b60048054604051631c97fa2960e21b81526001600160a01b038481169363725fe8a4936118379388939091169101611985565b602060405180830381865afa158015611852573d5f803e3d5ffd5b505050506040513d601f19601f820116820180604052508101906118769190611a43565b61189357604051631b6521eb60e31b815260040160405180910390fd5b600554604051631c97fa2960e21b81526001600160a01b038084169263725fe8a4926118c59287921690600401611985565b602060405180830381865afa1580156118e0573d5f803e3d5ffd5b505050506040513d601f19601f820116820180604052508101906119049190611a43565b61159d57604051631b6521eb60e31b815260040160405180910390fd5b5f60208284031215611931575f80fd5b81356001600160a01b0381168114611947575f80fd5b9392505050565b5f806040838503121561195f575f80fd5b50508035926020909101359150565b5f6020828403121561197e575f80fd5b5035919050565b6001600160a01b0392831681529116602082015260400190565b5f602082840312156119af575f80fd5b81518060070b8114611947575f80fd5b634e487b7160e01b5f52601160045260245ffd5b818103818111156119e6576119e66119bf565b92915050565b6001600160a01b03948516815292841660208401529216604082015260079190910b606082015260800190565b808201808211156119e6576119e66119bf565b5f60208284031215611a3c575f80fd5b5051919050565b5f60208284031215611a53575f80fd5b81518015158114611947575f80fd5b5f60018201611a7357611a736119bf565b506001019056fea264697066735822122088ed596ce8c75ce04e14cda2e7b1bcc5cd23b03505ab1d74f418e728f41f353e64736f6c63430008140033","opcodes":"PUSH1 0x80 PUSH1 0x40 MSTORE CALLVALUE DUP1 ISZERO PUSH3 0x10 JUMPI PUSH0 DUP1 REVERT JUMPDEST POP PUSH1 0x40 MLOAD PUSH3 0x1CD6 CODESIZE SUB DUP1 PUSH3 0x1CD6 DUP4 CODECOPY DUP2 ADD PUSH1 0x40 DUP2 SWAP1 MSTORE PUSH3 0x33 SWAP2 PUSH3 0x1D1 JUMP JUMPDEST PUSH1 0x1 PUSH1 0x1 PUSH1 0xA0 SHL SUB DUP4 AND PUSH3 0x99 JUMPI PUSH1 0x40 MLOAD PUSH3 0x461BCD PUSH1 0xE5 SHL DUP2 MSTORE PUSH1 0x20 PUSH1 0x4 DUP3 ADD MSTORE PUSH1 0x21 PUSH1 0x24 DUP3 ADD MSTORE PUSH32 0x4C594E5820746F6B656E20616464726573732063616E6E6F74206265207A6572 PUSH1 0x44 DUP3 ADD MSTORE PUSH1 0x6F PUSH1 0xF8 SHL PUSH1 0x64 DUP3 ADD MSTORE PUSH1 0x84 ADD JUMPDEST PUSH1 0x40 MLOAD DUP1 SWAP2 SUB SWAP1 REVERT JUMPDEST PUSH1 0x1 PUSH1 0x1 PUSH1 0xA0 SHL SUB DUP3 AND PUSH3 0xFC JUMPI PUSH1 0x40 MLOAD PUSH3 0x461BCD PUSH1 0xE5 SHL DUP2 MSTORE PUSH1 0x20 PUSH1 0x4 DUP3 ADD MSTORE PUSH1 0x22 PUSH1 0x24 DUP3 ADD MSTORE PUSH32 0x534155434520746F6B656E20616464726573732063616E6E6F74206265207A65 PUSH1 0x44 DUP3 ADD MSTORE PUSH2 0x726F PUSH1 0xF0 SHL PUSH1 0x64 DUP3 ADD MSTORE PUSH1 0x84 ADD PUSH3 0x90 JUMP JUMPDEST PUSH1 0x1 PUSH1 0x1 PUSH1 0xA0 SHL SUB DUP2 AND PUSH3 0x15E JUMPI PUSH1 0x40 MLOAD PUSH3 0x461BCD PUSH1 0xE5 SHL DUP2 MSTORE PUSH1 0x20 PUSH1 0x4 DUP3 ADD MSTORE PUSH1 0x21 PUSH1 0x24 DUP3 ADD MSTORE PUSH32 0x434C585920746F6B656E20616464726573732063616E6E6F74206265207A6572 PUSH1 0x44 DUP3 ADD MSTORE PUSH1 0x6F PUSH1 0xF8 SHL PUSH1 0x64 DUP3 ADD MSTORE PUSH1 0x84 ADD PUSH3 0x90 JUMP JUMPDEST PUSH0 DUP1 SLOAD CALLER PUSH1 0x1 PUSH1 0x1 PUSH1 0xA0 SHL SUB NOT SWAP2 DUP3 AND OR DUP3 SSTORE PUSH1 0x1 DUP1 SSTORE PUSH1 0x3 DUP1 SLOAD DUP3 AND PUSH1 0x1 PUSH1 0x1 PUSH1 0xA0 SHL SUB SWAP7 DUP8 AND OR SWAP1 SSTORE PUSH1 0x4 DUP1 SLOAD DUP3 AND SWAP5 DUP7 AND SWAP5 SWAP1 SWAP5 OR SWAP1 SWAP4 SSTORE PUSH1 0x5 DUP1 SLOAD SWAP1 SWAP4 AND SWAP2 SWAP1 SWAP4 AND OR SWAP1 SSTORE PUSH1 0xA DUP2 SWAP1 SSTORE PUSH1 0xB SSTORE PUSH3 0x218 JUMP JUMPDEST DUP1 MLOAD PUSH1 0x1 PUSH1 0x1 PUSH1 0xA0 SHL SUB DUP2 AND DUP2 EQ PUSH3 0x1CC JUMPI PUSH0 DUP1 REVERT JUMPDEST SWAP2 SWAP1 POP JUMP JUMPDEST PUSH0 DUP1 PUSH0 PUSH1 0x60 DUP5 DUP7 SUB SLT ISZERO PUSH3 0x1E4 JUMPI PUSH0 DUP1 REVERT JUMPDEST PUSH3 0x1EF DUP5 PUSH3 0x1B5 JUMP JUMPDEST SWAP3 POP PUSH3 0x1FF PUSH1 0x20 DUP6 ADD PUSH3 0x1B5 JUMP JUMPDEST SWAP2 POP PUSH3 0x20F PUSH1 0x40 DUP6 ADD PUSH3 0x1B5 JUMP JUMPDEST SWAP1 POP SWAP3 POP SWAP3 POP SWAP3 JUMP JUMPDEST PUSH2 0x1AB0 DUP1 PUSH3 0x226 PUSH0 CODECOPY PUSH0 RETURN INVALID PUSH1 0x80 PUSH1 0x40 MSTORE PUSH1 0x4 CALLDATASIZE LT PUSH2 0x161 JUMPI PUSH0 CALLDATALOAD PUSH1 0xE0 SHR DUP1 PUSH4 0x63900CA6 GT PUSH2 0xCD JUMPI DUP1 PUSH4 0xA9A0C7FF GT PUSH2 0x87 JUMPI DUP1 PUSH4 0xD32867D0 GT PUSH2 0x62 JUMPI DUP1 PUSH4 0xD32867D0 EQ PUSH2 0x3DC JUMPI DUP1 PUSH4 0xE83A5A55 EQ PUSH2 0x3F3 JUMPI DUP1 PUSH4 0xE860FF74 EQ PUSH2 0x41E JUMPI DUP1 PUSH4 0xEF1643E4 EQ PUSH2 0x43D JUMPI PUSH0 DUP1 REVERT JUMPDEST DUP1 PUSH4 0xA9A0C7FF EQ PUSH2 0x36A JUMPI DUP1 PUSH4 0xACB5FB66 EQ PUSH2 0x389 JUMPI DUP1 PUSH4 0xC9852664 EQ PUSH2 0x3BD JUMPI PUSH0 DUP1 REVERT JUMPDEST DUP1 PUSH4 0x63900CA6 EQ PUSH2 0x2C2 JUMPI DUP1 PUSH4 0x8A782285 EQ PUSH2 0x2F0 JUMPI DUP1 PUSH4 0x8DA5CB5B EQ PUSH2 0x305 JUMPI DUP1 PUSH4 0x912654CC EQ PUSH2 0x323 JUMPI DUP1 PUSH4 0x931679A2 EQ PUSH2 0x342 JUMPI DUP1 PUSH4 0xA0712D68 EQ PUSH2 0x357 JUMPI PUSH0 DUP1 REVERT JUMPDEST DUP1 PUSH4 0x2AC2555F GT PUSH2 0x11E JUMPI DUP1 PUSH4 0x2AC2555F EQ PUSH2 0x1EF JUMPI DUP1 PUSH4 0x42966C68 EQ PUSH2 0x226 JUMPI DUP1 PUSH4 0x474D6DEA EQ PUSH2 0x245 JUMPI DUP1 PUSH4 0x4AC64739 EQ PUSH2 0x25A JUMPI DUP1 PUSH4 0x4C5F47F5 EQ PUSH2 0x298 JUMPI DUP1 PUSH4 0x6196D282 EQ PUSH2 0x2AD JUMPI PUSH0 DUP1 REVERT JUMPDEST DUP1 PUSH4 0x2107482 EQ PUSH2 0x165 JUMPI DUP1 PUSH4 0x3BD8900 EQ PUSH2 0x186 JUMPI DUP1 PUSH4 0xA2565E4 EQ PUSH2 0x1A7 JUMPI DUP1 PUSH4 0x10CA0BCE EQ PUSH2 0x1BC JUMPI DUP1 PUSH4 0x12065FE0 EQ PUSH2 0x165 JUMPI DUP1 PUSH4 0x1B34FBA2 EQ PUSH2 0x1D0 JUMPI JUMPDEST PUSH0 DUP1 REVERT JUMPDEST CALLVALUE DUP1 ISZERO PUSH2 0x170 JUMPI PUSH0 DUP1 REVERT JUMPDEST POP SELFBALANCE JUMPDEST PUSH1 0x40 MLOAD SWAP1 DUP2 MSTORE PUSH1 0x20 ADD JUMPDEST PUSH1 0x40 MLOAD DUP1 SWAP2 SUB SWAP1 RETURN JUMPDEST CALLVALUE DUP1 ISZERO PUSH2 0x191 JUMPI PUSH0 DUP1 REVERT JUMPDEST POP PUSH2 0x1A5 PUSH2 0x1A0 CALLDATASIZE PUSH1 0x4 PUSH2 0x1921 JUMP JUMPDEST PUSH2 0x45C JUMP JUMPDEST STOP JUMPDEST CALLVALUE DUP1 ISZERO PUSH2 0x1B2 JUMPI PUSH0 DUP1 REVERT JUMPDEST POP PUSH2 0x173 PUSH1 0x6 SLOAD DUP2 JUMP JUMPDEST CALLVALUE DUP1 ISZERO PUSH2 0x1C7 JUMPI PUSH0 DUP1 REVERT JUMPDEST POP PUSH2 0x1A5 PUSH2 0x4A8 JUMP JUMPDEST CALLVALUE DUP1 ISZERO PUSH2 0x1DB JUMPI PUSH0 DUP1 REVERT JUMPDEST POP PUSH2 0x1A5 PUSH2 0x1EA CALLDATASIZE PUSH1 0x4 PUSH2 0x194E JUMP JUMPDEST PUSH2 0x797 JUMP JUMPDEST CALLVALUE DUP1 ISZERO PUSH2 0x1FA JUMPI PUSH0 DUP1 REVERT JUMPDEST POP PUSH1 0x5 SLOAD PUSH2 0x20E SWAP1 PUSH1 0x1 PUSH1 0x1 PUSH1 0xA0 SHL SUB AND DUP2 JUMP JUMPDEST PUSH1 0x40 MLOAD PUSH1 0x1 PUSH1 0x1 PUSH1 0xA0 SHL SUB SWAP1 SWAP2 AND DUP2 MSTORE PUSH1 0x20 ADD PUSH2 0x17D JUMP JUMPDEST CALLVALUE DUP1 ISZERO PUSH2 0x231 JUMPI PUSH0 DUP1 REVERT JUMPDEST POP PUSH2 0x1A5 PUSH2 0x240 CALLDATASIZE PUSH1 0x4 PUSH2 0x196E JUMP JUMPDEST PUSH2 0xAD1 JUMP JUMPDEST CALLVALUE DUP1 ISZERO PUSH2 0x250 JUMPI PUSH0 DUP1 REVERT JUMPDEST POP PUSH2 0x173 PUSH1 0xB SLOAD DUP2 JUMP JUMPDEST CALLVALUE DUP1 ISZERO PUSH2 0x265 JUMPI PUSH0 DUP1 REVERT JUMPDEST POP PUSH2 0x288 PUSH2 0x274 CALLDATASIZE PUSH1 0x4 PUSH2 0x196E JUMP JUMPDEST PUSH1 0xD PUSH1 0x20 MSTORE PUSH0 SWAP1 DUP2 MSTORE PUSH1 0x40 SWAP1 KECCAK256 SLOAD PUSH1 0xFF AND DUP2 JUMP JUMPDEST PUSH1 0x40 MLOAD SWAP1 ISZERO ISZERO DUP2 MSTORE PUSH1 0x20 ADD PUSH2 0x17D JUMP JUMPDEST CALLVALUE DUP1 ISZERO PUSH2 0x2A3 JUMPI PUSH0 DUP1 REVERT JUMPDEST POP PUSH2 0x173 PUSH1 0x7 SLOAD DUP2 JUMP JUMPDEST CALLVALUE DUP1 ISZERO PUSH2 0x2B8 JUMPI PUSH0 DUP1 REVERT JUMPDEST POP PUSH2 0x173 PUSH1 0x8 SLOAD DUP2 JUMP JUMPDEST CALLVALUE DUP1 ISZERO PUSH2 0x2CD JUMPI PUSH0 DUP1 REVERT JUMPDEST POP PUSH2 0x288 PUSH2 0x2DC CALLDATASIZE PUSH1 0x4 PUSH2 0x196E JUMP JUMPDEST PUSH1 0xC PUSH1 0x20 MSTORE PUSH0 SWAP1 DUP2 MSTORE PUSH1 0x40 SWAP1 KECCAK256 SLOAD PUSH1 0xFF AND DUP2 JUMP JUMPDEST CALLVALUE DUP1 ISZERO PUSH2 0x2FB JUMPI PUSH0 DUP1 REVERT JUMPDEST POP PUSH2 0x173 PUSH1 0x9 SLOAD DUP2 JUMP JUMPDEST CALLVALUE DUP1 ISZERO PUSH2 0x310 JUMPI PUSH0 DUP1 REVERT JUMPDEST POP PUSH0 SLOAD PUSH2 0x20E SWAP1 PUSH1 0x1 PUSH1 0x1 PUSH1 0xA0 SHL SUB AND DUP2 JUMP JUMPDEST CALLVALUE DUP1 ISZERO PUSH2 0x32E JUMPI PUSH0 DUP1 REVERT JUMPDEST POP PUSH2 0x1A5 PUSH2 0x33D CALLDATASIZE PUSH1 0x4 PUSH2 0x196E JUMP JUMPDEST PUSH2 0xE5F JUMP JUMPDEST CALLVALUE DUP1 ISZERO PUSH2 0x34D JUMPI PUSH0 DUP1 REVERT JUMPDEST POP PUSH2 0x173 PUSH1 0xA SLOAD DUP2 JUMP JUMPDEST PUSH2 0x1A5 PUSH2 0x365 CALLDATASIZE PUSH1 0x4 PUSH2 0x196E JUMP JUMPDEST PUSH2 0xFFD JUMP JUMPDEST CALLVALUE DUP1 ISZERO PUSH2 0x375 JUMPI PUSH0 DUP1 REVERT JUMPDEST POP PUSH2 0x1A5 PUSH2 0x384 CALLDATASIZE PUSH1 0x4 PUSH2 0x196E JUMP JUMPDEST PUSH2 0x14ED JUMP JUMPDEST CALLVALUE DUP1 ISZERO PUSH2 0x394 JUMPI PUSH0 DUP1 REVERT JUMPDEST POP PUSH2 0x20E PUSH2 0x3A3 CALLDATASIZE PUSH1 0x4 PUSH2 0x196E JUMP JUMPDEST PUSH1 0xE PUSH1 0x20 MSTORE PUSH0 SWAP1 DUP2 MSTORE PUSH1 0x40 SWAP1 KECCAK256 SLOAD PUSH1 0x1 PUSH1 0x1 PUSH1 0xA0 SHL SUB AND DUP2 JUMP JUMPDEST CALLVALUE DUP1 ISZERO PUSH2 0x3C8 JUMPI PUSH0 DUP1 REVERT JUMPDEST POP PUSH2 0x1A5 PUSH2 0x3D7 CALLDATASIZE PUSH1 0x4 PUSH2 0x196E JUMP JUMPDEST PUSH2 0x15A1 JUMP JUMPDEST CALLVALUE DUP1 ISZERO PUSH2 0x3E7 JUMPI PUSH0 DUP1 REVERT JUMPDEST POP PUSH2 0x173 PUSH4 0x5F5E100 DUP2 JUMP JUMPDEST CALLVALUE DUP1 ISZERO PUSH2 0x3FE JUMPI PUSH0 DUP1 REVERT JUMPDEST POP PUSH2 0x173 PUSH2 0x40D CALLDATASIZE PUSH1 0x4 PUSH2 0x196E JUMP JUMPDEST PUSH1 0xF PUSH1 0x20 MSTORE PUSH0 SWAP1 DUP2 MSTORE PUSH1 0x40 SWAP1 KECCAK256 SLOAD DUP2 JUMP JUMPDEST CALLVALUE DUP1 ISZERO PUSH2 0x429 JUMPI PUSH0 DUP1 REVERT JUMPDEST POP PUSH1 0x4 SLOAD PUSH2 0x20E SWAP1 PUSH1 0x1 PUSH1 0x1 PUSH1 0xA0 SHL SUB AND DUP2 JUMP JUMPDEST CALLVALUE DUP1 ISZERO PUSH2 0x448 JUMPI PUSH0 DUP1 REVERT JUMPDEST POP PUSH1 0x3 SLOAD PUSH2 0x20E SWAP1 PUSH1 0x1 PUSH1 0x1 PUSH1 0xA0 SHL SUB AND DUP2 JUMP JUMPDEST PUSH0 SLOAD PUSH1 0x1 PUSH1 0x1 PUSH1 0xA0 SHL SUB AND CALLER EQ PUSH2 0x486 JUMPI PUSH1 0x40 MLOAD PUSH4 0x5FC483C5 PUSH1 0xE0 SHL DUP2 MSTORE PUSH1 0x4 ADD PUSH1 0x40 MLOAD DUP1 SWAP2 SUB SWAP1 REVERT JUMPDEST PUSH1 0x2 DUP1 SLOAD PUSH1 0x1 PUSH1 0x1 PUSH1 0xA0 SHL SUB NOT AND PUSH1 0x1 PUSH1 0x1 PUSH1 0xA0 SHL SUB SWAP3 SWAP1 SWAP3 AND SWAP2 SWAP1 SWAP2 OR SWAP1 SSTORE JUMP JUMPDEST PUSH0 SLOAD PUSH1 0x1 PUSH1 0x1 PUSH1 0xA0 SHL SUB AND CALLER EQ PUSH2 0x4D2 JUMPI PUSH1 0x40 MLOAD PUSH4 0x5FC483C5 PUSH1 0xE0 SHL DUP2 MSTORE PUSH1 0x4 ADD PUSH1 0x40 MLOAD DUP1 SWAP2 SUB SWAP1 REVERT JUMPDEST PUSH0 PUSH2 0x4DB PUSH2 0x1740 JUMP JUMPDEST PUSH1 0x3 SLOAD PUSH1 0x40 MLOAD PUSH4 0x248A35EF PUSH1 0xE1 SHL DUP2 MSTORE SWAP2 SWAP3 POP PUSH0 SWAP2 PUSH1 0x1 PUSH1 0x1 PUSH1 0xA0 SHL SUB DUP1 DUP6 AND SWAP3 PUSH4 0x49146BDE SWAP3 PUSH2 0x512 SWAP3 ADDRESS SWAP3 AND SWAP1 PUSH1 0x4 ADD PUSH2 0x1985 JUMP JUMPDEST PUSH1 0x20 PUSH1 0x40 MLOAD DUP1 DUP4 SUB DUP2 PUSH0 DUP8 GAS CALL ISZERO DUP1 ISZERO PUSH2 0x52E JUMPI RETURNDATASIZE PUSH0 DUP1 RETURNDATACOPY RETURNDATASIZE PUSH0 REVERT JUMPDEST POP POP POP POP PUSH1 0x40 MLOAD RETURNDATASIZE PUSH1 0x1F NOT PUSH1 0x1F DUP3 ADD AND DUP3 ADD DUP1 PUSH1 0x40 MSTORE POP DUP2 ADD SWAP1 PUSH2 0x552 SWAP2 SWAP1 PUSH2 0x199F JUMP JUMPDEST SWAP1 POP DUP1 PUSH1 0x7 SIGNEXTEND PUSH0 EQ DUP1 PUSH2 0x568 JUMPI POP DUP1 PUSH1 0x7 SIGNEXTEND PUSH1 0xC8 EQ JUMPDEST DUP1 PUSH2 0x576 JUMPI POP DUP1 PUSH1 0x7 SIGNEXTEND PUSH1 0xC5 EQ JUMPDEST PUSH2 0x5C7 JUMPI PUSH1 0x40 MLOAD PUSH3 0x461BCD PUSH1 0xE5 SHL DUP2 MSTORE PUSH1 0x20 PUSH1 0x4 DUP3 ADD MSTORE PUSH1 0x17 PUSH1 0x24 DUP3 ADD MSTORE PUSH32 0x4C594E58206173736F63696174696F6E206661696C6564000000000000000000 PUSH1 0x44 DUP3 ADD MSTORE PUSH1 0x64 ADD JUMPDEST PUSH1 0x40 MLOAD DUP1 SWAP2 SUB SWAP1 REVERT JUMPDEST PUSH1 0x4 DUP1 SLOAD PUSH1 0x40 MLOAD PUSH4 0x248A35EF PUSH1 0xE1 SHL DUP2 MSTORE PUSH0 SWAP3 PUSH1 0x1 PUSH1 0x1 PUSH1 0xA0 SHL SUB DUP7 DUP2 AND SWAP4 PUSH4 0x49146BDE SWAP4 PUSH2 0x5FC SWAP4 ADDRESS SWAP4 SWAP1 SWAP3 AND SWAP2 ADD PUSH2 0x1985 JUMP JUMPDEST PUSH1 0x20 PUSH1 0x40 MLOAD DUP1 DUP4 SUB DUP2 PUSH0 DUP8 GAS CALL ISZERO DUP1 ISZERO PUSH2 0x618 JUMPI RETURNDATASIZE PUSH0 DUP1 RETURNDATACOPY RETURNDATASIZE PUSH0 REVERT JUMPDEST POP POP POP POP PUSH1 0x40 MLOAD RETURNDATASIZE PUSH1 0x1F NOT PUSH1 0x1F DUP3 ADD AND DUP3 ADD DUP1 PUSH1 0x40 MSTORE POP DUP2 ADD SWAP1 PUSH2 0x63C SWAP2 SWAP1 PUSH2 0x199F JUMP JUMPDEST SWAP1 POP DUP1 PUSH1 0x7 SIGNEXTEND PUSH0 EQ DUP1 PUSH2 0x652 JUMPI POP DUP1 PUSH1 0x7 SIGNEXTEND PUSH1 0xC8 EQ JUMPDEST DUP1 PUSH2 0x660 JUMPI POP DUP1 PUSH1 0x7 SIGNEXTEND PUSH1 0xC5 EQ JUMPDEST PUSH2 0x6AC JUMPI PUSH1 0x40 MLOAD PUSH3 0x461BCD PUSH1 0xE5 SHL DUP2 MSTORE PUSH1 0x20 PUSH1 0x4 DUP3 ADD MSTORE PUSH1 0x18 PUSH1 0x24 DUP3 ADD MSTORE PUSH32 0x5341554345206173736F63696174696F6E206661696C65640000000000000000 PUSH1 0x44 DUP3 ADD MSTORE PUSH1 0x64 ADD PUSH2 0x5BE JUMP JUMPDEST PUSH1 0x5 SLOAD PUSH1 0x40 MLOAD PUSH4 0x248A35EF PUSH1 0xE1 SHL DUP2 MSTORE PUSH0 SWAP2 PUSH1 0x1 PUSH1 0x1 PUSH1 0xA0 SHL SUB DUP1 DUP8 AND SWAP3 PUSH4 0x49146BDE SWAP3 PUSH2 0x6E1 SWAP3 ADDRESS SWAP3 SWAP2 AND SWAP1 PUSH1 0x4 ADD PUSH2 0x1985 JUMP JUMPDEST PUSH1 0x20 PUSH1 0x40 MLOAD DUP1 DUP4 SUB DUP2 PUSH0 DUP8 GAS CALL ISZERO DUP1 ISZERO PUSH2 0x6FD JUMPI RETURNDATASIZE PUSH0 DUP1 RETURNDATACOPY RETURNDATASIZE PUSH0 REVERT JUMPDEST POP POP POP POP PUSH1 0x40 MLOAD RETURNDATASIZE PUSH1 0x1F NOT PUSH1 0x1F DUP3 ADD AND DUP3 ADD DUP1 PUSH1 0x40 MSTORE POP DUP2 ADD SWAP1 PUSH2 0x721 SWAP2 SWAP1 PUSH2 0x199F JUMP JUMPDEST SWAP1 POP DUP1 PUSH1 0x7 SIGNEXTEND PUSH0 EQ DUP1 PUSH2 0x737 JUMPI POP DUP1 PUSH1 0x7 SIGNEXTEND PUSH1 0xC8 EQ JUMPDEST DUP1 PUSH2 0x745 JUMPI POP DUP1 PUSH1 0x7 SIGNEXTEND PUSH1 0xC5 EQ JUMPDEST PUSH2 0x791 JUMPI PUSH1 0x40 MLOAD PUSH3 0x461BCD PUSH1 0xE5 SHL DUP2 MSTORE PUSH1 0x20 PUSH1 0x4 DUP3 ADD MSTORE PUSH1 0x17 PUSH1 0x24 DUP3 ADD MSTORE PUSH32 0x434C5859206173736F63696174696F6E206661696C6564000000000000000000 PUSH1 0x44 DUP3 ADD MSTORE PUSH1 0x64 ADD PUSH2 0x5BE JUMP JUMPDEST POP POP POP POP JUMP JUMPDEST PUSH0 SLOAD PUSH1 0x1 PUSH1 0x1 PUSH1 0xA0 SHL SUB AND CALLER EQ PUSH2 0x7C1 JUMPI PUSH1 0x40 MLOAD PUSH4 0x5FC483C5 PUSH1 0xE0 SHL DUP2 MSTORE PUSH1 0x4 ADD PUSH1 0x40 MLOAD DUP1 SWAP2 SUB SWAP1 REVERT JUMPDEST PUSH1 0x2 PUSH1 0x1 SLOAD SUB PUSH2 0x7E4 JUMPI PUSH1 0x40 MLOAD PUSH4 0x3EE5AEB5 PUSH1 0xE0 SHL DUP2 MSTORE PUSH1 0x4 ADD PUSH1 0x40 MLOAD DUP1 SWAP2 SUB SWAP1 REVERT JUMPDEST PUSH1 0x2 PUSH1 0x1 SSTORE PUSH0 DUP3 DUP2 MSTORE PUSH1 0xD PUSH1 0x20 MSTORE PUSH1 0x40 SWAP1 KECCAK256 SLOAD PUSH1 0xFF AND PUSH2 0x817 JUMPI PUSH1 0x40 MLOAD PUSH4 0x61A30CC3 PUSH1 0xE0 SHL DUP2 MSTORE PUSH1 0x4 ADD PUSH1 0x40 MLOAD DUP1 SWAP2 SUB SWAP1 REVERT JUMPDEST PUSH0 DUP3 DUP2 MSTORE PUSH1 0xE PUSH1 0x20 MSTORE PUSH1 0x40 SWAP1 KECCAK256 SLOAD PUSH1 0x1 PUSH1 0x1 PUSH1 0xA0 SHL SUB AND DUP1 PUSH2 0x84C JUMPI PUSH1 0x40 MLOAD PUSH4 0x67D73499 PUSH1 0xE1 SHL DUP2 MSTORE PUSH1 0x4 ADD PUSH1 0x40 MLOAD DUP1 SWAP2 SUB SWAP1 REVERT JUMPDEST PUSH0 DUP4 DUP2 MSTORE PUSH1 0xF PUSH1 0x20 MSTORE PUSH1 0x40 SWAP1 KECCAK256 SLOAD DUP3 EQ PUSH2 0x879 JUMPI PUSH1 0x40 MLOAD PUSH4 0x55E97B0D PUSH1 0xE0 SHL DUP2 MSTORE PUSH1 0x4 ADD PUSH1 0x40 MLOAD DUP1 SWAP2 SUB SWAP1 REVERT JUMPDEST PUSH0 PUSH2 0x882 PUSH2 0x1740 JUMP JUMPDEST PUSH0 DUP6 DUP2 MSTORE PUSH1 0xD PUSH1 0x20 MSTORE PUSH1 0x40 DUP2 KECCAK256 DUP1 SLOAD PUSH1 0xFF NOT AND SWAP1 SSTORE PUSH1 0x6 DUP1 SLOAD SWAP3 SWAP4 POP DUP6 SWAP3 SWAP1 SWAP2 SWAP1 PUSH2 0x8AE SWAP1 DUP5 SWAP1 PUSH2 0x19D3 JUMP JUMPDEST SWAP3 POP POP DUP2 SWAP1 SSTORE POP DUP3 PUSH1 0x7 PUSH0 DUP3 DUP3 SLOAD PUSH2 0x8C6 SWAP2 SWAP1 PUSH2 0x19D3 JUMP JUMPDEST SWAP3 POP POP DUP2 SWAP1 SSTORE POP DUP3 PUSH1 0x8 PUSH0 DUP3 DUP3 SLOAD PUSH2 0x8DE SWAP2 SWAP1 PUSH2 0x19D3 JUMP JUMPDEST SWAP3 POP POP DUP2 SWAP1 SSTORE POP DUP3 PUSH1 0x9 PUSH0 DUP3 DUP3 SLOAD PUSH2 0x8F6 SWAP2 SWAP1 PUSH2 0x19D3 JUMP JUMPDEST SWAP1 SWAP2 SSTORE POP POP PUSH1 0x40 MLOAD PUSH1 0x1 PUSH1 0x1 PUSH1 0xA0 SHL SUB DUP4 AND SWAP1 DUP5 ISZERO PUSH2 0x8FC MUL SWAP1 DUP6 SWAP1 PUSH0 DUP2 DUP2 DUP2 DUP6 DUP9 DUP9 CALL SWAP4 POP POP POP POP ISZERO DUP1 ISZERO PUSH2 0x92E JUMPI RETURNDATASIZE PUSH0 DUP1 RETURNDATACOPY RETURNDATASIZE PUSH0 REVERT JUMPDEST POP PUSH1 0x4 DUP1 SLOAD PUSH1 0x40 MLOAD PUSH4 0xECA36917 PUSH1 0xE0 SHL DUP2 MSTORE PUSH0 SWAP3 PUSH1 0x1 PUSH1 0x1 PUSH1 0xA0 SHL SUB DUP1 DUP7 AND SWAP4 PUSH4 0xECA36917 SWAP4 PUSH2 0x969 SWAP4 SWAP2 SWAP1 SWAP3 AND SWAP2 ADDRESS SWAP2 DUP10 SWAP2 DUP12 SWAP2 ADD PUSH2 0x19EC JUMP JUMPDEST PUSH1 0x20 PUSH1 0x40 MLOAD DUP1 DUP4 SUB DUP2 PUSH0 DUP8 GAS CALL ISZERO DUP1 ISZERO PUSH2 0x985 JUMPI RETURNDATASIZE PUSH0 DUP1 RETURNDATACOPY RETURNDATASIZE PUSH0 REVERT JUMPDEST POP POP POP POP PUSH1 0x40 MLOAD RETURNDATASIZE PUSH1 0x1F NOT PUSH1 0x1F DUP3 ADD AND DUP3 ADD DUP1 PUSH1 0x40 MSTORE POP DUP2 ADD SWAP1 PUSH2 0x9A9 SWAP2 SWAP1 PUSH2 0x199F JUMP JUMPDEST SWAP1 POP DUP1 PUSH1 0x7 SIGNEXTEND PUSH0 EQ PUSH2 0x9CE JUMPI PUSH1 0x40 MLOAD PUSH4 0x12171D83 PUSH1 0xE3 SHL DUP2 MSTORE PUSH1 0x4 ADD PUSH1 0x40 MLOAD DUP1 SWAP2 SUB SWAP1 REVERT JUMPDEST PUSH1 0x5 SLOAD PUSH1 0x40 MLOAD PUSH4 0xECA36917 PUSH1 0xE0 SHL DUP2 MSTORE PUSH0 SWAP2 PUSH1 0x1 PUSH1 0x1 PUSH1 0xA0 SHL SUB DUP1 DUP7 AND SWAP3 PUSH4 0xECA36917 SWAP3 PUSH2 0xA06 SWAP3 AND SWAP1 ADDRESS SWAP1 DUP10 SWAP1 DUP12 SWAP1 PUSH1 0x4 ADD PUSH2 0x19EC JUMP JUMPDEST PUSH1 0x20 PUSH1 0x40 MLOAD DUP1 DUP4 SUB DUP2 PUSH0 DUP8 GAS CALL ISZERO DUP1 ISZERO PUSH2 0xA22 JUMPI RETURNDATASIZE PUSH0 DUP1 RETURNDATACOPY RETURNDATASIZE PUSH0 REVERT JUMPDEST POP POP POP POP PUSH1 0x40 MLOAD RETURNDATASIZE PUSH1 0x1F NOT PUSH1 0x1F DUP3 ADD AND DUP3 ADD DUP1 PUSH1 0x40 MSTORE POP DUP2 ADD SWAP1 PUSH2 0xA46 SWAP2 SWAP1 PUSH2 0x199F JUMP JUMPDEST SWAP1 POP DUP1 PUSH1 0x7 SIGNEXTEND PUSH0 EQ PUSH2 0xA6B JUMPI PUSH1 0x40 MLOAD PUSH4 0x12171D83 PUSH1 0xE3 SHL DUP2 MSTORE PUSH1 0x4 ADD PUSH1 0x40 MLOAD DUP1 SWAP2 SUB SWAP1 REVERT JUMPDEST PUSH1 0x40 DUP1 MLOAD DUP7 DUP2 MSTORE PUSH1 0x20 DUP2 ADD DUP8 SWAP1 MSTORE SWAP1 DUP2 ADD DUP7 SWAP1 MSTORE PUSH1 0x60 DUP2 ADD DUP7 SWAP1 MSTORE PUSH1 0x80 DUP2 ADD DUP8 SWAP1 MSTORE PUSH1 0x1 PUSH1 0x1 PUSH1 0xA0 SHL SUB DUP6 AND SWAP1 PUSH32 0x66B3C5E78F483A532F4C956E94F29ED448255A1E505015A9FE62F66A6FCA6BF9 SWAP1 PUSH1 0xA0 ADD PUSH1 0x40 MLOAD DUP1 SWAP2 SUB SWAP1 LOG2 POP POP PUSH1 0x1 DUP1 SSTORE POP POP POP POP JUMP JUMPDEST PUSH1 0x2 PUSH1 0x1 SLOAD SUB PUSH2 0xAF4 JUMPI PUSH1 0x40 MLOAD PUSH4 0x3EE5AEB5 PUSH1 0xE0 SHL DUP2 MSTORE PUSH1 0x4 ADD PUSH1 0x40 MLOAD DUP1 SWAP2 SUB SWAP1 REVERT JUMPDEST PUSH1 0x2 PUSH1 0x1 SSTORE PUSH0 DUP2 SWAP1 SUB PUSH2 0xB1A JUMPI PUSH1 0x40 MLOAD PUSH4 0x162908E3 PUSH1 0xE1 SHL DUP2 MSTORE PUSH1 0x4 ADD PUSH1 0x40 MLOAD DUP1 SWAP2 SUB SWAP1 REVERT JUMPDEST PUSH0 PUSH2 0xB23 PUSH2 0x1740 JUMP JUMPDEST PUSH1 0x3 SLOAD PUSH1 0x40 MLOAD PUSH4 0x3DE222BB PUSH1 0xE2 SHL DUP2 MSTORE SWAP2 SWAP3 POP PUSH0 SWAP2 PUSH1 0x1 PUSH1 0x1 PUSH1 0xA0 SHL SUB DUP1 DUP6 AND SWAP3 PUSH4 0xF7888AEC SWAP3 PUSH2 0xB5C SWAP3 SWAP1 SWAP2 AND SWAP1 CALLER SWAP1 PUSH1 0x4 ADD PUSH2 0x1985 JUMP JUMPDEST PUSH1 0x20 PUSH1 0x40 MLOAD DUP1 DUP4 SUB DUP2 DUP7 GAS STATICCALL ISZERO DUP1 ISZERO PUSH2 0xB77 JUMPI RETURNDATASIZE PUSH0 DUP1 RETURNDATACOPY RETURNDATASIZE PUSH0 REVERT JUMPDEST POP POP POP POP PUSH1 0x40 MLOAD RETURNDATASIZE PUSH1 0x1F NOT PUSH1 0x1F DUP3 ADD AND DUP3 ADD DUP1 PUSH1 0x40 MSTORE POP DUP2 ADD SWAP1 PUSH2 0xB9B SWAP2 SWAP1 PUSH2 0x199F JUMP JUMPDEST SWAP1 POP DUP3 PUSH1 0x7 SIGNEXTEND DUP2 PUSH1 0x7 SIGNEXTEND SLT ISZERO PUSH2 0xBC4 JUMPI PUSH1 0x40 MLOAD PUSH4 0x2E4A20DB PUSH1 0xE1 SHL DUP2 MSTORE PUSH1 0x4 ADD PUSH1 0x40 MLOAD DUP1 SWAP2 SUB SWAP1 REVERT JUMPDEST PUSH1 0x4 DUP1 SLOAD PUSH1 0x40 MLOAD PUSH4 0x3DE222BB PUSH1 0xE2 SHL DUP2 MSTORE PUSH0 SWAP3 PUSH1 0x1 PUSH1 0x1 PUSH1 0xA0 SHL SUB DUP1 DUP8 AND SWAP4 PUSH4 0xF7888AEC SWAP4 PUSH2 0xBFA SWAP4 SWAP2 SWAP1 SWAP3 AND SWAP2 ADDRESS SWAP2 ADD PUSH2 0x1985 JUMP JUMPDEST PUSH1 0x20 PUSH1 0x40 MLOAD DUP1 DUP4 SUB DUP2 DUP7 GAS STATICCALL ISZERO DUP1 ISZERO PUSH2 0xC15 JUMPI RETURNDATASIZE PUSH0 DUP1 RETURNDATACOPY RETURNDATASIZE PUSH0 REVERT JUMPDEST POP POP POP POP PUSH1 0x40 MLOAD RETURNDATASIZE PUSH1 0x1F NOT PUSH1 0x1F DUP3 ADD AND DUP3 ADD DUP1 PUSH1 0x40 MSTORE POP DUP2 ADD SWAP1 PUSH2 0xC39 SWAP2 SWAP1 PUSH2 0x199F JUMP JUMPDEST SWAP1 POP DUP4 PUSH1 0x7 SIGNEXTEND DUP2 PUSH1 0x7 SIGNEXTEND SLT ISZERO PUSH2 0xC62 JUMPI PUSH1 0x40 MLOAD PUSH4 0x786E0A99 PUSH1 0xE0 SHL DUP2 MSTORE PUSH1 0x4 ADD PUSH1 0x40 MLOAD DUP1 SWAP2 SUB SWAP1 REVERT JUMPDEST PUSH1 0x5 SLOAD PUSH1 0x40 MLOAD PUSH4 0x3DE222BB PUSH1 0xE2 SHL DUP2 MSTORE PUSH0 SWAP2 PUSH1 0x1 PUSH1 0x1 PUSH1 0xA0 SHL SUB DUP1 DUP8 AND SWAP3 PUSH4 0xF7888AEC SWAP3 PUSH2 0xC96 SWAP3 AND SWAP1 ADDRESS SWAP1 PUSH1 0x4 ADD PUSH2 0x1985 JUMP JUMPDEST PUSH1 0x20 PUSH1 0x40 MLOAD DUP1 DUP4 SUB DUP2 DUP7 GAS STATICCALL ISZERO DUP1 ISZERO PUSH2 0xCB1 JUMPI RETURNDATASIZE PUSH0 DUP1 RETURNDATACOPY RETURNDATASIZE PUSH0 REVERT JUMPDEST POP POP POP POP PUSH1 0x40 MLOAD RETURNDATASIZE PUSH1 0x1F NOT PUSH1 0x1F DUP3 ADD AND DUP3 ADD DUP1 PUSH1 0x40 MSTORE POP DUP2 ADD SWAP1 PUSH2 0xCD5 SWAP2 SWAP1 PUSH2 0x199F JUMP JUMPDEST SWAP1 POP DUP5 PUSH1 0x7 SIGNEXTEND DUP2 PUSH1 0x7 SIGNEXTEND SLT ISZERO PUSH2 0xCFE JUMPI PUSH1 0x40 MLOAD PUSH4 0x786E0A99 PUSH1 0xE0 SHL DUP2 MSTORE PUSH1 0x4 ADD PUSH1 0x40 MLOAD DUP1 SWAP2 SUB SWAP1 REVERT JUMPDEST PUSH1 0x3 SLOAD PUSH1 0x40 MLOAD PUSH4 0xECA36917 PUSH1 0xE0 SHL DUP2 MSTORE PUSH0 SWAP2 PUSH1 0x1 PUSH1 0x1 PUSH1 0xA0 SHL SUB DUP1 DUP9 AND SWAP3 PUSH4 0xECA36917 SWAP3 PUSH2 0xD36 SWAP3 AND SWAP1 CALLER SWAP1 ADDRESS SWAP1 DUP13 SWAP1 PUSH1 0x4 ADD PUSH2 0x19EC JUMP JUMPDEST PUSH1 0x20 PUSH1 0x40 MLOAD DUP1 DUP4 SUB DUP2 PUSH0 DUP8 GAS CALL ISZERO DUP1 ISZERO PUSH2 0xD52 JUMPI RETURNDATASIZE PUSH0 DUP1 RETURNDATACOPY RETURNDATASIZE PUSH0 REVERT JUMPDEST POP POP POP POP PUSH1 0x40 MLOAD RETURNDATASIZE PUSH1 0x1F NOT PUSH1 0x1F DUP3 ADD AND DUP3 ADD DUP1 PUSH1 0x40 MSTORE POP DUP2 ADD SWAP1 PUSH2 0xD76 SWAP2 SWAP1 PUSH2 0x199F JUMP JUMPDEST SWAP1 POP DUP1 PUSH1 0x7 SIGNEXTEND PUSH0 EQ PUSH2 0xD9B JUMPI PUSH1 0x40 MLOAD PUSH4 0x12171D83 PUSH1 0xE3 SHL DUP2 MSTORE PUSH1 0x4 ADD PUSH1 0x40 MLOAD DUP1 SWAP2 SUB SWAP1 REVERT JUMPDEST PUSH1 0xB SLOAD PUSH2 0xDA9 DUP2 PUSH1 0x1 PUSH2 0x1A19 JUMP JUMPDEST PUSH1 0xB SSTORE PUSH0 DUP2 DUP2 MSTORE PUSH1 0xD PUSH1 0x20 SWAP1 DUP2 MSTORE PUSH1 0x40 DUP1 DUP4 KECCAK256 DUP1 SLOAD PUSH1 0xFF NOT AND PUSH1 0x1 OR SWAP1 SSTORE PUSH1 0xE DUP3 MSTORE DUP1 DUP4 KECCAK256 DUP1 SLOAD PUSH1 0x1 PUSH1 0x1 PUSH1 0xA0 SHL SUB NOT AND CALLER OR SWAP1 SSTORE PUSH1 0xF SWAP1 SWAP2 MSTORE SWAP1 DUP2 SWAP1 KECCAK256 DUP9 SWAP1 SSTORE MLOAD PUSH32 0xEFD5EF4B032E5DBCA3969A4B897938AF19686B7F857CA2D8607866A51940924A SWAP1 PUSH2 0xE4A SWAP1 DUP10 SWAP1 DUP5 SWAP1 PUSH1 0x60 DUP1 DUP3 MSTORE PUSH1 0xE SWAP1 DUP3 ADD MSTORE PUSH14 0x109D5C9B881A5B9A5D1A585D1959 PUSH1 0x92 SHL PUSH1 0x80 DUP3 ADD MSTORE PUSH1 0x20 DUP2 ADD SWAP3 SWAP1 SWAP3 MSTORE PUSH1 0x40 DUP3 ADD MSTORE PUSH1 0xA0 ADD SWAP1 JUMP JUMPDEST PUSH1 0x40 MLOAD DUP1 SWAP2 SUB SWAP1 LOG1 POP POP PUSH1 0x1 DUP1 SSTORE POP POP POP POP POP JUMP JUMPDEST PUSH0 SLOAD PUSH1 0x1 PUSH1 0x1 PUSH1 0xA0 SHL SUB AND CALLER EQ PUSH2 0xE89 JUMPI PUSH1 0x40 MLOAD PUSH4 0x5FC483C5 PUSH1 0xE0 SHL DUP2 MSTORE PUSH1 0x4 ADD PUSH1 0x40 MLOAD DUP1 SWAP2 SUB SWAP1 REVERT JUMPDEST PUSH1 0x5 SLOAD PUSH1 0x40 MLOAD PUSH4 0x70A08231 PUSH1 0xE0 SHL DUP2 MSTORE ADDRESS PUSH1 0x4 DUP3 ADD MSTORE PUSH1 0x1 PUSH1 0x1 PUSH1 0xA0 SHL SUB SWAP1 SWAP2 AND SWAP1 PUSH4 0x70A08231 SWAP1 PUSH1 0x24 ADD PUSH1 0x20 PUSH1 0x40 MLOAD DUP1 DUP4 SUB DUP2 DUP7 GAS STATICCALL ISZERO DUP1 ISZERO PUSH2 0xECF JUMPI RETURNDATASIZE PUSH0 DUP1 RETURNDATACOPY RETURNDATASIZE PUSH0 REVERT JUMPDEST POP POP POP POP PUSH1 0x40 MLOAD RETURNDATASIZE PUSH1 0x1F NOT PUSH1 0x1F DUP3 ADD AND DUP3 ADD DUP1 PUSH1 0x40 MSTORE POP DUP2 ADD SWAP1 PUSH2 0xEF3 SWAP2 SWAP1 PUSH2 0x1A2C JUMP JUMPDEST DUP2 GT ISZERO PUSH2 0xF42 JUMPI PUSH1 0x40 MLOAD PUSH3 0x461BCD PUSH1 0xE5 SHL DUP2 MSTORE PUSH1 0x20 PUSH1 0x4 DUP3 ADD MSTORE PUSH1 0x19 PUSH1 0x24 DUP3 ADD MSTORE PUSH32 0x496E73756666696369656E7420434C58592062616C616E636500000000000000 PUSH1 0x44 DUP3 ADD MSTORE PUSH1 0x64 ADD PUSH2 0x5BE JUMP JUMPDEST PUSH1 0x5 SLOAD PUSH0 SLOAD PUSH1 0x40 MLOAD PUSH4 0xA9059CBB PUSH1 0xE0 SHL DUP2 MSTORE PUSH1 0x1 PUSH1 0x1 PUSH1 0xA0 SHL SUB SWAP2 DUP3 AND PUSH1 0x4 DUP3 ADD MSTORE PUSH1 0x24 DUP2 ADD DUP5 SWAP1 MSTORE SWAP2 AND SWAP1 PUSH4 0xA9059CBB SWAP1 PUSH1 0x44 ADD PUSH1 0x20 PUSH1 0x40 MLOAD DUP1 DUP4 SUB DUP2 PUSH0 DUP8 GAS CALL ISZERO DUP1 ISZERO PUSH2 0xF93 JUMPI RETURNDATASIZE PUSH0 DUP1 RETURNDATACOPY RETURNDATASIZE PUSH0 REVERT JUMPDEST POP POP POP POP PUSH1 0x40 MLOAD RETURNDATASIZE PUSH1 0x1F NOT PUSH1 0x1F DUP3 ADD AND DUP3 ADD DUP1 PUSH1 0x40 MSTORE POP DUP2 ADD SWAP1 PUSH2 0xFB7 SWAP2 SWAP1 PUSH2 0x1A43 JUMP JUMPDEST PUSH2 0xFFA JUMPI PUSH1 0x40 MLOAD PUSH3 0x461BCD PUSH1 0xE5 SHL DUP2 MSTORE PUSH1 0x20 PUSH1 0x4 DUP3 ADD MSTORE PUSH1 0x14 PUSH1 0x24 DUP3 ADD MSTORE PUSH20 0x10D31616481D1C985B9CD9995C8819985A5B1959 PUSH1 0x62 SHL PUSH1 0x44 DUP3 ADD MSTORE PUSH1 0x64 ADD PUSH2 0x5BE JUMP JUMPDEST POP JUMP JUMPDEST PUSH1 0x2 PUSH1 0x1 SLOAD SUB PUSH2 0x1020 JUMPI PUSH1 0x40 MLOAD PUSH4 0x3EE5AEB5 PUSH1 0xE0 SHL DUP2 MSTORE PUSH1 0x4 ADD PUSH1 0x40 MLOAD DUP1 SWAP2 SUB SWAP1 REVERT JUMPDEST PUSH1 0x2 PUSH1 0x1 SSTORE CALLVALUE DUP2 EQ PUSH2 0x1045 JUMPI PUSH1 0x40 MLOAD PUSH4 0x4A4531F3 PUSH1 0xE1 SHL DUP2 MSTORE PUSH1 0x4 ADD PUSH1 0x40 MLOAD DUP1 SWAP2 SUB SWAP1 REVERT JUMPDEST PUSH2 0x104E CALLER PUSH2 0x1769 JUMP JUMPDEST PUSH0 PUSH2 0x1057 PUSH2 0x1740 JUMP JUMPDEST PUSH1 0x4 DUP1 SLOAD PUSH1 0x40 MLOAD PUSH4 0x927DA105 PUSH1 0xE0 SHL DUP2 MSTORE PUSH1 0x1 PUSH1 0x1 PUSH1 0xA0 SHL SUB SWAP2 DUP3 AND SWAP3 DUP2 ADD SWAP3 SWAP1 SWAP3 MSTORE CALLER PUSH1 0x24 DUP4 ADD MSTORE ADDRESS PUSH1 0x44 DUP4 ADD MSTORE SWAP2 SWAP3 POP PUSH0 SWAP2 DUP4 AND SWAP1 PUSH4 0x927DA105 SWAP1 PUSH1 0x64 ADD PUSH1 0x20 PUSH1 0x40 MLOAD DUP1 DUP4 SUB DUP2 DUP7 GAS STATICCALL ISZERO DUP1 ISZERO PUSH2 0x10B2 JUMPI RETURNDATASIZE PUSH0 DUP1 RETURNDATACOPY RETURNDATASIZE PUSH0 REVERT JUMPDEST POP POP POP POP PUSH1 0x40 MLOAD RETURNDATASIZE PUSH1 0x1F NOT PUSH1 0x1F DUP3 ADD AND DUP3 ADD DUP1 PUSH1 0x40 MSTORE POP DUP2 ADD SWAP1 PUSH2 0x10D6 SWAP2 SWAP1 PUSH2 0x199F JUMP JUMPDEST SWAP1 POP DUP3 PUSH1 0x7 SIGNEXTEND DUP2 PUSH1 0x7 SIGNEXTEND SLT ISZERO PUSH2 0x10FF JUMPI PUSH1 0x40 MLOAD PUSH4 0x37263F2F PUSH1 0xE0 SHL DUP2 MSTORE PUSH1 0x4 ADD PUSH1 0x40 MLOAD DUP1 SWAP2 SUB SWAP1 REVERT JUMPDEST PUSH1 0x5 SLOAD PUSH1 0x40 MLOAD PUSH4 0x927DA105 PUSH1 0xE0 SHL DUP2 MSTORE PUSH1 0x1 PUSH1 0x1 PUSH1 0xA0 SHL SUB SWAP2 DUP3 AND PUSH1 0x4 DUP3 ADD MSTORE CALLER PUSH1 0x24 DUP3 ADD MSTORE ADDRESS PUSH1 0x44 DUP3 ADD MSTORE PUSH0 SWAP2 DUP5 AND SWAP1 PUSH4 0x927DA105 SWAP1 PUSH1 0x64 ADD PUSH1 0x20 PUSH1 0x40 MLOAD DUP1 DUP4 SUB DUP2 DUP7 GAS STATICCALL ISZERO DUP1 ISZERO PUSH2 0x1154 JUMPI RETURNDATASIZE PUSH0 DUP1 RETURNDATACOPY RETURNDATASIZE PUSH0 REVERT JUMPDEST POP POP POP POP PUSH1 0x40 MLOAD RETURNDATASIZE PUSH1 0x1F NOT PUSH1 0x1F DUP3 ADD AND DUP3 ADD DUP1 PUSH1 0x40 MSTORE POP DUP2 ADD SWAP1 PUSH2 0x1178 SWAP2 SWAP1 PUSH2 0x199F JUMP JUMPDEST SWAP1 POP DUP4 PUSH1 0x7 SIGNEXTEND DUP2 PUSH1 0x7 SIGNEXTEND SLT ISZERO PUSH2 0x11A1 JUMPI PUSH1 0x40 MLOAD PUSH4 0x6E222FCD PUSH1 0xE0 SHL DUP2 MSTORE PUSH1 0x4 ADD PUSH1 0x40 MLOAD DUP1 SWAP2 SUB SWAP1 REVERT JUMPDEST PUSH1 0x4 DUP1 SLOAD PUSH1 0x40 MLOAD PUSH4 0x3DE222BB PUSH1 0xE2 SHL DUP2 MSTORE PUSH0 SWAP3 PUSH1 0x1 PUSH1 0x1 PUSH1 0xA0 SHL SUB DUP1 DUP9 AND SWAP4 PUSH4 0xF7888AEC SWAP4 PUSH2 0x11D7 SWAP4 SWAP2 SWAP1 SWAP3 AND SWAP2 CALLER SWAP2 ADD PUSH2 0x1985 JUMP JUMPDEST PUSH1 0x20 PUSH1 0x40 MLOAD DUP1 DUP4 SUB DUP2 DUP7 GAS STATICCALL ISZERO DUP1 ISZERO PUSH2 0x11F2 JUMPI RETURNDATASIZE PUSH0 DUP1 RETURNDATACOPY RETURNDATASIZE PUSH0 REVERT JUMPDEST POP POP POP POP PUSH1 0x40 MLOAD RETURNDATASIZE PUSH1 0x1F NOT PUSH1 0x1F DUP3 ADD AND DUP3 ADD DUP1 PUSH1 0x40 MSTORE POP DUP2 ADD SWAP1 PUSH2 0x1216 SWAP2 SWAP1 PUSH2 0x199F JUMP JUMPDEST SWAP1 POP DUP5 PUSH1 0x7 SIGNEXTEND DUP2 PUSH1 0x7 SIGNEXTEND SLT ISZERO PUSH2 0x123F JUMPI PUSH1 0x40 MLOAD PUSH4 0x52D5DCF PUSH1 0xE5 SHL DUP2 MSTORE PUSH1 0x4 ADD PUSH1 0x40 MLOAD DUP1 SWAP2 SUB SWAP1 REVERT JUMPDEST PUSH1 0x5 SLOAD PUSH1 0x40 MLOAD PUSH4 0x3DE222BB PUSH1 0xE2 SHL DUP2 MSTORE PUSH0 SWAP2 PUSH1 0x1 PUSH1 0x1 PUSH1 0xA0 SHL SUB DUP1 DUP9 AND SWAP3 PUSH4 0xF7888AEC SWAP3 PUSH2 0x1273 SWAP3 AND SWAP1 CALLER SWAP1 PUSH1 0x4 ADD PUSH2 0x1985 JUMP JUMPDEST PUSH1 0x20 PUSH1 0x40 MLOAD DUP1 DUP4 SUB DUP2 DUP7 GAS STATICCALL ISZERO DUP1 ISZERO PUSH2 0x128E JUMPI RETURNDATASIZE PUSH0 DUP1 RETURNDATACOPY RETURNDATASIZE PUSH0 REVERT JUMPDEST POP POP POP POP PUSH1 0x40 MLOAD RETURNDATASIZE PUSH1 0x1F NOT PUSH1 0x1F DUP3 ADD AND DUP3 ADD DUP1 PUSH1 0x40 MSTORE POP DUP2 ADD SWAP1 PUSH2 0x12B2 SWAP2 SWAP1 PUSH2 0x199F JUMP JUMPDEST SWAP1 POP DUP6 PUSH1 0x7 SIGNEXTEND DUP2 PUSH1 0x7 SIGNEXTEND SLT ISZERO PUSH2 0x12DB JUMPI PUSH1 0x40 MLOAD PUSH4 0x29BE0C4D PUSH1 0xE0 SHL DUP2 MSTORE PUSH1 0x4 ADD PUSH1 0x40 MLOAD DUP1 SWAP2 SUB SWAP1 REVERT JUMPDEST PUSH1 0x4 DUP1 SLOAD PUSH1 0x40 MLOAD PUSH4 0xECA36917 PUSH1 0xE0 SHL DUP2 MSTORE PUSH0 SWAP3 PUSH1 0x1 PUSH1 0x1 PUSH1 0xA0 SHL SUB DUP1 DUP11 AND SWAP4 PUSH4 0xECA36917 SWAP4 PUSH2 0x1315 SWAP4 SWAP2 SWAP1 SWAP3 AND SWAP2 CALLER SWAP2 ADDRESS SWAP2 DUP15 SWAP2 ADD PUSH2 0x19EC JUMP JUMPDEST PUSH1 0x20 PUSH1 0x40 MLOAD DUP1 DUP4 SUB DUP2 PUSH0 DUP8 GAS CALL ISZERO DUP1 ISZERO PUSH2 0x1331 JUMPI RETURNDATASIZE PUSH0 DUP1 RETURNDATACOPY RETURNDATASIZE PUSH0 REVERT JUMPDEST POP POP POP POP PUSH1 0x40 MLOAD RETURNDATASIZE PUSH1 0x1F NOT PUSH1 0x1F DUP3 ADD AND DUP3 ADD DUP1 PUSH1 0x40 MSTORE POP DUP2 ADD SWAP1 PUSH2 0x1355 SWAP2 SWAP1 PUSH2 0x199F JUMP JUMPDEST SWAP1 POP DUP1 PUSH1 0x7 SIGNEXTEND PUSH0 EQ PUSH2 0x137A JUMPI PUSH1 0x40 MLOAD PUSH4 0x12171D83 PUSH1 0xE3 SHL DUP2 MSTORE PUSH1 0x4 ADD PUSH1 0x40 MLOAD DUP1 SWAP2 SUB SWAP1 REVERT JUMPDEST PUSH1 0x5 SLOAD PUSH1 0x40 MLOAD PUSH4 0xECA36917 PUSH1 0xE0 SHL DUP2 MSTORE PUSH0 SWAP2 PUSH1 0x1 PUSH1 0x1 PUSH1 0xA0 SHL SUB DUP1 DUP11 AND SWAP3 PUSH4 0xECA36917 SWAP3 PUSH2 0x13B2 SWAP3 AND SWAP1 CALLER SWAP1 ADDRESS SWAP1 DUP15 SWAP1 PUSH1 0x4 ADD PUSH2 0x19EC JUMP JUMPDEST PUSH1 0x20 PUSH1 0x40 MLOAD DUP1 DUP4 SUB DUP2 PUSH0 DUP8 GAS CALL ISZERO DUP1 ISZERO PUSH2 0x13CE JUMPI RETURNDATASIZE PUSH0 DUP1 RETURNDATACOPY RETURNDATASIZE PUSH0 REVERT JUMPDEST POP POP POP POP PUSH1 0x40 MLOAD RETURNDATASIZE PUSH1 0x1F NOT PUSH1 0x1F DUP3 ADD AND DUP3 ADD DUP1 PUSH1 0x40 MSTORE POP DUP2 ADD SWAP1 PUSH2 0x13F2 SWAP2 SWAP1 PUSH2 0x199F JUMP JUMPDEST SWAP1 POP DUP1 PUSH1 0x7 SIGNEXTEND PUSH0 EQ PUSH2 0x1417 JUMPI PUSH1 0x40 MLOAD PUSH4 0x12171D83 PUSH1 0xE3 SHL DUP2 MSTORE PUSH1 0x4 ADD PUSH1 0x40 MLOAD DUP1 SWAP2 SUB SWAP1 REVERT JUMPDEST DUP8 PUSH1 0x6 PUSH0 DUP3 DUP3 SLOAD PUSH2 0x1428 SWAP2 SWAP1 PUSH2 0x1A19 JUMP JUMPDEST SWAP3 POP POP DUP2 SWAP1 SSTORE POP DUP8 PUSH1 0x7 PUSH0 DUP3 DUP3 SLOAD PUSH2 0x1440 SWAP2 SWAP1 PUSH2 0x1A19 JUMP JUMPDEST SWAP3 POP POP DUP2 SWAP1 SSTORE POP DUP8 PUSH1 0x8 PUSH0 DUP3 DUP3 SLOAD PUSH2 0x1458 SWAP2 SWAP1 PUSH2 0x1A19 JUMP JUMPDEST SWAP3 POP POP DUP2 SWAP1 SSTORE POP DUP8 PUSH1 0x9 PUSH0 DUP3 DUP3 SLOAD PUSH2 0x1470 SWAP2 SWAP1 PUSH2 0x1A19 JUMP JUMPDEST SWAP1 SWAP2 SSTORE POP POP PUSH1 0xA DUP1 SLOAD CALLER SWAP2 PUSH32 0x9CFE9C3D9B47958471F4B9EC1D8B9E9C27E0FE2EB3E3A56635045C68B03A9D31 SWAP2 DUP12 SWAP2 DUP3 SWAP2 DUP3 SWAP2 DUP3 SWAP2 SWAP1 PUSH0 PUSH2 0x14B0 DUP4 PUSH2 0x1A62 JUMP JUMPDEST SWAP1 SWAP2 SSTORE POP PUSH1 0x40 DUP1 MLOAD SWAP6 DUP7 MSTORE PUSH1 0x20 DUP7 ADD SWAP5 SWAP1 SWAP5 MSTORE SWAP3 DUP5 ADD SWAP2 SWAP1 SWAP2 MSTORE PUSH1 0x60 DUP4 ADD MSTORE PUSH1 0x80 DUP3 ADD MSTORE PUSH1 0xA0 ADD PUSH1 0x40 MLOAD DUP1 SWAP2 SUB SWAP1 LOG2 POP POP PUSH1 0x1 DUP1 SSTORE POP POP POP POP POP POP JUMP JUMPDEST PUSH0 SLOAD PUSH1 0x1 PUSH1 0x1 PUSH1 0xA0 SHL SUB AND CALLER EQ PUSH2 0x1517 JUMPI PUSH1 0x40 MLOAD PUSH4 0x5FC483C5 PUSH1 0xE0 SHL DUP2 MSTORE PUSH1 0x4 ADD PUSH1 0x40 MLOAD DUP1 SWAP2 SUB SWAP1 REVERT JUMPDEST SELFBALANCE DUP2 GT ISZERO PUSH2 0x1567 JUMPI PUSH1 0x40 MLOAD PUSH3 0x461BCD PUSH1 0xE5 SHL DUP2 MSTORE PUSH1 0x20 PUSH1 0x4 DUP3 ADD MSTORE PUSH1 0x19 PUSH1 0x24 DUP3 ADD MSTORE PUSH32 0x496E73756666696369656E7420484241522062616C616E636500000000000000 PUSH1 0x44 DUP3 ADD MSTORE PUSH1 0x64 ADD PUSH2 0x5BE JUMP JUMPDEST PUSH0 DUP1 SLOAD PUSH1 0x40 MLOAD PUSH1 0x1 PUSH1 0x1 PUSH1 0xA0 SHL SUB SWAP1 SWAP2 AND SWAP2 DUP4 ISZERO PUSH2 0x8FC MUL SWAP2 DUP5 SWAP2 DUP2 DUP2 DUP2 DUP6 DUP9 DUP9 CALL SWAP4 POP POP POP POP ISZERO DUP1 ISZERO PUSH2 0x159D JUMPI RETURNDATASIZE PUSH0 DUP1 RETURNDATACOPY RETURNDATASIZE PUSH0 REVERT JUMPDEST POP POP JUMP JUMPDEST PUSH0 SLOAD PUSH1 0x1 PUSH1 0x1 PUSH1 0xA0 SHL SUB AND CALLER EQ PUSH2 0x15CB JUMPI PUSH1 0x40 MLOAD PUSH4 0x5FC483C5 PUSH1 0xE0 SHL DUP2 MSTORE PUSH1 0x4 ADD PUSH1 0x40 MLOAD DUP1 SWAP2 SUB SWAP1 REVERT JUMPDEST PUSH1 0x4 DUP1 SLOAD PUSH1 0x40 MLOAD PUSH4 0x70A08231 PUSH1 0xE0 SHL DUP2 MSTORE ADDRESS SWAP3 DUP2 ADD SWAP3 SWAP1 SWAP3 MSTORE PUSH1 0x1 PUSH1 0x1 PUSH1 0xA0 SHL SUB AND SWAP1 PUSH4 0x70A08231 SWAP1 PUSH1 0x24 ADD PUSH1 0x20 PUSH1 0x40 MLOAD DUP1 DUP4 SUB DUP2 DUP7 GAS STATICCALL ISZERO DUP1 ISZERO PUSH2 0x1612 JUMPI RETURNDATASIZE PUSH0 DUP1 RETURNDATACOPY RETURNDATASIZE PUSH0 REVERT JUMPDEST POP POP POP POP PUSH1 0x40 MLOAD RETURNDATASIZE PUSH1 0x1F NOT PUSH1 0x1F DUP3 ADD AND DUP3 ADD DUP1 PUSH1 0x40 MSTORE POP DUP2 ADD SWAP1 PUSH2 0x1636 SWAP2 SWAP1 PUSH2 0x1A2C JUMP JUMPDEST DUP2 GT ISZERO PUSH2 0x1685 JUMPI PUSH1 0x40 MLOAD PUSH3 0x461BCD PUSH1 0xE5 SHL DUP2 MSTORE PUSH1 0x20 PUSH1 0x4 DUP3 ADD MSTORE PUSH1 0x1A PUSH1 0x24 DUP3 ADD MSTORE PUSH32 0x496E73756666696369656E742053415543452062616C616E6365000000000000 PUSH1 0x44 DUP3 ADD MSTORE PUSH1 0x64 ADD PUSH2 0x5BE JUMP JUMPDEST PUSH1 0x4 DUP1 SLOAD PUSH0 SLOAD PUSH1 0x40 MLOAD PUSH4 0xA9059CBB PUSH1 0xE0 SHL DUP2 MSTORE PUSH1 0x1 PUSH1 0x1 PUSH1 0xA0 SHL SUB SWAP2 DUP3 AND SWAP4 DUP2 ADD SWAP4 SWAP1 SWAP4 MSTORE PUSH1 0x24 DUP4 ADD DUP5 SWAP1 MSTORE AND SWAP1 PUSH4 0xA9059CBB SWAP1 PUSH1 0x44 ADD PUSH1 0x20 PUSH1 0x40 MLOAD DUP1 DUP4 SUB DUP2 PUSH0 DUP8 GAS CALL ISZERO DUP1 ISZERO PUSH2 0x16D8 JUMPI RETURNDATASIZE PUSH0 DUP1 RETURNDATACOPY RETURNDATASIZE PUSH0 REVERT JUMPDEST POP POP POP POP PUSH1 0x40 MLOAD RETURNDATASIZE PUSH1 0x1F NOT PUSH1 0x1F DUP3 ADD AND DUP3 ADD DUP1 PUSH1 0x40 MSTORE POP DUP2 ADD SWAP1 PUSH2 0x16FC SWAP2 SWAP1 PUSH2 0x1A43 JUMP JUMPDEST PUSH2 0xFFA JUMPI PUSH1 0x40 MLOAD PUSH3 0x461BCD PUSH1 0xE5 SHL DUP2 MSTORE PUSH1 0x20 PUSH1 0x4 DUP3 ADD MSTORE PUSH1 0x15 PUSH1 0x24 DUP3 ADD MSTORE PUSH21 0x14D05550D1481D1C985B9CD9995C8819985A5B1959 PUSH1 0x5A SHL PUSH1 0x44 DUP3 ADD MSTORE PUSH1 0x64 ADD PUSH2 0x5BE JUMP JUMPDEST PUSH1 0x2 SLOAD PUSH0 SWAP1 PUSH1 0x1 PUSH1 0x1 PUSH1 0xA0 SHL SUB AND PUSH2 0x1759 JUMPI POP PUSH2 0x360 SWAP1 JUMP JUMPDEST POP PUSH1 0x2 SLOAD PUSH1 0x1 PUSH1 0x1 PUSH1 0xA0 SHL SUB AND SWAP1 JUMP JUMPDEST PUSH0 PUSH2 0x1772 PUSH2 0x1740 JUMP JUMPDEST PUSH1 0x3 SLOAD PUSH1 0x40 MLOAD PUSH4 0x1C97FA29 PUSH1 0xE2 SHL DUP2 MSTORE SWAP2 SWAP3 POP PUSH1 0x1 PUSH1 0x1 PUSH1 0xA0 SHL SUB DUP1 DUP5 AND SWAP3 PUSH4 0x725FE8A4 SWAP3 PUSH2 0x17A8 SWAP3 DUP8 SWAP3 SWAP2 AND SWAP1 PUSH1 0x4 ADD PUSH2 0x1985 JUMP JUMPDEST PUSH1 0x20 PUSH1 0x40 MLOAD DUP1 DUP4 SUB DUP2 DUP7 GAS STATICCALL ISZERO DUP1 ISZERO PUSH2 0x17C3 JUMPI RETURNDATASIZE PUSH0 DUP1 RETURNDATACOPY RETURNDATASIZE PUSH0 REVERT JUMPDEST POP POP POP POP PUSH1 0x40 MLOAD RETURNDATASIZE PUSH1 0x1F NOT PUSH1 0x1F DUP3 ADD AND DUP3 ADD DUP1 PUSH1 0x40 MSTORE POP DUP2 ADD SWAP1 PUSH2 0x17E7 SWAP2 SWAP1 PUSH2 0x1A43 JUMP JUMPDEST PUSH2 0x1804 JUMPI PUSH1 0x40 MLOAD PUSH4 0x1B6521EB PUSH1 0xE3 SHL DUP2 MSTORE PUSH1 0x4 ADD PUSH1 0x40 MLOAD DUP1 SWAP2 SUB SWAP1 REVERT JUMPDEST PUSH1 0x4 DUP1 SLOAD PUSH1 0x40 MLOAD PUSH4 0x1C97FA29 PUSH1 0xE2 SHL DUP2 MSTORE PUSH1 0x1 PUSH1 0x1 PUSH1 0xA0 SHL SUB DUP5 DUP2 AND SWAP4 PUSH4 0x725FE8A4 SWAP4 PUSH2 0x1837 SWAP4 DUP9 SWAP4 SWAP1 SWAP2 AND SWAP2 ADD PUSH2 0x1985 JUMP JUMPDEST PUSH1 0x20 PUSH1 0x40 MLOAD DUP1 DUP4 SUB DUP2 DUP7 GAS STATICCALL ISZERO DUP1 ISZERO PUSH2 0x1852 JUMPI RETURNDATASIZE PUSH0 DUP1 RETURNDATACOPY RETURNDATASIZE PUSH0 REVERT JUMPDEST POP POP POP POP PUSH1 0x40 MLOAD RETURNDATASIZE PUSH1 0x1F NOT PUSH1 0x1F DUP3 ADD AND DUP3 ADD DUP1 PUSH1 0x40 MSTORE POP DUP2 ADD SWAP1 PUSH2 0x1876 SWAP2 SWAP1 PUSH2 0x1A43 JUMP JUMPDEST PUSH2 0x1893 JUMPI PUSH1 0x40 MLOAD PUSH4 0x1B6521EB PUSH1 0xE3 SHL DUP2 MSTORE PUSH1 0x4 ADD PUSH1 0x40 MLOAD DUP1 SWAP2 SUB SWAP1 REVERT JUMPDEST PUSH1 0x5 SLOAD PUSH1 0x40 MLOAD PUSH4 0x1C97FA29 PUSH1 0xE2 SHL DUP2 MSTORE PUSH1 0x1 PUSH1 0x1 PUSH1 0xA0 SHL SUB DUP1 DUP5 AND SWAP3 PUSH4 0x725FE8A4 SWAP3 PUSH2 0x18C5 SWAP3 DUP8 SWAP3 AND SWAP1 PUSH1 0x4 ADD PUSH2 0x1985 JUMP JUMPDEST PUSH1 0x20 PUSH1 0x40 MLOAD DUP1 DUP4 SUB DUP2 DUP7 GAS STATICCALL ISZERO DUP1 ISZERO PUSH2 0x18E0 JUMPI RETURNDATASIZE PUSH0 DUP1 RETURNDATACOPY RETURNDATASIZE PUSH0 REVERT JUMPDEST POP POP POP POP PUSH1 0x40 MLOAD RETURNDATASIZE PUSH1 0x1F NOT PUSH1 0x1F DUP3 ADD AND DUP3 ADD DUP1 PUSH1 0x40 MSTORE POP DUP2 ADD SWAP1 PUSH2 0x1904 SWAP2 SWAP1 PUSH2 0x1A43 JUMP JUMPDEST PUSH2 0x159D JUMPI PUSH1 0x40 MLOAD PUSH4 0x1B6521EB PUSH1 0xE3 SHL DUP2 MSTORE PUSH1 0x4 ADD PUSH1 0x40 MLOAD DUP1 SWAP2 SUB SWAP1 REVERT JUMPDEST PUSH0 PUSH1 0x20 DUP3 DUP5 SUB SLT ISZERO PUSH2 0x1931 JUMPI PUSH0 DUP1 REVERT JUMPDEST DUP2 CALLDATALOAD PUSH1 0x1 PUSH1 0x1 PUSH1 0xA0 SHL SUB DUP2 AND DUP2 EQ PUSH2 0x1947 JUMPI PUSH0 DUP1 REVERT JUMPDEST SWAP4 SWAP3 POP POP POP JUMP JUMPDEST PUSH0 DUP1 PUSH1 0x40 DUP4 DUP6 SUB SLT ISZERO PUSH2 0x195F JUMPI PUSH0 DUP1 REVERT JUMPDEST POP POP DUP1 CALLDATALOAD SWAP3 PUSH1 0x20 SWAP1 SWAP2 ADD CALLDATALOAD SWAP2 POP JUMP JUMPDEST PUSH0 PUSH1 0x20 DUP3 DUP5 SUB SLT ISZERO PUSH2 0x197E JUMPI PUSH0 DUP1 REVERT JUMPDEST POP CALLDATALOAD SWAP2 SWAP1 POP JUMP JUMPDEST PUSH1 0x1 PUSH1 0x1 PUSH1 0xA0 SHL SUB SWAP3 DUP4 AND DUP2 MSTORE SWAP2 AND PUSH1 0x20 DUP3 ADD MSTORE PUSH1 0x40 ADD SWAP1 JUMP JUMPDEST PUSH0 PUSH1 0x20 DUP3 DUP5 SUB SLT ISZERO PUSH2 0x19AF JUMPI PUSH0 DUP1 REVERT JUMPDEST DUP2 MLOAD DUP1 PUSH1 0x7 SIGNEXTEND DUP2 EQ PUSH2 0x1947 JUMPI PUSH0 DUP1 REVERT JUMPDEST PUSH4 0x4E487B71 PUSH1 0xE0 SHL PUSH0 MSTORE PUSH1 0x11 PUSH1 0x4 MSTORE PUSH1 0x24 PUSH0 REVERT JUMPDEST DUP2 DUP2 SUB DUP2 DUP2 GT ISZERO PUSH2 0x19E6 JUMPI PUSH2 0x19E6 PUSH2 0x19BF JUMP JUMPDEST SWAP3 SWAP2 POP POP JUMP JUMPDEST PUSH1 0x1 PUSH1 0x1 PUSH1 0xA0 SHL SUB SWAP5 DUP6 AND DUP2 MSTORE SWAP3 DUP5 AND PUSH1 0x20 DUP5 ADD MSTORE SWAP3 AND PUSH1 0x40 DUP3 ADD MSTORE PUSH1 0x7 SWAP2 SWAP1 SWAP2 SIGNEXTEND PUSH1 0x60 DUP3 ADD MSTORE PUSH1 0x80 ADD SWAP1 JUMP JUMPDEST DUP1 DUP3 ADD DUP1 DUP3 GT ISZERO PUSH2 0x19E6 JUMPI PUSH2 0x19E6 PUSH2 0x19BF JUMP JUMPDEST PUSH0 PUSH1 0x20 DUP3 DUP5 SUB SLT ISZERO PUSH2 0x1A3C JUMPI PUSH0 DUP1 REVERT JUMPDEST POP MLOAD SWAP2 SWAP1 POP JUMP JUMPDEST PUSH0 PUSH1 0x20 DUP3 DUP5 SUB SLT ISZERO PUSH2 0x1A53 JUMPI PUSH0 DUP1 REVERT JUMPDEST DUP2 MLOAD DUP1 ISZERO ISZERO DUP2 EQ PUSH2 0x1947 JUMPI PUSH0 DUP1 REVERT JUMPDEST PUSH0 PUSH1 0x1 DUP3 ADD PUSH2 0x1A73 JUMPI PUSH2 0x1A73 PUSH2 0x19BF JUMP JUMPDEST POP PUSH1 0x1 ADD SWAP1 JUMP INVALID LOG2 PUSH5 0x6970667358 0x22 SLT KECCAK256 DUP9 0xED MSIZE PUSH13 0xE8C75CE04E14CDA2E7B1BCC5CD 0x23 0xB0 CALLDATALOAD SDIV 0xAB SAR PUSH21 0xF418E728F41F353E64736F6C634300081400330000 "},"methodIdentifiers":{"RATIO_PRECISION()":"d32867d0","associateTokens()":"10ca0bce","burn(uint256)":"42966c68","burnAmounts(uint256)":"e83a5a55","burnNonce()":"474d6dea","burnRequester(uint256)":"acb5fb66","clxyToken()":"2ac2555f","confirmBurn(uint256,uint256)":"1b34fba2","getBalance()":"12065fe0","getMaxMintableAmount()":"02107482","lynxToken()":"ef1643e4","mint(uint256)":"a0712d68","mintNonce()":"931679a2","owner()":"8da5cb5b","pendingBurns(uint256)":"4ac64739","pendingMints(uint256)":"63900ca6","sauceToken()":"e860ff74","setMockHtsPrecompile(address)":"03bd8900","totalClxyDeposited()":"6196d282","totalHbarDeposited()":"0a2565e4","totalLynxMinted()":"8a782285","totalSauceDeposited()":"4c5f47f5","withdrawCLXY(uint256)":"912654cc","withdrawHBAR(uint256)":"a9a0c7ff","withdrawSAUCE(uint256)":"c9852664"}}}}}