{"src/app/contracts/MockHTS.sol":{"MockHTS":{"abi":[{"inputs":[{"internalType":"address","name":"token","type":"address"},{"internalType":"address","name":"owner","type":"address"},{"internalType":"address","name":"spender","type":"address"}],"name":"allowance","outputs":[{"internalType":"int64","name":"","type":"int64"}],"stateMutability":"view","type":"function"},{"inputs":[{"internalType":"address","name":"account","type":"address"},{"internalType":"address","name":"token","type":"address"}],"name":"associateToken","outputs":[{"internalType":"int64","name":"","type":"int64"}],"stateMutability":"nonpayable","type":"function"},{"inputs":[{"internalType":"address","name":"token","type":"address"},{"internalType":"address","name":"account","type":"address"}],"name":"balanceOf","outputs":[{"internalType":"int64","name":"","type":"int64"}],"stateMutability":"view","type":"function"},{"inputs":[{"internalType":"address","name":"account","type":"address"},{"internalType":"address","name":"token","type":"address"}],"name":"isTokenAssociated","outputs":[{"internalType":"bool","name":"","type":"bool"}],"stateMutability":"view","type":"function"},{"inputs":[{"internalType":"address","name":"token","type":"address"},{"internalType":"address","name":"owner","type":"address"},{"internalType":"address","name":"spender","type":"address"},{"internalType":"int64","name":"amount","type":"int64"}],"name":"setAllowance","outputs":[],"stateMutability":"nonpayable","type":"function"},{"inputs":[{"internalType":"address","name":"token","type":"address"},{"internalType":"address","name":"account","type":"address"},{"internalType":"int64","name":"balance","type":"int64"}],"name":"setBalance","outputs":[],"stateMutability":"nonpayable","type":"function"},{"inputs":[{"internalType":"address","name":"account","type":"address"},{"internalType":"address","name":"token","type":"address"},{"internalType":"bool","name":"associated","type":"bool"}],"name":"setTokenAssociated","outputs":[],"stateMutability":"nonpayable","type":"function"},{"inputs":[{"internalType":"address","name":"token","type":"address"},{"internalType":"address","name":"from","type":"address"},{"internalType":"address","name":"to","type":"address"},{"internalType":"int64","name":"amount","type":"int64"}],"name":"transferToken","outputs":[{"internalType":"int64","name":"","type":"int64"}],"stateMutability":"nonpayable","type":"function"}],"evm":{"bytecode":{"linkReferences":{},"object":"608060405234801561000f575f80fd5b506105e18061001d5f395ff3fe608060405234801561000f575f80fd5b5060043610610085575f3560e01c8063a7796a9011610058578063a7796a90146101a4578063b3b549d9146101e9578063eca3691714610240578063f7888aec14610253575f80fd5b80633ff2e11a1461008957806349146bde146100eb578063725fe8a414610116578063927da1051461015f575b5f80fd5b6100e96100973660046103f8565b6001600160a01b039384165f90815260026020908152604080832095871683529481528482209390951681529190935220805467ffffffffffffffff191667ffffffffffffffff909216919091179055565b005b6100fe6100f9366004610449565b61028e565b60405160079190910b81526020015b60405180910390f35b61014f610124366004610449565b6001600160a01b039182165f9081526020818152604080832093909416825291909152205460ff1690565b604051901515815260200161010d565b6100fe61016d36600461047a565b6001600160a01b039283165f9081526002602090815260408083209486168352938152838220929094168152925290205460070b90565b6100e96101b23660046104ba565b6001600160a01b039283165f9081526020818152604080832094909516825292909252919020805460ff1916911515919091179055565b6100e96101f7366004610502565b6001600160a01b039283165f90815260016020908152604080832094909516825292909252919020805467ffffffffffffffff191667ffffffffffffffff909216919091179055565b6100fe61024e3660046103f8565b6102c4565b6100fe610261366004610449565b6001600160a01b039182165f90815260016020908152604080832093909416825291909152205460070b90565b6001600160a01b038083165f908152602081815260408083209385168352929052908120805460ff191660011790555b92915050565b6001600160a01b038085165f908152600160209081526040808320938716835292905290812054600783810b91900b1215610301575060016103c4565b6001600160a01b038086165f9081526001602090815260408083209388168352929052908120805484929061033a90849060070b61054d565b825467ffffffffffffffff9182166101009390930a9283029190920219909116179055506001600160a01b038086165f9081526001602090815260408083209387168352929052908120805484929061039790849060070b61057c565b92506101000a81548167ffffffffffffffff021916908360070b67ffffffffffffffff1602179055505f90505b949350505050565b80356001600160a01b03811681146103e2575f80fd5b919050565b8035600781900b81146103e2575f80fd5b5f805f806080858703121561040b575f80fd5b610414856103cc565b9350610422602086016103cc565b9250610430604086016103cc565b915061043e606086016103e7565b905092959194509250565b5f806040838503121561045a575f80fd5b610463836103cc565b9150610471602084016103cc565b90509250929050565b5f805f6060848603121561048c575f80fd5b610495846103cc565b92506104a3602085016103cc565b91506104b1604085016103cc565b90509250925092565b5f805f606084860312156104cc575f80fd5b6104d5846103cc565b92506104e3602085016103cc565b9150604084013580151581146104f7575f80fd5b809150509250925092565b5f805f60608486031215610514575f80fd5b61051d846103cc565b925061052b602085016103cc565b91506104b1604085016103e7565b634e487b7160e01b5f52601160045260245ffd5b600782810b9082900b03677fffffffffffffff198112677fffffffffffffff821317156102be576102be610539565b600781810b9083900b01677fffffffffffffff8113677fffffffffffffff19821217156102be576102be61053956fea26469706673582212203f0cd23a9990da5c1274b7a0898da9d3c226b0bf8bc756be5675c5bd60c1eab864736f6c63430008140033","opcodes":"PUSH1 0x80 PUSH1 0x40 MSTORE CALLVALUE DUP1 ISZERO PUSH2 0xF JUMPI PUSH0 DUP1 REVERT JUMPDEST POP PUSH2 0x5E1 DUP1 PUSH2 0x1D PUSH0 CODECOPY PUSH0 RETURN INVALID PUSH1 0x80 PUSH1 0x40 MSTORE CALLVALUE DUP1 ISZERO PUSH2 0xF JUMPI PUSH0 DUP1 REVERT JUMPDEST POP PUSH1 0x4 CALLDATASIZE LT PUSH2 0x85 JUMPI PUSH0 CALLDATALOAD PUSH1 0xE0 SHR DUP1 PUSH4 0xA7796A90 GT PUSH2 0x58 JUMPI DUP1 PUSH4 0xA7796A90 EQ PUSH2 0x1A4 JUMPI DUP1 PUSH4 0xB3B549D9 EQ PUSH2 0x1E9 JUMPI DUP1 PUSH4 0xECA36917 EQ PUSH2 0x240 JUMPI DUP1 PUSH4 0xF7888AEC EQ PUSH2 0x253 JUMPI PUSH0 DUP1 REVERT JUMPDEST DUP1 PUSH4 0x3FF2E11A EQ PUSH2 0x89 JUMPI DUP1 PUSH4 0x49146BDE EQ PUSH2 0xEB JUMPI DUP1 PUSH4 0x725FE8A4 EQ PUSH2 0x116 JUMPI DUP1 PUSH4 0x927DA105 EQ PUSH2 0x15F JUMPI JUMPDEST PUSH0 DUP1 REVERT JUMPDEST PUSH2 0xE9 PUSH2 0x97 CALLDATASIZE PUSH1 0x4 PUSH2 0x3F8 JUMP JUMPDEST PUSH1 0x1 PUSH1 0x1 PUSH1 0xA0 SHL SUB SWAP4 DUP5 AND PUSH0 SWAP1 DUP2 MSTORE PUSH1 0x2 PUSH1 0x20 SWAP1 DUP2 MSTORE PUSH1 0x40 DUP1 DUP4 KECCAK256 SWAP6 DUP8 AND DUP4 MSTORE SWAP5 DUP2 MSTORE DUP5 DUP3 KECCAK256 SWAP4 SWAP1 SWAP6 AND DUP2 MSTORE SWAP2 SWAP1 SWAP4 MSTORE KECCAK256 DUP1 SLOAD PUSH8 0xFFFFFFFFFFFFFFFF NOT AND PUSH8 0xFFFFFFFFFFFFFFFF SWAP1 SWAP3 AND SWAP2 SWAP1 SWAP2 OR SWAP1 SSTORE JUMP JUMPDEST STOP JUMPDEST PUSH2 0xFE PUSH2 0xF9 CALLDATASIZE PUSH1 0x4 PUSH2 0x449 JUMP JUMPDEST PUSH2 0x28E JUMP JUMPDEST PUSH1 0x40 MLOAD PUSH1 0x7 SWAP2 SWAP1 SWAP2 SIGNEXTEND DUP2 MSTORE PUSH1 0x20 ADD JUMPDEST PUSH1 0x40 MLOAD DUP1 SWAP2 SUB SWAP1 RETURN JUMPDEST PUSH2 0x14F PUSH2 0x124 CALLDATASIZE PUSH1 0x4 PUSH2 0x449 JUMP JUMPDEST PUSH1 0x1 PUSH1 0x1 PUSH1 0xA0 SHL SUB SWAP2 DUP3 AND PUSH0 SWAP1 DUP2 MSTORE PUSH1 0x20 DUP2 DUP2 MSTORE PUSH1 0x40 DUP1 DUP4 KECCAK256 SWAP4 SWAP1 SWAP5 AND DUP3 MSTORE SWAP2 SWAP1 SWAP2 MSTORE KECCAK256 SLOAD PUSH1 0xFF AND SWAP1 JUMP JUMPDEST PUSH1 0x40 MLOAD SWAP1 ISZERO ISZERO DUP2 MSTORE PUSH1 0x20 ADD PUSH2 0x10D JUMP JUMPDEST PUSH2 0xFE PUSH2 0x16D CALLDATASIZE PUSH1 0x4 PUSH2 0x47A JUMP JUMPDEST PUSH1 0x1 PUSH1 0x1 PUSH1 0xA0 SHL SUB SWAP3 DUP4 AND PUSH0 SWAP1 DUP2 MSTORE PUSH1 0x2 PUSH1 0x20 SWAP1 DUP2 MSTORE PUSH1 0x40 DUP1 DUP4 KECCAK256 SWAP5 DUP7 AND DUP4 MSTORE SWAP4 DUP2 MSTORE DUP4 DUP3 KECCAK256 SWAP3 SWAP1 SWAP5 AND DUP2 MSTORE SWAP3 MSTORE SWAP1 KECCAK256 SLOAD PUSH1 0x7 SIGNEXTEND SWAP1 JUMP JUMPDEST PUSH2 0xE9 PUSH2 0x1B2 CALLDATASIZE PUSH1 0x4 PUSH2 0x4BA JUMP JUMPDEST PUSH1 0x1 PUSH1 0x1 PUSH1 0xA0 SHL SUB SWAP3 DUP4 AND PUSH0 SWAP1 DUP2 MSTORE PUSH1 0x20 DUP2 DUP2 MSTORE PUSH1 0x40 DUP1 DUP4 KECCAK256 SWAP5 SWAP1 SWAP6 AND DUP3 MSTORE SWAP3 SWAP1 SWAP3 MSTORE SWAP2 SWAP1 KECCAK256 DUP1 SLOAD PUSH1 0xFF NOT AND SWAP2 ISZERO ISZERO SWAP2 SWAP1 SWAP2 OR SWAP1 SSTORE JUMP JUMPDEST PUSH2 0xE9 PUSH2 0x1F7 CALLDATASIZE PUSH1 0x4 PUSH2 0x502 JUMP JUMPDEST PUSH1 0x1 PUSH1 0x1 PUSH1 0xA0 SHL SUB SWAP3 DUP4 AND PUSH0 SWAP1 DUP2 MSTORE PUSH1 0x1 PUSH1 0x20 SWAP1 DUP2 MSTORE PUSH1 0x40 DUP1 DUP4 KECCAK256 SWAP5 SWAP1 SWAP6 AND DUP3 MSTORE SWAP3 SWAP1 SWAP3 MSTORE SWAP2 SWAP1 KECCAK256 DUP1 SLOAD PUSH8 0xFFFFFFFFFFFFFFFF NOT AND PUSH8 0xFFFFFFFFFFFFFFFF SWAP1 SWAP3 AND SWAP2 SWAP1 SWAP2 OR SWAP1 SSTORE JUMP JUMPDEST PUSH2 0xFE PUSH2 0x24E CALLDATASIZE PUSH1 0x4 PUSH2 0x3F8 JUMP JUMPDEST PUSH2 0x2C4 JUMP JUMPDEST PUSH2 0xFE PUSH2 0x261 CALLDATASIZE PUSH1 0x4 PUSH2 0x449 JUMP JUMPDEST PUSH1 0x1 PUSH1 0x1 PUSH1 0xA0 SHL SUB SWAP2 DUP3 AND PUSH0 SWAP1 DUP2 MSTORE PUSH1 0x1 PUSH1 0x20 SWAP1 DUP2 MSTORE PUSH1 0x40 DUP1 DUP4 KECCAK256 SWAP4 SWAP1 SWAP5 AND DUP3 MSTORE SWAP2 SWAP1 SWAP2 MSTORE KECCAK256 SLOAD PUSH1 0x7 SIGNEXTEND SWAP1 JUMP JUMPDEST PUSH1 0x1 PUSH1 0x1 PUSH1 0xA0 SHL SUB DUP1 DUP4 AND PUSH0 SWAP1 DUP2 MSTORE PUSH1 0x20 DUP2 DUP2 MSTORE PUSH1 0x40 DUP1 DUP4 KECCAK256 SWAP4 DUP6 AND DUP4 MSTORE SWAP3 SWAP1 MSTORE SWAP1 DUP2 KECCAK256 DUP1 SLOAD PUSH1 0xFF NOT AND PUSH1 0x1 OR SWAP1 SSTORE JUMPDEST SWAP3 SWAP2 POP POP JUMP JUMPDEST PUSH1 0x1 PUSH1 0x1 PUSH1 0xA0 SHL SUB DUP1 DUP6 AND PUSH0 SWAP1 DUP2 MSTORE PUSH1 0x1 PUSH1 0x20 SWAP1 DUP2 MSTORE PUSH1 0x40 DUP1 DUP4 KECCAK256 SWAP4 DUP8 AND DUP4 MSTORE SWAP3 SWAP1 MSTORE SWAP1 DUP2 KECCAK256 SLOAD PUSH1 0x7 DUP4 DUP2 SIGNEXTEND SWAP2 SWAP1 SIGNEXTEND SLT ISZERO PUSH2 0x301 JUMPI POP PUSH1 0x1 PUSH2 0x3C4 JUMP JUMPDEST PUSH1 0x1 PUSH1 0x1 PUSH1 0xA0 SHL SUB DUP1 DUP7 AND PUSH0 SWAP1 DUP2 MSTORE PUSH1 0x1 PUSH1 0x20 SWAP1 DUP2 MSTORE PUSH1 0x40 DUP1 DUP4 KECCAK256 SWAP4 DUP9 AND DUP4 MSTORE SWAP3 SWAP1 MSTORE SWAP1 DUP2 KECCAK256 DUP1 SLOAD DUP5 SWAP3 SWAP1 PUSH2 0x33A SWAP1 DUP5 SWAP1 PUSH1 0x7 SIGNEXTEND PUSH2 0x54D JUMP JUMPDEST DUP3 SLOAD PUSH8 0xFFFFFFFFFFFFFFFF SWAP2 DUP3 AND PUSH2 0x100 SWAP4 SWAP1 SWAP4 EXP SWAP3 DUP4 MUL SWAP2 SWAP1 SWAP3 MUL NOT SWAP1 SWAP2 AND OR SWAP1 SSTORE POP PUSH1 0x1 PUSH1 0x1 PUSH1 0xA0 SHL SUB DUP1 DUP7 AND PUSH0 SWAP1 DUP2 MSTORE PUSH1 0x1 PUSH1 0x20 SWAP1 DUP2 MSTORE PUSH1 0x40 DUP1 DUP4 KECCAK256 SWAP4 DUP8 AND DUP4 MSTORE SWAP3 SWAP1 MSTORE SWAP1 DUP2 KECCAK256 DUP1 SLOAD DUP5 SWAP3 SWAP1 PUSH2 0x397 SWAP1 DUP5 SWAP1 PUSH1 0x7 SIGNEXTEND PUSH2 0x57C JUMP JUMPDEST SWAP3 POP PUSH2 0x100 EXP DUP2 SLOAD DUP2 PUSH8 0xFFFFFFFFFFFFFFFF MUL NOT AND SWAP1 DUP4 PUSH1 0x7 SIGNEXTEND PUSH8 0xFFFFFFFFFFFFFFFF AND MUL OR SWAP1 SSTORE POP PUSH0 SWAP1 POP JUMPDEST SWAP5 SWAP4 POP POP POP POP JUMP JUMPDEST DUP1 CALLDATALOAD PUSH1 0x1 PUSH1 0x1 PUSH1 0xA0 SHL SUB DUP2 AND DUP2 EQ PUSH2 0x3E2 JUMPI PUSH0 DUP1 REVERT JUMPDEST SWAP2 SWAP1 POP JUMP JUMPDEST DUP1 CALLDATALOAD PUSH1 0x7 DUP2 SWAP1 SIGNEXTEND DUP2 EQ PUSH2 0x3E2 JUMPI PUSH0 DUP1 REVERT JUMPDEST PUSH0 DUP1 PUSH0 DUP1 PUSH1 0x80 DUP6 DUP8 SUB SLT ISZERO PUSH2 0x40B JUMPI PUSH0 DUP1 REVERT JUMPDEST PUSH2 0x414 DUP6 PUSH2 0x3CC JUMP JUMPDEST SWAP4 POP PUSH2 0x422 PUSH1 0x20 DUP7 ADD PUSH2 0x3CC JUMP JUMPDEST SWAP3 POP PUSH2 0x430 PUSH1 0x40 DUP7 ADD PUSH2 0x3CC JUMP JUMPDEST SWAP2 POP PUSH2 0x43E PUSH1 0x60 DUP7 ADD PUSH2 0x3E7 JUMP JUMPDEST SWAP1 POP SWAP3 SWAP6 SWAP2 SWAP5 POP SWAP3 POP JUMP JUMPDEST PUSH0 DUP1 PUSH1 0x40 DUP4 DUP6 SUB SLT ISZERO PUSH2 0x45A JUMPI PUSH0 DUP1 REVERT JUMPDEST PUSH2 0x463 DUP4 PUSH2 0x3CC JUMP JUMPDEST SWAP2 POP PUSH2 0x471 PUSH1 0x20 DUP5 ADD PUSH2 0x3CC JUMP JUMPDEST SWAP1 POP SWAP3 POP SWAP3 SWAP1 POP JUMP JUMPDEST PUSH0 DUP1 PUSH0 PUSH1 0x60 DUP5 DUP7 SUB SLT ISZERO PUSH2 0x48C JUMPI PUSH0 DUP1 REVERT JUMPDEST PUSH2 0x495 DUP5 PUSH2 0x3CC JUMP JUMPDEST SWAP3 POP PUSH2 0x4A3 PUSH1 0x20 DUP6 ADD PUSH2 0x3CC JUMP JUMPDEST SWAP2 POP PUSH2 0x4B1 PUSH1 0x40 DUP6 ADD PUSH2 0x3CC JUMP JUMPDEST SWAP1 POP SWAP3 POP SWAP3 POP SWAP3 JUMP JUMPDEST PUSH0 DUP1 PUSH0 PUSH1 0x60 DUP5 DUP7 SUB SLT ISZERO PUSH2 0x4CC JUMPI PUSH0 DUP1 REVERT JUMPDEST PUSH2 0x4D5 DUP5 PUSH2 0x3CC JUMP JUMPDEST SWAP3 POP PUSH2 0x4E3 PUSH1 0x20 DUP6 ADD PUSH2 0x3CC JUMP JUMPDEST SWAP2 POP PUSH1 0x40 DUP5 ADD CALLDATALOAD DUP1 ISZERO ISZERO DUP2 EQ PUSH2 0x4F7 JUMPI PUSH0 DUP1 REVERT JUMPDEST DUP1 SWAP2 POP POP SWAP3 POP SWAP3 POP SWAP3 JUMP JUMPDEST PUSH0 DUP1 PUSH0 PUSH1 0x60 DUP5 DUP7 SUB SLT ISZERO PUSH2 0x514 JUMPI PUSH0 DUP1 REVERT JUMPDEST PUSH2 0x51D DUP5 PUSH2 0x3CC JUMP JUMPDEST SWAP3 POP PUSH2 0x52B PUSH1 0x20 DUP6 ADD PUSH2 0x3CC JUMP JUMPDEST SWAP2 POP PUSH2 0x4B1 PUSH1 0x40 DUP6 ADD PUSH2 0x3E7 JUMP JUMPDEST PUSH4 0x4E487B71 PUSH1 0xE0 SHL PUSH0 MSTORE PUSH1 0x11 PUSH1 0x4 MSTORE PUSH1 0x24 PUSH0 REVERT JUMPDEST PUSH1 0x7 DUP3 DUP2 SIGNEXTEND SWAP1 DUP3 SWAP1 SIGNEXTEND SUB PUSH8 0x7FFFFFFFFFFFFFFF NOT DUP2 SLT PUSH8 0x7FFFFFFFFFFFFFFF DUP3 SGT OR ISZERO PUSH2 0x2BE JUMPI PUSH2 0x2BE PUSH2 0x539 JUMP JUMPDEST PUSH1 0x7 DUP2 DUP2 SIGNEXTEND SWAP1 DUP4 SWAP1 SIGNEXTEND ADD PUSH8 0x7FFFFFFFFFFFFFFF DUP2 SGT PUSH8 0x7FFFFFFFFFFFFFFF NOT DUP3 SLT OR ISZERO PUSH2 0x2BE JUMPI PUSH2 0x2BE PUSH2 0x539 JUMP INVALID LOG2 PUSH5 0x6970667358 0x22 SLT KECCAK256 EXTCODEHASH 0xC 0xD2 GASPRICE SWAP10 SWAP1 0xDA 0x5C SLT PUSH21 0xB7A0898DA9D3C226B0BF8BC756BE5675C5BD60C1EA 0xB8 PUSH5 0x736F6C6343 STOP ADDMOD EQ STOP CALLER "},"methodIdentifiers":{"allowance(address,address,address)":"927da105","associateToken(address,address)":"49146bde","balanceOf(address,address)":"f7888aec","isTokenAssociated(address,address)":"725fe8a4","setAllowance(address,address,address,int64)":"3ff2e11a","setBalance(address,address,int64)":"b3b549d9","setTokenAssociated(address,address,bool)":"a7796a90","transferToken(address,address,address,int64)":"eca36917"}}}}}