{"src/app/contracts/LynxMinter.sol":{"LynxMinter":{"abi":[{"inputs":[{"internalType":"address","name":"_lynxToken","type":"address"},{"internalType":"address","name":"_sauceToken","type":"address"},{"internalType":"address","name":"_clxyToken","type":"address"}],"stateMutability":"nonpayable","type":"constructor"},{"inputs":[],"name":"OnlyOwner","type":"error"},{"inputs":[],"name":"ReentrancyGuardReentrantCall","type":"error"},{"anonymous":false,"inputs":[{"indexed":false,"internalType":"string","name":"message","type":"string"},{"indexed":false,"internalType":"address","name":"sender","type":"address"},{"indexed":false,"internalType":"address","name":"owner","type":"address"},{"indexed":false,"internalType":"uint256","name":"nonce","type":"uint256"},{"indexed":false,"internalType":"bool","name":"isPending","type":"bool"}],"name":"DebugConfirmMint","type":"event"},{"anonymous":false,"inputs":[{"indexed":false,"internalType":"string","name":"message","type":"string"},{"indexed":false,"internalType":"uint256","name":"value1","type":"uint256"},{"indexed":false,"internalType":"uint256","name":"value2","type":"uint256"}],"name":"DebugMint","type":"event"},{"anonymous":false,"inputs":[{"indexed":false,"internalType":"string","name":"message","type":"string"},{"indexed":false,"internalType":"address","name":"msgSender","type":"address"},{"indexed":false,"internalType":"address","name":"contractOwner","type":"address"}],"name":"DebugOwner","type":"event"},{"anonymous":false,"inputs":[{"indexed":true,"internalType":"address","name":"user","type":"address"},{"indexed":false,"internalType":"uint256","name":"hbarAmount","type":"uint256"},{"indexed":false,"internalType":"uint256","name":"sauceAmount","type":"uint256"},{"indexed":false,"internalType":"uint256","name":"clxyAmount","type":"uint256"},{"indexed":false,"internalType":"uint256","name":"lynxMinted","type":"uint256"},{"indexed":false,"internalType":"uint256","name":"nonce","type":"uint256"}],"name":"LynxMinted","type":"event"},{"inputs":[],"name":"RATIO_PRECISION","outputs":[{"internalType":"uint256","name":"","type":"uint256"}],"stateMutability":"view","type":"function"},{"inputs":[],"name":"clxyToken","outputs":[{"internalType":"address","name":"","type":"address"}],"stateMutability":"view","type":"function"},{"inputs":[{"internalType":"uint256","name":"nonce","type":"uint256"},{"internalType":"uint256","name":"amount","type":"uint256"}],"name":"confirmMint","outputs":[],"stateMutability":"nonpayable","type":"function"},{"inputs":[],"name":"getBalance","outputs":[{"internalType":"uint256","name":"","type":"uint256"}],"stateMutability":"view","type":"function"},{"inputs":[],"name":"getMaxMintableAmount","outputs":[{"internalType":"uint256","name":"","type":"uint256"}],"stateMutability":"view","type":"function"},{"inputs":[],"name":"lynxToken","outputs":[{"internalType":"address","name":"","type":"address"}],"stateMutability":"view","type":"function"},{"inputs":[{"internalType":"uint256","name":"amount","type":"uint256"}],"name":"mint","outputs":[],"stateMutability":"payable","type":"function"},{"inputs":[],"name":"mintNonce","outputs":[{"internalType":"uint256","name":"","type":"uint256"}],"stateMutability":"view","type":"function"},{"inputs":[],"name":"owner","outputs":[{"internalType":"address","name":"","type":"address"}],"stateMutability":"view","type":"function"},{"inputs":[{"internalType":"uint256","name":"","type":"uint256"}],"name":"pendingMints","outputs":[{"internalType":"bool","name":"","type":"bool"}],"stateMutability":"view","type":"function"},{"inputs":[],"name":"sauceToken","outputs":[{"internalType":"address","name":"","type":"address"}],"stateMutability":"view","type":"function"},{"inputs":[],"name":"totalHbarDeposited","outputs":[{"internalType":"uint256","name":"","type":"uint256"}],"stateMutability":"view","type":"function"},{"inputs":[],"name":"totalLynxMinted","outputs":[{"internalType":"uint256","name":"","type":"uint256"}],"stateMutability":"view","type":"function"},{"inputs":[{"internalType":"uint256","name":"amount","type":"uint256"}],"name":"withdrawHBAR","outputs":[],"stateMutability":"nonpayable","type":"function"}],"evm":{"bytecode":{"linkReferences":{},"object":"608060405234801561001057600080fd5b506040516109d53803806109d583398101604081905261002f916101c3565b6001600160a01b0383166100945760405162461bcd60e51b815260206004820152602160248201527f4c594e5820746f6b656e20616464726573732063616e6e6f74206265207a65726044820152606f60f81b60648201526084015b60405180910390fd5b6001600160a01b0382166100f55760405162461bcd60e51b815260206004820152602260248201527f534155434520746f6b656e20616464726573732063616e6e6f74206265207a65604482015261726f60f01b606482015260840161008b565b6001600160a01b0381166101555760405162461bcd60e51b815260206004820152602160248201527f434c585920746f6b656e20616464726573732063616e6e6f74206265207a65726044820152606f60f81b606482015260840161008b565b60008054336001600160a01b0319918216178255600180556002805482166001600160a01b03968716179055600380548216948616949094179093556004805490931691909316179055600755610206565b80516001600160a01b03811681146101be57600080fd5b919050565b6000806000606084860312156101d857600080fd5b6101e1846101a7565b92506101ef602085016101a7565b91506101fd604085016101a7565b90509250925092565b6107c0806102156000396000f3fe6080604052600436106100dd5760003560e01c8063931679a21161007f578063a9a0c7ff11610059578063a9a0c7ff14610213578063d32867d014610233578063e860ff741461024b578063ef1643e41461026b57600080fd5b8063931679a2146101c85780639ea681f8146101de578063a0712d681461020057600080fd5b80632ac2555f116100bb5780632ac2555f1461011a57806363900ca6146101525780638a782285146101925780638da5cb5b146101a857600080fd5b806302107482146100e25780630a2565e41461010457806312065fe0146100e2575b600080fd5b3480156100ee57600080fd5b50475b6040519081526020015b60405180910390f35b34801561011057600080fd5b506100f160055481565b34801561012657600080fd5b5060045461013a906001600160a01b031681565b6040516001600160a01b0390911681526020016100fb565b34801561015e57600080fd5b5061018261016d3660046106ee565b60086020526000908152604090205460ff1681565b60405190151581526020016100fb565b34801561019e57600080fd5b506100f160065481565b3480156101b457600080fd5b5060005461013a906001600160a01b031681565b3480156101d457600080fd5b506100f160075481565b3480156101ea57600080fd5b506101fe6101f9366004610707565b61028b565b005b6101fe61020e3660046106ee565b6104b5565b34801561021f57600080fd5b506101fe61022e3660046106ee565b610612565b34801561023f57600080fd5b506100f16305f5e10081565b34801561025757600080fd5b5060035461013a906001600160a01b031681565b34801561027757600080fd5b5060025461013a906001600160a01b031681565b6000546001600160a01b031633146102fb576000546040517fa0e17470dc71e4604949d20a06e219f2836752c44926fbc6aea3035939f12ea0916102da9133916001600160a01b031690610729565b60405180910390a1604051635fc483c560e01b815260040160405180910390fd5b60026001540361031e57604051633ee5aeb560e01b815260040160405180910390fd5b600260015560008281526008602052604090205460ff166103865760405162461bcd60e51b815260206004820152601f60248201527f4e6f2070656e64696e67206d696e7420776974682074686973206e6f6e63650060448201526064015b60405180910390fd5b600080548382526008602090815260409283902054835160a0808252600f908201526e10dbdb999a5c9b5a5b99c81b5a5b9d608a1b60c082015233928101929092526001600160a01b03909216818401526060810185905260ff9091161515608082015290517f1591a5cd8d1c8d7c0b7cc796cf1a8a00188fe69c94fbe58c4a0fe137e26660139181900360e00190a16000828152600860205260408120805460ff191690556005805483929061043e908490610763565b9250508190555080600660008282546104579190610763565b909155505060408051828152600060208201819052818301526060810183905260808101849052905133917f9cfe9c3d9b47958471f4b9ec1d8b9e9c27e0fe2eb3e3a56635045c68b03a9d31919081900360a00190a2505060018055565b6002600154036104d857604051633ee5aeb560e01b815260040160405180910390fd5b6002600155348111156105265760405162461bcd60e51b8152602060048201526016602482015275125b9cdd59999a58da595b9d0812109054881cd95b9d60521b604482015260640161037d565b600081116105765760405162461bcd60e51b815260206004820152601d60248201527f416d6f756e74206d7573742062652067726561746572207468616e2030000000604482015260640161037d565b600754610584816001610763565b60075560008181526008602052604090819020805460ff19166001179055517f5d0f0c4ac430ecb1a1304c9cfcf3985fd70d44ce3a507e51cded58b313c90e7c9061060290849084906060808252600e908201526d135a5b9d081a5b9a5d1a585d195960921b60808201526020810192909252604082015260a00190565b60405180910390a1505060018055565b6000546001600160a01b03163314610661576000546040517fa0e17470dc71e4604949d20a06e219f2836752c44926fbc6aea3035939f12ea0916102da9133916001600160a01b031690610729565b478111156106b15760405162461bcd60e51b815260206004820152601960248201527f496e73756666696369656e7420484241522062616c616e636500000000000000604482015260640161037d565b600080546040516001600160a01b039091169183156108fc02918491818181858888f193505050501580156106ea573d6000803e3d6000fd5b5050565b60006020828403121561070057600080fd5b5035919050565b6000806040838503121561071a57600080fd5b50508035926020909101359150565b6060808252600990820152682737ba1037bbb732b960b91b60808201526001600160a01b0392831660208201529116604082015260a00190565b8082018082111561078457634e487b7160e01b600052601160045260246000fd5b9291505056fea26469706673582212207b17339c992def18aa4a6a9fcc52ceb19cc478b37d821cbc825c016e0fa0af4964736f6c63430008140033","opcodes":"PUSH1 0x80 PUSH1 0x40 MSTORE CALLVALUE DUP1 ISZERO PUSH2 0x10 JUMPI PUSH1 0x0 DUP1 REVERT JUMPDEST POP PUSH1 0x40 MLOAD PUSH2 0x9D5 CODESIZE SUB DUP1 PUSH2 0x9D5 DUP4 CODECOPY DUP2 ADD PUSH1 0x40 DUP2 SWAP1 MSTORE PUSH2 0x2F SWAP2 PUSH2 0x1C3 JUMP JUMPDEST PUSH1 0x1 PUSH1 0x1 PUSH1 0xA0 SHL SUB DUP4 AND PUSH2 0x94 JUMPI PUSH1 0x40 MLOAD PUSH3 0x461BCD PUSH1 0xE5 SHL DUP2 MSTORE PUSH1 0x20 PUSH1 0x4 DUP3 ADD MSTORE PUSH1 0x21 PUSH1 0x24 DUP3 ADD MSTORE PUSH32 0x4C594E5820746F6B656E20616464726573732063616E6E6F74206265207A6572 PUSH1 0x44 DUP3 ADD MSTORE PUSH1 0x6F PUSH1 0xF8 SHL PUSH1 0x64 DUP3 ADD MSTORE PUSH1 0x84 ADD JUMPDEST PUSH1 0x40 MLOAD DUP1 SWAP2 SUB SWAP1 REVERT JUMPDEST PUSH1 0x1 PUSH1 0x1 PUSH1 0xA0 SHL SUB DUP3 AND PUSH2 0xF5 JUMPI PUSH1 0x40 MLOAD PUSH3 0x461BCD PUSH1 0xE5 SHL DUP2 MSTORE PUSH1 0x20 PUSH1 0x4 DUP3 ADD MSTORE PUSH1 0x22 PUSH1 0x24 DUP3 ADD MSTORE PUSH32 0x534155434520746F6B656E20616464726573732063616E6E6F74206265207A65 PUSH1 0x44 DUP3 ADD MSTORE PUSH2 0x726F PUSH1 0xF0 SHL PUSH1 0x64 DUP3 ADD MSTORE PUSH1 0x84 ADD PUSH2 0x8B JUMP JUMPDEST PUSH1 0x1 PUSH1 0x1 PUSH1 0xA0 SHL SUB DUP2 AND PUSH2 0x155 JUMPI PUSH1 0x40 MLOAD PUSH3 0x461BCD PUSH1 0xE5 SHL DUP2 MSTORE PUSH1 0x20 PUSH1 0x4 DUP3 ADD MSTORE PUSH1 0x21 PUSH1 0x24 DUP3 ADD MSTORE PUSH32 0x434C585920746F6B656E20616464726573732063616E6E6F74206265207A6572 PUSH1 0x44 DUP3 ADD MSTORE PUSH1 0x6F PUSH1 0xF8 SHL PUSH1 0x64 DUP3 ADD MSTORE PUSH1 0x84 ADD PUSH2 0x8B JUMP JUMPDEST PUSH1 0x0 DUP1 SLOAD CALLER PUSH1 0x1 PUSH1 0x1 PUSH1 0xA0 SHL SUB NOT SWAP2 DUP3 AND OR DUP3 SSTORE PUSH1 0x1 DUP1 SSTORE PUSH1 0x2 DUP1 SLOAD DUP3 AND PUSH1 0x1 PUSH1 0x1 PUSH1 0xA0 SHL SUB SWAP7 DUP8 AND OR SWAP1 SSTORE PUSH1 0x3 DUP1 SLOAD DUP3 AND SWAP5 DUP7 AND SWAP5 SWAP1 SWAP5 OR SWAP1 SWAP4 SSTORE PUSH1 0x4 DUP1 SLOAD SWAP1 SWAP4 AND SWAP2 SWAP1 SWAP4 AND OR SWAP1 SSTORE PUSH1 0x7 SSTORE PUSH2 0x206 JUMP JUMPDEST DUP1 MLOAD PUSH1 0x1 PUSH1 0x1 PUSH1 0xA0 SHL SUB DUP2 AND DUP2 EQ PUSH2 0x1BE JUMPI PUSH1 0x0 DUP1 REVERT JUMPDEST SWAP2 SWAP1 POP JUMP JUMPDEST PUSH1 0x0 DUP1 PUSH1 0x0 PUSH1 0x60 DUP5 DUP7 SUB SLT ISZERO PUSH2 0x1D8 JUMPI PUSH1 0x0 DUP1 REVERT JUMPDEST PUSH2 0x1E1 DUP5 PUSH2 0x1A7 JUMP JUMPDEST SWAP3 POP PUSH2 0x1EF PUSH1 0x20 DUP6 ADD PUSH2 0x1A7 JUMP JUMPDEST SWAP2 POP PUSH2 0x1FD PUSH1 0x40 DUP6 ADD PUSH2 0x1A7 JUMP JUMPDEST SWAP1 POP SWAP3 POP SWAP3 POP SWAP3 JUMP JUMPDEST PUSH2 0x7C0 DUP1 PUSH2 0x215 PUSH1 0x0 CODECOPY PUSH1 0x0 RETURN INVALID PUSH1 0x80 PUSH1 0x40 MSTORE PUSH1 0x4 CALLDATASIZE LT PUSH2 0xDD JUMPI PUSH1 0x0 CALLDATALOAD PUSH1 0xE0 SHR DUP1 PUSH4 0x931679A2 GT PUSH2 0x7F JUMPI DUP1 PUSH4 0xA9A0C7FF GT PUSH2 0x59 JUMPI DUP1 PUSH4 0xA9A0C7FF EQ PUSH2 0x213 JUMPI DUP1 PUSH4 0xD32867D0 EQ PUSH2 0x233 JUMPI DUP1 PUSH4 0xE860FF74 EQ PUSH2 0x24B JUMPI DUP1 PUSH4 0xEF1643E4 EQ PUSH2 0x26B JUMPI PUSH1 0x0 DUP1 REVERT JUMPDEST DUP1 PUSH4 0x931679A2 EQ PUSH2 0x1C8 JUMPI DUP1 PUSH4 0x9EA681F8 EQ PUSH2 0x1DE JUMPI DUP1 PUSH4 0xA0712D68 EQ PUSH2 0x200 JUMPI PUSH1 0x0 DUP1 REVERT JUMPDEST DUP1 PUSH4 0x2AC2555F GT PUSH2 0xBB JUMPI DUP1 PUSH4 0x2AC2555F EQ PUSH2 0x11A JUMPI DUP1 PUSH4 0x63900CA6 EQ PUSH2 0x152 JUMPI DUP1 PUSH4 0x8A782285 EQ PUSH2 0x192 JUMPI DUP1 PUSH4 0x8DA5CB5B EQ PUSH2 0x1A8 JUMPI PUSH1 0x0 DUP1 REVERT JUMPDEST DUP1 PUSH4 0x2107482 EQ PUSH2 0xE2 JUMPI DUP1 PUSH4 0xA2565E4 EQ PUSH2 0x104 JUMPI DUP1 PUSH4 0x12065FE0 EQ PUSH2 0xE2 JUMPI JUMPDEST PUSH1 0x0 DUP1 REVERT JUMPDEST CALLVALUE DUP1 ISZERO PUSH2 0xEE JUMPI PUSH1 0x0 DUP1 REVERT JUMPDEST POP SELFBALANCE JUMPDEST PUSH1 0x40 MLOAD SWAP1 DUP2 MSTORE PUSH1 0x20 ADD JUMPDEST PUSH1 0x40 MLOAD DUP1 SWAP2 SUB SWAP1 RETURN JUMPDEST CALLVALUE DUP1 ISZERO PUSH2 0x110 JUMPI PUSH1 0x0 DUP1 REVERT JUMPDEST POP PUSH2 0xF1 PUSH1 0x5 SLOAD DUP2 JUMP JUMPDEST CALLVALUE DUP1 ISZERO PUSH2 0x126 JUMPI PUSH1 0x0 DUP1 REVERT JUMPDEST POP PUSH1 0x4 SLOAD PUSH2 0x13A SWAP1 PUSH1 0x1 PUSH1 0x1 PUSH1 0xA0 SHL SUB AND DUP2 JUMP JUMPDEST PUSH1 0x40 MLOAD PUSH1 0x1 PUSH1 0x1 PUSH1 0xA0 SHL SUB SWAP1 SWAP2 AND DUP2 MSTORE PUSH1 0x20 ADD PUSH2 0xFB JUMP JUMPDEST CALLVALUE DUP1 ISZERO PUSH2 0x15E JUMPI PUSH1 0x0 DUP1 REVERT JUMPDEST POP PUSH2 0x182 PUSH2 0x16D CALLDATASIZE PUSH1 0x4 PUSH2 0x6EE JUMP JUMPDEST PUSH1 0x8 PUSH1 0x20 MSTORE PUSH1 0x0 SWAP1 DUP2 MSTORE PUSH1 0x40 SWAP1 KECCAK256 SLOAD PUSH1 0xFF AND DUP2 JUMP JUMPDEST PUSH1 0x40 MLOAD SWAP1 ISZERO ISZERO DUP2 MSTORE PUSH1 0x20 ADD PUSH2 0xFB JUMP JUMPDEST CALLVALUE DUP1 ISZERO PUSH2 0x19E JUMPI PUSH1 0x0 DUP1 REVERT JUMPDEST POP PUSH2 0xF1 PUSH1 0x6 SLOAD DUP2 JUMP JUMPDEST CALLVALUE DUP1 ISZERO PUSH2 0x1B4 JUMPI PUSH1 0x0 DUP1 REVERT JUMPDEST POP PUSH1 0x0 SLOAD PUSH2 0x13A SWAP1 PUSH1 0x1 PUSH1 0x1 PUSH1 0xA0 SHL SUB AND DUP2 JUMP JUMPDEST CALLVALUE DUP1 ISZERO PUSH2 0x1D4 JUMPI PUSH1 0x0 DUP1 REVERT JUMPDEST POP PUSH2 0xF1 PUSH1 0x7 SLOAD DUP2 JUMP JUMPDEST CALLVALUE DUP1 ISZERO PUSH2 0x1EA JUMPI PUSH1 0x0 DUP1 REVERT JUMPDEST POP PUSH2 0x1FE PUSH2 0x1F9 CALLDATASIZE PUSH1 0x4 PUSH2 0x707 JUMP JUMPDEST PUSH2 0x28B JUMP JUMPDEST STOP JUMPDEST PUSH2 0x1FE PUSH2 0x20E CALLDATASIZE PUSH1 0x4 PUSH2 0x6EE JUMP JUMPDEST PUSH2 0x4B5 JUMP JUMPDEST CALLVALUE DUP1 ISZERO PUSH2 0x21F JUMPI PUSH1 0x0 DUP1 REVERT JUMPDEST POP PUSH2 0x1FE PUSH2 0x22E CALLDATASIZE PUSH1 0x4 PUSH2 0x6EE JUMP JUMPDEST PUSH2 0x612 JUMP JUMPDEST CALLVALUE DUP1 ISZERO PUSH2 0x23F JUMPI PUSH1 0x0 DUP1 REVERT JUMPDEST POP PUSH2 0xF1 PUSH4 0x5F5E100 DUP2 JUMP JUMPDEST CALLVALUE DUP1 ISZERO PUSH2 0x257 JUMPI PUSH1 0x0 DUP1 REVERT JUMPDEST POP PUSH1 0x3 SLOAD PUSH2 0x13A SWAP1 PUSH1 0x1 PUSH1 0x1 PUSH1 0xA0 SHL SUB AND DUP2 JUMP JUMPDEST CALLVALUE DUP1 ISZERO PUSH2 0x277 JUMPI PUSH1 0x0 DUP1 REVERT JUMPDEST POP PUSH1 0x2 SLOAD PUSH2 0x13A SWAP1 PUSH1 0x1 PUSH1 0x1 PUSH1 0xA0 SHL SUB AND DUP2 JUMP JUMPDEST PUSH1 0x0 SLOAD PUSH1 0x1 PUSH1 0x1 PUSH1 0xA0 SHL SUB AND CALLER EQ PUSH2 0x2FB JUMPI PUSH1 0x0 SLOAD PUSH1 0x40 MLOAD PUSH32 0xA0E17470DC71E4604949D20A06E219F2836752C44926FBC6AEA3035939F12EA0 SWAP2 PUSH2 0x2DA SWAP2 CALLER SWAP2 PUSH1 0x1 PUSH1 0x1 PUSH1 0xA0 SHL SUB AND SWAP1 PUSH2 0x729 JUMP JUMPDEST PUSH1 0x40 MLOAD DUP1 SWAP2 SUB SWAP1 LOG1 PUSH1 0x40 MLOAD PUSH4 0x5FC483C5 PUSH1 0xE0 SHL DUP2 MSTORE PUSH1 0x4 ADD PUSH1 0x40 MLOAD DUP1 SWAP2 SUB SWAP1 REVERT JUMPDEST PUSH1 0x2 PUSH1 0x1 SLOAD SUB PUSH2 0x31E JUMPI PUSH1 0x40 MLOAD PUSH4 0x3EE5AEB5 PUSH1 0xE0 SHL DUP2 MSTORE PUSH1 0x4 ADD PUSH1 0x40 MLOAD DUP1 SWAP2 SUB SWAP1 REVERT JUMPDEST PUSH1 0x2 PUSH1 0x1 SSTORE PUSH1 0x0 DUP3 DUP2 MSTORE PUSH1 0x8 PUSH1 0x20 MSTORE PUSH1 0x40 SWAP1 KECCAK256 SLOAD PUSH1 0xFF AND PUSH2 0x386 JUMPI PUSH1 0x40 MLOAD PUSH3 0x461BCD PUSH1 0xE5 SHL DUP2 MSTORE PUSH1 0x20 PUSH1 0x4 DUP3 ADD MSTORE PUSH1 0x1F PUSH1 0x24 DUP3 ADD MSTORE PUSH32 0x4E6F2070656E64696E67206D696E7420776974682074686973206E6F6E636500 PUSH1 0x44 DUP3 ADD MSTORE PUSH1 0x64 ADD JUMPDEST PUSH1 0x40 MLOAD DUP1 SWAP2 SUB SWAP1 REVERT JUMPDEST PUSH1 0x0 DUP1 SLOAD DUP4 DUP3 MSTORE PUSH1 0x8 PUSH1 0x20 SWAP1 DUP2 MSTORE PUSH1 0x40 SWAP3 DUP4 SWAP1 KECCAK256 SLOAD DUP4 MLOAD PUSH1 0xA0 DUP1 DUP3 MSTORE PUSH1 0xF SWAP1 DUP3 ADD MSTORE PUSH15 0x10DBDB999A5C9B5A5B99C81B5A5B9D PUSH1 0x8A SHL PUSH1 0xC0 DUP3 ADD MSTORE CALLER SWAP3 DUP2 ADD SWAP3 SWAP1 SWAP3 MSTORE PUSH1 0x1 PUSH1 0x1 PUSH1 0xA0 SHL SUB SWAP1 SWAP3 AND DUP2 DUP5 ADD MSTORE PUSH1 0x60 DUP2 ADD DUP6 SWAP1 MSTORE PUSH1 0xFF SWAP1 SWAP2 AND ISZERO ISZERO PUSH1 0x80 DUP3 ADD MSTORE SWAP1 MLOAD PUSH32 0x1591A5CD8D1C8D7C0B7CC796CF1A8A00188FE69C94FBE58C4A0FE137E2666013 SWAP2 DUP2 SWAP1 SUB PUSH1 0xE0 ADD SWAP1 LOG1 PUSH1 0x0 DUP3 DUP2 MSTORE PUSH1 0x8 PUSH1 0x20 MSTORE PUSH1 0x40 DUP2 KECCAK256 DUP1 SLOAD PUSH1 0xFF NOT AND SWAP1 SSTORE PUSH1 0x5 DUP1 SLOAD DUP4 SWAP3 SWAP1 PUSH2 0x43E SWAP1 DUP5 SWAP1 PUSH2 0x763 JUMP JUMPDEST SWAP3 POP POP DUP2 SWAP1 SSTORE POP DUP1 PUSH1 0x6 PUSH1 0x0 DUP3 DUP3 SLOAD PUSH2 0x457 SWAP2 SWAP1 PUSH2 0x763 JUMP JUMPDEST SWAP1 SWAP2 SSTORE POP POP PUSH1 0x40 DUP1 MLOAD DUP3 DUP2 MSTORE PUSH1 0x0 PUSH1 0x20 DUP3 ADD DUP2 SWAP1 MSTORE DUP2 DUP4 ADD MSTORE PUSH1 0x60 DUP2 ADD DUP4 SWAP1 MSTORE PUSH1 0x80 DUP2 ADD DUP5 SWAP1 MSTORE SWAP1 MLOAD CALLER SWAP2 PUSH32 0x9CFE9C3D9B47958471F4B9EC1D8B9E9C27E0FE2EB3E3A56635045C68B03A9D31 SWAP2 SWAP1 DUP2 SWAP1 SUB PUSH1 0xA0 ADD SWAP1 LOG2 POP POP PUSH1 0x1 DUP1 SSTORE JUMP JUMPDEST PUSH1 0x2 PUSH1 0x1 SLOAD SUB PUSH2 0x4D8 JUMPI PUSH1 0x40 MLOAD PUSH4 0x3EE5AEB5 PUSH1 0xE0 SHL DUP2 MSTORE PUSH1 0x4 ADD PUSH1 0x40 MLOAD DUP1 SWAP2 SUB SWAP1 REVERT JUMPDEST PUSH1 0x2 PUSH1 0x1 SSTORE CALLVALUE DUP2 GT ISZERO PUSH2 0x526 JUMPI PUSH1 0x40 MLOAD PUSH3 0x461BCD PUSH1 0xE5 SHL DUP2 MSTORE PUSH1 0x20 PUSH1 0x4 DUP3 ADD MSTORE PUSH1 0x16 PUSH1 0x24 DUP3 ADD MSTORE PUSH22 0x125B9CDD59999A58DA595B9D0812109054881CD95B9D PUSH1 0x52 SHL PUSH1 0x44 DUP3 ADD MSTORE PUSH1 0x64 ADD PUSH2 0x37D JUMP JUMPDEST PUSH1 0x0 DUP2 GT PUSH2 0x576 JUMPI PUSH1 0x40 MLOAD PUSH3 0x461BCD PUSH1 0xE5 SHL DUP2 MSTORE PUSH1 0x20 PUSH1 0x4 DUP3 ADD MSTORE PUSH1 0x1D PUSH1 0x24 DUP3 ADD MSTORE PUSH32 0x416D6F756E74206D7573742062652067726561746572207468616E2030000000 PUSH1 0x44 DUP3 ADD MSTORE PUSH1 0x64 ADD PUSH2 0x37D JUMP JUMPDEST PUSH1 0x7 SLOAD PUSH2 0x584 DUP2 PUSH1 0x1 PUSH2 0x763 JUMP JUMPDEST PUSH1 0x7 SSTORE PUSH1 0x0 DUP2 DUP2 MSTORE PUSH1 0x8 PUSH1 0x20 MSTORE PUSH1 0x40 SWAP1 DUP2 SWAP1 KECCAK256 DUP1 SLOAD PUSH1 0xFF NOT AND PUSH1 0x1 OR SWAP1 SSTORE MLOAD PUSH32 0x5D0F0C4AC430ECB1A1304C9CFCF3985FD70D44CE3A507E51CDED58B313C90E7C SWAP1 PUSH2 0x602 SWAP1 DUP5 SWAP1 DUP5 SWAP1 PUSH1 0x60 DUP1 DUP3 MSTORE PUSH1 0xE SWAP1 DUP3 ADD MSTORE PUSH14 0x135A5B9D081A5B9A5D1A585D1959 PUSH1 0x92 SHL PUSH1 0x80 DUP3 ADD MSTORE PUSH1 0x20 DUP2 ADD SWAP3 SWAP1 SWAP3 MSTORE PUSH1 0x40 DUP3 ADD MSTORE PUSH1 0xA0 ADD SWAP1 JUMP JUMPDEST PUSH1 0x40 MLOAD DUP1 SWAP2 SUB SWAP1 LOG1 POP POP PUSH1 0x1 DUP1 SSTORE JUMP JUMPDEST PUSH1 0x0 SLOAD PUSH1 0x1 PUSH1 0x1 PUSH1 0xA0 SHL SUB AND CALLER EQ PUSH2 0x661 JUMPI PUSH1 0x0 SLOAD PUSH1 0x40 MLOAD PUSH32 0xA0E17470DC71E4604949D20A06E219F2836752C44926FBC6AEA3035939F12EA0 SWAP2 PUSH2 0x2DA SWAP2 CALLER SWAP2 PUSH1 0x1 PUSH1 0x1 PUSH1 0xA0 SHL SUB AND SWAP1 PUSH2 0x729 JUMP JUMPDEST SELFBALANCE DUP2 GT ISZERO PUSH2 0x6B1 JUMPI PUSH1 0x40 MLOAD PUSH3 0x461BCD PUSH1 0xE5 SHL DUP2 MSTORE PUSH1 0x20 PUSH1 0x4 DUP3 ADD MSTORE PUSH1 0x19 PUSH1 0x24 DUP3 ADD MSTORE PUSH32 0x496E73756666696369656E7420484241522062616C616E636500000000000000 PUSH1 0x44 DUP3 ADD MSTORE PUSH1 0x64 ADD PUSH2 0x37D JUMP JUMPDEST PUSH1 0x0 DUP1 SLOAD PUSH1 0x40 MLOAD PUSH1 0x1 PUSH1 0x1 PUSH1 0xA0 SHL SUB SWAP1 SWAP2 AND SWAP2 DUP4 ISZERO PUSH2 0x8FC MUL SWAP2 DUP5 SWAP2 DUP2 DUP2 DUP2 DUP6 DUP9 DUP9 CALL SWAP4 POP POP POP POP ISZERO DUP1 ISZERO PUSH2 0x6EA JUMPI RETURNDATASIZE PUSH1 0x0 DUP1 RETURNDATACOPY RETURNDATASIZE PUSH1 0x0 REVERT JUMPDEST POP POP JUMP JUMPDEST PUSH1 0x0 PUSH1 0x20 DUP3 DUP5 SUB SLT ISZERO PUSH2 0x700 JUMPI PUSH1 0x0 DUP1 REVERT JUMPDEST POP CALLDATALOAD SWAP2 SWAP1 POP JUMP JUMPDEST PUSH1 0x0 DUP1 PUSH1 0x40 DUP4 DUP6 SUB SLT ISZERO PUSH2 0x71A JUMPI PUSH1 0x0 DUP1 REVERT JUMPDEST POP POP DUP1 CALLDATALOAD SWAP3 PUSH1 0x20 SWAP1 SWAP2 ADD CALLDATALOAD SWAP2 POP JUMP JUMPDEST PUSH1 0x60 DUP1 DUP3 MSTORE PUSH1 0x9 SWAP1 DUP3 ADD MSTORE PUSH9 0x2737BA1037BBB732B9 PUSH1 0xB9 SHL PUSH1 0x80 DUP3 ADD MSTORE PUSH1 0x1 PUSH1 0x1 PUSH1 0xA0 SHL SUB SWAP3 DUP4 AND PUSH1 0x20 DUP3 ADD MSTORE SWAP2 AND PUSH1 0x40 DUP3 ADD MSTORE PUSH1 0xA0 ADD SWAP1 JUMP JUMPDEST DUP1 DUP3 ADD DUP1 DUP3 GT ISZERO PUSH2 0x784 JUMPI PUSH4 0x4E487B71 PUSH1 0xE0 SHL PUSH1 0x0 MSTORE PUSH1 0x11 PUSH1 0x4 MSTORE PUSH1 0x24 PUSH1 0x0 REVERT JUMPDEST SWAP3 SWAP2 POP POP JUMP INVALID LOG2 PUSH5 0x6970667358 0x22 SLT KECCAK256 PUSH28 0x17339C992DEF18AA4A6A9FCC52CEB19CC478B37D821CBC825C016E0F LOG0 0xAF 0x49 PUSH5 0x736F6C6343 STOP ADDMOD EQ STOP CALLER "},"methodIdentifiers":{"RATIO_PRECISION()":"d32867d0","clxyToken()":"2ac2555f","confirmMint(uint256,uint256)":"9ea681f8","getBalance()":"12065fe0","getMaxMintableAmount()":"02107482","lynxToken()":"ef1643e4","mint(uint256)":"a0712d68","mintNonce()":"931679a2","owner()":"8da5cb5b","pendingMints(uint256)":"63900ca6","sauceToken()":"e860ff74","totalHbarDeposited()":"0a2565e4","totalLynxMinted()":"8a782285","withdrawHBAR(uint256)":"a9a0c7ff"}}}}}