{"src/app/contracts/NFTSale.sol":{"NFTSale":{"abi":[{"inputs":[{"internalType":"address","name":"_tokenAddress","type":"address"},{"internalType":"address","name":"_treasury","type":"address"}],"stateMutability":"nonpayable","type":"constructor"},{"anonymous":false,"inputs":[{"indexed":true,"internalType":"address","name":"owner","type":"address"},{"indexed":false,"internalType":"uint256","name":"timestamp","type":"uint256"}],"name":"ContractReset","type":"event"},{"anonymous":false,"inputs":[{"indexed":true,"internalType":"address","name":"buyer","type":"address"},{"indexed":false,"internalType":"uint256","name":"serialNumber","type":"uint256"}],"name":"NFTSold","type":"event"},{"anonymous":false,"inputs":[{"indexed":false,"internalType":"address","name":"to","type":"address"},{"indexed":false,"internalType":"uint256","name":"amount","type":"uint256"}],"name":"PaymentForwarded","type":"event"},{"anonymous":false,"inputs":[{"indexed":false,"internalType":"address","name":"from","type":"address"},{"indexed":false,"internalType":"uint256","name":"amount","type":"uint256"}],"name":"PaymentReceived","type":"event"},{"anonymous":false,"inputs":[{"indexed":false,"internalType":"uint256","name":"oldPrice","type":"uint256"},{"indexed":false,"internalType":"uint256","name":"newPrice","type":"uint256"}],"name":"PriceUpdated","type":"event"},{"inputs":[],"name":"PRICE_INCREMENT","outputs":[{"internalType":"uint256","name":"","type":"uint256"}],"stateMutability":"view","type":"function"},{"inputs":[{"internalType":"address[]","name":"recipients","type":"address[]"}],"name":"batchGiveawayNFTs","outputs":[],"stateMutability":"nonpayable","type":"function"},{"inputs":[],"name":"currentTokenId","outputs":[{"internalType":"uint256","name":"","type":"uint256"}],"stateMutability":"view","type":"function"},{"inputs":[],"name":"getCurrentPrice","outputs":[{"internalType":"uint256","name":"","type":"uint256"}],"stateMutability":"view","type":"function"},{"inputs":[{"internalType":"address","name":"buyer","type":"address"}],"name":"getPurchaseState","outputs":[{"internalType":"bool","name":"purchased","type":"bool"},{"internalType":"uint256","name":"nextToken","type":"uint256"},{"internalType":"uint256","name":"remaining","type":"uint256"},{"internalType":"uint256","name":"currentPrice","type":"uint256"}],"stateMutability":"view","type":"function"},{"inputs":[{"internalType":"address","name":"recipient","type":"address"}],"name":"giveawayNFT","outputs":[],"stateMutability":"nonpayable","type":"function"},{"inputs":[{"internalType":"address","name":"","type":"address"}],"name":"hasPurchased","outputs":[{"internalType":"bool","name":"","type":"bool"}],"stateMutability":"view","type":"function"},{"inputs":[],"name":"maxSupply","outputs":[{"internalType":"uint256","name":"","type":"uint256"}],"stateMutability":"view","type":"function"},{"inputs":[],"name":"owner","outputs":[{"internalType":"address","name":"","type":"address"}],"stateMutability":"view","type":"function"},{"inputs":[],"name":"price","outputs":[{"internalType":"uint256","name":"","type":"uint256"}],"stateMutability":"view","type":"function"},{"inputs":[],"name":"purchaseNFT","outputs":[],"stateMutability":"payable","type":"function"},{"inputs":[],"name":"resetContract","outputs":[],"stateMutability":"nonpayable","type":"function"},{"inputs":[],"name":"soldSupply","outputs":[{"internalType":"uint256","name":"","type":"uint256"}],"stateMutability":"view","type":"function"},{"inputs":[],"name":"tokenAddress","outputs":[{"internalType":"address","name":"","type":"address"}],"stateMutability":"view","type":"function"},{"inputs":[],"name":"treasury","outputs":[{"internalType":"address","name":"","type":"address"}],"stateMutability":"view","type":"function"}],"evm":{"bytecode":{"linkReferences":{},"object":"60806040526402540be40060035560646004556000600555600160065534801561002857600080fd5b50604051610cfe380380610cfe8339810160408190526100479161009f565b600080546001600160a01b03199081163317909155600280546001600160a01b03948516908316179055600180549290931691161790556100d2565b80516001600160a01b038116811461009a57600080fd5b919050565b600080604083850312156100b257600080fd5b6100bb83610083565b91506100c960208401610083565b90509250929050565b610c1d806100e16000396000f3fe6080604052600436106100e75760003560e01c806390118fb41161008a578063d5abeb0111610059578063d5abeb011461027c578063e10577a814610292578063eb91d37e146102b2578063fa2299ee146102c757600080fd5b806390118fb4146101f15780639d76ea5814610231578063a035b1fe14610251578063b181a8fc1461026757600080fd5b806361d027b3116100c657806361d027b31461013f5780636b958125146101775780636d25d802146101b95780638da5cb5b146101d157600080fd5b80629a9b7b146100ec5780633548bfb514610115578063613b4d3214610137575b600080fd5b3480156100f857600080fd5b5061010260065481565b6040519081526020015b60405180910390f35b34801561012157600080fd5b50610135610130366004610ad1565b6102dd565b005b61013561053d565b34801561014b57600080fd5b5060015461015f906001600160a01b031681565b6040516001600160a01b03909116815260200161010c565b34801561018357600080fd5b50610197610192366004610b46565b6107b4565b604080519415158552602085019390935291830152606082015260800161010c565b3480156101c557600080fd5b50610102633b9aca0081565b3480156101dd57600080fd5b5060005461015f906001600160a01b031681565b3480156101fd57600080fd5b5061022161020c366004610b46565b60076020526000908152604090205460ff1681565b604051901515815260200161010c565b34801561023d57600080fd5b5060025461015f906001600160a01b031681565b34801561025d57600080fd5b5061010260035481565b34801561027357600080fd5b506101356107ff565b34801561028857600080fd5b5061010260045481565b34801561029e57600080fd5b506101356102ad366004610b46565b61089a565b3480156102be57600080fd5b50600354610102565b3480156102d357600080fd5b5061010260055481565b6000546001600160a01b0316331461033c5760405162461bcd60e51b815260206004820152601d60248201527f4f6e6c79206f776e65722063616e20676976652061776179204e46547300000060448201526064015b60405180910390fd5b60045460055461034d908390610b8c565b111561039b5760405162461bcd60e51b815260206004820152601960248201527f4e6f7420656e6f756768204e4654732072656d61696e696e67000000000000006044820152606401610333565b60005b8181101561053857600760008484848181106103bc576103bc610ba5565b90506020020160208101906103d19190610b46565b6001600160a01b0316815260208101919091526040016000205460ff161561043b5760405162461bcd60e51b815260206004820152601f60248201527f4164647265737320616c726561647920726563656976656420616e204e4654006044820152606401610333565b60068054908190600061044d83610bbb565b90915550506005805490600061046283610bbb565b919050555060016007600086868681811061047f5761047f610ba5565b90506020020160208101906104949190610b46565b6001600160a01b031681526020810191909152604001600020805460ff19169115159190911790558383838181106104ce576104ce610ba5565b90506020020160208101906104e39190610b46565b6001600160a01b03167ff025e0c58bf784c030caa814abce9ca7cf237831d4dff71c2ade33bed4d8dd228260405161051d91815260200190565b60405180910390a2508061053081610bbb565b91505061039e565b505050565b600354341461058e5760405162461bcd60e51b815260206004820152601860248201527f496e636f7272656374207061796d656e7420616d6f756e7400000000000000006044820152606401610333565b600454600554106105d55760405162461bcd60e51b8152602060048201526011602482015270105b1b081391951cc81cdbdb19081bdd5d607a1b6044820152606401610333565b3360009081526007602052604090205460ff16156106295760405162461bcd60e51b8152602060048201526011602482015270105b1c9958591e481c1d5c98da185cd959607a1b6044820152606401610333565b60045460065411156106765760405162461bcd60e51b81526020600482015260166024820152754e6f206d6f7265204e46547320617661696c61626c6560501b6044820152606401610333565b60068054908190600061068883610bbb565b90915550506005805490600061069d83610bbb565b909155505033600081815260076020908152604091829020805460ff19166001179055815192835234908301527f6ef95f06320e7a25a04a175ca677b7052bdd97131872c2192525a629f51be770910160405180910390a16001546040516001600160a01b03909116903480156108fc02916000818181858888f1935050505015801561072e573d6000803e3d6000fd5b50600154604080516001600160a01b0390921682523460208301527f7e99594d80a854f08e1995929bca50d03000411d5987bfea7071cc8d125762c4910160405180910390a160405181815233907ff025e0c58bf784c030caa814abce9ca7cf237831d4dff71c2ade33bed4d8dd229060200160405180910390a26107b1610a7e565b50565b6001600160a01b03811660009081526007602052604081205460065460055460045484938493849360ff9092169290916107ed91610bd4565b60035493509350935093509193509193565b6000546001600160a01b031633146108505760405162461bcd60e51b815260206004820152601460248201527313db9b1e481bdddb995c8818d85b881c995cd95d60621b6044820152606401610333565b600060055560016006556402540be40060035560405142815233907f52792a7f5b0a52571949f1e7fb3a5a1672bd8a877707942a21cb3300fa02d1019060200160405180910390a2565b6000546001600160a01b031633146108f45760405162461bcd60e51b815260206004820152601d60248201527f4f6e6c79206f776e65722063616e20676976652061776179204e4654730000006044820152606401610333565b6004546005541061093b5760405162461bcd60e51b8152602060048201526011602482015270105b1b081391951cc81cdbdb19081bdd5d607a1b6044820152606401610333565b60045460065411156109885760405162461bcd60e51b81526020600482015260166024820152754e6f206d6f7265204e46547320617661696c61626c6560501b6044820152606401610333565b6001600160a01b03811660009081526007602052604090205460ff16156109f15760405162461bcd60e51b815260206004820152601f60248201527f4164647265737320616c726561647920726563656976656420616e204e4654006044820152606401610333565b600680549081906000610a0383610bbb565b909155505060058054906000610a1883610bbb565b90915550506001600160a01b03821660008181526007602052604090819020805460ff19166001179055517ff025e0c58bf784c030caa814abce9ca7cf237831d4dff71c2ade33bed4d8dd2290610a729084815260200190565b60405180910390a25050565b600354610a8f633b9aca0082610b8c565b60038190556040805183815260208101929092527f945c1c4e99aa89f648fbfe3df471b916f719e16d960fcec0737d4d56bd696838910160405180910390a150565b60008060208385031215610ae457600080fd5b823567ffffffffffffffff80821115610afc57600080fd5b818501915085601f830112610b1057600080fd5b813581811115610b1f57600080fd5b8660208260051b8501011115610b3457600080fd5b60209290920196919550909350505050565b600060208284031215610b5857600080fd5b81356001600160a01b0381168114610b6f57600080fd5b9392505050565b634e487b7160e01b600052601160045260246000fd5b80820180821115610b9f57610b9f610b76565b92915050565b634e487b7160e01b600052603260045260246000fd5b600060018201610bcd57610bcd610b76565b5060010190565b81810381811115610b9f57610b9f610b7656fea2646970667358221220a1615bc34172b6d324dc3b77848fa26f6ac7511a1e795a70584d6d730092289464736f6c63430008140033","opcodes":"PUSH1 0x80 PUSH1 0x40 MSTORE PUSH5 0x2540BE400 PUSH1 0x3 SSTORE PUSH1 0x64 PUSH1 0x4 SSTORE PUSH1 0x0 PUSH1 0x5 SSTORE PUSH1 0x1 PUSH1 0x6 SSTORE CALLVALUE DUP1 ISZERO PUSH2 0x28 JUMPI PUSH1 0x0 DUP1 REVERT JUMPDEST POP PUSH1 0x40 MLOAD PUSH2 0xCFE CODESIZE SUB DUP1 PUSH2 0xCFE DUP4 CODECOPY DUP2 ADD PUSH1 0x40 DUP2 SWAP1 MSTORE PUSH2 0x47 SWAP2 PUSH2 0x9F JUMP JUMPDEST PUSH1 0x0 DUP1 SLOAD PUSH1 0x1 PUSH1 0x1 PUSH1 0xA0 SHL SUB NOT SWAP1 DUP2 AND CALLER OR SWAP1 SWAP2 SSTORE PUSH1 0x2 DUP1 SLOAD PUSH1 0x1 PUSH1 0x1 PUSH1 0xA0 SHL SUB SWAP5 DUP6 AND SWAP1 DUP4 AND OR SWAP1 SSTORE PUSH1 0x1 DUP1 SLOAD SWAP3 SWAP1 SWAP4 AND SWAP2 AND OR SWAP1 SSTORE PUSH2 0xD2 JUMP JUMPDEST DUP1 MLOAD PUSH1 0x1 PUSH1 0x1 PUSH1 0xA0 SHL SUB DUP2 AND DUP2 EQ PUSH2 0x9A JUMPI PUSH1 0x0 DUP1 REVERT JUMPDEST SWAP2 SWAP1 POP JUMP JUMPDEST PUSH1 0x0 DUP1 PUSH1 0x40 DUP4 DUP6 SUB SLT ISZERO PUSH2 0xB2 JUMPI PUSH1 0x0 DUP1 REVERT JUMPDEST PUSH2 0xBB DUP4 PUSH2 0x83 JUMP JUMPDEST SWAP2 POP PUSH2 0xC9 PUSH1 0x20 DUP5 ADD PUSH2 0x83 JUMP JUMPDEST SWAP1 POP SWAP3 POP SWAP3 SWAP1 POP JUMP JUMPDEST PUSH2 0xC1D DUP1 PUSH2 0xE1 PUSH1 0x0 CODECOPY PUSH1 0x0 RETURN INVALID PUSH1 0x80 PUSH1 0x40 MSTORE PUSH1 0x4 CALLDATASIZE LT PUSH2 0xE7 JUMPI PUSH1 0x0 CALLDATALOAD PUSH1 0xE0 SHR DUP1 PUSH4 0x90118FB4 GT PUSH2 0x8A JUMPI DUP1 PUSH4 0xD5ABEB01 GT PUSH2 0x59 JUMPI DUP1 PUSH4 0xD5ABEB01 EQ PUSH2 0x27C JUMPI DUP1 PUSH4 0xE10577A8 EQ PUSH2 0x292 JUMPI DUP1 PUSH4 0xEB91D37E EQ PUSH2 0x2B2 JUMPI DUP1 PUSH4 0xFA2299EE EQ PUSH2 0x2C7 JUMPI PUSH1 0x0 DUP1 REVERT JUMPDEST DUP1 PUSH4 0x90118FB4 EQ PUSH2 0x1F1 JUMPI DUP1 PUSH4 0x9D76EA58 EQ PUSH2 0x231 JUMPI DUP1 PUSH4 0xA035B1FE EQ PUSH2 0x251 JUMPI DUP1 PUSH4 0xB181A8FC EQ PUSH2 0x267 JUMPI PUSH1 0x0 DUP1 REVERT JUMPDEST DUP1 PUSH4 0x61D027B3 GT PUSH2 0xC6 JUMPI DUP1 PUSH4 0x61D027B3 EQ PUSH2 0x13F JUMPI DUP1 PUSH4 0x6B958125 EQ PUSH2 0x177 JUMPI DUP1 PUSH4 0x6D25D802 EQ PUSH2 0x1B9 JUMPI DUP1 PUSH4 0x8DA5CB5B EQ PUSH2 0x1D1 JUMPI PUSH1 0x0 DUP1 REVERT JUMPDEST DUP1 PUSH3 0x9A9B7B EQ PUSH2 0xEC JUMPI DUP1 PUSH4 0x3548BFB5 EQ PUSH2 0x115 JUMPI DUP1 PUSH4 0x613B4D32 EQ PUSH2 0x137 JUMPI JUMPDEST PUSH1 0x0 DUP1 REVERT JUMPDEST CALLVALUE DUP1 ISZERO PUSH2 0xF8 JUMPI PUSH1 0x0 DUP1 REVERT JUMPDEST POP PUSH2 0x102 PUSH1 0x6 SLOAD DUP2 JUMP JUMPDEST PUSH1 0x40 MLOAD SWAP1 DUP2 MSTORE PUSH1 0x20 ADD JUMPDEST PUSH1 0x40 MLOAD DUP1 SWAP2 SUB SWAP1 RETURN JUMPDEST CALLVALUE DUP1 ISZERO PUSH2 0x121 JUMPI PUSH1 0x0 DUP1 REVERT JUMPDEST POP PUSH2 0x135 PUSH2 0x130 CALLDATASIZE PUSH1 0x4 PUSH2 0xAD1 JUMP JUMPDEST PUSH2 0x2DD JUMP JUMPDEST STOP JUMPDEST PUSH2 0x135 PUSH2 0x53D JUMP JUMPDEST CALLVALUE DUP1 ISZERO PUSH2 0x14B JUMPI PUSH1 0x0 DUP1 REVERT JUMPDEST POP PUSH1 0x1 SLOAD PUSH2 0x15F SWAP1 PUSH1 0x1 PUSH1 0x1 PUSH1 0xA0 SHL SUB AND DUP2 JUMP JUMPDEST PUSH1 0x40 MLOAD PUSH1 0x1 PUSH1 0x1 PUSH1 0xA0 SHL SUB SWAP1 SWAP2 AND DUP2 MSTORE PUSH1 0x20 ADD PUSH2 0x10C JUMP JUMPDEST CALLVALUE DUP1 ISZERO PUSH2 0x183 JUMPI PUSH1 0x0 DUP1 REVERT JUMPDEST POP PUSH2 0x197 PUSH2 0x192 CALLDATASIZE PUSH1 0x4 PUSH2 0xB46 JUMP JUMPDEST PUSH2 0x7B4 JUMP JUMPDEST PUSH1 0x40 DUP1 MLOAD SWAP5 ISZERO ISZERO DUP6 MSTORE PUSH1 0x20 DUP6 ADD SWAP4 SWAP1 SWAP4 MSTORE SWAP2 DUP4 ADD MSTORE PUSH1 0x60 DUP3 ADD MSTORE PUSH1 0x80 ADD PUSH2 0x10C JUMP JUMPDEST CALLVALUE DUP1 ISZERO PUSH2 0x1C5 JUMPI PUSH1 0x0 DUP1 REVERT JUMPDEST POP PUSH2 0x102 PUSH4 0x3B9ACA00 DUP2 JUMP JUMPDEST CALLVALUE DUP1 ISZERO PUSH2 0x1DD JUMPI PUSH1 0x0 DUP1 REVERT JUMPDEST POP PUSH1 0x0 SLOAD PUSH2 0x15F SWAP1 PUSH1 0x1 PUSH1 0x1 PUSH1 0xA0 SHL SUB AND DUP2 JUMP JUMPDEST CALLVALUE DUP1 ISZERO PUSH2 0x1FD JUMPI PUSH1 0x0 DUP1 REVERT JUMPDEST POP PUSH2 0x221 PUSH2 0x20C CALLDATASIZE PUSH1 0x4 PUSH2 0xB46 JUMP JUMPDEST PUSH1 0x7 PUSH1 0x20 MSTORE PUSH1 0x0 SWAP1 DUP2 MSTORE PUSH1 0x40 SWAP1 KECCAK256 SLOAD PUSH1 0xFF AND DUP2 JUMP JUMPDEST PUSH1 0x40 MLOAD SWAP1 ISZERO ISZERO DUP2 MSTORE PUSH1 0x20 ADD PUSH2 0x10C JUMP JUMPDEST CALLVALUE DUP1 ISZERO PUSH2 0x23D JUMPI PUSH1 0x0 DUP1 REVERT JUMPDEST POP PUSH1 0x2 SLOAD PUSH2 0x15F SWAP1 PUSH1 0x1 PUSH1 0x1 PUSH1 0xA0 SHL SUB AND DUP2 JUMP JUMPDEST CALLVALUE DUP1 ISZERO PUSH2 0x25D JUMPI PUSH1 0x0 DUP1 REVERT JUMPDEST POP PUSH2 0x102 PUSH1 0x3 SLOAD DUP2 JUMP JUMPDEST CALLVALUE DUP1 ISZERO PUSH2 0x273 JUMPI PUSH1 0x0 DUP1 REVERT JUMPDEST POP PUSH2 0x135 PUSH2 0x7FF JUMP JUMPDEST CALLVALUE DUP1 ISZERO PUSH2 0x288 JUMPI PUSH1 0x0 DUP1 REVERT JUMPDEST POP PUSH2 0x102 PUSH1 0x4 SLOAD DUP2 JUMP JUMPDEST CALLVALUE DUP1 ISZERO PUSH2 0x29E JUMPI PUSH1 0x0 DUP1 REVERT JUMPDEST POP PUSH2 0x135 PUSH2 0x2AD CALLDATASIZE PUSH1 0x4 PUSH2 0xB46 JUMP JUMPDEST PUSH2 0x89A JUMP JUMPDEST CALLVALUE DUP1 ISZERO PUSH2 0x2BE JUMPI PUSH1 0x0 DUP1 REVERT JUMPDEST POP PUSH1 0x3 SLOAD PUSH2 0x102 JUMP JUMPDEST CALLVALUE DUP1 ISZERO PUSH2 0x2D3 JUMPI PUSH1 0x0 DUP1 REVERT JUMPDEST POP PUSH2 0x102 PUSH1 0x5 SLOAD DUP2 JUMP JUMPDEST PUSH1 0x0 SLOAD PUSH1 0x1 PUSH1 0x1 PUSH1 0xA0 SHL SUB AND CALLER EQ PUSH2 0x33C JUMPI PUSH1 0x40 MLOAD PUSH3 0x461BCD PUSH1 0xE5 SHL DUP2 MSTORE PUSH1 0x20 PUSH1 0x4 DUP3 ADD MSTORE PUSH1 0x1D PUSH1 0x24 DUP3 ADD MSTORE PUSH32 0x4F6E6C79206F776E65722063616E20676976652061776179204E465473000000 PUSH1 0x44 DUP3 ADD MSTORE PUSH1 0x64 ADD JUMPDEST PUSH1 0x40 MLOAD DUP1 SWAP2 SUB SWAP1 REVERT JUMPDEST PUSH1 0x4 SLOAD PUSH1 0x5 SLOAD PUSH2 0x34D SWAP1 DUP4 SWAP1 PUSH2 0xB8C JUMP JUMPDEST GT ISZERO PUSH2 0x39B JUMPI PUSH1 0x40 MLOAD PUSH3 0x461BCD PUSH1 0xE5 SHL DUP2 MSTORE PUSH1 0x20 PUSH1 0x4 DUP3 ADD MSTORE PUSH1 0x19 PUSH1 0x24 DUP3 ADD MSTORE PUSH32 0x4E6F7420656E6F756768204E4654732072656D61696E696E6700000000000000 PUSH1 0x44 DUP3 ADD MSTORE PUSH1 0x64 ADD PUSH2 0x333 JUMP JUMPDEST PUSH1 0x0 JUMPDEST DUP2 DUP2 LT ISZERO PUSH2 0x538 JUMPI PUSH1 0x7 PUSH1 0x0 DUP5 DUP5 DUP5 DUP2 DUP2 LT PUSH2 0x3BC JUMPI PUSH2 0x3BC PUSH2 0xBA5 JUMP JUMPDEST SWAP1 POP PUSH1 0x20 MUL ADD PUSH1 0x20 DUP2 ADD SWAP1 PUSH2 0x3D1 SWAP2 SWAP1 PUSH2 0xB46 JUMP JUMPDEST PUSH1 0x1 PUSH1 0x1 PUSH1 0xA0 SHL SUB AND DUP2 MSTORE PUSH1 0x20 DUP2 ADD SWAP2 SWAP1 SWAP2 MSTORE PUSH1 0x40 ADD PUSH1 0x0 KECCAK256 SLOAD PUSH1 0xFF AND ISZERO PUSH2 0x43B JUMPI PUSH1 0x40 MLOAD PUSH3 0x461BCD PUSH1 0xE5 SHL DUP2 MSTORE PUSH1 0x20 PUSH1 0x4 DUP3 ADD MSTORE PUSH1 0x1F PUSH1 0x24 DUP3 ADD MSTORE PUSH32 0x4164647265737320616C726561647920726563656976656420616E204E465400 PUSH1 0x44 DUP3 ADD MSTORE PUSH1 0x64 ADD PUSH2 0x333 JUMP JUMPDEST PUSH1 0x6 DUP1 SLOAD SWAP1 DUP2 SWAP1 PUSH1 0x0 PUSH2 0x44D DUP4 PUSH2 0xBBB JUMP JUMPDEST SWAP1 SWAP2 SSTORE POP POP PUSH1 0x5 DUP1 SLOAD SWAP1 PUSH1 0x0 PUSH2 0x462 DUP4 PUSH2 0xBBB JUMP JUMPDEST SWAP2 SWAP1 POP SSTORE POP PUSH1 0x1 PUSH1 0x7 PUSH1 0x0 DUP7 DUP7 DUP7 DUP2 DUP2 LT PUSH2 0x47F JUMPI PUSH2 0x47F PUSH2 0xBA5 JUMP JUMPDEST SWAP1 POP PUSH1 0x20 MUL ADD PUSH1 0x20 DUP2 ADD SWAP1 PUSH2 0x494 SWAP2 SWAP1 PUSH2 0xB46 JUMP JUMPDEST PUSH1 0x1 PUSH1 0x1 PUSH1 0xA0 SHL SUB AND DUP2 MSTORE PUSH1 0x20 DUP2 ADD SWAP2 SWAP1 SWAP2 MSTORE PUSH1 0x40 ADD PUSH1 0x0 KECCAK256 DUP1 SLOAD PUSH1 0xFF NOT AND SWAP2 ISZERO ISZERO SWAP2 SWAP1 SWAP2 OR SWAP1 SSTORE DUP4 DUP4 DUP4 DUP2 DUP2 LT PUSH2 0x4CE JUMPI PUSH2 0x4CE PUSH2 0xBA5 JUMP JUMPDEST SWAP1 POP PUSH1 0x20 MUL ADD PUSH1 0x20 DUP2 ADD SWAP1 PUSH2 0x4E3 SWAP2 SWAP1 PUSH2 0xB46 JUMP JUMPDEST PUSH1 0x1 PUSH1 0x1 PUSH1 0xA0 SHL SUB AND PUSH32 0xF025E0C58BF784C030CAA814ABCE9CA7CF237831D4DFF71C2ADE33BED4D8DD22 DUP3 PUSH1 0x40 MLOAD PUSH2 0x51D SWAP2 DUP2 MSTORE PUSH1 0x20 ADD SWAP1 JUMP JUMPDEST PUSH1 0x40 MLOAD DUP1 SWAP2 SUB SWAP1 LOG2 POP DUP1 PUSH2 0x530 DUP2 PUSH2 0xBBB JUMP JUMPDEST SWAP2 POP POP PUSH2 0x39E JUMP JUMPDEST POP POP POP JUMP JUMPDEST PUSH1 0x3 SLOAD CALLVALUE EQ PUSH2 0x58E JUMPI PUSH1 0x40 MLOAD PUSH3 0x461BCD PUSH1 0xE5 SHL DUP2 MSTORE PUSH1 0x20 PUSH1 0x4 DUP3 ADD MSTORE PUSH1 0x18 PUSH1 0x24 DUP3 ADD MSTORE PUSH32 0x496E636F7272656374207061796D656E7420616D6F756E740000000000000000 PUSH1 0x44 DUP3 ADD MSTORE PUSH1 0x64 ADD PUSH2 0x333 JUMP JUMPDEST PUSH1 0x4 SLOAD PUSH1 0x5 SLOAD LT PUSH2 0x5D5 JUMPI PUSH1 0x40 MLOAD PUSH3 0x461BCD PUSH1 0xE5 SHL DUP2 MSTORE PUSH1 0x20 PUSH1 0x4 DUP3 ADD MSTORE PUSH1 0x11 PUSH1 0x24 DUP3 ADD MSTORE PUSH17 0x105B1B081391951CC81CDBDB19081BDD5D PUSH1 0x7A SHL PUSH1 0x44 DUP3 ADD MSTORE PUSH1 0x64 ADD PUSH2 0x333 JUMP JUMPDEST CALLER PUSH1 0x0 SWAP1 DUP2 MSTORE PUSH1 0x7 PUSH1 0x20 MSTORE PUSH1 0x40 SWAP1 KECCAK256 SLOAD PUSH1 0xFF AND ISZERO PUSH2 0x629 JUMPI PUSH1 0x40 MLOAD PUSH3 0x461BCD PUSH1 0xE5 SHL DUP2 MSTORE PUSH1 0x20 PUSH1 0x4 DUP3 ADD MSTORE PUSH1 0x11 PUSH1 0x24 DUP3 ADD MSTORE PUSH17 0x105B1C9958591E481C1D5C98DA185CD959 PUSH1 0x7A SHL PUSH1 0x44 DUP3 ADD MSTORE PUSH1 0x64 ADD PUSH2 0x333 JUMP JUMPDEST PUSH1 0x4 SLOAD PUSH1 0x6 SLOAD GT ISZERO PUSH2 0x676 JUMPI PUSH1 0x40 MLOAD PUSH3 0x461BCD PUSH1 0xE5 SHL DUP2 MSTORE PUSH1 0x20 PUSH1 0x4 DUP3 ADD MSTORE PUSH1 0x16 PUSH1 0x24 DUP3 ADD MSTORE PUSH22 0x4E6F206D6F7265204E46547320617661696C61626C65 PUSH1 0x50 SHL PUSH1 0x44 DUP3 ADD MSTORE PUSH1 0x64 ADD PUSH2 0x333 JUMP JUMPDEST PUSH1 0x6 DUP1 SLOAD SWAP1 DUP2 SWAP1 PUSH1 0x0 PUSH2 0x688 DUP4 PUSH2 0xBBB JUMP JUMPDEST SWAP1 SWAP2 SSTORE POP POP PUSH1 0x5 DUP1 SLOAD SWAP1 PUSH1 0x0 PUSH2 0x69D DUP4 PUSH2 0xBBB JUMP JUMPDEST SWAP1 SWAP2 SSTORE POP POP CALLER PUSH1 0x0 DUP2 DUP2 MSTORE PUSH1 0x7 PUSH1 0x20 SWAP1 DUP2 MSTORE PUSH1 0x40 SWAP2 DUP3 SWAP1 KECCAK256 DUP1 SLOAD PUSH1 0xFF NOT AND PUSH1 0x1 OR SWAP1 SSTORE DUP2 MLOAD SWAP3 DUP4 MSTORE CALLVALUE SWAP1 DUP4 ADD MSTORE PUSH32 0x6EF95F06320E7A25A04A175CA677B7052BDD97131872C2192525A629F51BE770 SWAP2 ADD PUSH1 0x40 MLOAD DUP1 SWAP2 SUB SWAP1 LOG1 PUSH1 0x1 SLOAD PUSH1 0x40 MLOAD PUSH1 0x1 PUSH1 0x1 PUSH1 0xA0 SHL SUB SWAP1 SWAP2 AND SWAP1 CALLVALUE DUP1 ISZERO PUSH2 0x8FC MUL SWAP2 PUSH1 0x0 DUP2 DUP2 DUP2 DUP6 DUP9 DUP9 CALL SWAP4 POP POP POP POP ISZERO DUP1 ISZERO PUSH2 0x72E JUMPI RETURNDATASIZE PUSH1 0x0 DUP1 RETURNDATACOPY RETURNDATASIZE PUSH1 0x0 REVERT JUMPDEST POP PUSH1 0x1 SLOAD PUSH1 0x40 DUP1 MLOAD PUSH1 0x1 PUSH1 0x1 PUSH1 0xA0 SHL SUB SWAP1 SWAP3 AND DUP3 MSTORE CALLVALUE PUSH1 0x20 DUP4 ADD MSTORE PUSH32 0x7E99594D80A854F08E1995929BCA50D03000411D5987BFEA7071CC8D125762C4 SWAP2 ADD PUSH1 0x40 MLOAD DUP1 SWAP2 SUB SWAP1 LOG1 PUSH1 0x40 MLOAD DUP2 DUP2 MSTORE CALLER SWAP1 PUSH32 0xF025E0C58BF784C030CAA814ABCE9CA7CF237831D4DFF71C2ADE33BED4D8DD22 SWAP1 PUSH1 0x20 ADD PUSH1 0x40 MLOAD DUP1 SWAP2 SUB SWAP1 LOG2 PUSH2 0x7B1 PUSH2 0xA7E JUMP JUMPDEST POP JUMP JUMPDEST PUSH1 0x1 PUSH1 0x1 PUSH1 0xA0 SHL SUB DUP2 AND PUSH1 0x0 SWAP1 DUP2 MSTORE PUSH1 0x7 PUSH1 0x20 MSTORE PUSH1 0x40 DUP2 KECCAK256 SLOAD PUSH1 0x6 SLOAD PUSH1 0x5 SLOAD PUSH1 0x4 SLOAD DUP5 SWAP4 DUP5 SWAP4 DUP5 SWAP4 PUSH1 0xFF SWAP1 SWAP3 AND SWAP3 SWAP1 SWAP2 PUSH2 0x7ED SWAP2 PUSH2 0xBD4 JUMP JUMPDEST PUSH1 0x3 SLOAD SWAP4 POP SWAP4 POP SWAP4 POP SWAP4 POP SWAP2 SWAP4 POP SWAP2 SWAP4 JUMP JUMPDEST PUSH1 0x0 SLOAD PUSH1 0x1 PUSH1 0x1 PUSH1 0xA0 SHL SUB AND CALLER EQ PUSH2 0x850 JUMPI PUSH1 0x40 MLOAD PUSH3 0x461BCD PUSH1 0xE5 SHL DUP2 MSTORE PUSH1 0x20 PUSH1 0x4 DUP3 ADD MSTORE PUSH1 0x14 PUSH1 0x24 DUP3 ADD MSTORE PUSH20 0x13DB9B1E481BDDDB995C8818D85B881C995CD95D PUSH1 0x62 SHL PUSH1 0x44 DUP3 ADD MSTORE PUSH1 0x64 ADD PUSH2 0x333 JUMP JUMPDEST PUSH1 0x0 PUSH1 0x5 SSTORE PUSH1 0x1 PUSH1 0x6 SSTORE PUSH5 0x2540BE400 PUSH1 0x3 SSTORE PUSH1 0x40 MLOAD TIMESTAMP DUP2 MSTORE CALLER SWAP1 PUSH32 0x52792A7F5B0A52571949F1E7FB3A5A1672BD8A877707942A21CB3300FA02D101 SWAP1 PUSH1 0x20 ADD PUSH1 0x40 MLOAD DUP1 SWAP2 SUB SWAP1 LOG2 JUMP JUMPDEST PUSH1 0x0 SLOAD PUSH1 0x1 PUSH1 0x1 PUSH1 0xA0 SHL SUB AND CALLER EQ PUSH2 0x8F4 JUMPI PUSH1 0x40 MLOAD PUSH3 0x461BCD PUSH1 0xE5 SHL DUP2 MSTORE PUSH1 0x20 PUSH1 0x4 DUP3 ADD MSTORE PUSH1 0x1D PUSH1 0x24 DUP3 ADD MSTORE PUSH32 0x4F6E6C79206F776E65722063616E20676976652061776179204E465473000000 PUSH1 0x44 DUP3 ADD MSTORE PUSH1 0x64 ADD PUSH2 0x333 JUMP JUMPDEST PUSH1 0x4 SLOAD PUSH1 0x5 SLOAD LT PUSH2 0x93B JUMPI PUSH1 0x40 MLOAD PUSH3 0x461BCD PUSH1 0xE5 SHL DUP2 MSTORE PUSH1 0x20 PUSH1 0x4 DUP3 ADD MSTORE PUSH1 0x11 PUSH1 0x24 DUP3 ADD MSTORE PUSH17 0x105B1B081391951CC81CDBDB19081BDD5D PUSH1 0x7A SHL PUSH1 0x44 DUP3 ADD MSTORE PUSH1 0x64 ADD PUSH2 0x333 JUMP JUMPDEST PUSH1 0x4 SLOAD PUSH1 0x6 SLOAD GT ISZERO PUSH2 0x988 JUMPI PUSH1 0x40 MLOAD PUSH3 0x461BCD PUSH1 0xE5 SHL DUP2 MSTORE PUSH1 0x20 PUSH1 0x4 DUP3 ADD MSTORE PUSH1 0x16 PUSH1 0x24 DUP3 ADD MSTORE PUSH22 0x4E6F206D6F7265204E46547320617661696C61626C65 PUSH1 0x50 SHL PUSH1 0x44 DUP3 ADD MSTORE PUSH1 0x64 ADD PUSH2 0x333 JUMP JUMPDEST PUSH1 0x1 PUSH1 0x1 PUSH1 0xA0 SHL SUB DUP2 AND PUSH1 0x0 SWAP1 DUP2 MSTORE PUSH1 0x7 PUSH1 0x20 MSTORE PUSH1 0x40 SWAP1 KECCAK256 SLOAD PUSH1 0xFF AND ISZERO PUSH2 0x9F1 JUMPI PUSH1 0x40 MLOAD PUSH3 0x461BCD PUSH1 0xE5 SHL DUP2 MSTORE PUSH1 0x20 PUSH1 0x4 DUP3 ADD MSTORE PUSH1 0x1F PUSH1 0x24 DUP3 ADD MSTORE PUSH32 0x4164647265737320616C726561647920726563656976656420616E204E465400 PUSH1 0x44 DUP3 ADD MSTORE PUSH1 0x64 ADD PUSH2 0x333 JUMP JUMPDEST PUSH1 0x6 DUP1 SLOAD SWAP1 DUP2 SWAP1 PUSH1 0x0 PUSH2 0xA03 DUP4 PUSH2 0xBBB JUMP JUMPDEST SWAP1 SWAP2 SSTORE POP POP PUSH1 0x5 DUP1 SLOAD SWAP1 PUSH1 0x0 PUSH2 0xA18 DUP4 PUSH2 0xBBB JUMP JUMPDEST SWAP1 SWAP2 SSTORE POP POP PUSH1 0x1 PUSH1 0x1 PUSH1 0xA0 SHL SUB DUP3 AND PUSH1 0x0 DUP2 DUP2 MSTORE PUSH1 0x7 PUSH1 0x20 MSTORE PUSH1 0x40 SWAP1 DUP2 SWAP1 KECCAK256 DUP1 SLOAD PUSH1 0xFF NOT AND PUSH1 0x1 OR SWAP1 SSTORE MLOAD PUSH32 0xF025E0C58BF784C030CAA814ABCE9CA7CF237831D4DFF71C2ADE33BED4D8DD22 SWAP1 PUSH2 0xA72 SWAP1 DUP5 DUP2 MSTORE PUSH1 0x20 ADD SWAP1 JUMP JUMPDEST PUSH1 0x40 MLOAD DUP1 SWAP2 SUB SWAP1 LOG2 POP POP JUMP JUMPDEST PUSH1 0x3 SLOAD PUSH2 0xA8F PUSH4 0x3B9ACA00 DUP3 PUSH2 0xB8C JUMP JUMPDEST PUSH1 0x3 DUP2 SWAP1 SSTORE PUSH1 0x40 DUP1 MLOAD DUP4 DUP2 MSTORE PUSH1 0x20 DUP2 ADD SWAP3 SWAP1 SWAP3 MSTORE PUSH32 0x945C1C4E99AA89F648FBFE3DF471B916F719E16D960FCEC0737D4D56BD696838 SWAP2 ADD PUSH1 0x40 MLOAD DUP1 SWAP2 SUB SWAP1 LOG1 POP JUMP JUMPDEST PUSH1 0x0 DUP1 PUSH1 0x20 DUP4 DUP6 SUB SLT ISZERO PUSH2 0xAE4 JUMPI PUSH1 0x0 DUP1 REVERT JUMPDEST DUP3 CALLDATALOAD PUSH8 0xFFFFFFFFFFFFFFFF DUP1 DUP3 GT ISZERO PUSH2 0xAFC JUMPI PUSH1 0x0 DUP1 REVERT JUMPDEST DUP2 DUP6 ADD SWAP2 POP DUP6 PUSH1 0x1F DUP4 ADD SLT PUSH2 0xB10 JUMPI PUSH1 0x0 DUP1 REVERT JUMPDEST DUP2 CALLDATALOAD DUP2 DUP2 GT ISZERO PUSH2 0xB1F JUMPI PUSH1 0x0 DUP1 REVERT JUMPDEST DUP7 PUSH1 0x20 DUP3 PUSH1 0x5 SHL DUP6 ADD ADD GT ISZERO PUSH2 0xB34 JUMPI PUSH1 0x0 DUP1 REVERT JUMPDEST PUSH1 0x20 SWAP3 SWAP1 SWAP3 ADD SWAP7 SWAP2 SWAP6 POP SWAP1 SWAP4 POP POP POP POP JUMP JUMPDEST PUSH1 0x0 PUSH1 0x20 DUP3 DUP5 SUB SLT ISZERO PUSH2 0xB58 JUMPI PUSH1 0x0 DUP1 REVERT JUMPDEST DUP2 CALLDATALOAD PUSH1 0x1 PUSH1 0x1 PUSH1 0xA0 SHL SUB DUP2 AND DUP2 EQ PUSH2 0xB6F JUMPI PUSH1 0x0 DUP1 REVERT JUMPDEST SWAP4 SWAP3 POP POP POP JUMP JUMPDEST PUSH4 0x4E487B71 PUSH1 0xE0 SHL PUSH1 0x0 MSTORE PUSH1 0x11 PUSH1 0x4 MSTORE PUSH1 0x24 PUSH1 0x0 REVERT JUMPDEST DUP1 DUP3 ADD DUP1 DUP3 GT ISZERO PUSH2 0xB9F JUMPI PUSH2 0xB9F PUSH2 0xB76 JUMP JUMPDEST SWAP3 SWAP2 POP POP JUMP JUMPDEST PUSH4 0x4E487B71 PUSH1 0xE0 SHL PUSH1 0x0 MSTORE PUSH1 0x32 PUSH1 0x4 MSTORE PUSH1 0x24 PUSH1 0x0 REVERT JUMPDEST PUSH1 0x0 PUSH1 0x1 DUP3 ADD PUSH2 0xBCD JUMPI PUSH2 0xBCD PUSH2 0xB76 JUMP JUMPDEST POP PUSH1 0x1 ADD SWAP1 JUMP JUMPDEST DUP2 DUP2 SUB DUP2 DUP2 GT ISZERO PUSH2 0xB9F JUMPI PUSH2 0xB9F PUSH2 0xB76 JUMP INVALID LOG2 PUSH5 0x6970667358 0x22 SLT KECCAK256 LOG1 PUSH2 0x5BC3 COINBASE PUSH19 0xB6D324DC3B77848FA26F6AC7511A1E795A7058 0x4D PUSH14 0x730092289464736F6C6343000814 STOP CALLER "},"methodIdentifiers":{"PRICE_INCREMENT()":"6d25d802","batchGiveawayNFTs(address[])":"3548bfb5","currentTokenId()":"009a9b7b","getCurrentPrice()":"eb91d37e","getPurchaseState(address)":"6b958125","giveawayNFT(address)":"e10577a8","hasPurchased(address)":"90118fb4","maxSupply()":"d5abeb01","owner()":"8da5cb5b","price()":"a035b1fe","purchaseNFT()":"613b4d32","resetContract()":"b181a8fc","soldSupply()":"fa2299ee","tokenAddress()":"9d76ea58","treasury()":"61d027b3"}}}}}