{"src/app/contracts/LynxMinter.sol":{"LynxMinter":{"abi":[{"inputs":[{"internalType":"address","name":"lynxToken","type":"address"},{"internalType":"address","name":"sauceToken","type":"address"},{"internalType":"address","name":"clxyToken","type":"address"}],"stateMutability":"nonpayable","type":"constructor"},{"inputs":[],"name":"HbarTransferFailed","type":"error"},{"inputs":[{"internalType":"uint256","name":"allowance","type":"uint256"},{"internalType":"uint256","name":"required","type":"uint256"}],"name":"InsufficientClxyAllowance","type":"error"},{"inputs":[{"internalType":"address","name":"token","type":"address"},{"internalType":"uint256","name":"balance","type":"uint256"},{"internalType":"uint256","name":"required","type":"uint256"}],"name":"InsufficientContractBalance","type":"error"},{"inputs":[{"internalType":"uint256","name":"allowance","type":"uint256"},{"internalType":"uint256","name":"required","type":"uint256"}],"name":"InsufficientLynxAllowance","type":"error"},{"inputs":[{"internalType":"uint256","name":"allowance","type":"uint256"},{"internalType":"uint256","name":"required","type":"uint256"}],"name":"InsufficientSauceAllowance","type":"error"},{"inputs":[],"name":"InvalidAmount","type":"error"},{"inputs":[{"internalType":"uint256","name":"sent","type":"uint256"},{"internalType":"uint256","name":"required","type":"uint256"}],"name":"MustSendExactHBAR","type":"error"},{"inputs":[],"name":"NoSupplyKeyForToken","type":"error"},{"inputs":[],"name":"OnlyAdmin","type":"error"},{"inputs":[{"internalType":"address","name":"token","type":"address"},{"internalType":"int64","name":"errorCode","type":"int64"}],"name":"TokenBurnFailed","type":"error"},{"inputs":[{"internalType":"int64","name":"errorCode","type":"int64"}],"name":"TokenCreationFailed","type":"error"},{"inputs":[{"internalType":"address","name":"token","type":"address"},{"internalType":"int64","name":"errorCode","type":"int64"}],"name":"TokenMintFailed","type":"error"},{"inputs":[{"internalType":"address","name":"token","type":"address"},{"internalType":"int64","name":"errorCode","type":"int64"}],"name":"TokenTransferFailed","type":"error"},{"anonymous":false,"inputs":[{"indexed":true,"internalType":"address","name":"user","type":"address"},{"indexed":false,"internalType":"uint256","name":"lynxAmount","type":"uint256"},{"indexed":false,"internalType":"uint256","name":"hbarAmount","type":"uint256"},{"indexed":false,"internalType":"uint256","name":"sauceAmount","type":"uint256"},{"indexed":false,"internalType":"uint256","name":"clxyAmount","type":"uint256"}],"name":"LynxBurned","type":"event"},{"anonymous":false,"inputs":[{"indexed":true,"internalType":"address","name":"user","type":"address"},{"indexed":false,"internalType":"uint256","name":"lynxAmount","type":"uint256"},{"indexed":false,"internalType":"uint256","name":"hbarAmount","type":"uint256"},{"indexed":false,"internalType":"uint256","name":"sauceAmount","type":"uint256"},{"indexed":false,"internalType":"uint256","name":"clxyAmount","type":"uint256"}],"name":"LynxMinted","type":"event"},{"anonymous":false,"inputs":[{"indexed":false,"internalType":"address","name":"tokenAddress","type":"address"},{"indexed":false,"internalType":"int64","name":"responseCode","type":"int64"}],"name":"LynxTokenCreated","type":"event"},{"anonymous":false,"inputs":[{"indexed":true,"internalType":"address","name":"tokenAddress","type":"address"}],"name":"LynxTokenSet","type":"event"},{"anonymous":false,"inputs":[{"indexed":false,"internalType":"uint256","name":"hbarRatio","type":"uint256"},{"indexed":false,"internalType":"uint256","name":"sauceRatio","type":"uint256"},{"indexed":false,"internalType":"uint256","name":"clxyRatio","type":"uint256"}],"name":"RatiosUpdated","type":"event"},{"anonymous":false,"inputs":[{"indexed":false,"internalType":"bool","name":"hasKey","type":"bool"}],"name":"SupplyKeyVerified","type":"event"},{"anonymous":false,"inputs":[{"indexed":false,"internalType":"address","name":"token","type":"address"},{"indexed":false,"internalType":"int64","name":"responseCode","type":"int64"}],"name":"TokensAssociated","type":"event"},{"stateMutability":"payable","type":"fallback"},{"inputs":[],"name":"ADMIN","outputs":[{"internalType":"address","name":"","type":"address"}],"stateMutability":"view","type":"function"},{"inputs":[],"name":"CLXY_RATIO","outputs":[{"internalType":"uint256","name":"","type":"uint256"}],"stateMutability":"view","type":"function"},{"inputs":[],"name":"CLXY_TOKEN","outputs":[{"internalType":"address","name":"","type":"address"}],"stateMutability":"view","type":"function"},{"inputs":[],"name":"HBAR_RATIO","outputs":[{"internalType":"uint256","name":"","type":"uint256"}],"stateMutability":"view","type":"function"},{"inputs":[],"name":"HTS_PRECOMPILE","outputs":[{"internalType":"address","name":"","type":"address"}],"stateMutability":"view","type":"function"},{"inputs":[],"name":"IS_SUPPLY_TYPE_INFINITE","outputs":[{"internalType":"bool","name":"","type":"bool"}],"stateMutability":"view","type":"function"},{"inputs":[],"name":"LYNX_TOKEN","outputs":[{"internalType":"address","name":"","type":"address"}],"stateMutability":"view","type":"function"},{"inputs":[],"name":"SAUCE_RATIO","outputs":[{"internalType":"uint256","name":"","type":"uint256"}],"stateMutability":"view","type":"function"},{"inputs":[],"name":"SAUCE_TOKEN","outputs":[{"internalType":"address","name":"","type":"address"}],"stateMutability":"view","type":"function"},{"inputs":[],"name":"TOKEN_DECIMALS","outputs":[{"internalType":"uint8","name":"","type":"uint8"}],"stateMutability":"view","type":"function"},{"inputs":[],"name":"TOKEN_MAX_SUPPLY","outputs":[{"internalType":"uint32","name":"","type":"uint32"}],"stateMutability":"view","type":"function"},{"inputs":[],"name":"associateTokens","outputs":[],"stateMutability":"nonpayable","type":"function"},{"inputs":[{"internalType":"uint256","name":"lynxAmount","type":"uint256"}],"name":"burn","outputs":[],"stateMutability":"nonpayable","type":"function"},{"inputs":[{"internalType":"uint256","name":"lynxAmount","type":"uint256"}],"name":"calculateRequiredCLXY","outputs":[{"internalType":"uint256","name":"","type":"uint256"}],"stateMutability":"view","type":"function"},{"inputs":[{"internalType":"uint256","name":"lynxAmount","type":"uint256"}],"name":"calculateRequiredHBAR","outputs":[{"internalType":"uint256","name":"","type":"uint256"}],"stateMutability":"view","type":"function"},{"inputs":[{"internalType":"uint256","name":"lynxAmount","type":"uint256"}],"name":"calculateRequiredSAUCE","outputs":[{"internalType":"uint256","name":"","type":"uint256"}],"stateMutability":"view","type":"function"},{"inputs":[{"internalType":"address","name":"user","type":"address"},{"internalType":"uint256","name":"lynxAmount","type":"uint256"}],"name":"checkAllowances","outputs":[{"internalType":"uint256","name":"sauceAllowance","type":"uint256"},{"internalType":"uint256","name":"clxyAllowance","type":"uint256"},{"internalType":"uint256","name":"sauceRequired","type":"uint256"},{"internalType":"uint256","name":"clxyRequired","type":"uint256"},{"internalType":"bool","name":"isSauceAllowanceSufficient","type":"bool"},{"internalType":"bool","name":"isClxyAllowanceSufficient","type":"bool"}],"stateMutability":"view","type":"function"},{"inputs":[],"name":"checkSupplyKey","outputs":[],"stateMutability":"nonpayable","type":"function"},{"inputs":[{"internalType":"string","name":"name","type":"string"},{"internalType":"string","name":"symbol","type":"string"},{"internalType":"string","name":"memo","type":"string"}],"name":"createLynxToken","outputs":[],"stateMutability":"nonpayable","type":"function"},{"inputs":[{"internalType":"address","name":"user","type":"address"}],"name":"debugAllowances","outputs":[{"internalType":"uint256","name":"sauceAllowance","type":"uint256"},{"internalType":"uint256","name":"clxyAllowance","type":"uint256"},{"internalType":"uint256","name":"lynxAllowance","type":"uint256"}],"stateMutability":"view","type":"function"},{"inputs":[],"name":"getClxyRatio","outputs":[{"internalType":"uint256","name":"","type":"uint256"}],"stateMutability":"view","type":"function"},{"inputs":[],"name":"getHbarRatio","outputs":[{"internalType":"uint256","name":"","type":"uint256"}],"stateMutability":"view","type":"function"},{"inputs":[],"name":"getSauceRatio","outputs":[{"internalType":"uint256","name":"","type":"uint256"}],"stateMutability":"view","type":"function"},{"inputs":[],"name":"getTokenAddresses","outputs":[{"internalType":"address","name":"lynxToken","type":"address"},{"internalType":"address","name":"sauceToken","type":"address"},{"internalType":"address","name":"clxyToken","type":"address"}],"stateMutability":"view","type":"function"},{"inputs":[],"name":"hasSupplyKey","outputs":[{"internalType":"bool","name":"","type":"bool"}],"stateMutability":"view","type":"function"},{"inputs":[{"internalType":"uint256","name":"lynxAmount","type":"uint256"}],"name":"mint","outputs":[],"stateMutability":"payable","type":"function"},{"inputs":[{"internalType":"address","name":"newLynxTokenAddress","type":"address"}],"name":"setLynxTokenId","outputs":[],"stateMutability":"nonpayable","type":"function"},{"inputs":[{"internalType":"bool","name":"status","type":"bool"}],"name":"setSupplyKeyStatus","outputs":[],"stateMutability":"nonpayable","type":"function"},{"inputs":[{"internalType":"address","name":"mockHts","type":"address"}],"name":"setTokenService","outputs":[],"stateMutability":"nonpayable","type":"function"},{"inputs":[{"internalType":"uint256","name":"lynxAmount","type":"uint256"}],"name":"testClxyAllowance","outputs":[],"stateMutability":"payable","type":"function"},{"inputs":[{"internalType":"uint256","name":"hbarRatio","type":"uint256"},{"internalType":"uint256","name":"sauceRatio","type":"uint256"},{"internalType":"uint256","name":"clxyRatio","type":"uint256"}],"name":"updateRatios","outputs":[],"stateMutability":"nonpayable","type":"function"},{"inputs":[],"name":"updateSupplyKeyStatus","outputs":[],"stateMutability":"nonpayable","type":"function"},{"stateMutability":"payable","type":"receive"}],"evm":{"bytecode":{"linkReferences":{},"object":"6080604052600a6004556005805560026006556007805460ff191690553480156200002957600080fd5b5060405162002955380380620029558339810160408190526200004c9162000174565b6007805462016700610100600160a81b0319909116179055600080546001600160a01b038581166001600160a01b0319928316811790935560018054868316908416179055600280549185169183169190911790556003805490911633179055156200014e57600754604051632e1a634560e11b81526001600160a01b03858116600483015230602483015261010090920490911690635c34c68a90604401602060405180830381865afa92505050801562000127575060408051601f3d908101601f191682019092526200012491810190620001be565b60015b6200013c576007805460ff191690556200014e565b6007805460ff19169115159190911790555b505050620001e9565b80516001600160a01b03811681146200016f57600080fd5b919050565b6000806000606084860312156200018a57600080fd5b620001958462000157565b9250620001a56020850162000157565b9150620001b56040850162000157565b90509250925092565b600060208284031215620001d157600080fd5b81518015158114620001e257600080fd5b9392505050565b61275c80620001f96000396000f3fe6080604052600436106101cf5760003560e01c8063739036b2116100f6578063b0e4fe4f1161008f578063e1e9957611610061578063e1e9957614610570578063e294204d14610590578063ee8c24b8146105a5578063ef037593146105d857005b8063b0e4fe4f146104d5578063c2f4bfaf14610526578063cab21a6a1461053b578063de579bc91461055b57005b80638ee2c4b8116100c85780638ee2c4b8146104635780639057bb4a1461048d57806392361927146104a2578063a0712d68146104c257005b8063739036b214610403578063853f51ad1461041857806385cb42d41461042d5780638d6be5401461044d57005b806342966c6811610168578063539e803f1161013a578063539e803f1461036e5780635b7f415c146103a95780636461e01a146103d0578063702c3c24146103f057005b806342966c68146102f45780634543873d146103145780634924190c1461032a5780634bb3c9cf1461034e57005b80632a0acc6a116101a15780632a0acc6a1461026a57806330d0a66c1461028a578063331a4c20146102aa578063335c3fe8146102d457005b806310ca0bce146101d85780631d12e296146101ed5780631da965c21461020d5780631ec65c361461024a57005b366101d657005b005b3480156101e457600080fd5b506101d66105ee565b3480156101f957600080fd5b506101d6610208366004612192565b61084c565b34801561021957600080fd5b5060025461022d906001600160a01b031681565b6040516001600160a01b0390911681526020015b60405180910390f35b34801561025657600080fd5b5060015461022d906001600160a01b031681565b34801561027657600080fd5b5060035461022d906001600160a01b031681565b34801561029657600080fd5b506101d66102a536600461222c565b610d17565b3480156102b657600080fd5b506007546102c49060ff1681565b6040519015158152602001610241565b3480156102e057600080fd5b506101d66102ef366004612269565b610d8f565b34801561030057600080fd5b506101d661030f36600461228d565b610e01565b34801561032057600080fd5b5061022d61016781565b34801561033657600080fd5b5061034060045481565b604051908152602001610241565b34801561035a57600080fd5b506101d66103693660046122bb565b6114b1565b34801561037a57600080fd5b5061038e6103893660046122bb565b611504565b60408051938452602084019290925290820152606001610241565b3480156103b557600080fd5b506103be600881565b60405160ff9091168152602001610241565b3480156103dc57600080fd5b506103406103eb36600461228d565b611691565b6101d66103fe36600461228d565b6116a7565b34801561040f57600080fd5b50600454610340565b34801561042457600080fd5b50600654610340565b34801561043957600080fd5b506101d66104483660046122bb565b6117ed565b34801561045957600080fd5b5061034060065481565b34801561046f57600080fd5b50610478600081565b60405163ffffffff9091168152602001610241565b34801561049957600080fd5b50600554610340565b3480156104ae57600080fd5b506103406104bd36600461228d565b61191a565b6101d66104d036600461228d565b61192a565b3480156104e157600080fd5b506104f56104f03660046122d8565b611eb3565b60408051968752602087019590955293850192909252606084015215156080830152151560a082015260c001610241565b34801561053257600080fd5b506101d6611ff2565b34801561054757600080fd5b5061034061055636600461228d565b612027565b34801561056757600080fd5b506101d6612037565b34801561057c57600080fd5b5060005461022d906001600160a01b031681565b34801561059c57600080fd5b506102c4600181565b3480156105b157600080fd5b50600054600154600254604051610241936001600160a01b03908116938116921690612304565b3480156105e457600080fd5b5061034060055481565b6007546000805460405163248a35ef60e11b81523060048201526001600160a01b0391821660248201529192610100900416906349146bde906044016020604051808303816000875af1158015610649573d6000803e3d6000fd5b505050506040513d601f19601f8201168201806040525081019061066d919061233e565b6000546040519192507f6c452a6a0f6c8613bd46d4bd9a6192b0904a3f33a64c294ba553582502dfd770916106ad916001600160a01b0316908490612359565b60405180910390a160075460015460405163248a35ef60e11b81523060048201526001600160a01b0391821660248201526000926101009004909116906349146bde906044016020604051808303816000875af1158015610712573d6000803e3d6000fd5b505050506040513d601f19601f82011682018060405250810190610736919061233e565b6001546040519192507f6c452a6a0f6c8613bd46d4bd9a6192b0904a3f33a64c294ba553582502dfd77091610776916001600160a01b0316908490612359565b60405180910390a160075460025460405163248a35ef60e11b81523060048201526001600160a01b0391821660248201526000926101009004909116906349146bde906044016020604051808303816000875af11580156107db573d6000803e3d6000fd5b505050506040513d601f19601f820116820180604052508101906107ff919061233e565b6002546040519192507f6c452a6a0f6c8613bd46d4bd9a6192b0904a3f33a64c294ba553582502dfd7709161083f916001600160a01b0316908490612359565b60405180910390a1505050565b6003546001600160a01b0316331461087757604051634755657960e01b815260040160405180910390fd5b6000546001600160a01b0316156108d55760405162461bcd60e51b815260206004820152601960248201527f4c594e5820746f6b656e20616c7265616479206578697374730000000000000060448201526064015b60405180910390fd5b60408051600180825281830190925260009160208083019080368337505060035482519293506001600160a01b03169183915060009061091757610917612375565b6001600160a01b039290921660209283029190910190910152604080516001808252818301909252600091816020016020820280368337019050509050308160008151811061096857610968612375565b6001600160a01b03929092166020928302919091018201526040805160008082526101e0601f8c018590048502830181019093526101c082018b8152919390929084019182918d908d9081908801838280828437600092019190915250505090825250604080516020601f8c018190048102820181019092528a815291810191908b908b90819084018382808284376000920191909152505050908252503060208083019190915260408051601f8a018390048302810183018252898152920191908990899081908401838280828437600092018290525093855250506001602084015250604080830182905260608084018390526080840187905260a0840187905260c0840188905260e084018990526101008401879052600861012090940193909352805160028082529381019091529293509190816020016020820280368337019050509050600181600081518110610ac657610ac6612375565b602002602001019060ff16908160ff1681525050600481600181518110610aef57610aef612375565b60ff929092166020928302919091018201526040805160028082526060820183526000939192909183019080368337505060035482519293506001600160a01b031691839150600090610b4457610b44612375565b60200260200101906001600160a01b031690816001600160a01b0316815250503081600181518110610b7857610b78612375565b6001600160a01b03928316602091820292909201015260075460405162db106560e11b81526000928392610100900416906301b620ca908390610bc590899083908a908a90600401612448565b604080518083038185885af1158015610be2573d6000803e3d6000fd5b50505050506040513d601f19601f82011682018060405250810190610c0791906125f1565b915091508160070b600014610c3457604051622a27bf60e01b8152600783900b60048201526024016108cc565b600080546001600160a01b0319166001600160a01b03838116918217835560075460405163248a35ef60e11b81523060048201526024810193909352610100900416906349146bde906044016020604051808303816000875af1158015610c9f573d6000803e3d6000fd5b505050506040513d601f19601f82011682018060405250810190610cc3919061233e565b9050610ccd612037565b7f3c6983beb442f69ab2bb278a324e9cc5184d0e8e3b8eacbd06dd6f157738420a8284604051610cfe929190612359565b60405180910390a1505050505050505050505050505050565b6003546001600160a01b03163314610d4257604051634755657960e01b815260040160405180910390fd5b60048390556005829055600681905560408051848152602081018490529081018290527fe2f5c8588887234e6a368ca64e432b81b636580fe80ac266013c33040122e0409060600161083f565b6003546001600160a01b03163314610dba57604051634755657960e01b815260040160405180910390fd5b6007805460ff19168215159081179091556040519081527f40a36e95e1165e03b5c30095cd9d1e9fa9d8aa98d06aa1d6432a77718c0b68f09060200160405180910390a150565b60075460ff16610e245760405163b291599960e01b815260040160405180910390fd5b80600003610e455760405163162908e360e11b815260040160405180910390fd5b600060045482610e559190612628565b9050600060055483610e679190612628565b9050600060065484610e799190612628565b6007546000805460405163927da10560e01b815293945090926001600160a01b0361010090930483169263927da10592610ebc9291169033903090600401612304565b602060405180830381865afa158015610ed9573d6000803e3d6000fd5b505050506040513d601f19601f82011682018060405250810190610efd919061264d565b905084811015610f2a576040516316009c8360e01b815260048101829052602481018690526044016108cc565b83471015610f5b57604051634390211d60e11b815260006004820152476024820152604481018590526064016108cc565b600754600154604051633de222bb60e21b81526001600160a01b03918216600482015230602482015260009261010090049091169063f7888aec90604401602060405180830381865afa158015610fb6573d6000803e3d6000fd5b505050506040513d601f19601f82011682018060405250810190610fda919061264d565b90508381101561101a57600154604051634390211d60e11b81526001600160a01b03909116600482015260248101829052604481018590526064016108cc565b600754600254604051633de222bb60e21b81526001600160a01b03918216600482015230602482015260009261010090049091169063f7888aec90604401602060405180830381865afa158015611075573d6000803e3d6000fd5b505050506040513d601f19601f82011682018060405250810190611099919061264d565b9050838110156110d957600254604051634390211d60e11b81526001600160a01b03909116600482015260248101829052604481018590526064016108cc565b60075460008054604051632c54de4f60e01b815291926001600160a01b03610100909104811692632c54de4f9261111a921690339030908e90600401612666565b6020604051808303816000875af1158015611139573d6000803e3d6000fd5b505050506040513d601f19601f8201168201806040525081019061115d919061233e565b90508060070b600014611192576000546040516353b9365760e01b81526108cc916001600160a01b0316908390600401612359565b60408051600080825260208201909252816111bd565b60608152602001906001900390816111a85790505b50600754600080546040516379fe3b7d60e11b815293945090926001600160a01b0361010090930483169263f3fc76fa92611201929116908e908790600401612690565b6020604051808303816000875af1158015611220573d6000803e3d6000fd5b505050506040513d601f19601f82011682018060405250810190611244919061233e565b90508060070b60001461127957600054604051630272bce360e21b81526108cc916001600160a01b0316908390600401612359565b600754600154604051632c54de4f60e01b815260009261010090046001600160a01b0390811692632c54de4f926112bc9290911690309033908f90600401612666565b6020604051808303816000875af11580156112db573d6000803e3d6000fd5b505050506040513d601f19601f820116820180604052508101906112ff919061233e565b90508060070b600014611334576001546040516353b9365760e01b81526108cc916001600160a01b0316908390600401612359565b600754600254604051632c54de4f60e01b815260009261010090046001600160a01b0390811692632c54de4f926113779290911690309033908f90600401612666565b6020604051808303816000875af1158015611396573d6000803e3d6000fd5b505050506040513d601f19601f820116820180604052508101906113ba919061233e565b90508060070b6000146113ef576002546040516353b9365760e01b81526108cc916001600160a01b0316908390600401612359565b60405160009033908d908381818185875af1925050503d8060008114611431576040519150601f19603f3d011682016040523d82523d6000602084013e611436565b606091505b5050905080611458576040516378bd738360e11b815260040160405180910390fd5b604080518e8152602081018e90529081018c9052606081018b905233907f0a99e3ea632fcdc816b71d0e418dc65b991272ad5bbdd78f5ccf117bfe076b419060800160405180910390a250505050505050505050505050565b6003546001600160a01b031633146114dc57604051634755657960e01b815260040160405180910390fd5b600780546001600160a01b0390921661010002610100600160a81b0319909216919091179055565b60075460015460405163927da10560e01b8152600092839283926001600160a01b0361010090930483169263927da105926115489291169088903090600401612304565b602060405180830381865afa158015611565573d6000803e3d6000fd5b505050506040513d601f19601f82011682018060405250810190611589919061264d565b60075460025460405163927da10560e01b81529295506001600160a01b0361010090920482169263927da105926115c892169088903090600401612304565b602060405180830381865afa1580156115e5573d6000803e3d6000fd5b505050506040513d601f19601f82011682018060405250810190611609919061264d565b60075460005460405163927da10560e01b81529294506001600160a01b0361010090920482169263927da1059261164892169088903090600401612304565b602060405180830381865afa158015611665573d6000803e3d6000fd5b505050506040513d601f19601f82011682018060405250810190611689919061264d565b929491935050565b6000600454826116a19190612628565b92915050565b60075460ff166116ca5760405163b291599960e01b815260040160405180910390fd5b806000036116eb5760405163162908e360e11b815260040160405180910390fd5b6000600454826116fb9190612628565b905060006006548361170d9190612628565b90508134146117385760405163613f8e2f60e11b8152346004820152602481018390526044016108cc565b60075460025460405163927da10560e01b815260009261010090046001600160a01b039081169263927da10592611779929091169033903090600401612304565b602060405180830381865afa158015611796573d6000803e3d6000fd5b505050506040513d601f19601f820116820180604052508101906117ba919061264d565b9050818110156117e7576040516303ab67df60e01b815260048101829052602481018390526044016108cc565b50505050565b6003546001600160a01b0316331461181857604051634755657960e01b815260040160405180910390fd5b6000546001600160a01b03161561186a5760405162461bcd60e51b815260206004820152601660248201527513165396081d1bdad95b88185b1c9958591e481cd95d60521b60448201526064016108cc565b6001600160a01b0381166118c05760405162461bcd60e51b815260206004820152601a60248201527f43616e6e6f742073657420746f207a65726f206164647265737300000000000060448201526064016108cc565b600080546001600160a01b0319166001600160a01b0383161790556118e3612037565b6040516001600160a01b038216907f9d3f9bc754b67aecb97c012ccc6e3bca03a800d329b1caa33d2549b2945648fb90600090a250565b6000600654826116a19190612628565b60075460ff1661194d5760405163b291599960e01b815260040160405180910390fd5b8060000361196e5760405163162908e360e11b815260040160405180910390fd5b60006004548261197e9190612628565b90506000600554836119909190612628565b90506000600654846119a29190612628565b90508234146119cd5760405163613f8e2f60e11b8152346004820152602481018490526044016108cc565b60075460015460405163927da10560e01b815260009261010090046001600160a01b039081169263927da10592611a0e929091169033903090600401612304565b602060405180830381865afa158015611a2b573d6000803e3d6000fd5b505050506040513d601f19601f82011682018060405250810190611a4f919061264d565b905082811015611a7c57604051636dc9c10b60e01b815260048101829052602481018490526044016108cc565b60075460025460405163927da10560e01b815260009261010090046001600160a01b039081169263927da10592611abd929091169033903090600401612304565b602060405180830381865afa158015611ada573d6000803e3d6000fd5b505050506040513d601f19601f82011682018060405250810190611afe919061264d565b905082811015611b2b576040516303ab67df60e01b815260048101829052602481018490526044016108cc565b600754600154604051632c54de4f60e01b815260009261010090046001600160a01b0390811692632c54de4f92611b6e9290911690339030908b90600401612666565b6020604051808303816000875af1158015611b8d573d6000803e3d6000fd5b505050506040513d601f19601f82011682018060405250810190611bb1919061233e565b90508060070b600014611be6576001546040516353b9365760e01b81526108cc916001600160a01b0316908390600401612359565b600754600254604051632c54de4f60e01b815260009261010090046001600160a01b0390811692632c54de4f92611c299290911690339030908b90600401612666565b6020604051808303816000875af1158015611c48573d6000803e3d6000fd5b505050506040513d601f19601f82011682018060405250810190611c6c919061233e565b90508060070b600014611ca1576002546040516353b9365760e01b81526108cc916001600160a01b0316908390600401612359565b6040805160008082526020820190925281611ccc565b6060815260200190600190039081611cb75790505b50600754600080546040516376096e0160e11b815293945090926001600160a01b0361010090930483169263ec12dc0292611d10929116908e908790600401612690565b6020604051808303816000875af1158015611d2f573d6000803e3d6000fd5b505050506040513d601f19601f82011682018060405250810190611d53919061233e565b90508060070b600014611d88576000546040516325056c4d60e21b81526108cc916001600160a01b0316908390600401612359565b6000600760019054906101000a90046001600160a01b03166001600160a01b0316632c54de4f60008054906101000a90046001600160a01b031630338f6040518563ffffffff1660e01b8152600401611de49493929190612666565b6020604051808303816000875af1158015611e03573d6000803e3d6000fd5b505050506040513d601f19601f82011682018060405250810190611e27919061233e565b90508060070b600014611e5c576000546040516353b9365760e01b81526108cc916001600160a01b0316908390600401612359565b604080518c8152602081018c90529081018a90526060810189905233907fc8692244b89e2a7e07e1d9ea03612e5d30118c61dd11d7e664e945287a3ce61b9060800160405180910390a25050505050505050505050565b60008060008060008060055487611eca9190612628565b935060065487611eda9190612628565b60075460015460405163927da10560e01b81529295506001600160a01b0361010090920482169263927da10592611f199216908c903090600401612304565b602060405180830381865afa158015611f36573d6000803e3d6000fd5b505050506040513d601f19601f82011682018060405250810190611f5a919061264d565b60075460025460405163927da10560e01b81529298506001600160a01b0361010090920482169263927da10592611f999216908c903090600401612304565b602060405180830381865afa158015611fb6573d6000803e3d6000fd5b505050506040513d601f19601f82011682018060405250810190611fda919061264d565b94508386101591508285101590509295509295509295565b6003546001600160a01b0316331461201d57604051634755657960e01b815260040160405180910390fd5b612025612037565b565b6000600554826116a19190612628565b6000546001600160a01b0316612088576007805460ff19169055604051600081527f40a36e95e1165e03b5c30095cd9d1e9fa9d8aa98d06aa1d6432a77718c0b68f0906020015b60405180910390a1565b600754600054604051632e1a634560e11b81526001600160a01b0391821660048201523060248201526101009092041690635c34c68a90604401602060405180830381865afa1580156120df573d6000803e3d6000fd5b505050506040513d601f19601f820116820180604052508101906121039190612709565b6007805460ff1916911515918217905560405160ff909116151581527f40a36e95e1165e03b5c30095cd9d1e9fa9d8aa98d06aa1d6432a77718c0b68f09060200161207e565b60008083601f84011261215b57600080fd5b50813567ffffffffffffffff81111561217357600080fd5b60208301915083602082850101111561218b57600080fd5b9250929050565b600080600080600080606087890312156121ab57600080fd5b863567ffffffffffffffff808211156121c357600080fd5b6121cf8a838b01612149565b909850965060208901359150808211156121e857600080fd5b6121f48a838b01612149565b9096509450604089013591508082111561220d57600080fd5b5061221a89828a01612149565b979a9699509497509295939492505050565b60008060006060848603121561224157600080fd5b505081359360208301359350604090920135919050565b801515811461226657600080fd5b50565b60006020828403121561227b57600080fd5b813561228681612258565b9392505050565b60006020828403121561229f57600080fd5b5035919050565b6001600160a01b038116811461226657600080fd5b6000602082840312156122cd57600080fd5b8135612286816122a6565b600080604083850312156122eb57600080fd5b82356122f6816122a6565b946020939093013593505050565b6001600160a01b0393841681529183166020830152909116604082015260600190565b8051600781900b811461233957600080fd5b919050565b60006020828403121561235057600080fd5b61228682612327565b6001600160a01b0392909216825260070b602082015260400190565b634e487b7160e01b600052603260045260246000fd5b6000815180845260005b818110156123b157602081850181015186830182015201612395565b506000602082860101526020601f19601f83011685010191505092915050565b600081518084526020808501945080840160005b8381101561240a5781516001600160a01b0316875295820195908201906001016123e5565b509495945050505050565b600081518084526020808501945080840160005b8381101561240a57815160ff1687529582019590820190600101612429565b60808152600085516101a080608085015261246761022085018361238b565b91506020880151607f19808685030160a0870152612485848361238b565b935060408a015191506124a360c08701836001600160a01b03169052565b60608a01519150808685030160e08701526124be848361238b565b935060808a015191506101006124d78188018415159052565b60a08b015192506101206124f28189018563ffffffff169052565b60c08c01519350610140612509818a018615159052565b60e08d01519450610160848a890301818b015261252688876123d1565b9750838e015195506101809350848a890301848b015261254688876123d1565b9750828e01519550848a890301878b015261256188876123d1565b9750818e01519650848a8903016101c08b015261257e88886123d1565b9750808e0151965050505081878603016101e088015261259e85856123d1565b9450808b015193505050506125b961020085018260ff169052565b5085602084015282810360408401526125d28186612415565b905082810360608401526125e681856123d1565b979650505050505050565b6000806040838503121561260457600080fd5b61260d83612327565b9150602083015161261d816122a6565b809150509250929050565b80820281158282048414176116a157634e487b7160e01b600052601160045260246000fd5b60006020828403121561265f57600080fd5b5051919050565b6001600160a01b039485168152928416602084015292166040820152606081019190915260800190565b60006060820160018060a01b0386168352602085818501526060604085015281855180845260808601915060808160051b870101935082870160005b828110156126fa57607f198887030184526126e886835161238b565b955092840192908401906001016126cc565b50939998505050505050505050565b60006020828403121561271b57600080fd5b81516122868161225856fea2646970667358221220bc7950ec5fadedd9b4f925bee8f09183d860dfa366798c0a5311d9684ea8794164736f6c63430008140033","opcodes":"PUSH1 0x80 PUSH1 0x40 MSTORE PUSH1 0xA PUSH1 0x4 SSTORE PUSH1 0x5 DUP1 SSTORE PUSH1 0x2 PUSH1 0x6 SSTORE PUSH1 0x7 DUP1 SLOAD PUSH1 0xFF NOT AND SWAP1 SSTORE CALLVALUE DUP1 ISZERO PUSH3 0x29 JUMPI PUSH1 0x0 DUP1 REVERT JUMPDEST POP PUSH1 0x40 MLOAD PUSH3 0x2955 CODESIZE SUB DUP1 PUSH3 0x2955 DUP4 CODECOPY DUP2 ADD PUSH1 0x40 DUP2 SWAP1 MSTORE PUSH3 0x4C SWAP2 PUSH3 0x174 JUMP JUMPDEST PUSH1 0x7 DUP1 SLOAD PUSH3 0x16700 PUSH2 0x100 PUSH1 0x1 PUSH1 0xA8 SHL SUB NOT SWAP1 SWAP2 AND OR SWAP1 SSTORE PUSH1 0x0 DUP1 SLOAD PUSH1 0x1 PUSH1 0x1 PUSH1 0xA0 SHL SUB DUP6 DUP2 AND PUSH1 0x1 PUSH1 0x1 PUSH1 0xA0 SHL SUB NOT SWAP3 DUP4 AND DUP2 OR SWAP1 SWAP4 SSTORE PUSH1 0x1 DUP1 SLOAD DUP7 DUP4 AND SWAP1 DUP5 AND OR SWAP1 SSTORE PUSH1 0x2 DUP1 SLOAD SWAP2 DUP6 AND SWAP2 DUP4 AND SWAP2 SWAP1 SWAP2 OR SWAP1 SSTORE PUSH1 0x3 DUP1 SLOAD SWAP1 SWAP2 AND CALLER OR SWAP1 SSTORE ISZERO PUSH3 0x14E JUMPI PUSH1 0x7 SLOAD PUSH1 0x40 MLOAD PUSH4 0x2E1A6345 PUSH1 0xE1 SHL DUP2 MSTORE PUSH1 0x1 PUSH1 0x1 PUSH1 0xA0 SHL SUB DUP6 DUP2 AND PUSH1 0x4 DUP4 ADD MSTORE ADDRESS PUSH1 0x24 DUP4 ADD MSTORE PUSH2 0x100 SWAP1 SWAP3 DIV SWAP1 SWAP2 AND SWAP1 PUSH4 0x5C34C68A SWAP1 PUSH1 0x44 ADD PUSH1 0x20 PUSH1 0x40 MLOAD DUP1 DUP4 SUB DUP2 DUP7 GAS STATICCALL SWAP3 POP POP POP DUP1 ISZERO PUSH3 0x127 JUMPI POP PUSH1 0x40 DUP1 MLOAD PUSH1 0x1F RETURNDATASIZE SWAP1 DUP2 ADD PUSH1 0x1F NOT AND DUP3 ADD SWAP1 SWAP3 MSTORE PUSH3 0x124 SWAP2 DUP2 ADD SWAP1 PUSH3 0x1BE JUMP JUMPDEST PUSH1 0x1 JUMPDEST PUSH3 0x13C JUMPI PUSH1 0x7 DUP1 SLOAD PUSH1 0xFF NOT AND SWAP1 SSTORE PUSH3 0x14E JUMP JUMPDEST PUSH1 0x7 DUP1 SLOAD PUSH1 0xFF NOT AND SWAP2 ISZERO ISZERO SWAP2 SWAP1 SWAP2 OR SWAP1 SSTORE JUMPDEST POP POP POP PUSH3 0x1E9 JUMP JUMPDEST DUP1 MLOAD PUSH1 0x1 PUSH1 0x1 PUSH1 0xA0 SHL SUB DUP2 AND DUP2 EQ PUSH3 0x16F JUMPI PUSH1 0x0 DUP1 REVERT JUMPDEST SWAP2 SWAP1 POP JUMP JUMPDEST PUSH1 0x0 DUP1 PUSH1 0x0 PUSH1 0x60 DUP5 DUP7 SUB SLT ISZERO PUSH3 0x18A JUMPI PUSH1 0x0 DUP1 REVERT JUMPDEST PUSH3 0x195 DUP5 PUSH3 0x157 JUMP JUMPDEST SWAP3 POP PUSH3 0x1A5 PUSH1 0x20 DUP6 ADD PUSH3 0x157 JUMP JUMPDEST SWAP2 POP PUSH3 0x1B5 PUSH1 0x40 DUP6 ADD PUSH3 0x157 JUMP JUMPDEST SWAP1 POP SWAP3 POP SWAP3 POP SWAP3 JUMP JUMPDEST PUSH1 0x0 PUSH1 0x20 DUP3 DUP5 SUB SLT ISZERO PUSH3 0x1D1 JUMPI PUSH1 0x0 DUP1 REVERT JUMPDEST DUP2 MLOAD DUP1 ISZERO ISZERO DUP2 EQ PUSH3 0x1E2 JUMPI PUSH1 0x0 DUP1 REVERT JUMPDEST SWAP4 SWAP3 POP POP POP JUMP JUMPDEST PUSH2 0x275C DUP1 PUSH3 0x1F9 PUSH1 0x0 CODECOPY PUSH1 0x0 RETURN INVALID PUSH1 0x80 PUSH1 0x40 MSTORE PUSH1 0x4 CALLDATASIZE LT PUSH2 0x1CF JUMPI PUSH1 0x0 CALLDATALOAD PUSH1 0xE0 SHR DUP1 PUSH4 0x739036B2 GT PUSH2 0xF6 JUMPI DUP1 PUSH4 0xB0E4FE4F GT PUSH2 0x8F JUMPI DUP1 PUSH4 0xE1E99576 GT PUSH2 0x61 JUMPI DUP1 PUSH4 0xE1E99576 EQ PUSH2 0x570 JUMPI DUP1 PUSH4 0xE294204D EQ PUSH2 0x590 JUMPI DUP1 PUSH4 0xEE8C24B8 EQ PUSH2 0x5A5 JUMPI DUP1 PUSH4 0xEF037593 EQ PUSH2 0x5D8 JUMPI STOP JUMPDEST DUP1 PUSH4 0xB0E4FE4F EQ PUSH2 0x4D5 JUMPI DUP1 PUSH4 0xC2F4BFAF EQ PUSH2 0x526 JUMPI DUP1 PUSH4 0xCAB21A6A EQ PUSH2 0x53B JUMPI DUP1 PUSH4 0xDE579BC9 EQ PUSH2 0x55B JUMPI STOP JUMPDEST DUP1 PUSH4 0x8EE2C4B8 GT PUSH2 0xC8 JUMPI DUP1 PUSH4 0x8EE2C4B8 EQ PUSH2 0x463 JUMPI DUP1 PUSH4 0x9057BB4A EQ PUSH2 0x48D JUMPI DUP1 PUSH4 0x92361927 EQ PUSH2 0x4A2 JUMPI DUP1 PUSH4 0xA0712D68 EQ PUSH2 0x4C2 JUMPI STOP JUMPDEST DUP1 PUSH4 0x739036B2 EQ PUSH2 0x403 JUMPI DUP1 PUSH4 0x853F51AD EQ PUSH2 0x418 JUMPI DUP1 PUSH4 0x85CB42D4 EQ PUSH2 0x42D JUMPI DUP1 PUSH4 0x8D6BE540 EQ PUSH2 0x44D JUMPI STOP JUMPDEST DUP1 PUSH4 0x42966C68 GT PUSH2 0x168 JUMPI DUP1 PUSH4 0x539E803F GT PUSH2 0x13A JUMPI DUP1 PUSH4 0x539E803F EQ PUSH2 0x36E JUMPI DUP1 PUSH4 0x5B7F415C EQ PUSH2 0x3A9 JUMPI DUP1 PUSH4 0x6461E01A EQ PUSH2 0x3D0 JUMPI DUP1 PUSH4 0x702C3C24 EQ PUSH2 0x3F0 JUMPI STOP JUMPDEST DUP1 PUSH4 0x42966C68 EQ PUSH2 0x2F4 JUMPI DUP1 PUSH4 0x4543873D EQ PUSH2 0x314 JUMPI DUP1 PUSH4 0x4924190C EQ PUSH2 0x32A JUMPI DUP1 PUSH4 0x4BB3C9CF EQ PUSH2 0x34E JUMPI STOP JUMPDEST DUP1 PUSH4 0x2A0ACC6A GT PUSH2 0x1A1 JUMPI DUP1 PUSH4 0x2A0ACC6A EQ PUSH2 0x26A JUMPI DUP1 PUSH4 0x30D0A66C EQ PUSH2 0x28A JUMPI DUP1 PUSH4 0x331A4C20 EQ PUSH2 0x2AA JUMPI DUP1 PUSH4 0x335C3FE8 EQ PUSH2 0x2D4 JUMPI STOP JUMPDEST DUP1 PUSH4 0x10CA0BCE EQ PUSH2 0x1D8 JUMPI DUP1 PUSH4 0x1D12E296 EQ PUSH2 0x1ED JUMPI DUP1 PUSH4 0x1DA965C2 EQ PUSH2 0x20D JUMPI DUP1 PUSH4 0x1EC65C36 EQ PUSH2 0x24A JUMPI STOP JUMPDEST CALLDATASIZE PUSH2 0x1D6 JUMPI STOP JUMPDEST STOP JUMPDEST CALLVALUE DUP1 ISZERO PUSH2 0x1E4 JUMPI PUSH1 0x0 DUP1 REVERT JUMPDEST POP PUSH2 0x1D6 PUSH2 0x5EE JUMP JUMPDEST CALLVALUE DUP1 ISZERO PUSH2 0x1F9 JUMPI PUSH1 0x0 DUP1 REVERT JUMPDEST POP PUSH2 0x1D6 PUSH2 0x208 CALLDATASIZE PUSH1 0x4 PUSH2 0x2192 JUMP JUMPDEST PUSH2 0x84C JUMP JUMPDEST CALLVALUE DUP1 ISZERO PUSH2 0x219 JUMPI PUSH1 0x0 DUP1 REVERT JUMPDEST POP PUSH1 0x2 SLOAD PUSH2 0x22D SWAP1 PUSH1 0x1 PUSH1 0x1 PUSH1 0xA0 SHL SUB AND DUP2 JUMP JUMPDEST PUSH1 0x40 MLOAD PUSH1 0x1 PUSH1 0x1 PUSH1 0xA0 SHL SUB SWAP1 SWAP2 AND DUP2 MSTORE PUSH1 0x20 ADD JUMPDEST PUSH1 0x40 MLOAD DUP1 SWAP2 SUB SWAP1 RETURN JUMPDEST CALLVALUE DUP1 ISZERO PUSH2 0x256 JUMPI PUSH1 0x0 DUP1 REVERT JUMPDEST POP PUSH1 0x1 SLOAD PUSH2 0x22D SWAP1 PUSH1 0x1 PUSH1 0x1 PUSH1 0xA0 SHL SUB AND DUP2 JUMP JUMPDEST CALLVALUE DUP1 ISZERO PUSH2 0x276 JUMPI PUSH1 0x0 DUP1 REVERT JUMPDEST POP PUSH1 0x3 SLOAD PUSH2 0x22D SWAP1 PUSH1 0x1 PUSH1 0x1 PUSH1 0xA0 SHL SUB AND DUP2 JUMP JUMPDEST CALLVALUE DUP1 ISZERO PUSH2 0x296 JUMPI PUSH1 0x0 DUP1 REVERT JUMPDEST POP PUSH2 0x1D6 PUSH2 0x2A5 CALLDATASIZE PUSH1 0x4 PUSH2 0x222C JUMP JUMPDEST PUSH2 0xD17 JUMP JUMPDEST CALLVALUE DUP1 ISZERO PUSH2 0x2B6 JUMPI PUSH1 0x0 DUP1 REVERT JUMPDEST POP PUSH1 0x7 SLOAD PUSH2 0x2C4 SWAP1 PUSH1 0xFF AND DUP2 JUMP JUMPDEST PUSH1 0x40 MLOAD SWAP1 ISZERO ISZERO DUP2 MSTORE PUSH1 0x20 ADD PUSH2 0x241 JUMP JUMPDEST CALLVALUE DUP1 ISZERO PUSH2 0x2E0 JUMPI PUSH1 0x0 DUP1 REVERT JUMPDEST POP PUSH2 0x1D6 PUSH2 0x2EF CALLDATASIZE PUSH1 0x4 PUSH2 0x2269 JUMP JUMPDEST PUSH2 0xD8F JUMP JUMPDEST CALLVALUE DUP1 ISZERO PUSH2 0x300 JUMPI PUSH1 0x0 DUP1 REVERT JUMPDEST POP PUSH2 0x1D6 PUSH2 0x30F CALLDATASIZE PUSH1 0x4 PUSH2 0x228D JUMP JUMPDEST PUSH2 0xE01 JUMP JUMPDEST CALLVALUE DUP1 ISZERO PUSH2 0x320 JUMPI PUSH1 0x0 DUP1 REVERT JUMPDEST POP PUSH2 0x22D PUSH2 0x167 DUP2 JUMP JUMPDEST CALLVALUE DUP1 ISZERO PUSH2 0x336 JUMPI PUSH1 0x0 DUP1 REVERT JUMPDEST POP PUSH2 0x340 PUSH1 0x4 SLOAD DUP2 JUMP JUMPDEST PUSH1 0x40 MLOAD SWAP1 DUP2 MSTORE PUSH1 0x20 ADD PUSH2 0x241 JUMP JUMPDEST CALLVALUE DUP1 ISZERO PUSH2 0x35A JUMPI PUSH1 0x0 DUP1 REVERT JUMPDEST POP PUSH2 0x1D6 PUSH2 0x369 CALLDATASIZE PUSH1 0x4 PUSH2 0x22BB JUMP JUMPDEST PUSH2 0x14B1 JUMP JUMPDEST CALLVALUE DUP1 ISZERO PUSH2 0x37A JUMPI PUSH1 0x0 DUP1 REVERT JUMPDEST POP PUSH2 0x38E PUSH2 0x389 CALLDATASIZE PUSH1 0x4 PUSH2 0x22BB JUMP JUMPDEST PUSH2 0x1504 JUMP JUMPDEST PUSH1 0x40 DUP1 MLOAD SWAP4 DUP5 MSTORE PUSH1 0x20 DUP5 ADD SWAP3 SWAP1 SWAP3 MSTORE SWAP1 DUP3 ADD MSTORE PUSH1 0x60 ADD PUSH2 0x241 JUMP JUMPDEST CALLVALUE DUP1 ISZERO PUSH2 0x3B5 JUMPI PUSH1 0x0 DUP1 REVERT JUMPDEST POP PUSH2 0x3BE PUSH1 0x8 DUP2 JUMP JUMPDEST PUSH1 0x40 MLOAD PUSH1 0xFF SWAP1 SWAP2 AND DUP2 MSTORE PUSH1 0x20 ADD PUSH2 0x241 JUMP JUMPDEST CALLVALUE DUP1 ISZERO PUSH2 0x3DC JUMPI PUSH1 0x0 DUP1 REVERT JUMPDEST POP PUSH2 0x340 PUSH2 0x3EB CALLDATASIZE PUSH1 0x4 PUSH2 0x228D JUMP JUMPDEST PUSH2 0x1691 JUMP JUMPDEST PUSH2 0x1D6 PUSH2 0x3FE CALLDATASIZE PUSH1 0x4 PUSH2 0x228D JUMP JUMPDEST PUSH2 0x16A7 JUMP JUMPDEST CALLVALUE DUP1 ISZERO PUSH2 0x40F JUMPI PUSH1 0x0 DUP1 REVERT JUMPDEST POP PUSH1 0x4 SLOAD PUSH2 0x340 JUMP JUMPDEST CALLVALUE DUP1 ISZERO PUSH2 0x424 JUMPI PUSH1 0x0 DUP1 REVERT JUMPDEST POP PUSH1 0x6 SLOAD PUSH2 0x340 JUMP JUMPDEST CALLVALUE DUP1 ISZERO PUSH2 0x439 JUMPI PUSH1 0x0 DUP1 REVERT JUMPDEST POP PUSH2 0x1D6 PUSH2 0x448 CALLDATASIZE PUSH1 0x4 PUSH2 0x22BB JUMP JUMPDEST PUSH2 0x17ED JUMP JUMPDEST CALLVALUE DUP1 ISZERO PUSH2 0x459 JUMPI PUSH1 0x0 DUP1 REVERT JUMPDEST POP PUSH2 0x340 PUSH1 0x6 SLOAD DUP2 JUMP JUMPDEST CALLVALUE DUP1 ISZERO PUSH2 0x46F JUMPI PUSH1 0x0 DUP1 REVERT JUMPDEST POP PUSH2 0x478 PUSH1 0x0 DUP2 JUMP JUMPDEST PUSH1 0x40 MLOAD PUSH4 0xFFFFFFFF SWAP1 SWAP2 AND DUP2 MSTORE PUSH1 0x20 ADD PUSH2 0x241 JUMP JUMPDEST CALLVALUE DUP1 ISZERO PUSH2 0x499 JUMPI PUSH1 0x0 DUP1 REVERT JUMPDEST POP PUSH1 0x5 SLOAD PUSH2 0x340 JUMP JUMPDEST CALLVALUE DUP1 ISZERO PUSH2 0x4AE JUMPI PUSH1 0x0 DUP1 REVERT JUMPDEST POP PUSH2 0x340 PUSH2 0x4BD CALLDATASIZE PUSH1 0x4 PUSH2 0x228D JUMP JUMPDEST PUSH2 0x191A JUMP JUMPDEST PUSH2 0x1D6 PUSH2 0x4D0 CALLDATASIZE PUSH1 0x4 PUSH2 0x228D JUMP JUMPDEST PUSH2 0x192A JUMP JUMPDEST CALLVALUE DUP1 ISZERO PUSH2 0x4E1 JUMPI PUSH1 0x0 DUP1 REVERT JUMPDEST POP PUSH2 0x4F5 PUSH2 0x4F0 CALLDATASIZE PUSH1 0x4 PUSH2 0x22D8 JUMP JUMPDEST PUSH2 0x1EB3 JUMP JUMPDEST PUSH1 0x40 DUP1 MLOAD SWAP7 DUP8 MSTORE PUSH1 0x20 DUP8 ADD SWAP6 SWAP1 SWAP6 MSTORE SWAP4 DUP6 ADD SWAP3 SWAP1 SWAP3 MSTORE PUSH1 0x60 DUP5 ADD MSTORE ISZERO ISZERO PUSH1 0x80 DUP4 ADD MSTORE ISZERO ISZERO PUSH1 0xA0 DUP3 ADD MSTORE PUSH1 0xC0 ADD PUSH2 0x241 JUMP JUMPDEST CALLVALUE DUP1 ISZERO PUSH2 0x532 JUMPI PUSH1 0x0 DUP1 REVERT JUMPDEST POP PUSH2 0x1D6 PUSH2 0x1FF2 JUMP JUMPDEST CALLVALUE DUP1 ISZERO PUSH2 0x547 JUMPI PUSH1 0x0 DUP1 REVERT JUMPDEST POP PUSH2 0x340 PUSH2 0x556 CALLDATASIZE PUSH1 0x4 PUSH2 0x228D JUMP JUMPDEST PUSH2 0x2027 JUMP JUMPDEST CALLVALUE DUP1 ISZERO PUSH2 0x567 JUMPI PUSH1 0x0 DUP1 REVERT JUMPDEST POP PUSH2 0x1D6 PUSH2 0x2037 JUMP JUMPDEST CALLVALUE DUP1 ISZERO PUSH2 0x57C JUMPI PUSH1 0x0 DUP1 REVERT JUMPDEST POP PUSH1 0x0 SLOAD PUSH2 0x22D SWAP1 PUSH1 0x1 PUSH1 0x1 PUSH1 0xA0 SHL SUB AND DUP2 JUMP JUMPDEST CALLVALUE DUP1 ISZERO PUSH2 0x59C JUMPI PUSH1 0x0 DUP1 REVERT JUMPDEST POP PUSH2 0x2C4 PUSH1 0x1 DUP2 JUMP JUMPDEST CALLVALUE DUP1 ISZERO PUSH2 0x5B1 JUMPI PUSH1 0x0 DUP1 REVERT JUMPDEST POP PUSH1 0x0 SLOAD PUSH1 0x1 SLOAD PUSH1 0x2 SLOAD PUSH1 0x40 MLOAD PUSH2 0x241 SWAP4 PUSH1 0x1 PUSH1 0x1 PUSH1 0xA0 SHL SUB SWAP1 DUP2 AND SWAP4 DUP2 AND SWAP3 AND SWAP1 PUSH2 0x2304 JUMP JUMPDEST CALLVALUE DUP1 ISZERO PUSH2 0x5E4 JUMPI PUSH1 0x0 DUP1 REVERT JUMPDEST POP PUSH2 0x340 PUSH1 0x5 SLOAD DUP2 JUMP JUMPDEST PUSH1 0x7 SLOAD PUSH1 0x0 DUP1 SLOAD PUSH1 0x40 MLOAD PUSH4 0x248A35EF PUSH1 0xE1 SHL DUP2 MSTORE ADDRESS PUSH1 0x4 DUP3 ADD MSTORE PUSH1 0x1 PUSH1 0x1 PUSH1 0xA0 SHL SUB SWAP2 DUP3 AND PUSH1 0x24 DUP3 ADD MSTORE SWAP2 SWAP3 PUSH2 0x100 SWAP1 DIV AND SWAP1 PUSH4 0x49146BDE SWAP1 PUSH1 0x44 ADD PUSH1 0x20 PUSH1 0x40 MLOAD DUP1 DUP4 SUB DUP2 PUSH1 0x0 DUP8 GAS CALL ISZERO DUP1 ISZERO PUSH2 0x649 JUMPI RETURNDATASIZE PUSH1 0x0 DUP1 RETURNDATACOPY RETURNDATASIZE PUSH1 0x0 REVERT JUMPDEST POP POP POP POP PUSH1 0x40 MLOAD RETURNDATASIZE PUSH1 0x1F NOT PUSH1 0x1F DUP3 ADD AND DUP3 ADD DUP1 PUSH1 0x40 MSTORE POP DUP2 ADD SWAP1 PUSH2 0x66D SWAP2 SWAP1 PUSH2 0x233E JUMP JUMPDEST PUSH1 0x0 SLOAD PUSH1 0x40 MLOAD SWAP2 SWAP3 POP PUSH32 0x6C452A6A0F6C8613BD46D4BD9A6192B0904A3F33A64C294BA553582502DFD770 SWAP2 PUSH2 0x6AD SWAP2 PUSH1 0x1 PUSH1 0x1 PUSH1 0xA0 SHL SUB AND SWAP1 DUP5 SWAP1 PUSH2 0x2359 JUMP JUMPDEST PUSH1 0x40 MLOAD DUP1 SWAP2 SUB SWAP1 LOG1 PUSH1 0x7 SLOAD PUSH1 0x1 SLOAD PUSH1 0x40 MLOAD PUSH4 0x248A35EF PUSH1 0xE1 SHL DUP2 MSTORE ADDRESS PUSH1 0x4 DUP3 ADD MSTORE PUSH1 0x1 PUSH1 0x1 PUSH1 0xA0 SHL SUB SWAP2 DUP3 AND PUSH1 0x24 DUP3 ADD MSTORE PUSH1 0x0 SWAP3 PUSH2 0x100 SWAP1 DIV SWAP1 SWAP2 AND SWAP1 PUSH4 0x49146BDE SWAP1 PUSH1 0x44 ADD PUSH1 0x20 PUSH1 0x40 MLOAD DUP1 DUP4 SUB DUP2 PUSH1 0x0 DUP8 GAS CALL ISZERO DUP1 ISZERO PUSH2 0x712 JUMPI RETURNDATASIZE PUSH1 0x0 DUP1 RETURNDATACOPY RETURNDATASIZE PUSH1 0x0 REVERT JUMPDEST POP POP POP POP PUSH1 0x40 MLOAD RETURNDATASIZE PUSH1 0x1F NOT PUSH1 0x1F DUP3 ADD AND DUP3 ADD DUP1 PUSH1 0x40 MSTORE POP DUP2 ADD SWAP1 PUSH2 0x736 SWAP2 SWAP1 PUSH2 0x233E JUMP JUMPDEST PUSH1 0x1 SLOAD PUSH1 0x40 MLOAD SWAP2 SWAP3 POP PUSH32 0x6C452A6A0F6C8613BD46D4BD9A6192B0904A3F33A64C294BA553582502DFD770 SWAP2 PUSH2 0x776 SWAP2 PUSH1 0x1 PUSH1 0x1 PUSH1 0xA0 SHL SUB AND SWAP1 DUP5 SWAP1 PUSH2 0x2359 JUMP JUMPDEST PUSH1 0x40 MLOAD DUP1 SWAP2 SUB SWAP1 LOG1 PUSH1 0x7 SLOAD PUSH1 0x2 SLOAD PUSH1 0x40 MLOAD PUSH4 0x248A35EF PUSH1 0xE1 SHL DUP2 MSTORE ADDRESS PUSH1 0x4 DUP3 ADD MSTORE PUSH1 0x1 PUSH1 0x1 PUSH1 0xA0 SHL SUB SWAP2 DUP3 AND PUSH1 0x24 DUP3 ADD MSTORE PUSH1 0x0 SWAP3 PUSH2 0x100 SWAP1 DIV SWAP1 SWAP2 AND SWAP1 PUSH4 0x49146BDE SWAP1 PUSH1 0x44 ADD PUSH1 0x20 PUSH1 0x40 MLOAD DUP1 DUP4 SUB DUP2 PUSH1 0x0 DUP8 GAS CALL ISZERO DUP1 ISZERO PUSH2 0x7DB JUMPI RETURNDATASIZE PUSH1 0x0 DUP1 RETURNDATACOPY RETURNDATASIZE PUSH1 0x0 REVERT JUMPDEST POP POP POP POP PUSH1 0x40 MLOAD RETURNDATASIZE PUSH1 0x1F NOT PUSH1 0x1F DUP3 ADD AND DUP3 ADD DUP1 PUSH1 0x40 MSTORE POP DUP2 ADD SWAP1 PUSH2 0x7FF SWAP2 SWAP1 PUSH2 0x233E JUMP JUMPDEST PUSH1 0x2 SLOAD PUSH1 0x40 MLOAD SWAP2 SWAP3 POP PUSH32 0x6C452A6A0F6C8613BD46D4BD9A6192B0904A3F33A64C294BA553582502DFD770 SWAP2 PUSH2 0x83F SWAP2 PUSH1 0x1 PUSH1 0x1 PUSH1 0xA0 SHL SUB AND SWAP1 DUP5 SWAP1 PUSH2 0x2359 JUMP JUMPDEST PUSH1 0x40 MLOAD DUP1 SWAP2 SUB SWAP1 LOG1 POP POP POP JUMP JUMPDEST PUSH1 0x3 SLOAD PUSH1 0x1 PUSH1 0x1 PUSH1 0xA0 SHL SUB AND CALLER EQ PUSH2 0x877 JUMPI PUSH1 0x40 MLOAD PUSH4 0x47556579 PUSH1 0xE0 SHL DUP2 MSTORE PUSH1 0x4 ADD PUSH1 0x40 MLOAD DUP1 SWAP2 SUB SWAP1 REVERT JUMPDEST PUSH1 0x0 SLOAD PUSH1 0x1 PUSH1 0x1 PUSH1 0xA0 SHL SUB AND ISZERO PUSH2 0x8D5 JUMPI PUSH1 0x40 MLOAD PUSH3 0x461BCD PUSH1 0xE5 SHL DUP2 MSTORE PUSH1 0x20 PUSH1 0x4 DUP3 ADD MSTORE PUSH1 0x19 PUSH1 0x24 DUP3 ADD MSTORE PUSH32 0x4C594E5820746F6B656E20616C72656164792065786973747300000000000000 PUSH1 0x44 DUP3 ADD MSTORE PUSH1 0x64 ADD JUMPDEST PUSH1 0x40 MLOAD DUP1 SWAP2 SUB SWAP1 REVERT JUMPDEST PUSH1 0x40 DUP1 MLOAD PUSH1 0x1 DUP1 DUP3 MSTORE DUP2 DUP4 ADD SWAP1 SWAP3 MSTORE PUSH1 0x0 SWAP2 PUSH1 0x20 DUP1 DUP4 ADD SWAP1 DUP1 CALLDATASIZE DUP4 CALLDATACOPY POP POP PUSH1 0x3 SLOAD DUP3 MLOAD SWAP3 SWAP4 POP PUSH1 0x1 PUSH1 0x1 PUSH1 0xA0 SHL SUB AND SWAP2 DUP4 SWAP2 POP PUSH1 0x0 SWAP1 PUSH2 0x917 JUMPI PUSH2 0x917 PUSH2 0x2375 JUMP JUMPDEST PUSH1 0x1 PUSH1 0x1 PUSH1 0xA0 SHL SUB SWAP3 SWAP1 SWAP3 AND PUSH1 0x20 SWAP3 DUP4 MUL SWAP2 SWAP1 SWAP2 ADD SWAP1 SWAP2 ADD MSTORE PUSH1 0x40 DUP1 MLOAD PUSH1 0x1 DUP1 DUP3 MSTORE DUP2 DUP4 ADD SWAP1 SWAP3 MSTORE PUSH1 0x0 SWAP2 DUP2 PUSH1 0x20 ADD PUSH1 0x20 DUP3 MUL DUP1 CALLDATASIZE DUP4 CALLDATACOPY ADD SWAP1 POP POP SWAP1 POP ADDRESS DUP2 PUSH1 0x0 DUP2 MLOAD DUP2 LT PUSH2 0x968 JUMPI PUSH2 0x968 PUSH2 0x2375 JUMP JUMPDEST PUSH1 0x1 PUSH1 0x1 PUSH1 0xA0 SHL SUB SWAP3 SWAP1 SWAP3 AND PUSH1 0x20 SWAP3 DUP4 MUL SWAP2 SWAP1 SWAP2 ADD DUP3 ADD MSTORE PUSH1 0x40 DUP1 MLOAD PUSH1 0x0 DUP1 DUP3 MSTORE PUSH2 0x1E0 PUSH1 0x1F DUP13 ADD DUP6 SWAP1 DIV DUP6 MUL DUP4 ADD DUP2 ADD SWAP1 SWAP4 MSTORE PUSH2 0x1C0 DUP3 ADD DUP12 DUP2 MSTORE SWAP2 SWAP4 SWAP1 SWAP3 SWAP1 DUP5 ADD SWAP2 DUP3 SWAP2 DUP14 SWAP1 DUP14 SWAP1 DUP2 SWAP1 DUP9 ADD DUP4 DUP3 DUP1 DUP3 DUP5 CALLDATACOPY PUSH1 0x0 SWAP3 ADD SWAP2 SWAP1 SWAP2 MSTORE POP POP POP SWAP1 DUP3 MSTORE POP PUSH1 0x40 DUP1 MLOAD PUSH1 0x20 PUSH1 0x1F DUP13 ADD DUP2 SWAP1 DIV DUP2 MUL DUP3 ADD DUP2 ADD SWAP1 SWAP3 MSTORE DUP11 DUP2 MSTORE SWAP2 DUP2 ADD SWAP2 SWAP1 DUP12 SWAP1 DUP12 SWAP1 DUP2 SWAP1 DUP5 ADD DUP4 DUP3 DUP1 DUP3 DUP5 CALLDATACOPY PUSH1 0x0 SWAP3 ADD SWAP2 SWAP1 SWAP2 MSTORE POP POP POP SWAP1 DUP3 MSTORE POP ADDRESS PUSH1 0x20 DUP1 DUP4 ADD SWAP2 SWAP1 SWAP2 MSTORE PUSH1 0x40 DUP1 MLOAD PUSH1 0x1F DUP11 ADD DUP4 SWAP1 DIV DUP4 MUL DUP2 ADD DUP4 ADD DUP3 MSTORE DUP10 DUP2 MSTORE SWAP3 ADD SWAP2 SWAP1 DUP10 SWAP1 DUP10 SWAP1 DUP2 SWAP1 DUP5 ADD DUP4 DUP3 DUP1 DUP3 DUP5 CALLDATACOPY PUSH1 0x0 SWAP3 ADD DUP3 SWAP1 MSTORE POP SWAP4 DUP6 MSTORE POP POP PUSH1 0x1 PUSH1 0x20 DUP5 ADD MSTORE POP PUSH1 0x40 DUP1 DUP4 ADD DUP3 SWAP1 MSTORE PUSH1 0x60 DUP1 DUP5 ADD DUP4 SWAP1 MSTORE PUSH1 0x80 DUP5 ADD DUP8 SWAP1 MSTORE PUSH1 0xA0 DUP5 ADD DUP8 SWAP1 MSTORE PUSH1 0xC0 DUP5 ADD DUP9 SWAP1 MSTORE PUSH1 0xE0 DUP5 ADD DUP10 SWAP1 MSTORE PUSH2 0x100 DUP5 ADD DUP8 SWAP1 MSTORE PUSH1 0x8 PUSH2 0x120 SWAP1 SWAP5 ADD SWAP4 SWAP1 SWAP4 MSTORE DUP1 MLOAD PUSH1 0x2 DUP1 DUP3 MSTORE SWAP4 DUP2 ADD SWAP1 SWAP2 MSTORE SWAP3 SWAP4 POP SWAP2 SWAP1 DUP2 PUSH1 0x20 ADD PUSH1 0x20 DUP3 MUL DUP1 CALLDATASIZE DUP4 CALLDATACOPY ADD SWAP1 POP POP SWAP1 POP PUSH1 0x1 DUP2 PUSH1 0x0 DUP2 MLOAD DUP2 LT PUSH2 0xAC6 JUMPI PUSH2 0xAC6 PUSH2 0x2375 JUMP JUMPDEST PUSH1 0x20 MUL PUSH1 0x20 ADD ADD SWAP1 PUSH1 0xFF AND SWAP1 DUP2 PUSH1 0xFF AND DUP2 MSTORE POP POP PUSH1 0x4 DUP2 PUSH1 0x1 DUP2 MLOAD DUP2 LT PUSH2 0xAEF JUMPI PUSH2 0xAEF PUSH2 0x2375 JUMP JUMPDEST PUSH1 0xFF SWAP3 SWAP1 SWAP3 AND PUSH1 0x20 SWAP3 DUP4 MUL SWAP2 SWAP1 SWAP2 ADD DUP3 ADD MSTORE PUSH1 0x40 DUP1 MLOAD PUSH1 0x2 DUP1 DUP3 MSTORE PUSH1 0x60 DUP3 ADD DUP4 MSTORE PUSH1 0x0 SWAP4 SWAP2 SWAP3 SWAP1 SWAP2 DUP4 ADD SWAP1 DUP1 CALLDATASIZE DUP4 CALLDATACOPY POP POP PUSH1 0x3 SLOAD DUP3 MLOAD SWAP3 SWAP4 POP PUSH1 0x1 PUSH1 0x1 PUSH1 0xA0 SHL SUB AND SWAP2 DUP4 SWAP2 POP PUSH1 0x0 SWAP1 PUSH2 0xB44 JUMPI PUSH2 0xB44 PUSH2 0x2375 JUMP JUMPDEST PUSH1 0x20 MUL PUSH1 0x20 ADD ADD SWAP1 PUSH1 0x1 PUSH1 0x1 PUSH1 0xA0 SHL SUB AND SWAP1 DUP2 PUSH1 0x1 PUSH1 0x1 PUSH1 0xA0 SHL SUB AND DUP2 MSTORE POP POP ADDRESS DUP2 PUSH1 0x1 DUP2 MLOAD DUP2 LT PUSH2 0xB78 JUMPI PUSH2 0xB78 PUSH2 0x2375 JUMP JUMPDEST PUSH1 0x1 PUSH1 0x1 PUSH1 0xA0 SHL SUB SWAP3 DUP4 AND PUSH1 0x20 SWAP2 DUP3 MUL SWAP3 SWAP1 SWAP3 ADD ADD MSTORE PUSH1 0x7 SLOAD PUSH1 0x40 MLOAD PUSH3 0xDB1065 PUSH1 0xE1 SHL DUP2 MSTORE PUSH1 0x0 SWAP3 DUP4 SWAP3 PUSH2 0x100 SWAP1 DIV AND SWAP1 PUSH4 0x1B620CA SWAP1 DUP4 SWAP1 PUSH2 0xBC5 SWAP1 DUP10 SWAP1 DUP4 SWAP1 DUP11 SWAP1 DUP11 SWAP1 PUSH1 0x4 ADD PUSH2 0x2448 JUMP JUMPDEST PUSH1 0x40 DUP1 MLOAD DUP1 DUP4 SUB DUP2 DUP6 DUP9 GAS CALL ISZERO DUP1 ISZERO PUSH2 0xBE2 JUMPI RETURNDATASIZE PUSH1 0x0 DUP1 RETURNDATACOPY RETURNDATASIZE PUSH1 0x0 REVERT JUMPDEST POP POP POP POP POP PUSH1 0x40 MLOAD RETURNDATASIZE PUSH1 0x1F NOT PUSH1 0x1F DUP3 ADD AND DUP3 ADD DUP1 PUSH1 0x40 MSTORE POP DUP2 ADD SWAP1 PUSH2 0xC07 SWAP2 SWAP1 PUSH2 0x25F1 JUMP JUMPDEST SWAP2 POP SWAP2 POP DUP2 PUSH1 0x7 SIGNEXTEND PUSH1 0x0 EQ PUSH2 0xC34 JUMPI PUSH1 0x40 MLOAD PUSH3 0x2A27BF PUSH1 0xE0 SHL DUP2 MSTORE PUSH1 0x7 DUP4 SWAP1 SIGNEXTEND PUSH1 0x4 DUP3 ADD MSTORE PUSH1 0x24 ADD PUSH2 0x8CC JUMP JUMPDEST PUSH1 0x0 DUP1 SLOAD PUSH1 0x1 PUSH1 0x1 PUSH1 0xA0 SHL SUB NOT AND PUSH1 0x1 PUSH1 0x1 PUSH1 0xA0 SHL SUB DUP4 DUP2 AND SWAP2 DUP3 OR DUP4 SSTORE PUSH1 0x7 SLOAD PUSH1 0x40 MLOAD PUSH4 0x248A35EF PUSH1 0xE1 SHL DUP2 MSTORE ADDRESS PUSH1 0x4 DUP3 ADD MSTORE PUSH1 0x24 DUP2 ADD SWAP4 SWAP1 SWAP4 MSTORE PUSH2 0x100 SWAP1 DIV AND SWAP1 PUSH4 0x49146BDE SWAP1 PUSH1 0x44 ADD PUSH1 0x20 PUSH1 0x40 MLOAD DUP1 DUP4 SUB DUP2 PUSH1 0x0 DUP8 GAS CALL ISZERO DUP1 ISZERO PUSH2 0xC9F JUMPI RETURNDATASIZE PUSH1 0x0 DUP1 RETURNDATACOPY RETURNDATASIZE PUSH1 0x0 REVERT JUMPDEST POP POP POP POP PUSH1 0x40 MLOAD RETURNDATASIZE PUSH1 0x1F NOT PUSH1 0x1F DUP3 ADD AND DUP3 ADD DUP1 PUSH1 0x40 MSTORE POP DUP2 ADD SWAP1 PUSH2 0xCC3 SWAP2 SWAP1 PUSH2 0x233E JUMP JUMPDEST SWAP1 POP PUSH2 0xCCD PUSH2 0x2037 JUMP JUMPDEST PUSH32 0x3C6983BEB442F69AB2BB278A324E9CC5184D0E8E3B8EACBD06DD6F157738420A DUP3 DUP5 PUSH1 0x40 MLOAD PUSH2 0xCFE SWAP3 SWAP2 SWAP1 PUSH2 0x2359 JUMP JUMPDEST PUSH1 0x40 MLOAD DUP1 SWAP2 SUB SWAP1 LOG1 POP POP POP POP POP POP POP POP POP POP POP POP POP POP POP JUMP JUMPDEST PUSH1 0x3 SLOAD PUSH1 0x1 PUSH1 0x1 PUSH1 0xA0 SHL SUB AND CALLER EQ PUSH2 0xD42 JUMPI PUSH1 0x40 MLOAD PUSH4 0x47556579 PUSH1 0xE0 SHL DUP2 MSTORE PUSH1 0x4 ADD PUSH1 0x40 MLOAD DUP1 SWAP2 SUB SWAP1 REVERT JUMPDEST PUSH1 0x4 DUP4 SWAP1 SSTORE PUSH1 0x5 DUP3 SWAP1 SSTORE PUSH1 0x6 DUP2 SWAP1 SSTORE PUSH1 0x40 DUP1 MLOAD DUP5 DUP2 MSTORE PUSH1 0x20 DUP2 ADD DUP5 SWAP1 MSTORE SWAP1 DUP2 ADD DUP3 SWAP1 MSTORE PUSH32 0xE2F5C8588887234E6A368CA64E432B81B636580FE80AC266013C33040122E040 SWAP1 PUSH1 0x60 ADD PUSH2 0x83F JUMP JUMPDEST PUSH1 0x3 SLOAD PUSH1 0x1 PUSH1 0x1 PUSH1 0xA0 SHL SUB AND CALLER EQ PUSH2 0xDBA JUMPI PUSH1 0x40 MLOAD PUSH4 0x47556579 PUSH1 0xE0 SHL DUP2 MSTORE PUSH1 0x4 ADD PUSH1 0x40 MLOAD DUP1 SWAP2 SUB SWAP1 REVERT JUMPDEST PUSH1 0x7 DUP1 SLOAD PUSH1 0xFF NOT AND DUP3 ISZERO ISZERO SWAP1 DUP2 OR SWAP1 SWAP2 SSTORE PUSH1 0x40 MLOAD SWAP1 DUP2 MSTORE PUSH32 0x40A36E95E1165E03B5C30095CD9D1E9FA9D8AA98D06AA1D6432A77718C0B68F0 SWAP1 PUSH1 0x20 ADD PUSH1 0x40 MLOAD DUP1 SWAP2 SUB SWAP1 LOG1 POP JUMP JUMPDEST PUSH1 0x7 SLOAD PUSH1 0xFF AND PUSH2 0xE24 JUMPI PUSH1 0x40 MLOAD PUSH4 0xB2915999 PUSH1 0xE0 SHL DUP2 MSTORE PUSH1 0x4 ADD PUSH1 0x40 MLOAD DUP1 SWAP2 SUB SWAP1 REVERT JUMPDEST DUP1 PUSH1 0x0 SUB PUSH2 0xE45 JUMPI PUSH1 0x40 MLOAD PUSH4 0x162908E3 PUSH1 0xE1 SHL DUP2 MSTORE PUSH1 0x4 ADD PUSH1 0x40 MLOAD DUP1 SWAP2 SUB SWAP1 REVERT JUMPDEST PUSH1 0x0 PUSH1 0x4 SLOAD DUP3 PUSH2 0xE55 SWAP2 SWAP1 PUSH2 0x2628 JUMP JUMPDEST SWAP1 POP PUSH1 0x0 PUSH1 0x5 SLOAD DUP4 PUSH2 0xE67 SWAP2 SWAP1 PUSH2 0x2628 JUMP JUMPDEST SWAP1 POP PUSH1 0x0 PUSH1 0x6 SLOAD DUP5 PUSH2 0xE79 SWAP2 SWAP1 PUSH2 0x2628 JUMP JUMPDEST PUSH1 0x7 SLOAD PUSH1 0x0 DUP1 SLOAD PUSH1 0x40 MLOAD PUSH4 0x927DA105 PUSH1 0xE0 SHL DUP2 MSTORE SWAP4 SWAP5 POP SWAP1 SWAP3 PUSH1 0x1 PUSH1 0x1 PUSH1 0xA0 SHL SUB PUSH2 0x100 SWAP1 SWAP4 DIV DUP4 AND SWAP3 PUSH4 0x927DA105 SWAP3 PUSH2 0xEBC SWAP3 SWAP2 AND SWAP1 CALLER SWAP1 ADDRESS SWAP1 PUSH1 0x4 ADD PUSH2 0x2304 JUMP JUMPDEST PUSH1 0x20 PUSH1 0x40 MLOAD DUP1 DUP4 SUB DUP2 DUP7 GAS STATICCALL ISZERO DUP1 ISZERO PUSH2 0xED9 JUMPI RETURNDATASIZE PUSH1 0x0 DUP1 RETURNDATACOPY RETURNDATASIZE PUSH1 0x0 REVERT JUMPDEST POP POP POP POP PUSH1 0x40 MLOAD RETURNDATASIZE PUSH1 0x1F NOT PUSH1 0x1F DUP3 ADD AND DUP3 ADD DUP1 PUSH1 0x40 MSTORE POP DUP2 ADD SWAP1 PUSH2 0xEFD SWAP2 SWAP1 PUSH2 0x264D JUMP JUMPDEST SWAP1 POP DUP5 DUP2 LT ISZERO PUSH2 0xF2A JUMPI PUSH1 0x40 MLOAD PUSH4 0x16009C83 PUSH1 0xE0 SHL DUP2 MSTORE PUSH1 0x4 DUP2 ADD DUP3 SWAP1 MSTORE PUSH1 0x24 DUP2 ADD DUP7 SWAP1 MSTORE PUSH1 0x44 ADD PUSH2 0x8CC JUMP JUMPDEST DUP4 SELFBALANCE LT ISZERO PUSH2 0xF5B JUMPI PUSH1 0x40 MLOAD PUSH4 0x4390211D PUSH1 0xE1 SHL DUP2 MSTORE PUSH1 0x0 PUSH1 0x4 DUP3 ADD MSTORE SELFBALANCE PUSH1 0x24 DUP3 ADD MSTORE PUSH1 0x44 DUP2 ADD DUP6 SWAP1 MSTORE PUSH1 0x64 ADD PUSH2 0x8CC JUMP JUMPDEST PUSH1 0x7 SLOAD PUSH1 0x1 SLOAD PUSH1 0x40 MLOAD PUSH4 0x3DE222BB PUSH1 0xE2 SHL DUP2 MSTORE PUSH1 0x1 PUSH1 0x1 PUSH1 0xA0 SHL SUB SWAP2 DUP3 AND PUSH1 0x4 DUP3 ADD MSTORE ADDRESS PUSH1 0x24 DUP3 ADD MSTORE PUSH1 0x0 SWAP3 PUSH2 0x100 SWAP1 DIV SWAP1 SWAP2 AND SWAP1 PUSH4 0xF7888AEC SWAP1 PUSH1 0x44 ADD PUSH1 0x20 PUSH1 0x40 MLOAD DUP1 DUP4 SUB DUP2 DUP7 GAS STATICCALL ISZERO DUP1 ISZERO PUSH2 0xFB6 JUMPI RETURNDATASIZE PUSH1 0x0 DUP1 RETURNDATACOPY RETURNDATASIZE PUSH1 0x0 REVERT JUMPDEST POP POP POP POP PUSH1 0x40 MLOAD RETURNDATASIZE PUSH1 0x1F NOT PUSH1 0x1F DUP3 ADD AND DUP3 ADD DUP1 PUSH1 0x40 MSTORE POP DUP2 ADD SWAP1 PUSH2 0xFDA SWAP2 SWAP1 PUSH2 0x264D JUMP JUMPDEST SWAP1 POP DUP4 DUP2 LT ISZERO PUSH2 0x101A JUMPI PUSH1 0x1 SLOAD PUSH1 0x40 MLOAD PUSH4 0x4390211D PUSH1 0xE1 SHL DUP2 MSTORE PUSH1 0x1 PUSH1 0x1 PUSH1 0xA0 SHL SUB SWAP1 SWAP2 AND PUSH1 0x4 DUP3 ADD MSTORE PUSH1 0x24 DUP2 ADD DUP3 SWAP1 MSTORE PUSH1 0x44 DUP2 ADD DUP6 SWAP1 MSTORE PUSH1 0x64 ADD PUSH2 0x8CC JUMP JUMPDEST PUSH1 0x7 SLOAD PUSH1 0x2 SLOAD PUSH1 0x40 MLOAD PUSH4 0x3DE222BB PUSH1 0xE2 SHL DUP2 MSTORE PUSH1 0x1 PUSH1 0x1 PUSH1 0xA0 SHL SUB SWAP2 DUP3 AND PUSH1 0x4 DUP3 ADD MSTORE ADDRESS PUSH1 0x24 DUP3 ADD MSTORE PUSH1 0x0 SWAP3 PUSH2 0x100 SWAP1 DIV SWAP1 SWAP2 AND SWAP1 PUSH4 0xF7888AEC SWAP1 PUSH1 0x44 ADD PUSH1 0x20 PUSH1 0x40 MLOAD DUP1 DUP4 SUB DUP2 DUP7 GAS STATICCALL ISZERO DUP1 ISZERO PUSH2 0x1075 JUMPI RETURNDATASIZE PUSH1 0x0 DUP1 RETURNDATACOPY RETURNDATASIZE PUSH1 0x0 REVERT JUMPDEST POP POP POP POP PUSH1 0x40 MLOAD RETURNDATASIZE PUSH1 0x1F NOT PUSH1 0x1F DUP3 ADD AND DUP3 ADD DUP1 PUSH1 0x40 MSTORE POP DUP2 ADD SWAP1 PUSH2 0x1099 SWAP2 SWAP1 PUSH2 0x264D JUMP JUMPDEST SWAP1 POP DUP4 DUP2 LT ISZERO PUSH2 0x10D9 JUMPI PUSH1 0x2 SLOAD PUSH1 0x40 MLOAD PUSH4 0x4390211D PUSH1 0xE1 SHL DUP2 MSTORE PUSH1 0x1 PUSH1 0x1 PUSH1 0xA0 SHL SUB SWAP1 SWAP2 AND PUSH1 0x4 DUP3 ADD MSTORE PUSH1 0x24 DUP2 ADD DUP3 SWAP1 MSTORE PUSH1 0x44 DUP2 ADD DUP6 SWAP1 MSTORE PUSH1 0x64 ADD PUSH2 0x8CC JUMP JUMPDEST PUSH1 0x7 SLOAD PUSH1 0x0 DUP1 SLOAD PUSH1 0x40 MLOAD PUSH4 0x2C54DE4F PUSH1 0xE0 SHL DUP2 MSTORE SWAP2 SWAP3 PUSH1 0x1 PUSH1 0x1 PUSH1 0xA0 SHL SUB PUSH2 0x100 SWAP1 SWAP2 DIV DUP2 AND SWAP3 PUSH4 0x2C54DE4F SWAP3 PUSH2 0x111A SWAP3 AND SWAP1 CALLER SWAP1 ADDRESS SWAP1 DUP15 SWAP1 PUSH1 0x4 ADD PUSH2 0x2666 JUMP JUMPDEST PUSH1 0x20 PUSH1 0x40 MLOAD DUP1 DUP4 SUB DUP2 PUSH1 0x0 DUP8 GAS CALL ISZERO DUP1 ISZERO PUSH2 0x1139 JUMPI RETURNDATASIZE PUSH1 0x0 DUP1 RETURNDATACOPY RETURNDATASIZE PUSH1 0x0 REVERT JUMPDEST POP POP POP POP PUSH1 0x40 MLOAD RETURNDATASIZE PUSH1 0x1F NOT PUSH1 0x1F DUP3 ADD AND DUP3 ADD DUP1 PUSH1 0x40 MSTORE POP DUP2 ADD SWAP1 PUSH2 0x115D SWAP2 SWAP1 PUSH2 0x233E JUMP JUMPDEST SWAP1 POP DUP1 PUSH1 0x7 SIGNEXTEND PUSH1 0x0 EQ PUSH2 0x1192 JUMPI PUSH1 0x0 SLOAD PUSH1 0x40 MLOAD PUSH4 0x53B93657 PUSH1 0xE0 SHL DUP2 MSTORE PUSH2 0x8CC SWAP2 PUSH1 0x1 PUSH1 0x1 PUSH1 0xA0 SHL SUB AND SWAP1 DUP4 SWAP1 PUSH1 0x4 ADD PUSH2 0x2359 JUMP JUMPDEST PUSH1 0x40 DUP1 MLOAD PUSH1 0x0 DUP1 DUP3 MSTORE PUSH1 0x20 DUP3 ADD SWAP1 SWAP3 MSTORE DUP2 PUSH2 0x11BD JUMP JUMPDEST PUSH1 0x60 DUP2 MSTORE PUSH1 0x20 ADD SWAP1 PUSH1 0x1 SWAP1 SUB SWAP1 DUP2 PUSH2 0x11A8 JUMPI SWAP1 POP JUMPDEST POP PUSH1 0x7 SLOAD PUSH1 0x0 DUP1 SLOAD PUSH1 0x40 MLOAD PUSH4 0x79FE3B7D PUSH1 0xE1 SHL DUP2 MSTORE SWAP4 SWAP5 POP SWAP1 SWAP3 PUSH1 0x1 PUSH1 0x1 PUSH1 0xA0 SHL SUB PUSH2 0x100 SWAP1 SWAP4 DIV DUP4 AND SWAP3 PUSH4 0xF3FC76FA SWAP3 PUSH2 0x1201 SWAP3 SWAP2 AND SWAP1 DUP15 SWAP1 DUP8 SWAP1 PUSH1 0x4 ADD PUSH2 0x2690 JUMP JUMPDEST PUSH1 0x20 PUSH1 0x40 MLOAD DUP1 DUP4 SUB DUP2 PUSH1 0x0 DUP8 GAS CALL ISZERO DUP1 ISZERO PUSH2 0x1220 JUMPI RETURNDATASIZE PUSH1 0x0 DUP1 RETURNDATACOPY RETURNDATASIZE PUSH1 0x0 REVERT JUMPDEST POP POP POP POP PUSH1 0x40 MLOAD RETURNDATASIZE PUSH1 0x1F NOT PUSH1 0x1F DUP3 ADD AND DUP3 ADD DUP1 PUSH1 0x40 MSTORE POP DUP2 ADD SWAP1 PUSH2 0x1244 SWAP2 SWAP1 PUSH2 0x233E JUMP JUMPDEST SWAP1 POP DUP1 PUSH1 0x7 SIGNEXTEND PUSH1 0x0 EQ PUSH2 0x1279 JUMPI PUSH1 0x0 SLOAD PUSH1 0x40 MLOAD PUSH4 0x272BCE3 PUSH1 0xE2 SHL DUP2 MSTORE PUSH2 0x8CC SWAP2 PUSH1 0x1 PUSH1 0x1 PUSH1 0xA0 SHL SUB AND SWAP1 DUP4 SWAP1 PUSH1 0x4 ADD PUSH2 0x2359 JUMP JUMPDEST PUSH1 0x7 SLOAD PUSH1 0x1 SLOAD PUSH1 0x40 MLOAD PUSH4 0x2C54DE4F PUSH1 0xE0 SHL DUP2 MSTORE PUSH1 0x0 SWAP3 PUSH2 0x100 SWAP1 DIV PUSH1 0x1 PUSH1 0x1 PUSH1 0xA0 SHL SUB SWAP1 DUP2 AND SWAP3 PUSH4 0x2C54DE4F SWAP3 PUSH2 0x12BC SWAP3 SWAP1 SWAP2 AND SWAP1 ADDRESS SWAP1 CALLER SWAP1 DUP16 SWAP1 PUSH1 0x4 ADD PUSH2 0x2666 JUMP JUMPDEST PUSH1 0x20 PUSH1 0x40 MLOAD DUP1 DUP4 SUB DUP2 PUSH1 0x0 DUP8 GAS CALL ISZERO DUP1 ISZERO PUSH2 0x12DB JUMPI RETURNDATASIZE PUSH1 0x0 DUP1 RETURNDATACOPY RETURNDATASIZE PUSH1 0x0 REVERT JUMPDEST POP POP POP POP PUSH1 0x40 MLOAD RETURNDATASIZE PUSH1 0x1F NOT PUSH1 0x1F DUP3 ADD AND DUP3 ADD DUP1 PUSH1 0x40 MSTORE POP DUP2 ADD SWAP1 PUSH2 0x12FF SWAP2 SWAP1 PUSH2 0x233E JUMP JUMPDEST SWAP1 POP DUP1 PUSH1 0x7 SIGNEXTEND PUSH1 0x0 EQ PUSH2 0x1334 JUMPI PUSH1 0x1 SLOAD PUSH1 0x40 MLOAD PUSH4 0x53B93657 PUSH1 0xE0 SHL DUP2 MSTORE PUSH2 0x8CC SWAP2 PUSH1 0x1 PUSH1 0x1 PUSH1 0xA0 SHL SUB AND SWAP1 DUP4 SWAP1 PUSH1 0x4 ADD PUSH2 0x2359 JUMP JUMPDEST PUSH1 0x7 SLOAD PUSH1 0x2 SLOAD PUSH1 0x40 MLOAD PUSH4 0x2C54DE4F PUSH1 0xE0 SHL DUP2 MSTORE PUSH1 0x0 SWAP3 PUSH2 0x100 SWAP1 DIV PUSH1 0x1 PUSH1 0x1 PUSH1 0xA0 SHL SUB SWAP1 DUP2 AND SWAP3 PUSH4 0x2C54DE4F SWAP3 PUSH2 0x1377 SWAP3 SWAP1 SWAP2 AND SWAP1 ADDRESS SWAP1 CALLER SWAP1 DUP16 SWAP1 PUSH1 0x4 ADD PUSH2 0x2666 JUMP JUMPDEST PUSH1 0x20 PUSH1 0x40 MLOAD DUP1 DUP4 SUB DUP2 PUSH1 0x0 DUP8 GAS CALL ISZERO DUP1 ISZERO PUSH2 0x1396 JUMPI RETURNDATASIZE PUSH1 0x0 DUP1 RETURNDATACOPY RETURNDATASIZE PUSH1 0x0 REVERT JUMPDEST POP POP POP POP PUSH1 0x40 MLOAD RETURNDATASIZE PUSH1 0x1F NOT PUSH1 0x1F DUP3 ADD AND DUP3 ADD DUP1 PUSH1 0x40 MSTORE POP DUP2 ADD SWAP1 PUSH2 0x13BA SWAP2 SWAP1 PUSH2 0x233E JUMP JUMPDEST SWAP1 POP DUP1 PUSH1 0x7 SIGNEXTEND PUSH1 0x0 EQ PUSH2 0x13EF JUMPI PUSH1 0x2 SLOAD PUSH1 0x40 MLOAD PUSH4 0x53B93657 PUSH1 0xE0 SHL DUP2 MSTORE PUSH2 0x8CC SWAP2 PUSH1 0x1 PUSH1 0x1 PUSH1 0xA0 SHL SUB AND SWAP1 DUP4 SWAP1 PUSH1 0x4 ADD PUSH2 0x2359 JUMP JUMPDEST PUSH1 0x40 MLOAD PUSH1 0x0 SWAP1 CALLER SWAP1 DUP14 SWAP1 DUP4 DUP2 DUP2 DUP2 DUP6 DUP8 GAS CALL SWAP3 POP POP POP RETURNDATASIZE DUP1 PUSH1 0x0 DUP2 EQ PUSH2 0x1431 JUMPI PUSH1 0x40 MLOAD SWAP2 POP PUSH1 0x1F NOT PUSH1 0x3F RETURNDATASIZE ADD AND DUP3 ADD PUSH1 0x40 MSTORE RETURNDATASIZE DUP3 MSTORE RETURNDATASIZE PUSH1 0x0 PUSH1 0x20 DUP5 ADD RETURNDATACOPY PUSH2 0x1436 JUMP JUMPDEST PUSH1 0x60 SWAP2 POP JUMPDEST POP POP SWAP1 POP DUP1 PUSH2 0x1458 JUMPI PUSH1 0x40 MLOAD PUSH4 0x78BD7383 PUSH1 0xE1 SHL DUP2 MSTORE PUSH1 0x4 ADD PUSH1 0x40 MLOAD DUP1 SWAP2 SUB SWAP1 REVERT JUMPDEST PUSH1 0x40 DUP1 MLOAD DUP15 DUP2 MSTORE PUSH1 0x20 DUP2 ADD DUP15 SWAP1 MSTORE SWAP1 DUP2 ADD DUP13 SWAP1 MSTORE PUSH1 0x60 DUP2 ADD DUP12 SWAP1 MSTORE CALLER SWAP1 PUSH32 0xA99E3EA632FCDC816B71D0E418DC65B991272AD5BBDD78F5CCF117BFE076B41 SWAP1 PUSH1 0x80 ADD PUSH1 0x40 MLOAD DUP1 SWAP2 SUB SWAP1 LOG2 POP POP POP POP POP POP POP POP POP POP POP POP POP JUMP JUMPDEST PUSH1 0x3 SLOAD PUSH1 0x1 PUSH1 0x1 PUSH1 0xA0 SHL SUB AND CALLER EQ PUSH2 0x14DC JUMPI PUSH1 0x40 MLOAD PUSH4 0x47556579 PUSH1 0xE0 SHL DUP2 MSTORE PUSH1 0x4 ADD PUSH1 0x40 MLOAD DUP1 SWAP2 SUB SWAP1 REVERT JUMPDEST PUSH1 0x7 DUP1 SLOAD PUSH1 0x1 PUSH1 0x1 PUSH1 0xA0 SHL SUB SWAP1 SWAP3 AND PUSH2 0x100 MUL PUSH2 0x100 PUSH1 0x1 PUSH1 0xA8 SHL SUB NOT SWAP1 SWAP3 AND SWAP2 SWAP1 SWAP2 OR SWAP1 SSTORE JUMP JUMPDEST PUSH1 0x7 SLOAD PUSH1 0x1 SLOAD PUSH1 0x40 MLOAD PUSH4 0x927DA105 PUSH1 0xE0 SHL DUP2 MSTORE PUSH1 0x0 SWAP3 DUP4 SWAP3 DUP4 SWAP3 PUSH1 0x1 PUSH1 0x1 PUSH1 0xA0 SHL SUB PUSH2 0x100 SWAP1 SWAP4 DIV DUP4 AND SWAP3 PUSH4 0x927DA105 SWAP3 PUSH2 0x1548 SWAP3 SWAP2 AND SWAP1 DUP9 SWAP1 ADDRESS SWAP1 PUSH1 0x4 ADD PUSH2 0x2304 JUMP JUMPDEST PUSH1 0x20 PUSH1 0x40 MLOAD DUP1 DUP4 SUB DUP2 DUP7 GAS STATICCALL ISZERO DUP1 ISZERO PUSH2 0x1565 JUMPI RETURNDATASIZE PUSH1 0x0 DUP1 RETURNDATACOPY RETURNDATASIZE PUSH1 0x0 REVERT JUMPDEST POP POP POP POP PUSH1 0x40 MLOAD RETURNDATASIZE PUSH1 0x1F NOT PUSH1 0x1F DUP3 ADD AND DUP3 ADD DUP1 PUSH1 0x40 MSTORE POP DUP2 ADD SWAP1 PUSH2 0x1589 SWAP2 SWAP1 PUSH2 0x264D JUMP JUMPDEST PUSH1 0x7 SLOAD PUSH1 0x2 SLOAD PUSH1 0x40 MLOAD PUSH4 0x927DA105 PUSH1 0xE0 SHL DUP2 MSTORE SWAP3 SWAP6 POP PUSH1 0x1 PUSH1 0x1 PUSH1 0xA0 SHL SUB PUSH2 0x100 SWAP1 SWAP3 DIV DUP3 AND SWAP3 PUSH4 0x927DA105 SWAP3 PUSH2 0x15C8 SWAP3 AND SWAP1 DUP9 SWAP1 ADDRESS SWAP1 PUSH1 0x4 ADD PUSH2 0x2304 JUMP JUMPDEST PUSH1 0x20 PUSH1 0x40 MLOAD DUP1 DUP4 SUB DUP2 DUP7 GAS STATICCALL ISZERO DUP1 ISZERO PUSH2 0x15E5 JUMPI RETURNDATASIZE PUSH1 0x0 DUP1 RETURNDATACOPY RETURNDATASIZE PUSH1 0x0 REVERT JUMPDEST POP POP POP POP PUSH1 0x40 MLOAD RETURNDATASIZE PUSH1 0x1F NOT PUSH1 0x1F DUP3 ADD AND DUP3 ADD DUP1 PUSH1 0x40 MSTORE POP DUP2 ADD SWAP1 PUSH2 0x1609 SWAP2 SWAP1 PUSH2 0x264D JUMP JUMPDEST PUSH1 0x7 SLOAD PUSH1 0x0 SLOAD PUSH1 0x40 MLOAD PUSH4 0x927DA105 PUSH1 0xE0 SHL DUP2 MSTORE SWAP3 SWAP5 POP PUSH1 0x1 PUSH1 0x1 PUSH1 0xA0 SHL SUB PUSH2 0x100 SWAP1 SWAP3 DIV DUP3 AND SWAP3 PUSH4 0x927DA105 SWAP3 PUSH2 0x1648 SWAP3 AND SWAP1 DUP9 SWAP1 ADDRESS SWAP1 PUSH1 0x4 ADD PUSH2 0x2304 JUMP JUMPDEST PUSH1 0x20 PUSH1 0x40 MLOAD DUP1 DUP4 SUB DUP2 DUP7 GAS STATICCALL ISZERO DUP1 ISZERO PUSH2 0x1665 JUMPI RETURNDATASIZE PUSH1 0x0 DUP1 RETURNDATACOPY RETURNDATASIZE PUSH1 0x0 REVERT JUMPDEST POP POP POP POP PUSH1 0x40 MLOAD RETURNDATASIZE PUSH1 0x1F NOT PUSH1 0x1F DUP3 ADD AND DUP3 ADD DUP1 PUSH1 0x40 MSTORE POP DUP2 ADD SWAP1 PUSH2 0x1689 SWAP2 SWAP1 PUSH2 0x264D JUMP JUMPDEST SWAP3 SWAP5 SWAP2 SWAP4 POP POP JUMP JUMPDEST PUSH1 0x0 PUSH1 0x4 SLOAD DUP3 PUSH2 0x16A1 SWAP2 SWAP1 PUSH2 0x2628 JUMP JUMPDEST SWAP3 SWAP2 POP POP JUMP JUMPDEST PUSH1 0x7 SLOAD PUSH1 0xFF AND PUSH2 0x16CA JUMPI PUSH1 0x40 MLOAD PUSH4 0xB2915999 PUSH1 0xE0 SHL DUP2 MSTORE PUSH1 0x4 ADD PUSH1 0x40 MLOAD DUP1 SWAP2 SUB SWAP1 REVERT JUMPDEST DUP1 PUSH1 0x0 SUB PUSH2 0x16EB JUMPI PUSH1 0x40 MLOAD PUSH4 0x162908E3 PUSH1 0xE1 SHL DUP2 MSTORE PUSH1 0x4 ADD PUSH1 0x40 MLOAD DUP1 SWAP2 SUB SWAP1 REVERT JUMPDEST PUSH1 0x0 PUSH1 0x4 SLOAD DUP3 PUSH2 0x16FB SWAP2 SWAP1 PUSH2 0x2628 JUMP JUMPDEST SWAP1 POP PUSH1 0x0 PUSH1 0x6 SLOAD DUP4 PUSH2 0x170D SWAP2 SWAP1 PUSH2 0x2628 JUMP JUMPDEST SWAP1 POP DUP2 CALLVALUE EQ PUSH2 0x1738 JUMPI PUSH1 0x40 MLOAD PUSH4 0x613F8E2F PUSH1 0xE1 SHL DUP2 MSTORE CALLVALUE PUSH1 0x4 DUP3 ADD MSTORE PUSH1 0x24 DUP2 ADD DUP4 SWAP1 MSTORE PUSH1 0x44 ADD PUSH2 0x8CC JUMP JUMPDEST PUSH1 0x7 SLOAD PUSH1 0x2 SLOAD PUSH1 0x40 MLOAD PUSH4 0x927DA105 PUSH1 0xE0 SHL DUP2 MSTORE PUSH1 0x0 SWAP3 PUSH2 0x100 SWAP1 DIV PUSH1 0x1 PUSH1 0x1 PUSH1 0xA0 SHL SUB SWAP1 DUP2 AND SWAP3 PUSH4 0x927DA105 SWAP3 PUSH2 0x1779 SWAP3 SWAP1 SWAP2 AND SWAP1 CALLER SWAP1 ADDRESS SWAP1 PUSH1 0x4 ADD PUSH2 0x2304 JUMP JUMPDEST PUSH1 0x20 PUSH1 0x40 MLOAD DUP1 DUP4 SUB DUP2 DUP7 GAS STATICCALL ISZERO DUP1 ISZERO PUSH2 0x1796 JUMPI RETURNDATASIZE PUSH1 0x0 DUP1 RETURNDATACOPY RETURNDATASIZE PUSH1 0x0 REVERT JUMPDEST POP POP POP POP PUSH1 0x40 MLOAD RETURNDATASIZE PUSH1 0x1F NOT PUSH1 0x1F DUP3 ADD AND DUP3 ADD DUP1 PUSH1 0x40 MSTORE POP DUP2 ADD SWAP1 PUSH2 0x17BA SWAP2 SWAP1 PUSH2 0x264D JUMP JUMPDEST SWAP1 POP DUP2 DUP2 LT ISZERO PUSH2 0x17E7 JUMPI PUSH1 0x40 MLOAD PUSH4 0x3AB67DF PUSH1 0xE0 SHL DUP2 MSTORE PUSH1 0x4 DUP2 ADD DUP3 SWAP1 MSTORE PUSH1 0x24 DUP2 ADD DUP4 SWAP1 MSTORE PUSH1 0x44 ADD PUSH2 0x8CC JUMP JUMPDEST POP POP POP POP JUMP JUMPDEST PUSH1 0x3 SLOAD PUSH1 0x1 PUSH1 0x1 PUSH1 0xA0 SHL SUB AND CALLER EQ PUSH2 0x1818 JUMPI PUSH1 0x40 MLOAD PUSH4 0x47556579 PUSH1 0xE0 SHL DUP2 MSTORE PUSH1 0x4 ADD PUSH1 0x40 MLOAD DUP1 SWAP2 SUB SWAP1 REVERT JUMPDEST PUSH1 0x0 SLOAD PUSH1 0x1 PUSH1 0x1 PUSH1 0xA0 SHL SUB AND ISZERO PUSH2 0x186A JUMPI PUSH1 0x40 MLOAD PUSH3 0x461BCD PUSH1 0xE5 SHL DUP2 MSTORE PUSH1 0x20 PUSH1 0x4 DUP3 ADD MSTORE PUSH1 0x16 PUSH1 0x24 DUP3 ADD MSTORE PUSH22 0x13165396081D1BDAD95B88185B1C9958591E481CD95D PUSH1 0x52 SHL PUSH1 0x44 DUP3 ADD MSTORE PUSH1 0x64 ADD PUSH2 0x8CC JUMP JUMPDEST PUSH1 0x1 PUSH1 0x1 PUSH1 0xA0 SHL SUB DUP2 AND PUSH2 0x18C0 JUMPI PUSH1 0x40 MLOAD PUSH3 0x461BCD PUSH1 0xE5 SHL DUP2 MSTORE PUSH1 0x20 PUSH1 0x4 DUP3 ADD MSTORE PUSH1 0x1A PUSH1 0x24 DUP3 ADD MSTORE PUSH32 0x43616E6E6F742073657420746F207A65726F2061646472657373000000000000 PUSH1 0x44 DUP3 ADD MSTORE PUSH1 0x64 ADD PUSH2 0x8CC JUMP JUMPDEST PUSH1 0x0 DUP1 SLOAD PUSH1 0x1 PUSH1 0x1 PUSH1 0xA0 SHL SUB NOT AND PUSH1 0x1 PUSH1 0x1 PUSH1 0xA0 SHL SUB DUP4 AND OR SWAP1 SSTORE PUSH2 0x18E3 PUSH2 0x2037 JUMP JUMPDEST PUSH1 0x40 MLOAD PUSH1 0x1 PUSH1 0x1 PUSH1 0xA0 SHL SUB DUP3 AND SWAP1 PUSH32 0x9D3F9BC754B67AECB97C012CCC6E3BCA03A800D329B1CAA33D2549B2945648FB SWAP1 PUSH1 0x0 SWAP1 LOG2 POP JUMP JUMPDEST PUSH1 0x0 PUSH1 0x6 SLOAD DUP3 PUSH2 0x16A1 SWAP2 SWAP1 PUSH2 0x2628 JUMP JUMPDEST PUSH1 0x7 SLOAD PUSH1 0xFF AND PUSH2 0x194D JUMPI PUSH1 0x40 MLOAD PUSH4 0xB2915999 PUSH1 0xE0 SHL DUP2 MSTORE PUSH1 0x4 ADD PUSH1 0x40 MLOAD DUP1 SWAP2 SUB SWAP1 REVERT JUMPDEST DUP1 PUSH1 0x0 SUB PUSH2 0x196E JUMPI PUSH1 0x40 MLOAD PUSH4 0x162908E3 PUSH1 0xE1 SHL DUP2 MSTORE PUSH1 0x4 ADD PUSH1 0x40 MLOAD DUP1 SWAP2 SUB SWAP1 REVERT JUMPDEST PUSH1 0x0 PUSH1 0x4 SLOAD DUP3 PUSH2 0x197E SWAP2 SWAP1 PUSH2 0x2628 JUMP JUMPDEST SWAP1 POP PUSH1 0x0 PUSH1 0x5 SLOAD DUP4 PUSH2 0x1990 SWAP2 SWAP1 PUSH2 0x2628 JUMP JUMPDEST SWAP1 POP PUSH1 0x0 PUSH1 0x6 SLOAD DUP5 PUSH2 0x19A2 SWAP2 SWAP1 PUSH2 0x2628 JUMP JUMPDEST SWAP1 POP DUP3 CALLVALUE EQ PUSH2 0x19CD JUMPI PUSH1 0x40 MLOAD PUSH4 0x613F8E2F PUSH1 0xE1 SHL DUP2 MSTORE CALLVALUE PUSH1 0x4 DUP3 ADD MSTORE PUSH1 0x24 DUP2 ADD DUP5 SWAP1 MSTORE PUSH1 0x44 ADD PUSH2 0x8CC JUMP JUMPDEST PUSH1 0x7 SLOAD PUSH1 0x1 SLOAD PUSH1 0x40 MLOAD PUSH4 0x927DA105 PUSH1 0xE0 SHL DUP2 MSTORE PUSH1 0x0 SWAP3 PUSH2 0x100 SWAP1 DIV PUSH1 0x1 PUSH1 0x1 PUSH1 0xA0 SHL SUB SWAP1 DUP2 AND SWAP3 PUSH4 0x927DA105 SWAP3 PUSH2 0x1A0E SWAP3 SWAP1 SWAP2 AND SWAP1 CALLER SWAP1 ADDRESS SWAP1 PUSH1 0x4 ADD PUSH2 0x2304 JUMP JUMPDEST PUSH1 0x20 PUSH1 0x40 MLOAD DUP1 DUP4 SUB DUP2 DUP7 GAS STATICCALL ISZERO DUP1 ISZERO PUSH2 0x1A2B JUMPI RETURNDATASIZE PUSH1 0x0 DUP1 RETURNDATACOPY RETURNDATASIZE PUSH1 0x0 REVERT JUMPDEST POP POP POP POP PUSH1 0x40 MLOAD RETURNDATASIZE PUSH1 0x1F NOT PUSH1 0x1F DUP3 ADD AND DUP3 ADD DUP1 PUSH1 0x40 MSTORE POP DUP2 ADD SWAP1 PUSH2 0x1A4F SWAP2 SWAP1 PUSH2 0x264D JUMP JUMPDEST SWAP1 POP DUP3 DUP2 LT ISZERO PUSH2 0x1A7C JUMPI PUSH1 0x40 MLOAD PUSH4 0x6DC9C10B PUSH1 0xE0 SHL DUP2 MSTORE PUSH1 0x4 DUP2 ADD DUP3 SWAP1 MSTORE PUSH1 0x24 DUP2 ADD DUP5 SWAP1 MSTORE PUSH1 0x44 ADD PUSH2 0x8CC JUMP JUMPDEST PUSH1 0x7 SLOAD PUSH1 0x2 SLOAD PUSH1 0x40 MLOAD PUSH4 0x927DA105 PUSH1 0xE0 SHL DUP2 MSTORE PUSH1 0x0 SWAP3 PUSH2 0x100 SWAP1 DIV PUSH1 0x1 PUSH1 0x1 PUSH1 0xA0 SHL SUB SWAP1 DUP2 AND SWAP3 PUSH4 0x927DA105 SWAP3 PUSH2 0x1ABD SWAP3 SWAP1 SWAP2 AND SWAP1 CALLER SWAP1 ADDRESS SWAP1 PUSH1 0x4 ADD PUSH2 0x2304 JUMP JUMPDEST PUSH1 0x20 PUSH1 0x40 MLOAD DUP1 DUP4 SUB DUP2 DUP7 GAS STATICCALL ISZERO DUP1 ISZERO PUSH2 0x1ADA JUMPI RETURNDATASIZE PUSH1 0x0 DUP1 RETURNDATACOPY RETURNDATASIZE PUSH1 0x0 REVERT JUMPDEST POP POP POP POP PUSH1 0x40 MLOAD RETURNDATASIZE PUSH1 0x1F NOT PUSH1 0x1F DUP3 ADD AND DUP3 ADD DUP1 PUSH1 0x40 MSTORE POP DUP2 ADD SWAP1 PUSH2 0x1AFE SWAP2 SWAP1 PUSH2 0x264D JUMP JUMPDEST SWAP1 POP DUP3 DUP2 LT ISZERO PUSH2 0x1B2B JUMPI PUSH1 0x40 MLOAD PUSH4 0x3AB67DF PUSH1 0xE0 SHL DUP2 MSTORE PUSH1 0x4 DUP2 ADD DUP3 SWAP1 MSTORE PUSH1 0x24 DUP2 ADD DUP5 SWAP1 MSTORE PUSH1 0x44 ADD PUSH2 0x8CC JUMP JUMPDEST PUSH1 0x7 SLOAD PUSH1 0x1 SLOAD PUSH1 0x40 MLOAD PUSH4 0x2C54DE4F PUSH1 0xE0 SHL DUP2 MSTORE PUSH1 0x0 SWAP3 PUSH2 0x100 SWAP1 DIV PUSH1 0x1 PUSH1 0x1 PUSH1 0xA0 SHL SUB SWAP1 DUP2 AND SWAP3 PUSH4 0x2C54DE4F SWAP3 PUSH2 0x1B6E SWAP3 SWAP1 SWAP2 AND SWAP1 CALLER SWAP1 ADDRESS SWAP1 DUP12 SWAP1 PUSH1 0x4 ADD PUSH2 0x2666 JUMP JUMPDEST PUSH1 0x20 PUSH1 0x40 MLOAD DUP1 DUP4 SUB DUP2 PUSH1 0x0 DUP8 GAS CALL ISZERO DUP1 ISZERO PUSH2 0x1B8D JUMPI RETURNDATASIZE PUSH1 0x0 DUP1 RETURNDATACOPY RETURNDATASIZE PUSH1 0x0 REVERT JUMPDEST POP POP POP POP PUSH1 0x40 MLOAD RETURNDATASIZE PUSH1 0x1F NOT PUSH1 0x1F DUP3 ADD AND DUP3 ADD DUP1 PUSH1 0x40 MSTORE POP DUP2 ADD SWAP1 PUSH2 0x1BB1 SWAP2 SWAP1 PUSH2 0x233E JUMP JUMPDEST SWAP1 POP DUP1 PUSH1 0x7 SIGNEXTEND PUSH1 0x0 EQ PUSH2 0x1BE6 JUMPI PUSH1 0x1 SLOAD PUSH1 0x40 MLOAD PUSH4 0x53B93657 PUSH1 0xE0 SHL DUP2 MSTORE PUSH2 0x8CC SWAP2 PUSH1 0x1 PUSH1 0x1 PUSH1 0xA0 SHL SUB AND SWAP1 DUP4 SWAP1 PUSH1 0x4 ADD PUSH2 0x2359 JUMP JUMPDEST PUSH1 0x7 SLOAD PUSH1 0x2 SLOAD PUSH1 0x40 MLOAD PUSH4 0x2C54DE4F PUSH1 0xE0 SHL DUP2 MSTORE PUSH1 0x0 SWAP3 PUSH2 0x100 SWAP1 DIV PUSH1 0x1 PUSH1 0x1 PUSH1 0xA0 SHL SUB SWAP1 DUP2 AND SWAP3 PUSH4 0x2C54DE4F SWAP3 PUSH2 0x1C29 SWAP3 SWAP1 SWAP2 AND SWAP1 CALLER SWAP1 ADDRESS SWAP1 DUP12 SWAP1 PUSH1 0x4 ADD PUSH2 0x2666 JUMP JUMPDEST PUSH1 0x20 PUSH1 0x40 MLOAD DUP1 DUP4 SUB DUP2 PUSH1 0x0 DUP8 GAS CALL ISZERO DUP1 ISZERO PUSH2 0x1C48 JUMPI RETURNDATASIZE PUSH1 0x0 DUP1 RETURNDATACOPY RETURNDATASIZE PUSH1 0x0 REVERT JUMPDEST POP POP POP POP PUSH1 0x40 MLOAD RETURNDATASIZE PUSH1 0x1F NOT PUSH1 0x1F DUP3 ADD AND DUP3 ADD DUP1 PUSH1 0x40 MSTORE POP DUP2 ADD SWAP1 PUSH2 0x1C6C SWAP2 SWAP1 PUSH2 0x233E JUMP JUMPDEST SWAP1 POP DUP1 PUSH1 0x7 SIGNEXTEND PUSH1 0x0 EQ PUSH2 0x1CA1 JUMPI PUSH1 0x2 SLOAD PUSH1 0x40 MLOAD PUSH4 0x53B93657 PUSH1 0xE0 SHL DUP2 MSTORE PUSH2 0x8CC SWAP2 PUSH1 0x1 PUSH1 0x1 PUSH1 0xA0 SHL SUB AND SWAP1 DUP4 SWAP1 PUSH1 0x4 ADD PUSH2 0x2359 JUMP JUMPDEST PUSH1 0x40 DUP1 MLOAD PUSH1 0x0 DUP1 DUP3 MSTORE PUSH1 0x20 DUP3 ADD SWAP1 SWAP3 MSTORE DUP2 PUSH2 0x1CCC JUMP JUMPDEST PUSH1 0x60 DUP2 MSTORE PUSH1 0x20 ADD SWAP1 PUSH1 0x1 SWAP1 SUB SWAP1 DUP2 PUSH2 0x1CB7 JUMPI SWAP1 POP JUMPDEST POP PUSH1 0x7 SLOAD PUSH1 0x0 DUP1 SLOAD PUSH1 0x40 MLOAD PUSH4 0x76096E01 PUSH1 0xE1 SHL DUP2 MSTORE SWAP4 SWAP5 POP SWAP1 SWAP3 PUSH1 0x1 PUSH1 0x1 PUSH1 0xA0 SHL SUB PUSH2 0x100 SWAP1 SWAP4 DIV DUP4 AND SWAP3 PUSH4 0xEC12DC02 SWAP3 PUSH2 0x1D10 SWAP3 SWAP2 AND SWAP1 DUP15 SWAP1 DUP8 SWAP1 PUSH1 0x4 ADD PUSH2 0x2690 JUMP JUMPDEST PUSH1 0x20 PUSH1 0x40 MLOAD DUP1 DUP4 SUB DUP2 PUSH1 0x0 DUP8 GAS CALL ISZERO DUP1 ISZERO PUSH2 0x1D2F JUMPI RETURNDATASIZE PUSH1 0x0 DUP1 RETURNDATACOPY RETURNDATASIZE PUSH1 0x0 REVERT JUMPDEST POP POP POP POP PUSH1 0x40 MLOAD RETURNDATASIZE PUSH1 0x1F NOT PUSH1 0x1F DUP3 ADD AND DUP3 ADD DUP1 PUSH1 0x40 MSTORE POP DUP2 ADD SWAP1 PUSH2 0x1D53 SWAP2 SWAP1 PUSH2 0x233E JUMP JUMPDEST SWAP1 POP DUP1 PUSH1 0x7 SIGNEXTEND PUSH1 0x0 EQ PUSH2 0x1D88 JUMPI PUSH1 0x0 SLOAD PUSH1 0x40 MLOAD PUSH4 0x25056C4D PUSH1 0xE2 SHL DUP2 MSTORE PUSH2 0x8CC SWAP2 PUSH1 0x1 PUSH1 0x1 PUSH1 0xA0 SHL SUB AND SWAP1 DUP4 SWAP1 PUSH1 0x4 ADD PUSH2 0x2359 JUMP JUMPDEST PUSH1 0x0 PUSH1 0x7 PUSH1 0x1 SWAP1 SLOAD SWAP1 PUSH2 0x100 EXP SWAP1 DIV PUSH1 0x1 PUSH1 0x1 PUSH1 0xA0 SHL SUB AND PUSH1 0x1 PUSH1 0x1 PUSH1 0xA0 SHL SUB AND PUSH4 0x2C54DE4F PUSH1 0x0 DUP1 SLOAD SWAP1 PUSH2 0x100 EXP SWAP1 DIV PUSH1 0x1 PUSH1 0x1 PUSH1 0xA0 SHL SUB AND ADDRESS CALLER DUP16 PUSH1 0x40 MLOAD DUP6 PUSH4 0xFFFFFFFF AND PUSH1 0xE0 SHL DUP2 MSTORE PUSH1 0x4 ADD PUSH2 0x1DE4 SWAP5 SWAP4 SWAP3 SWAP2 SWAP1 PUSH2 0x2666 JUMP JUMPDEST PUSH1 0x20 PUSH1 0x40 MLOAD DUP1 DUP4 SUB DUP2 PUSH1 0x0 DUP8 GAS CALL ISZERO DUP1 ISZERO PUSH2 0x1E03 JUMPI RETURNDATASIZE PUSH1 0x0 DUP1 RETURNDATACOPY RETURNDATASIZE PUSH1 0x0 REVERT JUMPDEST POP POP POP POP PUSH1 0x40 MLOAD RETURNDATASIZE PUSH1 0x1F NOT PUSH1 0x1F DUP3 ADD AND DUP3 ADD DUP1 PUSH1 0x40 MSTORE POP DUP2 ADD SWAP1 PUSH2 0x1E27 SWAP2 SWAP1 PUSH2 0x233E JUMP JUMPDEST SWAP1 POP DUP1 PUSH1 0x7 SIGNEXTEND PUSH1 0x0 EQ PUSH2 0x1E5C JUMPI PUSH1 0x0 SLOAD PUSH1 0x40 MLOAD PUSH4 0x53B93657 PUSH1 0xE0 SHL DUP2 MSTORE PUSH2 0x8CC SWAP2 PUSH1 0x1 PUSH1 0x1 PUSH1 0xA0 SHL SUB AND SWAP1 DUP4 SWAP1 PUSH1 0x4 ADD PUSH2 0x2359 JUMP JUMPDEST PUSH1 0x40 DUP1 MLOAD DUP13 DUP2 MSTORE PUSH1 0x20 DUP2 ADD DUP13 SWAP1 MSTORE SWAP1 DUP2 ADD DUP11 SWAP1 MSTORE PUSH1 0x60 DUP2 ADD DUP10 SWAP1 MSTORE CALLER SWAP1 PUSH32 0xC8692244B89E2A7E07E1D9EA03612E5D30118C61DD11D7E664E945287A3CE61B SWAP1 PUSH1 0x80 ADD PUSH1 0x40 MLOAD DUP1 SWAP2 SUB SWAP1 LOG2 POP POP POP POP POP POP POP POP POP POP POP JUMP JUMPDEST PUSH1 0x0 DUP1 PUSH1 0x0 DUP1 PUSH1 0x0 DUP1 PUSH1 0x5 SLOAD DUP8 PUSH2 0x1ECA SWAP2 SWAP1 PUSH2 0x2628 JUMP JUMPDEST SWAP4 POP PUSH1 0x6 SLOAD DUP8 PUSH2 0x1EDA SWAP2 SWAP1 PUSH2 0x2628 JUMP JUMPDEST PUSH1 0x7 SLOAD PUSH1 0x1 SLOAD PUSH1 0x40 MLOAD PUSH4 0x927DA105 PUSH1 0xE0 SHL DUP2 MSTORE SWAP3 SWAP6 POP PUSH1 0x1 PUSH1 0x1 PUSH1 0xA0 SHL SUB PUSH2 0x100 SWAP1 SWAP3 DIV DUP3 AND SWAP3 PUSH4 0x927DA105 SWAP3 PUSH2 0x1F19 SWAP3 AND SWAP1 DUP13 SWAP1 ADDRESS SWAP1 PUSH1 0x4 ADD PUSH2 0x2304 JUMP JUMPDEST PUSH1 0x20 PUSH1 0x40 MLOAD DUP1 DUP4 SUB DUP2 DUP7 GAS STATICCALL ISZERO DUP1 ISZERO PUSH2 0x1F36 JUMPI RETURNDATASIZE PUSH1 0x0 DUP1 RETURNDATACOPY RETURNDATASIZE PUSH1 0x0 REVERT JUMPDEST POP POP POP POP PUSH1 0x40 MLOAD RETURNDATASIZE PUSH1 0x1F NOT PUSH1 0x1F DUP3 ADD AND DUP3 ADD DUP1 PUSH1 0x40 MSTORE POP DUP2 ADD SWAP1 PUSH2 0x1F5A SWAP2 SWAP1 PUSH2 0x264D JUMP JUMPDEST PUSH1 0x7 SLOAD PUSH1 0x2 SLOAD PUSH1 0x40 MLOAD PUSH4 0x927DA105 PUSH1 0xE0 SHL DUP2 MSTORE SWAP3 SWAP9 POP PUSH1 0x1 PUSH1 0x1 PUSH1 0xA0 SHL SUB PUSH2 0x100 SWAP1 SWAP3 DIV DUP3 AND SWAP3 PUSH4 0x927DA105 SWAP3 PUSH2 0x1F99 SWAP3 AND SWAP1 DUP13 SWAP1 ADDRESS SWAP1 PUSH1 0x4 ADD PUSH2 0x2304 JUMP JUMPDEST PUSH1 0x20 PUSH1 0x40 MLOAD DUP1 DUP4 SUB DUP2 DUP7 GAS STATICCALL ISZERO DUP1 ISZERO PUSH2 0x1FB6 JUMPI RETURNDATASIZE PUSH1 0x0 DUP1 RETURNDATACOPY RETURNDATASIZE PUSH1 0x0 REVERT JUMPDEST POP POP POP POP PUSH1 0x40 MLOAD RETURNDATASIZE PUSH1 0x1F NOT PUSH1 0x1F DUP3 ADD AND DUP3 ADD DUP1 PUSH1 0x40 MSTORE POP DUP2 ADD SWAP1 PUSH2 0x1FDA SWAP2 SWAP1 PUSH2 0x264D JUMP JUMPDEST SWAP5 POP DUP4 DUP7 LT ISZERO SWAP2 POP DUP3 DUP6 LT ISZERO SWAP1 POP SWAP3 SWAP6 POP SWAP3 SWAP6 POP SWAP3 SWAP6 JUMP JUMPDEST PUSH1 0x3 SLOAD PUSH1 0x1 PUSH1 0x1 PUSH1 0xA0 SHL SUB AND CALLER EQ PUSH2 0x201D JUMPI PUSH1 0x40 MLOAD PUSH4 0x47556579 PUSH1 0xE0 SHL DUP2 MSTORE PUSH1 0x4 ADD PUSH1 0x40 MLOAD DUP1 SWAP2 SUB SWAP1 REVERT JUMPDEST PUSH2 0x2025 PUSH2 0x2037 JUMP JUMPDEST JUMP JUMPDEST PUSH1 0x0 PUSH1 0x5 SLOAD DUP3 PUSH2 0x16A1 SWAP2 SWAP1 PUSH2 0x2628 JUMP JUMPDEST PUSH1 0x0 SLOAD PUSH1 0x1 PUSH1 0x1 PUSH1 0xA0 SHL SUB AND PUSH2 0x2088 JUMPI PUSH1 0x7 DUP1 SLOAD PUSH1 0xFF NOT AND SWAP1 SSTORE PUSH1 0x40 MLOAD PUSH1 0x0 DUP2 MSTORE PUSH32 0x40A36E95E1165E03B5C30095CD9D1E9FA9D8AA98D06AA1D6432A77718C0B68F0 SWAP1 PUSH1 0x20 ADD JUMPDEST PUSH1 0x40 MLOAD DUP1 SWAP2 SUB SWAP1 LOG1 JUMP JUMPDEST PUSH1 0x7 SLOAD PUSH1 0x0 SLOAD PUSH1 0x40 MLOAD PUSH4 0x2E1A6345 PUSH1 0xE1 SHL DUP2 MSTORE PUSH1 0x1 PUSH1 0x1 PUSH1 0xA0 SHL SUB SWAP2 DUP3 AND PUSH1 0x4 DUP3 ADD MSTORE ADDRESS PUSH1 0x24 DUP3 ADD MSTORE PUSH2 0x100 SWAP1 SWAP3 DIV AND SWAP1 PUSH4 0x5C34C68A SWAP1 PUSH1 0x44 ADD PUSH1 0x20 PUSH1 0x40 MLOAD DUP1 DUP4 SUB DUP2 DUP7 GAS STATICCALL ISZERO DUP1 ISZERO PUSH2 0x20DF JUMPI RETURNDATASIZE PUSH1 0x0 DUP1 RETURNDATACOPY RETURNDATASIZE PUSH1 0x0 REVERT JUMPDEST POP POP POP POP PUSH1 0x40 MLOAD RETURNDATASIZE PUSH1 0x1F NOT PUSH1 0x1F DUP3 ADD AND DUP3 ADD DUP1 PUSH1 0x40 MSTORE POP DUP2 ADD SWAP1 PUSH2 0x2103 SWAP2 SWAP1 PUSH2 0x2709 JUMP JUMPDEST PUSH1 0x7 DUP1 SLOAD PUSH1 0xFF NOT AND SWAP2 ISZERO ISZERO SWAP2 DUP3 OR SWAP1 SSTORE PUSH1 0x40 MLOAD PUSH1 0xFF SWAP1 SWAP2 AND ISZERO ISZERO DUP2 MSTORE PUSH32 0x40A36E95E1165E03B5C30095CD9D1E9FA9D8AA98D06AA1D6432A77718C0B68F0 SWAP1 PUSH1 0x20 ADD PUSH2 0x207E JUMP JUMPDEST PUSH1 0x0 DUP1 DUP4 PUSH1 0x1F DUP5 ADD SLT PUSH2 0x215B JUMPI PUSH1 0x0 DUP1 REVERT JUMPDEST POP DUP2 CALLDATALOAD PUSH8 0xFFFFFFFFFFFFFFFF DUP2 GT ISZERO PUSH2 0x2173 JUMPI PUSH1 0x0 DUP1 REVERT JUMPDEST PUSH1 0x20 DUP4 ADD SWAP2 POP DUP4 PUSH1 0x20 DUP3 DUP6 ADD ADD GT ISZERO PUSH2 0x218B JUMPI PUSH1 0x0 DUP1 REVERT JUMPDEST SWAP3 POP SWAP3 SWAP1 POP JUMP JUMPDEST PUSH1 0x0 DUP1 PUSH1 0x0 DUP1 PUSH1 0x0 DUP1 PUSH1 0x60 DUP8 DUP10 SUB SLT ISZERO PUSH2 0x21AB JUMPI PUSH1 0x0 DUP1 REVERT JUMPDEST DUP7 CALLDATALOAD PUSH8 0xFFFFFFFFFFFFFFFF DUP1 DUP3 GT ISZERO PUSH2 0x21C3 JUMPI PUSH1 0x0 DUP1 REVERT JUMPDEST PUSH2 0x21CF DUP11 DUP4 DUP12 ADD PUSH2 0x2149 JUMP JUMPDEST SWAP1 SWAP9 POP SWAP7 POP PUSH1 0x20 DUP10 ADD CALLDATALOAD SWAP2 POP DUP1 DUP3 GT ISZERO PUSH2 0x21E8 JUMPI PUSH1 0x0 DUP1 REVERT JUMPDEST PUSH2 0x21F4 DUP11 DUP4 DUP12 ADD PUSH2 0x2149 JUMP JUMPDEST SWAP1 SWAP7 POP SWAP5 POP PUSH1 0x40 DUP10 ADD CALLDATALOAD SWAP2 POP DUP1 DUP3 GT ISZERO PUSH2 0x220D JUMPI PUSH1 0x0 DUP1 REVERT JUMPDEST POP PUSH2 0x221A DUP10 DUP3 DUP11 ADD PUSH2 0x2149 JUMP JUMPDEST SWAP8 SWAP11 SWAP7 SWAP10 POP SWAP5 SWAP8 POP SWAP3 SWAP6 SWAP4 SWAP5 SWAP3 POP POP POP JUMP JUMPDEST PUSH1 0x0 DUP1 PUSH1 0x0 PUSH1 0x60 DUP5 DUP7 SUB SLT ISZERO PUSH2 0x2241 JUMPI PUSH1 0x0 DUP1 REVERT JUMPDEST POP POP DUP2 CALLDATALOAD SWAP4 PUSH1 0x20 DUP4 ADD CALLDATALOAD SWAP4 POP PUSH1 0x40 SWAP1 SWAP3 ADD CALLDATALOAD SWAP2 SWAP1 POP JUMP JUMPDEST DUP1 ISZERO ISZERO DUP2 EQ PUSH2 0x2266 JUMPI PUSH1 0x0 DUP1 REVERT JUMPDEST POP JUMP JUMPDEST PUSH1 0x0 PUSH1 0x20 DUP3 DUP5 SUB SLT ISZERO PUSH2 0x227B JUMPI PUSH1 0x0 DUP1 REVERT JUMPDEST DUP2 CALLDATALOAD PUSH2 0x2286 DUP2 PUSH2 0x2258 JUMP JUMPDEST SWAP4 SWAP3 POP POP POP JUMP JUMPDEST PUSH1 0x0 PUSH1 0x20 DUP3 DUP5 SUB SLT ISZERO PUSH2 0x229F JUMPI PUSH1 0x0 DUP1 REVERT JUMPDEST POP CALLDATALOAD SWAP2 SWAP1 POP JUMP JUMPDEST PUSH1 0x1 PUSH1 0x1 PUSH1 0xA0 SHL SUB DUP2 AND DUP2 EQ PUSH2 0x2266 JUMPI PUSH1 0x0 DUP1 REVERT JUMPDEST PUSH1 0x0 PUSH1 0x20 DUP3 DUP5 SUB SLT ISZERO PUSH2 0x22CD JUMPI PUSH1 0x0 DUP1 REVERT JUMPDEST DUP2 CALLDATALOAD PUSH2 0x2286 DUP2 PUSH2 0x22A6 JUMP JUMPDEST PUSH1 0x0 DUP1 PUSH1 0x40 DUP4 DUP6 SUB SLT ISZERO PUSH2 0x22EB JUMPI PUSH1 0x0 DUP1 REVERT JUMPDEST DUP3 CALLDATALOAD PUSH2 0x22F6 DUP2 PUSH2 0x22A6 JUMP JUMPDEST SWAP5 PUSH1 0x20 SWAP4 SWAP1 SWAP4 ADD CALLDATALOAD SWAP4 POP POP POP JUMP JUMPDEST PUSH1 0x1 PUSH1 0x1 PUSH1 0xA0 SHL SUB SWAP4 DUP5 AND DUP2 MSTORE SWAP2 DUP4 AND PUSH1 0x20 DUP4 ADD MSTORE SWAP1 SWAP2 AND PUSH1 0x40 DUP3 ADD MSTORE PUSH1 0x60 ADD SWAP1 JUMP JUMPDEST DUP1 MLOAD PUSH1 0x7 DUP2 SWAP1 SIGNEXTEND DUP2 EQ PUSH2 0x2339 JUMPI PUSH1 0x0 DUP1 REVERT JUMPDEST SWAP2 SWAP1 POP JUMP JUMPDEST PUSH1 0x0 PUSH1 0x20 DUP3 DUP5 SUB SLT ISZERO PUSH2 0x2350 JUMPI PUSH1 0x0 DUP1 REVERT JUMPDEST PUSH2 0x2286 DUP3 PUSH2 0x2327 JUMP JUMPDEST PUSH1 0x1 PUSH1 0x1 PUSH1 0xA0 SHL SUB SWAP3 SWAP1 SWAP3 AND DUP3 MSTORE PUSH1 0x7 SIGNEXTEND PUSH1 0x20 DUP3 ADD MSTORE PUSH1 0x40 ADD SWAP1 JUMP JUMPDEST PUSH4 0x4E487B71 PUSH1 0xE0 SHL PUSH1 0x0 MSTORE PUSH1 0x32 PUSH1 0x4 MSTORE PUSH1 0x24 PUSH1 0x0 REVERT JUMPDEST PUSH1 0x0 DUP2 MLOAD DUP1 DUP5 MSTORE PUSH1 0x0 JUMPDEST DUP2 DUP2 LT ISZERO PUSH2 0x23B1 JUMPI PUSH1 0x20 DUP2 DUP6 ADD DUP2 ADD MLOAD DUP7 DUP4 ADD DUP3 ADD MSTORE ADD PUSH2 0x2395 JUMP JUMPDEST POP PUSH1 0x0 PUSH1 0x20 DUP3 DUP7 ADD ADD MSTORE PUSH1 0x20 PUSH1 0x1F NOT PUSH1 0x1F DUP4 ADD AND DUP6 ADD ADD SWAP2 POP POP SWAP3 SWAP2 POP POP JUMP JUMPDEST PUSH1 0x0 DUP2 MLOAD DUP1 DUP5 MSTORE PUSH1 0x20 DUP1 DUP6 ADD SWAP5 POP DUP1 DUP5 ADD PUSH1 0x0 JUMPDEST DUP4 DUP2 LT ISZERO PUSH2 0x240A JUMPI DUP2 MLOAD PUSH1 0x1 PUSH1 0x1 PUSH1 0xA0 SHL SUB AND DUP8 MSTORE SWAP6 DUP3 ADD SWAP6 SWAP1 DUP3 ADD SWAP1 PUSH1 0x1 ADD PUSH2 0x23E5 JUMP JUMPDEST POP SWAP5 SWAP6 SWAP5 POP POP POP POP POP JUMP JUMPDEST PUSH1 0x0 DUP2 MLOAD DUP1 DUP5 MSTORE PUSH1 0x20 DUP1 DUP6 ADD SWAP5 POP DUP1 DUP5 ADD PUSH1 0x0 JUMPDEST DUP4 DUP2 LT ISZERO PUSH2 0x240A JUMPI DUP2 MLOAD PUSH1 0xFF AND DUP8 MSTORE SWAP6 DUP3 ADD SWAP6 SWAP1 DUP3 ADD SWAP1 PUSH1 0x1 ADD PUSH2 0x2429 JUMP JUMPDEST PUSH1 0x80 DUP2 MSTORE PUSH1 0x0 DUP6 MLOAD PUSH2 0x1A0 DUP1 PUSH1 0x80 DUP6 ADD MSTORE PUSH2 0x2467 PUSH2 0x220 DUP6 ADD DUP4 PUSH2 0x238B JUMP JUMPDEST SWAP2 POP PUSH1 0x20 DUP9 ADD MLOAD PUSH1 0x7F NOT DUP1 DUP7 DUP6 SUB ADD PUSH1 0xA0 DUP8 ADD MSTORE PUSH2 0x2485 DUP5 DUP4 PUSH2 0x238B JUMP JUMPDEST SWAP4 POP PUSH1 0x40 DUP11 ADD MLOAD SWAP2 POP PUSH2 0x24A3 PUSH1 0xC0 DUP8 ADD DUP4 PUSH1 0x1 PUSH1 0x1 PUSH1 0xA0 SHL SUB AND SWAP1 MSTORE JUMP JUMPDEST PUSH1 0x60 DUP11 ADD MLOAD SWAP2 POP DUP1 DUP7 DUP6 SUB ADD PUSH1 0xE0 DUP8 ADD MSTORE PUSH2 0x24BE DUP5 DUP4 PUSH2 0x238B JUMP JUMPDEST SWAP4 POP PUSH1 0x80 DUP11 ADD MLOAD SWAP2 POP PUSH2 0x100 PUSH2 0x24D7 DUP2 DUP9 ADD DUP5 ISZERO ISZERO SWAP1 MSTORE JUMP JUMPDEST PUSH1 0xA0 DUP12 ADD MLOAD SWAP3 POP PUSH2 0x120 PUSH2 0x24F2 DUP2 DUP10 ADD DUP6 PUSH4 0xFFFFFFFF AND SWAP1 MSTORE JUMP JUMPDEST PUSH1 0xC0 DUP13 ADD MLOAD SWAP4 POP PUSH2 0x140 PUSH2 0x2509 DUP2 DUP11 ADD DUP7 ISZERO ISZERO SWAP1 MSTORE JUMP JUMPDEST PUSH1 0xE0 DUP14 ADD MLOAD SWAP5 POP PUSH2 0x160 DUP5 DUP11 DUP10 SUB ADD DUP2 DUP12 ADD MSTORE PUSH2 0x2526 DUP9 DUP8 PUSH2 0x23D1 JUMP JUMPDEST SWAP8 POP DUP4 DUP15 ADD MLOAD SWAP6 POP PUSH2 0x180 SWAP4 POP DUP5 DUP11 DUP10 SUB ADD DUP5 DUP12 ADD MSTORE PUSH2 0x2546 DUP9 DUP8 PUSH2 0x23D1 JUMP JUMPDEST SWAP8 POP DUP3 DUP15 ADD MLOAD SWAP6 POP DUP5 DUP11 DUP10 SUB ADD DUP8 DUP12 ADD MSTORE PUSH2 0x2561 DUP9 DUP8 PUSH2 0x23D1 JUMP JUMPDEST SWAP8 POP DUP2 DUP15 ADD MLOAD SWAP7 POP DUP5 DUP11 DUP10 SUB ADD PUSH2 0x1C0 DUP12 ADD MSTORE PUSH2 0x257E DUP9 DUP9 PUSH2 0x23D1 JUMP JUMPDEST SWAP8 POP DUP1 DUP15 ADD MLOAD SWAP7 POP POP POP POP DUP2 DUP8 DUP7 SUB ADD PUSH2 0x1E0 DUP9 ADD MSTORE PUSH2 0x259E DUP6 DUP6 PUSH2 0x23D1 JUMP JUMPDEST SWAP5 POP DUP1 DUP12 ADD MLOAD SWAP4 POP POP POP POP PUSH2 0x25B9 PUSH2 0x200 DUP6 ADD DUP3 PUSH1 0xFF AND SWAP1 MSTORE JUMP JUMPDEST POP DUP6 PUSH1 0x20 DUP5 ADD MSTORE DUP3 DUP2 SUB PUSH1 0x40 DUP5 ADD MSTORE PUSH2 0x25D2 DUP2 DUP7 PUSH2 0x2415 JUMP JUMPDEST SWAP1 POP DUP3 DUP2 SUB PUSH1 0x60 DUP5 ADD MSTORE PUSH2 0x25E6 DUP2 DUP6 PUSH2 0x23D1 JUMP JUMPDEST SWAP8 SWAP7 POP POP POP POP POP POP POP JUMP JUMPDEST PUSH1 0x0 DUP1 PUSH1 0x40 DUP4 DUP6 SUB SLT ISZERO PUSH2 0x2604 JUMPI PUSH1 0x0 DUP1 REVERT JUMPDEST PUSH2 0x260D DUP4 PUSH2 0x2327 JUMP JUMPDEST SWAP2 POP PUSH1 0x20 DUP4 ADD MLOAD PUSH2 0x261D DUP2 PUSH2 0x22A6 JUMP JUMPDEST DUP1 SWAP2 POP POP SWAP3 POP SWAP3 SWAP1 POP JUMP JUMPDEST DUP1 DUP3 MUL DUP2 ISZERO DUP3 DUP3 DIV DUP5 EQ OR PUSH2 0x16A1 JUMPI PUSH4 0x4E487B71 PUSH1 0xE0 SHL PUSH1 0x0 MSTORE PUSH1 0x11 PUSH1 0x4 MSTORE PUSH1 0x24 PUSH1 0x0 REVERT JUMPDEST PUSH1 0x0 PUSH1 0x20 DUP3 DUP5 SUB SLT ISZERO PUSH2 0x265F JUMPI PUSH1 0x0 DUP1 REVERT JUMPDEST POP MLOAD SWAP2 SWAP1 POP JUMP JUMPDEST PUSH1 0x1 PUSH1 0x1 PUSH1 0xA0 SHL SUB SWAP5 DUP6 AND DUP2 MSTORE SWAP3 DUP5 AND PUSH1 0x20 DUP5 ADD MSTORE SWAP3 AND PUSH1 0x40 DUP3 ADD MSTORE PUSH1 0x60 DUP2 ADD SWAP2 SWAP1 SWAP2 MSTORE PUSH1 0x80 ADD SWAP1 JUMP JUMPDEST PUSH1 0x0 PUSH1 0x60 DUP3 ADD PUSH1 0x1 DUP1 PUSH1 0xA0 SHL SUB DUP7 AND DUP4 MSTORE PUSH1 0x20 DUP6 DUP2 DUP6 ADD MSTORE PUSH1 0x60 PUSH1 0x40 DUP6 ADD MSTORE DUP2 DUP6 MLOAD DUP1 DUP5 MSTORE PUSH1 0x80 DUP7 ADD SWAP2 POP PUSH1 0x80 DUP2 PUSH1 0x5 SHL DUP8 ADD ADD SWAP4 POP DUP3 DUP8 ADD PUSH1 0x0 JUMPDEST DUP3 DUP2 LT ISZERO PUSH2 0x26FA JUMPI PUSH1 0x7F NOT DUP9 DUP8 SUB ADD DUP5 MSTORE PUSH2 0x26E8 DUP7 DUP4 MLOAD PUSH2 0x238B JUMP JUMPDEST SWAP6 POP SWAP3 DUP5 ADD SWAP3 SWAP1 DUP5 ADD SWAP1 PUSH1 0x1 ADD PUSH2 0x26CC JUMP JUMPDEST POP SWAP4 SWAP10 SWAP9 POP POP POP POP POP POP POP POP POP JUMP JUMPDEST PUSH1 0x0 PUSH1 0x20 DUP3 DUP5 SUB SLT ISZERO PUSH2 0x271B JUMPI PUSH1 0x0 DUP1 REVERT JUMPDEST DUP2 MLOAD PUSH2 0x2286 DUP2 PUSH2 0x2258 JUMP INVALID LOG2 PUSH5 0x6970667358 0x22 SLT KECCAK256 0xBC PUSH26 0x50EC5FADEDD9B4F925BEE8F09183D860DFA366798C0A5311D968 0x4E 0xA8 PUSH26 0x4164736F6C634300081400330000000000000000000000000000 "},"methodIdentifiers":{"ADMIN()":"2a0acc6a","CLXY_RATIO()":"8d6be540","CLXY_TOKEN()":"1da965c2","HBAR_RATIO()":"4924190c","HTS_PRECOMPILE()":"4543873d","IS_SUPPLY_TYPE_INFINITE()":"e294204d","LYNX_TOKEN()":"e1e99576","SAUCE_RATIO()":"ef037593","SAUCE_TOKEN()":"1ec65c36","TOKEN_DECIMALS()":"5b7f415c","TOKEN_MAX_SUPPLY()":"8ee2c4b8","associateTokens()":"10ca0bce","burn(uint256)":"42966c68","calculateRequiredCLXY(uint256)":"92361927","calculateRequiredHBAR(uint256)":"6461e01a","calculateRequiredSAUCE(uint256)":"cab21a6a","checkAllowances(address,uint256)":"b0e4fe4f","checkSupplyKey()":"de579bc9","createLynxToken(string,string,string)":"1d12e296","debugAllowances(address)":"539e803f","getClxyRatio()":"853f51ad","getHbarRatio()":"739036b2","getSauceRatio()":"9057bb4a","getTokenAddresses()":"ee8c24b8","hasSupplyKey()":"331a4c20","mint(uint256)":"a0712d68","setLynxTokenId(address)":"85cb42d4","setSupplyKeyStatus(bool)":"335c3fe8","setTokenService(address)":"4bb3c9cf","testClxyAllowance(uint256)":"702c3c24","updateRatios(uint256,uint256,uint256)":"30d0a66c","updateSupplyKeyStatus()":"c2f4bfaf"}}}}}