{"src/app/contracts/MockHederaTokenService.sol":{"MockHederaTokenService":{"abi":[{"inputs":[{"internalType":"address","name":"token","type":"address"},{"internalType":"address","name":"owner","type":"address"},{"internalType":"address","name":"spender","type":"address"}],"name":"allowance","outputs":[{"internalType":"uint256","name":"","type":"uint256"}],"stateMutability":"view","type":"function"},{"inputs":[{"internalType":"address","name":"account","type":"address"},{"internalType":"address","name":"token","type":"address"}],"name":"associateToken","outputs":[{"internalType":"int64","name":"","type":"int64"}],"stateMutability":"nonpayable","type":"function"},{"inputs":[{"internalType":"address","name":"token","type":"address"},{"internalType":"address","name":"account","type":"address"}],"name":"balanceOf","outputs":[{"internalType":"uint256","name":"","type":"uint256"}],"stateMutability":"view","type":"function"},{"inputs":[{"internalType":"address","name":"token","type":"address"},{"internalType":"uint256","name":"amount","type":"uint256"},{"internalType":"bytes[]","name":"","type":"bytes[]"}],"name":"burnToken","outputs":[{"internalType":"int64","name":"","type":"int64"}],"stateMutability":"nonpayable","type":"function"},{"inputs":[],"name":"getMockHtsPrecompile","outputs":[{"internalType":"address","name":"","type":"address"}],"stateMutability":"view","type":"function"},{"inputs":[{"internalType":"address","name":"account","type":"address"},{"internalType":"address","name":"token","type":"address"}],"name":"isTokenAssociated","outputs":[{"internalType":"bool","name":"","type":"bool"}],"stateMutability":"view","type":"function"},{"inputs":[{"internalType":"address","name":"token","type":"address"},{"internalType":"uint256","name":"amount","type":"uint256"},{"internalType":"bytes[]","name":"","type":"bytes[]"}],"name":"mintToken","outputs":[{"internalType":"int64","name":"","type":"int64"}],"stateMutability":"nonpayable","type":"function"},{"inputs":[{"internalType":"address","name":"token","type":"address"},{"internalType":"address","name":"owner","type":"address"},{"internalType":"address","name":"spender","type":"address"},{"internalType":"uint256","name":"amount","type":"uint256"}],"name":"setAllowance","outputs":[],"stateMutability":"nonpayable","type":"function"},{"inputs":[{"internalType":"address","name":"token","type":"address"},{"internalType":"address","name":"account","type":"address"},{"internalType":"uint256","name":"amount","type":"uint256"}],"name":"setBalance","outputs":[],"stateMutability":"nonpayable","type":"function"},{"inputs":[{"internalType":"address","name":"_mockHtsPrecompile","type":"address"}],"name":"setMockHtsPrecompile","outputs":[],"stateMutability":"nonpayable","type":"function"},{"inputs":[{"internalType":"address","name":"account","type":"address"},{"internalType":"address","name":"token","type":"address"},{"internalType":"bool","name":"associated","type":"bool"}],"name":"setTokenAssociated","outputs":[],"stateMutability":"nonpayable","type":"function"},{"inputs":[{"internalType":"address","name":"token","type":"address"},{"internalType":"address","name":"from","type":"address"},{"internalType":"address","name":"to","type":"address"},{"internalType":"uint256","name":"amount","type":"uint256"}],"name":"transferToken","outputs":[{"internalType":"int64","name":"","type":"int64"}],"stateMutability":"nonpayable","type":"function"},{"stateMutability":"payable","type":"receive"}],"evm":{"bytecode":{"linkReferences":{},"object":"608060405234801561000f575f80fd5b506108d38061001d5f395ff3fe6080604052600436106100a8575f3560e01c8063a707037311610062578063a707037314610221578063a7796a901461026f578063b5c9cbbe146102c2578063ec12dc0214610305578063f3fc76fa14610324578063f7888aec14610343575f80fd5b806303bd8900146100b357806324a94e01146100f15780632c54de4f1461011d57806349146bde1461014f578063725fe8a41461016e578063927da105146101c5575f80fd5b366100af57005b5f80fd5b3480156100be575f80fd5b506100ef6100cd36600461059b565b600380546001600160a01b0319166001600160a01b0392909216919091179055565b005b3480156100fc575f80fd5b506003546040516001600160a01b0390911681526020015b60405180910390f35b348015610128575f80fd5b5061013c6101373660046105bb565b610385565b60405160079190910b8152602001610114565b34801561015a575f80fd5b5061013c610169366004610603565b610471565b348015610179575f80fd5b506101b5610188366004610603565b6001600160a01b039182165f90815260026020908152604080832093909416825291909152205460ff1690565b6040519015158152602001610114565b3480156101d0575f80fd5b506102136101df366004610634565b6001600160a01b039283165f9081526001602090815260408083209486168352938152838220929094168152925290205490565b604051908152602001610114565b34801561022c575f80fd5b506100ef61023b3660046105bb565b6001600160a01b039384165f9081526001602090815260408083209587168352948152848220939095168152919093522055565b34801561027a575f80fd5b506100ef610289366004610674565b6001600160a01b039283165f90815260026020908152604080832094909516825292909252919020805460ff1916911515919091179055565b3480156102cd575f80fd5b506100ef6102dc3660046106bc565b6001600160a01b039283165f908152602081815260408083209490951682529290925291902055565b348015610310575f80fd5b5061013c61031f36600461073a565b6104a9565b34801561032f575f80fd5b5061013c61033e36600461073a565b6104e9565b34801561034e575f80fd5b5061021361035d366004610603565b6001600160a01b039182165f9081526020818152604080832093909416825291909152205490565b6001600160a01b038085165f908152602081815260408083209387168352929052908120548211156103f55760405162461bcd60e51b8152602060048201526014602482015273496e73756666696369656e742062616c616e636560601b60448201526064015b60405180910390fd5b6001600160a01b038086165f9081526020818152604080832093881683529290529081208054849290610429908490610877565b90915550506001600160a01b038086165f908152602081815260408083209387168352929052908120805484929061046290849061088a565b909155505f9695505050505050565b6001600160a01b038083165f9081526002602090815260408083209385168352929052908120805460ff191660011790555b92915050565b6001600160a01b0383165f908152602081815260408083203384529091528120805484919083906104db90849061088a565b909155505f95945050505050565b6001600160a01b0383165f908152602081815260408083203384529091528120548311156105505760405162461bcd60e51b8152602060048201526014602482015273496e73756666696369656e742062616c616e636560601b60448201526064016103ec565b6001600160a01b0384165f90815260208181526040808320338452909152812080548592906104db908490610877565b80356001600160a01b0381168114610596575f80fd5b919050565b5f602082840312156105ab575f80fd5b6105b482610580565b9392505050565b5f805f80608085870312156105ce575f80fd5b6105d785610580565b93506105e560208601610580565b92506105f360408601610580565b9396929550929360600135925050565b5f8060408385031215610614575f80fd5b61061d83610580565b915061062b60208401610580565b90509250929050565b5f805f60608486031215610646575f80fd5b61064f84610580565b925061065d60208501610580565b915061066b60408501610580565b90509250925092565b5f805f60608486031215610686575f80fd5b61068f84610580565b925061069d60208501610580565b9150604084013580151581146106b1575f80fd5b809150509250925092565b5f805f606084860312156106ce575f80fd5b6106d784610580565b92506106e560208501610580565b9150604084013590509250925092565b634e487b7160e01b5f52604160045260245ffd5b604051601f8201601f1916810167ffffffffffffffff81118282101715610732576107326106f5565b604052919050565b5f805f6060848603121561074c575f80fd5b61075584610580565b9250602080850135925060408086013567ffffffffffffffff8082111561077a575f80fd5b818801915088601f83011261078d575f80fd5b81358181111561079f5761079f6106f5565b8060051b6107ae868201610709565b918252838101860191868101908c8411156107c7575f80fd5b87860192505b83831015610851578235858111156107e4575f8081fd5b8601603f81018e136107f5575f8081fd5b8881013586811115610809576108096106f5565b61081b601f8201601f19168b01610709565b8181528f8a83850101111561082f575f8081fd5b818a84018c8301375f9181018b019190915283525091870191908701906107cd565b80985050505050505050509250925092565b634e487b7160e01b5f52601160045260245ffd5b818103818111156104a3576104a3610863565b808201808211156104a3576104a361086356fea2646970667358221220a7208ca050b9b4c770c278dd4ac9af33239f855e2515b3c5796ad36f2c6e0ed364736f6c63430008140033","opcodes":"PUSH1 0x80 PUSH1 0x40 MSTORE CALLVALUE DUP1 ISZERO PUSH2 0xF JUMPI PUSH0 DUP1 REVERT JUMPDEST POP PUSH2 0x8D3 DUP1 PUSH2 0x1D PUSH0 CODECOPY PUSH0 RETURN INVALID PUSH1 0x80 PUSH1 0x40 MSTORE PUSH1 0x4 CALLDATASIZE LT PUSH2 0xA8 JUMPI PUSH0 CALLDATALOAD PUSH1 0xE0 SHR DUP1 PUSH4 0xA7070373 GT PUSH2 0x62 JUMPI DUP1 PUSH4 0xA7070373 EQ PUSH2 0x221 JUMPI DUP1 PUSH4 0xA7796A90 EQ PUSH2 0x26F JUMPI DUP1 PUSH4 0xB5C9CBBE EQ PUSH2 0x2C2 JUMPI DUP1 PUSH4 0xEC12DC02 EQ PUSH2 0x305 JUMPI DUP1 PUSH4 0xF3FC76FA EQ PUSH2 0x324 JUMPI DUP1 PUSH4 0xF7888AEC EQ PUSH2 0x343 JUMPI PUSH0 DUP1 REVERT JUMPDEST DUP1 PUSH4 0x3BD8900 EQ PUSH2 0xB3 JUMPI DUP1 PUSH4 0x24A94E01 EQ PUSH2 0xF1 JUMPI DUP1 PUSH4 0x2C54DE4F EQ PUSH2 0x11D JUMPI DUP1 PUSH4 0x49146BDE EQ PUSH2 0x14F JUMPI DUP1 PUSH4 0x725FE8A4 EQ PUSH2 0x16E JUMPI DUP1 PUSH4 0x927DA105 EQ PUSH2 0x1C5 JUMPI PUSH0 DUP1 REVERT JUMPDEST CALLDATASIZE PUSH2 0xAF JUMPI STOP JUMPDEST PUSH0 DUP1 REVERT JUMPDEST CALLVALUE DUP1 ISZERO PUSH2 0xBE JUMPI PUSH0 DUP1 REVERT JUMPDEST POP PUSH2 0xEF PUSH2 0xCD CALLDATASIZE PUSH1 0x4 PUSH2 0x59B JUMP JUMPDEST PUSH1 0x3 DUP1 SLOAD PUSH1 0x1 PUSH1 0x1 PUSH1 0xA0 SHL SUB NOT AND PUSH1 0x1 PUSH1 0x1 PUSH1 0xA0 SHL SUB SWAP3 SWAP1 SWAP3 AND SWAP2 SWAP1 SWAP2 OR SWAP1 SSTORE JUMP JUMPDEST STOP JUMPDEST CALLVALUE DUP1 ISZERO PUSH2 0xFC JUMPI PUSH0 DUP1 REVERT JUMPDEST POP PUSH1 0x3 SLOAD PUSH1 0x40 MLOAD PUSH1 0x1 PUSH1 0x1 PUSH1 0xA0 SHL SUB SWAP1 SWAP2 AND DUP2 MSTORE PUSH1 0x20 ADD JUMPDEST PUSH1 0x40 MLOAD DUP1 SWAP2 SUB SWAP1 RETURN JUMPDEST CALLVALUE DUP1 ISZERO PUSH2 0x128 JUMPI PUSH0 DUP1 REVERT JUMPDEST POP PUSH2 0x13C PUSH2 0x137 CALLDATASIZE PUSH1 0x4 PUSH2 0x5BB JUMP JUMPDEST PUSH2 0x385 JUMP JUMPDEST PUSH1 0x40 MLOAD PUSH1 0x7 SWAP2 SWAP1 SWAP2 SIGNEXTEND DUP2 MSTORE PUSH1 0x20 ADD PUSH2 0x114 JUMP JUMPDEST CALLVALUE DUP1 ISZERO PUSH2 0x15A JUMPI PUSH0 DUP1 REVERT JUMPDEST POP PUSH2 0x13C PUSH2 0x169 CALLDATASIZE PUSH1 0x4 PUSH2 0x603 JUMP JUMPDEST PUSH2 0x471 JUMP JUMPDEST CALLVALUE DUP1 ISZERO PUSH2 0x179 JUMPI PUSH0 DUP1 REVERT JUMPDEST POP PUSH2 0x1B5 PUSH2 0x188 CALLDATASIZE PUSH1 0x4 PUSH2 0x603 JUMP JUMPDEST PUSH1 0x1 PUSH1 0x1 PUSH1 0xA0 SHL SUB SWAP2 DUP3 AND PUSH0 SWAP1 DUP2 MSTORE PUSH1 0x2 PUSH1 0x20 SWAP1 DUP2 MSTORE PUSH1 0x40 DUP1 DUP4 KECCAK256 SWAP4 SWAP1 SWAP5 AND DUP3 MSTORE SWAP2 SWAP1 SWAP2 MSTORE KECCAK256 SLOAD PUSH1 0xFF AND SWAP1 JUMP JUMPDEST PUSH1 0x40 MLOAD SWAP1 ISZERO ISZERO DUP2 MSTORE PUSH1 0x20 ADD PUSH2 0x114 JUMP JUMPDEST CALLVALUE DUP1 ISZERO PUSH2 0x1D0 JUMPI PUSH0 DUP1 REVERT JUMPDEST POP PUSH2 0x213 PUSH2 0x1DF CALLDATASIZE PUSH1 0x4 PUSH2 0x634 JUMP JUMPDEST PUSH1 0x1 PUSH1 0x1 PUSH1 0xA0 SHL SUB SWAP3 DUP4 AND PUSH0 SWAP1 DUP2 MSTORE PUSH1 0x1 PUSH1 0x20 SWAP1 DUP2 MSTORE PUSH1 0x40 DUP1 DUP4 KECCAK256 SWAP5 DUP7 AND DUP4 MSTORE SWAP4 DUP2 MSTORE DUP4 DUP3 KECCAK256 SWAP3 SWAP1 SWAP5 AND DUP2 MSTORE SWAP3 MSTORE SWAP1 KECCAK256 SLOAD SWAP1 JUMP JUMPDEST PUSH1 0x40 MLOAD SWAP1 DUP2 MSTORE PUSH1 0x20 ADD PUSH2 0x114 JUMP JUMPDEST CALLVALUE DUP1 ISZERO PUSH2 0x22C JUMPI PUSH0 DUP1 REVERT JUMPDEST POP PUSH2 0xEF PUSH2 0x23B CALLDATASIZE PUSH1 0x4 PUSH2 0x5BB JUMP JUMPDEST PUSH1 0x1 PUSH1 0x1 PUSH1 0xA0 SHL SUB SWAP4 DUP5 AND PUSH0 SWAP1 DUP2 MSTORE PUSH1 0x1 PUSH1 0x20 SWAP1 DUP2 MSTORE PUSH1 0x40 DUP1 DUP4 KECCAK256 SWAP6 DUP8 AND DUP4 MSTORE SWAP5 DUP2 MSTORE DUP5 DUP3 KECCAK256 SWAP4 SWAP1 SWAP6 AND DUP2 MSTORE SWAP2 SWAP1 SWAP4 MSTORE KECCAK256 SSTORE JUMP JUMPDEST CALLVALUE DUP1 ISZERO PUSH2 0x27A JUMPI PUSH0 DUP1 REVERT JUMPDEST POP PUSH2 0xEF PUSH2 0x289 CALLDATASIZE PUSH1 0x4 PUSH2 0x674 JUMP JUMPDEST PUSH1 0x1 PUSH1 0x1 PUSH1 0xA0 SHL SUB SWAP3 DUP4 AND PUSH0 SWAP1 DUP2 MSTORE PUSH1 0x2 PUSH1 0x20 SWAP1 DUP2 MSTORE PUSH1 0x40 DUP1 DUP4 KECCAK256 SWAP5 SWAP1 SWAP6 AND DUP3 MSTORE SWAP3 SWAP1 SWAP3 MSTORE SWAP2 SWAP1 KECCAK256 DUP1 SLOAD PUSH1 0xFF NOT AND SWAP2 ISZERO ISZERO SWAP2 SWAP1 SWAP2 OR SWAP1 SSTORE JUMP JUMPDEST CALLVALUE DUP1 ISZERO PUSH2 0x2CD JUMPI PUSH0 DUP1 REVERT JUMPDEST POP PUSH2 0xEF PUSH2 0x2DC CALLDATASIZE PUSH1 0x4 PUSH2 0x6BC JUMP JUMPDEST PUSH1 0x1 PUSH1 0x1 PUSH1 0xA0 SHL SUB SWAP3 DUP4 AND PUSH0 SWAP1 DUP2 MSTORE PUSH1 0x20 DUP2 DUP2 MSTORE PUSH1 0x40 DUP1 DUP4 KECCAK256 SWAP5 SWAP1 SWAP6 AND DUP3 MSTORE SWAP3 SWAP1 SWAP3 MSTORE SWAP2 SWAP1 KECCAK256 SSTORE JUMP JUMPDEST CALLVALUE DUP1 ISZERO PUSH2 0x310 JUMPI PUSH0 DUP1 REVERT JUMPDEST POP PUSH2 0x13C PUSH2 0x31F CALLDATASIZE PUSH1 0x4 PUSH2 0x73A JUMP JUMPDEST PUSH2 0x4A9 JUMP JUMPDEST CALLVALUE DUP1 ISZERO PUSH2 0x32F JUMPI PUSH0 DUP1 REVERT JUMPDEST POP PUSH2 0x13C PUSH2 0x33E CALLDATASIZE PUSH1 0x4 PUSH2 0x73A JUMP JUMPDEST PUSH2 0x4E9 JUMP JUMPDEST CALLVALUE DUP1 ISZERO PUSH2 0x34E JUMPI PUSH0 DUP1 REVERT JUMPDEST POP PUSH2 0x213 PUSH2 0x35D CALLDATASIZE PUSH1 0x4 PUSH2 0x603 JUMP JUMPDEST PUSH1 0x1 PUSH1 0x1 PUSH1 0xA0 SHL SUB SWAP2 DUP3 AND PUSH0 SWAP1 DUP2 MSTORE PUSH1 0x20 DUP2 DUP2 MSTORE PUSH1 0x40 DUP1 DUP4 KECCAK256 SWAP4 SWAP1 SWAP5 AND DUP3 MSTORE SWAP2 SWAP1 SWAP2 MSTORE KECCAK256 SLOAD SWAP1 JUMP JUMPDEST PUSH1 0x1 PUSH1 0x1 PUSH1 0xA0 SHL SUB DUP1 DUP6 AND PUSH0 SWAP1 DUP2 MSTORE PUSH1 0x20 DUP2 DUP2 MSTORE PUSH1 0x40 DUP1 DUP4 KECCAK256 SWAP4 DUP8 AND DUP4 MSTORE SWAP3 SWAP1 MSTORE SWAP1 DUP2 KECCAK256 SLOAD DUP3 GT ISZERO PUSH2 0x3F5 JUMPI PUSH1 0x40 MLOAD PUSH3 0x461BCD PUSH1 0xE5 SHL DUP2 MSTORE PUSH1 0x20 PUSH1 0x4 DUP3 ADD MSTORE PUSH1 0x14 PUSH1 0x24 DUP3 ADD MSTORE PUSH20 0x496E73756666696369656E742062616C616E6365 PUSH1 0x60 SHL PUSH1 0x44 DUP3 ADD MSTORE PUSH1 0x64 ADD JUMPDEST PUSH1 0x40 MLOAD DUP1 SWAP2 SUB SWAP1 REVERT JUMPDEST PUSH1 0x1 PUSH1 0x1 PUSH1 0xA0 SHL SUB DUP1 DUP7 AND PUSH0 SWAP1 DUP2 MSTORE PUSH1 0x20 DUP2 DUP2 MSTORE PUSH1 0x40 DUP1 DUP4 KECCAK256 SWAP4 DUP9 AND DUP4 MSTORE SWAP3 SWAP1 MSTORE SWAP1 DUP2 KECCAK256 DUP1 SLOAD DUP5 SWAP3 SWAP1 PUSH2 0x429 SWAP1 DUP5 SWAP1 PUSH2 0x877 JUMP JUMPDEST SWAP1 SWAP2 SSTORE POP POP PUSH1 0x1 PUSH1 0x1 PUSH1 0xA0 SHL SUB DUP1 DUP7 AND PUSH0 SWAP1 DUP2 MSTORE PUSH1 0x20 DUP2 DUP2 MSTORE PUSH1 0x40 DUP1 DUP4 KECCAK256 SWAP4 DUP8 AND DUP4 MSTORE SWAP3 SWAP1 MSTORE SWAP1 DUP2 KECCAK256 DUP1 SLOAD DUP5 SWAP3 SWAP1 PUSH2 0x462 SWAP1 DUP5 SWAP1 PUSH2 0x88A JUMP JUMPDEST SWAP1 SWAP2 SSTORE POP PUSH0 SWAP7 SWAP6 POP POP POP POP POP POP JUMP JUMPDEST PUSH1 0x1 PUSH1 0x1 PUSH1 0xA0 SHL SUB DUP1 DUP4 AND PUSH0 SWAP1 DUP2 MSTORE PUSH1 0x2 PUSH1 0x20 SWAP1 DUP2 MSTORE PUSH1 0x40 DUP1 DUP4 KECCAK256 SWAP4 DUP6 AND DUP4 MSTORE SWAP3 SWAP1 MSTORE SWAP1 DUP2 KECCAK256 DUP1 SLOAD PUSH1 0xFF NOT AND PUSH1 0x1 OR SWAP1 SSTORE JUMPDEST SWAP3 SWAP2 POP POP JUMP JUMPDEST PUSH1 0x1 PUSH1 0x1 PUSH1 0xA0 SHL SUB DUP4 AND PUSH0 SWAP1 DUP2 MSTORE PUSH1 0x20 DUP2 DUP2 MSTORE PUSH1 0x40 DUP1 DUP4 KECCAK256 CALLER DUP5 MSTORE SWAP1 SWAP2 MSTORE DUP2 KECCAK256 DUP1 SLOAD DUP5 SWAP2 SWAP1 DUP4 SWAP1 PUSH2 0x4DB SWAP1 DUP5 SWAP1 PUSH2 0x88A JUMP JUMPDEST SWAP1 SWAP2 SSTORE POP PUSH0 SWAP6 SWAP5 POP POP POP POP POP JUMP JUMPDEST PUSH1 0x1 PUSH1 0x1 PUSH1 0xA0 SHL SUB DUP4 AND PUSH0 SWAP1 DUP2 MSTORE PUSH1 0x20 DUP2 DUP2 MSTORE PUSH1 0x40 DUP1 DUP4 KECCAK256 CALLER DUP5 MSTORE SWAP1 SWAP2 MSTORE DUP2 KECCAK256 SLOAD DUP4 GT ISZERO PUSH2 0x550 JUMPI PUSH1 0x40 MLOAD PUSH3 0x461BCD PUSH1 0xE5 SHL DUP2 MSTORE PUSH1 0x20 PUSH1 0x4 DUP3 ADD MSTORE PUSH1 0x14 PUSH1 0x24 DUP3 ADD MSTORE PUSH20 0x496E73756666696369656E742062616C616E6365 PUSH1 0x60 SHL PUSH1 0x44 DUP3 ADD MSTORE PUSH1 0x64 ADD PUSH2 0x3EC JUMP JUMPDEST PUSH1 0x1 PUSH1 0x1 PUSH1 0xA0 SHL SUB DUP5 AND PUSH0 SWAP1 DUP2 MSTORE PUSH1 0x20 DUP2 DUP2 MSTORE PUSH1 0x40 DUP1 DUP4 KECCAK256 CALLER DUP5 MSTORE SWAP1 SWAP2 MSTORE DUP2 KECCAK256 DUP1 SLOAD DUP6 SWAP3 SWAP1 PUSH2 0x4DB SWAP1 DUP5 SWAP1 PUSH2 0x877 JUMP JUMPDEST DUP1 CALLDATALOAD PUSH1 0x1 PUSH1 0x1 PUSH1 0xA0 SHL SUB DUP2 AND DUP2 EQ PUSH2 0x596 JUMPI PUSH0 DUP1 REVERT JUMPDEST SWAP2 SWAP1 POP JUMP JUMPDEST PUSH0 PUSH1 0x20 DUP3 DUP5 SUB SLT ISZERO PUSH2 0x5AB JUMPI PUSH0 DUP1 REVERT JUMPDEST PUSH2 0x5B4 DUP3 PUSH2 0x580 JUMP JUMPDEST SWAP4 SWAP3 POP POP POP JUMP JUMPDEST PUSH0 DUP1 PUSH0 DUP1 PUSH1 0x80 DUP6 DUP8 SUB SLT ISZERO PUSH2 0x5CE JUMPI PUSH0 DUP1 REVERT JUMPDEST PUSH2 0x5D7 DUP6 PUSH2 0x580 JUMP JUMPDEST SWAP4 POP PUSH2 0x5E5 PUSH1 0x20 DUP7 ADD PUSH2 0x580 JUMP JUMPDEST SWAP3 POP PUSH2 0x5F3 PUSH1 0x40 DUP7 ADD PUSH2 0x580 JUMP JUMPDEST SWAP4 SWAP7 SWAP3 SWAP6 POP SWAP3 SWAP4 PUSH1 0x60 ADD CALLDATALOAD SWAP3 POP POP JUMP JUMPDEST PUSH0 DUP1 PUSH1 0x40 DUP4 DUP6 SUB SLT ISZERO PUSH2 0x614 JUMPI PUSH0 DUP1 REVERT JUMPDEST PUSH2 0x61D DUP4 PUSH2 0x580 JUMP JUMPDEST SWAP2 POP PUSH2 0x62B PUSH1 0x20 DUP5 ADD PUSH2 0x580 JUMP JUMPDEST SWAP1 POP SWAP3 POP SWAP3 SWAP1 POP JUMP JUMPDEST PUSH0 DUP1 PUSH0 PUSH1 0x60 DUP5 DUP7 SUB SLT ISZERO PUSH2 0x646 JUMPI PUSH0 DUP1 REVERT JUMPDEST PUSH2 0x64F DUP5 PUSH2 0x580 JUMP JUMPDEST SWAP3 POP PUSH2 0x65D PUSH1 0x20 DUP6 ADD PUSH2 0x580 JUMP JUMPDEST SWAP2 POP PUSH2 0x66B PUSH1 0x40 DUP6 ADD PUSH2 0x580 JUMP JUMPDEST SWAP1 POP SWAP3 POP SWAP3 POP SWAP3 JUMP JUMPDEST PUSH0 DUP1 PUSH0 PUSH1 0x60 DUP5 DUP7 SUB SLT ISZERO PUSH2 0x686 JUMPI PUSH0 DUP1 REVERT JUMPDEST PUSH2 0x68F DUP5 PUSH2 0x580 JUMP JUMPDEST SWAP3 POP PUSH2 0x69D PUSH1 0x20 DUP6 ADD PUSH2 0x580 JUMP JUMPDEST SWAP2 POP PUSH1 0x40 DUP5 ADD CALLDATALOAD DUP1 ISZERO ISZERO DUP2 EQ PUSH2 0x6B1 JUMPI PUSH0 DUP1 REVERT JUMPDEST DUP1 SWAP2 POP POP SWAP3 POP SWAP3 POP SWAP3 JUMP JUMPDEST PUSH0 DUP1 PUSH0 PUSH1 0x60 DUP5 DUP7 SUB SLT ISZERO PUSH2 0x6CE JUMPI PUSH0 DUP1 REVERT JUMPDEST PUSH2 0x6D7 DUP5 PUSH2 0x580 JUMP JUMPDEST SWAP3 POP PUSH2 0x6E5 PUSH1 0x20 DUP6 ADD PUSH2 0x580 JUMP JUMPDEST SWAP2 POP PUSH1 0x40 DUP5 ADD CALLDATALOAD SWAP1 POP SWAP3 POP SWAP3 POP SWAP3 JUMP JUMPDEST PUSH4 0x4E487B71 PUSH1 0xE0 SHL PUSH0 MSTORE PUSH1 0x41 PUSH1 0x4 MSTORE PUSH1 0x24 PUSH0 REVERT JUMPDEST PUSH1 0x40 MLOAD PUSH1 0x1F DUP3 ADD PUSH1 0x1F NOT AND DUP2 ADD PUSH8 0xFFFFFFFFFFFFFFFF DUP2 GT DUP3 DUP3 LT OR ISZERO PUSH2 0x732 JUMPI PUSH2 0x732 PUSH2 0x6F5 JUMP JUMPDEST PUSH1 0x40 MSTORE SWAP2 SWAP1 POP JUMP JUMPDEST PUSH0 DUP1 PUSH0 PUSH1 0x60 DUP5 DUP7 SUB SLT ISZERO PUSH2 0x74C JUMPI PUSH0 DUP1 REVERT JUMPDEST PUSH2 0x755 DUP5 PUSH2 0x580 JUMP JUMPDEST SWAP3 POP PUSH1 0x20 DUP1 DUP6 ADD CALLDATALOAD SWAP3 POP PUSH1 0x40 DUP1 DUP7 ADD CALLDATALOAD PUSH8 0xFFFFFFFFFFFFFFFF DUP1 DUP3 GT ISZERO PUSH2 0x77A JUMPI PUSH0 DUP1 REVERT JUMPDEST DUP2 DUP9 ADD SWAP2 POP DUP9 PUSH1 0x1F DUP4 ADD SLT PUSH2 0x78D JUMPI PUSH0 DUP1 REVERT JUMPDEST DUP2 CALLDATALOAD DUP2 DUP2 GT ISZERO PUSH2 0x79F JUMPI PUSH2 0x79F PUSH2 0x6F5 JUMP JUMPDEST DUP1 PUSH1 0x5 SHL PUSH2 0x7AE DUP7 DUP3 ADD PUSH2 0x709 JUMP JUMPDEST SWAP2 DUP3 MSTORE DUP4 DUP2 ADD DUP7 ADD SWAP2 DUP7 DUP2 ADD SWAP1 DUP13 DUP5 GT ISZERO PUSH2 0x7C7 JUMPI PUSH0 DUP1 REVERT JUMPDEST DUP8 DUP7 ADD SWAP3 POP JUMPDEST DUP4 DUP4 LT ISZERO PUSH2 0x851 JUMPI DUP3 CALLDATALOAD DUP6 DUP2 GT ISZERO PUSH2 0x7E4 JUMPI PUSH0 DUP1 DUP2 REVERT JUMPDEST DUP7 ADD PUSH1 0x3F DUP2 ADD DUP15 SGT PUSH2 0x7F5 JUMPI PUSH0 DUP1 DUP2 REVERT JUMPDEST DUP9 DUP2 ADD CALLDATALOAD DUP7 DUP2 GT ISZERO PUSH2 0x809 JUMPI PUSH2 0x809 PUSH2 0x6F5 JUMP JUMPDEST PUSH2 0x81B PUSH1 0x1F DUP3 ADD PUSH1 0x1F NOT AND DUP12 ADD PUSH2 0x709 JUMP JUMPDEST DUP2 DUP2 MSTORE DUP16 DUP11 DUP4 DUP6 ADD ADD GT ISZERO PUSH2 0x82F JUMPI PUSH0 DUP1 DUP2 REVERT JUMPDEST DUP2 DUP11 DUP5 ADD DUP13 DUP4 ADD CALLDATACOPY PUSH0 SWAP2 DUP2 ADD DUP12 ADD SWAP2 SWAP1 SWAP2 MSTORE DUP4 MSTORE POP SWAP2 DUP8 ADD SWAP2 SWAP1 DUP8 ADD SWAP1 PUSH2 0x7CD JUMP JUMPDEST DUP1 SWAP9 POP POP POP POP POP POP POP POP POP SWAP3 POP SWAP3 POP SWAP3 JUMP JUMPDEST PUSH4 0x4E487B71 PUSH1 0xE0 SHL PUSH0 MSTORE PUSH1 0x11 PUSH1 0x4 MSTORE PUSH1 0x24 PUSH0 REVERT JUMPDEST DUP2 DUP2 SUB DUP2 DUP2 GT ISZERO PUSH2 0x4A3 JUMPI PUSH2 0x4A3 PUSH2 0x863 JUMP JUMPDEST DUP1 DUP3 ADD DUP1 DUP3 GT ISZERO PUSH2 0x4A3 JUMPI PUSH2 0x4A3 PUSH2 0x863 JUMP INVALID LOG2 PUSH5 0x6970667358 0x22 SLT KECCAK256 0xA7 KECCAK256 DUP13 LOG0 POP 0xB9 0xB4 0xC7 PUSH17 0xC278DD4AC9AF33239F855E2515B3C5796A 0xD3 PUSH16 0x2C6E0ED364736F6C6343000814003300 "},"methodIdentifiers":{"allowance(address,address,address)":"927da105","associateToken(address,address)":"49146bde","balanceOf(address,address)":"f7888aec","burnToken(address,uint256,bytes[])":"f3fc76fa","getMockHtsPrecompile()":"24a94e01","isTokenAssociated(address,address)":"725fe8a4","mintToken(address,uint256,bytes[])":"ec12dc02","setAllowance(address,address,address,uint256)":"a7070373","setBalance(address,address,uint256)":"b5c9cbbe","setMockHtsPrecompile(address)":"03bd8900","setTokenAssociated(address,address,bool)":"a7796a90","transferToken(address,address,address,uint256)":"2c54de4f"}}}}}