{"src/app/contracts/LynxMinter.sol":{"LynxMinter":{"abi":[{"inputs":[{"internalType":"address","name":"lynxToken","type":"address"},{"internalType":"address","name":"sauceToken","type":"address"},{"internalType":"address","name":"clxyToken","type":"address"}],"stateMutability":"nonpayable","type":"constructor"},{"inputs":[],"name":"HbarTransferFailed","type":"error"},{"inputs":[{"internalType":"uint256","name":"allowance","type":"uint256"},{"internalType":"uint256","name":"required","type":"uint256"}],"name":"InsufficientClxyAllowance","type":"error"},{"inputs":[{"internalType":"address","name":"token","type":"address"},{"internalType":"uint256","name":"balance","type":"uint256"},{"internalType":"uint256","name":"required","type":"uint256"}],"name":"InsufficientContractBalance","type":"error"},{"inputs":[{"internalType":"uint256","name":"allowance","type":"uint256"},{"internalType":"uint256","name":"required","type":"uint256"}],"name":"InsufficientLynxAllowance","type":"error"},{"inputs":[{"internalType":"uint256","name":"allowance","type":"uint256"},{"internalType":"uint256","name":"required","type":"uint256"}],"name":"InsufficientSauceAllowance","type":"error"},{"inputs":[],"name":"InvalidAmount","type":"error"},{"inputs":[{"internalType":"uint256","name":"sent","type":"uint256"},{"internalType":"uint256","name":"required","type":"uint256"}],"name":"MustSendExactHBAR","type":"error"},{"inputs":[],"name":"NoSupplyKeyForToken","type":"error"},{"inputs":[],"name":"OnlyAdmin","type":"error"},{"inputs":[{"internalType":"address","name":"token","type":"address"},{"internalType":"int64","name":"errorCode","type":"int64"}],"name":"TokenBurnFailed","type":"error"},{"inputs":[{"internalType":"int64","name":"errorCode","type":"int64"}],"name":"TokenCreationFailed","type":"error"},{"inputs":[{"internalType":"address","name":"token","type":"address"},{"internalType":"int64","name":"errorCode","type":"int64"}],"name":"TokenMintFailed","type":"error"},{"inputs":[{"internalType":"address","name":"token","type":"address"},{"internalType":"int64","name":"errorCode","type":"int64"}],"name":"TokenTransferFailed","type":"error"},{"anonymous":false,"inputs":[{"indexed":true,"internalType":"address","name":"user","type":"address"},{"indexed":false,"internalType":"uint256","name":"lynxAmount","type":"uint256"},{"indexed":false,"internalType":"uint256","name":"hbarAmount","type":"uint256"},{"indexed":false,"internalType":"uint256","name":"sauceAmount","type":"uint256"},{"indexed":false,"internalType":"uint256","name":"clxyAmount","type":"uint256"}],"name":"LynxBurned","type":"event"},{"anonymous":false,"inputs":[{"indexed":true,"internalType":"address","name":"user","type":"address"},{"indexed":false,"internalType":"uint256","name":"lynxAmount","type":"uint256"},{"indexed":false,"internalType":"uint256","name":"hbarAmount","type":"uint256"},{"indexed":false,"internalType":"uint256","name":"sauceAmount","type":"uint256"},{"indexed":false,"internalType":"uint256","name":"clxyAmount","type":"uint256"}],"name":"LynxMinted","type":"event"},{"anonymous":false,"inputs":[{"indexed":false,"internalType":"address","name":"tokenAddress","type":"address"},{"indexed":false,"internalType":"int64","name":"responseCode","type":"int64"}],"name":"LynxTokenCreated","type":"event"},{"anonymous":false,"inputs":[{"indexed":false,"internalType":"uint256","name":"hbarRatio","type":"uint256"},{"indexed":false,"internalType":"uint256","name":"sauceRatio","type":"uint256"},{"indexed":false,"internalType":"uint256","name":"clxyRatio","type":"uint256"}],"name":"RatiosUpdated","type":"event"},{"anonymous":false,"inputs":[{"indexed":false,"internalType":"bool","name":"hasKey","type":"bool"}],"name":"SupplyKeyVerified","type":"event"},{"anonymous":false,"inputs":[{"indexed":false,"internalType":"address","name":"token","type":"address"},{"indexed":false,"internalType":"int64","name":"responseCode","type":"int64"}],"name":"TokensAssociated","type":"event"},{"inputs":[],"name":"ADMIN","outputs":[{"internalType":"address","name":"","type":"address"}],"stateMutability":"view","type":"function"},{"inputs":[],"name":"CLXY_RATIO","outputs":[{"internalType":"uint256","name":"","type":"uint256"}],"stateMutability":"view","type":"function"},{"inputs":[],"name":"CLXY_TOKEN","outputs":[{"internalType":"address","name":"","type":"address"}],"stateMutability":"view","type":"function"},{"inputs":[],"name":"HBAR_RATIO","outputs":[{"internalType":"uint256","name":"","type":"uint256"}],"stateMutability":"view","type":"function"},{"inputs":[],"name":"HTS_PRECOMPILE","outputs":[{"internalType":"address","name":"","type":"address"}],"stateMutability":"view","type":"function"},{"inputs":[],"name":"IS_SUPPLY_TYPE_INFINITE","outputs":[{"internalType":"bool","name":"","type":"bool"}],"stateMutability":"view","type":"function"},{"inputs":[],"name":"LYNX_TOKEN","outputs":[{"internalType":"address","name":"","type":"address"}],"stateMutability":"view","type":"function"},{"inputs":[],"name":"SAUCE_RATIO","outputs":[{"internalType":"uint256","name":"","type":"uint256"}],"stateMutability":"view","type":"function"},{"inputs":[],"name":"SAUCE_TOKEN","outputs":[{"internalType":"address","name":"","type":"address"}],"stateMutability":"view","type":"function"},{"inputs":[],"name":"TOKEN_DECIMALS","outputs":[{"internalType":"uint8","name":"","type":"uint8"}],"stateMutability":"view","type":"function"},{"inputs":[],"name":"TOKEN_MAX_SUPPLY","outputs":[{"internalType":"uint32","name":"","type":"uint32"}],"stateMutability":"view","type":"function"},{"inputs":[],"name":"associateTokens","outputs":[],"stateMutability":"nonpayable","type":"function"},{"inputs":[{"internalType":"uint256","name":"lynxAmount","type":"uint256"}],"name":"burn","outputs":[],"stateMutability":"nonpayable","type":"function"},{"inputs":[{"internalType":"uint256","name":"lynxAmount","type":"uint256"}],"name":"calculateRequiredCLXY","outputs":[{"internalType":"uint256","name":"","type":"uint256"}],"stateMutability":"view","type":"function"},{"inputs":[{"internalType":"uint256","name":"lynxAmount","type":"uint256"}],"name":"calculateRequiredHBAR","outputs":[{"internalType":"uint256","name":"","type":"uint256"}],"stateMutability":"view","type":"function"},{"inputs":[{"internalType":"uint256","name":"lynxAmount","type":"uint256"}],"name":"calculateRequiredSAUCE","outputs":[{"internalType":"uint256","name":"","type":"uint256"}],"stateMutability":"view","type":"function"},{"inputs":[{"internalType":"address","name":"user","type":"address"},{"internalType":"uint256","name":"lynxAmount","type":"uint256"}],"name":"checkAllowances","outputs":[{"internalType":"uint256","name":"sauceAllowance","type":"uint256"},{"internalType":"uint256","name":"clxyAllowance","type":"uint256"},{"internalType":"uint256","name":"sauceRequired","type":"uint256"},{"internalType":"uint256","name":"clxyRequired","type":"uint256"},{"internalType":"bool","name":"isSauceAllowanceSufficient","type":"bool"},{"internalType":"bool","name":"isClxyAllowanceSufficient","type":"bool"}],"stateMutability":"view","type":"function"},{"inputs":[],"name":"checkSupplyKey","outputs":[],"stateMutability":"nonpayable","type":"function"},{"inputs":[{"internalType":"string","name":"name","type":"string"},{"internalType":"string","name":"symbol","type":"string"},{"internalType":"string","name":"memo","type":"string"}],"name":"createLynxToken","outputs":[],"stateMutability":"nonpayable","type":"function"},{"inputs":[],"name":"getClxyRatio","outputs":[{"internalType":"uint256","name":"","type":"uint256"}],"stateMutability":"view","type":"function"},{"inputs":[],"name":"getHbarRatio","outputs":[{"internalType":"uint256","name":"","type":"uint256"}],"stateMutability":"view","type":"function"},{"inputs":[],"name":"getSauceRatio","outputs":[{"internalType":"uint256","name":"","type":"uint256"}],"stateMutability":"view","type":"function"},{"inputs":[],"name":"getTokenAddresses","outputs":[{"internalType":"address","name":"lynxToken","type":"address"},{"internalType":"address","name":"sauceToken","type":"address"},{"internalType":"address","name":"clxyToken","type":"address"}],"stateMutability":"view","type":"function"},{"inputs":[],"name":"hasSupplyKey","outputs":[{"internalType":"bool","name":"","type":"bool"}],"stateMutability":"view","type":"function"},{"inputs":[{"internalType":"uint256","name":"lynxAmount","type":"uint256"}],"name":"mint","outputs":[],"stateMutability":"payable","type":"function"},{"inputs":[{"internalType":"address","name":"mockHts","type":"address"}],"name":"setTokenService","outputs":[],"stateMutability":"nonpayable","type":"function"},{"inputs":[{"internalType":"uint256","name":"hbarRatio","type":"uint256"},{"internalType":"uint256","name":"sauceRatio","type":"uint256"},{"internalType":"uint256","name":"clxyRatio","type":"uint256"}],"name":"updateRatios","outputs":[],"stateMutability":"nonpayable","type":"function"},{"inputs":[],"name":"updateSupplyKeyStatus","outputs":[],"stateMutability":"nonpayable","type":"function"}],"evm":{"bytecode":{"linkReferences":{},"object":"6080604052600a6004556005805560026006556007805460ff191690553480156200002957600080fd5b506040516200249f3803806200249f8339810160408190526200004c91620001fd565b6007805462016700610100600160a81b0319909116179055600080546001600160a01b038581166001600160a01b031992831681179093556001805486831690841617905560028054918516918316919091179055600380549091163317905515620000bc57620000bc620000c5565b50505062000272565b6000546001600160a01b0316620001175760405162461bcd60e51b815260206004820152601260248201527113165396081d1bdad95b881b9bdd081cd95d60721b604482015260640160405180910390fd5b600754600054604051632e1a634560e11b81526001600160a01b0391821660048201523060248201526101009092041690635c34c68a90604401602060405180830381865afa1580156200016f573d6000803e3d6000fd5b505050506040513d601f19601f8201168201806040525081019062000195919062000247565b6007805460ff1916911515918217905560405160ff909116151581527f40a36e95e1165e03b5c30095cd9d1e9fa9d8aa98d06aa1d6432a77718c0b68f09060200160405180910390a1565b80516001600160a01b0381168114620001f857600080fd5b919050565b6000806000606084860312156200021357600080fd5b6200021e84620001e0565b92506200022e60208501620001e0565b91506200023e60408501620001e0565b90509250925092565b6000602082840312156200025a57600080fd5b815180151581146200026b57600080fd5b9392505050565b61221d80620002826000396000f3fe6080604052600436106101b75760003560e01c8063853f51ad116100ec578063c2f4bfaf1161008a578063e1e9957611610064578063e1e99576146104c8578063e294204d146104e8578063ee8c24b8146104fd578063ef0375931461053057600080fd5b8063c2f4bfaf1461047e578063cab21a6a14610493578063de579bc9146104b357600080fd5b80639057bb4a116100c65780639057bb4a146103e557806392361927146103fa578063a0712d681461041a578063b0e4fe4f1461042d57600080fd5b8063853f51ad146103905780638d6be540146103a55780638ee2c4b8146103bb57600080fd5b806342966c68116101595780634bb3c9cf116101335780634bb3c9cf146103145780635b7f415c146103345780636461e01a1461035b578063739036b21461037b57600080fd5b806342966c68146102ba5780634543873d146102da5780634924190c146102f057600080fd5b80631ec65c36116101955780631ec65c36146102305780632a0acc6a1461025057806330d0a66c14610270578063331a4c201461029057600080fd5b806310ca0bce146101bc5780631d12e296146101d35780631da965c2146101f3575b600080fd5b3480156101c857600080fd5b506101d1610546565b005b3480156101df57600080fd5b506101d16101ee366004611c79565b6107a4565b3480156101ff57600080fd5b50600254610213906001600160a01b031681565b6040516001600160a01b0390911681526020015b60405180910390f35b34801561023c57600080fd5b50600154610213906001600160a01b031681565b34801561025c57600080fd5b50600354610213906001600160a01b031681565b34801561027c57600080fd5b506101d161028b366004611d13565b610c6f565b34801561029c57600080fd5b506007546102aa9060ff1681565b6040519015158152602001610227565b3480156102c657600080fd5b506101d16102d5366004611d3f565b610ce7565b3480156102e657600080fd5b5061021361016781565b3480156102fc57600080fd5b5061030660045481565b604051908152602001610227565b34801561032057600080fd5b506101d161032f366004611d70565b611397565b34801561034057600080fd5b50610349600881565b60405160ff9091168152602001610227565b34801561036757600080fd5b50610306610376366004611d3f565b6113ea565b34801561038757600080fd5b50600454610306565b34801561039c57600080fd5b50600654610306565b3480156103b157600080fd5b5061030660065481565b3480156103c757600080fd5b506103d0600081565b60405163ffffffff9091168152602001610227565b3480156103f157600080fd5b50600554610306565b34801561040657600080fd5b50610306610415366004611d3f565b611400565b6101d1610428366004611d3f565b611410565b34801561043957600080fd5b5061044d610448366004611d94565b611999565b60408051968752602087019590955293850192909252606084015215156080830152151560a082015260c001610227565b34801561048a57600080fd5b506101d1611ad8565b34801561049f57600080fd5b506103066104ae366004611d3f565b611b0d565b3480156104bf57600080fd5b506101d1611b1d565b3480156104d457600080fd5b50600054610213906001600160a01b031681565b3480156104f457600080fd5b506102aa600181565b34801561050957600080fd5b50600054600154600254604051610227936001600160a01b03908116938116921690611dc0565b34801561053c57600080fd5b5061030660055481565b6007546000805460405163248a35ef60e11b81523060048201526001600160a01b0391821660248201529192610100900416906349146bde906044016020604051808303816000875af11580156105a1573d6000803e3d6000fd5b505050506040513d601f19601f820116820180604052508101906105c59190611dfa565b6000546040519192507f6c452a6a0f6c8613bd46d4bd9a6192b0904a3f33a64c294ba553582502dfd77091610605916001600160a01b0316908490611e15565b60405180910390a160075460015460405163248a35ef60e11b81523060048201526001600160a01b0391821660248201526000926101009004909116906349146bde906044016020604051808303816000875af115801561066a573d6000803e3d6000fd5b505050506040513d601f19601f8201168201806040525081019061068e9190611dfa565b6001546040519192507f6c452a6a0f6c8613bd46d4bd9a6192b0904a3f33a64c294ba553582502dfd770916106ce916001600160a01b0316908490611e15565b60405180910390a160075460025460405163248a35ef60e11b81523060048201526001600160a01b0391821660248201526000926101009004909116906349146bde906044016020604051808303816000875af1158015610733573d6000803e3d6000fd5b505050506040513d601f19601f820116820180604052508101906107579190611dfa565b6002546040519192507f6c452a6a0f6c8613bd46d4bd9a6192b0904a3f33a64c294ba553582502dfd77091610797916001600160a01b0316908490611e15565b60405180910390a1505050565b6003546001600160a01b031633146107cf57604051634755657960e01b815260040160405180910390fd5b6000546001600160a01b03161561082d5760405162461bcd60e51b815260206004820152601960248201527f4c594e5820746f6b656e20616c7265616479206578697374730000000000000060448201526064015b60405180910390fd5b60408051600180825281830190925260009160208083019080368337505060035482519293506001600160a01b03169183915060009061086f5761086f611e31565b6001600160a01b03929092166020928302919091019091015260408051600180825281830190925260009181602001602082028036833701905050905030816000815181106108c0576108c0611e31565b6001600160a01b03929092166020928302919091018201526040805160008082526101e0601f8c018590048502830181019093526101c082018b8152919390929084019182918d908d9081908801838280828437600092019190915250505090825250604080516020601f8c018190048102820181019092528a815291810191908b908b90819084018382808284376000920191909152505050908252503060208083019190915260408051601f8a018390048302810183018252898152920191908990899081908401838280828437600092018290525093855250506001602084015250604080830182905260608084018390526080840187905260a0840187905260c0840188905260e084018990526101008401879052600861012090940193909352805160028082529381019091529293509190816020016020820280368337019050509050600181600081518110610a1e57610a1e611e31565b602002602001019060ff16908160ff1681525050600481600181518110610a4757610a47611e31565b60ff929092166020928302919091018201526040805160028082526060820183526000939192909183019080368337505060035482519293506001600160a01b031691839150600090610a9c57610a9c611e31565b60200260200101906001600160a01b031690816001600160a01b0316815250503081600181518110610ad057610ad0611e31565b6001600160a01b03928316602091820292909201015260075460405162db106560e11b81526000928392610100900416906301b620ca908390610b1d90899083908a908a90600401611f04565b604080518083038185885af1158015610b3a573d6000803e3d6000fd5b50505050506040513d601f19601f82011682018060405250810190610b5f91906120ad565b915091508160070b600014610b8c57604051622a27bf60e01b8152600783900b6004820152602401610824565b600080546001600160a01b0319166001600160a01b03838116918217835560075460405163248a35ef60e11b81523060048201526024810193909352610100900416906349146bde906044016020604051808303816000875af1158015610bf7573d6000803e3d6000fd5b505050506040513d601f19601f82011682018060405250810190610c1b9190611dfa565b9050610c25611b1d565b7f3c6983beb442f69ab2bb278a324e9cc5184d0e8e3b8eacbd06dd6f157738420a8284604051610c56929190611e15565b60405180910390a1505050505050505050505050505050565b6003546001600160a01b03163314610c9a57604051634755657960e01b815260040160405180910390fd5b60048390556005829055600681905560408051848152602081018490529081018290527fe2f5c8588887234e6a368ca64e432b81b636580fe80ac266013c33040122e04090606001610797565b60075460ff16610d0a5760405163b291599960e01b815260040160405180910390fd5b80600003610d2b5760405163162908e360e11b815260040160405180910390fd5b600060045482610d3b91906120e4565b9050600060055483610d4d91906120e4565b9050600060065484610d5f91906120e4565b6007546000805460405163927da10560e01b815293945090926001600160a01b0361010090930483169263927da10592610da29291169033903090600401611dc0565b602060405180830381865afa158015610dbf573d6000803e3d6000fd5b505050506040513d601f19601f82011682018060405250810190610de39190612109565b905084811015610e10576040516316009c8360e01b81526004810182905260248101869052604401610824565b83471015610e4157604051634390211d60e11b81526000600482015247602482015260448101859052606401610824565b600754600154604051633de222bb60e21b81526001600160a01b03918216600482015230602482015260009261010090049091169063f7888aec90604401602060405180830381865afa158015610e9c573d6000803e3d6000fd5b505050506040513d601f19601f82011682018060405250810190610ec09190612109565b905083811015610f0057600154604051634390211d60e11b81526001600160a01b0390911660048201526024810182905260448101859052606401610824565b600754600254604051633de222bb60e21b81526001600160a01b03918216600482015230602482015260009261010090049091169063f7888aec90604401602060405180830381865afa158015610f5b573d6000803e3d6000fd5b505050506040513d601f19601f82011682018060405250810190610f7f9190612109565b905083811015610fbf57600254604051634390211d60e11b81526001600160a01b0390911660048201526024810182905260448101859052606401610824565b60075460008054604051632c54de4f60e01b815291926001600160a01b03610100909104811692632c54de4f92611000921690339030908e90600401612122565b6020604051808303816000875af115801561101f573d6000803e3d6000fd5b505050506040513d601f19601f820116820180604052508101906110439190611dfa565b90508060070b600014611078576000546040516353b9365760e01b8152610824916001600160a01b0316908390600401611e15565b60408051600080825260208201909252816110a3565b606081526020019060019003908161108e5790505b50600754600080546040516379fe3b7d60e11b815293945090926001600160a01b0361010090930483169263f3fc76fa926110e7929116908e90879060040161214c565b6020604051808303816000875af1158015611106573d6000803e3d6000fd5b505050506040513d601f19601f8201168201806040525081019061112a9190611dfa565b90508060070b60001461115f57600054604051630272bce360e21b8152610824916001600160a01b0316908390600401611e15565b600754600154604051632c54de4f60e01b815260009261010090046001600160a01b0390811692632c54de4f926111a29290911690309033908f90600401612122565b6020604051808303816000875af11580156111c1573d6000803e3d6000fd5b505050506040513d601f19601f820116820180604052508101906111e59190611dfa565b90508060070b60001461121a576001546040516353b9365760e01b8152610824916001600160a01b0316908390600401611e15565b600754600254604051632c54de4f60e01b815260009261010090046001600160a01b0390811692632c54de4f9261125d9290911690309033908f90600401612122565b6020604051808303816000875af115801561127c573d6000803e3d6000fd5b505050506040513d601f19601f820116820180604052508101906112a09190611dfa565b90508060070b6000146112d5576002546040516353b9365760e01b8152610824916001600160a01b0316908390600401611e15565b60405160009033908d908381818185875af1925050503d8060008114611317576040519150601f19603f3d011682016040523d82523d6000602084013e61131c565b606091505b505090508061133e576040516378bd738360e11b815260040160405180910390fd5b604080518e8152602081018e90529081018c9052606081018b905233907f0a99e3ea632fcdc816b71d0e418dc65b991272ad5bbdd78f5ccf117bfe076b419060800160405180910390a250505050505050505050505050565b6003546001600160a01b031633146113c257604051634755657960e01b815260040160405180910390fd5b600780546001600160a01b0390921661010002610100600160a81b0319909216919091179055565b6000600454826113fa91906120e4565b92915050565b6000600654826113fa91906120e4565b60075460ff166114335760405163b291599960e01b815260040160405180910390fd5b806000036114545760405163162908e360e11b815260040160405180910390fd5b60006004548261146491906120e4565b905060006005548361147691906120e4565b905060006006548461148891906120e4565b90508234146114b35760405163613f8e2f60e11b815234600482015260248101849052604401610824565b60075460015460405163927da10560e01b815260009261010090046001600160a01b039081169263927da105926114f4929091169033903090600401611dc0565b602060405180830381865afa158015611511573d6000803e3d6000fd5b505050506040513d601f19601f820116820180604052508101906115359190612109565b90508281101561156257604051636dc9c10b60e01b81526004810182905260248101849052604401610824565b60075460025460405163927da10560e01b815260009261010090046001600160a01b039081169263927da105926115a3929091169033903090600401611dc0565b602060405180830381865afa1580156115c0573d6000803e3d6000fd5b505050506040513d601f19601f820116820180604052508101906115e49190612109565b905082811015611611576040516303ab67df60e01b81526004810182905260248101849052604401610824565b600754600154604051632c54de4f60e01b815260009261010090046001600160a01b0390811692632c54de4f926116549290911690339030908b90600401612122565b6020604051808303816000875af1158015611673573d6000803e3d6000fd5b505050506040513d601f19601f820116820180604052508101906116979190611dfa565b90508060070b6000146116cc576001546040516353b9365760e01b8152610824916001600160a01b0316908390600401611e15565b600754600254604051632c54de4f60e01b815260009261010090046001600160a01b0390811692632c54de4f9261170f9290911690339030908b90600401612122565b6020604051808303816000875af115801561172e573d6000803e3d6000fd5b505050506040513d601f19601f820116820180604052508101906117529190611dfa565b90508060070b600014611787576002546040516353b9365760e01b8152610824916001600160a01b0316908390600401611e15565b60408051600080825260208201909252816117b2565b606081526020019060019003908161179d5790505b50600754600080546040516376096e0160e11b815293945090926001600160a01b0361010090930483169263ec12dc02926117f6929116908e90879060040161214c565b6020604051808303816000875af1158015611815573d6000803e3d6000fd5b505050506040513d601f19601f820116820180604052508101906118399190611dfa565b90508060070b60001461186e576000546040516325056c4d60e21b8152610824916001600160a01b0316908390600401611e15565b6000600760019054906101000a90046001600160a01b03166001600160a01b0316632c54de4f60008054906101000a90046001600160a01b031630338f6040518563ffffffff1660e01b81526004016118ca9493929190612122565b6020604051808303816000875af11580156118e9573d6000803e3d6000fd5b505050506040513d601f19601f8201168201806040525081019061190d9190611dfa565b90508060070b600014611942576000546040516353b9365760e01b8152610824916001600160a01b0316908390600401611e15565b604080518c8152602081018c90529081018a90526060810189905233907fc8692244b89e2a7e07e1d9ea03612e5d30118c61dd11d7e664e945287a3ce61b9060800160405180910390a25050505050505050505050565b600080600080600080600554876119b091906120e4565b9350600654876119c091906120e4565b60075460015460405163927da10560e01b81529295506001600160a01b0361010090920482169263927da105926119ff9216908c903090600401611dc0565b602060405180830381865afa158015611a1c573d6000803e3d6000fd5b505050506040513d601f19601f82011682018060405250810190611a409190612109565b60075460025460405163927da10560e01b81529298506001600160a01b0361010090920482169263927da10592611a7f9216908c903090600401611dc0565b602060405180830381865afa158015611a9c573d6000803e3d6000fd5b505050506040513d601f19601f82011682018060405250810190611ac09190612109565b94508386101591508285101590509295509295509295565b6003546001600160a01b03163314611b0357604051634755657960e01b815260040160405180910390fd5b611b0b611b1d565b565b6000600554826113fa91906120e4565b6000546001600160a01b0316611b6a5760405162461bcd60e51b815260206004820152601260248201527113165396081d1bdad95b881b9bdd081cd95d60721b6044820152606401610824565b600754600054604051632e1a634560e11b81526001600160a01b0391821660048201523060248201526101009092041690635c34c68a90604401602060405180830381865afa158015611bc1573d6000803e3d6000fd5b505050506040513d601f19601f82011682018060405250810190611be591906121c5565b6007805460ff1916911515918217905560405160ff909116151581527f40a36e95e1165e03b5c30095cd9d1e9fa9d8aa98d06aa1d6432a77718c0b68f09060200160405180910390a1565b60008083601f840112611c4257600080fd5b50813567ffffffffffffffff811115611c5a57600080fd5b602083019150836020828501011115611c7257600080fd5b9250929050565b60008060008060008060608789031215611c9257600080fd5b863567ffffffffffffffff80821115611caa57600080fd5b611cb68a838b01611c30565b90985096506020890135915080821115611ccf57600080fd5b611cdb8a838b01611c30565b90965094506040890135915080821115611cf457600080fd5b50611d0189828a01611c30565b979a9699509497509295939492505050565b600080600060608486031215611d2857600080fd5b505081359360208301359350604090920135919050565b600060208284031215611d5157600080fd5b5035919050565b6001600160a01b0381168114611d6d57600080fd5b50565b600060208284031215611d8257600080fd5b8135611d8d81611d58565b9392505050565b60008060408385031215611da757600080fd5b8235611db281611d58565b946020939093013593505050565b6001600160a01b0393841681529183166020830152909116604082015260600190565b8051600781900b8114611df557600080fd5b919050565b600060208284031215611e0c57600080fd5b611d8d82611de3565b6001600160a01b0392909216825260070b602082015260400190565b634e487b7160e01b600052603260045260246000fd5b6000815180845260005b81811015611e6d57602081850181015186830182015201611e51565b506000602082860101526020601f19601f83011685010191505092915050565b600081518084526020808501945080840160005b83811015611ec65781516001600160a01b031687529582019590820190600101611ea1565b509495945050505050565b600081518084526020808501945080840160005b83811015611ec657815160ff1687529582019590820190600101611ee5565b60808152600085516101a0806080850152611f23610220850183611e47565b91506020880151607f19808685030160a0870152611f418483611e47565b935060408a01519150611f5f60c08701836001600160a01b03169052565b60608a01519150808685030160e0870152611f7a8483611e47565b935060808a01519150610100611f938188018415159052565b60a08b01519250610120611fae8189018563ffffffff169052565b60c08c01519350610140611fc5818a018615159052565b60e08d01519450610160848a890301818b0152611fe28887611e8d565b9750838e015195506101809350848a890301848b01526120028887611e8d565b9750828e01519550848a890301878b015261201d8887611e8d565b9750818e01519650848a8903016101c08b015261203a8888611e8d565b9750808e0151965050505081878603016101e088015261205a8585611e8d565b9450808b0151935050505061207561020085018260ff169052565b50856020840152828103604084015261208e8186611ed1565b905082810360608401526120a28185611e8d565b979650505050505050565b600080604083850312156120c057600080fd5b6120c983611de3565b915060208301516120d981611d58565b809150509250929050565b80820281158282048414176113fa57634e487b7160e01b600052601160045260246000fd5b60006020828403121561211b57600080fd5b5051919050565b6001600160a01b039485168152928416602084015292166040820152606081019190915260800190565b60006060820160018060a01b0386168352602085818501526060604085015281855180845260808601915060808160051b870101935082870160005b828110156121b657607f198887030184526121a4868351611e47565b95509284019290840190600101612188565b50939998505050505050505050565b6000602082840312156121d757600080fd5b81518015158114611d8d57600080fdfea264697066735822122065d57f2cf3e75e46935ac3751fd0d1b0aa7c1ad9f181995fb572e6b95c8c084b64736f6c63430008140033","opcodes":"PUSH1 0x80 PUSH1 0x40 MSTORE PUSH1 0xA PUSH1 0x4 SSTORE PUSH1 0x5 DUP1 SSTORE PUSH1 0x2 PUSH1 0x6 SSTORE PUSH1 0x7 DUP1 SLOAD PUSH1 0xFF NOT AND SWAP1 SSTORE CALLVALUE DUP1 ISZERO PUSH3 0x29 JUMPI PUSH1 0x0 DUP1 REVERT JUMPDEST POP PUSH1 0x40 MLOAD PUSH3 0x249F CODESIZE SUB DUP1 PUSH3 0x249F DUP4 CODECOPY DUP2 ADD PUSH1 0x40 DUP2 SWAP1 MSTORE PUSH3 0x4C SWAP2 PUSH3 0x1FD JUMP JUMPDEST PUSH1 0x7 DUP1 SLOAD PUSH3 0x16700 PUSH2 0x100 PUSH1 0x1 PUSH1 0xA8 SHL SUB NOT SWAP1 SWAP2 AND OR SWAP1 SSTORE PUSH1 0x0 DUP1 SLOAD PUSH1 0x1 PUSH1 0x1 PUSH1 0xA0 SHL SUB DUP6 DUP2 AND PUSH1 0x1 PUSH1 0x1 PUSH1 0xA0 SHL SUB NOT SWAP3 DUP4 AND DUP2 OR SWAP1 SWAP4 SSTORE PUSH1 0x1 DUP1 SLOAD DUP7 DUP4 AND SWAP1 DUP5 AND OR SWAP1 SSTORE PUSH1 0x2 DUP1 SLOAD SWAP2 DUP6 AND SWAP2 DUP4 AND SWAP2 SWAP1 SWAP2 OR SWAP1 SSTORE PUSH1 0x3 DUP1 SLOAD SWAP1 SWAP2 AND CALLER OR SWAP1 SSTORE ISZERO PUSH3 0xBC JUMPI PUSH3 0xBC PUSH3 0xC5 JUMP JUMPDEST POP POP POP PUSH3 0x272 JUMP JUMPDEST PUSH1 0x0 SLOAD PUSH1 0x1 PUSH1 0x1 PUSH1 0xA0 SHL SUB AND PUSH3 0x117 JUMPI PUSH1 0x40 MLOAD PUSH3 0x461BCD PUSH1 0xE5 SHL DUP2 MSTORE PUSH1 0x20 PUSH1 0x4 DUP3 ADD MSTORE PUSH1 0x12 PUSH1 0x24 DUP3 ADD MSTORE PUSH18 0x13165396081D1BDAD95B881B9BDD081CD95D PUSH1 0x72 SHL PUSH1 0x44 DUP3 ADD MSTORE PUSH1 0x64 ADD PUSH1 0x40 MLOAD DUP1 SWAP2 SUB SWAP1 REVERT JUMPDEST PUSH1 0x7 SLOAD PUSH1 0x0 SLOAD PUSH1 0x40 MLOAD PUSH4 0x2E1A6345 PUSH1 0xE1 SHL DUP2 MSTORE PUSH1 0x1 PUSH1 0x1 PUSH1 0xA0 SHL SUB SWAP2 DUP3 AND PUSH1 0x4 DUP3 ADD MSTORE ADDRESS PUSH1 0x24 DUP3 ADD MSTORE PUSH2 0x100 SWAP1 SWAP3 DIV AND SWAP1 PUSH4 0x5C34C68A SWAP1 PUSH1 0x44 ADD PUSH1 0x20 PUSH1 0x40 MLOAD DUP1 DUP4 SUB DUP2 DUP7 GAS STATICCALL ISZERO DUP1 ISZERO PUSH3 0x16F JUMPI RETURNDATASIZE PUSH1 0x0 DUP1 RETURNDATACOPY RETURNDATASIZE PUSH1 0x0 REVERT JUMPDEST POP POP POP POP PUSH1 0x40 MLOAD RETURNDATASIZE PUSH1 0x1F NOT PUSH1 0x1F DUP3 ADD AND DUP3 ADD DUP1 PUSH1 0x40 MSTORE POP DUP2 ADD SWAP1 PUSH3 0x195 SWAP2 SWAP1 PUSH3 0x247 JUMP JUMPDEST PUSH1 0x7 DUP1 SLOAD PUSH1 0xFF NOT AND SWAP2 ISZERO ISZERO SWAP2 DUP3 OR SWAP1 SSTORE PUSH1 0x40 MLOAD PUSH1 0xFF SWAP1 SWAP2 AND ISZERO ISZERO DUP2 MSTORE PUSH32 0x40A36E95E1165E03B5C30095CD9D1E9FA9D8AA98D06AA1D6432A77718C0B68F0 SWAP1 PUSH1 0x20 ADD PUSH1 0x40 MLOAD DUP1 SWAP2 SUB SWAP1 LOG1 JUMP JUMPDEST DUP1 MLOAD PUSH1 0x1 PUSH1 0x1 PUSH1 0xA0 SHL SUB DUP2 AND DUP2 EQ PUSH3 0x1F8 JUMPI PUSH1 0x0 DUP1 REVERT JUMPDEST SWAP2 SWAP1 POP JUMP JUMPDEST PUSH1 0x0 DUP1 PUSH1 0x0 PUSH1 0x60 DUP5 DUP7 SUB SLT ISZERO PUSH3 0x213 JUMPI PUSH1 0x0 DUP1 REVERT JUMPDEST PUSH3 0x21E DUP5 PUSH3 0x1E0 JUMP JUMPDEST SWAP3 POP PUSH3 0x22E PUSH1 0x20 DUP6 ADD PUSH3 0x1E0 JUMP JUMPDEST SWAP2 POP PUSH3 0x23E PUSH1 0x40 DUP6 ADD PUSH3 0x1E0 JUMP JUMPDEST SWAP1 POP SWAP3 POP SWAP3 POP SWAP3 JUMP JUMPDEST PUSH1 0x0 PUSH1 0x20 DUP3 DUP5 SUB SLT ISZERO PUSH3 0x25A JUMPI PUSH1 0x0 DUP1 REVERT JUMPDEST DUP2 MLOAD DUP1 ISZERO ISZERO DUP2 EQ PUSH3 0x26B JUMPI PUSH1 0x0 DUP1 REVERT JUMPDEST SWAP4 SWAP3 POP POP POP JUMP JUMPDEST PUSH2 0x221D DUP1 PUSH3 0x282 PUSH1 0x0 CODECOPY PUSH1 0x0 RETURN INVALID PUSH1 0x80 PUSH1 0x40 MSTORE PUSH1 0x4 CALLDATASIZE LT PUSH2 0x1B7 JUMPI PUSH1 0x0 CALLDATALOAD PUSH1 0xE0 SHR DUP1 PUSH4 0x853F51AD GT PUSH2 0xEC JUMPI DUP1 PUSH4 0xC2F4BFAF GT PUSH2 0x8A JUMPI DUP1 PUSH4 0xE1E99576 GT PUSH2 0x64 JUMPI DUP1 PUSH4 0xE1E99576 EQ PUSH2 0x4C8 JUMPI DUP1 PUSH4 0xE294204D EQ PUSH2 0x4E8 JUMPI DUP1 PUSH4 0xEE8C24B8 EQ PUSH2 0x4FD JUMPI DUP1 PUSH4 0xEF037593 EQ PUSH2 0x530 JUMPI PUSH1 0x0 DUP1 REVERT JUMPDEST DUP1 PUSH4 0xC2F4BFAF EQ PUSH2 0x47E JUMPI DUP1 PUSH4 0xCAB21A6A EQ PUSH2 0x493 JUMPI DUP1 PUSH4 0xDE579BC9 EQ PUSH2 0x4B3 JUMPI PUSH1 0x0 DUP1 REVERT JUMPDEST DUP1 PUSH4 0x9057BB4A GT PUSH2 0xC6 JUMPI DUP1 PUSH4 0x9057BB4A EQ PUSH2 0x3E5 JUMPI DUP1 PUSH4 0x92361927 EQ PUSH2 0x3FA JUMPI DUP1 PUSH4 0xA0712D68 EQ PUSH2 0x41A JUMPI DUP1 PUSH4 0xB0E4FE4F EQ PUSH2 0x42D JUMPI PUSH1 0x0 DUP1 REVERT JUMPDEST DUP1 PUSH4 0x853F51AD EQ PUSH2 0x390 JUMPI DUP1 PUSH4 0x8D6BE540 EQ PUSH2 0x3A5 JUMPI DUP1 PUSH4 0x8EE2C4B8 EQ PUSH2 0x3BB JUMPI PUSH1 0x0 DUP1 REVERT JUMPDEST DUP1 PUSH4 0x42966C68 GT PUSH2 0x159 JUMPI DUP1 PUSH4 0x4BB3C9CF GT PUSH2 0x133 JUMPI DUP1 PUSH4 0x4BB3C9CF EQ PUSH2 0x314 JUMPI DUP1 PUSH4 0x5B7F415C EQ PUSH2 0x334 JUMPI DUP1 PUSH4 0x6461E01A EQ PUSH2 0x35B JUMPI DUP1 PUSH4 0x739036B2 EQ PUSH2 0x37B JUMPI PUSH1 0x0 DUP1 REVERT JUMPDEST DUP1 PUSH4 0x42966C68 EQ PUSH2 0x2BA JUMPI DUP1 PUSH4 0x4543873D EQ PUSH2 0x2DA JUMPI DUP1 PUSH4 0x4924190C EQ PUSH2 0x2F0 JUMPI PUSH1 0x0 DUP1 REVERT JUMPDEST DUP1 PUSH4 0x1EC65C36 GT PUSH2 0x195 JUMPI DUP1 PUSH4 0x1EC65C36 EQ PUSH2 0x230 JUMPI DUP1 PUSH4 0x2A0ACC6A EQ PUSH2 0x250 JUMPI DUP1 PUSH4 0x30D0A66C EQ PUSH2 0x270 JUMPI DUP1 PUSH4 0x331A4C20 EQ PUSH2 0x290 JUMPI PUSH1 0x0 DUP1 REVERT JUMPDEST DUP1 PUSH4 0x10CA0BCE EQ PUSH2 0x1BC JUMPI DUP1 PUSH4 0x1D12E296 EQ PUSH2 0x1D3 JUMPI DUP1 PUSH4 0x1DA965C2 EQ PUSH2 0x1F3 JUMPI JUMPDEST PUSH1 0x0 DUP1 REVERT JUMPDEST CALLVALUE DUP1 ISZERO PUSH2 0x1C8 JUMPI PUSH1 0x0 DUP1 REVERT JUMPDEST POP PUSH2 0x1D1 PUSH2 0x546 JUMP JUMPDEST STOP JUMPDEST CALLVALUE DUP1 ISZERO PUSH2 0x1DF JUMPI PUSH1 0x0 DUP1 REVERT JUMPDEST POP PUSH2 0x1D1 PUSH2 0x1EE CALLDATASIZE PUSH1 0x4 PUSH2 0x1C79 JUMP JUMPDEST PUSH2 0x7A4 JUMP JUMPDEST CALLVALUE DUP1 ISZERO PUSH2 0x1FF JUMPI PUSH1 0x0 DUP1 REVERT JUMPDEST POP PUSH1 0x2 SLOAD PUSH2 0x213 SWAP1 PUSH1 0x1 PUSH1 0x1 PUSH1 0xA0 SHL SUB AND DUP2 JUMP JUMPDEST PUSH1 0x40 MLOAD PUSH1 0x1 PUSH1 0x1 PUSH1 0xA0 SHL SUB SWAP1 SWAP2 AND DUP2 MSTORE PUSH1 0x20 ADD JUMPDEST PUSH1 0x40 MLOAD DUP1 SWAP2 SUB SWAP1 RETURN JUMPDEST CALLVALUE DUP1 ISZERO PUSH2 0x23C JUMPI PUSH1 0x0 DUP1 REVERT JUMPDEST POP PUSH1 0x1 SLOAD PUSH2 0x213 SWAP1 PUSH1 0x1 PUSH1 0x1 PUSH1 0xA0 SHL SUB AND DUP2 JUMP JUMPDEST CALLVALUE DUP1 ISZERO PUSH2 0x25C JUMPI PUSH1 0x0 DUP1 REVERT JUMPDEST POP PUSH1 0x3 SLOAD PUSH2 0x213 SWAP1 PUSH1 0x1 PUSH1 0x1 PUSH1 0xA0 SHL SUB AND DUP2 JUMP JUMPDEST CALLVALUE DUP1 ISZERO PUSH2 0x27C JUMPI PUSH1 0x0 DUP1 REVERT JUMPDEST POP PUSH2 0x1D1 PUSH2 0x28B CALLDATASIZE PUSH1 0x4 PUSH2 0x1D13 JUMP JUMPDEST PUSH2 0xC6F JUMP JUMPDEST CALLVALUE DUP1 ISZERO PUSH2 0x29C JUMPI PUSH1 0x0 DUP1 REVERT JUMPDEST POP PUSH1 0x7 SLOAD PUSH2 0x2AA SWAP1 PUSH1 0xFF AND DUP2 JUMP JUMPDEST PUSH1 0x40 MLOAD SWAP1 ISZERO ISZERO DUP2 MSTORE PUSH1 0x20 ADD PUSH2 0x227 JUMP JUMPDEST CALLVALUE DUP1 ISZERO PUSH2 0x2C6 JUMPI PUSH1 0x0 DUP1 REVERT JUMPDEST POP PUSH2 0x1D1 PUSH2 0x2D5 CALLDATASIZE PUSH1 0x4 PUSH2 0x1D3F JUMP JUMPDEST PUSH2 0xCE7 JUMP JUMPDEST CALLVALUE DUP1 ISZERO PUSH2 0x2E6 JUMPI PUSH1 0x0 DUP1 REVERT JUMPDEST POP PUSH2 0x213 PUSH2 0x167 DUP2 JUMP JUMPDEST CALLVALUE DUP1 ISZERO PUSH2 0x2FC JUMPI PUSH1 0x0 DUP1 REVERT JUMPDEST POP PUSH2 0x306 PUSH1 0x4 SLOAD DUP2 JUMP JUMPDEST PUSH1 0x40 MLOAD SWAP1 DUP2 MSTORE PUSH1 0x20 ADD PUSH2 0x227 JUMP JUMPDEST CALLVALUE DUP1 ISZERO PUSH2 0x320 JUMPI PUSH1 0x0 DUP1 REVERT JUMPDEST POP PUSH2 0x1D1 PUSH2 0x32F CALLDATASIZE PUSH1 0x4 PUSH2 0x1D70 JUMP JUMPDEST PUSH2 0x1397 JUMP JUMPDEST CALLVALUE DUP1 ISZERO PUSH2 0x340 JUMPI PUSH1 0x0 DUP1 REVERT JUMPDEST POP PUSH2 0x349 PUSH1 0x8 DUP2 JUMP JUMPDEST PUSH1 0x40 MLOAD PUSH1 0xFF SWAP1 SWAP2 AND DUP2 MSTORE PUSH1 0x20 ADD PUSH2 0x227 JUMP JUMPDEST CALLVALUE DUP1 ISZERO PUSH2 0x367 JUMPI PUSH1 0x0 DUP1 REVERT JUMPDEST POP PUSH2 0x306 PUSH2 0x376 CALLDATASIZE PUSH1 0x4 PUSH2 0x1D3F JUMP JUMPDEST PUSH2 0x13EA JUMP JUMPDEST CALLVALUE DUP1 ISZERO PUSH2 0x387 JUMPI PUSH1 0x0 DUP1 REVERT JUMPDEST POP PUSH1 0x4 SLOAD PUSH2 0x306 JUMP JUMPDEST CALLVALUE DUP1 ISZERO PUSH2 0x39C JUMPI PUSH1 0x0 DUP1 REVERT JUMPDEST POP PUSH1 0x6 SLOAD PUSH2 0x306 JUMP JUMPDEST CALLVALUE DUP1 ISZERO PUSH2 0x3B1 JUMPI PUSH1 0x0 DUP1 REVERT JUMPDEST POP PUSH2 0x306 PUSH1 0x6 SLOAD DUP2 JUMP JUMPDEST CALLVALUE DUP1 ISZERO PUSH2 0x3C7 JUMPI PUSH1 0x0 DUP1 REVERT JUMPDEST POP PUSH2 0x3D0 PUSH1 0x0 DUP2 JUMP JUMPDEST PUSH1 0x40 MLOAD PUSH4 0xFFFFFFFF SWAP1 SWAP2 AND DUP2 MSTORE PUSH1 0x20 ADD PUSH2 0x227 JUMP JUMPDEST CALLVALUE DUP1 ISZERO PUSH2 0x3F1 JUMPI PUSH1 0x0 DUP1 REVERT JUMPDEST POP PUSH1 0x5 SLOAD PUSH2 0x306 JUMP JUMPDEST CALLVALUE DUP1 ISZERO PUSH2 0x406 JUMPI PUSH1 0x0 DUP1 REVERT JUMPDEST POP PUSH2 0x306 PUSH2 0x415 CALLDATASIZE PUSH1 0x4 PUSH2 0x1D3F JUMP JUMPDEST PUSH2 0x1400 JUMP JUMPDEST PUSH2 0x1D1 PUSH2 0x428 CALLDATASIZE PUSH1 0x4 PUSH2 0x1D3F JUMP JUMPDEST PUSH2 0x1410 JUMP JUMPDEST CALLVALUE DUP1 ISZERO PUSH2 0x439 JUMPI PUSH1 0x0 DUP1 REVERT JUMPDEST POP PUSH2 0x44D PUSH2 0x448 CALLDATASIZE PUSH1 0x4 PUSH2 0x1D94 JUMP JUMPDEST PUSH2 0x1999 JUMP JUMPDEST PUSH1 0x40 DUP1 MLOAD SWAP7 DUP8 MSTORE PUSH1 0x20 DUP8 ADD SWAP6 SWAP1 SWAP6 MSTORE SWAP4 DUP6 ADD SWAP3 SWAP1 SWAP3 MSTORE PUSH1 0x60 DUP5 ADD MSTORE ISZERO ISZERO PUSH1 0x80 DUP4 ADD MSTORE ISZERO ISZERO PUSH1 0xA0 DUP3 ADD MSTORE PUSH1 0xC0 ADD PUSH2 0x227 JUMP JUMPDEST CALLVALUE DUP1 ISZERO PUSH2 0x48A JUMPI PUSH1 0x0 DUP1 REVERT JUMPDEST POP PUSH2 0x1D1 PUSH2 0x1AD8 JUMP JUMPDEST CALLVALUE DUP1 ISZERO PUSH2 0x49F JUMPI PUSH1 0x0 DUP1 REVERT JUMPDEST POP PUSH2 0x306 PUSH2 0x4AE CALLDATASIZE PUSH1 0x4 PUSH2 0x1D3F JUMP JUMPDEST PUSH2 0x1B0D JUMP JUMPDEST CALLVALUE DUP1 ISZERO PUSH2 0x4BF JUMPI PUSH1 0x0 DUP1 REVERT JUMPDEST POP PUSH2 0x1D1 PUSH2 0x1B1D JUMP JUMPDEST CALLVALUE DUP1 ISZERO PUSH2 0x4D4 JUMPI PUSH1 0x0 DUP1 REVERT JUMPDEST POP PUSH1 0x0 SLOAD PUSH2 0x213 SWAP1 PUSH1 0x1 PUSH1 0x1 PUSH1 0xA0 SHL SUB AND DUP2 JUMP JUMPDEST CALLVALUE DUP1 ISZERO PUSH2 0x4F4 JUMPI PUSH1 0x0 DUP1 REVERT JUMPDEST POP PUSH2 0x2AA PUSH1 0x1 DUP2 JUMP JUMPDEST CALLVALUE DUP1 ISZERO PUSH2 0x509 JUMPI PUSH1 0x0 DUP1 REVERT JUMPDEST POP PUSH1 0x0 SLOAD PUSH1 0x1 SLOAD PUSH1 0x2 SLOAD PUSH1 0x40 MLOAD PUSH2 0x227 SWAP4 PUSH1 0x1 PUSH1 0x1 PUSH1 0xA0 SHL SUB SWAP1 DUP2 AND SWAP4 DUP2 AND SWAP3 AND SWAP1 PUSH2 0x1DC0 JUMP JUMPDEST CALLVALUE DUP1 ISZERO PUSH2 0x53C JUMPI PUSH1 0x0 DUP1 REVERT JUMPDEST POP PUSH2 0x306 PUSH1 0x5 SLOAD DUP2 JUMP JUMPDEST PUSH1 0x7 SLOAD PUSH1 0x0 DUP1 SLOAD PUSH1 0x40 MLOAD PUSH4 0x248A35EF PUSH1 0xE1 SHL DUP2 MSTORE ADDRESS PUSH1 0x4 DUP3 ADD MSTORE PUSH1 0x1 PUSH1 0x1 PUSH1 0xA0 SHL SUB SWAP2 DUP3 AND PUSH1 0x24 DUP3 ADD MSTORE SWAP2 SWAP3 PUSH2 0x100 SWAP1 DIV AND SWAP1 PUSH4 0x49146BDE SWAP1 PUSH1 0x44 ADD PUSH1 0x20 PUSH1 0x40 MLOAD DUP1 DUP4 SUB DUP2 PUSH1 0x0 DUP8 GAS CALL ISZERO DUP1 ISZERO PUSH2 0x5A1 JUMPI RETURNDATASIZE PUSH1 0x0 DUP1 RETURNDATACOPY RETURNDATASIZE PUSH1 0x0 REVERT JUMPDEST POP POP POP POP PUSH1 0x40 MLOAD RETURNDATASIZE PUSH1 0x1F NOT PUSH1 0x1F DUP3 ADD AND DUP3 ADD DUP1 PUSH1 0x40 MSTORE POP DUP2 ADD SWAP1 PUSH2 0x5C5 SWAP2 SWAP1 PUSH2 0x1DFA JUMP JUMPDEST PUSH1 0x0 SLOAD PUSH1 0x40 MLOAD SWAP2 SWAP3 POP PUSH32 0x6C452A6A0F6C8613BD46D4BD9A6192B0904A3F33A64C294BA553582502DFD770 SWAP2 PUSH2 0x605 SWAP2 PUSH1 0x1 PUSH1 0x1 PUSH1 0xA0 SHL SUB AND SWAP1 DUP5 SWAP1 PUSH2 0x1E15 JUMP JUMPDEST PUSH1 0x40 MLOAD DUP1 SWAP2 SUB SWAP1 LOG1 PUSH1 0x7 SLOAD PUSH1 0x1 SLOAD PUSH1 0x40 MLOAD PUSH4 0x248A35EF PUSH1 0xE1 SHL DUP2 MSTORE ADDRESS PUSH1 0x4 DUP3 ADD MSTORE PUSH1 0x1 PUSH1 0x1 PUSH1 0xA0 SHL SUB SWAP2 DUP3 AND PUSH1 0x24 DUP3 ADD MSTORE PUSH1 0x0 SWAP3 PUSH2 0x100 SWAP1 DIV SWAP1 SWAP2 AND SWAP1 PUSH4 0x49146BDE SWAP1 PUSH1 0x44 ADD PUSH1 0x20 PUSH1 0x40 MLOAD DUP1 DUP4 SUB DUP2 PUSH1 0x0 DUP8 GAS CALL ISZERO DUP1 ISZERO PUSH2 0x66A JUMPI RETURNDATASIZE PUSH1 0x0 DUP1 RETURNDATACOPY RETURNDATASIZE PUSH1 0x0 REVERT JUMPDEST POP POP POP POP PUSH1 0x40 MLOAD RETURNDATASIZE PUSH1 0x1F NOT PUSH1 0x1F DUP3 ADD AND DUP3 ADD DUP1 PUSH1 0x40 MSTORE POP DUP2 ADD SWAP1 PUSH2 0x68E SWAP2 SWAP1 PUSH2 0x1DFA JUMP JUMPDEST PUSH1 0x1 SLOAD PUSH1 0x40 MLOAD SWAP2 SWAP3 POP PUSH32 0x6C452A6A0F6C8613BD46D4BD9A6192B0904A3F33A64C294BA553582502DFD770 SWAP2 PUSH2 0x6CE SWAP2 PUSH1 0x1 PUSH1 0x1 PUSH1 0xA0 SHL SUB AND SWAP1 DUP5 SWAP1 PUSH2 0x1E15 JUMP JUMPDEST PUSH1 0x40 MLOAD DUP1 SWAP2 SUB SWAP1 LOG1 PUSH1 0x7 SLOAD PUSH1 0x2 SLOAD PUSH1 0x40 MLOAD PUSH4 0x248A35EF PUSH1 0xE1 SHL DUP2 MSTORE ADDRESS PUSH1 0x4 DUP3 ADD MSTORE PUSH1 0x1 PUSH1 0x1 PUSH1 0xA0 SHL SUB SWAP2 DUP3 AND PUSH1 0x24 DUP3 ADD MSTORE PUSH1 0x0 SWAP3 PUSH2 0x100 SWAP1 DIV SWAP1 SWAP2 AND SWAP1 PUSH4 0x49146BDE SWAP1 PUSH1 0x44 ADD PUSH1 0x20 PUSH1 0x40 MLOAD DUP1 DUP4 SUB DUP2 PUSH1 0x0 DUP8 GAS CALL ISZERO DUP1 ISZERO PUSH2 0x733 JUMPI RETURNDATASIZE PUSH1 0x0 DUP1 RETURNDATACOPY RETURNDATASIZE PUSH1 0x0 REVERT JUMPDEST POP POP POP POP PUSH1 0x40 MLOAD RETURNDATASIZE PUSH1 0x1F NOT PUSH1 0x1F DUP3 ADD AND DUP3 ADD DUP1 PUSH1 0x40 MSTORE POP DUP2 ADD SWAP1 PUSH2 0x757 SWAP2 SWAP1 PUSH2 0x1DFA JUMP JUMPDEST PUSH1 0x2 SLOAD PUSH1 0x40 MLOAD SWAP2 SWAP3 POP PUSH32 0x6C452A6A0F6C8613BD46D4BD9A6192B0904A3F33A64C294BA553582502DFD770 SWAP2 PUSH2 0x797 SWAP2 PUSH1 0x1 PUSH1 0x1 PUSH1 0xA0 SHL SUB AND SWAP1 DUP5 SWAP1 PUSH2 0x1E15 JUMP JUMPDEST PUSH1 0x40 MLOAD DUP1 SWAP2 SUB SWAP1 LOG1 POP POP POP JUMP JUMPDEST PUSH1 0x3 SLOAD PUSH1 0x1 PUSH1 0x1 PUSH1 0xA0 SHL SUB AND CALLER EQ PUSH2 0x7CF JUMPI PUSH1 0x40 MLOAD PUSH4 0x47556579 PUSH1 0xE0 SHL DUP2 MSTORE PUSH1 0x4 ADD PUSH1 0x40 MLOAD DUP1 SWAP2 SUB SWAP1 REVERT JUMPDEST PUSH1 0x0 SLOAD PUSH1 0x1 PUSH1 0x1 PUSH1 0xA0 SHL SUB AND ISZERO PUSH2 0x82D JUMPI PUSH1 0x40 MLOAD PUSH3 0x461BCD PUSH1 0xE5 SHL DUP2 MSTORE PUSH1 0x20 PUSH1 0x4 DUP3 ADD MSTORE PUSH1 0x19 PUSH1 0x24 DUP3 ADD MSTORE PUSH32 0x4C594E5820746F6B656E20616C72656164792065786973747300000000000000 PUSH1 0x44 DUP3 ADD MSTORE PUSH1 0x64 ADD JUMPDEST PUSH1 0x40 MLOAD DUP1 SWAP2 SUB SWAP1 REVERT JUMPDEST PUSH1 0x40 DUP1 MLOAD PUSH1 0x1 DUP1 DUP3 MSTORE DUP2 DUP4 ADD SWAP1 SWAP3 MSTORE PUSH1 0x0 SWAP2 PUSH1 0x20 DUP1 DUP4 ADD SWAP1 DUP1 CALLDATASIZE DUP4 CALLDATACOPY POP POP PUSH1 0x3 SLOAD DUP3 MLOAD SWAP3 SWAP4 POP PUSH1 0x1 PUSH1 0x1 PUSH1 0xA0 SHL SUB AND SWAP2 DUP4 SWAP2 POP PUSH1 0x0 SWAP1 PUSH2 0x86F JUMPI PUSH2 0x86F PUSH2 0x1E31 JUMP JUMPDEST PUSH1 0x1 PUSH1 0x1 PUSH1 0xA0 SHL SUB SWAP3 SWAP1 SWAP3 AND PUSH1 0x20 SWAP3 DUP4 MUL SWAP2 SWAP1 SWAP2 ADD SWAP1 SWAP2 ADD MSTORE PUSH1 0x40 DUP1 MLOAD PUSH1 0x1 DUP1 DUP3 MSTORE DUP2 DUP4 ADD SWAP1 SWAP3 MSTORE PUSH1 0x0 SWAP2 DUP2 PUSH1 0x20 ADD PUSH1 0x20 DUP3 MUL DUP1 CALLDATASIZE DUP4 CALLDATACOPY ADD SWAP1 POP POP SWAP1 POP ADDRESS DUP2 PUSH1 0x0 DUP2 MLOAD DUP2 LT PUSH2 0x8C0 JUMPI PUSH2 0x8C0 PUSH2 0x1E31 JUMP JUMPDEST PUSH1 0x1 PUSH1 0x1 PUSH1 0xA0 SHL SUB SWAP3 SWAP1 SWAP3 AND PUSH1 0x20 SWAP3 DUP4 MUL SWAP2 SWAP1 SWAP2 ADD DUP3 ADD MSTORE PUSH1 0x40 DUP1 MLOAD PUSH1 0x0 DUP1 DUP3 MSTORE PUSH2 0x1E0 PUSH1 0x1F DUP13 ADD DUP6 SWAP1 DIV DUP6 MUL DUP4 ADD DUP2 ADD SWAP1 SWAP4 MSTORE PUSH2 0x1C0 DUP3 ADD DUP12 DUP2 MSTORE SWAP2 SWAP4 SWAP1 SWAP3 SWAP1 DUP5 ADD SWAP2 DUP3 SWAP2 DUP14 SWAP1 DUP14 SWAP1 DUP2 SWAP1 DUP9 ADD DUP4 DUP3 DUP1 DUP3 DUP5 CALLDATACOPY PUSH1 0x0 SWAP3 ADD SWAP2 SWAP1 SWAP2 MSTORE POP POP POP SWAP1 DUP3 MSTORE POP PUSH1 0x40 DUP1 MLOAD PUSH1 0x20 PUSH1 0x1F DUP13 ADD DUP2 SWAP1 DIV DUP2 MUL DUP3 ADD DUP2 ADD SWAP1 SWAP3 MSTORE DUP11 DUP2 MSTORE SWAP2 DUP2 ADD SWAP2 SWAP1 DUP12 SWAP1 DUP12 SWAP1 DUP2 SWAP1 DUP5 ADD DUP4 DUP3 DUP1 DUP3 DUP5 CALLDATACOPY PUSH1 0x0 SWAP3 ADD SWAP2 SWAP1 SWAP2 MSTORE POP POP POP SWAP1 DUP3 MSTORE POP ADDRESS PUSH1 0x20 DUP1 DUP4 ADD SWAP2 SWAP1 SWAP2 MSTORE PUSH1 0x40 DUP1 MLOAD PUSH1 0x1F DUP11 ADD DUP4 SWAP1 DIV DUP4 MUL DUP2 ADD DUP4 ADD DUP3 MSTORE DUP10 DUP2 MSTORE SWAP3 ADD SWAP2 SWAP1 DUP10 SWAP1 DUP10 SWAP1 DUP2 SWAP1 DUP5 ADD DUP4 DUP3 DUP1 DUP3 DUP5 CALLDATACOPY PUSH1 0x0 SWAP3 ADD DUP3 SWAP1 MSTORE POP SWAP4 DUP6 MSTORE POP POP PUSH1 0x1 PUSH1 0x20 DUP5 ADD MSTORE POP PUSH1 0x40 DUP1 DUP4 ADD DUP3 SWAP1 MSTORE PUSH1 0x60 DUP1 DUP5 ADD DUP4 SWAP1 MSTORE PUSH1 0x80 DUP5 ADD DUP8 SWAP1 MSTORE PUSH1 0xA0 DUP5 ADD DUP8 SWAP1 MSTORE PUSH1 0xC0 DUP5 ADD DUP9 SWAP1 MSTORE PUSH1 0xE0 DUP5 ADD DUP10 SWAP1 MSTORE PUSH2 0x100 DUP5 ADD DUP8 SWAP1 MSTORE PUSH1 0x8 PUSH2 0x120 SWAP1 SWAP5 ADD SWAP4 SWAP1 SWAP4 MSTORE DUP1 MLOAD PUSH1 0x2 DUP1 DUP3 MSTORE SWAP4 DUP2 ADD SWAP1 SWAP2 MSTORE SWAP3 SWAP4 POP SWAP2 SWAP1 DUP2 PUSH1 0x20 ADD PUSH1 0x20 DUP3 MUL DUP1 CALLDATASIZE DUP4 CALLDATACOPY ADD SWAP1 POP POP SWAP1 POP PUSH1 0x1 DUP2 PUSH1 0x0 DUP2 MLOAD DUP2 LT PUSH2 0xA1E JUMPI PUSH2 0xA1E PUSH2 0x1E31 JUMP JUMPDEST PUSH1 0x20 MUL PUSH1 0x20 ADD ADD SWAP1 PUSH1 0xFF AND SWAP1 DUP2 PUSH1 0xFF AND DUP2 MSTORE POP POP PUSH1 0x4 DUP2 PUSH1 0x1 DUP2 MLOAD DUP2 LT PUSH2 0xA47 JUMPI PUSH2 0xA47 PUSH2 0x1E31 JUMP JUMPDEST PUSH1 0xFF SWAP3 SWAP1 SWAP3 AND PUSH1 0x20 SWAP3 DUP4 MUL SWAP2 SWAP1 SWAP2 ADD DUP3 ADD MSTORE PUSH1 0x40 DUP1 MLOAD PUSH1 0x2 DUP1 DUP3 MSTORE PUSH1 0x60 DUP3 ADD DUP4 MSTORE PUSH1 0x0 SWAP4 SWAP2 SWAP3 SWAP1 SWAP2 DUP4 ADD SWAP1 DUP1 CALLDATASIZE DUP4 CALLDATACOPY POP POP PUSH1 0x3 SLOAD DUP3 MLOAD SWAP3 SWAP4 POP PUSH1 0x1 PUSH1 0x1 PUSH1 0xA0 SHL SUB AND SWAP2 DUP4 SWAP2 POP PUSH1 0x0 SWAP1 PUSH2 0xA9C JUMPI PUSH2 0xA9C PUSH2 0x1E31 JUMP JUMPDEST PUSH1 0x20 MUL PUSH1 0x20 ADD ADD SWAP1 PUSH1 0x1 PUSH1 0x1 PUSH1 0xA0 SHL SUB AND SWAP1 DUP2 PUSH1 0x1 PUSH1 0x1 PUSH1 0xA0 SHL SUB AND DUP2 MSTORE POP POP ADDRESS DUP2 PUSH1 0x1 DUP2 MLOAD DUP2 LT PUSH2 0xAD0 JUMPI PUSH2 0xAD0 PUSH2 0x1E31 JUMP JUMPDEST PUSH1 0x1 PUSH1 0x1 PUSH1 0xA0 SHL SUB SWAP3 DUP4 AND PUSH1 0x20 SWAP2 DUP3 MUL SWAP3 SWAP1 SWAP3 ADD ADD MSTORE PUSH1 0x7 SLOAD PUSH1 0x40 MLOAD PUSH3 0xDB1065 PUSH1 0xE1 SHL DUP2 MSTORE PUSH1 0x0 SWAP3 DUP4 SWAP3 PUSH2 0x100 SWAP1 DIV AND SWAP1 PUSH4 0x1B620CA SWAP1 DUP4 SWAP1 PUSH2 0xB1D SWAP1 DUP10 SWAP1 DUP4 SWAP1 DUP11 SWAP1 DUP11 SWAP1 PUSH1 0x4 ADD PUSH2 0x1F04 JUMP JUMPDEST PUSH1 0x40 DUP1 MLOAD DUP1 DUP4 SUB DUP2 DUP6 DUP9 GAS CALL ISZERO DUP1 ISZERO PUSH2 0xB3A JUMPI RETURNDATASIZE PUSH1 0x0 DUP1 RETURNDATACOPY RETURNDATASIZE PUSH1 0x0 REVERT JUMPDEST POP POP POP POP POP PUSH1 0x40 MLOAD RETURNDATASIZE PUSH1 0x1F NOT PUSH1 0x1F DUP3 ADD AND DUP3 ADD DUP1 PUSH1 0x40 MSTORE POP DUP2 ADD SWAP1 PUSH2 0xB5F SWAP2 SWAP1 PUSH2 0x20AD JUMP JUMPDEST SWAP2 POP SWAP2 POP DUP2 PUSH1 0x7 SIGNEXTEND PUSH1 0x0 EQ PUSH2 0xB8C JUMPI PUSH1 0x40 MLOAD PUSH3 0x2A27BF PUSH1 0xE0 SHL DUP2 MSTORE PUSH1 0x7 DUP4 SWAP1 SIGNEXTEND PUSH1 0x4 DUP3 ADD MSTORE PUSH1 0x24 ADD PUSH2 0x824 JUMP JUMPDEST PUSH1 0x0 DUP1 SLOAD PUSH1 0x1 PUSH1 0x1 PUSH1 0xA0 SHL SUB NOT AND PUSH1 0x1 PUSH1 0x1 PUSH1 0xA0 SHL SUB DUP4 DUP2 AND SWAP2 DUP3 OR DUP4 SSTORE PUSH1 0x7 SLOAD PUSH1 0x40 MLOAD PUSH4 0x248A35EF PUSH1 0xE1 SHL DUP2 MSTORE ADDRESS PUSH1 0x4 DUP3 ADD MSTORE PUSH1 0x24 DUP2 ADD SWAP4 SWAP1 SWAP4 MSTORE PUSH2 0x100 SWAP1 DIV AND SWAP1 PUSH4 0x49146BDE SWAP1 PUSH1 0x44 ADD PUSH1 0x20 PUSH1 0x40 MLOAD DUP1 DUP4 SUB DUP2 PUSH1 0x0 DUP8 GAS CALL ISZERO DUP1 ISZERO PUSH2 0xBF7 JUMPI RETURNDATASIZE PUSH1 0x0 DUP1 RETURNDATACOPY RETURNDATASIZE PUSH1 0x0 REVERT JUMPDEST POP POP POP POP PUSH1 0x40 MLOAD RETURNDATASIZE PUSH1 0x1F NOT PUSH1 0x1F DUP3 ADD AND DUP3 ADD DUP1 PUSH1 0x40 MSTORE POP DUP2 ADD SWAP1 PUSH2 0xC1B SWAP2 SWAP1 PUSH2 0x1DFA JUMP JUMPDEST SWAP1 POP PUSH2 0xC25 PUSH2 0x1B1D JUMP JUMPDEST PUSH32 0x3C6983BEB442F69AB2BB278A324E9CC5184D0E8E3B8EACBD06DD6F157738420A DUP3 DUP5 PUSH1 0x40 MLOAD PUSH2 0xC56 SWAP3 SWAP2 SWAP1 PUSH2 0x1E15 JUMP JUMPDEST PUSH1 0x40 MLOAD DUP1 SWAP2 SUB SWAP1 LOG1 POP POP POP POP POP POP POP POP POP POP POP POP POP POP POP JUMP JUMPDEST PUSH1 0x3 SLOAD PUSH1 0x1 PUSH1 0x1 PUSH1 0xA0 SHL SUB AND CALLER EQ PUSH2 0xC9A JUMPI PUSH1 0x40 MLOAD PUSH4 0x47556579 PUSH1 0xE0 SHL DUP2 MSTORE PUSH1 0x4 ADD PUSH1 0x40 MLOAD DUP1 SWAP2 SUB SWAP1 REVERT JUMPDEST PUSH1 0x4 DUP4 SWAP1 SSTORE PUSH1 0x5 DUP3 SWAP1 SSTORE PUSH1 0x6 DUP2 SWAP1 SSTORE PUSH1 0x40 DUP1 MLOAD DUP5 DUP2 MSTORE PUSH1 0x20 DUP2 ADD DUP5 SWAP1 MSTORE SWAP1 DUP2 ADD DUP3 SWAP1 MSTORE PUSH32 0xE2F5C8588887234E6A368CA64E432B81B636580FE80AC266013C33040122E040 SWAP1 PUSH1 0x60 ADD PUSH2 0x797 JUMP JUMPDEST PUSH1 0x7 SLOAD PUSH1 0xFF AND PUSH2 0xD0A JUMPI PUSH1 0x40 MLOAD PUSH4 0xB2915999 PUSH1 0xE0 SHL DUP2 MSTORE PUSH1 0x4 ADD PUSH1 0x40 MLOAD DUP1 SWAP2 SUB SWAP1 REVERT JUMPDEST DUP1 PUSH1 0x0 SUB PUSH2 0xD2B JUMPI PUSH1 0x40 MLOAD PUSH4 0x162908E3 PUSH1 0xE1 SHL DUP2 MSTORE PUSH1 0x4 ADD PUSH1 0x40 MLOAD DUP1 SWAP2 SUB SWAP1 REVERT JUMPDEST PUSH1 0x0 PUSH1 0x4 SLOAD DUP3 PUSH2 0xD3B SWAP2 SWAP1 PUSH2 0x20E4 JUMP JUMPDEST SWAP1 POP PUSH1 0x0 PUSH1 0x5 SLOAD DUP4 PUSH2 0xD4D SWAP2 SWAP1 PUSH2 0x20E4 JUMP JUMPDEST SWAP1 POP PUSH1 0x0 PUSH1 0x6 SLOAD DUP5 PUSH2 0xD5F SWAP2 SWAP1 PUSH2 0x20E4 JUMP JUMPDEST PUSH1 0x7 SLOAD PUSH1 0x0 DUP1 SLOAD PUSH1 0x40 MLOAD PUSH4 0x927DA105 PUSH1 0xE0 SHL DUP2 MSTORE SWAP4 SWAP5 POP SWAP1 SWAP3 PUSH1 0x1 PUSH1 0x1 PUSH1 0xA0 SHL SUB PUSH2 0x100 SWAP1 SWAP4 DIV DUP4 AND SWAP3 PUSH4 0x927DA105 SWAP3 PUSH2 0xDA2 SWAP3 SWAP2 AND SWAP1 CALLER SWAP1 ADDRESS SWAP1 PUSH1 0x4 ADD PUSH2 0x1DC0 JUMP JUMPDEST PUSH1 0x20 PUSH1 0x40 MLOAD DUP1 DUP4 SUB DUP2 DUP7 GAS STATICCALL ISZERO DUP1 ISZERO PUSH2 0xDBF JUMPI RETURNDATASIZE PUSH1 0x0 DUP1 RETURNDATACOPY RETURNDATASIZE PUSH1 0x0 REVERT JUMPDEST POP POP POP POP PUSH1 0x40 MLOAD RETURNDATASIZE PUSH1 0x1F NOT PUSH1 0x1F DUP3 ADD AND DUP3 ADD DUP1 PUSH1 0x40 MSTORE POP DUP2 ADD SWAP1 PUSH2 0xDE3 SWAP2 SWAP1 PUSH2 0x2109 JUMP JUMPDEST SWAP1 POP DUP5 DUP2 LT ISZERO PUSH2 0xE10 JUMPI PUSH1 0x40 MLOAD PUSH4 0x16009C83 PUSH1 0xE0 SHL DUP2 MSTORE PUSH1 0x4 DUP2 ADD DUP3 SWAP1 MSTORE PUSH1 0x24 DUP2 ADD DUP7 SWAP1 MSTORE PUSH1 0x44 ADD PUSH2 0x824 JUMP JUMPDEST DUP4 SELFBALANCE LT ISZERO PUSH2 0xE41 JUMPI PUSH1 0x40 MLOAD PUSH4 0x4390211D PUSH1 0xE1 SHL DUP2 MSTORE PUSH1 0x0 PUSH1 0x4 DUP3 ADD MSTORE SELFBALANCE PUSH1 0x24 DUP3 ADD MSTORE PUSH1 0x44 DUP2 ADD DUP6 SWAP1 MSTORE PUSH1 0x64 ADD PUSH2 0x824 JUMP JUMPDEST PUSH1 0x7 SLOAD PUSH1 0x1 SLOAD PUSH1 0x40 MLOAD PUSH4 0x3DE222BB PUSH1 0xE2 SHL DUP2 MSTORE PUSH1 0x1 PUSH1 0x1 PUSH1 0xA0 SHL SUB SWAP2 DUP3 AND PUSH1 0x4 DUP3 ADD MSTORE ADDRESS PUSH1 0x24 DUP3 ADD MSTORE PUSH1 0x0 SWAP3 PUSH2 0x100 SWAP1 DIV SWAP1 SWAP2 AND SWAP1 PUSH4 0xF7888AEC SWAP1 PUSH1 0x44 ADD PUSH1 0x20 PUSH1 0x40 MLOAD DUP1 DUP4 SUB DUP2 DUP7 GAS STATICCALL ISZERO DUP1 ISZERO PUSH2 0xE9C JUMPI RETURNDATASIZE PUSH1 0x0 DUP1 RETURNDATACOPY RETURNDATASIZE PUSH1 0x0 REVERT JUMPDEST POP POP POP POP PUSH1 0x40 MLOAD RETURNDATASIZE PUSH1 0x1F NOT PUSH1 0x1F DUP3 ADD AND DUP3 ADD DUP1 PUSH1 0x40 MSTORE POP DUP2 ADD SWAP1 PUSH2 0xEC0 SWAP2 SWAP1 PUSH2 0x2109 JUMP JUMPDEST SWAP1 POP DUP4 DUP2 LT ISZERO PUSH2 0xF00 JUMPI PUSH1 0x1 SLOAD PUSH1 0x40 MLOAD PUSH4 0x4390211D PUSH1 0xE1 SHL DUP2 MSTORE PUSH1 0x1 PUSH1 0x1 PUSH1 0xA0 SHL SUB SWAP1 SWAP2 AND PUSH1 0x4 DUP3 ADD MSTORE PUSH1 0x24 DUP2 ADD DUP3 SWAP1 MSTORE PUSH1 0x44 DUP2 ADD DUP6 SWAP1 MSTORE PUSH1 0x64 ADD PUSH2 0x824 JUMP JUMPDEST PUSH1 0x7 SLOAD PUSH1 0x2 SLOAD PUSH1 0x40 MLOAD PUSH4 0x3DE222BB PUSH1 0xE2 SHL DUP2 MSTORE PUSH1 0x1 PUSH1 0x1 PUSH1 0xA0 SHL SUB SWAP2 DUP3 AND PUSH1 0x4 DUP3 ADD MSTORE ADDRESS PUSH1 0x24 DUP3 ADD MSTORE PUSH1 0x0 SWAP3 PUSH2 0x100 SWAP1 DIV SWAP1 SWAP2 AND SWAP1 PUSH4 0xF7888AEC SWAP1 PUSH1 0x44 ADD PUSH1 0x20 PUSH1 0x40 MLOAD DUP1 DUP4 SUB DUP2 DUP7 GAS STATICCALL ISZERO DUP1 ISZERO PUSH2 0xF5B JUMPI RETURNDATASIZE PUSH1 0x0 DUP1 RETURNDATACOPY RETURNDATASIZE PUSH1 0x0 REVERT JUMPDEST POP POP POP POP PUSH1 0x40 MLOAD RETURNDATASIZE PUSH1 0x1F NOT PUSH1 0x1F DUP3 ADD AND DUP3 ADD DUP1 PUSH1 0x40 MSTORE POP DUP2 ADD SWAP1 PUSH2 0xF7F SWAP2 SWAP1 PUSH2 0x2109 JUMP JUMPDEST SWAP1 POP DUP4 DUP2 LT ISZERO PUSH2 0xFBF JUMPI PUSH1 0x2 SLOAD PUSH1 0x40 MLOAD PUSH4 0x4390211D PUSH1 0xE1 SHL DUP2 MSTORE PUSH1 0x1 PUSH1 0x1 PUSH1 0xA0 SHL SUB SWAP1 SWAP2 AND PUSH1 0x4 DUP3 ADD MSTORE PUSH1 0x24 DUP2 ADD DUP3 SWAP1 MSTORE PUSH1 0x44 DUP2 ADD DUP6 SWAP1 MSTORE PUSH1 0x64 ADD PUSH2 0x824 JUMP JUMPDEST PUSH1 0x7 SLOAD PUSH1 0x0 DUP1 SLOAD PUSH1 0x40 MLOAD PUSH4 0x2C54DE4F PUSH1 0xE0 SHL DUP2 MSTORE SWAP2 SWAP3 PUSH1 0x1 PUSH1 0x1 PUSH1 0xA0 SHL SUB PUSH2 0x100 SWAP1 SWAP2 DIV DUP2 AND SWAP3 PUSH4 0x2C54DE4F SWAP3 PUSH2 0x1000 SWAP3 AND SWAP1 CALLER SWAP1 ADDRESS SWAP1 DUP15 SWAP1 PUSH1 0x4 ADD PUSH2 0x2122 JUMP JUMPDEST PUSH1 0x20 PUSH1 0x40 MLOAD DUP1 DUP4 SUB DUP2 PUSH1 0x0 DUP8 GAS CALL ISZERO DUP1 ISZERO PUSH2 0x101F JUMPI RETURNDATASIZE PUSH1 0x0 DUP1 RETURNDATACOPY RETURNDATASIZE PUSH1 0x0 REVERT JUMPDEST POP POP POP POP PUSH1 0x40 MLOAD RETURNDATASIZE PUSH1 0x1F NOT PUSH1 0x1F DUP3 ADD AND DUP3 ADD DUP1 PUSH1 0x40 MSTORE POP DUP2 ADD SWAP1 PUSH2 0x1043 SWAP2 SWAP1 PUSH2 0x1DFA JUMP JUMPDEST SWAP1 POP DUP1 PUSH1 0x7 SIGNEXTEND PUSH1 0x0 EQ PUSH2 0x1078 JUMPI PUSH1 0x0 SLOAD PUSH1 0x40 MLOAD PUSH4 0x53B93657 PUSH1 0xE0 SHL DUP2 MSTORE PUSH2 0x824 SWAP2 PUSH1 0x1 PUSH1 0x1 PUSH1 0xA0 SHL SUB AND SWAP1 DUP4 SWAP1 PUSH1 0x4 ADD PUSH2 0x1E15 JUMP JUMPDEST PUSH1 0x40 DUP1 MLOAD PUSH1 0x0 DUP1 DUP3 MSTORE PUSH1 0x20 DUP3 ADD SWAP1 SWAP3 MSTORE DUP2 PUSH2 0x10A3 JUMP JUMPDEST PUSH1 0x60 DUP2 MSTORE PUSH1 0x20 ADD SWAP1 PUSH1 0x1 SWAP1 SUB SWAP1 DUP2 PUSH2 0x108E JUMPI SWAP1 POP JUMPDEST POP PUSH1 0x7 SLOAD PUSH1 0x0 DUP1 SLOAD PUSH1 0x40 MLOAD PUSH4 0x79FE3B7D PUSH1 0xE1 SHL DUP2 MSTORE SWAP4 SWAP5 POP SWAP1 SWAP3 PUSH1 0x1 PUSH1 0x1 PUSH1 0xA0 SHL SUB PUSH2 0x100 SWAP1 SWAP4 DIV DUP4 AND SWAP3 PUSH4 0xF3FC76FA SWAP3 PUSH2 0x10E7 SWAP3 SWAP2 AND SWAP1 DUP15 SWAP1 DUP8 SWAP1 PUSH1 0x4 ADD PUSH2 0x214C JUMP JUMPDEST PUSH1 0x20 PUSH1 0x40 MLOAD DUP1 DUP4 SUB DUP2 PUSH1 0x0 DUP8 GAS CALL ISZERO DUP1 ISZERO PUSH2 0x1106 JUMPI RETURNDATASIZE PUSH1 0x0 DUP1 RETURNDATACOPY RETURNDATASIZE PUSH1 0x0 REVERT JUMPDEST POP POP POP POP PUSH1 0x40 MLOAD RETURNDATASIZE PUSH1 0x1F NOT PUSH1 0x1F DUP3 ADD AND DUP3 ADD DUP1 PUSH1 0x40 MSTORE POP DUP2 ADD SWAP1 PUSH2 0x112A SWAP2 SWAP1 PUSH2 0x1DFA JUMP JUMPDEST SWAP1 POP DUP1 PUSH1 0x7 SIGNEXTEND PUSH1 0x0 EQ PUSH2 0x115F JUMPI PUSH1 0x0 SLOAD PUSH1 0x40 MLOAD PUSH4 0x272BCE3 PUSH1 0xE2 SHL DUP2 MSTORE PUSH2 0x824 SWAP2 PUSH1 0x1 PUSH1 0x1 PUSH1 0xA0 SHL SUB AND SWAP1 DUP4 SWAP1 PUSH1 0x4 ADD PUSH2 0x1E15 JUMP JUMPDEST PUSH1 0x7 SLOAD PUSH1 0x1 SLOAD PUSH1 0x40 MLOAD PUSH4 0x2C54DE4F PUSH1 0xE0 SHL DUP2 MSTORE PUSH1 0x0 SWAP3 PUSH2 0x100 SWAP1 DIV PUSH1 0x1 PUSH1 0x1 PUSH1 0xA0 SHL SUB SWAP1 DUP2 AND SWAP3 PUSH4 0x2C54DE4F SWAP3 PUSH2 0x11A2 SWAP3 SWAP1 SWAP2 AND SWAP1 ADDRESS SWAP1 CALLER SWAP1 DUP16 SWAP1 PUSH1 0x4 ADD PUSH2 0x2122 JUMP JUMPDEST PUSH1 0x20 PUSH1 0x40 MLOAD DUP1 DUP4 SUB DUP2 PUSH1 0x0 DUP8 GAS CALL ISZERO DUP1 ISZERO PUSH2 0x11C1 JUMPI RETURNDATASIZE PUSH1 0x0 DUP1 RETURNDATACOPY RETURNDATASIZE PUSH1 0x0 REVERT JUMPDEST POP POP POP POP PUSH1 0x40 MLOAD RETURNDATASIZE PUSH1 0x1F NOT PUSH1 0x1F DUP3 ADD AND DUP3 ADD DUP1 PUSH1 0x40 MSTORE POP DUP2 ADD SWAP1 PUSH2 0x11E5 SWAP2 SWAP1 PUSH2 0x1DFA JUMP JUMPDEST SWAP1 POP DUP1 PUSH1 0x7 SIGNEXTEND PUSH1 0x0 EQ PUSH2 0x121A JUMPI PUSH1 0x1 SLOAD PUSH1 0x40 MLOAD PUSH4 0x53B93657 PUSH1 0xE0 SHL DUP2 MSTORE PUSH2 0x824 SWAP2 PUSH1 0x1 PUSH1 0x1 PUSH1 0xA0 SHL SUB AND SWAP1 DUP4 SWAP1 PUSH1 0x4 ADD PUSH2 0x1E15 JUMP JUMPDEST PUSH1 0x7 SLOAD PUSH1 0x2 SLOAD PUSH1 0x40 MLOAD PUSH4 0x2C54DE4F PUSH1 0xE0 SHL DUP2 MSTORE PUSH1 0x0 SWAP3 PUSH2 0x100 SWAP1 DIV PUSH1 0x1 PUSH1 0x1 PUSH1 0xA0 SHL SUB SWAP1 DUP2 AND SWAP3 PUSH4 0x2C54DE4F SWAP3 PUSH2 0x125D SWAP3 SWAP1 SWAP2 AND SWAP1 ADDRESS SWAP1 CALLER SWAP1 DUP16 SWAP1 PUSH1 0x4 ADD PUSH2 0x2122 JUMP JUMPDEST PUSH1 0x20 PUSH1 0x40 MLOAD DUP1 DUP4 SUB DUP2 PUSH1 0x0 DUP8 GAS CALL ISZERO DUP1 ISZERO PUSH2 0x127C JUMPI RETURNDATASIZE PUSH1 0x0 DUP1 RETURNDATACOPY RETURNDATASIZE PUSH1 0x0 REVERT JUMPDEST POP POP POP POP PUSH1 0x40 MLOAD RETURNDATASIZE PUSH1 0x1F NOT PUSH1 0x1F DUP3 ADD AND DUP3 ADD DUP1 PUSH1 0x40 MSTORE POP DUP2 ADD SWAP1 PUSH2 0x12A0 SWAP2 SWAP1 PUSH2 0x1DFA JUMP JUMPDEST SWAP1 POP DUP1 PUSH1 0x7 SIGNEXTEND PUSH1 0x0 EQ PUSH2 0x12D5 JUMPI PUSH1 0x2 SLOAD PUSH1 0x40 MLOAD PUSH4 0x53B93657 PUSH1 0xE0 SHL DUP2 MSTORE PUSH2 0x824 SWAP2 PUSH1 0x1 PUSH1 0x1 PUSH1 0xA0 SHL SUB AND SWAP1 DUP4 SWAP1 PUSH1 0x4 ADD PUSH2 0x1E15 JUMP JUMPDEST PUSH1 0x40 MLOAD PUSH1 0x0 SWAP1 CALLER SWAP1 DUP14 SWAP1 DUP4 DUP2 DUP2 DUP2 DUP6 DUP8 GAS CALL SWAP3 POP POP POP RETURNDATASIZE DUP1 PUSH1 0x0 DUP2 EQ PUSH2 0x1317 JUMPI PUSH1 0x40 MLOAD SWAP2 POP PUSH1 0x1F NOT PUSH1 0x3F RETURNDATASIZE ADD AND DUP3 ADD PUSH1 0x40 MSTORE RETURNDATASIZE DUP3 MSTORE RETURNDATASIZE PUSH1 0x0 PUSH1 0x20 DUP5 ADD RETURNDATACOPY PUSH2 0x131C JUMP JUMPDEST PUSH1 0x60 SWAP2 POP JUMPDEST POP POP SWAP1 POP DUP1 PUSH2 0x133E JUMPI PUSH1 0x40 MLOAD PUSH4 0x78BD7383 PUSH1 0xE1 SHL DUP2 MSTORE PUSH1 0x4 ADD PUSH1 0x40 MLOAD DUP1 SWAP2 SUB SWAP1 REVERT JUMPDEST PUSH1 0x40 DUP1 MLOAD DUP15 DUP2 MSTORE PUSH1 0x20 DUP2 ADD DUP15 SWAP1 MSTORE SWAP1 DUP2 ADD DUP13 SWAP1 MSTORE PUSH1 0x60 DUP2 ADD DUP12 SWAP1 MSTORE CALLER SWAP1 PUSH32 0xA99E3EA632FCDC816B71D0E418DC65B991272AD5BBDD78F5CCF117BFE076B41 SWAP1 PUSH1 0x80 ADD PUSH1 0x40 MLOAD DUP1 SWAP2 SUB SWAP1 LOG2 POP POP POP POP POP POP POP POP POP POP POP POP POP JUMP JUMPDEST PUSH1 0x3 SLOAD PUSH1 0x1 PUSH1 0x1 PUSH1 0xA0 SHL SUB AND CALLER EQ PUSH2 0x13C2 JUMPI PUSH1 0x40 MLOAD PUSH4 0x47556579 PUSH1 0xE0 SHL DUP2 MSTORE PUSH1 0x4 ADD PUSH1 0x40 MLOAD DUP1 SWAP2 SUB SWAP1 REVERT JUMPDEST PUSH1 0x7 DUP1 SLOAD PUSH1 0x1 PUSH1 0x1 PUSH1 0xA0 SHL SUB SWAP1 SWAP3 AND PUSH2 0x100 MUL PUSH2 0x100 PUSH1 0x1 PUSH1 0xA8 SHL SUB NOT SWAP1 SWAP3 AND SWAP2 SWAP1 SWAP2 OR SWAP1 SSTORE JUMP JUMPDEST PUSH1 0x0 PUSH1 0x4 SLOAD DUP3 PUSH2 0x13FA SWAP2 SWAP1 PUSH2 0x20E4 JUMP JUMPDEST SWAP3 SWAP2 POP POP JUMP JUMPDEST PUSH1 0x0 PUSH1 0x6 SLOAD DUP3 PUSH2 0x13FA SWAP2 SWAP1 PUSH2 0x20E4 JUMP JUMPDEST PUSH1 0x7 SLOAD PUSH1 0xFF AND PUSH2 0x1433 JUMPI PUSH1 0x40 MLOAD PUSH4 0xB2915999 PUSH1 0xE0 SHL DUP2 MSTORE PUSH1 0x4 ADD PUSH1 0x40 MLOAD DUP1 SWAP2 SUB SWAP1 REVERT JUMPDEST DUP1 PUSH1 0x0 SUB PUSH2 0x1454 JUMPI PUSH1 0x40 MLOAD PUSH4 0x162908E3 PUSH1 0xE1 SHL DUP2 MSTORE PUSH1 0x4 ADD PUSH1 0x40 MLOAD DUP1 SWAP2 SUB SWAP1 REVERT JUMPDEST PUSH1 0x0 PUSH1 0x4 SLOAD DUP3 PUSH2 0x1464 SWAP2 SWAP1 PUSH2 0x20E4 JUMP JUMPDEST SWAP1 POP PUSH1 0x0 PUSH1 0x5 SLOAD DUP4 PUSH2 0x1476 SWAP2 SWAP1 PUSH2 0x20E4 JUMP JUMPDEST SWAP1 POP PUSH1 0x0 PUSH1 0x6 SLOAD DUP5 PUSH2 0x1488 SWAP2 SWAP1 PUSH2 0x20E4 JUMP JUMPDEST SWAP1 POP DUP3 CALLVALUE EQ PUSH2 0x14B3 JUMPI PUSH1 0x40 MLOAD PUSH4 0x613F8E2F PUSH1 0xE1 SHL DUP2 MSTORE CALLVALUE PUSH1 0x4 DUP3 ADD MSTORE PUSH1 0x24 DUP2 ADD DUP5 SWAP1 MSTORE PUSH1 0x44 ADD PUSH2 0x824 JUMP JUMPDEST PUSH1 0x7 SLOAD PUSH1 0x1 SLOAD PUSH1 0x40 MLOAD PUSH4 0x927DA105 PUSH1 0xE0 SHL DUP2 MSTORE PUSH1 0x0 SWAP3 PUSH2 0x100 SWAP1 DIV PUSH1 0x1 PUSH1 0x1 PUSH1 0xA0 SHL SUB SWAP1 DUP2 AND SWAP3 PUSH4 0x927DA105 SWAP3 PUSH2 0x14F4 SWAP3 SWAP1 SWAP2 AND SWAP1 CALLER SWAP1 ADDRESS SWAP1 PUSH1 0x4 ADD PUSH2 0x1DC0 JUMP JUMPDEST PUSH1 0x20 PUSH1 0x40 MLOAD DUP1 DUP4 SUB DUP2 DUP7 GAS STATICCALL ISZERO DUP1 ISZERO PUSH2 0x1511 JUMPI RETURNDATASIZE PUSH1 0x0 DUP1 RETURNDATACOPY RETURNDATASIZE PUSH1 0x0 REVERT JUMPDEST POP POP POP POP PUSH1 0x40 MLOAD RETURNDATASIZE PUSH1 0x1F NOT PUSH1 0x1F DUP3 ADD AND DUP3 ADD DUP1 PUSH1 0x40 MSTORE POP DUP2 ADD SWAP1 PUSH2 0x1535 SWAP2 SWAP1 PUSH2 0x2109 JUMP JUMPDEST SWAP1 POP DUP3 DUP2 LT ISZERO PUSH2 0x1562 JUMPI PUSH1 0x40 MLOAD PUSH4 0x6DC9C10B PUSH1 0xE0 SHL DUP2 MSTORE PUSH1 0x4 DUP2 ADD DUP3 SWAP1 MSTORE PUSH1 0x24 DUP2 ADD DUP5 SWAP1 MSTORE PUSH1 0x44 ADD PUSH2 0x824 JUMP JUMPDEST PUSH1 0x7 SLOAD PUSH1 0x2 SLOAD PUSH1 0x40 MLOAD PUSH4 0x927DA105 PUSH1 0xE0 SHL DUP2 MSTORE PUSH1 0x0 SWAP3 PUSH2 0x100 SWAP1 DIV PUSH1 0x1 PUSH1 0x1 PUSH1 0xA0 SHL SUB SWAP1 DUP2 AND SWAP3 PUSH4 0x927DA105 SWAP3 PUSH2 0x15A3 SWAP3 SWAP1 SWAP2 AND SWAP1 CALLER SWAP1 ADDRESS SWAP1 PUSH1 0x4 ADD PUSH2 0x1DC0 JUMP JUMPDEST PUSH1 0x20 PUSH1 0x40 MLOAD DUP1 DUP4 SUB DUP2 DUP7 GAS STATICCALL ISZERO DUP1 ISZERO PUSH2 0x15C0 JUMPI RETURNDATASIZE PUSH1 0x0 DUP1 RETURNDATACOPY RETURNDATASIZE PUSH1 0x0 REVERT JUMPDEST POP POP POP POP PUSH1 0x40 MLOAD RETURNDATASIZE PUSH1 0x1F NOT PUSH1 0x1F DUP3 ADD AND DUP3 ADD DUP1 PUSH1 0x40 MSTORE POP DUP2 ADD SWAP1 PUSH2 0x15E4 SWAP2 SWAP1 PUSH2 0x2109 JUMP JUMPDEST SWAP1 POP DUP3 DUP2 LT ISZERO PUSH2 0x1611 JUMPI PUSH1 0x40 MLOAD PUSH4 0x3AB67DF PUSH1 0xE0 SHL DUP2 MSTORE PUSH1 0x4 DUP2 ADD DUP3 SWAP1 MSTORE PUSH1 0x24 DUP2 ADD DUP5 SWAP1 MSTORE PUSH1 0x44 ADD PUSH2 0x824 JUMP JUMPDEST PUSH1 0x7 SLOAD PUSH1 0x1 SLOAD PUSH1 0x40 MLOAD PUSH4 0x2C54DE4F PUSH1 0xE0 SHL DUP2 MSTORE PUSH1 0x0 SWAP3 PUSH2 0x100 SWAP1 DIV PUSH1 0x1 PUSH1 0x1 PUSH1 0xA0 SHL SUB SWAP1 DUP2 AND SWAP3 PUSH4 0x2C54DE4F SWAP3 PUSH2 0x1654 SWAP3 SWAP1 SWAP2 AND SWAP1 CALLER SWAP1 ADDRESS SWAP1 DUP12 SWAP1 PUSH1 0x4 ADD PUSH2 0x2122 JUMP JUMPDEST PUSH1 0x20 PUSH1 0x40 MLOAD DUP1 DUP4 SUB DUP2 PUSH1 0x0 DUP8 GAS CALL ISZERO DUP1 ISZERO PUSH2 0x1673 JUMPI RETURNDATASIZE PUSH1 0x0 DUP1 RETURNDATACOPY RETURNDATASIZE PUSH1 0x0 REVERT JUMPDEST POP POP POP POP PUSH1 0x40 MLOAD RETURNDATASIZE PUSH1 0x1F NOT PUSH1 0x1F DUP3 ADD AND DUP3 ADD DUP1 PUSH1 0x40 MSTORE POP DUP2 ADD SWAP1 PUSH2 0x1697 SWAP2 SWAP1 PUSH2 0x1DFA JUMP JUMPDEST SWAP1 POP DUP1 PUSH1 0x7 SIGNEXTEND PUSH1 0x0 EQ PUSH2 0x16CC JUMPI PUSH1 0x1 SLOAD PUSH1 0x40 MLOAD PUSH4 0x53B93657 PUSH1 0xE0 SHL DUP2 MSTORE PUSH2 0x824 SWAP2 PUSH1 0x1 PUSH1 0x1 PUSH1 0xA0 SHL SUB AND SWAP1 DUP4 SWAP1 PUSH1 0x4 ADD PUSH2 0x1E15 JUMP JUMPDEST PUSH1 0x7 SLOAD PUSH1 0x2 SLOAD PUSH1 0x40 MLOAD PUSH4 0x2C54DE4F PUSH1 0xE0 SHL DUP2 MSTORE PUSH1 0x0 SWAP3 PUSH2 0x100 SWAP1 DIV PUSH1 0x1 PUSH1 0x1 PUSH1 0xA0 SHL SUB SWAP1 DUP2 AND SWAP3 PUSH4 0x2C54DE4F SWAP3 PUSH2 0x170F SWAP3 SWAP1 SWAP2 AND SWAP1 CALLER SWAP1 ADDRESS SWAP1 DUP12 SWAP1 PUSH1 0x4 ADD PUSH2 0x2122 JUMP JUMPDEST PUSH1 0x20 PUSH1 0x40 MLOAD DUP1 DUP4 SUB DUP2 PUSH1 0x0 DUP8 GAS CALL ISZERO DUP1 ISZERO PUSH2 0x172E JUMPI RETURNDATASIZE PUSH1 0x0 DUP1 RETURNDATACOPY RETURNDATASIZE PUSH1 0x0 REVERT JUMPDEST POP POP POP POP PUSH1 0x40 MLOAD RETURNDATASIZE PUSH1 0x1F NOT PUSH1 0x1F DUP3 ADD AND DUP3 ADD DUP1 PUSH1 0x40 MSTORE POP DUP2 ADD SWAP1 PUSH2 0x1752 SWAP2 SWAP1 PUSH2 0x1DFA JUMP JUMPDEST SWAP1 POP DUP1 PUSH1 0x7 SIGNEXTEND PUSH1 0x0 EQ PUSH2 0x1787 JUMPI PUSH1 0x2 SLOAD PUSH1 0x40 MLOAD PUSH4 0x53B93657 PUSH1 0xE0 SHL DUP2 MSTORE PUSH2 0x824 SWAP2 PUSH1 0x1 PUSH1 0x1 PUSH1 0xA0 SHL SUB AND SWAP1 DUP4 SWAP1 PUSH1 0x4 ADD PUSH2 0x1E15 JUMP JUMPDEST PUSH1 0x40 DUP1 MLOAD PUSH1 0x0 DUP1 DUP3 MSTORE PUSH1 0x20 DUP3 ADD SWAP1 SWAP3 MSTORE DUP2 PUSH2 0x17B2 JUMP JUMPDEST PUSH1 0x60 DUP2 MSTORE PUSH1 0x20 ADD SWAP1 PUSH1 0x1 SWAP1 SUB SWAP1 DUP2 PUSH2 0x179D JUMPI SWAP1 POP JUMPDEST POP PUSH1 0x7 SLOAD PUSH1 0x0 DUP1 SLOAD PUSH1 0x40 MLOAD PUSH4 0x76096E01 PUSH1 0xE1 SHL DUP2 MSTORE SWAP4 SWAP5 POP SWAP1 SWAP3 PUSH1 0x1 PUSH1 0x1 PUSH1 0xA0 SHL SUB PUSH2 0x100 SWAP1 SWAP4 DIV DUP4 AND SWAP3 PUSH4 0xEC12DC02 SWAP3 PUSH2 0x17F6 SWAP3 SWAP2 AND SWAP1 DUP15 SWAP1 DUP8 SWAP1 PUSH1 0x4 ADD PUSH2 0x214C JUMP JUMPDEST PUSH1 0x20 PUSH1 0x40 MLOAD DUP1 DUP4 SUB DUP2 PUSH1 0x0 DUP8 GAS CALL ISZERO DUP1 ISZERO PUSH2 0x1815 JUMPI RETURNDATASIZE PUSH1 0x0 DUP1 RETURNDATACOPY RETURNDATASIZE PUSH1 0x0 REVERT JUMPDEST POP POP POP POP PUSH1 0x40 MLOAD RETURNDATASIZE PUSH1 0x1F NOT PUSH1 0x1F DUP3 ADD AND DUP3 ADD DUP1 PUSH1 0x40 MSTORE POP DUP2 ADD SWAP1 PUSH2 0x1839 SWAP2 SWAP1 PUSH2 0x1DFA JUMP JUMPDEST SWAP1 POP DUP1 PUSH1 0x7 SIGNEXTEND PUSH1 0x0 EQ PUSH2 0x186E JUMPI PUSH1 0x0 SLOAD PUSH1 0x40 MLOAD PUSH4 0x25056C4D PUSH1 0xE2 SHL DUP2 MSTORE PUSH2 0x824 SWAP2 PUSH1 0x1 PUSH1 0x1 PUSH1 0xA0 SHL SUB AND SWAP1 DUP4 SWAP1 PUSH1 0x4 ADD PUSH2 0x1E15 JUMP JUMPDEST PUSH1 0x0 PUSH1 0x7 PUSH1 0x1 SWAP1 SLOAD SWAP1 PUSH2 0x100 EXP SWAP1 DIV PUSH1 0x1 PUSH1 0x1 PUSH1 0xA0 SHL SUB AND PUSH1 0x1 PUSH1 0x1 PUSH1 0xA0 SHL SUB AND PUSH4 0x2C54DE4F PUSH1 0x0 DUP1 SLOAD SWAP1 PUSH2 0x100 EXP SWAP1 DIV PUSH1 0x1 PUSH1 0x1 PUSH1 0xA0 SHL SUB AND ADDRESS CALLER DUP16 PUSH1 0x40 MLOAD DUP6 PUSH4 0xFFFFFFFF AND PUSH1 0xE0 SHL DUP2 MSTORE PUSH1 0x4 ADD PUSH2 0x18CA SWAP5 SWAP4 SWAP3 SWAP2 SWAP1 PUSH2 0x2122 JUMP JUMPDEST PUSH1 0x20 PUSH1 0x40 MLOAD DUP1 DUP4 SUB DUP2 PUSH1 0x0 DUP8 GAS CALL ISZERO DUP1 ISZERO PUSH2 0x18E9 JUMPI RETURNDATASIZE PUSH1 0x0 DUP1 RETURNDATACOPY RETURNDATASIZE PUSH1 0x0 REVERT JUMPDEST POP POP POP POP PUSH1 0x40 MLOAD RETURNDATASIZE PUSH1 0x1F NOT PUSH1 0x1F DUP3 ADD AND DUP3 ADD DUP1 PUSH1 0x40 MSTORE POP DUP2 ADD SWAP1 PUSH2 0x190D SWAP2 SWAP1 PUSH2 0x1DFA JUMP JUMPDEST SWAP1 POP DUP1 PUSH1 0x7 SIGNEXTEND PUSH1 0x0 EQ PUSH2 0x1942 JUMPI PUSH1 0x0 SLOAD PUSH1 0x40 MLOAD PUSH4 0x53B93657 PUSH1 0xE0 SHL DUP2 MSTORE PUSH2 0x824 SWAP2 PUSH1 0x1 PUSH1 0x1 PUSH1 0xA0 SHL SUB AND SWAP1 DUP4 SWAP1 PUSH1 0x4 ADD PUSH2 0x1E15 JUMP JUMPDEST PUSH1 0x40 DUP1 MLOAD DUP13 DUP2 MSTORE PUSH1 0x20 DUP2 ADD DUP13 SWAP1 MSTORE SWAP1 DUP2 ADD DUP11 SWAP1 MSTORE PUSH1 0x60 DUP2 ADD DUP10 SWAP1 MSTORE CALLER SWAP1 PUSH32 0xC8692244B89E2A7E07E1D9EA03612E5D30118C61DD11D7E664E945287A3CE61B SWAP1 PUSH1 0x80 ADD PUSH1 0x40 MLOAD DUP1 SWAP2 SUB SWAP1 LOG2 POP POP POP POP POP POP POP POP POP POP POP JUMP JUMPDEST PUSH1 0x0 DUP1 PUSH1 0x0 DUP1 PUSH1 0x0 DUP1 PUSH1 0x5 SLOAD DUP8 PUSH2 0x19B0 SWAP2 SWAP1 PUSH2 0x20E4 JUMP JUMPDEST SWAP4 POP PUSH1 0x6 SLOAD DUP8 PUSH2 0x19C0 SWAP2 SWAP1 PUSH2 0x20E4 JUMP JUMPDEST PUSH1 0x7 SLOAD PUSH1 0x1 SLOAD PUSH1 0x40 MLOAD PUSH4 0x927DA105 PUSH1 0xE0 SHL DUP2 MSTORE SWAP3 SWAP6 POP PUSH1 0x1 PUSH1 0x1 PUSH1 0xA0 SHL SUB PUSH2 0x100 SWAP1 SWAP3 DIV DUP3 AND SWAP3 PUSH4 0x927DA105 SWAP3 PUSH2 0x19FF SWAP3 AND SWAP1 DUP13 SWAP1 ADDRESS SWAP1 PUSH1 0x4 ADD PUSH2 0x1DC0 JUMP JUMPDEST PUSH1 0x20 PUSH1 0x40 MLOAD DUP1 DUP4 SUB DUP2 DUP7 GAS STATICCALL ISZERO DUP1 ISZERO PUSH2 0x1A1C JUMPI RETURNDATASIZE PUSH1 0x0 DUP1 RETURNDATACOPY RETURNDATASIZE PUSH1 0x0 REVERT JUMPDEST POP POP POP POP PUSH1 0x40 MLOAD RETURNDATASIZE PUSH1 0x1F NOT PUSH1 0x1F DUP3 ADD AND DUP3 ADD DUP1 PUSH1 0x40 MSTORE POP DUP2 ADD SWAP1 PUSH2 0x1A40 SWAP2 SWAP1 PUSH2 0x2109 JUMP JUMPDEST PUSH1 0x7 SLOAD PUSH1 0x2 SLOAD PUSH1 0x40 MLOAD PUSH4 0x927DA105 PUSH1 0xE0 SHL DUP2 MSTORE SWAP3 SWAP9 POP PUSH1 0x1 PUSH1 0x1 PUSH1 0xA0 SHL SUB PUSH2 0x100 SWAP1 SWAP3 DIV DUP3 AND SWAP3 PUSH4 0x927DA105 SWAP3 PUSH2 0x1A7F SWAP3 AND SWAP1 DUP13 SWAP1 ADDRESS SWAP1 PUSH1 0x4 ADD PUSH2 0x1DC0 JUMP JUMPDEST PUSH1 0x20 PUSH1 0x40 MLOAD DUP1 DUP4 SUB DUP2 DUP7 GAS STATICCALL ISZERO DUP1 ISZERO PUSH2 0x1A9C JUMPI RETURNDATASIZE PUSH1 0x0 DUP1 RETURNDATACOPY RETURNDATASIZE PUSH1 0x0 REVERT JUMPDEST POP POP POP POP PUSH1 0x40 MLOAD RETURNDATASIZE PUSH1 0x1F NOT PUSH1 0x1F DUP3 ADD AND DUP3 ADD DUP1 PUSH1 0x40 MSTORE POP DUP2 ADD SWAP1 PUSH2 0x1AC0 SWAP2 SWAP1 PUSH2 0x2109 JUMP JUMPDEST SWAP5 POP DUP4 DUP7 LT ISZERO SWAP2 POP DUP3 DUP6 LT ISZERO SWAP1 POP SWAP3 SWAP6 POP SWAP3 SWAP6 POP SWAP3 SWAP6 JUMP JUMPDEST PUSH1 0x3 SLOAD PUSH1 0x1 PUSH1 0x1 PUSH1 0xA0 SHL SUB AND CALLER EQ PUSH2 0x1B03 JUMPI PUSH1 0x40 MLOAD PUSH4 0x47556579 PUSH1 0xE0 SHL DUP2 MSTORE PUSH1 0x4 ADD PUSH1 0x40 MLOAD DUP1 SWAP2 SUB SWAP1 REVERT JUMPDEST PUSH2 0x1B0B PUSH2 0x1B1D JUMP JUMPDEST JUMP JUMPDEST PUSH1 0x0 PUSH1 0x5 SLOAD DUP3 PUSH2 0x13FA SWAP2 SWAP1 PUSH2 0x20E4 JUMP JUMPDEST PUSH1 0x0 SLOAD PUSH1 0x1 PUSH1 0x1 PUSH1 0xA0 SHL SUB AND PUSH2 0x1B6A JUMPI PUSH1 0x40 MLOAD PUSH3 0x461BCD PUSH1 0xE5 SHL DUP2 MSTORE PUSH1 0x20 PUSH1 0x4 DUP3 ADD MSTORE PUSH1 0x12 PUSH1 0x24 DUP3 ADD MSTORE PUSH18 0x13165396081D1BDAD95B881B9BDD081CD95D PUSH1 0x72 SHL PUSH1 0x44 DUP3 ADD MSTORE PUSH1 0x64 ADD PUSH2 0x824 JUMP JUMPDEST PUSH1 0x7 SLOAD PUSH1 0x0 SLOAD PUSH1 0x40 MLOAD PUSH4 0x2E1A6345 PUSH1 0xE1 SHL DUP2 MSTORE PUSH1 0x1 PUSH1 0x1 PUSH1 0xA0 SHL SUB SWAP2 DUP3 AND PUSH1 0x4 DUP3 ADD MSTORE ADDRESS PUSH1 0x24 DUP3 ADD MSTORE PUSH2 0x100 SWAP1 SWAP3 DIV AND SWAP1 PUSH4 0x5C34C68A SWAP1 PUSH1 0x44 ADD PUSH1 0x20 PUSH1 0x40 MLOAD DUP1 DUP4 SUB DUP2 DUP7 GAS STATICCALL ISZERO DUP1 ISZERO PUSH2 0x1BC1 JUMPI RETURNDATASIZE PUSH1 0x0 DUP1 RETURNDATACOPY RETURNDATASIZE PUSH1 0x0 REVERT JUMPDEST POP POP POP POP PUSH1 0x40 MLOAD RETURNDATASIZE PUSH1 0x1F NOT PUSH1 0x1F DUP3 ADD AND DUP3 ADD DUP1 PUSH1 0x40 MSTORE POP DUP2 ADD SWAP1 PUSH2 0x1BE5 SWAP2 SWAP1 PUSH2 0x21C5 JUMP JUMPDEST PUSH1 0x7 DUP1 SLOAD PUSH1 0xFF NOT AND SWAP2 ISZERO ISZERO SWAP2 DUP3 OR SWAP1 SSTORE PUSH1 0x40 MLOAD PUSH1 0xFF SWAP1 SWAP2 AND ISZERO ISZERO DUP2 MSTORE PUSH32 0x40A36E95E1165E03B5C30095CD9D1E9FA9D8AA98D06AA1D6432A77718C0B68F0 SWAP1 PUSH1 0x20 ADD PUSH1 0x40 MLOAD DUP1 SWAP2 SUB SWAP1 LOG1 JUMP JUMPDEST PUSH1 0x0 DUP1 DUP4 PUSH1 0x1F DUP5 ADD SLT PUSH2 0x1C42 JUMPI PUSH1 0x0 DUP1 REVERT JUMPDEST POP DUP2 CALLDATALOAD PUSH8 0xFFFFFFFFFFFFFFFF DUP2 GT ISZERO PUSH2 0x1C5A JUMPI PUSH1 0x0 DUP1 REVERT JUMPDEST PUSH1 0x20 DUP4 ADD SWAP2 POP DUP4 PUSH1 0x20 DUP3 DUP6 ADD ADD GT ISZERO PUSH2 0x1C72 JUMPI PUSH1 0x0 DUP1 REVERT JUMPDEST SWAP3 POP SWAP3 SWAP1 POP JUMP JUMPDEST PUSH1 0x0 DUP1 PUSH1 0x0 DUP1 PUSH1 0x0 DUP1 PUSH1 0x60 DUP8 DUP10 SUB SLT ISZERO PUSH2 0x1C92 JUMPI PUSH1 0x0 DUP1 REVERT JUMPDEST DUP7 CALLDATALOAD PUSH8 0xFFFFFFFFFFFFFFFF DUP1 DUP3 GT ISZERO PUSH2 0x1CAA JUMPI PUSH1 0x0 DUP1 REVERT JUMPDEST PUSH2 0x1CB6 DUP11 DUP4 DUP12 ADD PUSH2 0x1C30 JUMP JUMPDEST SWAP1 SWAP9 POP SWAP7 POP PUSH1 0x20 DUP10 ADD CALLDATALOAD SWAP2 POP DUP1 DUP3 GT ISZERO PUSH2 0x1CCF JUMPI PUSH1 0x0 DUP1 REVERT JUMPDEST PUSH2 0x1CDB DUP11 DUP4 DUP12 ADD PUSH2 0x1C30 JUMP JUMPDEST SWAP1 SWAP7 POP SWAP5 POP PUSH1 0x40 DUP10 ADD CALLDATALOAD SWAP2 POP DUP1 DUP3 GT ISZERO PUSH2 0x1CF4 JUMPI PUSH1 0x0 DUP1 REVERT JUMPDEST POP PUSH2 0x1D01 DUP10 DUP3 DUP11 ADD PUSH2 0x1C30 JUMP JUMPDEST SWAP8 SWAP11 SWAP7 SWAP10 POP SWAP5 SWAP8 POP SWAP3 SWAP6 SWAP4 SWAP5 SWAP3 POP POP POP JUMP JUMPDEST PUSH1 0x0 DUP1 PUSH1 0x0 PUSH1 0x60 DUP5 DUP7 SUB SLT ISZERO PUSH2 0x1D28 JUMPI PUSH1 0x0 DUP1 REVERT JUMPDEST POP POP DUP2 CALLDATALOAD SWAP4 PUSH1 0x20 DUP4 ADD CALLDATALOAD SWAP4 POP PUSH1 0x40 SWAP1 SWAP3 ADD CALLDATALOAD SWAP2 SWAP1 POP JUMP JUMPDEST PUSH1 0x0 PUSH1 0x20 DUP3 DUP5 SUB SLT ISZERO PUSH2 0x1D51 JUMPI PUSH1 0x0 DUP1 REVERT JUMPDEST POP CALLDATALOAD SWAP2 SWAP1 POP JUMP JUMPDEST PUSH1 0x1 PUSH1 0x1 PUSH1 0xA0 SHL SUB DUP2 AND DUP2 EQ PUSH2 0x1D6D JUMPI PUSH1 0x0 DUP1 REVERT JUMPDEST POP JUMP JUMPDEST PUSH1 0x0 PUSH1 0x20 DUP3 DUP5 SUB SLT ISZERO PUSH2 0x1D82 JUMPI PUSH1 0x0 DUP1 REVERT JUMPDEST DUP2 CALLDATALOAD PUSH2 0x1D8D DUP2 PUSH2 0x1D58 JUMP JUMPDEST SWAP4 SWAP3 POP POP POP JUMP JUMPDEST PUSH1 0x0 DUP1 PUSH1 0x40 DUP4 DUP6 SUB SLT ISZERO PUSH2 0x1DA7 JUMPI PUSH1 0x0 DUP1 REVERT JUMPDEST DUP3 CALLDATALOAD PUSH2 0x1DB2 DUP2 PUSH2 0x1D58 JUMP JUMPDEST SWAP5 PUSH1 0x20 SWAP4 SWAP1 SWAP4 ADD CALLDATALOAD SWAP4 POP POP POP JUMP JUMPDEST PUSH1 0x1 PUSH1 0x1 PUSH1 0xA0 SHL SUB SWAP4 DUP5 AND DUP2 MSTORE SWAP2 DUP4 AND PUSH1 0x20 DUP4 ADD MSTORE SWAP1 SWAP2 AND PUSH1 0x40 DUP3 ADD MSTORE PUSH1 0x60 ADD SWAP1 JUMP JUMPDEST DUP1 MLOAD PUSH1 0x7 DUP2 SWAP1 SIGNEXTEND DUP2 EQ PUSH2 0x1DF5 JUMPI PUSH1 0x0 DUP1 REVERT JUMPDEST SWAP2 SWAP1 POP JUMP JUMPDEST PUSH1 0x0 PUSH1 0x20 DUP3 DUP5 SUB SLT ISZERO PUSH2 0x1E0C JUMPI PUSH1 0x0 DUP1 REVERT JUMPDEST PUSH2 0x1D8D DUP3 PUSH2 0x1DE3 JUMP JUMPDEST PUSH1 0x1 PUSH1 0x1 PUSH1 0xA0 SHL SUB SWAP3 SWAP1 SWAP3 AND DUP3 MSTORE PUSH1 0x7 SIGNEXTEND PUSH1 0x20 DUP3 ADD MSTORE PUSH1 0x40 ADD SWAP1 JUMP JUMPDEST PUSH4 0x4E487B71 PUSH1 0xE0 SHL PUSH1 0x0 MSTORE PUSH1 0x32 PUSH1 0x4 MSTORE PUSH1 0x24 PUSH1 0x0 REVERT JUMPDEST PUSH1 0x0 DUP2 MLOAD DUP1 DUP5 MSTORE PUSH1 0x0 JUMPDEST DUP2 DUP2 LT ISZERO PUSH2 0x1E6D JUMPI PUSH1 0x20 DUP2 DUP6 ADD DUP2 ADD MLOAD DUP7 DUP4 ADD DUP3 ADD MSTORE ADD PUSH2 0x1E51 JUMP JUMPDEST POP PUSH1 0x0 PUSH1 0x20 DUP3 DUP7 ADD ADD MSTORE PUSH1 0x20 PUSH1 0x1F NOT PUSH1 0x1F DUP4 ADD AND DUP6 ADD ADD SWAP2 POP POP SWAP3 SWAP2 POP POP JUMP JUMPDEST PUSH1 0x0 DUP2 MLOAD DUP1 DUP5 MSTORE PUSH1 0x20 DUP1 DUP6 ADD SWAP5 POP DUP1 DUP5 ADD PUSH1 0x0 JUMPDEST DUP4 DUP2 LT ISZERO PUSH2 0x1EC6 JUMPI DUP2 MLOAD PUSH1 0x1 PUSH1 0x1 PUSH1 0xA0 SHL SUB AND DUP8 MSTORE SWAP6 DUP3 ADD SWAP6 SWAP1 DUP3 ADD SWAP1 PUSH1 0x1 ADD PUSH2 0x1EA1 JUMP JUMPDEST POP SWAP5 SWAP6 SWAP5 POP POP POP POP POP JUMP JUMPDEST PUSH1 0x0 DUP2 MLOAD DUP1 DUP5 MSTORE PUSH1 0x20 DUP1 DUP6 ADD SWAP5 POP DUP1 DUP5 ADD PUSH1 0x0 JUMPDEST DUP4 DUP2 LT ISZERO PUSH2 0x1EC6 JUMPI DUP2 MLOAD PUSH1 0xFF AND DUP8 MSTORE SWAP6 DUP3 ADD SWAP6 SWAP1 DUP3 ADD SWAP1 PUSH1 0x1 ADD PUSH2 0x1EE5 JUMP JUMPDEST PUSH1 0x80 DUP2 MSTORE PUSH1 0x0 DUP6 MLOAD PUSH2 0x1A0 DUP1 PUSH1 0x80 DUP6 ADD MSTORE PUSH2 0x1F23 PUSH2 0x220 DUP6 ADD DUP4 PUSH2 0x1E47 JUMP JUMPDEST SWAP2 POP PUSH1 0x20 DUP9 ADD MLOAD PUSH1 0x7F NOT DUP1 DUP7 DUP6 SUB ADD PUSH1 0xA0 DUP8 ADD MSTORE PUSH2 0x1F41 DUP5 DUP4 PUSH2 0x1E47 JUMP JUMPDEST SWAP4 POP PUSH1 0x40 DUP11 ADD MLOAD SWAP2 POP PUSH2 0x1F5F PUSH1 0xC0 DUP8 ADD DUP4 PUSH1 0x1 PUSH1 0x1 PUSH1 0xA0 SHL SUB AND SWAP1 MSTORE JUMP JUMPDEST PUSH1 0x60 DUP11 ADD MLOAD SWAP2 POP DUP1 DUP7 DUP6 SUB ADD PUSH1 0xE0 DUP8 ADD MSTORE PUSH2 0x1F7A DUP5 DUP4 PUSH2 0x1E47 JUMP JUMPDEST SWAP4 POP PUSH1 0x80 DUP11 ADD MLOAD SWAP2 POP PUSH2 0x100 PUSH2 0x1F93 DUP2 DUP9 ADD DUP5 ISZERO ISZERO SWAP1 MSTORE JUMP JUMPDEST PUSH1 0xA0 DUP12 ADD MLOAD SWAP3 POP PUSH2 0x120 PUSH2 0x1FAE DUP2 DUP10 ADD DUP6 PUSH4 0xFFFFFFFF AND SWAP1 MSTORE JUMP JUMPDEST PUSH1 0xC0 DUP13 ADD MLOAD SWAP4 POP PUSH2 0x140 PUSH2 0x1FC5 DUP2 DUP11 ADD DUP7 ISZERO ISZERO SWAP1 MSTORE JUMP JUMPDEST PUSH1 0xE0 DUP14 ADD MLOAD SWAP5 POP PUSH2 0x160 DUP5 DUP11 DUP10 SUB ADD DUP2 DUP12 ADD MSTORE PUSH2 0x1FE2 DUP9 DUP8 PUSH2 0x1E8D JUMP JUMPDEST SWAP8 POP DUP4 DUP15 ADD MLOAD SWAP6 POP PUSH2 0x180 SWAP4 POP DUP5 DUP11 DUP10 SUB ADD DUP5 DUP12 ADD MSTORE PUSH2 0x2002 DUP9 DUP8 PUSH2 0x1E8D JUMP JUMPDEST SWAP8 POP DUP3 DUP15 ADD MLOAD SWAP6 POP DUP5 DUP11 DUP10 SUB ADD DUP8 DUP12 ADD MSTORE PUSH2 0x201D DUP9 DUP8 PUSH2 0x1E8D JUMP JUMPDEST SWAP8 POP DUP2 DUP15 ADD MLOAD SWAP7 POP DUP5 DUP11 DUP10 SUB ADD PUSH2 0x1C0 DUP12 ADD MSTORE PUSH2 0x203A DUP9 DUP9 PUSH2 0x1E8D JUMP JUMPDEST SWAP8 POP DUP1 DUP15 ADD MLOAD SWAP7 POP POP POP POP DUP2 DUP8 DUP7 SUB ADD PUSH2 0x1E0 DUP9 ADD MSTORE PUSH2 0x205A DUP6 DUP6 PUSH2 0x1E8D JUMP JUMPDEST SWAP5 POP DUP1 DUP12 ADD MLOAD SWAP4 POP POP POP POP PUSH2 0x2075 PUSH2 0x200 DUP6 ADD DUP3 PUSH1 0xFF AND SWAP1 MSTORE JUMP JUMPDEST POP DUP6 PUSH1 0x20 DUP5 ADD MSTORE DUP3 DUP2 SUB PUSH1 0x40 DUP5 ADD MSTORE PUSH2 0x208E DUP2 DUP7 PUSH2 0x1ED1 JUMP JUMPDEST SWAP1 POP DUP3 DUP2 SUB PUSH1 0x60 DUP5 ADD MSTORE PUSH2 0x20A2 DUP2 DUP6 PUSH2 0x1E8D JUMP JUMPDEST SWAP8 SWAP7 POP POP POP POP POP POP POP JUMP JUMPDEST PUSH1 0x0 DUP1 PUSH1 0x40 DUP4 DUP6 SUB SLT ISZERO PUSH2 0x20C0 JUMPI PUSH1 0x0 DUP1 REVERT JUMPDEST PUSH2 0x20C9 DUP4 PUSH2 0x1DE3 JUMP JUMPDEST SWAP2 POP PUSH1 0x20 DUP4 ADD MLOAD PUSH2 0x20D9 DUP2 PUSH2 0x1D58 JUMP JUMPDEST DUP1 SWAP2 POP POP SWAP3 POP SWAP3 SWAP1 POP JUMP JUMPDEST DUP1 DUP3 MUL DUP2 ISZERO DUP3 DUP3 DIV DUP5 EQ OR PUSH2 0x13FA JUMPI PUSH4 0x4E487B71 PUSH1 0xE0 SHL PUSH1 0x0 MSTORE PUSH1 0x11 PUSH1 0x4 MSTORE PUSH1 0x24 PUSH1 0x0 REVERT JUMPDEST PUSH1 0x0 PUSH1 0x20 DUP3 DUP5 SUB SLT ISZERO PUSH2 0x211B JUMPI PUSH1 0x0 DUP1 REVERT JUMPDEST POP MLOAD SWAP2 SWAP1 POP JUMP JUMPDEST PUSH1 0x1 PUSH1 0x1 PUSH1 0xA0 SHL SUB SWAP5 DUP6 AND DUP2 MSTORE SWAP3 DUP5 AND PUSH1 0x20 DUP5 ADD MSTORE SWAP3 AND PUSH1 0x40 DUP3 ADD MSTORE PUSH1 0x60 DUP2 ADD SWAP2 SWAP1 SWAP2 MSTORE PUSH1 0x80 ADD SWAP1 JUMP JUMPDEST PUSH1 0x0 PUSH1 0x60 DUP3 ADD PUSH1 0x1 DUP1 PUSH1 0xA0 SHL SUB DUP7 AND DUP4 MSTORE PUSH1 0x20 DUP6 DUP2 DUP6 ADD MSTORE PUSH1 0x60 PUSH1 0x40 DUP6 ADD MSTORE DUP2 DUP6 MLOAD DUP1 DUP5 MSTORE PUSH1 0x80 DUP7 ADD SWAP2 POP PUSH1 0x80 DUP2 PUSH1 0x5 SHL DUP8 ADD ADD SWAP4 POP DUP3 DUP8 ADD PUSH1 0x0 JUMPDEST DUP3 DUP2 LT ISZERO PUSH2 0x21B6 JUMPI PUSH1 0x7F NOT DUP9 DUP8 SUB ADD DUP5 MSTORE PUSH2 0x21A4 DUP7 DUP4 MLOAD PUSH2 0x1E47 JUMP JUMPDEST SWAP6 POP SWAP3 DUP5 ADD SWAP3 SWAP1 DUP5 ADD SWAP1 PUSH1 0x1 ADD PUSH2 0x2188 JUMP JUMPDEST POP SWAP4 SWAP10 SWAP9 POP POP POP POP POP POP POP POP POP JUMP JUMPDEST PUSH1 0x0 PUSH1 0x20 DUP3 DUP5 SUB SLT ISZERO PUSH2 0x21D7 JUMPI PUSH1 0x0 DUP1 REVERT JUMPDEST DUP2 MLOAD DUP1 ISZERO ISZERO DUP2 EQ PUSH2 0x1D8D JUMPI PUSH1 0x0 DUP1 REVERT INVALID LOG2 PUSH5 0x6970667358 0x22 SLT KECCAK256 PUSH6 0xD57F2CF3E75E CHAINID SWAP4 GAS 0xC3 PUSH22 0x1FD0D1B0AA7C1AD9F181995FB572E6B95C8C084B6473 PUSH16 0x6C634300081400330000000000000000 "},"methodIdentifiers":{"ADMIN()":"2a0acc6a","CLXY_RATIO()":"8d6be540","CLXY_TOKEN()":"1da965c2","HBAR_RATIO()":"4924190c","HTS_PRECOMPILE()":"4543873d","IS_SUPPLY_TYPE_INFINITE()":"e294204d","LYNX_TOKEN()":"e1e99576","SAUCE_RATIO()":"ef037593","SAUCE_TOKEN()":"1ec65c36","TOKEN_DECIMALS()":"5b7f415c","TOKEN_MAX_SUPPLY()":"8ee2c4b8","associateTokens()":"10ca0bce","burn(uint256)":"42966c68","calculateRequiredCLXY(uint256)":"92361927","calculateRequiredHBAR(uint256)":"6461e01a","calculateRequiredSAUCE(uint256)":"cab21a6a","checkAllowances(address,uint256)":"b0e4fe4f","checkSupplyKey()":"de579bc9","createLynxToken(string,string,string)":"1d12e296","getClxyRatio()":"853f51ad","getHbarRatio()":"739036b2","getSauceRatio()":"9057bb4a","getTokenAddresses()":"ee8c24b8","hasSupplyKey()":"331a4c20","mint(uint256)":"a0712d68","setTokenService(address)":"4bb3c9cf","updateRatios(uint256,uint256,uint256)":"30d0a66c","updateSupplyKeyStatus()":"c2f4bfaf"}}}}}