{"src/app/contracts/MockHTS.sol":{"MockHTS":{"abi":[{"inputs":[{"internalType":"address","name":"token","type":"address"},{"internalType":"address","name":"owner","type":"address"},{"internalType":"address","name":"spender","type":"address"}],"name":"allowance","outputs":[{"internalType":"int64","name":"","type":"int64"}],"stateMutability":"view","type":"function"},{"inputs":[{"internalType":"address","name":"account","type":"address"},{"internalType":"address","name":"token","type":"address"}],"name":"associateToken","outputs":[{"internalType":"int64","name":"","type":"int64"}],"stateMutability":"nonpayable","type":"function"},{"inputs":[{"internalType":"address","name":"token","type":"address"},{"internalType":"address","name":"account","type":"address"}],"name":"balanceOf","outputs":[{"internalType":"int64","name":"","type":"int64"}],"stateMutability":"view","type":"function"},{"inputs":[{"internalType":"address","name":"account","type":"address"},{"internalType":"address","name":"token","type":"address"}],"name":"isTokenAssociated","outputs":[{"internalType":"bool","name":"","type":"bool"}],"stateMutability":"view","type":"function"},{"inputs":[{"internalType":"address","name":"token","type":"address"},{"internalType":"address","name":"owner","type":"address"},{"internalType":"address","name":"spender","type":"address"},{"internalType":"int64","name":"amount","type":"int64"}],"name":"setAllowance","outputs":[],"stateMutability":"nonpayable","type":"function"},{"inputs":[{"internalType":"address","name":"token","type":"address"},{"internalType":"address","name":"account","type":"address"},{"internalType":"int64","name":"balance","type":"int64"}],"name":"setBalance","outputs":[],"stateMutability":"nonpayable","type":"function"},{"inputs":[{"internalType":"address","name":"account","type":"address"},{"internalType":"address","name":"token","type":"address"},{"internalType":"bool","name":"associated","type":"bool"}],"name":"setTokenAssociated","outputs":[],"stateMutability":"nonpayable","type":"function"},{"inputs":[{"internalType":"address","name":"token","type":"address"},{"internalType":"address","name":"from","type":"address"},{"internalType":"address","name":"to","type":"address"},{"internalType":"int64","name":"amount","type":"int64"}],"name":"transferToken","outputs":[{"internalType":"int64","name":"","type":"int64"}],"stateMutability":"nonpayable","type":"function"}],"evm":{"bytecode":{"linkReferences":{},"object":"608060405234801561001057600080fd5b50610603806100206000396000f3fe608060405234801561001057600080fd5b50600436106100885760003560e01c8063a7796a901161005b578063a7796a90146101ab578063b3b549d9146101f1578063eca3691714610249578063f7888aec1461025c57600080fd5b80633ff2e11a1461008d57806349146bde146100f0578063725fe8a41461011b578063927da10514610165575b600080fd5b6100ee61009b366004610409565b6001600160a01b03938416600090815260026020908152604080832095871683529481528482209390951681529190935220805467ffffffffffffffff191667ffffffffffffffff909216919091179055565b005b6101036100fe36600461045d565b610298565b60405160079190910b81526020015b60405180910390f35b61015561012936600461045d565b6001600160a01b0391821660009081526020818152604080832093909416825291909152205460ff1690565b6040519015158152602001610112565b610103610173366004610490565b6001600160a01b0392831660009081526002602090815260408083209486168352938152838220929094168152925290205460070b90565b6100ee6101b93660046104d3565b6001600160a01b0392831660009081526020818152604080832094909516825292909252919020805460ff1916911515919091179055565b6100ee6101ff36600461051f565b6001600160a01b03928316600090815260016020908152604080832094909516825292909252919020805467ffffffffffffffff191667ffffffffffffffff909216919091179055565b610103610257366004610409565b6102cf565b61010361026a36600461045d565b6001600160a01b03918216600090815260016020908152604080832093909416825291909152205460070b90565b6001600160a01b038083166000908152602081815260408083209385168352929052908120805460ff191660011790555b92915050565b6001600160a01b038085166000908152600160209081526040808320938716835292905290812054600783810b91900b121561030d575060016103d3565b6001600160a01b0380861660009081526001602090815260408083209388168352929052908120805484929061034790849060070b61056f565b825467ffffffffffffffff9182166101009390930a9283029190920219909116179055506001600160a01b038086166000908152600160209081526040808320938716835292905290812080548492906103a590849060070b61059e565b92506101000a81548167ffffffffffffffff021916908360070b67ffffffffffffffff160217905550600090505b949350505050565b80356001600160a01b03811681146103f257600080fd5b919050565b8035600781900b81146103f257600080fd5b6000806000806080858703121561041f57600080fd5b610428856103db565b9350610436602086016103db565b9250610444604086016103db565b9150610452606086016103f7565b905092959194509250565b6000806040838503121561047057600080fd5b610479836103db565b9150610487602084016103db565b90509250929050565b6000806000606084860312156104a557600080fd5b6104ae846103db565b92506104bc602085016103db565b91506104ca604085016103db565b90509250925092565b6000806000606084860312156104e857600080fd5b6104f1846103db565b92506104ff602085016103db565b91506040840135801515811461051457600080fd5b809150509250925092565b60008060006060848603121561053457600080fd5b61053d846103db565b925061054b602085016103db565b91506104ca604085016103f7565b634e487b7160e01b600052601160045260246000fd5b600782810b9082900b03677fffffffffffffff198112677fffffffffffffff821317156102c9576102c9610559565b600781810b9083900b01677fffffffffffffff8113677fffffffffffffff19821217156102c9576102c961055956fea2646970667358221220dfeed428893bca9bde56ad901758266ecbcbe3b75da3b2dc3bf65e6f2b86816964736f6c63430008140033","opcodes":"PUSH1 0x80 PUSH1 0x40 MSTORE CALLVALUE DUP1 ISZERO PUSH2 0x10 JUMPI PUSH1 0x0 DUP1 REVERT JUMPDEST POP PUSH2 0x603 DUP1 PUSH2 0x20 PUSH1 0x0 CODECOPY PUSH1 0x0 RETURN INVALID PUSH1 0x80 PUSH1 0x40 MSTORE CALLVALUE DUP1 ISZERO PUSH2 0x10 JUMPI PUSH1 0x0 DUP1 REVERT JUMPDEST POP PUSH1 0x4 CALLDATASIZE LT PUSH2 0x88 JUMPI PUSH1 0x0 CALLDATALOAD PUSH1 0xE0 SHR DUP1 PUSH4 0xA7796A90 GT PUSH2 0x5B JUMPI DUP1 PUSH4 0xA7796A90 EQ PUSH2 0x1AB JUMPI DUP1 PUSH4 0xB3B549D9 EQ PUSH2 0x1F1 JUMPI DUP1 PUSH4 0xECA36917 EQ PUSH2 0x249 JUMPI DUP1 PUSH4 0xF7888AEC EQ PUSH2 0x25C JUMPI PUSH1 0x0 DUP1 REVERT JUMPDEST DUP1 PUSH4 0x3FF2E11A EQ PUSH2 0x8D JUMPI DUP1 PUSH4 0x49146BDE EQ PUSH2 0xF0 JUMPI DUP1 PUSH4 0x725FE8A4 EQ PUSH2 0x11B JUMPI DUP1 PUSH4 0x927DA105 EQ PUSH2 0x165 JUMPI JUMPDEST PUSH1 0x0 DUP1 REVERT JUMPDEST PUSH2 0xEE PUSH2 0x9B CALLDATASIZE PUSH1 0x4 PUSH2 0x409 JUMP JUMPDEST PUSH1 0x1 PUSH1 0x1 PUSH1 0xA0 SHL SUB SWAP4 DUP5 AND PUSH1 0x0 SWAP1 DUP2 MSTORE PUSH1 0x2 PUSH1 0x20 SWAP1 DUP2 MSTORE PUSH1 0x40 DUP1 DUP4 KECCAK256 SWAP6 DUP8 AND DUP4 MSTORE SWAP5 DUP2 MSTORE DUP5 DUP3 KECCAK256 SWAP4 SWAP1 SWAP6 AND DUP2 MSTORE SWAP2 SWAP1 SWAP4 MSTORE KECCAK256 DUP1 SLOAD PUSH8 0xFFFFFFFFFFFFFFFF NOT AND PUSH8 0xFFFFFFFFFFFFFFFF SWAP1 SWAP3 AND SWAP2 SWAP1 SWAP2 OR SWAP1 SSTORE JUMP JUMPDEST STOP JUMPDEST PUSH2 0x103 PUSH2 0xFE CALLDATASIZE PUSH1 0x4 PUSH2 0x45D JUMP JUMPDEST PUSH2 0x298 JUMP JUMPDEST PUSH1 0x40 MLOAD PUSH1 0x7 SWAP2 SWAP1 SWAP2 SIGNEXTEND DUP2 MSTORE PUSH1 0x20 ADD JUMPDEST PUSH1 0x40 MLOAD DUP1 SWAP2 SUB SWAP1 RETURN JUMPDEST PUSH2 0x155 PUSH2 0x129 CALLDATASIZE PUSH1 0x4 PUSH2 0x45D JUMP JUMPDEST PUSH1 0x1 PUSH1 0x1 PUSH1 0xA0 SHL SUB SWAP2 DUP3 AND PUSH1 0x0 SWAP1 DUP2 MSTORE PUSH1 0x20 DUP2 DUP2 MSTORE PUSH1 0x40 DUP1 DUP4 KECCAK256 SWAP4 SWAP1 SWAP5 AND DUP3 MSTORE SWAP2 SWAP1 SWAP2 MSTORE KECCAK256 SLOAD PUSH1 0xFF AND SWAP1 JUMP JUMPDEST PUSH1 0x40 MLOAD SWAP1 ISZERO ISZERO DUP2 MSTORE PUSH1 0x20 ADD PUSH2 0x112 JUMP JUMPDEST PUSH2 0x103 PUSH2 0x173 CALLDATASIZE PUSH1 0x4 PUSH2 0x490 JUMP JUMPDEST PUSH1 0x1 PUSH1 0x1 PUSH1 0xA0 SHL SUB SWAP3 DUP4 AND PUSH1 0x0 SWAP1 DUP2 MSTORE PUSH1 0x2 PUSH1 0x20 SWAP1 DUP2 MSTORE PUSH1 0x40 DUP1 DUP4 KECCAK256 SWAP5 DUP7 AND DUP4 MSTORE SWAP4 DUP2 MSTORE DUP4 DUP3 KECCAK256 SWAP3 SWAP1 SWAP5 AND DUP2 MSTORE SWAP3 MSTORE SWAP1 KECCAK256 SLOAD PUSH1 0x7 SIGNEXTEND SWAP1 JUMP JUMPDEST PUSH2 0xEE PUSH2 0x1B9 CALLDATASIZE PUSH1 0x4 PUSH2 0x4D3 JUMP JUMPDEST PUSH1 0x1 PUSH1 0x1 PUSH1 0xA0 SHL SUB SWAP3 DUP4 AND PUSH1 0x0 SWAP1 DUP2 MSTORE PUSH1 0x20 DUP2 DUP2 MSTORE PUSH1 0x40 DUP1 DUP4 KECCAK256 SWAP5 SWAP1 SWAP6 AND DUP3 MSTORE SWAP3 SWAP1 SWAP3 MSTORE SWAP2 SWAP1 KECCAK256 DUP1 SLOAD PUSH1 0xFF NOT AND SWAP2 ISZERO ISZERO SWAP2 SWAP1 SWAP2 OR SWAP1 SSTORE JUMP JUMPDEST PUSH2 0xEE PUSH2 0x1FF CALLDATASIZE PUSH1 0x4 PUSH2 0x51F JUMP JUMPDEST PUSH1 0x1 PUSH1 0x1 PUSH1 0xA0 SHL SUB SWAP3 DUP4 AND PUSH1 0x0 SWAP1 DUP2 MSTORE PUSH1 0x1 PUSH1 0x20 SWAP1 DUP2 MSTORE PUSH1 0x40 DUP1 DUP4 KECCAK256 SWAP5 SWAP1 SWAP6 AND DUP3 MSTORE SWAP3 SWAP1 SWAP3 MSTORE SWAP2 SWAP1 KECCAK256 DUP1 SLOAD PUSH8 0xFFFFFFFFFFFFFFFF NOT AND PUSH8 0xFFFFFFFFFFFFFFFF SWAP1 SWAP3 AND SWAP2 SWAP1 SWAP2 OR SWAP1 SSTORE JUMP JUMPDEST PUSH2 0x103 PUSH2 0x257 CALLDATASIZE PUSH1 0x4 PUSH2 0x409 JUMP JUMPDEST PUSH2 0x2CF JUMP JUMPDEST PUSH2 0x103 PUSH2 0x26A CALLDATASIZE PUSH1 0x4 PUSH2 0x45D JUMP JUMPDEST PUSH1 0x1 PUSH1 0x1 PUSH1 0xA0 SHL SUB SWAP2 DUP3 AND PUSH1 0x0 SWAP1 DUP2 MSTORE PUSH1 0x1 PUSH1 0x20 SWAP1 DUP2 MSTORE PUSH1 0x40 DUP1 DUP4 KECCAK256 SWAP4 SWAP1 SWAP5 AND DUP3 MSTORE SWAP2 SWAP1 SWAP2 MSTORE KECCAK256 SLOAD PUSH1 0x7 SIGNEXTEND SWAP1 JUMP JUMPDEST PUSH1 0x1 PUSH1 0x1 PUSH1 0xA0 SHL SUB DUP1 DUP4 AND PUSH1 0x0 SWAP1 DUP2 MSTORE PUSH1 0x20 DUP2 DUP2 MSTORE PUSH1 0x40 DUP1 DUP4 KECCAK256 SWAP4 DUP6 AND DUP4 MSTORE SWAP3 SWAP1 MSTORE SWAP1 DUP2 KECCAK256 DUP1 SLOAD PUSH1 0xFF NOT AND PUSH1 0x1 OR SWAP1 SSTORE JUMPDEST SWAP3 SWAP2 POP POP JUMP JUMPDEST PUSH1 0x1 PUSH1 0x1 PUSH1 0xA0 SHL SUB DUP1 DUP6 AND PUSH1 0x0 SWAP1 DUP2 MSTORE PUSH1 0x1 PUSH1 0x20 SWAP1 DUP2 MSTORE PUSH1 0x40 DUP1 DUP4 KECCAK256 SWAP4 DUP8 AND DUP4 MSTORE SWAP3 SWAP1 MSTORE SWAP1 DUP2 KECCAK256 SLOAD PUSH1 0x7 DUP4 DUP2 SIGNEXTEND SWAP2 SWAP1 SIGNEXTEND SLT ISZERO PUSH2 0x30D JUMPI POP PUSH1 0x1 PUSH2 0x3D3 JUMP JUMPDEST PUSH1 0x1 PUSH1 0x1 PUSH1 0xA0 SHL SUB DUP1 DUP7 AND PUSH1 0x0 SWAP1 DUP2 MSTORE PUSH1 0x1 PUSH1 0x20 SWAP1 DUP2 MSTORE PUSH1 0x40 DUP1 DUP4 KECCAK256 SWAP4 DUP9 AND DUP4 MSTORE SWAP3 SWAP1 MSTORE SWAP1 DUP2 KECCAK256 DUP1 SLOAD DUP5 SWAP3 SWAP1 PUSH2 0x347 SWAP1 DUP5 SWAP1 PUSH1 0x7 SIGNEXTEND PUSH2 0x56F JUMP JUMPDEST DUP3 SLOAD PUSH8 0xFFFFFFFFFFFFFFFF SWAP2 DUP3 AND PUSH2 0x100 SWAP4 SWAP1 SWAP4 EXP SWAP3 DUP4 MUL SWAP2 SWAP1 SWAP3 MUL NOT SWAP1 SWAP2 AND OR SWAP1 SSTORE POP PUSH1 0x1 PUSH1 0x1 PUSH1 0xA0 SHL SUB DUP1 DUP7 AND PUSH1 0x0 SWAP1 DUP2 MSTORE PUSH1 0x1 PUSH1 0x20 SWAP1 DUP2 MSTORE PUSH1 0x40 DUP1 DUP4 KECCAK256 SWAP4 DUP8 AND DUP4 MSTORE SWAP3 SWAP1 MSTORE SWAP1 DUP2 KECCAK256 DUP1 SLOAD DUP5 SWAP3 SWAP1 PUSH2 0x3A5 SWAP1 DUP5 SWAP1 PUSH1 0x7 SIGNEXTEND PUSH2 0x59E JUMP JUMPDEST SWAP3 POP PUSH2 0x100 EXP DUP2 SLOAD DUP2 PUSH8 0xFFFFFFFFFFFFFFFF MUL NOT AND SWAP1 DUP4 PUSH1 0x7 SIGNEXTEND PUSH8 0xFFFFFFFFFFFFFFFF AND MUL OR SWAP1 SSTORE POP PUSH1 0x0 SWAP1 POP JUMPDEST SWAP5 SWAP4 POP POP POP POP JUMP JUMPDEST DUP1 CALLDATALOAD PUSH1 0x1 PUSH1 0x1 PUSH1 0xA0 SHL SUB DUP2 AND DUP2 EQ PUSH2 0x3F2 JUMPI PUSH1 0x0 DUP1 REVERT JUMPDEST SWAP2 SWAP1 POP JUMP JUMPDEST DUP1 CALLDATALOAD PUSH1 0x7 DUP2 SWAP1 SIGNEXTEND DUP2 EQ PUSH2 0x3F2 JUMPI PUSH1 0x0 DUP1 REVERT JUMPDEST PUSH1 0x0 DUP1 PUSH1 0x0 DUP1 PUSH1 0x80 DUP6 DUP8 SUB SLT ISZERO PUSH2 0x41F JUMPI PUSH1 0x0 DUP1 REVERT JUMPDEST PUSH2 0x428 DUP6 PUSH2 0x3DB JUMP JUMPDEST SWAP4 POP PUSH2 0x436 PUSH1 0x20 DUP7 ADD PUSH2 0x3DB JUMP JUMPDEST SWAP3 POP PUSH2 0x444 PUSH1 0x40 DUP7 ADD PUSH2 0x3DB JUMP JUMPDEST SWAP2 POP PUSH2 0x452 PUSH1 0x60 DUP7 ADD PUSH2 0x3F7 JUMP JUMPDEST SWAP1 POP SWAP3 SWAP6 SWAP2 SWAP5 POP SWAP3 POP JUMP JUMPDEST PUSH1 0x0 DUP1 PUSH1 0x40 DUP4 DUP6 SUB SLT ISZERO PUSH2 0x470 JUMPI PUSH1 0x0 DUP1 REVERT JUMPDEST PUSH2 0x479 DUP4 PUSH2 0x3DB JUMP JUMPDEST SWAP2 POP PUSH2 0x487 PUSH1 0x20 DUP5 ADD PUSH2 0x3DB JUMP JUMPDEST SWAP1 POP SWAP3 POP SWAP3 SWAP1 POP JUMP JUMPDEST PUSH1 0x0 DUP1 PUSH1 0x0 PUSH1 0x60 DUP5 DUP7 SUB SLT ISZERO PUSH2 0x4A5 JUMPI PUSH1 0x0 DUP1 REVERT JUMPDEST PUSH2 0x4AE DUP5 PUSH2 0x3DB JUMP JUMPDEST SWAP3 POP PUSH2 0x4BC PUSH1 0x20 DUP6 ADD PUSH2 0x3DB JUMP JUMPDEST SWAP2 POP PUSH2 0x4CA PUSH1 0x40 DUP6 ADD PUSH2 0x3DB JUMP JUMPDEST SWAP1 POP SWAP3 POP SWAP3 POP SWAP3 JUMP JUMPDEST PUSH1 0x0 DUP1 PUSH1 0x0 PUSH1 0x60 DUP5 DUP7 SUB SLT ISZERO PUSH2 0x4E8 JUMPI PUSH1 0x0 DUP1 REVERT JUMPDEST PUSH2 0x4F1 DUP5 PUSH2 0x3DB JUMP JUMPDEST SWAP3 POP PUSH2 0x4FF PUSH1 0x20 DUP6 ADD PUSH2 0x3DB JUMP JUMPDEST SWAP2 POP PUSH1 0x40 DUP5 ADD CALLDATALOAD DUP1 ISZERO ISZERO DUP2 EQ PUSH2 0x514 JUMPI PUSH1 0x0 DUP1 REVERT JUMPDEST DUP1 SWAP2 POP POP SWAP3 POP SWAP3 POP SWAP3 JUMP JUMPDEST PUSH1 0x0 DUP1 PUSH1 0x0 PUSH1 0x60 DUP5 DUP7 SUB SLT ISZERO PUSH2 0x534 JUMPI PUSH1 0x0 DUP1 REVERT JUMPDEST PUSH2 0x53D DUP5 PUSH2 0x3DB JUMP JUMPDEST SWAP3 POP PUSH2 0x54B PUSH1 0x20 DUP6 ADD PUSH2 0x3DB JUMP JUMPDEST SWAP2 POP PUSH2 0x4CA PUSH1 0x40 DUP6 ADD PUSH2 0x3F7 JUMP JUMPDEST PUSH4 0x4E487B71 PUSH1 0xE0 SHL PUSH1 0x0 MSTORE PUSH1 0x11 PUSH1 0x4 MSTORE PUSH1 0x24 PUSH1 0x0 REVERT JUMPDEST PUSH1 0x7 DUP3 DUP2 SIGNEXTEND SWAP1 DUP3 SWAP1 SIGNEXTEND SUB PUSH8 0x7FFFFFFFFFFFFFFF NOT DUP2 SLT PUSH8 0x7FFFFFFFFFFFFFFF DUP3 SGT OR ISZERO PUSH2 0x2C9 JUMPI PUSH2 0x2C9 PUSH2 0x559 JUMP JUMPDEST PUSH1 0x7 DUP2 DUP2 SIGNEXTEND SWAP1 DUP4 SWAP1 SIGNEXTEND ADD PUSH8 0x7FFFFFFFFFFFFFFF DUP2 SGT PUSH8 0x7FFFFFFFFFFFFFFF NOT DUP3 SLT OR ISZERO PUSH2 0x2C9 JUMPI PUSH2 0x2C9 PUSH2 0x559 JUMP INVALID LOG2 PUSH5 0x6970667358 0x22 SLT KECCAK256 0xDF 0xEE 0xD4 0x28 DUP10 EXTCODESIZE 0xCA SWAP12 0xDE JUMP 0xAD SWAP1 OR PC 0x26 PUSH15 0xCBCBE3B75DA3B2DC3BF65E6F2B8681 PUSH10 0x64736F6C634300081400 CALLER "},"methodIdentifiers":{"allowance(address,address,address)":"927da105","associateToken(address,address)":"49146bde","balanceOf(address,address)":"f7888aec","isTokenAssociated(address,address)":"725fe8a4","setAllowance(address,address,address,int64)":"3ff2e11a","setBalance(address,address,int64)":"b3b549d9","setTokenAssociated(address,address,bool)":"a7796a90","transferToken(address,address,address,int64)":"eca36917"}}}}}