{
  "_format": "hh-sol-artifact-1",
  "contractName": "LynxMinter",
  "sourceName": "src/app/contracts/LynxMinter.sol",
  "abi": [
    {
      "inputs": [
        {
          "internalType": "address",
          "name": "lynxToken",
          "type": "address"
        },
        {
          "internalType": "address",
          "name": "sauceToken",
          "type": "address"
        },
        {
          "internalType": "address",
          "name": "clxyToken",
          "type": "address"
        }
      ],
      "stateMutability": "nonpayable",
      "type": "constructor"
    },
    {
      "inputs": [],
      "name": "HbarTransferFailed",
      "type": "error"
    },
    {
      "inputs": [
        {
          "internalType": "uint256",
          "name": "allowance",
          "type": "uint256"
        },
        {
          "internalType": "uint256",
          "name": "required",
          "type": "uint256"
        }
      ],
      "name": "InsufficientClxyAllowance",
      "type": "error"
    },
    {
      "inputs": [
        {
          "internalType": "address",
          "name": "token",
          "type": "address"
        },
        {
          "internalType": "uint256",
          "name": "balance",
          "type": "uint256"
        },
        {
          "internalType": "uint256",
          "name": "required",
          "type": "uint256"
        }
      ],
      "name": "InsufficientContractBalance",
      "type": "error"
    },
    {
      "inputs": [
        {
          "internalType": "uint256",
          "name": "allowance",
          "type": "uint256"
        },
        {
          "internalType": "uint256",
          "name": "required",
          "type": "uint256"
        }
      ],
      "name": "InsufficientLynxAllowance",
      "type": "error"
    },
    {
      "inputs": [
        {
          "internalType": "uint256",
          "name": "allowance",
          "type": "uint256"
        },
        {
          "internalType": "uint256",
          "name": "required",
          "type": "uint256"
        }
      ],
      "name": "InsufficientSauceAllowance",
      "type": "error"
    },
    {
      "inputs": [],
      "name": "InvalidAmount",
      "type": "error"
    },
    {
      "inputs": [
        {
          "internalType": "uint256",
          "name": "sent",
          "type": "uint256"
        },
        {
          "internalType": "uint256",
          "name": "required",
          "type": "uint256"
        }
      ],
      "name": "MustSendExactHBAR",
      "type": "error"
    },
    {
      "inputs": [],
      "name": "NoSupplyKeyForToken",
      "type": "error"
    },
    {
      "inputs": [],
      "name": "OnlyAdmin",
      "type": "error"
    },
    {
      "inputs": [
        {
          "internalType": "address",
          "name": "token",
          "type": "address"
        },
        {
          "internalType": "int64",
          "name": "errorCode",
          "type": "int64"
        }
      ],
      "name": "TokenBurnFailed",
      "type": "error"
    },
    {
      "inputs": [
        {
          "internalType": "int64",
          "name": "errorCode",
          "type": "int64"
        }
      ],
      "name": "TokenCreationFailed",
      "type": "error"
    },
    {
      "inputs": [
        {
          "internalType": "address",
          "name": "token",
          "type": "address"
        },
        {
          "internalType": "int64",
          "name": "errorCode",
          "type": "int64"
        }
      ],
      "name": "TokenMintFailed",
      "type": "error"
    },
    {
      "inputs": [
        {
          "internalType": "address",
          "name": "token",
          "type": "address"
        },
        {
          "internalType": "int64",
          "name": "errorCode",
          "type": "int64"
        }
      ],
      "name": "TokenTransferFailed",
      "type": "error"
    },
    {
      "anonymous": false,
      "inputs": [
        {
          "indexed": true,
          "internalType": "address",
          "name": "user",
          "type": "address"
        },
        {
          "indexed": false,
          "internalType": "uint256",
          "name": "lynxAmount",
          "type": "uint256"
        },
        {
          "indexed": false,
          "internalType": "uint256",
          "name": "hbarAmount",
          "type": "uint256"
        },
        {
          "indexed": false,
          "internalType": "uint256",
          "name": "sauceAmount",
          "type": "uint256"
        },
        {
          "indexed": false,
          "internalType": "uint256",
          "name": "clxyAmount",
          "type": "uint256"
        }
      ],
      "name": "LynxBurned",
      "type": "event"
    },
    {
      "anonymous": false,
      "inputs": [
        {
          "indexed": true,
          "internalType": "address",
          "name": "user",
          "type": "address"
        },
        {
          "indexed": false,
          "internalType": "uint256",
          "name": "lynxAmount",
          "type": "uint256"
        },
        {
          "indexed": false,
          "internalType": "uint256",
          "name": "hbarAmount",
          "type": "uint256"
        },
        {
          "indexed": false,
          "internalType": "uint256",
          "name": "sauceAmount",
          "type": "uint256"
        },
        {
          "indexed": false,
          "internalType": "uint256",
          "name": "clxyAmount",
          "type": "uint256"
        }
      ],
      "name": "LynxMinted",
      "type": "event"
    },
    {
      "anonymous": false,
      "inputs": [
        {
          "indexed": false,
          "internalType": "address",
          "name": "tokenAddress",
          "type": "address"
        },
        {
          "indexed": false,
          "internalType": "int64",
          "name": "responseCode",
          "type": "int64"
        }
      ],
      "name": "LynxTokenCreated",
      "type": "event"
    },
    {
      "anonymous": false,
      "inputs": [
        {
          "indexed": false,
          "internalType": "uint256",
          "name": "hbarRatio",
          "type": "uint256"
        },
        {
          "indexed": false,
          "internalType": "uint256",
          "name": "sauceRatio",
          "type": "uint256"
        },
        {
          "indexed": false,
          "internalType": "uint256",
          "name": "clxyRatio",
          "type": "uint256"
        }
      ],
      "name": "RatiosUpdated",
      "type": "event"
    },
    {
      "anonymous": false,
      "inputs": [
        {
          "indexed": false,
          "internalType": "bool",
          "name": "hasKey",
          "type": "bool"
        }
      ],
      "name": "SupplyKeyVerified",
      "type": "event"
    },
    {
      "anonymous": false,
      "inputs": [
        {
          "indexed": false,
          "internalType": "address",
          "name": "token",
          "type": "address"
        },
        {
          "indexed": false,
          "internalType": "int64",
          "name": "responseCode",
          "type": "int64"
        }
      ],
      "name": "TokensAssociated",
      "type": "event"
    },
    {
      "stateMutability": "payable",
      "type": "fallback"
    },
    {
      "inputs": [],
      "name": "ADMIN",
      "outputs": [
        {
          "internalType": "address",
          "name": "",
          "type": "address"
        }
      ],
      "stateMutability": "view",
      "type": "function"
    },
    {
      "inputs": [],
      "name": "CLXY_RATIO",
      "outputs": [
        {
          "internalType": "uint256",
          "name": "",
          "type": "uint256"
        }
      ],
      "stateMutability": "view",
      "type": "function"
    },
    {
      "inputs": [],
      "name": "CLXY_TOKEN",
      "outputs": [
        {
          "internalType": "address",
          "name": "",
          "type": "address"
        }
      ],
      "stateMutability": "view",
      "type": "function"
    },
    {
      "inputs": [],
      "name": "HBAR_RATIO",
      "outputs": [
        {
          "internalType": "uint256",
          "name": "",
          "type": "uint256"
        }
      ],
      "stateMutability": "view",
      "type": "function"
    },
    {
      "inputs": [],
      "name": "HTS_PRECOMPILE",
      "outputs": [
        {
          "internalType": "address",
          "name": "",
          "type": "address"
        }
      ],
      "stateMutability": "view",
      "type": "function"
    },
    {
      "inputs": [],
      "name": "IS_SUPPLY_TYPE_INFINITE",
      "outputs": [
        {
          "internalType": "bool",
          "name": "",
          "type": "bool"
        }
      ],
      "stateMutability": "view",
      "type": "function"
    },
    {
      "inputs": [],
      "name": "LYNX_TOKEN",
      "outputs": [
        {
          "internalType": "address",
          "name": "",
          "type": "address"
        }
      ],
      "stateMutability": "view",
      "type": "function"
    },
    {
      "inputs": [],
      "name": "SAUCE_RATIO",
      "outputs": [
        {
          "internalType": "uint256",
          "name": "",
          "type": "uint256"
        }
      ],
      "stateMutability": "view",
      "type": "function"
    },
    {
      "inputs": [],
      "name": "SAUCE_TOKEN",
      "outputs": [
        {
          "internalType": "address",
          "name": "",
          "type": "address"
        }
      ],
      "stateMutability": "view",
      "type": "function"
    },
    {
      "inputs": [],
      "name": "TOKEN_DECIMALS",
      "outputs": [
        {
          "internalType": "uint8",
          "name": "",
          "type": "uint8"
        }
      ],
      "stateMutability": "view",
      "type": "function"
    },
    {
      "inputs": [],
      "name": "TOKEN_MAX_SUPPLY",
      "outputs": [
        {
          "internalType": "uint32",
          "name": "",
          "type": "uint32"
        }
      ],
      "stateMutability": "view",
      "type": "function"
    },
    {
      "inputs": [],
      "name": "associateTokens",
      "outputs": [],
      "stateMutability": "nonpayable",
      "type": "function"
    },
    {
      "inputs": [
        {
          "internalType": "uint256",
          "name": "lynxAmount",
          "type": "uint256"
        }
      ],
      "name": "burn",
      "outputs": [],
      "stateMutability": "nonpayable",
      "type": "function"
    },
    {
      "inputs": [
        {
          "internalType": "uint256",
          "name": "lynxAmount",
          "type": "uint256"
        }
      ],
      "name": "calculateRequiredCLXY",
      "outputs": [
        {
          "internalType": "uint256",
          "name": "",
          "type": "uint256"
        }
      ],
      "stateMutability": "view",
      "type": "function"
    },
    {
      "inputs": [
        {
          "internalType": "uint256",
          "name": "lynxAmount",
          "type": "uint256"
        }
      ],
      "name": "calculateRequiredHBAR",
      "outputs": [
        {
          "internalType": "uint256",
          "name": "",
          "type": "uint256"
        }
      ],
      "stateMutability": "view",
      "type": "function"
    },
    {
      "inputs": [
        {
          "internalType": "uint256",
          "name": "lynxAmount",
          "type": "uint256"
        }
      ],
      "name": "calculateRequiredSAUCE",
      "outputs": [
        {
          "internalType": "uint256",
          "name": "",
          "type": "uint256"
        }
      ],
      "stateMutability": "view",
      "type": "function"
    },
    {
      "inputs": [
        {
          "internalType": "address",
          "name": "user",
          "type": "address"
        },
        {
          "internalType": "uint256",
          "name": "lynxAmount",
          "type": "uint256"
        }
      ],
      "name": "checkAllowances",
      "outputs": [
        {
          "internalType": "uint256",
          "name": "sauceAllowance",
          "type": "uint256"
        },
        {
          "internalType": "uint256",
          "name": "clxyAllowance",
          "type": "uint256"
        },
        {
          "internalType": "uint256",
          "name": "sauceRequired",
          "type": "uint256"
        },
        {
          "internalType": "uint256",
          "name": "clxyRequired",
          "type": "uint256"
        },
        {
          "internalType": "bool",
          "name": "isSauceAllowanceSufficient",
          "type": "bool"
        },
        {
          "internalType": "bool",
          "name": "isClxyAllowanceSufficient",
          "type": "bool"
        }
      ],
      "stateMutability": "view",
      "type": "function"
    },
    {
      "inputs": [],
      "name": "checkSupplyKey",
      "outputs": [],
      "stateMutability": "nonpayable",
      "type": "function"
    },
    {
      "inputs": [
        {
          "internalType": "string",
          "name": "name",
          "type": "string"
        },
        {
          "internalType": "string",
          "name": "symbol",
          "type": "string"
        },
        {
          "internalType": "string",
          "name": "memo",
          "type": "string"
        }
      ],
      "name": "createLynxToken",
      "outputs": [],
      "stateMutability": "nonpayable",
      "type": "function"
    },
    {
      "inputs": [
        {
          "internalType": "address",
          "name": "user",
          "type": "address"
        }
      ],
      "name": "debugAllowances",
      "outputs": [
        {
          "internalType": "uint256",
          "name": "sauceAllowance",
          "type": "uint256"
        },
        {
          "internalType": "uint256",
          "name": "clxyAllowance",
          "type": "uint256"
        },
        {
          "internalType": "uint256",
          "name": "lynxAllowance",
          "type": "uint256"
        }
      ],
      "stateMutability": "view",
      "type": "function"
    },
    {
      "inputs": [],
      "name": "getClxyRatio",
      "outputs": [
        {
          "internalType": "uint256",
          "name": "",
          "type": "uint256"
        }
      ],
      "stateMutability": "view",
      "type": "function"
    },
    {
      "inputs": [],
      "name": "getHbarRatio",
      "outputs": [
        {
          "internalType": "uint256",
          "name": "",
          "type": "uint256"
        }
      ],
      "stateMutability": "view",
      "type": "function"
    },
    {
      "inputs": [],
      "name": "getSauceRatio",
      "outputs": [
        {
          "internalType": "uint256",
          "name": "",
          "type": "uint256"
        }
      ],
      "stateMutability": "view",
      "type": "function"
    },
    {
      "inputs": [],
      "name": "getTokenAddresses",
      "outputs": [
        {
          "internalType": "address",
          "name": "lynxToken",
          "type": "address"
        },
        {
          "internalType": "address",
          "name": "sauceToken",
          "type": "address"
        },
        {
          "internalType": "address",
          "name": "clxyToken",
          "type": "address"
        }
      ],
      "stateMutability": "view",
      "type": "function"
    },
    {
      "inputs": [],
      "name": "hasSupplyKey",
      "outputs": [
        {
          "internalType": "bool",
          "name": "",
          "type": "bool"
        }
      ],
      "stateMutability": "view",
      "type": "function"
    },
    {
      "inputs": [
        {
          "internalType": "uint256",
          "name": "lynxAmount",
          "type": "uint256"
        }
      ],
      "name": "mint",
      "outputs": [],
      "stateMutability": "payable",
      "type": "function"
    },
    {
      "inputs": [
        {
          "internalType": "bool",
          "name": "status",
          "type": "bool"
        }
      ],
      "name": "setSupplyKeyStatus",
      "outputs": [],
      "stateMutability": "nonpayable",
      "type": "function"
    },
    {
      "inputs": [
        {
          "internalType": "address",
          "name": "mockHts",
          "type": "address"
        }
      ],
      "name": "setTokenService",
      "outputs": [],
      "stateMutability": "nonpayable",
      "type": "function"
    },
    {
      "inputs": [
        {
          "internalType": "uint256",
          "name": "lynxAmount",
          "type": "uint256"
        }
      ],
      "name": "testClxyAllowance",
      "outputs": [],
      "stateMutability": "payable",
      "type": "function"
    },
    {
      "inputs": [
        {
          "internalType": "uint256",
          "name": "hbarRatio",
          "type": "uint256"
        },
        {
          "internalType": "uint256",
          "name": "sauceRatio",
          "type": "uint256"
        },
        {
          "internalType": "uint256",
          "name": "clxyRatio",
          "type": "uint256"
        }
      ],
      "name": "updateRatios",
      "outputs": [],
      "stateMutability": "nonpayable",
      "type": "function"
    },
    {
      "inputs": [],
      "name": "updateSupplyKeyStatus",
      "outputs": [],
      "stateMutability": "nonpayable",
      "type": "function"
    },
    {
      "stateMutability": "payable",
      "type": "receive"
    }
  ],
  "bytecode": "0x6080604052600a6004556005805560026006556007805460ff191690553480156200002957600080fd5b50604051620027fd380380620027fd8339810160408190526200004c9162000174565b6007805462016700610100600160a81b0319909116179055600080546001600160a01b038581166001600160a01b0319928316811790935560018054868316908416179055600280549185169183169190911790556003805490911633179055156200014e57600754604051632e1a634560e11b81526001600160a01b03858116600483015230602483015261010090920490911690635c34c68a90604401602060405180830381865afa92505050801562000127575060408051601f3d908101601f191682019092526200012491810190620001be565b60015b6200013c576007805460ff191690556200014e565b6007805460ff19169115159190911790555b505050620001e9565b80516001600160a01b03811681146200016f57600080fd5b919050565b6000806000606084860312156200018a57600080fd5b620001958462000157565b9250620001a56020850162000157565b9150620001b56040850162000157565b90509250925092565b600060208284031215620001d157600080fd5b81518015158114620001e257600080fd5b9392505050565b61260480620001f96000396000f3fe6080604052600436106101c45760003560e01c8063702c3c24116100f6578063b0e4fe4f1161008f578063e1e9957611610061578063e1e9957614610545578063e294204d14610565578063ee8c24b81461057a578063ef037593146105ad57005b8063b0e4fe4f146104aa578063c2f4bfaf146104fb578063cab21a6a14610510578063de579bc91461053057005b80638ee2c4b8116100c85780638ee2c4b8146104385780639057bb4a146104625780639236192714610477578063a0712d681461049757005b8063702c3c24146103e5578063739036b2146103f8578063853f51ad1461040d5780638d6be5401461042257005b8063335c3fe8116101685780634bb3c9cf1161013a5780634bb3c9cf14610343578063539e803f146103635780635b7f415c1461039e5780636461e01a146103c557005b8063335c3fe8146102c957806342966c68146102e95780634543873d146103095780634924190c1461031f57005b80631ec65c36116101a15780631ec65c361461023f5780632a0acc6a1461025f57806330d0a66c1461027f578063331a4c201461029f57005b806310ca0bce146101cd5780631d12e296146101e25780631da965c21461020257005b366101cb57005b005b3480156101d957600080fd5b506101cb6105c3565b3480156101ee57600080fd5b506101cb6101fd36600461203a565b610821565b34801561020e57600080fd5b50600254610222906001600160a01b031681565b6040516001600160a01b0390911681526020015b60405180910390f35b34801561024b57600080fd5b50600154610222906001600160a01b031681565b34801561026b57600080fd5b50600354610222906001600160a01b031681565b34801561028b57600080fd5b506101cb61029a3660046120d4565b610cec565b3480156102ab57600080fd5b506007546102b99060ff1681565b6040519015158152602001610236565b3480156102d557600080fd5b506101cb6102e4366004612111565b610d64565b3480156102f557600080fd5b506101cb610304366004612135565b610dd6565b34801561031557600080fd5b5061022261016781565b34801561032b57600080fd5b5061033560045481565b604051908152602001610236565b34801561034f57600080fd5b506101cb61035e366004612163565b611486565b34801561036f57600080fd5b5061038361037e366004612163565b6114d9565b60408051938452602084019290925290820152606001610236565b3480156103aa57600080fd5b506103b3600881565b60405160ff9091168152602001610236565b3480156103d157600080fd5b506103356103e0366004612135565b611666565b6101cb6103f3366004612135565b61167c565b34801561040457600080fd5b50600454610335565b34801561041957600080fd5b50600654610335565b34801561042e57600080fd5b5061033560065481565b34801561044457600080fd5b5061044d600081565b60405163ffffffff9091168152602001610236565b34801561046e57600080fd5b50600554610335565b34801561048357600080fd5b50610335610492366004612135565b6117c2565b6101cb6104a5366004612135565b6117d2565b3480156104b657600080fd5b506104ca6104c5366004612180565b611d5b565b60408051968752602087019590955293850192909252606084015215156080830152151560a082015260c001610236565b34801561050757600080fd5b506101cb611e9a565b34801561051c57600080fd5b5061033561052b366004612135565b611ecf565b34801561053c57600080fd5b506101cb611edf565b34801561055157600080fd5b50600054610222906001600160a01b031681565b34801561057157600080fd5b506102b9600181565b34801561058657600080fd5b50600054600154600254604051610236936001600160a01b039081169381169216906121ac565b3480156105b957600080fd5b5061033560055481565b6007546000805460405163248a35ef60e11b81523060048201526001600160a01b0391821660248201529192610100900416906349146bde906044016020604051808303816000875af115801561061e573d6000803e3d6000fd5b505050506040513d601f19601f8201168201806040525081019061064291906121e6565b6000546040519192507f6c452a6a0f6c8613bd46d4bd9a6192b0904a3f33a64c294ba553582502dfd77091610682916001600160a01b0316908490612201565b60405180910390a160075460015460405163248a35ef60e11b81523060048201526001600160a01b0391821660248201526000926101009004909116906349146bde906044016020604051808303816000875af11580156106e7573d6000803e3d6000fd5b505050506040513d601f19601f8201168201806040525081019061070b91906121e6565b6001546040519192507f6c452a6a0f6c8613bd46d4bd9a6192b0904a3f33a64c294ba553582502dfd7709161074b916001600160a01b0316908490612201565b60405180910390a160075460025460405163248a35ef60e11b81523060048201526001600160a01b0391821660248201526000926101009004909116906349146bde906044016020604051808303816000875af11580156107b0573d6000803e3d6000fd5b505050506040513d601f19601f820116820180604052508101906107d491906121e6565b6002546040519192507f6c452a6a0f6c8613bd46d4bd9a6192b0904a3f33a64c294ba553582502dfd77091610814916001600160a01b0316908490612201565b60405180910390a1505050565b6003546001600160a01b0316331461084c57604051634755657960e01b815260040160405180910390fd5b6000546001600160a01b0316156108aa5760405162461bcd60e51b815260206004820152601960248201527f4c594e5820746f6b656e20616c7265616479206578697374730000000000000060448201526064015b60405180910390fd5b60408051600180825281830190925260009160208083019080368337505060035482519293506001600160a01b0316918391506000906108ec576108ec61221d565b6001600160a01b039290921660209283029190910190910152604080516001808252818301909252600091816020016020820280368337019050509050308160008151811061093d5761093d61221d565b6001600160a01b03929092166020928302919091018201526040805160008082526101e0601f8c018590048502830181019093526101c082018b8152919390929084019182918d908d9081908801838280828437600092019190915250505090825250604080516020601f8c018190048102820181019092528a815291810191908b908b90819084018382808284376000920191909152505050908252503060208083019190915260408051601f8a018390048302810183018252898152920191908990899081908401838280828437600092018290525093855250506001602084015250604080830182905260608084018390526080840187905260a0840187905260c0840188905260e084018990526101008401879052600861012090940193909352805160028082529381019091529293509190816020016020820280368337019050509050600181600081518110610a9b57610a9b61221d565b602002602001019060ff16908160ff1681525050600481600181518110610ac457610ac461221d565b60ff929092166020928302919091018201526040805160028082526060820183526000939192909183019080368337505060035482519293506001600160a01b031691839150600090610b1957610b1961221d565b60200260200101906001600160a01b031690816001600160a01b0316815250503081600181518110610b4d57610b4d61221d565b6001600160a01b03928316602091820292909201015260075460405162db106560e11b81526000928392610100900416906301b620ca908390610b9a90899083908a908a906004016122f0565b604080518083038185885af1158015610bb7573d6000803e3d6000fd5b50505050506040513d601f19601f82011682018060405250810190610bdc9190612499565b915091508160070b600014610c0957604051622a27bf60e01b8152600783900b60048201526024016108a1565b600080546001600160a01b0319166001600160a01b03838116918217835560075460405163248a35ef60e11b81523060048201526024810193909352610100900416906349146bde906044016020604051808303816000875af1158015610c74573d6000803e3d6000fd5b505050506040513d601f19601f82011682018060405250810190610c9891906121e6565b9050610ca2611edf565b7f3c6983beb442f69ab2bb278a324e9cc5184d0e8e3b8eacbd06dd6f157738420a8284604051610cd3929190612201565b60405180910390a1505050505050505050505050505050565b6003546001600160a01b03163314610d1757604051634755657960e01b815260040160405180910390fd5b60048390556005829055600681905560408051848152602081018490529081018290527fe2f5c8588887234e6a368ca64e432b81b636580fe80ac266013c33040122e04090606001610814565b6003546001600160a01b03163314610d8f57604051634755657960e01b815260040160405180910390fd5b6007805460ff19168215159081179091556040519081527f40a36e95e1165e03b5c30095cd9d1e9fa9d8aa98d06aa1d6432a77718c0b68f09060200160405180910390a150565b60075460ff16610df95760405163b291599960e01b815260040160405180910390fd5b80600003610e1a5760405163162908e360e11b815260040160405180910390fd5b600060045482610e2a91906124d0565b9050600060055483610e3c91906124d0565b9050600060065484610e4e91906124d0565b6007546000805460405163927da10560e01b815293945090926001600160a01b0361010090930483169263927da10592610e9192911690339030906004016121ac565b602060405180830381865afa158015610eae573d6000803e3d6000fd5b505050506040513d601f19601f82011682018060405250810190610ed291906124f5565b905084811015610eff576040516316009c8360e01b815260048101829052602481018690526044016108a1565b83471015610f3057604051634390211d60e11b815260006004820152476024820152604481018590526064016108a1565b600754600154604051633de222bb60e21b81526001600160a01b03918216600482015230602482015260009261010090049091169063f7888aec90604401602060405180830381865afa158015610f8b573d6000803e3d6000fd5b505050506040513d601f19601f82011682018060405250810190610faf91906124f5565b905083811015610fef57600154604051634390211d60e11b81526001600160a01b03909116600482015260248101829052604481018590526064016108a1565b600754600254604051633de222bb60e21b81526001600160a01b03918216600482015230602482015260009261010090049091169063f7888aec90604401602060405180830381865afa15801561104a573d6000803e3d6000fd5b505050506040513d601f19601f8201168201806040525081019061106e91906124f5565b9050838110156110ae57600254604051634390211d60e11b81526001600160a01b03909116600482015260248101829052604481018590526064016108a1565b60075460008054604051632c54de4f60e01b815291926001600160a01b03610100909104811692632c54de4f926110ef921690339030908e9060040161250e565b6020604051808303816000875af115801561110e573d6000803e3d6000fd5b505050506040513d601f19601f8201168201806040525081019061113291906121e6565b90508060070b600014611167576000546040516353b9365760e01b81526108a1916001600160a01b0316908390600401612201565b6040805160008082526020820190925281611192565b606081526020019060019003908161117d5790505b50600754600080546040516379fe3b7d60e11b815293945090926001600160a01b0361010090930483169263f3fc76fa926111d6929116908e908790600401612538565b6020604051808303816000875af11580156111f5573d6000803e3d6000fd5b505050506040513d601f19601f8201168201806040525081019061121991906121e6565b90508060070b60001461124e57600054604051630272bce360e21b81526108a1916001600160a01b0316908390600401612201565b600754600154604051632c54de4f60e01b815260009261010090046001600160a01b0390811692632c54de4f926112919290911690309033908f9060040161250e565b6020604051808303816000875af11580156112b0573d6000803e3d6000fd5b505050506040513d601f19601f820116820180604052508101906112d491906121e6565b90508060070b600014611309576001546040516353b9365760e01b81526108a1916001600160a01b0316908390600401612201565b600754600254604051632c54de4f60e01b815260009261010090046001600160a01b0390811692632c54de4f9261134c9290911690309033908f9060040161250e565b6020604051808303816000875af115801561136b573d6000803e3d6000fd5b505050506040513d601f19601f8201168201806040525081019061138f91906121e6565b90508060070b6000146113c4576002546040516353b9365760e01b81526108a1916001600160a01b0316908390600401612201565b60405160009033908d908381818185875af1925050503d8060008114611406576040519150601f19603f3d011682016040523d82523d6000602084013e61140b565b606091505b505090508061142d576040516378bd738360e11b815260040160405180910390fd5b604080518e8152602081018e90529081018c9052606081018b905233907f0a99e3ea632fcdc816b71d0e418dc65b991272ad5bbdd78f5ccf117bfe076b419060800160405180910390a250505050505050505050505050565b6003546001600160a01b031633146114b157604051634755657960e01b815260040160405180910390fd5b600780546001600160a01b0390921661010002610100600160a81b0319909216919091179055565b60075460015460405163927da10560e01b8152600092839283926001600160a01b0361010090930483169263927da1059261151d92911690889030906004016121ac565b602060405180830381865afa15801561153a573d6000803e3d6000fd5b505050506040513d601f19601f8201168201806040525081019061155e91906124f5565b60075460025460405163927da10560e01b81529295506001600160a01b0361010090920482169263927da1059261159d921690889030906004016121ac565b602060405180830381865afa1580156115ba573d6000803e3d6000fd5b505050506040513d601f19601f820116820180604052508101906115de91906124f5565b60075460005460405163927da10560e01b81529294506001600160a01b0361010090920482169263927da1059261161d921690889030906004016121ac565b602060405180830381865afa15801561163a573d6000803e3d6000fd5b505050506040513d601f19601f8201168201806040525081019061165e91906124f5565b929491935050565b60006004548261167691906124d0565b92915050565b60075460ff1661169f5760405163b291599960e01b815260040160405180910390fd5b806000036116c05760405163162908e360e11b815260040160405180910390fd5b6000600454826116d091906124d0565b90506000600654836116e291906124d0565b905081341461170d5760405163613f8e2f60e11b8152346004820152602481018390526044016108a1565b60075460025460405163927da10560e01b815260009261010090046001600160a01b039081169263927da1059261174e9290911690339030906004016121ac565b602060405180830381865afa15801561176b573d6000803e3d6000fd5b505050506040513d601f19601f8201168201806040525081019061178f91906124f5565b9050818110156117bc576040516303ab67df60e01b815260048101829052602481018390526044016108a1565b50505050565b60006006548261167691906124d0565b60075460ff166117f55760405163b291599960e01b815260040160405180910390fd5b806000036118165760405163162908e360e11b815260040160405180910390fd5b60006004548261182691906124d0565b905060006005548361183891906124d0565b905060006006548461184a91906124d0565b90508234146118755760405163613f8e2f60e11b8152346004820152602481018490526044016108a1565b60075460015460405163927da10560e01b815260009261010090046001600160a01b039081169263927da105926118b69290911690339030906004016121ac565b602060405180830381865afa1580156118d3573d6000803e3d6000fd5b505050506040513d601f19601f820116820180604052508101906118f791906124f5565b90508281101561192457604051636dc9c10b60e01b815260048101829052602481018490526044016108a1565b60075460025460405163927da10560e01b815260009261010090046001600160a01b039081169263927da105926119659290911690339030906004016121ac565b602060405180830381865afa158015611982573d6000803e3d6000fd5b505050506040513d601f19601f820116820180604052508101906119a691906124f5565b9050828110156119d3576040516303ab67df60e01b815260048101829052602481018490526044016108a1565b600754600154604051632c54de4f60e01b815260009261010090046001600160a01b0390811692632c54de4f92611a169290911690339030908b9060040161250e565b6020604051808303816000875af1158015611a35573d6000803e3d6000fd5b505050506040513d601f19601f82011682018060405250810190611a5991906121e6565b90508060070b600014611a8e576001546040516353b9365760e01b81526108a1916001600160a01b0316908390600401612201565b600754600254604051632c54de4f60e01b815260009261010090046001600160a01b0390811692632c54de4f92611ad19290911690339030908b9060040161250e565b6020604051808303816000875af1158015611af0573d6000803e3d6000fd5b505050506040513d601f19601f82011682018060405250810190611b1491906121e6565b90508060070b600014611b49576002546040516353b9365760e01b81526108a1916001600160a01b0316908390600401612201565b6040805160008082526020820190925281611b74565b6060815260200190600190039081611b5f5790505b50600754600080546040516376096e0160e11b815293945090926001600160a01b0361010090930483169263ec12dc0292611bb8929116908e908790600401612538565b6020604051808303816000875af1158015611bd7573d6000803e3d6000fd5b505050506040513d601f19601f82011682018060405250810190611bfb91906121e6565b90508060070b600014611c30576000546040516325056c4d60e21b81526108a1916001600160a01b0316908390600401612201565b6000600760019054906101000a90046001600160a01b03166001600160a01b0316632c54de4f60008054906101000a90046001600160a01b031630338f6040518563ffffffff1660e01b8152600401611c8c949392919061250e565b6020604051808303816000875af1158015611cab573d6000803e3d6000fd5b505050506040513d601f19601f82011682018060405250810190611ccf91906121e6565b90508060070b600014611d04576000546040516353b9365760e01b81526108a1916001600160a01b0316908390600401612201565b604080518c8152602081018c90529081018a90526060810189905233907fc8692244b89e2a7e07e1d9ea03612e5d30118c61dd11d7e664e945287a3ce61b9060800160405180910390a25050505050505050505050565b60008060008060008060055487611d7291906124d0565b935060065487611d8291906124d0565b60075460015460405163927da10560e01b81529295506001600160a01b0361010090920482169263927da10592611dc19216908c9030906004016121ac565b602060405180830381865afa158015611dde573d6000803e3d6000fd5b505050506040513d601f19601f82011682018060405250810190611e0291906124f5565b60075460025460405163927da10560e01b81529298506001600160a01b0361010090920482169263927da10592611e419216908c9030906004016121ac565b602060405180830381865afa158015611e5e573d6000803e3d6000fd5b505050506040513d601f19601f82011682018060405250810190611e8291906124f5565b94508386101591508285101590509295509295509295565b6003546001600160a01b03163314611ec557604051634755657960e01b815260040160405180910390fd5b611ecd611edf565b565b60006005548261167691906124d0565b6000546001600160a01b0316611f30576007805460ff19169055604051600081527f40a36e95e1165e03b5c30095cd9d1e9fa9d8aa98d06aa1d6432a77718c0b68f0906020015b60405180910390a1565b600754600054604051632e1a634560e11b81526001600160a01b0391821660048201523060248201526101009092041690635c34c68a90604401602060405180830381865afa158015611f87573d6000803e3d6000fd5b505050506040513d601f19601f82011682018060405250810190611fab91906125b1565b6007805460ff1916911515918217905560405160ff909116151581527f40a36e95e1165e03b5c30095cd9d1e9fa9d8aa98d06aa1d6432a77718c0b68f090602001611f26565b60008083601f84011261200357600080fd5b50813567ffffffffffffffff81111561201b57600080fd5b60208301915083602082850101111561203357600080fd5b9250929050565b6000806000806000806060878903121561205357600080fd5b863567ffffffffffffffff8082111561206b57600080fd5b6120778a838b01611ff1565b9098509650602089013591508082111561209057600080fd5b61209c8a838b01611ff1565b909650945060408901359150808211156120b557600080fd5b506120c289828a01611ff1565b979a9699509497509295939492505050565b6000806000606084860312156120e957600080fd5b505081359360208301359350604090920135919050565b801515811461210e57600080fd5b50565b60006020828403121561212357600080fd5b813561212e81612100565b9392505050565b60006020828403121561214757600080fd5b5035919050565b6001600160a01b038116811461210e57600080fd5b60006020828403121561217557600080fd5b813561212e8161214e565b6000806040838503121561219357600080fd5b823561219e8161214e565b946020939093013593505050565b6001600160a01b0393841681529183166020830152909116604082015260600190565b8051600781900b81146121e157600080fd5b919050565b6000602082840312156121f857600080fd5b61212e826121cf565b6001600160a01b0392909216825260070b602082015260400190565b634e487b7160e01b600052603260045260246000fd5b6000815180845260005b818110156122595760208185018101518683018201520161223d565b506000602082860101526020601f19601f83011685010191505092915050565b600081518084526020808501945080840160005b838110156122b25781516001600160a01b03168752958201959082019060010161228d565b509495945050505050565b600081518084526020808501945080840160005b838110156122b257815160ff16875295820195908201906001016122d1565b60808152600085516101a080608085015261230f610220850183612233565b91506020880151607f19808685030160a087015261232d8483612233565b935060408a0151915061234b60c08701836001600160a01b03169052565b60608a01519150808685030160e08701526123668483612233565b935060808a0151915061010061237f8188018415159052565b60a08b0151925061012061239a8189018563ffffffff169052565b60c08c015193506101406123b1818a018615159052565b60e08d01519450610160848a890301818b01526123ce8887612279565b9750838e015195506101809350848a890301848b01526123ee8887612279565b9750828e01519550848a890301878b01526124098887612279565b9750818e01519650848a8903016101c08b01526124268888612279565b9750808e0151965050505081878603016101e08801526124468585612279565b9450808b0151935050505061246161020085018260ff169052565b50856020840152828103604084015261247a81866122bd565b9050828103606084015261248e8185612279565b979650505050505050565b600080604083850312156124ac57600080fd5b6124b5836121cf565b915060208301516124c58161214e565b809150509250929050565b808202811582820484141761167657634e487b7160e01b600052601160045260246000fd5b60006020828403121561250757600080fd5b5051919050565b6001600160a01b039485168152928416602084015292166040820152606081019190915260800190565b60006060820160018060a01b0386168352602085818501526060604085015281855180845260808601915060808160051b870101935082870160005b828110156125a257607f19888703018452612590868351612233565b95509284019290840190600101612574565b50939998505050505050505050565b6000602082840312156125c357600080fd5b815161212e8161210056fea26469706673582212205c46d80d45badbe8f47c2566488875ef67441d3beac4f0746e9cf65e267d898264736f6c63430008140033",
  "linkReferences": {},
  "deployedLinkReferences": {}
}