{
  "_format": "hh-sol-artifact-1",
  "contractName": "LynxMinter",
  "sourceName": "src/app/contracts/LynxMinter.sol",
  "abi": [
    {
      "inputs": [
        {
          "internalType": "address",
          "name": "_lynxToken",
          "type": "address"
        },
        {
          "internalType": "address",
          "name": "_sauceToken",
          "type": "address"
        },
        {
          "internalType": "address",
          "name": "_clxyToken",
          "type": "address"
        }
      ],
      "stateMutability": "nonpayable",
      "type": "constructor"
    },
    {
      "inputs": [],
      "name": "OnlyOwner",
      "type": "error"
    },
    {
      "inputs": [],
      "name": "ReentrancyGuardReentrantCall",
      "type": "error"
    },
    {
      "anonymous": false,
      "inputs": [
        {
          "indexed": false,
          "internalType": "string",
          "name": "message",
          "type": "string"
        },
        {
          "indexed": false,
          "internalType": "address",
          "name": "sender",
          "type": "address"
        },
        {
          "indexed": false,
          "internalType": "address",
          "name": "owner",
          "type": "address"
        },
        {
          "indexed": false,
          "internalType": "uint256",
          "name": "nonce",
          "type": "uint256"
        },
        {
          "indexed": false,
          "internalType": "bool",
          "name": "isPending",
          "type": "bool"
        }
      ],
      "name": "DebugConfirmMint",
      "type": "event"
    },
    {
      "anonymous": false,
      "inputs": [
        {
          "indexed": false,
          "internalType": "string",
          "name": "message",
          "type": "string"
        },
        {
          "indexed": false,
          "internalType": "uint256",
          "name": "value1",
          "type": "uint256"
        },
        {
          "indexed": false,
          "internalType": "uint256",
          "name": "value2",
          "type": "uint256"
        }
      ],
      "name": "DebugMint",
      "type": "event"
    },
    {
      "anonymous": false,
      "inputs": [
        {
          "indexed": false,
          "internalType": "string",
          "name": "message",
          "type": "string"
        },
        {
          "indexed": false,
          "internalType": "address",
          "name": "msgSender",
          "type": "address"
        },
        {
          "indexed": false,
          "internalType": "address",
          "name": "contractOwner",
          "type": "address"
        }
      ],
      "name": "DebugOwner",
      "type": "event"
    },
    {
      "anonymous": false,
      "inputs": [
        {
          "indexed": true,
          "internalType": "address",
          "name": "user",
          "type": "address"
        },
        {
          "indexed": false,
          "internalType": "uint256",
          "name": "hbarAmount",
          "type": "uint256"
        },
        {
          "indexed": false,
          "internalType": "uint256",
          "name": "sauceAmount",
          "type": "uint256"
        },
        {
          "indexed": false,
          "internalType": "uint256",
          "name": "clxyAmount",
          "type": "uint256"
        },
        {
          "indexed": false,
          "internalType": "uint256",
          "name": "lynxMinted",
          "type": "uint256"
        },
        {
          "indexed": false,
          "internalType": "uint256",
          "name": "nonce",
          "type": "uint256"
        }
      ],
      "name": "LynxMinted",
      "type": "event"
    },
    {
      "inputs": [],
      "name": "RATIO_PRECISION",
      "outputs": [
        {
          "internalType": "uint256",
          "name": "",
          "type": "uint256"
        }
      ],
      "stateMutability": "view",
      "type": "function"
    },
    {
      "inputs": [],
      "name": "clxyToken",
      "outputs": [
        {
          "internalType": "address",
          "name": "",
          "type": "address"
        }
      ],
      "stateMutability": "view",
      "type": "function"
    },
    {
      "inputs": [
        {
          "internalType": "uint256",
          "name": "nonce",
          "type": "uint256"
        },
        {
          "internalType": "uint256",
          "name": "amount",
          "type": "uint256"
        }
      ],
      "name": "confirmMint",
      "outputs": [],
      "stateMutability": "nonpayable",
      "type": "function"
    },
    {
      "inputs": [],
      "name": "getBalance",
      "outputs": [
        {
          "internalType": "uint256",
          "name": "",
          "type": "uint256"
        }
      ],
      "stateMutability": "view",
      "type": "function"
    },
    {
      "inputs": [],
      "name": "getMaxMintableAmount",
      "outputs": [
        {
          "internalType": "uint256",
          "name": "",
          "type": "uint256"
        }
      ],
      "stateMutability": "view",
      "type": "function"
    },
    {
      "inputs": [],
      "name": "lynxToken",
      "outputs": [
        {
          "internalType": "address",
          "name": "",
          "type": "address"
        }
      ],
      "stateMutability": "view",
      "type": "function"
    },
    {
      "inputs": [
        {
          "internalType": "uint256",
          "name": "amount",
          "type": "uint256"
        }
      ],
      "name": "mint",
      "outputs": [],
      "stateMutability": "payable",
      "type": "function"
    },
    {
      "inputs": [],
      "name": "mintNonce",
      "outputs": [
        {
          "internalType": "uint256",
          "name": "",
          "type": "uint256"
        }
      ],
      "stateMutability": "view",
      "type": "function"
    },
    {
      "inputs": [],
      "name": "owner",
      "outputs": [
        {
          "internalType": "address",
          "name": "",
          "type": "address"
        }
      ],
      "stateMutability": "view",
      "type": "function"
    },
    {
      "inputs": [
        {
          "internalType": "uint256",
          "name": "",
          "type": "uint256"
        }
      ],
      "name": "pendingMints",
      "outputs": [
        {
          "internalType": "bool",
          "name": "",
          "type": "bool"
        }
      ],
      "stateMutability": "view",
      "type": "function"
    },
    {
      "inputs": [],
      "name": "sauceToken",
      "outputs": [
        {
          "internalType": "address",
          "name": "",
          "type": "address"
        }
      ],
      "stateMutability": "view",
      "type": "function"
    },
    {
      "inputs": [],
      "name": "totalHbarDeposited",
      "outputs": [
        {
          "internalType": "uint256",
          "name": "",
          "type": "uint256"
        }
      ],
      "stateMutability": "view",
      "type": "function"
    },
    {
      "inputs": [],
      "name": "totalLynxMinted",
      "outputs": [
        {
          "internalType": "uint256",
          "name": "",
          "type": "uint256"
        }
      ],
      "stateMutability": "view",
      "type": "function"
    },
    {
      "inputs": [
        {
          "internalType": "uint256",
          "name": "amount",
          "type": "uint256"
        }
      ],
      "name": "withdrawHBAR",
      "outputs": [],
      "stateMutability": "nonpayable",
      "type": "function"
    }
  ],
  "bytecode": "0x608060405234801561001057600080fd5b506040516109d53803806109d583398101604081905261002f916101c3565b6001600160a01b0383166100945760405162461bcd60e51b815260206004820152602160248201527f4c594e5820746f6b656e20616464726573732063616e6e6f74206265207a65726044820152606f60f81b60648201526084015b60405180910390fd5b6001600160a01b0382166100f55760405162461bcd60e51b815260206004820152602260248201527f534155434520746f6b656e20616464726573732063616e6e6f74206265207a65604482015261726f60f01b606482015260840161008b565b6001600160a01b0381166101555760405162461bcd60e51b815260206004820152602160248201527f434c585920746f6b656e20616464726573732063616e6e6f74206265207a65726044820152606f60f81b606482015260840161008b565b60008054336001600160a01b0319918216178255600180556002805482166001600160a01b03968716179055600380548216948616949094179093556004805490931691909316179055600755610206565b80516001600160a01b03811681146101be57600080fd5b919050565b6000806000606084860312156101d857600080fd5b6101e1846101a7565b92506101ef602085016101a7565b91506101fd604085016101a7565b90509250925092565b6107c0806102156000396000f3fe6080604052600436106100dd5760003560e01c8063931679a21161007f578063a9a0c7ff11610059578063a9a0c7ff14610213578063d32867d014610233578063e860ff741461024b578063ef1643e41461026b57600080fd5b8063931679a2146101c85780639ea681f8146101de578063a0712d681461020057600080fd5b80632ac2555f116100bb5780632ac2555f1461011a57806363900ca6146101525780638a782285146101925780638da5cb5b146101a857600080fd5b806302107482146100e25780630a2565e41461010457806312065fe0146100e2575b600080fd5b3480156100ee57600080fd5b50475b6040519081526020015b60405180910390f35b34801561011057600080fd5b506100f160055481565b34801561012657600080fd5b5060045461013a906001600160a01b031681565b6040516001600160a01b0390911681526020016100fb565b34801561015e57600080fd5b5061018261016d3660046106ee565b60086020526000908152604090205460ff1681565b60405190151581526020016100fb565b34801561019e57600080fd5b506100f160065481565b3480156101b457600080fd5b5060005461013a906001600160a01b031681565b3480156101d457600080fd5b506100f160075481565b3480156101ea57600080fd5b506101fe6101f9366004610707565b61028b565b005b6101fe61020e3660046106ee565b6104b5565b34801561021f57600080fd5b506101fe61022e3660046106ee565b610612565b34801561023f57600080fd5b506100f16305f5e10081565b34801561025757600080fd5b5060035461013a906001600160a01b031681565b34801561027757600080fd5b5060025461013a906001600160a01b031681565b6000546001600160a01b031633146102fb576000546040517fa0e17470dc71e4604949d20a06e219f2836752c44926fbc6aea3035939f12ea0916102da9133916001600160a01b031690610729565b60405180910390a1604051635fc483c560e01b815260040160405180910390fd5b60026001540361031e57604051633ee5aeb560e01b815260040160405180910390fd5b600260015560008281526008602052604090205460ff166103865760405162461bcd60e51b815260206004820152601f60248201527f4e6f2070656e64696e67206d696e7420776974682074686973206e6f6e63650060448201526064015b60405180910390fd5b600080548382526008602090815260409283902054835160a0808252600f908201526e10dbdb999a5c9b5a5b99c81b5a5b9d608a1b60c082015233928101929092526001600160a01b03909216818401526060810185905260ff9091161515608082015290517f1591a5cd8d1c8d7c0b7cc796cf1a8a00188fe69c94fbe58c4a0fe137e26660139181900360e00190a16000828152600860205260408120805460ff191690556005805483929061043e908490610763565b9250508190555080600660008282546104579190610763565b909155505060408051828152600060208201819052818301526060810183905260808101849052905133917f9cfe9c3d9b47958471f4b9ec1d8b9e9c27e0fe2eb3e3a56635045c68b03a9d31919081900360a00190a2505060018055565b6002600154036104d857604051633ee5aeb560e01b815260040160405180910390fd5b6002600155348111156105265760405162461bcd60e51b8152602060048201526016602482015275125b9cdd59999a58da595b9d0812109054881cd95b9d60521b604482015260640161037d565b600081116105765760405162461bcd60e51b815260206004820152601d60248201527f416d6f756e74206d7573742062652067726561746572207468616e2030000000604482015260640161037d565b600754610584816001610763565b60075560008181526008602052604090819020805460ff19166001179055517f5d0f0c4ac430ecb1a1304c9cfcf3985fd70d44ce3a507e51cded58b313c90e7c9061060290849084906060808252600e908201526d135a5b9d081a5b9a5d1a585d195960921b60808201526020810192909252604082015260a00190565b60405180910390a1505060018055565b6000546001600160a01b03163314610661576000546040517fa0e17470dc71e4604949d20a06e219f2836752c44926fbc6aea3035939f12ea0916102da9133916001600160a01b031690610729565b478111156106b15760405162461bcd60e51b815260206004820152601960248201527f496e73756666696369656e7420484241522062616c616e636500000000000000604482015260640161037d565b600080546040516001600160a01b039091169183156108fc02918491818181858888f193505050501580156106ea573d6000803e3d6000fd5b5050565b60006020828403121561070057600080fd5b5035919050565b6000806040838503121561071a57600080fd5b50508035926020909101359150565b6060808252600990820152682737ba1037bbb732b960b91b60808201526001600160a01b0392831660208201529116604082015260a00190565b8082018082111561078457634e487b7160e01b600052601160045260246000fd5b9291505056fea26469706673582212207b17339c992def18aa4a6a9fcc52ceb19cc478b37d821cbc825c016e0fa0af4964736f6c63430008140033",
  "linkReferences": {},
  "deployedLinkReferences": {}
}