{
  "_format": "hh-sol-artifact-1",
  "contractName": "LiquidityStaking",
  "sourceName": "src/app/contracts/LiquidityStaking.sol",
  "abi": [
    {
      "inputs": [
        {
          "internalType": "address",
          "name": "_token",
          "type": "address"
        },
        {
          "internalType": "address",
          "name": "_saucerSwapRouter",
          "type": "address"
        }
      ],
      "stateMutability": "nonpayable",
      "type": "constructor"
    },
    {
      "inputs": [
        {
          "internalType": "address",
          "name": "token",
          "type": "address"
        }
      ],
      "name": "SafeERC20FailedOperation",
      "type": "error"
    },
    {
      "inputs": [
        {
          "internalType": "address",
          "name": "_staker",
          "type": "address"
        }
      ],
      "name": "getTotalStaked",
      "outputs": [
        {
          "internalType": "uint256",
          "name": "",
          "type": "uint256"
        }
      ],
      "stateMutability": "view",
      "type": "function"
    },
    {
      "inputs": [
        {
          "internalType": "uint256",
          "name": "",
          "type": "uint256"
        }
      ],
      "name": "liquidityPairs",
      "outputs": [
        {
          "internalType": "address",
          "name": "token1",
          "type": "address"
        },
        {
          "internalType": "address",
          "name": "token2",
          "type": "address"
        },
        {
          "internalType": "uint256",
          "name": "amount1",
          "type": "uint256"
        },
        {
          "internalType": "uint256",
          "name": "amount2",
          "type": "uint256"
        }
      ],
      "stateMutability": "view",
      "type": "function"
    },
    {
      "inputs": [],
      "name": "matchAndCreateLiquidityPairs",
      "outputs": [],
      "stateMutability": "nonpayable",
      "type": "function"
    },
    {
      "inputs": [],
      "name": "saucerSwapRouter",
      "outputs": [
        {
          "internalType": "address",
          "name": "",
          "type": "address"
        }
      ],
      "stateMutability": "view",
      "type": "function"
    },
    {
      "inputs": [
        {
          "internalType": "uint256",
          "name": "_amount",
          "type": "uint256"
        }
      ],
      "name": "stakeTokens",
      "outputs": [],
      "stateMutability": "nonpayable",
      "type": "function"
    },
    {
      "inputs": [
        {
          "internalType": "address",
          "name": "",
          "type": "address"
        },
        {
          "internalType": "uint256",
          "name": "",
          "type": "uint256"
        }
      ],
      "name": "stakes",
      "outputs": [
        {
          "internalType": "address",
          "name": "staker",
          "type": "address"
        },
        {
          "internalType": "uint256",
          "name": "amount",
          "type": "uint256"
        },
        {
          "internalType": "uint256",
          "name": "timestamp",
          "type": "uint256"
        }
      ],
      "stateMutability": "view",
      "type": "function"
    },
    {
      "inputs": [],
      "name": "token",
      "outputs": [
        {
          "internalType": "contract IERC20",
          "name": "",
          "type": "address"
        }
      ],
      "stateMutability": "view",
      "type": "function"
    },
    {
      "inputs": [
        {
          "internalType": "uint256",
          "name": "_amount",
          "type": "uint256"
        }
      ],
      "name": "withdrawTokens",
      "outputs": [],
      "stateMutability": "nonpayable",
      "type": "function"
    }
  ],
  "bytecode": "0x608060405234801561001057600080fd5b50604051610d4f380380610d4f83398101604081905261002f9161007c565b600080546001600160a01b039384166001600160a01b031991821617909155600380549290931691161790556100af565b80516001600160a01b038116811461007757600080fd5b919050565b6000806040838503121561008f57600080fd5b61009883610060565b91506100a660208401610060565b90509250929050565b610c91806100be6000396000f3fe608060405234801561001057600080fd5b50600436106100885760003560e01c8063584b62a11161005b578063584b62a1146101185780637547c7a314610150578063dd2a8b1114610163578063fc0c546a1461018457600080fd5b80630d07be2d1461008d5780631b7a1fb2146100bd57806328bf5a77146100fb578063315a095d14610105575b600080fd5b6003546100a0906001600160a01b031681565b6040516001600160a01b0390911681526020015b60405180910390f35b6100d06100cb366004610b20565b610197565b604080516001600160a01b0395861681529490931660208501529183015260608201526080016100b4565b6101036101dd565b005b610103610113366004610b20565b6104c8565b61012b610126366004610b55565b61064d565b604080516001600160a01b0390941684526020840192909252908201526060016100b4565b61010361015e366004610b20565b610699565b610176610171366004610b7f565b61077e565b6040519081526020016100b4565b6000546100a0906001600160a01b031681565b600281815481106101a757600080fd5b600091825260209091206004909102018054600182015460028301546003909301546001600160a01b0392831694509116919084565b60005b6002548110156104c55760005b6002548110156104b2578082141580156102d057506102d06002838154811061021857610218610ba1565b600091825260209182902060408051608081018252600490930290910180546001600160a01b0390811684526001820154169383019390935260028084015491830191909152600390920154606082015281549091908490811061027e5761027e610ba1565b600091825260209182902060408051608081018252600490930290910180546001600160a01b039081168452600182015416938301939093526002830154908201526003909101546060820152610805565b156104a05760006040518060800160405280600285815481106102f5576102f5610ba1565b6000918252602091829020600490910201546001600160a01b031682526002805492909101918590811061032b5761032b610ba1565b6000918252602091829020600160049092020101546001600160a01b031682526002805492909101918690811061036457610364610ba1565b90600052602060002090600402016002015481526020016002848154811061038e5761038e610ba1565b600091825260208083206004928302016003015490935260028054600181018255925283517f405787fa12a823e0f2b7631cc41b3ba8828b3321ca811111fa75cd3aa3bb5ace9290910291820180546001600160a01b03199081166001600160a01b0393841617909155928401517f405787fa12a823e0f2b7631cc41b3ba8828b3321ca811111fa75cd3aa3bb5acf8301805490941691161790915560408201517f405787fa12a823e0f2b7631cc41b3ba8828b3321ca811111fa75cd3aa3bb5ad082015560608201517f405787fa12a823e0f2b7631cc41b3ba8828b3321ca811111fa75cd3aa3bb5ad19091015590506104888361080e565b6104918261080e565b61049a8161090d565b506104b2565b806104aa81610bcd565b9150506101ed565b50806104bd81610bcd565b9150506101e0565b50565b60006104d33361077e565b90508181101561052a5760405162461bcd60e51b815260206004820152601a60248201527f496e73756666696369656e74207374616b656420616d6f756e7400000000000060448201526064015b60405180910390fd5b3360009081526001602052604090205482905b60008111801561054d5750600082115b156106305733600090815260016020819052604082209061056e9084610be6565b8154811061057e5761057e610ba1565b90600052602060002090600302019050828160010154116105ff5760018101546105a89084610be6565b336000908152600160205260409020805491945090806105ca576105ca610bf9565b60008281526020812060036000199093019283020180546001600160a01b03191681556001810182905560020155905561061d565b828160010160008282546106139190610be6565b9091555060009350505b508061062881610c0f565b91505061053d565b50600054610648906001600160a01b03163385610a11565b505050565b6001602052816000526040600020818154811061066957600080fd5b60009182526020909120600390910201805460018201546002909201546001600160a01b03909116935090915083565b600081116106f45760405162461bcd60e51b815260206004820152602260248201527f416d6f756e742073686f756c642062652067726561746572207468616e207a65604482015261726f60f01b6064820152608401610521565b60005461070c906001600160a01b0316333084610a70565b33600081815260016020818152604080842081516060810183529586528583019687524291860191825280548085018255908552919093209351600390910290930180546001600160a01b0319166001600160a01b039094169390931783559251928201929092559051600290910155565b600080805b6001600160a01b0384166000908152600160205260409020548110156107fe576001600160a01b03841660009081526001602052604090208054829081106107cd576107cd610ba1565b906000526020600020906003020160010154826107ea9190610c26565b9150806107f681610bcd565b915050610783565b5092915050565b60015b92915050565b60025461081d90600190610be6565b8110156108bc576002805461083490600190610be6565b8154811061084457610844610ba1565b90600052602060002090600402016002828154811061086557610865610ba1565b60009182526020909120825460049092020180546001600160a01b039283166001600160a01b0319918216178255600180850154908301805491909416911617909155600280830154908201556003918201549101555b60028054806108cd576108cd610bf9565b60008281526020812060046000199093019283020180546001600160a01b0319908116825560018201805490911690556002810182905560030155905550565b8051600354604080840151905163095ea7b360e01b81526001600160a01b039283166004820152602481019190915291169063095ea7b3906044016020604051808303816000875af1158015610967573d6000803e3d6000fd5b505050506040513d601f19601f8201168201806040525081019061098b9190610c39565b506020810151600354606083015160405163095ea7b360e01b81526001600160a01b039283166004820152602481019190915291169063095ea7b3906044016020604051808303816000875af11580156109e9573d6000803e3d6000fd5b505050506040513d601f19601f82011682018060405250810190610a0d9190610c39565b5050565b6040516001600160a01b0383811660248301526044820183905261064891859182169063a9059cbb906064015b604051602081830303815290604052915060e01b6020820180516001600160e01b038381831617835250505050610aaf565b6040516001600160a01b038481166024830152838116604483015260648201839052610aa99186918216906323b872dd90608401610a3e565b50505050565b600080602060008451602086016000885af180610ad2576040513d6000823e3d81fd5b50506000513d91508115610aea578060011415610af7565b6001600160a01b0384163b155b15610aa957604051635274afe760e01b81526001600160a01b0385166004820152602401610521565b600060208284031215610b3257600080fd5b5035919050565b80356001600160a01b0381168114610b5057600080fd5b919050565b60008060408385031215610b6857600080fd5b610b7183610b39565b946020939093013593505050565b600060208284031215610b9157600080fd5b610b9a82610b39565b9392505050565b634e487b7160e01b600052603260045260246000fd5b634e487b7160e01b600052601160045260246000fd5b600060018201610bdf57610bdf610bb7565b5060010190565b8181038181111561080857610808610bb7565b634e487b7160e01b600052603160045260246000fd5b600081610c1e57610c1e610bb7565b506000190190565b8082018082111561080857610808610bb7565b600060208284031215610c4b57600080fd5b81518015158114610b9a57600080fdfea2646970667358221220d299069b0568a0eb2bcd5ce87f8d4958f8c16265273eee3205681463d0a2bbc264736f6c63430008140033",
  "linkReferences": {},
  "deployedLinkReferences": {}
}