{
	"data": {
		"bytecode": {
			"linkReferences": {},
			"object": "60806040526402540be40060035560646004555f6005556001600655348015610026575f80fd5b50604051612435380380612435833981810160405281019061004891906101e2565b335f806101000a81548173ffffffffffffffffffffffffffffffffffffffff021916908373ffffffffffffffffffffffffffffffffffffffff1602179055508160025f6101000a81548173ffffffffffffffffffffffffffffffffffffffff021916908373ffffffffffffffffffffffffffffffffffffffff1602179055508060015f6101000a81548173ffffffffffffffffffffffffffffffffffffffff021916908373ffffffffffffffffffffffffffffffffffffffff1602179055507fe5589756feb14fa54053633b30d9de8c8c4a3347afc5bd6efc411f7823ae87f2335f6040516101389291906102d4565b60405180910390a17f50a77805ba3ef39f866e504a52cf8ad9303ed7ca3ec9a69774de6fc642a3b891600654600554604051610175929190610367565b60405180910390a150506103a1565b5f80fd5b5f73ffffffffffffffffffffffffffffffffffffffff82169050919050565b5f6101b182610188565b9050919050565b6101c1816101a7565b81146101cb575f80fd5b50565b5f815190506101dc816101b8565b92915050565b5f80604083850312156101f8576101f7610184565b5b5f610205858286016101ce565b9250506020610216858286016101ce565b9150509250929050565b5f82825260208201905092915050565b7f436f6e747261637420696e697469616c697a65640000000000000000000000005f82015250565b5f610264601483610220565b915061026f82610230565b602082019050919050565b610283816101a7565b82525050565b5f819050919050565b5f819050919050565b5f819050919050565b5f6102be6102b96102b484610289565b61029b565b610292565b9050919050565b6102ce816102a4565b82525050565b5f6060820190508181035f8301526102eb81610258565b90506102fa602083018561027a565b61030760408301846102c5565b9392505050565b7f696e6974000000000000000000000000000000000000000000000000000000005f82015250565b5f610342600483610220565b915061034d8261030e565b602082019050919050565b61036181610292565b82525050565b5f6060820190508181035f83015261037e81610336565b905061038d6020830185610358565b61039a6040830184610358565b9392505050565b612087806103ae5f395ff3fe6080604052600436106100db575f3560e01c806390118fb41161007e578063b181a8fc11610058578063b181a8fc14610288578063d5abeb011461029e578063e10577a8146102c8578063fa2299ee146102f0576100db565b806390118fb4146101f85780639d76ea5814610234578063a035b1fe1461025e576100db565b806361d027b3116100ba57806361d027b31461013b5780636b95812514610165578063799b6d2b146101a45780638da5cb5b146101ce576100db565b80629a9b7b146100df5780633548bfb514610109578063613b4d3214610131575b5f80fd5b3480156100ea575f80fd5b506100f361031a565b604051610100919061124a565b60405180910390f35b348015610114575f80fd5b5061012f600480360381019061012a91906112cc565b610320565b005b610139610695565b005b348015610146575f80fd5b5061014f610cb8565b60405161015c9190611356565b60405180910390f35b348015610170575f80fd5b5061018b60048036038101906101869190611399565b610cdd565b60405161019b94939291906113de565b60405180910390f35b3480156101af575f80fd5b506101b8610d50565b6040516101c5919061124a565b60405180910390f35b3480156101d9575f80fd5b506101e2610d58565b6040516101ef9190611356565b60405180910390f35b348015610203575f80fd5b5061021e60048036038101906102199190611399565b610d7b565b60405161022b9190611421565b60405180910390f35b34801561023f575f80fd5b50610248610d98565b6040516102559190611356565b60405180910390f35b348015610269575f80fd5b50610272610dbd565b60405161027f919061124a565b60405180910390f35b348015610293575f80fd5b5061029c610dc3565b005b3480156102a9575f80fd5b506102b2610f31565b6040516102bf919061124a565b60405180910390f35b3480156102d3575f80fd5b506102ee60048036038101906102e99190611399565b610f37565b005b3480156102fb575f80fd5b5061030461122c565b604051610311919061124a565b60405180910390f35b60065481565b5f8054906101000a900473ffffffffffffffffffffffffffffffffffffffff1673ffffffffffffffffffffffffffffffffffffffff163373ffffffffffffffffffffffffffffffffffffffff16146103ad576040517f08c379a00000000000000000000000000000000000000000000000000000000081526004016103a490611494565b60405180910390fd5b600454828290506005546103c191906114df565b1115610402576040517f08c379a00000000000000000000000000000000000000000000000000000000081526004016103f99061155c565b60405180910390fd5b5f5b828290508110156106905760075f8484848181106104255761042461157a565b5b905060200201602081019061043a9190611399565b73ffffffffffffffffffffffffffffffffffffffff1673ffffffffffffffffffffffffffffffffffffffff1681526020019081526020015f205f9054906101000a900460ff16156104c0576040517f08c379a00000000000000000000000000000000000000000000000000000000081526004016104b7906115f1565b60405180910390fd5b5f600654905060065f8154809291906104d89061160f565b919050555060055f8154809291906104ef9061160f565b9190505550600160075f86868681811061050c5761050b61157a565b5b90506020020160208101906105219190611399565b73ffffffffffffffffffffffffffffffffffffffff1673ffffffffffffffffffffffffffffffffffffffff1681526020019081526020015f205f6101000a81548160ff0219169083151502179055507f50a77805ba3ef39f866e504a52cf8ad9303ed7ca3ec9a69774de6fc642a3b8916006546005546040516105a59291906116a0565b60405180910390a18383838181106105c0576105bf61157a565b5b90506020020160208101906105d59190611399565b73ffffffffffffffffffffffffffffffffffffffff167fd8d13f468893bece2ca9dfbf3118efe2b0759bf01d2a6459ac99ae1a12023a928260405161061a919061124a565b60405180910390a27fe5589756feb14fa54053633b30d9de8c8c4a3347afc5bd6efc411f7823ae87f28484848181106106565761065561157a565b5b905060200201602081019061066b9190611399565b8260405161067a929190611724565b60405180910390a1508080600101915050610404565b505050565b7fe5589756feb14fa54053633b30d9de8c8c4a3347afc5bd6efc411f7823ae87f233346040516106c69291906117a8565b60405180910390a17fe5589756feb14fa54053633b30d9de8c8c4a3347afc5bd6efc411f7823ae87f233346040516106ff92919061182c565b60405180910390a1600354341461074b576040517f08c379a0000000000000000000000000000000000000000000000000000000008152600401610742906118b0565b60405180910390fd5b7f2986c1195038ba7d017c216e93091e762818523405dcc924664d323eab49ae8733303460405161077e93929190611918565b60405180910390a17fe5589756feb14fa54053633b30d9de8c8c4a3347afc5bd6efc411f7823ae87f2336005546040516107b99291906119aa565b60405180910390a160045460055410610807576040517f08c379a00000000000000000000000000000000000000000000000000000000081526004016107fe90611a2e565b60405180910390fd5b7fe5589756feb14fa54053633b30d9de8c8c4a3347afc5bd6efc411f7823ae87f23360075f3373ffffffffffffffffffffffffffffffffffffffff1673ffffffffffffffffffffffffffffffffffffffff1681526020019081526020015f205f9054906101000a900460ff1661087d575f610880565b60015b60405161088e929190611adb565b60405180910390a160075f3373ffffffffffffffffffffffffffffffffffffffff1673ffffffffffffffffffffffffffffffffffffffff1681526020019081526020015f205f9054906101000a900460ff1615610920576040517f08c379a000000000000000000000000000000000000000000000000000000000815260040161091790611b5f565b60405180910390fd5b7fe5589756feb14fa54053633b30d9de8c8c4a3347afc5bd6efc411f7823ae87f233600654604051610953929190611bc7565b60405180910390a160045460065411156109a2576040517f08c379a000000000000000000000000000000000000000000000000000000000815260040161099990611c4b565b60405180910390fd5b5f60065490507fe5589756feb14fa54053633b30d9de8c8c4a3347afc5bd6efc411f7823ae87f233826040516109d9929190611cb3565b60405180910390a160065f8154809291906109f39061160f565b919050555060055f815480929190610a0a9061160f565b9190505550600160075f3373ffffffffffffffffffffffffffffffffffffffff1673ffffffffffffffffffffffffffffffffffffffff1681526020019081526020015f205f6101000a81548160ff0219169083151502179055507f50a77805ba3ef39f866e504a52cf8ad9303ed7ca3ec9a69774de6fc642a3b891600654600554604051610a99929190611d37565b60405180910390a17f5a3f196e6fd5c75314ebca5df0bb64433a4da454c48dbcb96161583a3152aa653334604051610ad2929190611d71565b60405180910390a17f6ef95f06320e7a25a04a175ca677b7052bdd97131872c2192525a629f51be7703334604051610b0b929190611d71565b60405180910390a17f2986c1195038ba7d017c216e93091e762818523405dcc924664d323eab49ae873060015f9054906101000a900473ffffffffffffffffffffffffffffffffffffffff1634604051610b6793929190611de2565b60405180910390a160015f9054906101000a900473ffffffffffffffffffffffffffffffffffffffff1673ffffffffffffffffffffffffffffffffffffffff166108fc3490811502906040515f60405180830381858888f19350505050158015610bd3573d5f803e3d5ffd5b507f7e99594d80a854f08e1995929bca50d03000411d5987bfea7071cc8d125762c460015f9054906101000a900473ffffffffffffffffffffffffffffffffffffffff1634604051610c26929190611d71565b60405180910390a13373ffffffffffffffffffffffffffffffffffffffff167ff025e0c58bf784c030caa814abce9ca7cf237831d4dff71c2ade33bed4d8dd2282604051610c74919061124a565b60405180910390a27fe5589756feb14fa54053633b30d9de8c8c4a3347afc5bd6efc411f7823ae87f23382604051610cad929190611e74565b60405180910390a150565b60015f9054906101000a900473ffffffffffffffffffffffffffffffffffffffff1681565b5f805f8060075f8673ffffffffffffffffffffffffffffffffffffffff1673ffffffffffffffffffffffffffffffffffffffff1681526020019081526020015f205f9054906101000a900460ff16600654600554600454610d3e9190611eae565b60035493509350935093509193509193565b633b9aca0081565b5f8054906101000a900473ffffffffffffffffffffffffffffffffffffffff1681565b6007602052805f5260405f205f915054906101000a900460ff1681565b60025f9054906101000a900473ffffffffffffffffffffffffffffffffffffffff1681565b60035481565b5f8054906101000a900473ffffffffffffffffffffffffffffffffffffffff1673ffffffffffffffffffffffffffffffffffffffff163373ffffffffffffffffffffffffffffffffffffffff1614610e50576040517f08c379a0000000000000000000000000000000000000000000000000000000008152600401610e4790611f2b565b60405180910390fd5b5f60058190555060016006819055506402540be4006003819055507fe5589756feb14fa54053633b30d9de8c8c4a3347afc5bd6efc411f7823ae87f23342604051610e9c929190611f93565b60405180910390a17f50a77805ba3ef39f866e504a52cf8ad9303ed7ca3ec9a69774de6fc642a3b891600654600554604051610ed9929190612017565b60405180910390a13373ffffffffffffffffffffffffffffffffffffffff167f52792a7f5b0a52571949f1e7fb3a5a1672bd8a877707942a21cb3300fa02d10142604051610f27919061124a565b60405180910390a2565b60045481565b5f8054906101000a900473ffffffffffffffffffffffffffffffffffffffff1673ffffffffffffffffffffffffffffffffffffffff163373ffffffffffffffffffffffffffffffffffffffff1614610fc4576040517f08c379a0000000000000000000000000000000000000000000000000000000008152600401610fbb90611494565b60405180910390fd5b6004546005541061100a576040517f08c379a000000000000000000000000000000000000000000000000000000000815260040161100190611a2e565b60405180910390fd5b6004546006541115611051576040517f08c379a000000000000000000000000000000000000000000000000000000000815260040161104890611c4b565b60405180910390fd5b60075f8273ffffffffffffffffffffffffffffffffffffffff1673ffffffffffffffffffffffffffffffffffffffff1681526020019081526020015f205f9054906101000a900460ff16156110db576040517f08c379a00000000000000000000000000000000000000000000000000000000081526004016110d2906115f1565b60405180910390fd5b5f600654905060065f8154809291906110f39061160f565b919050555060055f81548092919061110a9061160f565b9190505550600160075f8473ffffffffffffffffffffffffffffffffffffffff1673ffffffffffffffffffffffffffffffffffffffff1681526020019081526020015f205f6101000a81548160ff0219169083151502179055507f50a77805ba3ef39f866e504a52cf8ad9303ed7ca3ec9a69774de6fc642a3b8916006546005546040516111999291906116a0565b60405180910390a18173ffffffffffffffffffffffffffffffffffffffff167fd8d13f468893bece2ca9dfbf3118efe2b0759bf01d2a6459ac99ae1a12023a92826040516111e7919061124a565b60405180910390a27fe5589756feb14fa54053633b30d9de8c8c4a3347afc5bd6efc411f7823ae87f28282604051611220929190611724565b60405180910390a15050565b60055481565b5f819050919050565b61124481611232565b82525050565b5f60208201905061125d5f83018461123b565b92915050565b5f80fd5b5f80fd5b5f80fd5b5f80fd5b5f80fd5b5f8083601f84011261128c5761128b61126b565b5b8235905067ffffffffffffffff8111156112a9576112a861126f565b5b6020830191508360208202830111156112c5576112c4611273565b5b9250929050565b5f80602083850312156112e2576112e1611263565b5b5f83013567ffffffffffffffff8111156112ff576112fe611267565b5b61130b85828601611277565b92509250509250929050565b5f73ffffffffffffffffffffffffffffffffffffffff82169050919050565b5f61134082611317565b9050919050565b61135081611336565b82525050565b5f6020820190506113695f830184611347565b92915050565b61137881611336565b8114611382575f80fd5b50565b5f813590506113938161136f565b92915050565b5f602082840312156113ae576113ad611263565b5b5f6113bb84828501611385565b91505092915050565b5f8115159050919050565b6113d8816113c4565b82525050565b5f6080820190506113f15f8301876113cf565b6113fe602083018661123b565b61140b604083018561123b565b611418606083018461123b565b95945050505050565b5f6020820190506114345f8301846113cf565b92915050565b5f82825260208201905092915050565b7f4f6e6c79206f776e65722063616e20676976652061776179204e4654730000005f82015250565b5f61147e601d8361143a565b91506114898261144a565b602082019050919050565b5f6020820190508181035f8301526114ab81611472565b9050919050565b7f4e487b71000000000000000000000000000000000000000000000000000000005f52601160045260245ffd5b5f6114e982611232565b91506114f483611232565b925082820190508082111561150c5761150b6114b2565b5b92915050565b7f4e6f7420656e6f756768204e4654732072656d61696e696e67000000000000005f82015250565b5f61154660198361143a565b915061155182611512565b602082019050919050565b5f6020820190508181035f8301526115738161153a565b9050919050565b7f4e487b71000000000000000000000000000000000000000000000000000000005f52603260045260245ffd5b7f4164647265737320616c726561647920726563656976656420616e204e4654005f82015250565b5f6115db601f8361143a565b91506115e6826115a7565b602082019050919050565b5f6020820190508181035f830152611608816115cf565b9050919050565b5f61161982611232565b91507fffffffffffffffffffffffffffffffffffffffffffffffffffffffffffffffff820361164b5761164a6114b2565b5b600182019050919050565b7f67697665617761790000000000000000000000000000000000000000000000005f82015250565b5f61168a60088361143a565b915061169582611656565b602082019050919050565b5f6060820190508181035f8301526116b78161167e565b90506116c6602083018561123b565b6116d3604083018461123b565b9392505050565b7f476976656177617920636f6d706c6574656400000000000000000000000000005f82015250565b5f61170e60128361143a565b9150611719826116da565b602082019050919050565b5f6060820190508181035f83015261173b81611702565b905061174a6020830185611347565b611757604083018461123b565b9392505050565b7f50757263686173652073746172746564000000000000000000000000000000005f82015250565b5f61179260108361143a565b915061179d8261175e565b602082019050919050565b5f6060820190508181035f8301526117bf81611786565b90506117ce6020830185611347565b6117db604083018461123b565b9392505050565b7f436865636b696e67207061796d656e74000000000000000000000000000000005f82015250565b5f61181660108361143a565b9150611821826117e2565b602082019050919050565b5f6060820190508181035f8301526118438161180a565b90506118526020830185611347565b61185f604083018461123b565b9392505050565b7f496e636f7272656374207061796d656e7420616d6f756e7400000000000000005f82015250565b5f61189a60188361143a565b91506118a582611866565b602082019050919050565b5f6020820190508181035f8301526118c78161188e565b9050919050565b7f5061796d656e742076616c69646174696f6e00000000000000000000000000005f82015250565b5f61190260128361143a565b915061190d826118ce565b602082019050919050565b5f6080820190508181035f83015261192f816118f6565b905061193e6020830186611347565b61194b6040830185611347565b611958606083018461123b565b949350505050565b7f436865636b696e6720737570706c7900000000000000000000000000000000005f82015250565b5f611994600f8361143a565b915061199f82611960565b602082019050919050565b5f6060820190508181035f8301526119c181611988565b90506119d06020830185611347565b6119dd604083018461123b565b9392505050565b7f416c6c204e46547320736f6c64206f75740000000000000000000000000000005f82015250565b5f611a1860118361143a565b9150611a23826119e4565b602082019050919050565b5f6020820190508181035f830152611a4581611a0c565b9050919050565b7f436865636b696e672070726576696f75732070757263686173650000000000005f82015250565b5f611a80601a8361143a565b9150611a8b82611a4c565b602082019050919050565b5f60ff82169050919050565b5f819050919050565b5f611ac5611ac0611abb84611a96565b611aa2565b611232565b9050919050565b611ad581611aab565b82525050565b5f6060820190508181035f830152611af281611a74565b9050611b016020830185611347565b611b0e6040830184611acc565b9392505050565b7f416c7265616479207075726368617365640000000000000000000000000000005f82015250565b5f611b4960118361143a565b9150611b5482611b15565b602082019050919050565b5f6020820190508181035f830152611b7681611b3d565b9050919050565b7f436865636b696e6720746f6b656e2049440000000000000000000000000000005f82015250565b5f611bb160118361143a565b9150611bbc82611b7d565b602082019050919050565b5f6060820190508181035f830152611bde81611ba5565b9050611bed6020830185611347565b611bfa604083018461123b565b9392505050565b7f4e6f206d6f7265204e46547320617661696c61626c65000000000000000000005f82015250565b5f611c3560168361143a565b9150611c4082611c01565b602082019050919050565b5f6020820190508181035f830152611c6281611c29565b9050919050565b7f5265636f7264696e6720707572636861736500000000000000000000000000005f82015250565b5f611c9d60128361143a565b9150611ca882611c69565b602082019050919050565b5f6060820190508181035f830152611cca81611c91565b9050611cd96020830185611347565b611ce6604083018461123b565b9392505050565b7f70757263686173650000000000000000000000000000000000000000000000005f82015250565b5f611d2160088361143a565b9150611d2c82611ced565b602082019050919050565b5f6060820190508181035f830152611d4e81611d15565b9050611d5d602083018561123b565b611d6a604083018461123b565b9392505050565b5f604082019050611d845f830185611347565b611d91602083018461123b565b9392505050565b7f466f7277617264696e67207061796d656e7400000000000000000000000000005f82015250565b5f611dcc60128361143a565b9150611dd782611d98565b602082019050919050565b5f6080820190508181035f830152611df981611dc0565b9050611e086020830186611347565b611e156040830185611347565b611e22606083018461123b565b949350505050565b7f507572636861736520636f6d706c6574656400000000000000000000000000005f82015250565b5f611e5e60128361143a565b9150611e6982611e2a565b602082019050919050565b5f6060820190508181035f830152611e8b81611e52565b9050611e9a6020830185611347565b611ea7604083018461123b565b9392505050565b5f611eb882611232565b9150611ec383611232565b9250828203905081811115611edb57611eda6114b2565b5b92915050565b7f4f6e6c79206f776e65722063616e2072657365740000000000000000000000005f82015250565b5f611f1560148361143a565b9150611f2082611ee1565b602082019050919050565b5f6020820190508181035f830152611f4281611f09565b9050919050565b7f436f6e74726163742072657365740000000000000000000000000000000000005f82015250565b5f611f7d600e8361143a565b9150611f8882611f49565b602082019050919050565b5f6060820190508181035f830152611faa81611f71565b9050611fb96020830185611347565b611fc6604083018461123b565b9392505050565b7f72657365740000000000000000000000000000000000000000000000000000005f82015250565b5f61200160058361143a565b915061200c82611fcd565b602082019050919050565b5f6060820190508181035f83015261202e81611ff5565b905061203d602083018561123b565b61204a604083018461123b565b939250505056fea26469706673582212202ac9b18c9db297c83d08e7df60aca694e0167bf4636372296705630711a6970a64736f6c634300081a0033",
			"opcodes": "PUSH1 0x80 PUSH1 0x40 MSTORE PUSH5 0x2540BE400 PUSH1 0x3 SSTORE PUSH1 0x64 PUSH1 0x4 SSTORE PUSH0 PUSH1 0x5 SSTORE PUSH1 0x1 PUSH1 0x6 SSTORE CALLVALUE DUP1 ISZERO PUSH2 0x26 JUMPI PUSH0 DUP1 REVERT JUMPDEST POP PUSH1 0x40 MLOAD PUSH2 0x2435 CODESIZE SUB DUP1 PUSH2 0x2435 DUP4 CODECOPY DUP2 DUP2 ADD PUSH1 0x40 MSTORE DUP2 ADD SWAP1 PUSH2 0x48 SWAP2 SWAP1 PUSH2 0x1E2 JUMP JUMPDEST CALLER PUSH0 DUP1 PUSH2 0x100 EXP DUP2 SLOAD DUP2 PUSH20 0xFFFFFFFFFFFFFFFFFFFFFFFFFFFFFFFFFFFFFFFF MUL NOT AND SWAP1 DUP4 PUSH20 0xFFFFFFFFFFFFFFFFFFFFFFFFFFFFFFFFFFFFFFFF AND MUL OR SWAP1 SSTORE POP DUP2 PUSH1 0x2 PUSH0 PUSH2 0x100 EXP DUP2 SLOAD DUP2 PUSH20 0xFFFFFFFFFFFFFFFFFFFFFFFFFFFFFFFFFFFFFFFF MUL NOT AND SWAP1 DUP4 PUSH20 0xFFFFFFFFFFFFFFFFFFFFFFFFFFFFFFFFFFFFFFFF AND MUL OR SWAP1 SSTORE POP DUP1 PUSH1 0x1 PUSH0 PUSH2 0x100 EXP DUP2 SLOAD DUP2 PUSH20 0xFFFFFFFFFFFFFFFFFFFFFFFFFFFFFFFFFFFFFFFF MUL NOT AND SWAP1 DUP4 PUSH20 0xFFFFFFFFFFFFFFFFFFFFFFFFFFFFFFFFFFFFFFFF AND MUL OR SWAP1 SSTORE POP PUSH32 0xE5589756FEB14FA54053633B30D9DE8C8C4A3347AFC5BD6EFC411F7823AE87F2 CALLER PUSH0 PUSH1 0x40 MLOAD PUSH2 0x138 SWAP3 SWAP2 SWAP1 PUSH2 0x2D4 JUMP JUMPDEST PUSH1 0x40 MLOAD DUP1 SWAP2 SUB SWAP1 LOG1 PUSH32 0x50A77805BA3EF39F866E504A52CF8AD9303ED7CA3EC9A69774DE6FC642A3B891 PUSH1 0x6 SLOAD PUSH1 0x5 SLOAD PUSH1 0x40 MLOAD PUSH2 0x175 SWAP3 SWAP2 SWAP1 PUSH2 0x367 JUMP JUMPDEST PUSH1 0x40 MLOAD DUP1 SWAP2 SUB SWAP1 LOG1 POP POP PUSH2 0x3A1 JUMP JUMPDEST PUSH0 DUP1 REVERT JUMPDEST PUSH0 PUSH20 0xFFFFFFFFFFFFFFFFFFFFFFFFFFFFFFFFFFFFFFFF DUP3 AND SWAP1 POP SWAP2 SWAP1 POP JUMP JUMPDEST PUSH0 PUSH2 0x1B1 DUP3 PUSH2 0x188 JUMP JUMPDEST SWAP1 POP SWAP2 SWAP1 POP JUMP JUMPDEST PUSH2 0x1C1 DUP2 PUSH2 0x1A7 JUMP JUMPDEST DUP2 EQ PUSH2 0x1CB JUMPI PUSH0 DUP1 REVERT JUMPDEST POP JUMP JUMPDEST PUSH0 DUP2 MLOAD SWAP1 POP PUSH2 0x1DC DUP2 PUSH2 0x1B8 JUMP JUMPDEST SWAP3 SWAP2 POP POP JUMP JUMPDEST PUSH0 DUP1 PUSH1 0x40 DUP4 DUP6 SUB SLT ISZERO PUSH2 0x1F8 JUMPI PUSH2 0x1F7 PUSH2 0x184 JUMP JUMPDEST JUMPDEST PUSH0 PUSH2 0x205 DUP6 DUP3 DUP7 ADD PUSH2 0x1CE JUMP JUMPDEST SWAP3 POP POP PUSH1 0x20 PUSH2 0x216 DUP6 DUP3 DUP7 ADD PUSH2 0x1CE JUMP JUMPDEST SWAP2 POP POP SWAP3 POP SWAP3 SWAP1 POP JUMP JUMPDEST PUSH0 DUP3 DUP3 MSTORE PUSH1 0x20 DUP3 ADD SWAP1 POP SWAP3 SWAP2 POP POP JUMP JUMPDEST PUSH32 0x436F6E747261637420696E697469616C697A6564000000000000000000000000 PUSH0 DUP3 ADD MSTORE POP JUMP JUMPDEST PUSH0 PUSH2 0x264 PUSH1 0x14 DUP4 PUSH2 0x220 JUMP JUMPDEST SWAP2 POP PUSH2 0x26F DUP3 PUSH2 0x230 JUMP JUMPDEST PUSH1 0x20 DUP3 ADD SWAP1 POP SWAP2 SWAP1 POP JUMP JUMPDEST PUSH2 0x283 DUP2 PUSH2 0x1A7 JUMP JUMPDEST DUP3 MSTORE POP POP JUMP JUMPDEST PUSH0 DUP2 SWAP1 POP SWAP2 SWAP1 POP JUMP JUMPDEST PUSH0 DUP2 SWAP1 POP SWAP2 SWAP1 POP JUMP JUMPDEST PUSH0 DUP2 SWAP1 POP SWAP2 SWAP1 POP JUMP JUMPDEST PUSH0 PUSH2 0x2BE PUSH2 0x2B9 PUSH2 0x2B4 DUP5 PUSH2 0x289 JUMP JUMPDEST PUSH2 0x29B JUMP JUMPDEST PUSH2 0x292 JUMP JUMPDEST SWAP1 POP SWAP2 SWAP1 POP JUMP JUMPDEST PUSH2 0x2CE DUP2 PUSH2 0x2A4 JUMP JUMPDEST DUP3 MSTORE POP POP JUMP JUMPDEST PUSH0 PUSH1 0x60 DUP3 ADD SWAP1 POP DUP2 DUP2 SUB PUSH0 DUP4 ADD MSTORE PUSH2 0x2EB DUP2 PUSH2 0x258 JUMP JUMPDEST SWAP1 POP PUSH2 0x2FA PUSH1 0x20 DUP4 ADD DUP6 PUSH2 0x27A JUMP JUMPDEST PUSH2 0x307 PUSH1 0x40 DUP4 ADD DUP5 PUSH2 0x2C5 JUMP JUMPDEST SWAP4 SWAP3 POP POP POP JUMP JUMPDEST PUSH32 0x696E697400000000000000000000000000000000000000000000000000000000 PUSH0 DUP3 ADD MSTORE POP JUMP JUMPDEST PUSH0 PUSH2 0x342 PUSH1 0x4 DUP4 PUSH2 0x220 JUMP JUMPDEST SWAP2 POP PUSH2 0x34D DUP3 PUSH2 0x30E JUMP JUMPDEST PUSH1 0x20 DUP3 ADD SWAP1 POP SWAP2 SWAP1 POP JUMP JUMPDEST PUSH2 0x361 DUP2 PUSH2 0x292 JUMP JUMPDEST DUP3 MSTORE POP POP JUMP JUMPDEST PUSH0 PUSH1 0x60 DUP3 ADD SWAP1 POP DUP2 DUP2 SUB PUSH0 DUP4 ADD MSTORE PUSH2 0x37E DUP2 PUSH2 0x336 JUMP JUMPDEST SWAP1 POP PUSH2 0x38D PUSH1 0x20 DUP4 ADD DUP6 PUSH2 0x358 JUMP JUMPDEST PUSH2 0x39A PUSH1 0x40 DUP4 ADD DUP5 PUSH2 0x358 JUMP JUMPDEST SWAP4 SWAP3 POP POP POP JUMP JUMPDEST PUSH2 0x2087 DUP1 PUSH2 0x3AE PUSH0 CODECOPY PUSH0 RETURN INVALID PUSH1 0x80 PUSH1 0x40 MSTORE PUSH1 0x4 CALLDATASIZE LT PUSH2 0xDB JUMPI PUSH0 CALLDATALOAD PUSH1 0xE0 SHR DUP1 PUSH4 0x90118FB4 GT PUSH2 0x7E JUMPI DUP1 PUSH4 0xB181A8FC GT PUSH2 0x58 JUMPI DUP1 PUSH4 0xB181A8FC EQ PUSH2 0x288 JUMPI DUP1 PUSH4 0xD5ABEB01 EQ PUSH2 0x29E JUMPI DUP1 PUSH4 0xE10577A8 EQ PUSH2 0x2C8 JUMPI DUP1 PUSH4 0xFA2299EE EQ PUSH2 0x2F0 JUMPI PUSH2 0xDB JUMP JUMPDEST DUP1 PUSH4 0x90118FB4 EQ PUSH2 0x1F8 JUMPI DUP1 PUSH4 0x9D76EA58 EQ PUSH2 0x234 JUMPI DUP1 PUSH4 0xA035B1FE EQ PUSH2 0x25E JUMPI PUSH2 0xDB JUMP JUMPDEST DUP1 PUSH4 0x61D027B3 GT PUSH2 0xBA JUMPI DUP1 PUSH4 0x61D027B3 EQ PUSH2 0x13B JUMPI DUP1 PUSH4 0x6B958125 EQ PUSH2 0x165 JUMPI DUP1 PUSH4 0x799B6D2B EQ PUSH2 0x1A4 JUMPI DUP1 PUSH4 0x8DA5CB5B EQ PUSH2 0x1CE JUMPI PUSH2 0xDB JUMP JUMPDEST DUP1 PUSH3 0x9A9B7B EQ PUSH2 0xDF JUMPI DUP1 PUSH4 0x3548BFB5 EQ PUSH2 0x109 JUMPI DUP1 PUSH4 0x613B4D32 EQ PUSH2 0x131 JUMPI JUMPDEST PUSH0 DUP1 REVERT JUMPDEST CALLVALUE DUP1 ISZERO PUSH2 0xEA JUMPI PUSH0 DUP1 REVERT JUMPDEST POP PUSH2 0xF3 PUSH2 0x31A JUMP JUMPDEST PUSH1 0x40 MLOAD PUSH2 0x100 SWAP2 SWAP1 PUSH2 0x124A JUMP JUMPDEST PUSH1 0x40 MLOAD DUP1 SWAP2 SUB SWAP1 RETURN JUMPDEST CALLVALUE DUP1 ISZERO PUSH2 0x114 JUMPI PUSH0 DUP1 REVERT JUMPDEST POP PUSH2 0x12F PUSH1 0x4 DUP1 CALLDATASIZE SUB DUP2 ADD SWAP1 PUSH2 0x12A SWAP2 SWAP1 PUSH2 0x12CC JUMP JUMPDEST PUSH2 0x320 JUMP JUMPDEST STOP JUMPDEST PUSH2 0x139 PUSH2 0x695 JUMP JUMPDEST STOP JUMPDEST CALLVALUE DUP1 ISZERO PUSH2 0x146 JUMPI PUSH0 DUP1 REVERT JUMPDEST POP PUSH2 0x14F PUSH2 0xCB8 JUMP JUMPDEST PUSH1 0x40 MLOAD PUSH2 0x15C SWAP2 SWAP1 PUSH2 0x1356 JUMP JUMPDEST PUSH1 0x40 MLOAD DUP1 SWAP2 SUB SWAP1 RETURN JUMPDEST CALLVALUE DUP1 ISZERO PUSH2 0x170 JUMPI PUSH0 DUP1 REVERT JUMPDEST POP PUSH2 0x18B PUSH1 0x4 DUP1 CALLDATASIZE SUB DUP2 ADD SWAP1 PUSH2 0x186 SWAP2 SWAP1 PUSH2 0x1399 JUMP JUMPDEST PUSH2 0xCDD JUMP JUMPDEST PUSH1 0x40 MLOAD PUSH2 0x19B SWAP5 SWAP4 SWAP3 SWAP2 SWAP1 PUSH2 0x13DE JUMP JUMPDEST PUSH1 0x40 MLOAD DUP1 SWAP2 SUB SWAP1 RETURN JUMPDEST CALLVALUE DUP1 ISZERO PUSH2 0x1AF JUMPI PUSH0 DUP1 REVERT JUMPDEST POP PUSH2 0x1B8 PUSH2 0xD50 JUMP JUMPDEST PUSH1 0x40 MLOAD PUSH2 0x1C5 SWAP2 SWAP1 PUSH2 0x124A JUMP JUMPDEST PUSH1 0x40 MLOAD DUP1 SWAP2 SUB SWAP1 RETURN JUMPDEST CALLVALUE DUP1 ISZERO PUSH2 0x1D9 JUMPI PUSH0 DUP1 REVERT JUMPDEST POP PUSH2 0x1E2 PUSH2 0xD58 JUMP JUMPDEST PUSH1 0x40 MLOAD PUSH2 0x1EF SWAP2 SWAP1 PUSH2 0x1356 JUMP JUMPDEST PUSH1 0x40 MLOAD DUP1 SWAP2 SUB SWAP1 RETURN JUMPDEST CALLVALUE DUP1 ISZERO PUSH2 0x203 JUMPI PUSH0 DUP1 REVERT JUMPDEST POP PUSH2 0x21E PUSH1 0x4 DUP1 CALLDATASIZE SUB DUP2 ADD SWAP1 PUSH2 0x219 SWAP2 SWAP1 PUSH2 0x1399 JUMP JUMPDEST PUSH2 0xD7B JUMP JUMPDEST PUSH1 0x40 MLOAD PUSH2 0x22B SWAP2 SWAP1 PUSH2 0x1421 JUMP JUMPDEST PUSH1 0x40 MLOAD DUP1 SWAP2 SUB SWAP1 RETURN JUMPDEST CALLVALUE DUP1 ISZERO PUSH2 0x23F JUMPI PUSH0 DUP1 REVERT JUMPDEST POP PUSH2 0x248 PUSH2 0xD98 JUMP JUMPDEST PUSH1 0x40 MLOAD PUSH2 0x255 SWAP2 SWAP1 PUSH2 0x1356 JUMP JUMPDEST PUSH1 0x40 MLOAD DUP1 SWAP2 SUB SWAP1 RETURN JUMPDEST CALLVALUE DUP1 ISZERO PUSH2 0x269 JUMPI PUSH0 DUP1 REVERT JUMPDEST POP PUSH2 0x272 PUSH2 0xDBD JUMP JUMPDEST PUSH1 0x40 MLOAD PUSH2 0x27F SWAP2 SWAP1 PUSH2 0x124A JUMP JUMPDEST PUSH1 0x40 MLOAD DUP1 SWAP2 SUB SWAP1 RETURN JUMPDEST CALLVALUE DUP1 ISZERO PUSH2 0x293 JUMPI PUSH0 DUP1 REVERT JUMPDEST POP PUSH2 0x29C PUSH2 0xDC3 JUMP JUMPDEST STOP JUMPDEST CALLVALUE DUP1 ISZERO PUSH2 0x2A9 JUMPI PUSH0 DUP1 REVERT JUMPDEST POP PUSH2 0x2B2 PUSH2 0xF31 JUMP JUMPDEST PUSH1 0x40 MLOAD PUSH2 0x2BF SWAP2 SWAP1 PUSH2 0x124A JUMP JUMPDEST PUSH1 0x40 MLOAD DUP1 SWAP2 SUB SWAP1 RETURN JUMPDEST CALLVALUE DUP1 ISZERO PUSH2 0x2D3 JUMPI PUSH0 DUP1 REVERT JUMPDEST POP PUSH2 0x2EE PUSH1 0x4 DUP1 CALLDATASIZE SUB DUP2 ADD SWAP1 PUSH2 0x2E9 SWAP2 SWAP1 PUSH2 0x1399 JUMP JUMPDEST PUSH2 0xF37 JUMP JUMPDEST STOP JUMPDEST CALLVALUE DUP1 ISZERO PUSH2 0x2FB JUMPI PUSH0 DUP1 REVERT JUMPDEST POP PUSH2 0x304 PUSH2 0x122C JUMP JUMPDEST PUSH1 0x40 MLOAD PUSH2 0x311 SWAP2 SWAP1 PUSH2 0x124A JUMP JUMPDEST PUSH1 0x40 MLOAD DUP1 SWAP2 SUB SWAP1 RETURN JUMPDEST PUSH1 0x6 SLOAD DUP2 JUMP JUMPDEST PUSH0 DUP1 SLOAD SWAP1 PUSH2 0x100 EXP SWAP1 DIV PUSH20 0xFFFFFFFFFFFFFFFFFFFFFFFFFFFFFFFFFFFFFFFF AND PUSH20 0xFFFFFFFFFFFFFFFFFFFFFFFFFFFFFFFFFFFFFFFF AND CALLER PUSH20 0xFFFFFFFFFFFFFFFFFFFFFFFFFFFFFFFFFFFFFFFF AND EQ PUSH2 0x3AD JUMPI PUSH1 0x40 MLOAD PUSH32 0x8C379A000000000000000000000000000000000000000000000000000000000 DUP2 MSTORE PUSH1 0x4 ADD PUSH2 0x3A4 SWAP1 PUSH2 0x1494 JUMP JUMPDEST PUSH1 0x40 MLOAD DUP1 SWAP2 SUB SWAP1 REVERT JUMPDEST PUSH1 0x4 SLOAD DUP3 DUP3 SWAP1 POP PUSH1 0x5 SLOAD PUSH2 0x3C1 SWAP2 SWAP1 PUSH2 0x14DF JUMP JUMPDEST GT ISZERO PUSH2 0x402 JUMPI PUSH1 0x40 MLOAD PUSH32 0x8C379A000000000000000000000000000000000000000000000000000000000 DUP2 MSTORE PUSH1 0x4 ADD PUSH2 0x3F9 SWAP1 PUSH2 0x155C JUMP JUMPDEST PUSH1 0x40 MLOAD DUP1 SWAP2 SUB SWAP1 REVERT JUMPDEST PUSH0 JUMPDEST DUP3 DUP3 SWAP1 POP DUP2 LT ISZERO PUSH2 0x690 JUMPI PUSH1 0x7 PUSH0 DUP5 DUP5 DUP5 DUP2 DUP2 LT PUSH2 0x425 JUMPI PUSH2 0x424 PUSH2 0x157A JUMP JUMPDEST JUMPDEST SWAP1 POP PUSH1 0x20 MUL ADD PUSH1 0x20 DUP2 ADD SWAP1 PUSH2 0x43A SWAP2 SWAP1 PUSH2 0x1399 JUMP JUMPDEST PUSH20 0xFFFFFFFFFFFFFFFFFFFFFFFFFFFFFFFFFFFFFFFF AND PUSH20 0xFFFFFFFFFFFFFFFFFFFFFFFFFFFFFFFFFFFFFFFF AND DUP2 MSTORE PUSH1 0x20 ADD SWAP1 DUP2 MSTORE PUSH1 0x20 ADD PUSH0 KECCAK256 PUSH0 SWAP1 SLOAD SWAP1 PUSH2 0x100 EXP SWAP1 DIV PUSH1 0xFF AND ISZERO PUSH2 0x4C0 JUMPI PUSH1 0x40 MLOAD PUSH32 0x8C379A000000000000000000000000000000000000000000000000000000000 DUP2 MSTORE PUSH1 0x4 ADD PUSH2 0x4B7 SWAP1 PUSH2 0x15F1 JUMP JUMPDEST PUSH1 0x40 MLOAD DUP1 SWAP2 SUB SWAP1 REVERT JUMPDEST PUSH0 PUSH1 0x6 SLOAD SWAP1 POP PUSH1 0x6 PUSH0 DUP2 SLOAD DUP1 SWAP3 SWAP2 SWAP1 PUSH2 0x4D8 SWAP1 PUSH2 0x160F JUMP JUMPDEST SWAP2 SWAP1 POP SSTORE POP PUSH1 0x5 PUSH0 DUP2 SLOAD DUP1 SWAP3 SWAP2 SWAP1 PUSH2 0x4EF SWAP1 PUSH2 0x160F JUMP JUMPDEST SWAP2 SWAP1 POP SSTORE POP PUSH1 0x1 PUSH1 0x7 PUSH0 DUP7 DUP7 DUP7 DUP2 DUP2 LT PUSH2 0x50C JUMPI PUSH2 0x50B PUSH2 0x157A JUMP JUMPDEST JUMPDEST SWAP1 POP PUSH1 0x20 MUL ADD PUSH1 0x20 DUP2 ADD SWAP1 PUSH2 0x521 SWAP2 SWAP1 PUSH2 0x1399 JUMP JUMPDEST PUSH20 0xFFFFFFFFFFFFFFFFFFFFFFFFFFFFFFFFFFFFFFFF AND PUSH20 0xFFFFFFFFFFFFFFFFFFFFFFFFFFFFFFFFFFFFFFFF AND DUP2 MSTORE PUSH1 0x20 ADD SWAP1 DUP2 MSTORE PUSH1 0x20 ADD PUSH0 KECCAK256 PUSH0 PUSH2 0x100 EXP DUP2 SLOAD DUP2 PUSH1 0xFF MUL NOT AND SWAP1 DUP4 ISZERO ISZERO MUL OR SWAP1 SSTORE POP PUSH32 0x50A77805BA3EF39F866E504A52CF8AD9303ED7CA3EC9A69774DE6FC642A3B891 PUSH1 0x6 SLOAD PUSH1 0x5 SLOAD PUSH1 0x40 MLOAD PUSH2 0x5A5 SWAP3 SWAP2 SWAP1 PUSH2 0x16A0 JUMP JUMPDEST PUSH1 0x40 MLOAD DUP1 SWAP2 SUB SWAP1 LOG1 DUP4 DUP4 DUP4 DUP2 DUP2 LT PUSH2 0x5C0 JUMPI PUSH2 0x5BF PUSH2 0x157A JUMP JUMPDEST JUMPDEST SWAP1 POP PUSH1 0x20 MUL ADD PUSH1 0x20 DUP2 ADD SWAP1 PUSH2 0x5D5 SWAP2 SWAP1 PUSH2 0x1399 JUMP JUMPDEST PUSH20 0xFFFFFFFFFFFFFFFFFFFFFFFFFFFFFFFFFFFFFFFF AND PUSH32 0xD8D13F468893BECE2CA9DFBF3118EFE2B0759BF01D2A6459AC99AE1A12023A92 DUP3 PUSH1 0x40 MLOAD PUSH2 0x61A SWAP2 SWAP1 PUSH2 0x124A JUMP JUMPDEST PUSH1 0x40 MLOAD DUP1 SWAP2 SUB SWAP1 LOG2 PUSH32 0xE5589756FEB14FA54053633B30D9DE8C8C4A3347AFC5BD6EFC411F7823AE87F2 DUP5 DUP5 DUP5 DUP2 DUP2 LT PUSH2 0x656 JUMPI PUSH2 0x655 PUSH2 0x157A JUMP JUMPDEST JUMPDEST SWAP1 POP PUSH1 0x20 MUL ADD PUSH1 0x20 DUP2 ADD SWAP1 PUSH2 0x66B SWAP2 SWAP1 PUSH2 0x1399 JUMP JUMPDEST DUP3 PUSH1 0x40 MLOAD PUSH2 0x67A SWAP3 SWAP2 SWAP1 PUSH2 0x1724 JUMP JUMPDEST PUSH1 0x40 MLOAD DUP1 SWAP2 SUB SWAP1 LOG1 POP DUP1 DUP1 PUSH1 0x1 ADD SWAP2 POP POP PUSH2 0x404 JUMP JUMPDEST POP POP POP JUMP JUMPDEST PUSH32 0xE5589756FEB14FA54053633B30D9DE8C8C4A3347AFC5BD6EFC411F7823AE87F2 CALLER CALLVALUE PUSH1 0x40 MLOAD PUSH2 0x6C6 SWAP3 SWAP2 SWAP1 PUSH2 0x17A8 JUMP JUMPDEST PUSH1 0x40 MLOAD DUP1 SWAP2 SUB SWAP1 LOG1 PUSH32 0xE5589756FEB14FA54053633B30D9DE8C8C4A3347AFC5BD6EFC411F7823AE87F2 CALLER CALLVALUE PUSH1 0x40 MLOAD PUSH2 0x6FF SWAP3 SWAP2 SWAP1 PUSH2 0x182C JUMP JUMPDEST PUSH1 0x40 MLOAD DUP1 SWAP2 SUB SWAP1 LOG1 PUSH1 0x3 SLOAD CALLVALUE EQ PUSH2 0x74B JUMPI PUSH1 0x40 MLOAD PUSH32 0x8C379A000000000000000000000000000000000000000000000000000000000 DUP2 MSTORE PUSH1 0x4 ADD PUSH2 0x742 SWAP1 PUSH2 0x18B0 JUMP JUMPDEST PUSH1 0x40 MLOAD DUP1 SWAP2 SUB SWAP1 REVERT JUMPDEST PUSH32 0x2986C1195038BA7D017C216E93091E762818523405DCC924664D323EAB49AE87 CALLER ADDRESS CALLVALUE PUSH1 0x40 MLOAD PUSH2 0x77E SWAP4 SWAP3 SWAP2 SWAP1 PUSH2 0x1918 JUMP JUMPDEST PUSH1 0x40 MLOAD DUP1 SWAP2 SUB SWAP1 LOG1 PUSH32 0xE5589756FEB14FA54053633B30D9DE8C8C4A3347AFC5BD6EFC411F7823AE87F2 CALLER PUSH1 0x5 SLOAD PUSH1 0x40 MLOAD PUSH2 0x7B9 SWAP3 SWAP2 SWAP1 PUSH2 0x19AA JUMP JUMPDEST PUSH1 0x40 MLOAD DUP1 SWAP2 SUB SWAP1 LOG1 PUSH1 0x4 SLOAD PUSH1 0x5 SLOAD LT PUSH2 0x807 JUMPI PUSH1 0x40 MLOAD PUSH32 0x8C379A000000000000000000000000000000000000000000000000000000000 DUP2 MSTORE PUSH1 0x4 ADD PUSH2 0x7FE SWAP1 PUSH2 0x1A2E JUMP JUMPDEST PUSH1 0x40 MLOAD DUP1 SWAP2 SUB SWAP1 REVERT JUMPDEST PUSH32 0xE5589756FEB14FA54053633B30D9DE8C8C4A3347AFC5BD6EFC411F7823AE87F2 CALLER PUSH1 0x7 PUSH0 CALLER PUSH20 0xFFFFFFFFFFFFFFFFFFFFFFFFFFFFFFFFFFFFFFFF AND PUSH20 0xFFFFFFFFFFFFFFFFFFFFFFFFFFFFFFFFFFFFFFFF AND DUP2 MSTORE PUSH1 0x20 ADD SWAP1 DUP2 MSTORE PUSH1 0x20 ADD PUSH0 KECCAK256 PUSH0 SWAP1 SLOAD SWAP1 PUSH2 0x100 EXP SWAP1 DIV PUSH1 0xFF AND PUSH2 0x87D JUMPI PUSH0 PUSH2 0x880 JUMP JUMPDEST PUSH1 0x1 JUMPDEST PUSH1 0x40 MLOAD PUSH2 0x88E SWAP3 SWAP2 SWAP1 PUSH2 0x1ADB JUMP JUMPDEST PUSH1 0x40 MLOAD DUP1 SWAP2 SUB SWAP1 LOG1 PUSH1 0x7 PUSH0 CALLER PUSH20 0xFFFFFFFFFFFFFFFFFFFFFFFFFFFFFFFFFFFFFFFF AND PUSH20 0xFFFFFFFFFFFFFFFFFFFFFFFFFFFFFFFFFFFFFFFF AND DUP2 MSTORE PUSH1 0x20 ADD SWAP1 DUP2 MSTORE PUSH1 0x20 ADD PUSH0 KECCAK256 PUSH0 SWAP1 SLOAD SWAP1 PUSH2 0x100 EXP SWAP1 DIV PUSH1 0xFF AND ISZERO PUSH2 0x920 JUMPI PUSH1 0x40 MLOAD PUSH32 0x8C379A000000000000000000000000000000000000000000000000000000000 DUP2 MSTORE PUSH1 0x4 ADD PUSH2 0x917 SWAP1 PUSH2 0x1B5F JUMP JUMPDEST PUSH1 0x40 MLOAD DUP1 SWAP2 SUB SWAP1 REVERT JUMPDEST PUSH32 0xE5589756FEB14FA54053633B30D9DE8C8C4A3347AFC5BD6EFC411F7823AE87F2 CALLER PUSH1 0x6 SLOAD PUSH1 0x40 MLOAD PUSH2 0x953 SWAP3 SWAP2 SWAP1 PUSH2 0x1BC7 JUMP JUMPDEST PUSH1 0x40 MLOAD DUP1 SWAP2 SUB SWAP1 LOG1 PUSH1 0x4 SLOAD PUSH1 0x6 SLOAD GT ISZERO PUSH2 0x9A2 JUMPI PUSH1 0x40 MLOAD PUSH32 0x8C379A000000000000000000000000000000000000000000000000000000000 DUP2 MSTORE PUSH1 0x4 ADD PUSH2 0x999 SWAP1 PUSH2 0x1C4B JUMP JUMPDEST PUSH1 0x40 MLOAD DUP1 SWAP2 SUB SWAP1 REVERT JUMPDEST PUSH0 PUSH1 0x6 SLOAD SWAP1 POP PUSH32 0xE5589756FEB14FA54053633B30D9DE8C8C4A3347AFC5BD6EFC411F7823AE87F2 CALLER DUP3 PUSH1 0x40 MLOAD PUSH2 0x9D9 SWAP3 SWAP2 SWAP1 PUSH2 0x1CB3 JUMP JUMPDEST PUSH1 0x40 MLOAD DUP1 SWAP2 SUB SWAP1 LOG1 PUSH1 0x6 PUSH0 DUP2 SLOAD DUP1 SWAP3 SWAP2 SWAP1 PUSH2 0x9F3 SWAP1 PUSH2 0x160F JUMP JUMPDEST SWAP2 SWAP1 POP SSTORE POP PUSH1 0x5 PUSH0 DUP2 SLOAD DUP1 SWAP3 SWAP2 SWAP1 PUSH2 0xA0A SWAP1 PUSH2 0x160F JUMP JUMPDEST SWAP2 SWAP1 POP SSTORE POP PUSH1 0x1 PUSH1 0x7 PUSH0 CALLER PUSH20 0xFFFFFFFFFFFFFFFFFFFFFFFFFFFFFFFFFFFFFFFF AND PUSH20 0xFFFFFFFFFFFFFFFFFFFFFFFFFFFFFFFFFFFFFFFF AND DUP2 MSTORE PUSH1 0x20 ADD SWAP1 DUP2 MSTORE PUSH1 0x20 ADD PUSH0 KECCAK256 PUSH0 PUSH2 0x100 EXP DUP2 SLOAD DUP2 PUSH1 0xFF MUL NOT AND SWAP1 DUP4 ISZERO ISZERO MUL OR SWAP1 SSTORE POP PUSH32 0x50A77805BA3EF39F866E504A52CF8AD9303ED7CA3EC9A69774DE6FC642A3B891 PUSH1 0x6 SLOAD PUSH1 0x5 SLOAD PUSH1 0x40 MLOAD PUSH2 0xA99 SWAP3 SWAP2 SWAP1 PUSH2 0x1D37 JUMP JUMPDEST PUSH1 0x40 MLOAD DUP1 SWAP2 SUB SWAP1 LOG1 PUSH32 0x5A3F196E6FD5C75314EBCA5DF0BB64433A4DA454C48DBCB96161583A3152AA65 CALLER CALLVALUE PUSH1 0x40 MLOAD PUSH2 0xAD2 SWAP3 SWAP2 SWAP1 PUSH2 0x1D71 JUMP JUMPDEST PUSH1 0x40 MLOAD DUP1 SWAP2 SUB SWAP1 LOG1 PUSH32 0x6EF95F06320E7A25A04A175CA677B7052BDD97131872C2192525A629F51BE770 CALLER CALLVALUE PUSH1 0x40 MLOAD PUSH2 0xB0B SWAP3 SWAP2 SWAP1 PUSH2 0x1D71 JUMP JUMPDEST PUSH1 0x40 MLOAD DUP1 SWAP2 SUB SWAP1 LOG1 PUSH32 0x2986C1195038BA7D017C216E93091E762818523405DCC924664D323EAB49AE87 ADDRESS PUSH1 0x1 PUSH0 SWAP1 SLOAD SWAP1 PUSH2 0x100 EXP SWAP1 DIV PUSH20 0xFFFFFFFFFFFFFFFFFFFFFFFFFFFFFFFFFFFFFFFF AND CALLVALUE PUSH1 0x40 MLOAD PUSH2 0xB67 SWAP4 SWAP3 SWAP2 SWAP1 PUSH2 0x1DE2 JUMP JUMPDEST PUSH1 0x40 MLOAD DUP1 SWAP2 SUB SWAP1 LOG1 PUSH1 0x1 PUSH0 SWAP1 SLOAD SWAP1 PUSH2 0x100 EXP SWAP1 DIV PUSH20 0xFFFFFFFFFFFFFFFFFFFFFFFFFFFFFFFFFFFFFFFF AND PUSH20 0xFFFFFFFFFFFFFFFFFFFFFFFFFFFFFFFFFFFFFFFF AND PUSH2 0x8FC CALLVALUE SWAP1 DUP2 ISZERO MUL SWAP1 PUSH1 0x40 MLOAD PUSH0 PUSH1 0x40 MLOAD DUP1 DUP4 SUB DUP2 DUP6 DUP9 DUP9 CALL SWAP4 POP POP POP POP ISZERO DUP1 ISZERO PUSH2 0xBD3 JUMPI RETURNDATASIZE PUSH0 DUP1 RETURNDATACOPY RETURNDATASIZE PUSH0 REVERT JUMPDEST POP PUSH32 0x7E99594D80A854F08E1995929BCA50D03000411D5987BFEA7071CC8D125762C4 PUSH1 0x1 PUSH0 SWAP1 SLOAD SWAP1 PUSH2 0x100 EXP SWAP1 DIV PUSH20 0xFFFFFFFFFFFFFFFFFFFFFFFFFFFFFFFFFFFFFFFF AND CALLVALUE PUSH1 0x40 MLOAD PUSH2 0xC26 SWAP3 SWAP2 SWAP1 PUSH2 0x1D71 JUMP JUMPDEST PUSH1 0x40 MLOAD DUP1 SWAP2 SUB SWAP1 LOG1 CALLER PUSH20 0xFFFFFFFFFFFFFFFFFFFFFFFFFFFFFFFFFFFFFFFF AND PUSH32 0xF025E0C58BF784C030CAA814ABCE9CA7CF237831D4DFF71C2ADE33BED4D8DD22 DUP3 PUSH1 0x40 MLOAD PUSH2 0xC74 SWAP2 SWAP1 PUSH2 0x124A JUMP JUMPDEST PUSH1 0x40 MLOAD DUP1 SWAP2 SUB SWAP1 LOG2 PUSH32 0xE5589756FEB14FA54053633B30D9DE8C8C4A3347AFC5BD6EFC411F7823AE87F2 CALLER DUP3 PUSH1 0x40 MLOAD PUSH2 0xCAD SWAP3 SWAP2 SWAP1 PUSH2 0x1E74 JUMP JUMPDEST PUSH1 0x40 MLOAD DUP1 SWAP2 SUB SWAP1 LOG1 POP JUMP JUMPDEST PUSH1 0x1 PUSH0 SWAP1 SLOAD SWAP1 PUSH2 0x100 EXP SWAP1 DIV PUSH20 0xFFFFFFFFFFFFFFFFFFFFFFFFFFFFFFFFFFFFFFFF AND DUP2 JUMP JUMPDEST PUSH0 DUP1 PUSH0 DUP1 PUSH1 0x7 PUSH0 DUP7 PUSH20 0xFFFFFFFFFFFFFFFFFFFFFFFFFFFFFFFFFFFFFFFF AND PUSH20 0xFFFFFFFFFFFFFFFFFFFFFFFFFFFFFFFFFFFFFFFF AND DUP2 MSTORE PUSH1 0x20 ADD SWAP1 DUP2 MSTORE PUSH1 0x20 ADD PUSH0 KECCAK256 PUSH0 SWAP1 SLOAD SWAP1 PUSH2 0x100 EXP SWAP1 DIV PUSH1 0xFF AND PUSH1 0x6 SLOAD PUSH1 0x5 SLOAD PUSH1 0x4 SLOAD PUSH2 0xD3E SWAP2 SWAP1 PUSH2 0x1EAE JUMP JUMPDEST PUSH1 0x3 SLOAD SWAP4 POP SWAP4 POP SWAP4 POP SWAP4 POP SWAP2 SWAP4 POP SWAP2 SWAP4 JUMP JUMPDEST PUSH4 0x3B9ACA00 DUP2 JUMP JUMPDEST PUSH0 DUP1 SLOAD SWAP1 PUSH2 0x100 EXP SWAP1 DIV PUSH20 0xFFFFFFFFFFFFFFFFFFFFFFFFFFFFFFFFFFFFFFFF AND DUP2 JUMP JUMPDEST PUSH1 0x7 PUSH1 0x20 MSTORE DUP1 PUSH0 MSTORE PUSH1 0x40 PUSH0 KECCAK256 PUSH0 SWAP2 POP SLOAD SWAP1 PUSH2 0x100 EXP SWAP1 DIV PUSH1 0xFF AND DUP2 JUMP JUMPDEST PUSH1 0x2 PUSH0 SWAP1 SLOAD SWAP1 PUSH2 0x100 EXP SWAP1 DIV PUSH20 0xFFFFFFFFFFFFFFFFFFFFFFFFFFFFFFFFFFFFFFFF AND DUP2 JUMP JUMPDEST PUSH1 0x3 SLOAD DUP2 JUMP JUMPDEST PUSH0 DUP1 SLOAD SWAP1 PUSH2 0x100 EXP SWAP1 DIV PUSH20 0xFFFFFFFFFFFFFFFFFFFFFFFFFFFFFFFFFFFFFFFF AND PUSH20 0xFFFFFFFFFFFFFFFFFFFFFFFFFFFFFFFFFFFFFFFF AND CALLER PUSH20 0xFFFFFFFFFFFFFFFFFFFFFFFFFFFFFFFFFFFFFFFF AND EQ PUSH2 0xE50 JUMPI PUSH1 0x40 MLOAD PUSH32 0x8C379A000000000000000000000000000000000000000000000000000000000 DUP2 MSTORE PUSH1 0x4 ADD PUSH2 0xE47 SWAP1 PUSH2 0x1F2B JUMP JUMPDEST PUSH1 0x40 MLOAD DUP1 SWAP2 SUB SWAP1 REVERT JUMPDEST PUSH0 PUSH1 0x5 DUP2 SWAP1 SSTORE POP PUSH1 0x1 PUSH1 0x6 DUP2 SWAP1 SSTORE POP PUSH5 0x2540BE400 PUSH1 0x3 DUP2 SWAP1 SSTORE POP PUSH32 0xE5589756FEB14FA54053633B30D9DE8C8C4A3347AFC5BD6EFC411F7823AE87F2 CALLER TIMESTAMP PUSH1 0x40 MLOAD PUSH2 0xE9C SWAP3 SWAP2 SWAP1 PUSH2 0x1F93 JUMP JUMPDEST PUSH1 0x40 MLOAD DUP1 SWAP2 SUB SWAP1 LOG1 PUSH32 0x50A77805BA3EF39F866E504A52CF8AD9303ED7CA3EC9A69774DE6FC642A3B891 PUSH1 0x6 SLOAD PUSH1 0x5 SLOAD PUSH1 0x40 MLOAD PUSH2 0xED9 SWAP3 SWAP2 SWAP1 PUSH2 0x2017 JUMP JUMPDEST PUSH1 0x40 MLOAD DUP1 SWAP2 SUB SWAP1 LOG1 CALLER PUSH20 0xFFFFFFFFFFFFFFFFFFFFFFFFFFFFFFFFFFFFFFFF AND PUSH32 0x52792A7F5B0A52571949F1E7FB3A5A1672BD8A877707942A21CB3300FA02D101 TIMESTAMP PUSH1 0x40 MLOAD PUSH2 0xF27 SWAP2 SWAP1 PUSH2 0x124A JUMP JUMPDEST PUSH1 0x40 MLOAD DUP1 SWAP2 SUB SWAP1 LOG2 JUMP JUMPDEST PUSH1 0x4 SLOAD DUP2 JUMP JUMPDEST PUSH0 DUP1 SLOAD SWAP1 PUSH2 0x100 EXP SWAP1 DIV PUSH20 0xFFFFFFFFFFFFFFFFFFFFFFFFFFFFFFFFFFFFFFFF AND PUSH20 0xFFFFFFFFFFFFFFFFFFFFFFFFFFFFFFFFFFFFFFFF AND CALLER PUSH20 0xFFFFFFFFFFFFFFFFFFFFFFFFFFFFFFFFFFFFFFFF AND EQ PUSH2 0xFC4 JUMPI PUSH1 0x40 MLOAD PUSH32 0x8C379A000000000000000000000000000000000000000000000000000000000 DUP2 MSTORE PUSH1 0x4 ADD PUSH2 0xFBB SWAP1 PUSH2 0x1494 JUMP JUMPDEST PUSH1 0x40 MLOAD DUP1 SWAP2 SUB SWAP1 REVERT JUMPDEST PUSH1 0x4 SLOAD PUSH1 0x5 SLOAD LT PUSH2 0x100A JUMPI PUSH1 0x40 MLOAD PUSH32 0x8C379A000000000000000000000000000000000000000000000000000000000 DUP2 MSTORE PUSH1 0x4 ADD PUSH2 0x1001 SWAP1 PUSH2 0x1A2E JUMP JUMPDEST PUSH1 0x40 MLOAD DUP1 SWAP2 SUB SWAP1 REVERT JUMPDEST PUSH1 0x4 SLOAD PUSH1 0x6 SLOAD GT ISZERO PUSH2 0x1051 JUMPI PUSH1 0x40 MLOAD PUSH32 0x8C379A000000000000000000000000000000000000000000000000000000000 DUP2 MSTORE PUSH1 0x4 ADD PUSH2 0x1048 SWAP1 PUSH2 0x1C4B JUMP JUMPDEST PUSH1 0x40 MLOAD DUP1 SWAP2 SUB SWAP1 REVERT JUMPDEST PUSH1 0x7 PUSH0 DUP3 PUSH20 0xFFFFFFFFFFFFFFFFFFFFFFFFFFFFFFFFFFFFFFFF AND PUSH20 0xFFFFFFFFFFFFFFFFFFFFFFFFFFFFFFFFFFFFFFFF AND DUP2 MSTORE PUSH1 0x20 ADD SWAP1 DUP2 MSTORE PUSH1 0x20 ADD PUSH0 KECCAK256 PUSH0 SWAP1 SLOAD SWAP1 PUSH2 0x100 EXP SWAP1 DIV PUSH1 0xFF AND ISZERO PUSH2 0x10DB JUMPI PUSH1 0x40 MLOAD PUSH32 0x8C379A000000000000000000000000000000000000000000000000000000000 DUP2 MSTORE PUSH1 0x4 ADD PUSH2 0x10D2 SWAP1 PUSH2 0x15F1 JUMP JUMPDEST PUSH1 0x40 MLOAD DUP1 SWAP2 SUB SWAP1 REVERT JUMPDEST PUSH0 PUSH1 0x6 SLOAD SWAP1 POP PUSH1 0x6 PUSH0 DUP2 SLOAD DUP1 SWAP3 SWAP2 SWAP1 PUSH2 0x10F3 SWAP1 PUSH2 0x160F JUMP JUMPDEST SWAP2 SWAP1 POP SSTORE POP PUSH1 0x5 PUSH0 DUP2 SLOAD DUP1 SWAP3 SWAP2 SWAP1 PUSH2 0x110A SWAP1 PUSH2 0x160F JUMP JUMPDEST SWAP2 SWAP1 POP SSTORE POP PUSH1 0x1 PUSH1 0x7 PUSH0 DUP5 PUSH20 0xFFFFFFFFFFFFFFFFFFFFFFFFFFFFFFFFFFFFFFFF AND PUSH20 0xFFFFFFFFFFFFFFFFFFFFFFFFFFFFFFFFFFFFFFFF AND DUP2 MSTORE PUSH1 0x20 ADD SWAP1 DUP2 MSTORE PUSH1 0x20 ADD PUSH0 KECCAK256 PUSH0 PUSH2 0x100 EXP DUP2 SLOAD DUP2 PUSH1 0xFF MUL NOT AND SWAP1 DUP4 ISZERO ISZERO MUL OR SWAP1 SSTORE POP PUSH32 0x50A77805BA3EF39F866E504A52CF8AD9303ED7CA3EC9A69774DE6FC642A3B891 PUSH1 0x6 SLOAD PUSH1 0x5 SLOAD PUSH1 0x40 MLOAD PUSH2 0x1199 SWAP3 SWAP2 SWAP1 PUSH2 0x16A0 JUMP JUMPDEST PUSH1 0x40 MLOAD DUP1 SWAP2 SUB SWAP1 LOG1 DUP2 PUSH20 0xFFFFFFFFFFFFFFFFFFFFFFFFFFFFFFFFFFFFFFFF AND PUSH32 0xD8D13F468893BECE2CA9DFBF3118EFE2B0759BF01D2A6459AC99AE1A12023A92 DUP3 PUSH1 0x40 MLOAD PUSH2 0x11E7 SWAP2 SWAP1 PUSH2 0x124A JUMP JUMPDEST PUSH1 0x40 MLOAD DUP1 SWAP2 SUB SWAP1 LOG2 PUSH32 0xE5589756FEB14FA54053633B30D9DE8C8C4A3347AFC5BD6EFC411F7823AE87F2 DUP3 DUP3 PUSH1 0x40 MLOAD PUSH2 0x1220 SWAP3 SWAP2 SWAP1 PUSH2 0x1724 JUMP JUMPDEST PUSH1 0x40 MLOAD DUP1 SWAP2 SUB SWAP1 LOG1 POP POP JUMP JUMPDEST PUSH1 0x5 SLOAD DUP2 JUMP JUMPDEST PUSH0 DUP2 SWAP1 POP SWAP2 SWAP1 POP JUMP JUMPDEST PUSH2 0x1244 DUP2 PUSH2 0x1232 JUMP JUMPDEST DUP3 MSTORE POP POP JUMP JUMPDEST PUSH0 PUSH1 0x20 DUP3 ADD SWAP1 POP PUSH2 0x125D PUSH0 DUP4 ADD DUP5 PUSH2 0x123B JUMP JUMPDEST SWAP3 SWAP2 POP POP JUMP JUMPDEST PUSH0 DUP1 REVERT JUMPDEST PUSH0 DUP1 REVERT JUMPDEST PUSH0 DUP1 REVERT JUMPDEST PUSH0 DUP1 REVERT JUMPDEST PUSH0 DUP1 REVERT JUMPDEST PUSH0 DUP1 DUP4 PUSH1 0x1F DUP5 ADD SLT PUSH2 0x128C JUMPI PUSH2 0x128B PUSH2 0x126B JUMP JUMPDEST JUMPDEST DUP3 CALLDATALOAD SWAP1 POP PUSH8 0xFFFFFFFFFFFFFFFF DUP2 GT ISZERO PUSH2 0x12A9 JUMPI PUSH2 0x12A8 PUSH2 0x126F JUMP JUMPDEST JUMPDEST PUSH1 0x20 DUP4 ADD SWAP2 POP DUP4 PUSH1 0x20 DUP3 MUL DUP4 ADD GT ISZERO PUSH2 0x12C5 JUMPI PUSH2 0x12C4 PUSH2 0x1273 JUMP JUMPDEST JUMPDEST SWAP3 POP SWAP3 SWAP1 POP JUMP JUMPDEST PUSH0 DUP1 PUSH1 0x20 DUP4 DUP6 SUB SLT ISZERO PUSH2 0x12E2 JUMPI PUSH2 0x12E1 PUSH2 0x1263 JUMP JUMPDEST JUMPDEST PUSH0 DUP4 ADD CALLDATALOAD PUSH8 0xFFFFFFFFFFFFFFFF DUP2 GT ISZERO PUSH2 0x12FF JUMPI PUSH2 0x12FE PUSH2 0x1267 JUMP JUMPDEST JUMPDEST PUSH2 0x130B DUP6 DUP3 DUP7 ADD PUSH2 0x1277 JUMP JUMPDEST SWAP3 POP SWAP3 POP POP SWAP3 POP SWAP3 SWAP1 POP JUMP JUMPDEST PUSH0 PUSH20 0xFFFFFFFFFFFFFFFFFFFFFFFFFFFFFFFFFFFFFFFF DUP3 AND SWAP1 POP SWAP2 SWAP1 POP JUMP JUMPDEST PUSH0 PUSH2 0x1340 DUP3 PUSH2 0x1317 JUMP JUMPDEST SWAP1 POP SWAP2 SWAP1 POP JUMP JUMPDEST PUSH2 0x1350 DUP2 PUSH2 0x1336 JUMP JUMPDEST DUP3 MSTORE POP POP JUMP JUMPDEST PUSH0 PUSH1 0x20 DUP3 ADD SWAP1 POP PUSH2 0x1369 PUSH0 DUP4 ADD DUP5 PUSH2 0x1347 JUMP JUMPDEST SWAP3 SWAP2 POP POP JUMP JUMPDEST PUSH2 0x1378 DUP2 PUSH2 0x1336 JUMP JUMPDEST DUP2 EQ PUSH2 0x1382 JUMPI PUSH0 DUP1 REVERT JUMPDEST POP JUMP JUMPDEST PUSH0 DUP2 CALLDATALOAD SWAP1 POP PUSH2 0x1393 DUP2 PUSH2 0x136F JUMP JUMPDEST SWAP3 SWAP2 POP POP JUMP JUMPDEST PUSH0 PUSH1 0x20 DUP3 DUP5 SUB SLT ISZERO PUSH2 0x13AE JUMPI PUSH2 0x13AD PUSH2 0x1263 JUMP JUMPDEST JUMPDEST PUSH0 PUSH2 0x13BB DUP5 DUP3 DUP6 ADD PUSH2 0x1385 JUMP JUMPDEST SWAP2 POP POP SWAP3 SWAP2 POP POP JUMP JUMPDEST PUSH0 DUP2 ISZERO ISZERO SWAP1 POP SWAP2 SWAP1 POP JUMP JUMPDEST PUSH2 0x13D8 DUP2 PUSH2 0x13C4 JUMP JUMPDEST DUP3 MSTORE POP POP JUMP JUMPDEST PUSH0 PUSH1 0x80 DUP3 ADD SWAP1 POP PUSH2 0x13F1 PUSH0 DUP4 ADD DUP8 PUSH2 0x13CF JUMP JUMPDEST PUSH2 0x13FE PUSH1 0x20 DUP4 ADD DUP7 PUSH2 0x123B JUMP JUMPDEST PUSH2 0x140B PUSH1 0x40 DUP4 ADD DUP6 PUSH2 0x123B JUMP JUMPDEST PUSH2 0x1418 PUSH1 0x60 DUP4 ADD DUP5 PUSH2 0x123B JUMP JUMPDEST SWAP6 SWAP5 POP POP POP POP POP JUMP JUMPDEST PUSH0 PUSH1 0x20 DUP3 ADD SWAP1 POP PUSH2 0x1434 PUSH0 DUP4 ADD DUP5 PUSH2 0x13CF JUMP JUMPDEST SWAP3 SWAP2 POP POP JUMP JUMPDEST PUSH0 DUP3 DUP3 MSTORE PUSH1 0x20 DUP3 ADD SWAP1 POP SWAP3 SWAP2 POP POP JUMP JUMPDEST PUSH32 0x4F6E6C79206F776E65722063616E20676976652061776179204E465473000000 PUSH0 DUP3 ADD MSTORE POP JUMP JUMPDEST PUSH0 PUSH2 0x147E PUSH1 0x1D DUP4 PUSH2 0x143A JUMP JUMPDEST SWAP2 POP PUSH2 0x1489 DUP3 PUSH2 0x144A JUMP JUMPDEST PUSH1 0x20 DUP3 ADD SWAP1 POP SWAP2 SWAP1 POP JUMP JUMPDEST PUSH0 PUSH1 0x20 DUP3 ADD SWAP1 POP DUP2 DUP2 SUB PUSH0 DUP4 ADD MSTORE PUSH2 0x14AB DUP2 PUSH2 0x1472 JUMP JUMPDEST SWAP1 POP SWAP2 SWAP1 POP JUMP JUMPDEST PUSH32 0x4E487B7100000000000000000000000000000000000000000000000000000000 PUSH0 MSTORE PUSH1 0x11 PUSH1 0x4 MSTORE PUSH1 0x24 PUSH0 REVERT JUMPDEST PUSH0 PUSH2 0x14E9 DUP3 PUSH2 0x1232 JUMP JUMPDEST SWAP2 POP PUSH2 0x14F4 DUP4 PUSH2 0x1232 JUMP JUMPDEST SWAP3 POP DUP3 DUP3 ADD SWAP1 POP DUP1 DUP3 GT ISZERO PUSH2 0x150C JUMPI PUSH2 0x150B PUSH2 0x14B2 JUMP JUMPDEST JUMPDEST SWAP3 SWAP2 POP POP JUMP JUMPDEST PUSH32 0x4E6F7420656E6F756768204E4654732072656D61696E696E6700000000000000 PUSH0 DUP3 ADD MSTORE POP JUMP JUMPDEST PUSH0 PUSH2 0x1546 PUSH1 0x19 DUP4 PUSH2 0x143A JUMP JUMPDEST SWAP2 POP PUSH2 0x1551 DUP3 PUSH2 0x1512 JUMP JUMPDEST PUSH1 0x20 DUP3 ADD SWAP1 POP SWAP2 SWAP1 POP JUMP JUMPDEST PUSH0 PUSH1 0x20 DUP3 ADD SWAP1 POP DUP2 DUP2 SUB PUSH0 DUP4 ADD MSTORE PUSH2 0x1573 DUP2 PUSH2 0x153A JUMP JUMPDEST SWAP1 POP SWAP2 SWAP1 POP JUMP JUMPDEST PUSH32 0x4E487B7100000000000000000000000000000000000000000000000000000000 PUSH0 MSTORE PUSH1 0x32 PUSH1 0x4 MSTORE PUSH1 0x24 PUSH0 REVERT JUMPDEST PUSH32 0x4164647265737320616C726561647920726563656976656420616E204E465400 PUSH0 DUP3 ADD MSTORE POP JUMP JUMPDEST PUSH0 PUSH2 0x15DB PUSH1 0x1F DUP4 PUSH2 0x143A JUMP JUMPDEST SWAP2 POP PUSH2 0x15E6 DUP3 PUSH2 0x15A7 JUMP JUMPDEST PUSH1 0x20 DUP3 ADD SWAP1 POP SWAP2 SWAP1 POP JUMP JUMPDEST PUSH0 PUSH1 0x20 DUP3 ADD SWAP1 POP DUP2 DUP2 SUB PUSH0 DUP4 ADD MSTORE PUSH2 0x1608 DUP2 PUSH2 0x15CF JUMP JUMPDEST SWAP1 POP SWAP2 SWAP1 POP JUMP JUMPDEST PUSH0 PUSH2 0x1619 DUP3 PUSH2 0x1232 JUMP JUMPDEST SWAP2 POP PUSH32 0xFFFFFFFFFFFFFFFFFFFFFFFFFFFFFFFFFFFFFFFFFFFFFFFFFFFFFFFFFFFFFFFF DUP3 SUB PUSH2 0x164B JUMPI PUSH2 0x164A PUSH2 0x14B2 JUMP JUMPDEST JUMPDEST PUSH1 0x1 DUP3 ADD SWAP1 POP SWAP2 SWAP1 POP JUMP JUMPDEST PUSH32 0x6769766561776179000000000000000000000000000000000000000000000000 PUSH0 DUP3 ADD MSTORE POP JUMP JUMPDEST PUSH0 PUSH2 0x168A PUSH1 0x8 DUP4 PUSH2 0x143A JUMP JUMPDEST SWAP2 POP PUSH2 0x1695 DUP3 PUSH2 0x1656 JUMP JUMPDEST PUSH1 0x20 DUP3 ADD SWAP1 POP SWAP2 SWAP1 POP JUMP JUMPDEST PUSH0 PUSH1 0x60 DUP3 ADD SWAP1 POP DUP2 DUP2 SUB PUSH0 DUP4 ADD MSTORE PUSH2 0x16B7 DUP2 PUSH2 0x167E JUMP JUMPDEST SWAP1 POP PUSH2 0x16C6 PUSH1 0x20 DUP4 ADD DUP6 PUSH2 0x123B JUMP JUMPDEST PUSH2 0x16D3 PUSH1 0x40 DUP4 ADD DUP5 PUSH2 0x123B JUMP JUMPDEST SWAP4 SWAP3 POP POP POP JUMP JUMPDEST PUSH32 0x476976656177617920636F6D706C657465640000000000000000000000000000 PUSH0 DUP3 ADD MSTORE POP JUMP JUMPDEST PUSH0 PUSH2 0x170E PUSH1 0x12 DUP4 PUSH2 0x143A JUMP JUMPDEST SWAP2 POP PUSH2 0x1719 DUP3 PUSH2 0x16DA JUMP JUMPDEST PUSH1 0x20 DUP3 ADD SWAP1 POP SWAP2 SWAP1 POP JUMP JUMPDEST PUSH0 PUSH1 0x60 DUP3 ADD SWAP1 POP DUP2 DUP2 SUB PUSH0 DUP4 ADD MSTORE PUSH2 0x173B DUP2 PUSH2 0x1702 JUMP JUMPDEST SWAP1 POP PUSH2 0x174A PUSH1 0x20 DUP4 ADD DUP6 PUSH2 0x1347 JUMP JUMPDEST PUSH2 0x1757 PUSH1 0x40 DUP4 ADD DUP5 PUSH2 0x123B JUMP JUMPDEST SWAP4 SWAP3 POP POP POP JUMP JUMPDEST PUSH32 0x5075726368617365207374617274656400000000000000000000000000000000 PUSH0 DUP3 ADD MSTORE POP JUMP JUMPDEST PUSH0 PUSH2 0x1792 PUSH1 0x10 DUP4 PUSH2 0x143A JUMP JUMPDEST SWAP2 POP PUSH2 0x179D DUP3 PUSH2 0x175E JUMP JUMPDEST PUSH1 0x20 DUP3 ADD SWAP1 POP SWAP2 SWAP1 POP JUMP JUMPDEST PUSH0 PUSH1 0x60 DUP3 ADD SWAP1 POP DUP2 DUP2 SUB PUSH0 DUP4 ADD MSTORE PUSH2 0x17BF DUP2 PUSH2 0x1786 JUMP JUMPDEST SWAP1 POP PUSH2 0x17CE PUSH1 0x20 DUP4 ADD DUP6 PUSH2 0x1347 JUMP JUMPDEST PUSH2 0x17DB PUSH1 0x40 DUP4 ADD DUP5 PUSH2 0x123B JUMP JUMPDEST SWAP4 SWAP3 POP POP POP JUMP JUMPDEST PUSH32 0x436865636B696E67207061796D656E7400000000000000000000000000000000 PUSH0 DUP3 ADD MSTORE POP JUMP JUMPDEST PUSH0 PUSH2 0x1816 PUSH1 0x10 DUP4 PUSH2 0x143A JUMP JUMPDEST SWAP2 POP PUSH2 0x1821 DUP3 PUSH2 0x17E2 JUMP JUMPDEST PUSH1 0x20 DUP3 ADD SWAP1 POP SWAP2 SWAP1 POP JUMP JUMPDEST PUSH0 PUSH1 0x60 DUP3 ADD SWAP1 POP DUP2 DUP2 SUB PUSH0 DUP4 ADD MSTORE PUSH2 0x1843 DUP2 PUSH2 0x180A JUMP JUMPDEST SWAP1 POP PUSH2 0x1852 PUSH1 0x20 DUP4 ADD DUP6 PUSH2 0x1347 JUMP JUMPDEST PUSH2 0x185F PUSH1 0x40 DUP4 ADD DUP5 PUSH2 0x123B JUMP JUMPDEST SWAP4 SWAP3 POP POP POP JUMP JUMPDEST PUSH32 0x496E636F7272656374207061796D656E7420616D6F756E740000000000000000 PUSH0 DUP3 ADD MSTORE POP JUMP JUMPDEST PUSH0 PUSH2 0x189A PUSH1 0x18 DUP4 PUSH2 0x143A JUMP JUMPDEST SWAP2 POP PUSH2 0x18A5 DUP3 PUSH2 0x1866 JUMP JUMPDEST PUSH1 0x20 DUP3 ADD SWAP1 POP SWAP2 SWAP1 POP JUMP JUMPDEST PUSH0 PUSH1 0x20 DUP3 ADD SWAP1 POP DUP2 DUP2 SUB PUSH0 DUP4 ADD MSTORE PUSH2 0x18C7 DUP2 PUSH2 0x188E JUMP JUMPDEST SWAP1 POP SWAP2 SWAP1 POP JUMP JUMPDEST PUSH32 0x5061796D656E742076616C69646174696F6E0000000000000000000000000000 PUSH0 DUP3 ADD MSTORE POP JUMP JUMPDEST PUSH0 PUSH2 0x1902 PUSH1 0x12 DUP4 PUSH2 0x143A JUMP JUMPDEST SWAP2 POP PUSH2 0x190D DUP3 PUSH2 0x18CE JUMP JUMPDEST PUSH1 0x20 DUP3 ADD SWAP1 POP SWAP2 SWAP1 POP JUMP JUMPDEST PUSH0 PUSH1 0x80 DUP3 ADD SWAP1 POP DUP2 DUP2 SUB PUSH0 DUP4 ADD MSTORE PUSH2 0x192F DUP2 PUSH2 0x18F6 JUMP JUMPDEST SWAP1 POP PUSH2 0x193E PUSH1 0x20 DUP4 ADD DUP7 PUSH2 0x1347 JUMP JUMPDEST PUSH2 0x194B PUSH1 0x40 DUP4 ADD DUP6 PUSH2 0x1347 JUMP JUMPDEST PUSH2 0x1958 PUSH1 0x60 DUP4 ADD DUP5 PUSH2 0x123B JUMP JUMPDEST SWAP5 SWAP4 POP POP POP POP JUMP JUMPDEST PUSH32 0x436865636B696E6720737570706C790000000000000000000000000000000000 PUSH0 DUP3 ADD MSTORE POP JUMP JUMPDEST PUSH0 PUSH2 0x1994 PUSH1 0xF DUP4 PUSH2 0x143A JUMP JUMPDEST SWAP2 POP PUSH2 0x199F DUP3 PUSH2 0x1960 JUMP JUMPDEST PUSH1 0x20 DUP3 ADD SWAP1 POP SWAP2 SWAP1 POP JUMP JUMPDEST PUSH0 PUSH1 0x60 DUP3 ADD SWAP1 POP DUP2 DUP2 SUB PUSH0 DUP4 ADD MSTORE PUSH2 0x19C1 DUP2 PUSH2 0x1988 JUMP JUMPDEST SWAP1 POP PUSH2 0x19D0 PUSH1 0x20 DUP4 ADD DUP6 PUSH2 0x1347 JUMP JUMPDEST PUSH2 0x19DD PUSH1 0x40 DUP4 ADD DUP5 PUSH2 0x123B JUMP JUMPDEST SWAP4 SWAP3 POP POP POP JUMP JUMPDEST PUSH32 0x416C6C204E46547320736F6C64206F7574000000000000000000000000000000 PUSH0 DUP3 ADD MSTORE POP JUMP JUMPDEST PUSH0 PUSH2 0x1A18 PUSH1 0x11 DUP4 PUSH2 0x143A JUMP JUMPDEST SWAP2 POP PUSH2 0x1A23 DUP3 PUSH2 0x19E4 JUMP JUMPDEST PUSH1 0x20 DUP3 ADD SWAP1 POP SWAP2 SWAP1 POP JUMP JUMPDEST PUSH0 PUSH1 0x20 DUP3 ADD SWAP1 POP DUP2 DUP2 SUB PUSH0 DUP4 ADD MSTORE PUSH2 0x1A45 DUP2 PUSH2 0x1A0C JUMP JUMPDEST SWAP1 POP SWAP2 SWAP1 POP JUMP JUMPDEST PUSH32 0x436865636B696E672070726576696F7573207075726368617365000000000000 PUSH0 DUP3 ADD MSTORE POP JUMP JUMPDEST PUSH0 PUSH2 0x1A80 PUSH1 0x1A DUP4 PUSH2 0x143A JUMP JUMPDEST SWAP2 POP PUSH2 0x1A8B DUP3 PUSH2 0x1A4C JUMP JUMPDEST PUSH1 0x20 DUP3 ADD SWAP1 POP SWAP2 SWAP1 POP JUMP JUMPDEST PUSH0 PUSH1 0xFF DUP3 AND SWAP1 POP SWAP2 SWAP1 POP JUMP JUMPDEST PUSH0 DUP2 SWAP1 POP SWAP2 SWAP1 POP JUMP JUMPDEST PUSH0 PUSH2 0x1AC5 PUSH2 0x1AC0 PUSH2 0x1ABB DUP5 PUSH2 0x1A96 JUMP JUMPDEST PUSH2 0x1AA2 JUMP JUMPDEST PUSH2 0x1232 JUMP JUMPDEST SWAP1 POP SWAP2 SWAP1 POP JUMP JUMPDEST PUSH2 0x1AD5 DUP2 PUSH2 0x1AAB JUMP JUMPDEST DUP3 MSTORE POP POP JUMP JUMPDEST PUSH0 PUSH1 0x60 DUP3 ADD SWAP1 POP DUP2 DUP2 SUB PUSH0 DUP4 ADD MSTORE PUSH2 0x1AF2 DUP2 PUSH2 0x1A74 JUMP JUMPDEST SWAP1 POP PUSH2 0x1B01 PUSH1 0x20 DUP4 ADD DUP6 PUSH2 0x1347 JUMP JUMPDEST PUSH2 0x1B0E PUSH1 0x40 DUP4 ADD DUP5 PUSH2 0x1ACC JUMP JUMPDEST SWAP4 SWAP3 POP POP POP JUMP JUMPDEST PUSH32 0x416C726561647920707572636861736564000000000000000000000000000000 PUSH0 DUP3 ADD MSTORE POP JUMP JUMPDEST PUSH0 PUSH2 0x1B49 PUSH1 0x11 DUP4 PUSH2 0x143A JUMP JUMPDEST SWAP2 POP PUSH2 0x1B54 DUP3 PUSH2 0x1B15 JUMP JUMPDEST PUSH1 0x20 DUP3 ADD SWAP1 POP SWAP2 SWAP1 POP JUMP JUMPDEST PUSH0 PUSH1 0x20 DUP3 ADD SWAP1 POP DUP2 DUP2 SUB PUSH0 DUP4 ADD MSTORE PUSH2 0x1B76 DUP2 PUSH2 0x1B3D JUMP JUMPDEST SWAP1 POP SWAP2 SWAP1 POP JUMP JUMPDEST PUSH32 0x436865636B696E6720746F6B656E204944000000000000000000000000000000 PUSH0 DUP3 ADD MSTORE POP JUMP JUMPDEST PUSH0 PUSH2 0x1BB1 PUSH1 0x11 DUP4 PUSH2 0x143A JUMP JUMPDEST SWAP2 POP PUSH2 0x1BBC DUP3 PUSH2 0x1B7D JUMP JUMPDEST PUSH1 0x20 DUP3 ADD SWAP1 POP SWAP2 SWAP1 POP JUMP JUMPDEST PUSH0 PUSH1 0x60 DUP3 ADD SWAP1 POP DUP2 DUP2 SUB PUSH0 DUP4 ADD MSTORE PUSH2 0x1BDE DUP2 PUSH2 0x1BA5 JUMP JUMPDEST SWAP1 POP PUSH2 0x1BED PUSH1 0x20 DUP4 ADD DUP6 PUSH2 0x1347 JUMP JUMPDEST PUSH2 0x1BFA PUSH1 0x40 DUP4 ADD DUP5 PUSH2 0x123B JUMP JUMPDEST SWAP4 SWAP3 POP POP POP JUMP JUMPDEST PUSH32 0x4E6F206D6F7265204E46547320617661696C61626C6500000000000000000000 PUSH0 DUP3 ADD MSTORE POP JUMP JUMPDEST PUSH0 PUSH2 0x1C35 PUSH1 0x16 DUP4 PUSH2 0x143A JUMP JUMPDEST SWAP2 POP PUSH2 0x1C40 DUP3 PUSH2 0x1C01 JUMP JUMPDEST PUSH1 0x20 DUP3 ADD SWAP1 POP SWAP2 SWAP1 POP JUMP JUMPDEST PUSH0 PUSH1 0x20 DUP3 ADD SWAP1 POP DUP2 DUP2 SUB PUSH0 DUP4 ADD MSTORE PUSH2 0x1C62 DUP2 PUSH2 0x1C29 JUMP JUMPDEST SWAP1 POP SWAP2 SWAP1 POP JUMP JUMPDEST PUSH32 0x5265636F7264696E672070757263686173650000000000000000000000000000 PUSH0 DUP3 ADD MSTORE POP JUMP JUMPDEST PUSH0 PUSH2 0x1C9D PUSH1 0x12 DUP4 PUSH2 0x143A JUMP JUMPDEST SWAP2 POP PUSH2 0x1CA8 DUP3 PUSH2 0x1C69 JUMP JUMPDEST PUSH1 0x20 DUP3 ADD SWAP1 POP SWAP2 SWAP1 POP JUMP JUMPDEST PUSH0 PUSH1 0x60 DUP3 ADD SWAP1 POP DUP2 DUP2 SUB PUSH0 DUP4 ADD MSTORE PUSH2 0x1CCA DUP2 PUSH2 0x1C91 JUMP JUMPDEST SWAP1 POP PUSH2 0x1CD9 PUSH1 0x20 DUP4 ADD DUP6 PUSH2 0x1347 JUMP JUMPDEST PUSH2 0x1CE6 PUSH1 0x40 DUP4 ADD DUP5 PUSH2 0x123B JUMP JUMPDEST SWAP4 SWAP3 POP POP POP JUMP JUMPDEST PUSH32 0x7075726368617365000000000000000000000000000000000000000000000000 PUSH0 DUP3 ADD MSTORE POP JUMP JUMPDEST PUSH0 PUSH2 0x1D21 PUSH1 0x8 DUP4 PUSH2 0x143A JUMP JUMPDEST SWAP2 POP PUSH2 0x1D2C DUP3 PUSH2 0x1CED JUMP JUMPDEST PUSH1 0x20 DUP3 ADD SWAP1 POP SWAP2 SWAP1 POP JUMP JUMPDEST PUSH0 PUSH1 0x60 DUP3 ADD SWAP1 POP DUP2 DUP2 SUB PUSH0 DUP4 ADD MSTORE PUSH2 0x1D4E DUP2 PUSH2 0x1D15 JUMP JUMPDEST SWAP1 POP PUSH2 0x1D5D PUSH1 0x20 DUP4 ADD DUP6 PUSH2 0x123B JUMP JUMPDEST PUSH2 0x1D6A PUSH1 0x40 DUP4 ADD DUP5 PUSH2 0x123B JUMP JUMPDEST SWAP4 SWAP3 POP POP POP JUMP JUMPDEST PUSH0 PUSH1 0x40 DUP3 ADD SWAP1 POP PUSH2 0x1D84 PUSH0 DUP4 ADD DUP6 PUSH2 0x1347 JUMP JUMPDEST PUSH2 0x1D91 PUSH1 0x20 DUP4 ADD DUP5 PUSH2 0x123B JUMP JUMPDEST SWAP4 SWAP3 POP POP POP JUMP JUMPDEST PUSH32 0x466F7277617264696E67207061796D656E740000000000000000000000000000 PUSH0 DUP3 ADD MSTORE POP JUMP JUMPDEST PUSH0 PUSH2 0x1DCC PUSH1 0x12 DUP4 PUSH2 0x143A JUMP JUMPDEST SWAP2 POP PUSH2 0x1DD7 DUP3 PUSH2 0x1D98 JUMP JUMPDEST PUSH1 0x20 DUP3 ADD SWAP1 POP SWAP2 SWAP1 POP JUMP JUMPDEST PUSH0 PUSH1 0x80 DUP3 ADD SWAP1 POP DUP2 DUP2 SUB PUSH0 DUP4 ADD MSTORE PUSH2 0x1DF9 DUP2 PUSH2 0x1DC0 JUMP JUMPDEST SWAP1 POP PUSH2 0x1E08 PUSH1 0x20 DUP4 ADD DUP7 PUSH2 0x1347 JUMP JUMPDEST PUSH2 0x1E15 PUSH1 0x40 DUP4 ADD DUP6 PUSH2 0x1347 JUMP JUMPDEST PUSH2 0x1E22 PUSH1 0x60 DUP4 ADD DUP5 PUSH2 0x123B JUMP JUMPDEST SWAP5 SWAP4 POP POP POP POP JUMP JUMPDEST PUSH32 0x507572636861736520636F6D706C657465640000000000000000000000000000 PUSH0 DUP3 ADD MSTORE POP JUMP JUMPDEST PUSH0 PUSH2 0x1E5E PUSH1 0x12 DUP4 PUSH2 0x143A JUMP JUMPDEST SWAP2 POP PUSH2 0x1E69 DUP3 PUSH2 0x1E2A JUMP JUMPDEST PUSH1 0x20 DUP3 ADD SWAP1 POP SWAP2 SWAP1 POP JUMP JUMPDEST PUSH0 PUSH1 0x60 DUP3 ADD SWAP1 POP DUP2 DUP2 SUB PUSH0 DUP4 ADD MSTORE PUSH2 0x1E8B DUP2 PUSH2 0x1E52 JUMP JUMPDEST SWAP1 POP PUSH2 0x1E9A PUSH1 0x20 DUP4 ADD DUP6 PUSH2 0x1347 JUMP JUMPDEST PUSH2 0x1EA7 PUSH1 0x40 DUP4 ADD DUP5 PUSH2 0x123B JUMP JUMPDEST SWAP4 SWAP3 POP POP POP JUMP JUMPDEST PUSH0 PUSH2 0x1EB8 DUP3 PUSH2 0x1232 JUMP JUMPDEST SWAP2 POP PUSH2 0x1EC3 DUP4 PUSH2 0x1232 JUMP JUMPDEST SWAP3 POP DUP3 DUP3 SUB SWAP1 POP DUP2 DUP2 GT ISZERO PUSH2 0x1EDB JUMPI PUSH2 0x1EDA PUSH2 0x14B2 JUMP JUMPDEST JUMPDEST SWAP3 SWAP2 POP POP JUMP JUMPDEST PUSH32 0x4F6E6C79206F776E65722063616E207265736574000000000000000000000000 PUSH0 DUP3 ADD MSTORE POP JUMP JUMPDEST PUSH0 PUSH2 0x1F15 PUSH1 0x14 DUP4 PUSH2 0x143A JUMP JUMPDEST SWAP2 POP PUSH2 0x1F20 DUP3 PUSH2 0x1EE1 JUMP JUMPDEST PUSH1 0x20 DUP3 ADD SWAP1 POP SWAP2 SWAP1 POP JUMP JUMPDEST PUSH0 PUSH1 0x20 DUP3 ADD SWAP1 POP DUP2 DUP2 SUB PUSH0 DUP4 ADD MSTORE PUSH2 0x1F42 DUP2 PUSH2 0x1F09 JUMP JUMPDEST SWAP1 POP SWAP2 SWAP1 POP JUMP JUMPDEST PUSH32 0x436F6E7472616374207265736574000000000000000000000000000000000000 PUSH0 DUP3 ADD MSTORE POP JUMP JUMPDEST PUSH0 PUSH2 0x1F7D PUSH1 0xE DUP4 PUSH2 0x143A JUMP JUMPDEST SWAP2 POP PUSH2 0x1F88 DUP3 PUSH2 0x1F49 JUMP JUMPDEST PUSH1 0x20 DUP3 ADD SWAP1 POP SWAP2 SWAP1 POP JUMP JUMPDEST PUSH0 PUSH1 0x60 DUP3 ADD SWAP1 POP DUP2 DUP2 SUB PUSH0 DUP4 ADD MSTORE PUSH2 0x1FAA DUP2 PUSH2 0x1F71 JUMP JUMPDEST SWAP1 POP PUSH2 0x1FB9 PUSH1 0x20 DUP4 ADD DUP6 PUSH2 0x1347 JUMP JUMPDEST PUSH2 0x1FC6 PUSH1 0x40 DUP4 ADD DUP5 PUSH2 0x123B JUMP JUMPDEST SWAP4 SWAP3 POP POP POP JUMP JUMPDEST PUSH32 0x7265736574000000000000000000000000000000000000000000000000000000 PUSH0 DUP3 ADD MSTORE POP JUMP JUMPDEST PUSH0 PUSH2 0x2001 PUSH1 0x5 DUP4 PUSH2 0x143A JUMP JUMPDEST SWAP2 POP PUSH2 0x200C DUP3 PUSH2 0x1FCD JUMP JUMPDEST PUSH1 0x20 DUP3 ADD SWAP1 POP SWAP2 SWAP1 POP JUMP JUMPDEST PUSH0 PUSH1 0x60 DUP3 ADD SWAP1 POP DUP2 DUP2 SUB PUSH0 DUP4 ADD MSTORE PUSH2 0x202E DUP2 PUSH2 0x1FF5 JUMP JUMPDEST SWAP1 POP PUSH2 0x203D PUSH1 0x20 DUP4 ADD DUP6 PUSH2 0x123B JUMP JUMPDEST PUSH2 0x204A PUSH1 0x40 DUP4 ADD DUP5 PUSH2 0x123B JUMP JUMPDEST SWAP4 SWAP3 POP POP POP JUMP INVALID LOG2 PUSH5 0x6970667358 0x22 SLT KECCAK256 0x2A 0xC9 0xB1 DUP13 SWAP14 0xB2 SWAP8 0xC8 RETURNDATASIZE ADDMOD 0xE7 0xDF PUSH1 0xAC 0xA6 SWAP5 0xE0 AND PUSH28 0xF4636372296705630711A6970A64736F6C634300081A003300000000 "
		},
		"gasEstimates": {
			"creation": {
				"codeDepositCost": "1665400",
				"executionCost": "infinite",
				"totalCost": "infinite"
			},
			"external": {
				"PRICE_INCREASE()": "392",
				"batchGiveawayNFTs(address[])": "infinite",
				"currentTokenId()": "2449",
				"getPurchaseState(address)": "infinite",
				"giveawayNFT(address)": "infinite",
				"hasPurchased(address)": "2856",
				"maxSupply()": "2469",
				"owner()": "2594",
				"price()": "2492",
				"purchaseNFT()": "infinite",
				"resetContract()": "infinite",
				"soldSupply()": "2513",
				"tokenAddress()": "2553",
				"treasury()": "2531"
			},
			"internal": {
				"updatePrice()": "infinite"
			}
		},
		"methodIdentifiers": {
			"PRICE_INCREASE()": "799b6d2b",
			"batchGiveawayNFTs(address[])": "3548bfb5",
			"currentTokenId()": "009a9b7b",
			"getPurchaseState(address)": "6b958125",
			"giveawayNFT(address)": "e10577a8",
			"hasPurchased(address)": "90118fb4",
			"maxSupply()": "d5abeb01",
			"owner()": "8da5cb5b",
			"price()": "a035b1fe",
			"purchaseNFT()": "613b4d32",
			"resetContract()": "b181a8fc",
			"soldSupply()": "fa2299ee",
			"tokenAddress()": "9d76ea58",
			"treasury()": "61d027b3"
		}
	},
	"abi": [
		{
			"inputs": [
				{
					"internalType": "address",
					"name": "_tokenAddress",
					"type": "address"
				},
				{
					"internalType": "address",
					"name": "_treasury",
					"type": "address"
				}
			],
			"stateMutability": "nonpayable",
			"type": "constructor"
		},
		{
			"anonymous": false,
			"inputs": [
				{
					"indexed": true,
					"internalType": "address",
					"name": "owner",
					"type": "address"
				},
				{
					"indexed": false,
					"internalType": "uint256",
					"name": "timestamp",
					"type": "uint256"
				}
			],
			"name": "ContractReset",
			"type": "event"
		},
		{
			"anonymous": false,
			"inputs": [
				{
					"indexed": false,
					"internalType": "string",
					"name": "message",
					"type": "string"
				},
				{
					"indexed": false,
					"internalType": "address",
					"name": "sender",
					"type": "address"
				},
				{
					"indexed": false,
					"internalType": "uint256",
					"name": "value",
					"type": "uint256"
				}
			],
			"name": "Debug",
			"type": "event"
		},
		{
			"anonymous": false,
			"inputs": [
				{
					"indexed": true,
					"internalType": "address",
					"name": "recipient",
					"type": "address"
				},
				{
					"indexed": false,
					"internalType": "uint256",
					"name": "serialNumber",
					"type": "uint256"
				}
			],
			"name": "NFTGivenAway",
			"type": "event"
		},
		{
			"anonymous": false,
			"inputs": [
				{
					"indexed": true,
					"internalType": "address",
					"name": "buyer",
					"type": "address"
				},
				{
					"indexed": false,
					"internalType": "uint256",
					"name": "serialNumber",
					"type": "uint256"
				}
			],
			"name": "NFTSold",
			"type": "event"
		},
		{
			"anonymous": false,
			"inputs": [
				{
					"indexed": false,
					"internalType": "string",
					"name": "message",
					"type": "string"
				},
				{
					"indexed": false,
					"internalType": "address",
					"name": "from",
					"type": "address"
				},
				{
					"indexed": false,
					"internalType": "address",
					"name": "to",
					"type": "address"
				},
				{
					"indexed": false,
					"internalType": "uint256",
					"name": "amount",
					"type": "uint256"
				}
			],
			"name": "PaymentDebug",
			"type": "event"
		},
		{
			"anonymous": false,
			"inputs": [
				{
					"indexed": false,
					"internalType": "address",
					"name": "to",
					"type": "address"
				},
				{
					"indexed": false,
					"internalType": "uint256",
					"name": "amount",
					"type": "uint256"
				}
			],
			"name": "PaymentForwarded",
			"type": "event"
		},
		{
			"anonymous": false,
			"inputs": [
				{
					"indexed": false,
					"internalType": "address",
					"name": "from",
					"type": "address"
				},
				{
					"indexed": false,
					"internalType": "uint256",
					"name": "amount",
					"type": "uint256"
				}
			],
			"name": "PaymentReceived",
			"type": "event"
		},
		{
			"anonymous": false,
			"inputs": [
				{
					"indexed": false,
					"internalType": "uint256",
					"name": "oldPrice",
					"type": "uint256"
				},
				{
					"indexed": false,
					"internalType": "uint256",
					"name": "newPrice",
					"type": "uint256"
				}
			],
			"name": "PriceUpdated",
			"type": "event"
		},
		{
			"anonymous": false,
			"inputs": [
				{
					"indexed": false,
					"internalType": "address",
					"name": "buyer",
					"type": "address"
				},
				{
					"indexed": false,
					"internalType": "uint256",
					"name": "value",
					"type": "uint256"
				}
			],
			"name": "PurchaseInitiated",
			"type": "event"
		},
		{
			"anonymous": false,
			"inputs": [
				{
					"indexed": false,
					"internalType": "string",
					"name": "operation",
					"type": "string"
				},
				{
					"indexed": false,
					"internalType": "uint256",
					"name": "tokenId",
					"type": "uint256"
				},
				{
					"indexed": false,
					"internalType": "uint256",
					"name": "newSoldSupply",
					"type": "uint256"
				}
			],
			"name": "StateChange",
			"type": "event"
		},
		{
			"inputs": [],
			"name": "PRICE_INCREASE",
			"outputs": [
				{
					"internalType": "uint256",
					"name": "",
					"type": "uint256"
				}
			],
			"stateMutability": "view",
			"type": "function"
		},
		{
			"inputs": [
				{
					"internalType": "address[]",
					"name": "recipients",
					"type": "address[]"
				}
			],
			"name": "batchGiveawayNFTs",
			"outputs": [],
			"stateMutability": "nonpayable",
			"type": "function"
		},
		{
			"inputs": [],
			"name": "currentTokenId",
			"outputs": [
				{
					"internalType": "uint256",
					"name": "",
					"type": "uint256"
				}
			],
			"stateMutability": "view",
			"type": "function"
		},
		{
			"inputs": [
				{
					"internalType": "address",
					"name": "buyer",
					"type": "address"
				}
			],
			"name": "getPurchaseState",
			"outputs": [
				{
					"internalType": "bool",
					"name": "purchased",
					"type": "bool"
				},
				{
					"internalType": "uint256",
					"name": "nextToken",
					"type": "uint256"
				},
				{
					"internalType": "uint256",
					"name": "remaining",
					"type": "uint256"
				},
				{
					"internalType": "uint256",
					"name": "currentPrice",
					"type": "uint256"
				}
			],
			"stateMutability": "view",
			"type": "function"
		},
		{
			"inputs": [
				{
					"internalType": "address",
					"name": "recipient",
					"type": "address"
				}
			],
			"name": "giveawayNFT",
			"outputs": [],
			"stateMutability": "nonpayable",
			"type": "function"
		},
		{
			"inputs": [
				{
					"internalType": "address",
					"name": "",
					"type": "address"
				}
			],
			"name": "hasPurchased",
			"outputs": [
				{
					"internalType": "bool",
					"name": "",
					"type": "bool"
				}
			],
			"stateMutability": "view",
			"type": "function"
		},
		{
			"inputs": [],
			"name": "maxSupply",
			"outputs": [
				{
					"internalType": "uint256",
					"name": "",
					"type": "uint256"
				}
			],
			"stateMutability": "view",
			"type": "function"
		},
		{
			"inputs": [],
			"name": "owner",
			"outputs": [
				{
					"internalType": "address",
					"name": "",
					"type": "address"
				}
			],
			"stateMutability": "view",
			"type": "function"
		},
		{
			"inputs": [],
			"name": "price",
			"outputs": [
				{
					"internalType": "uint256",
					"name": "",
					"type": "uint256"
				}
			],
			"stateMutability": "view",
			"type": "function"
		},
		{
			"inputs": [],
			"name": "purchaseNFT",
			"outputs": [],
			"stateMutability": "payable",
			"type": "function"
		},
		{
			"inputs": [],
			"name": "resetContract",
			"outputs": [],
			"stateMutability": "nonpayable",
			"type": "function"
		},
		{
			"inputs": [],
			"name": "soldSupply",
			"outputs": [
				{
					"internalType": "uint256",
					"name": "",
					"type": "uint256"
				}
			],
			"stateMutability": "view",
			"type": "function"
		},
		{
			"inputs": [],
			"name": "tokenAddress",
			"outputs": [
				{
					"internalType": "address",
					"name": "",
					"type": "address"
				}
			],
			"stateMutability": "view",
			"type": "function"
		},
		{
			"inputs": [],
			"name": "treasury",
			"outputs": [
				{
					"internalType": "address",
					"name": "",
					"type": "address"
				}
			],
			"stateMutability": "view",
			"type": "function"
		}
	]
}