{
	"data": {
		"bytecode": {
			"linkReferences": {},
			"object": "608060405234801561000f575f80fd5b5060405161373638038061373683398181016040528101906100319190610114565b805f806101000a81548173ffffffffffffffffffffffffffffffffffffffff021916908373ffffffffffffffffffffffffffffffffffffffff1602179055508060025f6101000a81548173ffffffffffffffffffffffffffffffffffffffff021916908373ffffffffffffffffffffffffffffffffffffffff1602179055505061013f565b5f80fd5b5f73ffffffffffffffffffffffffffffffffffffffff82169050919050565b5f6100e3826100ba565b9050919050565b6100f3816100d9565b81146100fd575f80fd5b50565b5f8151905061010e816100ea565b92915050565b5f60208284031215610129576101286100b6565b5b5f61013684828501610100565b91505092915050565b6135ea8061014c5f395ff3fe6080604052600436106100a6575f3560e01c80639d1b464a116100635780639d1b464a146101e4578063a42dce801461020e578063a525ad3c14610236578063b5fa3dbd14610260578063c415b95c14610288578063d3c0eac3146102b2576100a6565b8063552f9a8f146100aa5780636cc3eb68146100d257806388a95e61146101145780638da5cb5b1461013c5780639286eddb1461016657806399a5d747146101a8575b5f80fd5b3480156100b5575f80fd5b506100d060048036038101906100cb9190611ac7565b6102ce565b005b3480156100dd575f80fd5b506100f860048036038101906100f39190611ac7565b6103ad565b60405161010b9796959493929190611bdf565b60405180910390f35b34801561011f575f80fd5b5061013a60048036038101906101359190611ca7565b610543565b005b348015610147575f80fd5b5061015061064f565b60405161015d9190611ce5565b60405180910390f35b348015610171575f80fd5b5061018c60048036038101906101879190611ac7565b610672565b60405161019f9796959493929190611bdf565b60405180910390f35b3480156101b3575f80fd5b506101ce60048036038101906101c99190611cfe565b610779565b6040516101db9190611d29565b60405180910390f35b3480156101ef575f80fd5b506101f861079b565b6040516102059190611d29565b60405180910390f35b348015610219575f80fd5b50610234600480360381019061022f9190611d42565b6107a1565b005b348015610241575f80fd5b5061024a6108df565b6040516102579190611d29565b60405180910390f35b34801561026b575f80fd5b5061028660048036038101906102819190611d6d565b6108e4565b005b348015610293575f80fd5b5061029c610dee565b6040516102a99190611ce5565b60405180910390f35b6102cc60048036038101906102c79190611eb0565b610e13565b005b6003816040516102de9190611f8e565b90815260200160405180910390206006015f9054906101000a900460ff1661033b576040517f08c379a000000000000000000000000000000000000000000000000000000000815260040161033290611fee565b60405180910390fd5b5f60038260405161034c9190611f8e565b90815260200160405180910390206006015f6101000a81548160ff0219169083151502179055507f81a7424122bfc6c777b03ba3e559003333e926b901ec6669fdecf699d354f809816040516103a2919061200c565b60405180910390a150565b5f8060605f805f805f6003896040516103c69190611f8e565b90815260200160405180910390206040518060e00160405290815f82015481526020016001820154815260200160028201805461040290612059565b80601f016020809104026020016040519081016040528092919081815260200182805461042e90612059565b80156104795780601f1061045057610100808354040283529160200191610479565b820191905f5260205f20905b81548152906001019060200180831161045c57829003601f168201915b50505050508152602001600382015f9054906101000a900473ffffffffffffffffffffffffffffffffffffffff1673ffffffffffffffffffffffffffffffffffffffff1673ffffffffffffffffffffffffffffffffffffffff1681526020016004820154815260200160058201548152602001600682015f9054906101000a900460ff1615151515815250509050805f015181602001518260400151836060015184608001518560a001518660c00151975097509750975097509750975050919395979092949650565b5f61016773ffffffffffffffffffffffffffffffffffffffff1663204d207c843062159398866040518563ffffffff1660e01b81526004016105889493929190612089565b6020604051808303815f875af11580156105a4573d5f803e3d5ffd5b505050506040513d601f19601f820116820180604052508101906105c89190612102565b90507f81f3d08d09140e96158a86596b336e623b98d305c5c7b7f2dbe9546eaebcd5d78383836040516105fd93929190612186565b60405180910390a15f8160070b1461064a576040517f08c379a000000000000000000000000000000000000000000000000000000000815260040161064190612218565b60405180910390fd5b505050565b5f8054906101000a900473ffffffffffffffffffffffffffffffffffffffff1681565b6003818051602081018201805184825260208301602085012081835280955050505050505f91509050805f0154908060010154908060020180546106b590612059565b80601f01602080910402602001604051908101604052809291908181526020018280546106e190612059565b801561072c5780601f106107035761010080835404028352916020019161072c565b820191905f5260205f20905b81548152906001019060200180831161070f57829003601f168201915b505050505090806003015f9054906101000a900473ffffffffffffffffffffffffffffffffffffffff1690806004015490806005015490806006015f9054906101000a900460ff16905087565b5f61271060088361078a9190612263565b61079491906122d1565b9050919050565b60015481565b5f8054906101000a900473ffffffffffffffffffffffffffffffffffffffff1673ffffffffffffffffffffffffffffffffffffffff163373ffffffffffffffffffffffffffffffffffffffff161461082e576040517f08c379a000000000000000000000000000000000000000000000000000000000815260040161082590612371565b60405180910390fd5b5f73ffffffffffffffffffffffffffffffffffffffff168173ffffffffffffffffffffffffffffffffffffffff160361089c576040517f08c379a0000000000000000000000000000000000000000000000000000000008152600401610893906123d9565b60405180910390fd5b8060025f6101000a81548173ffffffffffffffffffffffffffffffffffffffff021916908373ffffffffffffffffffffffffffffffffffffffff16021790555050565b600881565b5f861180156108f557506127108611155b610934576040517f08c379a000000000000000000000000000000000000000000000000000000000815260040161092b90612467565b60405180910390fd5b5f8511801561094557506127108511155b610984576040517f08c379a000000000000000000000000000000000000000000000000000000000815260040161097b906124f5565b60405180910390fd5b5f82116109c6576040517f08c379a00000000000000000000000000000000000000000000000000000000081526004016109bd90612583565b60405180910390fd5b5f8111610a08576040517f08c379a00000000000000000000000000000000000000000000000000000000081526004016109ff90612611565b60405180910390fd5b5f73ffffffffffffffffffffffffffffffffffffffff168373ffffffffffffffffffffffffffffffffffffffff1603610a76576040517f08c379a0000000000000000000000000000000000000000000000000000000008152600401610a6d90612679565b60405180910390fd5b5f845111610ab9576040517f08c379a0000000000000000000000000000000000000000000000000000000008152600401610ab090612707565b60405180910390fd5b7f37e3403f90577c37d7124f91e9054e6918be9f2edbb8ec93108345299cae6069845f808585604051610af095949392919061276f565b60405180910390a16040518060e001604052808781526020018681526020018581526020018473ffffffffffffffffffffffffffffffffffffffff16815260200183815260200182815260200160011515815250600385604051610b549190611f8e565b90815260200160405180910390205f820151815f0155602082015181600101556040820151816002019081610b899190612977565b506060820151816003015f6101000a81548173ffffffffffffffffffffffffffffffffffffffff021916908373ffffffffffffffffffffffffffffffffffffffff1602179055506080820151816004015560a0820151816005015560c0820151816006015f6101000a81548160ff0219169083151502179055509050505f600385604051610c179190611f8e565b90815260200160405180910390206040518060e00160405290815f820154815260200160018201548152602001600282018054610c5390612059565b80601f0160208091040260200160405190810160405280929190818152602001828054610c7f90612059565b8015610cca5780601f10610ca157610100808354040283529160200191610cca565b820191905f5260205f20905b815481529060010190602001808311610cad57829003601f168201915b50505050508152602001600382015f9054906101000a900473ffffffffffffffffffffffffffffffffffffffff1673ffffffffffffffffffffffffffffffffffffffff1673ffffffffffffffffffffffffffffffffffffffff1681526020016004820154815260200160058201548152602001600682015f9054906101000a900460ff16151515158152505090507f37e3403f90577c37d7124f91e9054e6918be9f2edbb8ec93108345299cae60698560018360c0015184608001518560a00151604051610d9c959493929190612a90565b60405180910390a17f04c4d68f06f8fe65a81365ebaaa0c26d6e3ea13e596bbc240a84e411b2582c12858888878787604051610ddd96959493929190612afb565b60405180910390a150505050505050565b60025f9054906101000a900473ffffffffffffffffffffffffffffffffffffffff1681565b5f600384604051610e249190611f8e565b90815260200160405180910390209050806006015f9054906101000a900460ff16610e84576040517f08c379a0000000000000000000000000000000000000000000000000000000008152600401610e7b90612bab565b60405180910390fd5b5f610e8e34610f25565b90505f610e9c8683866110bf565b90505f836006015f6101000a81548160ff0219169083151502179055507fc4f057e87b29411545a6f83503e316fda0dc00c7cd6bccefedb5e808cb0473a28686600154866003015f9054906101000a900473ffffffffffffffffffffffffffffffffffffffff1685604051610f15959493929190612bc9565b60405180910390a1505050505050565b5f80610f3083610779565b90505f8184610f3f9190612c28565b90507f7a48c33736cc83551ed4caa7a29779e7cc364880bde674452fc7be480daa0363848383604051610f7493929190612c5b565b60405180910390a15f60025f9054906101000a900473ffffffffffffffffffffffffffffffffffffffff1673ffffffffffffffffffffffffffffffffffffffff1683604051610fc290612cbd565b5f6040518083038185875af1925050503d805f8114610ffc576040519150601f19603f3d011682016040523d82523d5f602084013e611001565b606091505b5050905080611045576040517f08c379a000000000000000000000000000000000000000000000000000000000815260040161103c90612d1b565b60405180910390fd5b60025f9054906101000a900473ffffffffffffffffffffffffffffffffffffffff1673ffffffffffffffffffffffffffffffffffffffff167f06c5efeff5c320943d265dc4e5f1af95ad523555ce0c1957e367dda5514572df846040516110ac9190611d29565b60405180910390a2819350505050919050565b5f806215939890505f6110d1866114b8565b90505f6040518060a001604052808681526020018373ffffffffffffffffffffffffffffffffffffffff168152602001603c4261110e9190612d39565b81526020018781526020015f81525090505f600267ffffffffffffffff81111561113b5761113a6119a3565b5b60405190808252806020026020018201604052801561116e57816020015b60608152602001906001900390816111595790505b50905063c04b8d5960e01b8260405160240161118a9190612e4f565b604051602081830303815290604052907bffffffffffffffffffffffffffffffffffffffffffffffffffffffff19166020820180517bffffffffffffffffffffffffffffffffffffffffffffffffffffffff8381831617835250505050815f815181106111fa576111f9612e6f565b5b60200260200101819052506312210e8a60e01b604051602401604051602081830303815290604052907bffffffffffffffffffffffffffffffffffffffffffffffffffffffff19166020820180517bffffffffffffffffffffffffffffffffffffffffffffffffffffffff83818316178352505050508160018151811061128457611283612e6f565b5b60200260200101819052505f8473ffffffffffffffffffffffffffffffffffffffff1663ac9650d889846040518363ffffffff1660e01b81526004016112ca9190612f57565b5f6040518083038185885af19350505050801561130957506040513d5f823e3d601f19601f8201168201806040525081019061130691906130c7565b60015b61143f5761131561311a565b806308c379a0036113c95750611329613139565b8061133457506113cb565b7f75775a37ad7d891f9f48727e889a78a65b96f98bd6265526f3928a303b7afb0b5f8660405161136592919061324b565b60405180910390a18060405160200161137e91906132cf565b6040516020818303038152906040526040517f08c379a00000000000000000000000000000000000000000000000000000000081526004016113c0919061200c565b60405180910390fd5b505b7f75775a37ad7d891f9f48727e889a78a65b96f98bd6265526f3928a303b7afb0b5f856040516113fc92919061333a565b60405180910390a16040517f08c379a0000000000000000000000000000000000000000000000000000000008152600401611436906133e4565b60405180910390fd5b805f8151811061145257611451612e6f565b5b602002602001015180602001905181019061146d9190613416565b91507f75775a37ad7d891f9f48727e889a78a65b96f98bd6265526f3928a303b7afb0b82866040516114a092919061348b565b60405180910390a15080955050505050509392505050565b5f806114f9836040518060400160405280600181526020017f2e000000000000000000000000000000000000000000000000000000000000008152506115cb565b9050600381511461153f576040517f08c379a00000000000000000000000000000000000000000000000000000000081526004016115369061350f565b60405180910390fd5b5f611563825f8151811061155657611555612e6f565b5b60200260200101516117f3565b90505f61158a8360018151811061157d5761157c612e6f565b5b60200260200101516117f3565b90505f6115b1846002815181106115a4576115a3612e6f565b5b60200260200101516117f3565b905080602083901b602885901b1717945050505050919050565b60605f8390505f600190505f5b825181101561168257845f815181106115f4576115f3612e6f565b5b602001015160f81c60f81b7effffffffffffffffffffffffffffffffffffffffffffffffffffffffffffff191683828151811061163457611633612e6f565b5b602001015160f81c60f81b7effffffffffffffffffffffffffffffffffffffffffffffffffffffffffffff1916036116755781806116719061352d565b9250505b80806001019150506115d8565b505f8167ffffffffffffffff81111561169e5761169d6119a3565b5b6040519080825280602002602001820160405280156116d157816020015b60608152602001906001900390816116bc5790505b5090505f805f5b85518110156117ba57875f815181106116f4576116f3612e6f565b5b602001015160f81c60f81b7effffffffffffffffffffffffffffffffffffffffffffffffffffffffffffff191686828151811061173457611733612e6f565b5b602001015160f81c60f81b7effffffffffffffffffffffffffffffffffffffffffffffffffffffffffffff1916036117ad57611771898483611888565b84838151811061178457611783612e6f565b5b602002602001018190525060018161179c9190612d39565b925081806117a99061352d565b9250505b80806001019150506116d8565b506117c788838751611888565b8382815181106117da576117d9612e6f565b5b6020026020010181905250829550505050505092915050565b5f808290505f805b825181101561187d575f83828151811061181857611817612e6f565b5b602001015160f81c60f81b60f81c905060308160ff1610158015611840575060398160ff1611155b1561186f576030816118529190613580565b60ff16600a846118629190612263565b61186c9190612d39565b92505b5080806001019150506117fb565b508092505050919050565b60605f8490505f848461189b9190612c28565b67ffffffffffffffff8111156118b4576118b36119a3565b5b6040519080825280601f01601f1916602001820160405280156118e65781602001600182028036833780820191505090505b5090505f8590505b8481101561196d5782818151811061190957611908612e6f565b5b602001015160f81c60f81b8287836119219190612c28565b8151811061193257611931612e6f565b5b60200101907effffffffffffffffffffffffffffffffffffffffffffffffffffffffffffff191690815f1a90535080806001019150506118ee565b5080925050509392505050565b5f604051905090565b5f80fd5b5f80fd5b5f80fd5b5f80fd5b5f601f19601f8301169050919050565b7f4e487b71000000000000000000000000000000000000000000000000000000005f52604160045260245ffd5b6119d982611993565b810181811067ffffffffffffffff821117156119f8576119f76119a3565b5b80604052505050565b5f611a0a61197a565b9050611a1682826119d0565b919050565b5f67ffffffffffffffff821115611a3557611a346119a3565b5b611a3e82611993565b9050602081019050919050565b828183375f83830152505050565b5f611a6b611a6684611a1b565b611a01565b905082815260208101848484011115611a8757611a8661198f565b5b611a92848285611a4b565b509392505050565b5f82601f830112611aae57611aad61198b565b5b8135611abe848260208601611a59565b91505092915050565b5f60208284031215611adc57611adb611983565b5b5f82013567ffffffffffffffff811115611af957611af8611987565b5b611b0584828501611a9a565b91505092915050565b5f819050919050565b611b2081611b0e565b82525050565b5f81519050919050565b5f82825260208201905092915050565b8281835e5f83830152505050565b5f611b5882611b26565b611b628185611b30565b9350611b72818560208601611b40565b611b7b81611993565b840191505092915050565b5f73ffffffffffffffffffffffffffffffffffffffff82169050919050565b5f611baf82611b86565b9050919050565b611bbf81611ba5565b82525050565b5f8115159050919050565b611bd981611bc5565b82525050565b5f60e082019050611bf25f83018a611b17565b611bff6020830189611b17565b8181036040830152611c118188611b4e565b9050611c206060830187611bb6565b611c2d6080830186611b17565b611c3a60a0830185611b17565b611c4760c0830184611bd0565b98975050505050505050565b611c5c81611ba5565b8114611c66575f80fd5b50565b5f81359050611c7781611c53565b92915050565b611c8681611b0e565b8114611c90575f80fd5b50565b5f81359050611ca181611c7d565b92915050565b5f8060408385031215611cbd57611cbc611983565b5b5f611cca85828601611c69565b9250506020611cdb85828601611c93565b9150509250929050565b5f602082019050611cf85f830184611bb6565b92915050565b5f60208284031215611d1357611d12611983565b5b5f611d2084828501611c93565b91505092915050565b5f602082019050611d3c5f830184611b17565b92915050565b5f60208284031215611d5757611d56611983565b5b5f611d6484828501611c69565b91505092915050565b5f805f805f8060c08789031215611d8757611d86611983565b5b5f611d9489828a01611c93565b9650506020611da589828a01611c93565b955050604087013567ffffffffffffffff811115611dc657611dc5611987565b5b611dd289828a01611a9a565b9450506060611de389828a01611c69565b9350506080611df489828a01611c93565b92505060a0611e0589828a01611c93565b9150509295509295509295565b5f67ffffffffffffffff821115611e2c57611e2b6119a3565b5b611e3582611993565b9050602081019050919050565b5f611e54611e4f84611e12565b611a01565b905082815260208101848484011115611e7057611e6f61198f565b5b611e7b848285611a4b565b509392505050565b5f82601f830112611e9757611e9661198b565b5b8135611ea7848260208601611e42565b91505092915050565b5f805f60608486031215611ec757611ec6611983565b5b5f84013567ffffffffffffffff811115611ee457611ee3611987565b5b611ef086828701611a9a565b935050602084013567ffffffffffffffff811115611f1157611f10611987565b5b611f1d86828701611a9a565b925050604084013567ffffffffffffffff811115611f3e57611f3d611987565b5b611f4a86828701611e83565b9150509250925092565b5f81905092915050565b5f611f6882611b26565b611f728185611f54565b9350611f82818560208601611b40565b80840191505092915050565b5f611f998284611f5e565b915081905092915050565b7f4e6f20616374697665207468726573686f6c647320666f756e640000000000005f82015250565b5f611fd8601a83611b30565b9150611fe382611fa4565b602082019050919050565b5f6020820190508181035f83015261200581611fcc565b9050919050565b5f6020820190508181035f8301526120248184611b4e565b905092915050565b7f4e487b71000000000000000000000000000000000000000000000000000000005f52602260045260245ffd5b5f600282049050600182168061207057607f821691505b6020821081036120835761208261202c565b5b50919050565b5f60808201905061209c5f830187611bb6565b6120a96020830186611bb6565b6120b66040830185611bb6565b6120c36060830184611b17565b95945050505050565b5f8160070b9050919050565b6120e1816120cc565b81146120eb575f80fd5b50565b5f815190506120fc816120d8565b92915050565b5f6020828403121561211757612116611983565b5b5f612124848285016120ee565b91505092915050565b7f526f7574657220617070726f76616c20617474656d70740000000000000000005f82015250565b5f612161601783611b30565b915061216c8261212d565b602082019050919050565b612180816120cc565b82525050565b5f6080820190508181035f83015261219d81612155565b90506121ac6020830186611bb6565b6121b96040830185611b17565b6121c66060830184612177565b949350505050565b7f526f7574657220617070726f76616c206661696c6564000000000000000000005f82015250565b5f612202601683611b30565b915061220d826121ce565b602082019050919050565b5f6020820190508181035f83015261222f816121f6565b9050919050565b7f4e487b71000000000000000000000000000000000000000000000000000000005f52601160045260245ffd5b5f61226d82611b0e565b915061227883611b0e565b925082820261228681611b0e565b9150828204841483151761229d5761229c612236565b5b5092915050565b7f4e487b71000000000000000000000000000000000000000000000000000000005f52601260045260245ffd5b5f6122db82611b0e565b91506122e683611b0e565b9250826122f6576122f56122a4565b5b828204905092915050565b7f4f6e6c79206f776e65722063616e2063616c6c20746869732066756e6374696f5f8201527f6e00000000000000000000000000000000000000000000000000000000000000602082015250565b5f61235b602183611b30565b915061236682612301565b604082019050919050565b5f6020820190508181035f8301526123888161234f565b9050919050565b7f496e76616c69642066656520636f6c6c6563746f7220616464726573730000005f82015250565b5f6123c3601d83611b30565b91506123ce8261238f565b602082019050919050565b5f6020820190508181035f8301526123f0816123b7565b9050919050565b7f53746f70206c6f7373207468726573686f6c64206d75737420626520626574775f8201527f65656e203120616e6420313030303020626173697320706f696e747300000000602082015250565b5f612451603c83611b30565b915061245c826123f7565b604082019050919050565b5f6020820190508181035f83015261247e81612445565b9050919050565b7f427579206f72646572207468726573686f6c64206d75737420626520626574775f8201527f65656e203120616e6420313030303020626173697320706f696e747300000000602082015250565b5f6124df603c83611b30565b91506124ea82612485565b604082019050919050565b5f6020820190508181035f83015261250c816124d3565b9050919050565b7f53746f70206c6f737320616d6f756e74206d75737420626520677265617465725f8201527f207468616e207a65726f00000000000000000000000000000000000000000000602082015250565b5f61256d602a83611b30565b915061257882612513565b604082019050919050565b5f6020820190508181035f83015261259a81612561565b9050919050565b7f427579206f7264657220616d6f756e74206d75737420626520677265617465725f8201527f207468616e207a65726f00000000000000000000000000000000000000000000602082015250565b5f6125fb602a83611b30565b9150612606826125a1565b604082019050919050565b5f6020820190508181035f830152612628816125ef565b9050919050565b7f546f6b656e2061646472657373206d7573742062652076616c696400000000005f82015250565b5f612663601b83611b30565b915061266e8261262f565b602082019050919050565b5f6020820190508181035f83015261269081612657565b9050919050565b7f486564657261206163636f756e74204944206d757374206e6f7420626520656d5f8201527f7074790000000000000000000000000000000000000000000000000000000000602082015250565b5f6126f1602383611b30565b91506126fc82612697565b604082019050919050565b5f6020820190508181035f83015261271e816126e5565b9050919050565b7f4265666f72652073657474696e67207468726573686f6c6400000000000000005f82015250565b5f612759601883611b30565b915061276482612725565b602082019050919050565b5f60c0820190508181035f8301526127868161274d565b9050818103602083015261279a8188611b4e565b90506127a96040830187611bd0565b6127b66060830186611bd0565b6127c36080830185611b17565b6127d060a0830184611b17565b9695505050505050565b5f819050815f5260205f209050919050565b5f6020601f8301049050919050565b5f82821b905092915050565b5f600883026128367fffffffffffffffffffffffffffffffffffffffffffffffffffffffffffffffff826127fb565b61284086836127fb565b95508019841693508086168417925050509392505050565b5f819050919050565b5f61287b61287661287184611b0e565b612858565b611b0e565b9050919050565b5f819050919050565b61289483612861565b6128a86128a082612882565b848454612807565b825550505050565b5f90565b6128bc6128b0565b6128c781848461288b565b505050565b5b818110156128ea576128df5f826128b4565b6001810190506128cd565b5050565b601f82111561292f57612900816127da565b612909846127ec565b81016020851015612918578190505b61292c612924856127ec565b8301826128cc565b50505b505050565b5f82821c905092915050565b5f61294f5f1984600802612934565b1980831691505092915050565b5f6129678383612940565b9150826002028217905092915050565b61298082611b26565b67ffffffffffffffff811115612999576129986119a3565b5b6129a38254612059565b6129ae8282856128ee565b5f60209050601f8311600181146129df575f84156129cd578287015190505b6129d7858261295c565b865550612a3e565b601f1984166129ed866127da565b5f5b82811015612a14578489015182556001820191506020850194506020810190506129ef565b86831015612a315784890151612a2d601f891682612940565b8355505b6001600288020188555050505b505050505050565b7f41667465722073657474696e67207468726573686f6c640000000000000000005f82015250565b5f612a7a601783611b30565b9150612a8582612a46565b602082019050919050565b5f60c0820190508181035f830152612aa781612a6e565b90508181036020830152612abb8188611b4e565b9050612aca6040830187611bd0565b612ad76060830186611bd0565b612ae46080830185611b17565b612af160a0830184611b17565b9695505050505050565b5f60c0820190508181035f830152612b138189611b4e565b9050612b226020830188611b17565b612b2f6040830187611b17565b612b3c6060830186611bb6565b612b496080830185611b17565b612b5660a0830184611b17565b979650505050505050565b7f55736572207468726573686f6c647320617265206e6f742061637469766500005f82015250565b5f612b95601e83611b30565b9150612ba082612b61565b602082019050919050565b5f6020820190508181035f830152612bc281612b89565b9050919050565b5f60a0820190508181035f830152612be18188611b4e565b90508181036020830152612bf58187611b4e565b9050612c046040830186611b17565b612c116060830185611bb6565b612c1e6080830184611b17565b9695505050505050565b5f612c3282611b0e565b9150612c3d83611b0e565b9250828203905081811115612c5557612c54612236565b5b92915050565b5f606082019050612c6e5f830186611b17565b612c7b6020830185611b17565b612c886040830184611b17565b949350505050565b5f81905092915050565b50565b5f612ca85f83612c90565b9150612cb382612c9a565b5f82019050919050565b5f612cc782612c9d565b9150819050919050565b7f466565207472616e73666572206661696c6564000000000000000000000000005f82015250565b5f612d05601383611b30565b9150612d1082612cd1565b602082019050919050565b5f6020820190508181035f830152612d3281612cf9565b9050919050565b5f612d4382611b0e565b9150612d4e83611b0e565b9250828201905080821115612d6657612d65612236565b5b92915050565b5f81519050919050565b5f82825260208201905092915050565b5f612d9082612d6c565b612d9a8185612d76565b9350612daa818560208601611b40565b612db381611993565b840191505092915050565b612dc781611ba5565b82525050565b612dd681611b0e565b82525050565b5f60a083015f8301518482035f860152612df68282612d86565b9150506020830151612e0b6020860182612dbe565b506040830151612e1e6040860182612dcd565b506060830151612e316060860182612dcd565b506080830151612e446080860182612dcd565b508091505092915050565b5f6020820190508181035f830152612e678184612ddc565b905092915050565b7f4e487b71000000000000000000000000000000000000000000000000000000005f52603260045260245ffd5b5f81519050919050565b5f82825260208201905092915050565b5f819050602082019050919050565b5f612ed08383612d86565b905092915050565b5f602082019050919050565b5f612eee82612e9c565b612ef88185612ea6565b935083602082028501612f0a85612eb6565b805f5b85811015612f455784840389528151612f268582612ec5565b9450612f3183612ed8565b925060208a01995050600181019050612f0d565b50829750879550505050505092915050565b5f6020820190508181035f830152612f6f8184612ee4565b905092915050565b5f67ffffffffffffffff821115612f9157612f906119a3565b5b602082029050602081019050919050565b5f80fd5b5f612fb8612fb384611e12565b611a01565b905082815260208101848484011115612fd457612fd361198f565b5b612fdf848285611b40565b509392505050565b5f82601f830112612ffb57612ffa61198b565b5b815161300b848260208601612fa6565b91505092915050565b5f61302661302184612f77565b611a01565b9050808382526020820190506020840283018581111561304957613048612fa2565b5b835b8181101561309057805167ffffffffffffffff81111561306e5761306d61198b565b5b80860161307b8982612fe7565b8552602085019450505060208101905061304b565b5050509392505050565b5f82601f8301126130ae576130ad61198b565b5b81516130be848260208601613014565b91505092915050565b5f602082840312156130dc576130db611983565b5b5f82015167ffffffffffffffff8111156130f9576130f8611987565b5b6131058482850161309a565b91505092915050565b5f8160e01c9050919050565b5f60033d11156131365760045f803e6131335f5161310e565b90505b90565b5f60443d106131c55761314a61197a565b60043d036004823e80513d602482011167ffffffffffffffff821117156131725750506131c5565b808201805167ffffffffffffffff81111561319057505050506131c5565b80602083010160043d0385018111156131ad5750505050506131c5565b6131bc826020018501866119d0565b82955050505050505b90565b7f53776170206661696c6564207769746820726561736f6e0000000000000000005f82015250565b5f6131fc601783611b30565b9150613207826131c8565b602082019050919050565b5f819050919050565b5f61323561323061322b84613212565b612858565b611b0e565b9050919050565b6132458161321b565b82525050565b5f6060820190508181035f830152613262816131f0565b9050613271602083018561323c565b61327e6040830184611bb6565b9392505050565b7f526f757465722063616c6c206661696c65643a200000000000000000000000005f82015250565b5f6132b9601483611f54565b91506132c482613285565b601482019050919050565b5f6132d9826132ad565b91506132e58284611f5e565b915081905092915050565b7f53776170206661696c6564207769746820756e6b6e6f776e20726561736f6e005f82015250565b5f613324601f83611b30565b915061332f826132f0565b602082019050919050565b5f6060820190508181035f83015261335181613318565b9050613360602083018561323c565b61336d6040830184611bb6565b9392505050565b7f526f757465722063616c6c206661696c65643a20756e6b6e6f776e20726561735f8201527f6f6e000000000000000000000000000000000000000000000000000000000000602082015250565b5f6133ce602283611b30565b91506133d982613374565b604082019050919050565b5f6020820190508181035f8301526133fb816133c2565b9050919050565b5f8151905061341081611c7d565b92915050565b5f6020828403121561342b5761342a611983565b5b5f61343884828501613402565b91505092915050565b7f53776170207375636365737300000000000000000000000000000000000000005f82015250565b5f613475600c83611b30565b915061348082613441565b602082019050919050565b5f6060820190508181035f8301526134a281613469565b90506134b16020830185611b17565b6134be6040830184611bb6565b9392505050565b7f496e76616c696420486564657261206163636f756e7420494420666f726d61745f82015250565b5f6134f9602083611b30565b9150613504826134c5565b602082019050919050565b5f6020820190508181035f830152613526816134ed565b9050919050565b5f61353782611b0e565b91507fffffffffffffffffffffffffffffffffffffffffffffffffffffffffffffffff820361356957613568612236565b5b600182019050919050565b5f60ff82169050919050565b5f61358a82613574565b915061359583613574565b9250828203905060ff8111156135ae576135ad612236565b5b9291505056fea2646970667358221220a8e28807829c1aa1d1308d8d40bcd452b20896c43cc87a070b556888e234bc9f64736f6c634300081a0033",
			"opcodes": "PUSH1 0x80 PUSH1 0x40 MSTORE CALLVALUE DUP1 ISZERO PUSH2 0xF JUMPI PUSH0 DUP1 REVERT JUMPDEST POP PUSH1 0x40 MLOAD PUSH2 0x3736 CODESIZE SUB DUP1 PUSH2 0x3736 DUP4 CODECOPY DUP2 DUP2 ADD PUSH1 0x40 MSTORE DUP2 ADD SWAP1 PUSH2 0x31 SWAP2 SWAP1 PUSH2 0x114 JUMP JUMPDEST DUP1 PUSH0 DUP1 PUSH2 0x100 EXP DUP2 SLOAD DUP2 PUSH20 0xFFFFFFFFFFFFFFFFFFFFFFFFFFFFFFFFFFFFFFFF MUL NOT AND SWAP1 DUP4 PUSH20 0xFFFFFFFFFFFFFFFFFFFFFFFFFFFFFFFFFFFFFFFF AND MUL OR SWAP1 SSTORE POP DUP1 PUSH1 0x2 PUSH0 PUSH2 0x100 EXP DUP2 SLOAD DUP2 PUSH20 0xFFFFFFFFFFFFFFFFFFFFFFFFFFFFFFFFFFFFFFFF MUL NOT AND SWAP1 DUP4 PUSH20 0xFFFFFFFFFFFFFFFFFFFFFFFFFFFFFFFFFFFFFFFF AND MUL OR SWAP1 SSTORE POP POP PUSH2 0x13F JUMP JUMPDEST PUSH0 DUP1 REVERT JUMPDEST PUSH0 PUSH20 0xFFFFFFFFFFFFFFFFFFFFFFFFFFFFFFFFFFFFFFFF DUP3 AND SWAP1 POP SWAP2 SWAP1 POP JUMP JUMPDEST PUSH0 PUSH2 0xE3 DUP3 PUSH2 0xBA JUMP JUMPDEST SWAP1 POP SWAP2 SWAP1 POP JUMP JUMPDEST PUSH2 0xF3 DUP2 PUSH2 0xD9 JUMP JUMPDEST DUP2 EQ PUSH2 0xFD JUMPI PUSH0 DUP1 REVERT JUMPDEST POP JUMP JUMPDEST PUSH0 DUP2 MLOAD SWAP1 POP PUSH2 0x10E DUP2 PUSH2 0xEA JUMP JUMPDEST SWAP3 SWAP2 POP POP JUMP JUMPDEST PUSH0 PUSH1 0x20 DUP3 DUP5 SUB SLT ISZERO PUSH2 0x129 JUMPI PUSH2 0x128 PUSH2 0xB6 JUMP JUMPDEST JUMPDEST PUSH0 PUSH2 0x136 DUP5 DUP3 DUP6 ADD PUSH2 0x100 JUMP JUMPDEST SWAP2 POP POP SWAP3 SWAP2 POP POP JUMP JUMPDEST PUSH2 0x35EA DUP1 PUSH2 0x14C PUSH0 CODECOPY PUSH0 RETURN INVALID PUSH1 0x80 PUSH1 0x40 MSTORE PUSH1 0x4 CALLDATASIZE LT PUSH2 0xA6 JUMPI PUSH0 CALLDATALOAD PUSH1 0xE0 SHR DUP1 PUSH4 0x9D1B464A GT PUSH2 0x63 JUMPI DUP1 PUSH4 0x9D1B464A EQ PUSH2 0x1E4 JUMPI DUP1 PUSH4 0xA42DCE80 EQ PUSH2 0x20E JUMPI DUP1 PUSH4 0xA525AD3C EQ PUSH2 0x236 JUMPI DUP1 PUSH4 0xB5FA3DBD EQ PUSH2 0x260 JUMPI DUP1 PUSH4 0xC415B95C EQ PUSH2 0x288 JUMPI DUP1 PUSH4 0xD3C0EAC3 EQ PUSH2 0x2B2 JUMPI PUSH2 0xA6 JUMP JUMPDEST DUP1 PUSH4 0x552F9A8F EQ PUSH2 0xAA JUMPI DUP1 PUSH4 0x6CC3EB68 EQ PUSH2 0xD2 JUMPI DUP1 PUSH4 0x88A95E61 EQ PUSH2 0x114 JUMPI DUP1 PUSH4 0x8DA5CB5B EQ PUSH2 0x13C JUMPI DUP1 PUSH4 0x9286EDDB EQ PUSH2 0x166 JUMPI DUP1 PUSH4 0x99A5D747 EQ PUSH2 0x1A8 JUMPI JUMPDEST PUSH0 DUP1 REVERT JUMPDEST CALLVALUE DUP1 ISZERO PUSH2 0xB5 JUMPI PUSH0 DUP1 REVERT JUMPDEST POP PUSH2 0xD0 PUSH1 0x4 DUP1 CALLDATASIZE SUB DUP2 ADD SWAP1 PUSH2 0xCB SWAP2 SWAP1 PUSH2 0x1AC7 JUMP JUMPDEST PUSH2 0x2CE JUMP JUMPDEST STOP JUMPDEST CALLVALUE DUP1 ISZERO PUSH2 0xDD JUMPI PUSH0 DUP1 REVERT JUMPDEST POP PUSH2 0xF8 PUSH1 0x4 DUP1 CALLDATASIZE SUB DUP2 ADD SWAP1 PUSH2 0xF3 SWAP2 SWAP1 PUSH2 0x1AC7 JUMP JUMPDEST PUSH2 0x3AD JUMP JUMPDEST PUSH1 0x40 MLOAD PUSH2 0x10B SWAP8 SWAP7 SWAP6 SWAP5 SWAP4 SWAP3 SWAP2 SWAP1 PUSH2 0x1BDF JUMP JUMPDEST PUSH1 0x40 MLOAD DUP1 SWAP2 SUB SWAP1 RETURN JUMPDEST CALLVALUE DUP1 ISZERO PUSH2 0x11F JUMPI PUSH0 DUP1 REVERT JUMPDEST POP PUSH2 0x13A PUSH1 0x4 DUP1 CALLDATASIZE SUB DUP2 ADD SWAP1 PUSH2 0x135 SWAP2 SWAP1 PUSH2 0x1CA7 JUMP JUMPDEST PUSH2 0x543 JUMP JUMPDEST STOP JUMPDEST CALLVALUE DUP1 ISZERO PUSH2 0x147 JUMPI PUSH0 DUP1 REVERT JUMPDEST POP PUSH2 0x150 PUSH2 0x64F JUMP JUMPDEST PUSH1 0x40 MLOAD PUSH2 0x15D SWAP2 SWAP1 PUSH2 0x1CE5 JUMP JUMPDEST PUSH1 0x40 MLOAD DUP1 SWAP2 SUB SWAP1 RETURN JUMPDEST CALLVALUE DUP1 ISZERO PUSH2 0x171 JUMPI PUSH0 DUP1 REVERT JUMPDEST POP PUSH2 0x18C PUSH1 0x4 DUP1 CALLDATASIZE SUB DUP2 ADD SWAP1 PUSH2 0x187 SWAP2 SWAP1 PUSH2 0x1AC7 JUMP JUMPDEST PUSH2 0x672 JUMP JUMPDEST PUSH1 0x40 MLOAD PUSH2 0x19F SWAP8 SWAP7 SWAP6 SWAP5 SWAP4 SWAP3 SWAP2 SWAP1 PUSH2 0x1BDF JUMP JUMPDEST PUSH1 0x40 MLOAD DUP1 SWAP2 SUB SWAP1 RETURN JUMPDEST CALLVALUE DUP1 ISZERO PUSH2 0x1B3 JUMPI PUSH0 DUP1 REVERT JUMPDEST POP PUSH2 0x1CE PUSH1 0x4 DUP1 CALLDATASIZE SUB DUP2 ADD SWAP1 PUSH2 0x1C9 SWAP2 SWAP1 PUSH2 0x1CFE JUMP JUMPDEST PUSH2 0x779 JUMP JUMPDEST PUSH1 0x40 MLOAD PUSH2 0x1DB SWAP2 SWAP1 PUSH2 0x1D29 JUMP JUMPDEST PUSH1 0x40 MLOAD DUP1 SWAP2 SUB SWAP1 RETURN JUMPDEST CALLVALUE DUP1 ISZERO PUSH2 0x1EF JUMPI PUSH0 DUP1 REVERT JUMPDEST POP PUSH2 0x1F8 PUSH2 0x79B JUMP JUMPDEST PUSH1 0x40 MLOAD PUSH2 0x205 SWAP2 SWAP1 PUSH2 0x1D29 JUMP JUMPDEST PUSH1 0x40 MLOAD DUP1 SWAP2 SUB SWAP1 RETURN JUMPDEST CALLVALUE DUP1 ISZERO PUSH2 0x219 JUMPI PUSH0 DUP1 REVERT JUMPDEST POP PUSH2 0x234 PUSH1 0x4 DUP1 CALLDATASIZE SUB DUP2 ADD SWAP1 PUSH2 0x22F SWAP2 SWAP1 PUSH2 0x1D42 JUMP JUMPDEST PUSH2 0x7A1 JUMP JUMPDEST STOP JUMPDEST CALLVALUE DUP1 ISZERO PUSH2 0x241 JUMPI PUSH0 DUP1 REVERT JUMPDEST POP PUSH2 0x24A PUSH2 0x8DF JUMP JUMPDEST PUSH1 0x40 MLOAD PUSH2 0x257 SWAP2 SWAP1 PUSH2 0x1D29 JUMP JUMPDEST PUSH1 0x40 MLOAD DUP1 SWAP2 SUB SWAP1 RETURN JUMPDEST CALLVALUE DUP1 ISZERO PUSH2 0x26B JUMPI PUSH0 DUP1 REVERT JUMPDEST POP PUSH2 0x286 PUSH1 0x4 DUP1 CALLDATASIZE SUB DUP2 ADD SWAP1 PUSH2 0x281 SWAP2 SWAP1 PUSH2 0x1D6D JUMP JUMPDEST PUSH2 0x8E4 JUMP JUMPDEST STOP JUMPDEST CALLVALUE DUP1 ISZERO PUSH2 0x293 JUMPI PUSH0 DUP1 REVERT JUMPDEST POP PUSH2 0x29C PUSH2 0xDEE JUMP JUMPDEST PUSH1 0x40 MLOAD PUSH2 0x2A9 SWAP2 SWAP1 PUSH2 0x1CE5 JUMP JUMPDEST PUSH1 0x40 MLOAD DUP1 SWAP2 SUB SWAP1 RETURN JUMPDEST PUSH2 0x2CC PUSH1 0x4 DUP1 CALLDATASIZE SUB DUP2 ADD SWAP1 PUSH2 0x2C7 SWAP2 SWAP1 PUSH2 0x1EB0 JUMP JUMPDEST PUSH2 0xE13 JUMP JUMPDEST STOP JUMPDEST PUSH1 0x3 DUP2 PUSH1 0x40 MLOAD PUSH2 0x2DE SWAP2 SWAP1 PUSH2 0x1F8E JUMP JUMPDEST SWAP1 DUP2 MSTORE PUSH1 0x20 ADD PUSH1 0x40 MLOAD DUP1 SWAP2 SUB SWAP1 KECCAK256 PUSH1 0x6 ADD PUSH0 SWAP1 SLOAD SWAP1 PUSH2 0x100 EXP SWAP1 DIV PUSH1 0xFF AND PUSH2 0x33B JUMPI PUSH1 0x40 MLOAD PUSH32 0x8C379A000000000000000000000000000000000000000000000000000000000 DUP2 MSTORE PUSH1 0x4 ADD PUSH2 0x332 SWAP1 PUSH2 0x1FEE JUMP JUMPDEST PUSH1 0x40 MLOAD DUP1 SWAP2 SUB SWAP1 REVERT JUMPDEST PUSH0 PUSH1 0x3 DUP3 PUSH1 0x40 MLOAD PUSH2 0x34C SWAP2 SWAP1 PUSH2 0x1F8E JUMP JUMPDEST SWAP1 DUP2 MSTORE PUSH1 0x20 ADD PUSH1 0x40 MLOAD DUP1 SWAP2 SUB SWAP1 KECCAK256 PUSH1 0x6 ADD PUSH0 PUSH2 0x100 EXP DUP2 SLOAD DUP2 PUSH1 0xFF MUL NOT AND SWAP1 DUP4 ISZERO ISZERO MUL OR SWAP1 SSTORE POP PUSH32 0x81A7424122BFC6C777B03BA3E559003333E926B901EC6669FDECF699D354F809 DUP2 PUSH1 0x40 MLOAD PUSH2 0x3A2 SWAP2 SWAP1 PUSH2 0x200C JUMP JUMPDEST PUSH1 0x40 MLOAD DUP1 SWAP2 SUB SWAP1 LOG1 POP JUMP JUMPDEST PUSH0 DUP1 PUSH1 0x60 PUSH0 DUP1 PUSH0 DUP1 PUSH0 PUSH1 0x3 DUP10 PUSH1 0x40 MLOAD PUSH2 0x3C6 SWAP2 SWAP1 PUSH2 0x1F8E JUMP JUMPDEST SWAP1 DUP2 MSTORE PUSH1 0x20 ADD PUSH1 0x40 MLOAD DUP1 SWAP2 SUB SWAP1 KECCAK256 PUSH1 0x40 MLOAD DUP1 PUSH1 0xE0 ADD PUSH1 0x40 MSTORE SWAP1 DUP2 PUSH0 DUP3 ADD SLOAD DUP2 MSTORE PUSH1 0x20 ADD PUSH1 0x1 DUP3 ADD SLOAD DUP2 MSTORE PUSH1 0x20 ADD PUSH1 0x2 DUP3 ADD DUP1 SLOAD PUSH2 0x402 SWAP1 PUSH2 0x2059 JUMP JUMPDEST DUP1 PUSH1 0x1F ADD PUSH1 0x20 DUP1 SWAP2 DIV MUL PUSH1 0x20 ADD PUSH1 0x40 MLOAD SWAP1 DUP2 ADD PUSH1 0x40 MSTORE DUP1 SWAP3 SWAP2 SWAP1 DUP2 DUP2 MSTORE PUSH1 0x20 ADD DUP3 DUP1 SLOAD PUSH2 0x42E SWAP1 PUSH2 0x2059 JUMP JUMPDEST DUP1 ISZERO PUSH2 0x479 JUMPI DUP1 PUSH1 0x1F LT PUSH2 0x450 JUMPI PUSH2 0x100 DUP1 DUP4 SLOAD DIV MUL DUP4 MSTORE SWAP2 PUSH1 0x20 ADD SWAP2 PUSH2 0x479 JUMP JUMPDEST DUP3 ADD SWAP2 SWAP1 PUSH0 MSTORE PUSH1 0x20 PUSH0 KECCAK256 SWAP1 JUMPDEST DUP2 SLOAD DUP2 MSTORE SWAP1 PUSH1 0x1 ADD SWAP1 PUSH1 0x20 ADD DUP1 DUP4 GT PUSH2 0x45C JUMPI DUP3 SWAP1 SUB PUSH1 0x1F AND DUP3 ADD SWAP2 JUMPDEST POP POP POP POP POP DUP2 MSTORE PUSH1 0x20 ADD PUSH1 0x3 DUP3 ADD PUSH0 SWAP1 SLOAD SWAP1 PUSH2 0x100 EXP SWAP1 DIV PUSH20 0xFFFFFFFFFFFFFFFFFFFFFFFFFFFFFFFFFFFFFFFF AND PUSH20 0xFFFFFFFFFFFFFFFFFFFFFFFFFFFFFFFFFFFFFFFF AND PUSH20 0xFFFFFFFFFFFFFFFFFFFFFFFFFFFFFFFFFFFFFFFF AND DUP2 MSTORE PUSH1 0x20 ADD PUSH1 0x4 DUP3 ADD SLOAD DUP2 MSTORE PUSH1 0x20 ADD PUSH1 0x5 DUP3 ADD SLOAD DUP2 MSTORE PUSH1 0x20 ADD PUSH1 0x6 DUP3 ADD PUSH0 SWAP1 SLOAD SWAP1 PUSH2 0x100 EXP SWAP1 DIV PUSH1 0xFF AND ISZERO ISZERO ISZERO ISZERO DUP2 MSTORE POP POP SWAP1 POP DUP1 PUSH0 ADD MLOAD DUP2 PUSH1 0x20 ADD MLOAD DUP3 PUSH1 0x40 ADD MLOAD DUP4 PUSH1 0x60 ADD MLOAD DUP5 PUSH1 0x80 ADD MLOAD DUP6 PUSH1 0xA0 ADD MLOAD DUP7 PUSH1 0xC0 ADD MLOAD SWAP8 POP SWAP8 POP SWAP8 POP SWAP8 POP SWAP8 POP SWAP8 POP SWAP8 POP POP SWAP2 SWAP4 SWAP6 SWAP8 SWAP1 SWAP3 SWAP5 SWAP7 POP JUMP JUMPDEST PUSH0 PUSH2 0x167 PUSH20 0xFFFFFFFFFFFFFFFFFFFFFFFFFFFFFFFFFFFFFFFF AND PUSH4 0x204D207C DUP5 ADDRESS PUSH3 0x159398 DUP7 PUSH1 0x40 MLOAD DUP6 PUSH4 0xFFFFFFFF AND PUSH1 0xE0 SHL DUP2 MSTORE PUSH1 0x4 ADD PUSH2 0x588 SWAP5 SWAP4 SWAP3 SWAP2 SWAP1 PUSH2 0x2089 JUMP JUMPDEST PUSH1 0x20 PUSH1 0x40 MLOAD DUP1 DUP4 SUB DUP2 PUSH0 DUP8 GAS CALL ISZERO DUP1 ISZERO PUSH2 0x5A4 JUMPI RETURNDATASIZE PUSH0 DUP1 RETURNDATACOPY RETURNDATASIZE PUSH0 REVERT JUMPDEST POP POP POP POP PUSH1 0x40 MLOAD RETURNDATASIZE PUSH1 0x1F NOT PUSH1 0x1F DUP3 ADD AND DUP3 ADD DUP1 PUSH1 0x40 MSTORE POP DUP2 ADD SWAP1 PUSH2 0x5C8 SWAP2 SWAP1 PUSH2 0x2102 JUMP JUMPDEST SWAP1 POP PUSH32 0x81F3D08D09140E96158A86596B336E623B98D305C5C7B7F2DBE9546EAEBCD5D7 DUP4 DUP4 DUP4 PUSH1 0x40 MLOAD PUSH2 0x5FD SWAP4 SWAP3 SWAP2 SWAP1 PUSH2 0x2186 JUMP JUMPDEST PUSH1 0x40 MLOAD DUP1 SWAP2 SUB SWAP1 LOG1 PUSH0 DUP2 PUSH1 0x7 SIGNEXTEND EQ PUSH2 0x64A JUMPI PUSH1 0x40 MLOAD PUSH32 0x8C379A000000000000000000000000000000000000000000000000000000000 DUP2 MSTORE PUSH1 0x4 ADD PUSH2 0x641 SWAP1 PUSH2 0x2218 JUMP JUMPDEST PUSH1 0x40 MLOAD DUP1 SWAP2 SUB SWAP1 REVERT JUMPDEST POP POP POP JUMP JUMPDEST PUSH0 DUP1 SLOAD SWAP1 PUSH2 0x100 EXP SWAP1 DIV PUSH20 0xFFFFFFFFFFFFFFFFFFFFFFFFFFFFFFFFFFFFFFFF AND DUP2 JUMP JUMPDEST PUSH1 0x3 DUP2 DUP1 MLOAD PUSH1 0x20 DUP2 ADD DUP3 ADD DUP1 MLOAD DUP5 DUP3 MSTORE PUSH1 0x20 DUP4 ADD PUSH1 0x20 DUP6 ADD KECCAK256 DUP2 DUP4 MSTORE DUP1 SWAP6 POP POP POP POP POP POP PUSH0 SWAP2 POP SWAP1 POP DUP1 PUSH0 ADD SLOAD SWAP1 DUP1 PUSH1 0x1 ADD SLOAD SWAP1 DUP1 PUSH1 0x2 ADD DUP1 SLOAD PUSH2 0x6B5 SWAP1 PUSH2 0x2059 JUMP JUMPDEST DUP1 PUSH1 0x1F ADD PUSH1 0x20 DUP1 SWAP2 DIV MUL PUSH1 0x20 ADD PUSH1 0x40 MLOAD SWAP1 DUP2 ADD PUSH1 0x40 MSTORE DUP1 SWAP3 SWAP2 SWAP1 DUP2 DUP2 MSTORE PUSH1 0x20 ADD DUP3 DUP1 SLOAD PUSH2 0x6E1 SWAP1 PUSH2 0x2059 JUMP JUMPDEST DUP1 ISZERO PUSH2 0x72C JUMPI DUP1 PUSH1 0x1F LT PUSH2 0x703 JUMPI PUSH2 0x100 DUP1 DUP4 SLOAD DIV MUL DUP4 MSTORE SWAP2 PUSH1 0x20 ADD SWAP2 PUSH2 0x72C JUMP JUMPDEST DUP3 ADD SWAP2 SWAP1 PUSH0 MSTORE PUSH1 0x20 PUSH0 KECCAK256 SWAP1 JUMPDEST DUP2 SLOAD DUP2 MSTORE SWAP1 PUSH1 0x1 ADD SWAP1 PUSH1 0x20 ADD DUP1 DUP4 GT PUSH2 0x70F JUMPI DUP3 SWAP1 SUB PUSH1 0x1F AND DUP3 ADD SWAP2 JUMPDEST POP POP POP POP POP SWAP1 DUP1 PUSH1 0x3 ADD PUSH0 SWAP1 SLOAD SWAP1 PUSH2 0x100 EXP SWAP1 DIV PUSH20 0xFFFFFFFFFFFFFFFFFFFFFFFFFFFFFFFFFFFFFFFF AND SWAP1 DUP1 PUSH1 0x4 ADD SLOAD SWAP1 DUP1 PUSH1 0x5 ADD SLOAD SWAP1 DUP1 PUSH1 0x6 ADD PUSH0 SWAP1 SLOAD SWAP1 PUSH2 0x100 EXP SWAP1 DIV PUSH1 0xFF AND SWAP1 POP DUP8 JUMP JUMPDEST PUSH0 PUSH2 0x2710 PUSH1 0x8 DUP4 PUSH2 0x78A SWAP2 SWAP1 PUSH2 0x2263 JUMP JUMPDEST PUSH2 0x794 SWAP2 SWAP1 PUSH2 0x22D1 JUMP JUMPDEST SWAP1 POP SWAP2 SWAP1 POP JUMP JUMPDEST PUSH1 0x1 SLOAD DUP2 JUMP JUMPDEST PUSH0 DUP1 SLOAD SWAP1 PUSH2 0x100 EXP SWAP1 DIV PUSH20 0xFFFFFFFFFFFFFFFFFFFFFFFFFFFFFFFFFFFFFFFF AND PUSH20 0xFFFFFFFFFFFFFFFFFFFFFFFFFFFFFFFFFFFFFFFF AND CALLER PUSH20 0xFFFFFFFFFFFFFFFFFFFFFFFFFFFFFFFFFFFFFFFF AND EQ PUSH2 0x82E JUMPI PUSH1 0x40 MLOAD PUSH32 0x8C379A000000000000000000000000000000000000000000000000000000000 DUP2 MSTORE PUSH1 0x4 ADD PUSH2 0x825 SWAP1 PUSH2 0x2371 JUMP JUMPDEST PUSH1 0x40 MLOAD DUP1 SWAP2 SUB SWAP1 REVERT JUMPDEST PUSH0 PUSH20 0xFFFFFFFFFFFFFFFFFFFFFFFFFFFFFFFFFFFFFFFF AND DUP2 PUSH20 0xFFFFFFFFFFFFFFFFFFFFFFFFFFFFFFFFFFFFFFFF AND SUB PUSH2 0x89C JUMPI PUSH1 0x40 MLOAD PUSH32 0x8C379A000000000000000000000000000000000000000000000000000000000 DUP2 MSTORE PUSH1 0x4 ADD PUSH2 0x893 SWAP1 PUSH2 0x23D9 JUMP JUMPDEST PUSH1 0x40 MLOAD DUP1 SWAP2 SUB SWAP1 REVERT JUMPDEST DUP1 PUSH1 0x2 PUSH0 PUSH2 0x100 EXP DUP2 SLOAD DUP2 PUSH20 0xFFFFFFFFFFFFFFFFFFFFFFFFFFFFFFFFFFFFFFFF MUL NOT AND SWAP1 DUP4 PUSH20 0xFFFFFFFFFFFFFFFFFFFFFFFFFFFFFFFFFFFFFFFF AND MUL OR SWAP1 SSTORE POP POP JUMP JUMPDEST PUSH1 0x8 DUP2 JUMP JUMPDEST PUSH0 DUP7 GT DUP1 ISZERO PUSH2 0x8F5 JUMPI POP PUSH2 0x2710 DUP7 GT ISZERO JUMPDEST PUSH2 0x934 JUMPI PUSH1 0x40 MLOAD PUSH32 0x8C379A000000000000000000000000000000000000000000000000000000000 DUP2 MSTORE PUSH1 0x4 ADD PUSH2 0x92B SWAP1 PUSH2 0x2467 JUMP JUMPDEST PUSH1 0x40 MLOAD DUP1 SWAP2 SUB SWAP1 REVERT JUMPDEST PUSH0 DUP6 GT DUP1 ISZERO PUSH2 0x945 JUMPI POP PUSH2 0x2710 DUP6 GT ISZERO JUMPDEST PUSH2 0x984 JUMPI PUSH1 0x40 MLOAD PUSH32 0x8C379A000000000000000000000000000000000000000000000000000000000 DUP2 MSTORE PUSH1 0x4 ADD PUSH2 0x97B SWAP1 PUSH2 0x24F5 JUMP JUMPDEST PUSH1 0x40 MLOAD DUP1 SWAP2 SUB SWAP1 REVERT JUMPDEST PUSH0 DUP3 GT PUSH2 0x9C6 JUMPI PUSH1 0x40 MLOAD PUSH32 0x8C379A000000000000000000000000000000000000000000000000000000000 DUP2 MSTORE PUSH1 0x4 ADD PUSH2 0x9BD SWAP1 PUSH2 0x2583 JUMP JUMPDEST PUSH1 0x40 MLOAD DUP1 SWAP2 SUB SWAP1 REVERT JUMPDEST PUSH0 DUP2 GT PUSH2 0xA08 JUMPI PUSH1 0x40 MLOAD PUSH32 0x8C379A000000000000000000000000000000000000000000000000000000000 DUP2 MSTORE PUSH1 0x4 ADD PUSH2 0x9FF SWAP1 PUSH2 0x2611 JUMP JUMPDEST PUSH1 0x40 MLOAD DUP1 SWAP2 SUB SWAP1 REVERT JUMPDEST PUSH0 PUSH20 0xFFFFFFFFFFFFFFFFFFFFFFFFFFFFFFFFFFFFFFFF AND DUP4 PUSH20 0xFFFFFFFFFFFFFFFFFFFFFFFFFFFFFFFFFFFFFFFF AND SUB PUSH2 0xA76 JUMPI PUSH1 0x40 MLOAD PUSH32 0x8C379A000000000000000000000000000000000000000000000000000000000 DUP2 MSTORE PUSH1 0x4 ADD PUSH2 0xA6D SWAP1 PUSH2 0x2679 JUMP JUMPDEST PUSH1 0x40 MLOAD DUP1 SWAP2 SUB SWAP1 REVERT JUMPDEST PUSH0 DUP5 MLOAD GT PUSH2 0xAB9 JUMPI PUSH1 0x40 MLOAD PUSH32 0x8C379A000000000000000000000000000000000000000000000000000000000 DUP2 MSTORE PUSH1 0x4 ADD PUSH2 0xAB0 SWAP1 PUSH2 0x2707 JUMP JUMPDEST PUSH1 0x40 MLOAD DUP1 SWAP2 SUB SWAP1 REVERT JUMPDEST PUSH32 0x37E3403F90577C37D7124F91E9054E6918BE9F2EDBB8EC93108345299CAE6069 DUP5 PUSH0 DUP1 DUP6 DUP6 PUSH1 0x40 MLOAD PUSH2 0xAF0 SWAP6 SWAP5 SWAP4 SWAP3 SWAP2 SWAP1 PUSH2 0x276F JUMP JUMPDEST PUSH1 0x40 MLOAD DUP1 SWAP2 SUB SWAP1 LOG1 PUSH1 0x40 MLOAD DUP1 PUSH1 0xE0 ADD PUSH1 0x40 MSTORE DUP1 DUP8 DUP2 MSTORE PUSH1 0x20 ADD DUP7 DUP2 MSTORE PUSH1 0x20 ADD DUP6 DUP2 MSTORE PUSH1 0x20 ADD DUP5 PUSH20 0xFFFFFFFFFFFFFFFFFFFFFFFFFFFFFFFFFFFFFFFF AND DUP2 MSTORE PUSH1 0x20 ADD DUP4 DUP2 MSTORE PUSH1 0x20 ADD DUP3 DUP2 MSTORE PUSH1 0x20 ADD PUSH1 0x1 ISZERO ISZERO DUP2 MSTORE POP PUSH1 0x3 DUP6 PUSH1 0x40 MLOAD PUSH2 0xB54 SWAP2 SWAP1 PUSH2 0x1F8E JUMP JUMPDEST SWAP1 DUP2 MSTORE PUSH1 0x20 ADD PUSH1 0x40 MLOAD DUP1 SWAP2 SUB SWAP1 KECCAK256 PUSH0 DUP3 ADD MLOAD DUP2 PUSH0 ADD SSTORE PUSH1 0x20 DUP3 ADD MLOAD DUP2 PUSH1 0x1 ADD SSTORE PUSH1 0x40 DUP3 ADD MLOAD DUP2 PUSH1 0x2 ADD SWAP1 DUP2 PUSH2 0xB89 SWAP2 SWAP1 PUSH2 0x2977 JUMP JUMPDEST POP PUSH1 0x60 DUP3 ADD MLOAD DUP2 PUSH1 0x3 ADD PUSH0 PUSH2 0x100 EXP DUP2 SLOAD DUP2 PUSH20 0xFFFFFFFFFFFFFFFFFFFFFFFFFFFFFFFFFFFFFFFF MUL NOT AND SWAP1 DUP4 PUSH20 0xFFFFFFFFFFFFFFFFFFFFFFFFFFFFFFFFFFFFFFFF AND MUL OR SWAP1 SSTORE POP PUSH1 0x80 DUP3 ADD MLOAD DUP2 PUSH1 0x4 ADD SSTORE PUSH1 0xA0 DUP3 ADD MLOAD DUP2 PUSH1 0x5 ADD SSTORE PUSH1 0xC0 DUP3 ADD MLOAD DUP2 PUSH1 0x6 ADD PUSH0 PUSH2 0x100 EXP DUP2 SLOAD DUP2 PUSH1 0xFF MUL NOT AND SWAP1 DUP4 ISZERO ISZERO MUL OR SWAP1 SSTORE POP SWAP1 POP POP PUSH0 PUSH1 0x3 DUP6 PUSH1 0x40 MLOAD PUSH2 0xC17 SWAP2 SWAP1 PUSH2 0x1F8E JUMP JUMPDEST SWAP1 DUP2 MSTORE PUSH1 0x20 ADD PUSH1 0x40 MLOAD DUP1 SWAP2 SUB SWAP1 KECCAK256 PUSH1 0x40 MLOAD DUP1 PUSH1 0xE0 ADD PUSH1 0x40 MSTORE SWAP1 DUP2 PUSH0 DUP3 ADD SLOAD DUP2 MSTORE PUSH1 0x20 ADD PUSH1 0x1 DUP3 ADD SLOAD DUP2 MSTORE PUSH1 0x20 ADD PUSH1 0x2 DUP3 ADD DUP1 SLOAD PUSH2 0xC53 SWAP1 PUSH2 0x2059 JUMP JUMPDEST DUP1 PUSH1 0x1F ADD PUSH1 0x20 DUP1 SWAP2 DIV MUL PUSH1 0x20 ADD PUSH1 0x40 MLOAD SWAP1 DUP2 ADD PUSH1 0x40 MSTORE DUP1 SWAP3 SWAP2 SWAP1 DUP2 DUP2 MSTORE PUSH1 0x20 ADD DUP3 DUP1 SLOAD PUSH2 0xC7F SWAP1 PUSH2 0x2059 JUMP JUMPDEST DUP1 ISZERO PUSH2 0xCCA JUMPI DUP1 PUSH1 0x1F LT PUSH2 0xCA1 JUMPI PUSH2 0x100 DUP1 DUP4 SLOAD DIV MUL DUP4 MSTORE SWAP2 PUSH1 0x20 ADD SWAP2 PUSH2 0xCCA JUMP JUMPDEST DUP3 ADD SWAP2 SWAP1 PUSH0 MSTORE PUSH1 0x20 PUSH0 KECCAK256 SWAP1 JUMPDEST DUP2 SLOAD DUP2 MSTORE SWAP1 PUSH1 0x1 ADD SWAP1 PUSH1 0x20 ADD DUP1 DUP4 GT PUSH2 0xCAD JUMPI DUP3 SWAP1 SUB PUSH1 0x1F AND DUP3 ADD SWAP2 JUMPDEST POP POP POP POP POP DUP2 MSTORE PUSH1 0x20 ADD PUSH1 0x3 DUP3 ADD PUSH0 SWAP1 SLOAD SWAP1 PUSH2 0x100 EXP SWAP1 DIV PUSH20 0xFFFFFFFFFFFFFFFFFFFFFFFFFFFFFFFFFFFFFFFF AND PUSH20 0xFFFFFFFFFFFFFFFFFFFFFFFFFFFFFFFFFFFFFFFF AND PUSH20 0xFFFFFFFFFFFFFFFFFFFFFFFFFFFFFFFFFFFFFFFF AND DUP2 MSTORE PUSH1 0x20 ADD PUSH1 0x4 DUP3 ADD SLOAD DUP2 MSTORE PUSH1 0x20 ADD PUSH1 0x5 DUP3 ADD SLOAD DUP2 MSTORE PUSH1 0x20 ADD PUSH1 0x6 DUP3 ADD PUSH0 SWAP1 SLOAD SWAP1 PUSH2 0x100 EXP SWAP1 DIV PUSH1 0xFF AND ISZERO ISZERO ISZERO ISZERO DUP2 MSTORE POP POP SWAP1 POP PUSH32 0x37E3403F90577C37D7124F91E9054E6918BE9F2EDBB8EC93108345299CAE6069 DUP6 PUSH1 0x1 DUP4 PUSH1 0xC0 ADD MLOAD DUP5 PUSH1 0x80 ADD MLOAD DUP6 PUSH1 0xA0 ADD MLOAD PUSH1 0x40 MLOAD PUSH2 0xD9C SWAP6 SWAP5 SWAP4 SWAP3 SWAP2 SWAP1 PUSH2 0x2A90 JUMP JUMPDEST PUSH1 0x40 MLOAD DUP1 SWAP2 SUB SWAP1 LOG1 PUSH32 0x4C4D68F06F8FE65A81365EBAAA0C26D6E3EA13E596BBC240A84E411B2582C12 DUP6 DUP9 DUP9 DUP8 DUP8 DUP8 PUSH1 0x40 MLOAD PUSH2 0xDDD SWAP7 SWAP6 SWAP5 SWAP4 SWAP3 SWAP2 SWAP1 PUSH2 0x2AFB JUMP JUMPDEST PUSH1 0x40 MLOAD DUP1 SWAP2 SUB SWAP1 LOG1 POP POP POP POP POP POP POP JUMP JUMPDEST PUSH1 0x2 PUSH0 SWAP1 SLOAD SWAP1 PUSH2 0x100 EXP SWAP1 DIV PUSH20 0xFFFFFFFFFFFFFFFFFFFFFFFFFFFFFFFFFFFFFFFF AND DUP2 JUMP JUMPDEST PUSH0 PUSH1 0x3 DUP5 PUSH1 0x40 MLOAD PUSH2 0xE24 SWAP2 SWAP1 PUSH2 0x1F8E JUMP JUMPDEST SWAP1 DUP2 MSTORE PUSH1 0x20 ADD PUSH1 0x40 MLOAD DUP1 SWAP2 SUB SWAP1 KECCAK256 SWAP1 POP DUP1 PUSH1 0x6 ADD PUSH0 SWAP1 SLOAD SWAP1 PUSH2 0x100 EXP SWAP1 DIV PUSH1 0xFF AND PUSH2 0xE84 JUMPI PUSH1 0x40 MLOAD PUSH32 0x8C379A000000000000000000000000000000000000000000000000000000000 DUP2 MSTORE PUSH1 0x4 ADD PUSH2 0xE7B SWAP1 PUSH2 0x2BAB JUMP JUMPDEST PUSH1 0x40 MLOAD DUP1 SWAP2 SUB SWAP1 REVERT JUMPDEST PUSH0 PUSH2 0xE8E CALLVALUE PUSH2 0xF25 JUMP JUMPDEST SWAP1 POP PUSH0 PUSH2 0xE9C DUP7 DUP4 DUP7 PUSH2 0x10BF JUMP JUMPDEST SWAP1 POP PUSH0 DUP4 PUSH1 0x6 ADD PUSH0 PUSH2 0x100 EXP DUP2 SLOAD DUP2 PUSH1 0xFF MUL NOT AND SWAP1 DUP4 ISZERO ISZERO MUL OR SWAP1 SSTORE POP PUSH32 0xC4F057E87B29411545A6F83503E316FDA0DC00C7CD6BCCEFEDB5E808CB0473A2 DUP7 DUP7 PUSH1 0x1 SLOAD DUP7 PUSH1 0x3 ADD PUSH0 SWAP1 SLOAD SWAP1 PUSH2 0x100 EXP SWAP1 DIV PUSH20 0xFFFFFFFFFFFFFFFFFFFFFFFFFFFFFFFFFFFFFFFF AND DUP6 PUSH1 0x40 MLOAD PUSH2 0xF15 SWAP6 SWAP5 SWAP4 SWAP3 SWAP2 SWAP1 PUSH2 0x2BC9 JUMP JUMPDEST PUSH1 0x40 MLOAD DUP1 SWAP2 SUB SWAP1 LOG1 POP POP POP POP POP POP JUMP JUMPDEST PUSH0 DUP1 PUSH2 0xF30 DUP4 PUSH2 0x779 JUMP JUMPDEST SWAP1 POP PUSH0 DUP2 DUP5 PUSH2 0xF3F SWAP2 SWAP1 PUSH2 0x2C28 JUMP JUMPDEST SWAP1 POP PUSH32 0x7A48C33736CC83551ED4CAA7A29779E7CC364880BDE674452FC7BE480DAA0363 DUP5 DUP4 DUP4 PUSH1 0x40 MLOAD PUSH2 0xF74 SWAP4 SWAP3 SWAP2 SWAP1 PUSH2 0x2C5B JUMP JUMPDEST PUSH1 0x40 MLOAD DUP1 SWAP2 SUB SWAP1 LOG1 PUSH0 PUSH1 0x2 PUSH0 SWAP1 SLOAD SWAP1 PUSH2 0x100 EXP SWAP1 DIV PUSH20 0xFFFFFFFFFFFFFFFFFFFFFFFFFFFFFFFFFFFFFFFF AND PUSH20 0xFFFFFFFFFFFFFFFFFFFFFFFFFFFFFFFFFFFFFFFF AND DUP4 PUSH1 0x40 MLOAD PUSH2 0xFC2 SWAP1 PUSH2 0x2CBD JUMP JUMPDEST PUSH0 PUSH1 0x40 MLOAD DUP1 DUP4 SUB DUP2 DUP6 DUP8 GAS CALL SWAP3 POP POP POP RETURNDATASIZE DUP1 PUSH0 DUP2 EQ PUSH2 0xFFC JUMPI PUSH1 0x40 MLOAD SWAP2 POP PUSH1 0x1F NOT PUSH1 0x3F RETURNDATASIZE ADD AND DUP3 ADD PUSH1 0x40 MSTORE RETURNDATASIZE DUP3 MSTORE RETURNDATASIZE PUSH0 PUSH1 0x20 DUP5 ADD RETURNDATACOPY PUSH2 0x1001 JUMP JUMPDEST PUSH1 0x60 SWAP2 POP JUMPDEST POP POP SWAP1 POP DUP1 PUSH2 0x1045 JUMPI PUSH1 0x40 MLOAD PUSH32 0x8C379A000000000000000000000000000000000000000000000000000000000 DUP2 MSTORE PUSH1 0x4 ADD PUSH2 0x103C SWAP1 PUSH2 0x2D1B JUMP JUMPDEST PUSH1 0x40 MLOAD DUP1 SWAP2 SUB SWAP1 REVERT JUMPDEST PUSH1 0x2 PUSH0 SWAP1 SLOAD SWAP1 PUSH2 0x100 EXP SWAP1 DIV PUSH20 0xFFFFFFFFFFFFFFFFFFFFFFFFFFFFFFFFFFFFFFFF AND PUSH20 0xFFFFFFFFFFFFFFFFFFFFFFFFFFFFFFFFFFFFFFFF AND PUSH32 0x6C5EFEFF5C320943D265DC4E5F1AF95AD523555CE0C1957E367DDA5514572DF DUP5 PUSH1 0x40 MLOAD PUSH2 0x10AC SWAP2 SWAP1 PUSH2 0x1D29 JUMP JUMPDEST PUSH1 0x40 MLOAD DUP1 SWAP2 SUB SWAP1 LOG2 DUP2 SWAP4 POP POP POP POP SWAP2 SWAP1 POP JUMP JUMPDEST PUSH0 DUP1 PUSH3 0x159398 SWAP1 POP PUSH0 PUSH2 0x10D1 DUP7 PUSH2 0x14B8 JUMP JUMPDEST SWAP1 POP PUSH0 PUSH1 0x40 MLOAD DUP1 PUSH1 0xA0 ADD PUSH1 0x40 MSTORE DUP1 DUP7 DUP2 MSTORE PUSH1 0x20 ADD DUP4 PUSH20 0xFFFFFFFFFFFFFFFFFFFFFFFFFFFFFFFFFFFFFFFF AND DUP2 MSTORE PUSH1 0x20 ADD PUSH1 0x3C TIMESTAMP PUSH2 0x110E SWAP2 SWAP1 PUSH2 0x2D39 JUMP JUMPDEST DUP2 MSTORE PUSH1 0x20 ADD DUP8 DUP2 MSTORE PUSH1 0x20 ADD PUSH0 DUP2 MSTORE POP SWAP1 POP PUSH0 PUSH1 0x2 PUSH8 0xFFFFFFFFFFFFFFFF DUP2 GT ISZERO PUSH2 0x113B JUMPI PUSH2 0x113A PUSH2 0x19A3 JUMP JUMPDEST JUMPDEST PUSH1 0x40 MLOAD SWAP1 DUP1 DUP3 MSTORE DUP1 PUSH1 0x20 MUL PUSH1 0x20 ADD DUP3 ADD PUSH1 0x40 MSTORE DUP1 ISZERO PUSH2 0x116E JUMPI DUP2 PUSH1 0x20 ADD JUMPDEST PUSH1 0x60 DUP2 MSTORE PUSH1 0x20 ADD SWAP1 PUSH1 0x1 SWAP1 SUB SWAP1 DUP2 PUSH2 0x1159 JUMPI SWAP1 POP JUMPDEST POP SWAP1 POP PUSH4 0xC04B8D59 PUSH1 0xE0 SHL DUP3 PUSH1 0x40 MLOAD PUSH1 0x24 ADD PUSH2 0x118A SWAP2 SWAP1 PUSH2 0x2E4F JUMP JUMPDEST PUSH1 0x40 MLOAD PUSH1 0x20 DUP2 DUP4 SUB SUB DUP2 MSTORE SWAP1 PUSH1 0x40 MSTORE SWAP1 PUSH28 0xFFFFFFFFFFFFFFFFFFFFFFFFFFFFFFFFFFFFFFFFFFFFFFFFFFFFFFFF NOT AND PUSH1 0x20 DUP3 ADD DUP1 MLOAD PUSH28 0xFFFFFFFFFFFFFFFFFFFFFFFFFFFFFFFFFFFFFFFFFFFFFFFFFFFFFFFF DUP4 DUP2 DUP4 AND OR DUP4 MSTORE POP POP POP POP DUP2 PUSH0 DUP2 MLOAD DUP2 LT PUSH2 0x11FA JUMPI PUSH2 0x11F9 PUSH2 0x2E6F JUMP JUMPDEST JUMPDEST PUSH1 0x20 MUL PUSH1 0x20 ADD ADD DUP2 SWAP1 MSTORE POP PUSH4 0x12210E8A PUSH1 0xE0 SHL PUSH1 0x40 MLOAD PUSH1 0x24 ADD PUSH1 0x40 MLOAD PUSH1 0x20 DUP2 DUP4 SUB SUB DUP2 MSTORE SWAP1 PUSH1 0x40 MSTORE SWAP1 PUSH28 0xFFFFFFFFFFFFFFFFFFFFFFFFFFFFFFFFFFFFFFFFFFFFFFFFFFFFFFFF NOT AND PUSH1 0x20 DUP3 ADD DUP1 MLOAD PUSH28 0xFFFFFFFFFFFFFFFFFFFFFFFFFFFFFFFFFFFFFFFFFFFFFFFFFFFFFFFF DUP4 DUP2 DUP4 AND OR DUP4 MSTORE POP POP POP POP DUP2 PUSH1 0x1 DUP2 MLOAD DUP2 LT PUSH2 0x1284 JUMPI PUSH2 0x1283 PUSH2 0x2E6F JUMP JUMPDEST JUMPDEST PUSH1 0x20 MUL PUSH1 0x20 ADD ADD DUP2 SWAP1 MSTORE POP PUSH0 DUP5 PUSH20 0xFFFFFFFFFFFFFFFFFFFFFFFFFFFFFFFFFFFFFFFF AND PUSH4 0xAC9650D8 DUP10 DUP5 PUSH1 0x40 MLOAD DUP4 PUSH4 0xFFFFFFFF AND PUSH1 0xE0 SHL DUP2 MSTORE PUSH1 0x4 ADD PUSH2 0x12CA SWAP2 SWAP1 PUSH2 0x2F57 JUMP JUMPDEST PUSH0 PUSH1 0x40 MLOAD DUP1 DUP4 SUB DUP2 DUP6 DUP9 GAS CALL SWAP4 POP POP POP POP DUP1 ISZERO PUSH2 0x1309 JUMPI POP PUSH1 0x40 MLOAD RETURNDATASIZE PUSH0 DUP3 RETURNDATACOPY RETURNDATASIZE PUSH1 0x1F NOT PUSH1 0x1F DUP3 ADD AND DUP3 ADD DUP1 PUSH1 0x40 MSTORE POP DUP2 ADD SWAP1 PUSH2 0x1306 SWAP2 SWAP1 PUSH2 0x30C7 JUMP JUMPDEST PUSH1 0x1 JUMPDEST PUSH2 0x143F JUMPI PUSH2 0x1315 PUSH2 0x311A JUMP JUMPDEST DUP1 PUSH4 0x8C379A0 SUB PUSH2 0x13C9 JUMPI POP PUSH2 0x1329 PUSH2 0x3139 JUMP JUMPDEST DUP1 PUSH2 0x1334 JUMPI POP PUSH2 0x13CB JUMP JUMPDEST PUSH32 0x75775A37AD7D891F9F48727E889A78A65B96F98BD6265526F3928A303B7AFB0B PUSH0 DUP7 PUSH1 0x40 MLOAD PUSH2 0x1365 SWAP3 SWAP2 SWAP1 PUSH2 0x324B JUMP JUMPDEST PUSH1 0x40 MLOAD DUP1 SWAP2 SUB SWAP1 LOG1 DUP1 PUSH1 0x40 MLOAD PUSH1 0x20 ADD PUSH2 0x137E SWAP2 SWAP1 PUSH2 0x32CF JUMP JUMPDEST PUSH1 0x40 MLOAD PUSH1 0x20 DUP2 DUP4 SUB SUB DUP2 MSTORE SWAP1 PUSH1 0x40 MSTORE PUSH1 0x40 MLOAD PUSH32 0x8C379A000000000000000000000000000000000000000000000000000000000 DUP2 MSTORE PUSH1 0x4 ADD PUSH2 0x13C0 SWAP2 SWAP1 PUSH2 0x200C JUMP JUMPDEST PUSH1 0x40 MLOAD DUP1 SWAP2 SUB SWAP1 REVERT JUMPDEST POP JUMPDEST PUSH32 0x75775A37AD7D891F9F48727E889A78A65B96F98BD6265526F3928A303B7AFB0B PUSH0 DUP6 PUSH1 0x40 MLOAD PUSH2 0x13FC SWAP3 SWAP2 SWAP1 PUSH2 0x333A JUMP JUMPDEST PUSH1 0x40 MLOAD DUP1 SWAP2 SUB SWAP1 LOG1 PUSH1 0x40 MLOAD PUSH32 0x8C379A000000000000000000000000000000000000000000000000000000000 DUP2 MSTORE PUSH1 0x4 ADD PUSH2 0x1436 SWAP1 PUSH2 0x33E4 JUMP JUMPDEST PUSH1 0x40 MLOAD DUP1 SWAP2 SUB SWAP1 REVERT JUMPDEST DUP1 PUSH0 DUP2 MLOAD DUP2 LT PUSH2 0x1452 JUMPI PUSH2 0x1451 PUSH2 0x2E6F JUMP JUMPDEST JUMPDEST PUSH1 0x20 MUL PUSH1 0x20 ADD ADD MLOAD DUP1 PUSH1 0x20 ADD SWAP1 MLOAD DUP2 ADD SWAP1 PUSH2 0x146D SWAP2 SWAP1 PUSH2 0x3416 JUMP JUMPDEST SWAP2 POP PUSH32 0x75775A37AD7D891F9F48727E889A78A65B96F98BD6265526F3928A303B7AFB0B DUP3 DUP7 PUSH1 0x40 MLOAD PUSH2 0x14A0 SWAP3 SWAP2 SWAP1 PUSH2 0x348B JUMP JUMPDEST PUSH1 0x40 MLOAD DUP1 SWAP2 SUB SWAP1 LOG1 POP DUP1 SWAP6 POP POP POP POP POP POP SWAP4 SWAP3 POP POP POP JUMP JUMPDEST PUSH0 DUP1 PUSH2 0x14F9 DUP4 PUSH1 0x40 MLOAD DUP1 PUSH1 0x40 ADD PUSH1 0x40 MSTORE DUP1 PUSH1 0x1 DUP2 MSTORE PUSH1 0x20 ADD PUSH32 0x2E00000000000000000000000000000000000000000000000000000000000000 DUP2 MSTORE POP PUSH2 0x15CB JUMP JUMPDEST SWAP1 POP PUSH1 0x3 DUP2 MLOAD EQ PUSH2 0x153F JUMPI PUSH1 0x40 MLOAD PUSH32 0x8C379A000000000000000000000000000000000000000000000000000000000 DUP2 MSTORE PUSH1 0x4 ADD PUSH2 0x1536 SWAP1 PUSH2 0x350F JUMP JUMPDEST PUSH1 0x40 MLOAD DUP1 SWAP2 SUB SWAP1 REVERT JUMPDEST PUSH0 PUSH2 0x1563 DUP3 PUSH0 DUP2 MLOAD DUP2 LT PUSH2 0x1556 JUMPI PUSH2 0x1555 PUSH2 0x2E6F JUMP JUMPDEST JUMPDEST PUSH1 0x20 MUL PUSH1 0x20 ADD ADD MLOAD PUSH2 0x17F3 JUMP JUMPDEST SWAP1 POP PUSH0 PUSH2 0x158A DUP4 PUSH1 0x1 DUP2 MLOAD DUP2 LT PUSH2 0x157D JUMPI PUSH2 0x157C PUSH2 0x2E6F JUMP JUMPDEST JUMPDEST PUSH1 0x20 MUL PUSH1 0x20 ADD ADD MLOAD PUSH2 0x17F3 JUMP JUMPDEST SWAP1 POP PUSH0 PUSH2 0x15B1 DUP5 PUSH1 0x2 DUP2 MLOAD DUP2 LT PUSH2 0x15A4 JUMPI PUSH2 0x15A3 PUSH2 0x2E6F JUMP JUMPDEST JUMPDEST PUSH1 0x20 MUL PUSH1 0x20 ADD ADD MLOAD PUSH2 0x17F3 JUMP JUMPDEST SWAP1 POP DUP1 PUSH1 0x20 DUP4 SWAP1 SHL PUSH1 0x28 DUP6 SWAP1 SHL OR OR SWAP5 POP POP POP POP POP SWAP2 SWAP1 POP JUMP JUMPDEST PUSH1 0x60 PUSH0 DUP4 SWAP1 POP PUSH0 PUSH1 0x1 SWAP1 POP PUSH0 JUMPDEST DUP3 MLOAD DUP2 LT ISZERO PUSH2 0x1682 JUMPI DUP5 PUSH0 DUP2 MLOAD DUP2 LT PUSH2 0x15F4 JUMPI PUSH2 0x15F3 PUSH2 0x2E6F JUMP JUMPDEST JUMPDEST PUSH1 0x20 ADD ADD MLOAD PUSH1 0xF8 SHR PUSH1 0xF8 SHL PUSH31 0xFFFFFFFFFFFFFFFFFFFFFFFFFFFFFFFFFFFFFFFFFFFFFFFFFFFFFFFFFFFFFF NOT AND DUP4 DUP3 DUP2 MLOAD DUP2 LT PUSH2 0x1634 JUMPI PUSH2 0x1633 PUSH2 0x2E6F JUMP JUMPDEST JUMPDEST PUSH1 0x20 ADD ADD MLOAD PUSH1 0xF8 SHR PUSH1 0xF8 SHL PUSH31 0xFFFFFFFFFFFFFFFFFFFFFFFFFFFFFFFFFFFFFFFFFFFFFFFFFFFFFFFFFFFFFF NOT AND SUB PUSH2 0x1675 JUMPI DUP2 DUP1 PUSH2 0x1671 SWAP1 PUSH2 0x352D JUMP JUMPDEST SWAP3 POP POP JUMPDEST DUP1 DUP1 PUSH1 0x1 ADD SWAP2 POP POP PUSH2 0x15D8 JUMP JUMPDEST POP PUSH0 DUP2 PUSH8 0xFFFFFFFFFFFFFFFF DUP2 GT ISZERO PUSH2 0x169E JUMPI PUSH2 0x169D PUSH2 0x19A3 JUMP JUMPDEST JUMPDEST PUSH1 0x40 MLOAD SWAP1 DUP1 DUP3 MSTORE DUP1 PUSH1 0x20 MUL PUSH1 0x20 ADD DUP3 ADD PUSH1 0x40 MSTORE DUP1 ISZERO PUSH2 0x16D1 JUMPI DUP2 PUSH1 0x20 ADD JUMPDEST PUSH1 0x60 DUP2 MSTORE PUSH1 0x20 ADD SWAP1 PUSH1 0x1 SWAP1 SUB SWAP1 DUP2 PUSH2 0x16BC JUMPI SWAP1 POP JUMPDEST POP SWAP1 POP PUSH0 DUP1 PUSH0 JUMPDEST DUP6 MLOAD DUP2 LT ISZERO PUSH2 0x17BA JUMPI DUP8 PUSH0 DUP2 MLOAD DUP2 LT PUSH2 0x16F4 JUMPI PUSH2 0x16F3 PUSH2 0x2E6F JUMP JUMPDEST JUMPDEST PUSH1 0x20 ADD ADD MLOAD PUSH1 0xF8 SHR PUSH1 0xF8 SHL PUSH31 0xFFFFFFFFFFFFFFFFFFFFFFFFFFFFFFFFFFFFFFFFFFFFFFFFFFFFFFFFFFFFFF NOT AND DUP7 DUP3 DUP2 MLOAD DUP2 LT PUSH2 0x1734 JUMPI PUSH2 0x1733 PUSH2 0x2E6F JUMP JUMPDEST JUMPDEST PUSH1 0x20 ADD ADD MLOAD PUSH1 0xF8 SHR PUSH1 0xF8 SHL PUSH31 0xFFFFFFFFFFFFFFFFFFFFFFFFFFFFFFFFFFFFFFFFFFFFFFFFFFFFFFFFFFFFFF NOT AND SUB PUSH2 0x17AD JUMPI PUSH2 0x1771 DUP10 DUP5 DUP4 PUSH2 0x1888 JUMP JUMPDEST DUP5 DUP4 DUP2 MLOAD DUP2 LT PUSH2 0x1784 JUMPI PUSH2 0x1783 PUSH2 0x2E6F JUMP JUMPDEST JUMPDEST PUSH1 0x20 MUL PUSH1 0x20 ADD ADD DUP2 SWAP1 MSTORE POP PUSH1 0x1 DUP2 PUSH2 0x179C SWAP2 SWAP1 PUSH2 0x2D39 JUMP JUMPDEST SWAP3 POP DUP2 DUP1 PUSH2 0x17A9 SWAP1 PUSH2 0x352D JUMP JUMPDEST SWAP3 POP POP JUMPDEST DUP1 DUP1 PUSH1 0x1 ADD SWAP2 POP POP PUSH2 0x16D8 JUMP JUMPDEST POP PUSH2 0x17C7 DUP9 DUP4 DUP8 MLOAD PUSH2 0x1888 JUMP JUMPDEST DUP4 DUP3 DUP2 MLOAD DUP2 LT PUSH2 0x17DA JUMPI PUSH2 0x17D9 PUSH2 0x2E6F JUMP JUMPDEST JUMPDEST PUSH1 0x20 MUL PUSH1 0x20 ADD ADD DUP2 SWAP1 MSTORE POP DUP3 SWAP6 POP POP POP POP POP POP SWAP3 SWAP2 POP POP JUMP JUMPDEST PUSH0 DUP1 DUP3 SWAP1 POP PUSH0 DUP1 JUMPDEST DUP3 MLOAD DUP2 LT ISZERO PUSH2 0x187D JUMPI PUSH0 DUP4 DUP3 DUP2 MLOAD DUP2 LT PUSH2 0x1818 JUMPI PUSH2 0x1817 PUSH2 0x2E6F JUMP JUMPDEST JUMPDEST PUSH1 0x20 ADD ADD MLOAD PUSH1 0xF8 SHR PUSH1 0xF8 SHL PUSH1 0xF8 SHR SWAP1 POP PUSH1 0x30 DUP2 PUSH1 0xFF AND LT ISZERO DUP1 ISZERO PUSH2 0x1840 JUMPI POP PUSH1 0x39 DUP2 PUSH1 0xFF AND GT ISZERO JUMPDEST ISZERO PUSH2 0x186F JUMPI PUSH1 0x30 DUP2 PUSH2 0x1852 SWAP2 SWAP1 PUSH2 0x3580 JUMP JUMPDEST PUSH1 0xFF AND PUSH1 0xA DUP5 PUSH2 0x1862 SWAP2 SWAP1 PUSH2 0x2263 JUMP JUMPDEST PUSH2 0x186C SWAP2 SWAP1 PUSH2 0x2D39 JUMP JUMPDEST SWAP3 POP JUMPDEST POP DUP1 DUP1 PUSH1 0x1 ADD SWAP2 POP POP PUSH2 0x17FB JUMP JUMPDEST POP DUP1 SWAP3 POP POP POP SWAP2 SWAP1 POP JUMP JUMPDEST PUSH1 0x60 PUSH0 DUP5 SWAP1 POP PUSH0 DUP5 DUP5 PUSH2 0x189B SWAP2 SWAP1 PUSH2 0x2C28 JUMP JUMPDEST PUSH8 0xFFFFFFFFFFFFFFFF DUP2 GT ISZERO PUSH2 0x18B4 JUMPI PUSH2 0x18B3 PUSH2 0x19A3 JUMP JUMPDEST JUMPDEST PUSH1 0x40 MLOAD SWAP1 DUP1 DUP3 MSTORE DUP1 PUSH1 0x1F ADD PUSH1 0x1F NOT AND PUSH1 0x20 ADD DUP3 ADD PUSH1 0x40 MSTORE DUP1 ISZERO PUSH2 0x18E6 JUMPI DUP2 PUSH1 0x20 ADD PUSH1 0x1 DUP3 MUL DUP1 CALLDATASIZE DUP4 CALLDATACOPY DUP1 DUP3 ADD SWAP2 POP POP SWAP1 POP JUMPDEST POP SWAP1 POP PUSH0 DUP6 SWAP1 POP JUMPDEST DUP5 DUP2 LT ISZERO PUSH2 0x196D JUMPI DUP3 DUP2 DUP2 MLOAD DUP2 LT PUSH2 0x1909 JUMPI PUSH2 0x1908 PUSH2 0x2E6F JUMP JUMPDEST JUMPDEST PUSH1 0x20 ADD ADD MLOAD PUSH1 0xF8 SHR PUSH1 0xF8 SHL DUP3 DUP8 DUP4 PUSH2 0x1921 SWAP2 SWAP1 PUSH2 0x2C28 JUMP JUMPDEST DUP2 MLOAD DUP2 LT PUSH2 0x1932 JUMPI PUSH2 0x1931 PUSH2 0x2E6F JUMP JUMPDEST JUMPDEST PUSH1 0x20 ADD ADD SWAP1 PUSH31 0xFFFFFFFFFFFFFFFFFFFFFFFFFFFFFFFFFFFFFFFFFFFFFFFFFFFFFFFFFFFFFF NOT AND SWAP1 DUP2 PUSH0 BYTE SWAP1 MSTORE8 POP DUP1 DUP1 PUSH1 0x1 ADD SWAP2 POP POP PUSH2 0x18EE JUMP JUMPDEST POP DUP1 SWAP3 POP POP POP SWAP4 SWAP3 POP POP POP JUMP JUMPDEST PUSH0 PUSH1 0x40 MLOAD SWAP1 POP SWAP1 JUMP JUMPDEST PUSH0 DUP1 REVERT JUMPDEST PUSH0 DUP1 REVERT JUMPDEST PUSH0 DUP1 REVERT JUMPDEST PUSH0 DUP1 REVERT JUMPDEST PUSH0 PUSH1 0x1F NOT PUSH1 0x1F DUP4 ADD AND SWAP1 POP SWAP2 SWAP1 POP JUMP JUMPDEST PUSH32 0x4E487B7100000000000000000000000000000000000000000000000000000000 PUSH0 MSTORE PUSH1 0x41 PUSH1 0x4 MSTORE PUSH1 0x24 PUSH0 REVERT JUMPDEST PUSH2 0x19D9 DUP3 PUSH2 0x1993 JUMP JUMPDEST DUP2 ADD DUP2 DUP2 LT PUSH8 0xFFFFFFFFFFFFFFFF DUP3 GT OR ISZERO PUSH2 0x19F8 JUMPI PUSH2 0x19F7 PUSH2 0x19A3 JUMP JUMPDEST JUMPDEST DUP1 PUSH1 0x40 MSTORE POP POP POP JUMP JUMPDEST PUSH0 PUSH2 0x1A0A PUSH2 0x197A JUMP JUMPDEST SWAP1 POP PUSH2 0x1A16 DUP3 DUP3 PUSH2 0x19D0 JUMP JUMPDEST SWAP2 SWAP1 POP JUMP JUMPDEST PUSH0 PUSH8 0xFFFFFFFFFFFFFFFF DUP3 GT ISZERO PUSH2 0x1A35 JUMPI PUSH2 0x1A34 PUSH2 0x19A3 JUMP JUMPDEST JUMPDEST PUSH2 0x1A3E DUP3 PUSH2 0x1993 JUMP JUMPDEST SWAP1 POP PUSH1 0x20 DUP2 ADD SWAP1 POP SWAP2 SWAP1 POP JUMP JUMPDEST DUP3 DUP2 DUP4 CALLDATACOPY PUSH0 DUP4 DUP4 ADD MSTORE POP POP POP JUMP JUMPDEST PUSH0 PUSH2 0x1A6B PUSH2 0x1A66 DUP5 PUSH2 0x1A1B JUMP JUMPDEST PUSH2 0x1A01 JUMP JUMPDEST SWAP1 POP DUP3 DUP2 MSTORE PUSH1 0x20 DUP2 ADD DUP5 DUP5 DUP5 ADD GT ISZERO PUSH2 0x1A87 JUMPI PUSH2 0x1A86 PUSH2 0x198F JUMP JUMPDEST JUMPDEST PUSH2 0x1A92 DUP5 DUP3 DUP6 PUSH2 0x1A4B JUMP JUMPDEST POP SWAP4 SWAP3 POP POP POP JUMP JUMPDEST PUSH0 DUP3 PUSH1 0x1F DUP4 ADD SLT PUSH2 0x1AAE JUMPI PUSH2 0x1AAD PUSH2 0x198B JUMP JUMPDEST JUMPDEST DUP2 CALLDATALOAD PUSH2 0x1ABE DUP5 DUP3 PUSH1 0x20 DUP7 ADD PUSH2 0x1A59 JUMP JUMPDEST SWAP2 POP POP SWAP3 SWAP2 POP POP JUMP JUMPDEST PUSH0 PUSH1 0x20 DUP3 DUP5 SUB SLT ISZERO PUSH2 0x1ADC JUMPI PUSH2 0x1ADB PUSH2 0x1983 JUMP JUMPDEST JUMPDEST PUSH0 DUP3 ADD CALLDATALOAD PUSH8 0xFFFFFFFFFFFFFFFF DUP2 GT ISZERO PUSH2 0x1AF9 JUMPI PUSH2 0x1AF8 PUSH2 0x1987 JUMP JUMPDEST JUMPDEST PUSH2 0x1B05 DUP5 DUP3 DUP6 ADD PUSH2 0x1A9A JUMP JUMPDEST SWAP2 POP POP SWAP3 SWAP2 POP POP JUMP JUMPDEST PUSH0 DUP2 SWAP1 POP SWAP2 SWAP1 POP JUMP JUMPDEST PUSH2 0x1B20 DUP2 PUSH2 0x1B0E JUMP JUMPDEST DUP3 MSTORE POP POP JUMP JUMPDEST PUSH0 DUP2 MLOAD SWAP1 POP SWAP2 SWAP1 POP JUMP JUMPDEST PUSH0 DUP3 DUP3 MSTORE PUSH1 0x20 DUP3 ADD SWAP1 POP SWAP3 SWAP2 POP POP JUMP JUMPDEST DUP3 DUP2 DUP4 MCOPY PUSH0 DUP4 DUP4 ADD MSTORE POP POP POP JUMP JUMPDEST PUSH0 PUSH2 0x1B58 DUP3 PUSH2 0x1B26 JUMP JUMPDEST PUSH2 0x1B62 DUP2 DUP6 PUSH2 0x1B30 JUMP JUMPDEST SWAP4 POP PUSH2 0x1B72 DUP2 DUP6 PUSH1 0x20 DUP7 ADD PUSH2 0x1B40 JUMP JUMPDEST PUSH2 0x1B7B DUP2 PUSH2 0x1993 JUMP JUMPDEST DUP5 ADD SWAP2 POP POP SWAP3 SWAP2 POP POP JUMP JUMPDEST PUSH0 PUSH20 0xFFFFFFFFFFFFFFFFFFFFFFFFFFFFFFFFFFFFFFFF DUP3 AND SWAP1 POP SWAP2 SWAP1 POP JUMP JUMPDEST PUSH0 PUSH2 0x1BAF DUP3 PUSH2 0x1B86 JUMP JUMPDEST SWAP1 POP SWAP2 SWAP1 POP JUMP JUMPDEST PUSH2 0x1BBF DUP2 PUSH2 0x1BA5 JUMP JUMPDEST DUP3 MSTORE POP POP JUMP JUMPDEST PUSH0 DUP2 ISZERO ISZERO SWAP1 POP SWAP2 SWAP1 POP JUMP JUMPDEST PUSH2 0x1BD9 DUP2 PUSH2 0x1BC5 JUMP JUMPDEST DUP3 MSTORE POP POP JUMP JUMPDEST PUSH0 PUSH1 0xE0 DUP3 ADD SWAP1 POP PUSH2 0x1BF2 PUSH0 DUP4 ADD DUP11 PUSH2 0x1B17 JUMP JUMPDEST PUSH2 0x1BFF PUSH1 0x20 DUP4 ADD DUP10 PUSH2 0x1B17 JUMP JUMPDEST DUP2 DUP2 SUB PUSH1 0x40 DUP4 ADD MSTORE PUSH2 0x1C11 DUP2 DUP9 PUSH2 0x1B4E JUMP JUMPDEST SWAP1 POP PUSH2 0x1C20 PUSH1 0x60 DUP4 ADD DUP8 PUSH2 0x1BB6 JUMP JUMPDEST PUSH2 0x1C2D PUSH1 0x80 DUP4 ADD DUP7 PUSH2 0x1B17 JUMP JUMPDEST PUSH2 0x1C3A PUSH1 0xA0 DUP4 ADD DUP6 PUSH2 0x1B17 JUMP JUMPDEST PUSH2 0x1C47 PUSH1 0xC0 DUP4 ADD DUP5 PUSH2 0x1BD0 JUMP JUMPDEST SWAP9 SWAP8 POP POP POP POP POP POP POP POP JUMP JUMPDEST PUSH2 0x1C5C DUP2 PUSH2 0x1BA5 JUMP JUMPDEST DUP2 EQ PUSH2 0x1C66 JUMPI PUSH0 DUP1 REVERT JUMPDEST POP JUMP JUMPDEST PUSH0 DUP2 CALLDATALOAD SWAP1 POP PUSH2 0x1C77 DUP2 PUSH2 0x1C53 JUMP JUMPDEST SWAP3 SWAP2 POP POP JUMP JUMPDEST PUSH2 0x1C86 DUP2 PUSH2 0x1B0E JUMP JUMPDEST DUP2 EQ PUSH2 0x1C90 JUMPI PUSH0 DUP1 REVERT JUMPDEST POP JUMP JUMPDEST PUSH0 DUP2 CALLDATALOAD SWAP1 POP PUSH2 0x1CA1 DUP2 PUSH2 0x1C7D JUMP JUMPDEST SWAP3 SWAP2 POP POP JUMP JUMPDEST PUSH0 DUP1 PUSH1 0x40 DUP4 DUP6 SUB SLT ISZERO PUSH2 0x1CBD JUMPI PUSH2 0x1CBC PUSH2 0x1983 JUMP JUMPDEST JUMPDEST PUSH0 PUSH2 0x1CCA DUP6 DUP3 DUP7 ADD PUSH2 0x1C69 JUMP JUMPDEST SWAP3 POP POP PUSH1 0x20 PUSH2 0x1CDB DUP6 DUP3 DUP7 ADD PUSH2 0x1C93 JUMP JUMPDEST SWAP2 POP POP SWAP3 POP SWAP3 SWAP1 POP JUMP JUMPDEST PUSH0 PUSH1 0x20 DUP3 ADD SWAP1 POP PUSH2 0x1CF8 PUSH0 DUP4 ADD DUP5 PUSH2 0x1BB6 JUMP JUMPDEST SWAP3 SWAP2 POP POP JUMP JUMPDEST PUSH0 PUSH1 0x20 DUP3 DUP5 SUB SLT ISZERO PUSH2 0x1D13 JUMPI PUSH2 0x1D12 PUSH2 0x1983 JUMP JUMPDEST JUMPDEST PUSH0 PUSH2 0x1D20 DUP5 DUP3 DUP6 ADD PUSH2 0x1C93 JUMP JUMPDEST SWAP2 POP POP SWAP3 SWAP2 POP POP JUMP JUMPDEST PUSH0 PUSH1 0x20 DUP3 ADD SWAP1 POP PUSH2 0x1D3C PUSH0 DUP4 ADD DUP5 PUSH2 0x1B17 JUMP JUMPDEST SWAP3 SWAP2 POP POP JUMP JUMPDEST PUSH0 PUSH1 0x20 DUP3 DUP5 SUB SLT ISZERO PUSH2 0x1D57 JUMPI PUSH2 0x1D56 PUSH2 0x1983 JUMP JUMPDEST JUMPDEST PUSH0 PUSH2 0x1D64 DUP5 DUP3 DUP6 ADD PUSH2 0x1C69 JUMP JUMPDEST SWAP2 POP POP SWAP3 SWAP2 POP POP JUMP JUMPDEST PUSH0 DUP1 PUSH0 DUP1 PUSH0 DUP1 PUSH1 0xC0 DUP8 DUP10 SUB SLT ISZERO PUSH2 0x1D87 JUMPI PUSH2 0x1D86 PUSH2 0x1983 JUMP JUMPDEST JUMPDEST PUSH0 PUSH2 0x1D94 DUP10 DUP3 DUP11 ADD PUSH2 0x1C93 JUMP JUMPDEST SWAP7 POP POP PUSH1 0x20 PUSH2 0x1DA5 DUP10 DUP3 DUP11 ADD PUSH2 0x1C93 JUMP JUMPDEST SWAP6 POP POP PUSH1 0x40 DUP8 ADD CALLDATALOAD PUSH8 0xFFFFFFFFFFFFFFFF DUP2 GT ISZERO PUSH2 0x1DC6 JUMPI PUSH2 0x1DC5 PUSH2 0x1987 JUMP JUMPDEST JUMPDEST PUSH2 0x1DD2 DUP10 DUP3 DUP11 ADD PUSH2 0x1A9A JUMP JUMPDEST SWAP5 POP POP PUSH1 0x60 PUSH2 0x1DE3 DUP10 DUP3 DUP11 ADD PUSH2 0x1C69 JUMP JUMPDEST SWAP4 POP POP PUSH1 0x80 PUSH2 0x1DF4 DUP10 DUP3 DUP11 ADD PUSH2 0x1C93 JUMP JUMPDEST SWAP3 POP POP PUSH1 0xA0 PUSH2 0x1E05 DUP10 DUP3 DUP11 ADD PUSH2 0x1C93 JUMP JUMPDEST SWAP2 POP POP SWAP3 SWAP6 POP SWAP3 SWAP6 POP SWAP3 SWAP6 JUMP JUMPDEST PUSH0 PUSH8 0xFFFFFFFFFFFFFFFF DUP3 GT ISZERO PUSH2 0x1E2C JUMPI PUSH2 0x1E2B PUSH2 0x19A3 JUMP JUMPDEST JUMPDEST PUSH2 0x1E35 DUP3 PUSH2 0x1993 JUMP JUMPDEST SWAP1 POP PUSH1 0x20 DUP2 ADD SWAP1 POP SWAP2 SWAP1 POP JUMP JUMPDEST PUSH0 PUSH2 0x1E54 PUSH2 0x1E4F DUP5 PUSH2 0x1E12 JUMP JUMPDEST PUSH2 0x1A01 JUMP JUMPDEST SWAP1 POP DUP3 DUP2 MSTORE PUSH1 0x20 DUP2 ADD DUP5 DUP5 DUP5 ADD GT ISZERO PUSH2 0x1E70 JUMPI PUSH2 0x1E6F PUSH2 0x198F JUMP JUMPDEST JUMPDEST PUSH2 0x1E7B DUP5 DUP3 DUP6 PUSH2 0x1A4B JUMP JUMPDEST POP SWAP4 SWAP3 POP POP POP JUMP JUMPDEST PUSH0 DUP3 PUSH1 0x1F DUP4 ADD SLT PUSH2 0x1E97 JUMPI PUSH2 0x1E96 PUSH2 0x198B JUMP JUMPDEST JUMPDEST DUP2 CALLDATALOAD PUSH2 0x1EA7 DUP5 DUP3 PUSH1 0x20 DUP7 ADD PUSH2 0x1E42 JUMP JUMPDEST SWAP2 POP POP SWAP3 SWAP2 POP POP JUMP JUMPDEST PUSH0 DUP1 PUSH0 PUSH1 0x60 DUP5 DUP7 SUB SLT ISZERO PUSH2 0x1EC7 JUMPI PUSH2 0x1EC6 PUSH2 0x1983 JUMP JUMPDEST JUMPDEST PUSH0 DUP5 ADD CALLDATALOAD PUSH8 0xFFFFFFFFFFFFFFFF DUP2 GT ISZERO PUSH2 0x1EE4 JUMPI PUSH2 0x1EE3 PUSH2 0x1987 JUMP JUMPDEST JUMPDEST PUSH2 0x1EF0 DUP7 DUP3 DUP8 ADD PUSH2 0x1A9A JUMP JUMPDEST SWAP4 POP POP PUSH1 0x20 DUP5 ADD CALLDATALOAD PUSH8 0xFFFFFFFFFFFFFFFF DUP2 GT ISZERO PUSH2 0x1F11 JUMPI PUSH2 0x1F10 PUSH2 0x1987 JUMP JUMPDEST JUMPDEST PUSH2 0x1F1D DUP7 DUP3 DUP8 ADD PUSH2 0x1A9A JUMP JUMPDEST SWAP3 POP POP PUSH1 0x40 DUP5 ADD CALLDATALOAD PUSH8 0xFFFFFFFFFFFFFFFF DUP2 GT ISZERO PUSH2 0x1F3E JUMPI PUSH2 0x1F3D PUSH2 0x1987 JUMP JUMPDEST JUMPDEST PUSH2 0x1F4A DUP7 DUP3 DUP8 ADD PUSH2 0x1E83 JUMP JUMPDEST SWAP2 POP POP SWAP3 POP SWAP3 POP SWAP3 JUMP JUMPDEST PUSH0 DUP2 SWAP1 POP SWAP3 SWAP2 POP POP JUMP JUMPDEST PUSH0 PUSH2 0x1F68 DUP3 PUSH2 0x1B26 JUMP JUMPDEST PUSH2 0x1F72 DUP2 DUP6 PUSH2 0x1F54 JUMP JUMPDEST SWAP4 POP PUSH2 0x1F82 DUP2 DUP6 PUSH1 0x20 DUP7 ADD PUSH2 0x1B40 JUMP JUMPDEST DUP1 DUP5 ADD SWAP2 POP POP SWAP3 SWAP2 POP POP JUMP JUMPDEST PUSH0 PUSH2 0x1F99 DUP3 DUP5 PUSH2 0x1F5E JUMP JUMPDEST SWAP2 POP DUP2 SWAP1 POP SWAP3 SWAP2 POP POP JUMP JUMPDEST PUSH32 0x4E6F20616374697665207468726573686F6C647320666F756E64000000000000 PUSH0 DUP3 ADD MSTORE POP JUMP JUMPDEST PUSH0 PUSH2 0x1FD8 PUSH1 0x1A DUP4 PUSH2 0x1B30 JUMP JUMPDEST SWAP2 POP PUSH2 0x1FE3 DUP3 PUSH2 0x1FA4 JUMP JUMPDEST PUSH1 0x20 DUP3 ADD SWAP1 POP SWAP2 SWAP1 POP JUMP JUMPDEST PUSH0 PUSH1 0x20 DUP3 ADD SWAP1 POP DUP2 DUP2 SUB PUSH0 DUP4 ADD MSTORE PUSH2 0x2005 DUP2 PUSH2 0x1FCC JUMP JUMPDEST SWAP1 POP SWAP2 SWAP1 POP JUMP JUMPDEST PUSH0 PUSH1 0x20 DUP3 ADD SWAP1 POP DUP2 DUP2 SUB PUSH0 DUP4 ADD MSTORE PUSH2 0x2024 DUP2 DUP5 PUSH2 0x1B4E JUMP JUMPDEST SWAP1 POP SWAP3 SWAP2 POP POP JUMP JUMPDEST PUSH32 0x4E487B7100000000000000000000000000000000000000000000000000000000 PUSH0 MSTORE PUSH1 0x22 PUSH1 0x4 MSTORE PUSH1 0x24 PUSH0 REVERT JUMPDEST PUSH0 PUSH1 0x2 DUP3 DIV SWAP1 POP PUSH1 0x1 DUP3 AND DUP1 PUSH2 0x2070 JUMPI PUSH1 0x7F DUP3 AND SWAP2 POP JUMPDEST PUSH1 0x20 DUP3 LT DUP2 SUB PUSH2 0x2083 JUMPI PUSH2 0x2082 PUSH2 0x202C JUMP JUMPDEST JUMPDEST POP SWAP2 SWAP1 POP JUMP JUMPDEST PUSH0 PUSH1 0x80 DUP3 ADD SWAP1 POP PUSH2 0x209C PUSH0 DUP4 ADD DUP8 PUSH2 0x1BB6 JUMP JUMPDEST PUSH2 0x20A9 PUSH1 0x20 DUP4 ADD DUP7 PUSH2 0x1BB6 JUMP JUMPDEST PUSH2 0x20B6 PUSH1 0x40 DUP4 ADD DUP6 PUSH2 0x1BB6 JUMP JUMPDEST PUSH2 0x20C3 PUSH1 0x60 DUP4 ADD DUP5 PUSH2 0x1B17 JUMP JUMPDEST SWAP6 SWAP5 POP POP POP POP POP JUMP JUMPDEST PUSH0 DUP2 PUSH1 0x7 SIGNEXTEND SWAP1 POP SWAP2 SWAP1 POP JUMP JUMPDEST PUSH2 0x20E1 DUP2 PUSH2 0x20CC JUMP JUMPDEST DUP2 EQ PUSH2 0x20EB JUMPI PUSH0 DUP1 REVERT JUMPDEST POP JUMP JUMPDEST PUSH0 DUP2 MLOAD SWAP1 POP PUSH2 0x20FC DUP2 PUSH2 0x20D8 JUMP JUMPDEST SWAP3 SWAP2 POP POP JUMP JUMPDEST PUSH0 PUSH1 0x20 DUP3 DUP5 SUB SLT ISZERO PUSH2 0x2117 JUMPI PUSH2 0x2116 PUSH2 0x1983 JUMP JUMPDEST JUMPDEST PUSH0 PUSH2 0x2124 DUP5 DUP3 DUP6 ADD PUSH2 0x20EE JUMP JUMPDEST SWAP2 POP POP SWAP3 SWAP2 POP POP JUMP JUMPDEST PUSH32 0x526F7574657220617070726F76616C20617474656D7074000000000000000000 PUSH0 DUP3 ADD MSTORE POP JUMP JUMPDEST PUSH0 PUSH2 0x2161 PUSH1 0x17 DUP4 PUSH2 0x1B30 JUMP JUMPDEST SWAP2 POP PUSH2 0x216C DUP3 PUSH2 0x212D JUMP JUMPDEST PUSH1 0x20 DUP3 ADD SWAP1 POP SWAP2 SWAP1 POP JUMP JUMPDEST PUSH2 0x2180 DUP2 PUSH2 0x20CC JUMP JUMPDEST DUP3 MSTORE POP POP JUMP JUMPDEST PUSH0 PUSH1 0x80 DUP3 ADD SWAP1 POP DUP2 DUP2 SUB PUSH0 DUP4 ADD MSTORE PUSH2 0x219D DUP2 PUSH2 0x2155 JUMP JUMPDEST SWAP1 POP PUSH2 0x21AC PUSH1 0x20 DUP4 ADD DUP7 PUSH2 0x1BB6 JUMP JUMPDEST PUSH2 0x21B9 PUSH1 0x40 DUP4 ADD DUP6 PUSH2 0x1B17 JUMP JUMPDEST PUSH2 0x21C6 PUSH1 0x60 DUP4 ADD DUP5 PUSH2 0x2177 JUMP JUMPDEST SWAP5 SWAP4 POP POP POP POP JUMP JUMPDEST PUSH32 0x526F7574657220617070726F76616C206661696C656400000000000000000000 PUSH0 DUP3 ADD MSTORE POP JUMP JUMPDEST PUSH0 PUSH2 0x2202 PUSH1 0x16 DUP4 PUSH2 0x1B30 JUMP JUMPDEST SWAP2 POP PUSH2 0x220D DUP3 PUSH2 0x21CE JUMP JUMPDEST PUSH1 0x20 DUP3 ADD SWAP1 POP SWAP2 SWAP1 POP JUMP JUMPDEST PUSH0 PUSH1 0x20 DUP3 ADD SWAP1 POP DUP2 DUP2 SUB PUSH0 DUP4 ADD MSTORE PUSH2 0x222F DUP2 PUSH2 0x21F6 JUMP JUMPDEST SWAP1 POP SWAP2 SWAP1 POP JUMP JUMPDEST PUSH32 0x4E487B7100000000000000000000000000000000000000000000000000000000 PUSH0 MSTORE PUSH1 0x11 PUSH1 0x4 MSTORE PUSH1 0x24 PUSH0 REVERT JUMPDEST PUSH0 PUSH2 0x226D DUP3 PUSH2 0x1B0E JUMP JUMPDEST SWAP2 POP PUSH2 0x2278 DUP4 PUSH2 0x1B0E JUMP JUMPDEST SWAP3 POP DUP3 DUP3 MUL PUSH2 0x2286 DUP2 PUSH2 0x1B0E JUMP JUMPDEST SWAP2 POP DUP3 DUP3 DIV DUP5 EQ DUP4 ISZERO OR PUSH2 0x229D JUMPI PUSH2 0x229C PUSH2 0x2236 JUMP JUMPDEST JUMPDEST POP SWAP3 SWAP2 POP POP JUMP JUMPDEST PUSH32 0x4E487B7100000000000000000000000000000000000000000000000000000000 PUSH0 MSTORE PUSH1 0x12 PUSH1 0x4 MSTORE PUSH1 0x24 PUSH0 REVERT JUMPDEST PUSH0 PUSH2 0x22DB DUP3 PUSH2 0x1B0E JUMP JUMPDEST SWAP2 POP PUSH2 0x22E6 DUP4 PUSH2 0x1B0E JUMP JUMPDEST SWAP3 POP DUP3 PUSH2 0x22F6 JUMPI PUSH2 0x22F5 PUSH2 0x22A4 JUMP JUMPDEST JUMPDEST DUP3 DUP3 DIV SWAP1 POP SWAP3 SWAP2 POP POP JUMP JUMPDEST PUSH32 0x4F6E6C79206F776E65722063616E2063616C6C20746869732066756E6374696F PUSH0 DUP3 ADD MSTORE PUSH32 0x6E00000000000000000000000000000000000000000000000000000000000000 PUSH1 0x20 DUP3 ADD MSTORE POP JUMP JUMPDEST PUSH0 PUSH2 0x235B PUSH1 0x21 DUP4 PUSH2 0x1B30 JUMP JUMPDEST SWAP2 POP PUSH2 0x2366 DUP3 PUSH2 0x2301 JUMP JUMPDEST PUSH1 0x40 DUP3 ADD SWAP1 POP SWAP2 SWAP1 POP JUMP JUMPDEST PUSH0 PUSH1 0x20 DUP3 ADD SWAP1 POP DUP2 DUP2 SUB PUSH0 DUP4 ADD MSTORE PUSH2 0x2388 DUP2 PUSH2 0x234F JUMP JUMPDEST SWAP1 POP SWAP2 SWAP1 POP JUMP JUMPDEST PUSH32 0x496E76616C69642066656520636F6C6C6563746F722061646472657373000000 PUSH0 DUP3 ADD MSTORE POP JUMP JUMPDEST PUSH0 PUSH2 0x23C3 PUSH1 0x1D DUP4 PUSH2 0x1B30 JUMP JUMPDEST SWAP2 POP PUSH2 0x23CE DUP3 PUSH2 0x238F JUMP JUMPDEST PUSH1 0x20 DUP3 ADD SWAP1 POP SWAP2 SWAP1 POP JUMP JUMPDEST PUSH0 PUSH1 0x20 DUP3 ADD SWAP1 POP DUP2 DUP2 SUB PUSH0 DUP4 ADD MSTORE PUSH2 0x23F0 DUP2 PUSH2 0x23B7 JUMP JUMPDEST SWAP1 POP SWAP2 SWAP1 POP JUMP JUMPDEST PUSH32 0x53746F70206C6F7373207468726573686F6C64206D7573742062652062657477 PUSH0 DUP3 ADD MSTORE PUSH32 0x65656E203120616E6420313030303020626173697320706F696E747300000000 PUSH1 0x20 DUP3 ADD MSTORE POP JUMP JUMPDEST PUSH0 PUSH2 0x2451 PUSH1 0x3C DUP4 PUSH2 0x1B30 JUMP JUMPDEST SWAP2 POP PUSH2 0x245C DUP3 PUSH2 0x23F7 JUMP JUMPDEST PUSH1 0x40 DUP3 ADD SWAP1 POP SWAP2 SWAP1 POP JUMP JUMPDEST PUSH0 PUSH1 0x20 DUP3 ADD SWAP1 POP DUP2 DUP2 SUB PUSH0 DUP4 ADD MSTORE PUSH2 0x247E DUP2 PUSH2 0x2445 JUMP JUMPDEST SWAP1 POP SWAP2 SWAP1 POP JUMP JUMPDEST PUSH32 0x427579206F72646572207468726573686F6C64206D7573742062652062657477 PUSH0 DUP3 ADD MSTORE PUSH32 0x65656E203120616E6420313030303020626173697320706F696E747300000000 PUSH1 0x20 DUP3 ADD MSTORE POP JUMP JUMPDEST PUSH0 PUSH2 0x24DF PUSH1 0x3C DUP4 PUSH2 0x1B30 JUMP JUMPDEST SWAP2 POP PUSH2 0x24EA DUP3 PUSH2 0x2485 JUMP JUMPDEST PUSH1 0x40 DUP3 ADD SWAP1 POP SWAP2 SWAP1 POP JUMP JUMPDEST PUSH0 PUSH1 0x20 DUP3 ADD SWAP1 POP DUP2 DUP2 SUB PUSH0 DUP4 ADD MSTORE PUSH2 0x250C DUP2 PUSH2 0x24D3 JUMP JUMPDEST SWAP1 POP SWAP2 SWAP1 POP JUMP JUMPDEST PUSH32 0x53746F70206C6F737320616D6F756E74206D7573742062652067726561746572 PUSH0 DUP3 ADD MSTORE PUSH32 0x207468616E207A65726F00000000000000000000000000000000000000000000 PUSH1 0x20 DUP3 ADD MSTORE POP JUMP JUMPDEST PUSH0 PUSH2 0x256D PUSH1 0x2A DUP4 PUSH2 0x1B30 JUMP JUMPDEST SWAP2 POP PUSH2 0x2578 DUP3 PUSH2 0x2513 JUMP JUMPDEST PUSH1 0x40 DUP3 ADD SWAP1 POP SWAP2 SWAP1 POP JUMP JUMPDEST PUSH0 PUSH1 0x20 DUP3 ADD SWAP1 POP DUP2 DUP2 SUB PUSH0 DUP4 ADD MSTORE PUSH2 0x259A DUP2 PUSH2 0x2561 JUMP JUMPDEST SWAP1 POP SWAP2 SWAP1 POP JUMP JUMPDEST PUSH32 0x427579206F7264657220616D6F756E74206D7573742062652067726561746572 PUSH0 DUP3 ADD MSTORE PUSH32 0x207468616E207A65726F00000000000000000000000000000000000000000000 PUSH1 0x20 DUP3 ADD MSTORE POP JUMP JUMPDEST PUSH0 PUSH2 0x25FB PUSH1 0x2A DUP4 PUSH2 0x1B30 JUMP JUMPDEST SWAP2 POP PUSH2 0x2606 DUP3 PUSH2 0x25A1 JUMP JUMPDEST PUSH1 0x40 DUP3 ADD SWAP1 POP SWAP2 SWAP1 POP JUMP JUMPDEST PUSH0 PUSH1 0x20 DUP3 ADD SWAP1 POP DUP2 DUP2 SUB PUSH0 DUP4 ADD MSTORE PUSH2 0x2628 DUP2 PUSH2 0x25EF JUMP JUMPDEST SWAP1 POP SWAP2 SWAP1 POP JUMP JUMPDEST PUSH32 0x546F6B656E2061646472657373206D7573742062652076616C69640000000000 PUSH0 DUP3 ADD MSTORE POP JUMP JUMPDEST PUSH0 PUSH2 0x2663 PUSH1 0x1B DUP4 PUSH2 0x1B30 JUMP JUMPDEST SWAP2 POP PUSH2 0x266E DUP3 PUSH2 0x262F JUMP JUMPDEST PUSH1 0x20 DUP3 ADD SWAP1 POP SWAP2 SWAP1 POP JUMP JUMPDEST PUSH0 PUSH1 0x20 DUP3 ADD SWAP1 POP DUP2 DUP2 SUB PUSH0 DUP4 ADD MSTORE PUSH2 0x2690 DUP2 PUSH2 0x2657 JUMP JUMPDEST SWAP1 POP SWAP2 SWAP1 POP JUMP JUMPDEST PUSH32 0x486564657261206163636F756E74204944206D757374206E6F7420626520656D PUSH0 DUP3 ADD MSTORE PUSH32 0x7074790000000000000000000000000000000000000000000000000000000000 PUSH1 0x20 DUP3 ADD MSTORE POP JUMP JUMPDEST PUSH0 PUSH2 0x26F1 PUSH1 0x23 DUP4 PUSH2 0x1B30 JUMP JUMPDEST SWAP2 POP PUSH2 0x26FC DUP3 PUSH2 0x2697 JUMP JUMPDEST PUSH1 0x40 DUP3 ADD SWAP1 POP SWAP2 SWAP1 POP JUMP JUMPDEST PUSH0 PUSH1 0x20 DUP3 ADD SWAP1 POP DUP2 DUP2 SUB PUSH0 DUP4 ADD MSTORE PUSH2 0x271E DUP2 PUSH2 0x26E5 JUMP JUMPDEST SWAP1 POP SWAP2 SWAP1 POP JUMP JUMPDEST PUSH32 0x4265666F72652073657474696E67207468726573686F6C640000000000000000 PUSH0 DUP3 ADD MSTORE POP JUMP JUMPDEST PUSH0 PUSH2 0x2759 PUSH1 0x18 DUP4 PUSH2 0x1B30 JUMP JUMPDEST SWAP2 POP PUSH2 0x2764 DUP3 PUSH2 0x2725 JUMP JUMPDEST PUSH1 0x20 DUP3 ADD SWAP1 POP SWAP2 SWAP1 POP JUMP JUMPDEST PUSH0 PUSH1 0xC0 DUP3 ADD SWAP1 POP DUP2 DUP2 SUB PUSH0 DUP4 ADD MSTORE PUSH2 0x2786 DUP2 PUSH2 0x274D JUMP JUMPDEST SWAP1 POP DUP2 DUP2 SUB PUSH1 0x20 DUP4 ADD MSTORE PUSH2 0x279A DUP2 DUP9 PUSH2 0x1B4E JUMP JUMPDEST SWAP1 POP PUSH2 0x27A9 PUSH1 0x40 DUP4 ADD DUP8 PUSH2 0x1BD0 JUMP JUMPDEST PUSH2 0x27B6 PUSH1 0x60 DUP4 ADD DUP7 PUSH2 0x1BD0 JUMP JUMPDEST PUSH2 0x27C3 PUSH1 0x80 DUP4 ADD DUP6 PUSH2 0x1B17 JUMP JUMPDEST PUSH2 0x27D0 PUSH1 0xA0 DUP4 ADD DUP5 PUSH2 0x1B17 JUMP JUMPDEST SWAP7 SWAP6 POP POP POP POP POP POP JUMP JUMPDEST PUSH0 DUP2 SWAP1 POP DUP2 PUSH0 MSTORE PUSH1 0x20 PUSH0 KECCAK256 SWAP1 POP SWAP2 SWAP1 POP JUMP JUMPDEST PUSH0 PUSH1 0x20 PUSH1 0x1F DUP4 ADD DIV SWAP1 POP SWAP2 SWAP1 POP JUMP JUMPDEST PUSH0 DUP3 DUP3 SHL SWAP1 POP SWAP3 SWAP2 POP POP JUMP JUMPDEST PUSH0 PUSH1 0x8 DUP4 MUL PUSH2 0x2836 PUSH32 0xFFFFFFFFFFFFFFFFFFFFFFFFFFFFFFFFFFFFFFFFFFFFFFFFFFFFFFFFFFFFFFFF DUP3 PUSH2 0x27FB JUMP JUMPDEST PUSH2 0x2840 DUP7 DUP4 PUSH2 0x27FB JUMP JUMPDEST SWAP6 POP DUP1 NOT DUP5 AND SWAP4 POP DUP1 DUP7 AND DUP5 OR SWAP3 POP POP POP SWAP4 SWAP3 POP POP POP JUMP JUMPDEST PUSH0 DUP2 SWAP1 POP SWAP2 SWAP1 POP JUMP JUMPDEST PUSH0 PUSH2 0x287B PUSH2 0x2876 PUSH2 0x2871 DUP5 PUSH2 0x1B0E JUMP JUMPDEST PUSH2 0x2858 JUMP JUMPDEST PUSH2 0x1B0E JUMP JUMPDEST SWAP1 POP SWAP2 SWAP1 POP JUMP JUMPDEST PUSH0 DUP2 SWAP1 POP SWAP2 SWAP1 POP JUMP JUMPDEST PUSH2 0x2894 DUP4 PUSH2 0x2861 JUMP JUMPDEST PUSH2 0x28A8 PUSH2 0x28A0 DUP3 PUSH2 0x2882 JUMP JUMPDEST DUP5 DUP5 SLOAD PUSH2 0x2807 JUMP JUMPDEST DUP3 SSTORE POP POP POP POP JUMP JUMPDEST PUSH0 SWAP1 JUMP JUMPDEST PUSH2 0x28BC PUSH2 0x28B0 JUMP JUMPDEST PUSH2 0x28C7 DUP2 DUP5 DUP5 PUSH2 0x288B JUMP JUMPDEST POP POP POP JUMP JUMPDEST JUMPDEST DUP2 DUP2 LT ISZERO PUSH2 0x28EA JUMPI PUSH2 0x28DF PUSH0 DUP3 PUSH2 0x28B4 JUMP JUMPDEST PUSH1 0x1 DUP2 ADD SWAP1 POP PUSH2 0x28CD JUMP JUMPDEST POP POP JUMP JUMPDEST PUSH1 0x1F DUP3 GT ISZERO PUSH2 0x292F JUMPI PUSH2 0x2900 DUP2 PUSH2 0x27DA JUMP JUMPDEST PUSH2 0x2909 DUP5 PUSH2 0x27EC JUMP JUMPDEST DUP2 ADD PUSH1 0x20 DUP6 LT ISZERO PUSH2 0x2918 JUMPI DUP2 SWAP1 POP JUMPDEST PUSH2 0x292C PUSH2 0x2924 DUP6 PUSH2 0x27EC JUMP JUMPDEST DUP4 ADD DUP3 PUSH2 0x28CC JUMP JUMPDEST POP POP JUMPDEST POP POP POP JUMP JUMPDEST PUSH0 DUP3 DUP3 SHR SWAP1 POP SWAP3 SWAP2 POP POP JUMP JUMPDEST PUSH0 PUSH2 0x294F PUSH0 NOT DUP5 PUSH1 0x8 MUL PUSH2 0x2934 JUMP JUMPDEST NOT DUP1 DUP4 AND SWAP2 POP POP SWAP3 SWAP2 POP POP JUMP JUMPDEST PUSH0 PUSH2 0x2967 DUP4 DUP4 PUSH2 0x2940 JUMP JUMPDEST SWAP2 POP DUP3 PUSH1 0x2 MUL DUP3 OR SWAP1 POP SWAP3 SWAP2 POP POP JUMP JUMPDEST PUSH2 0x2980 DUP3 PUSH2 0x1B26 JUMP JUMPDEST PUSH8 0xFFFFFFFFFFFFFFFF DUP2 GT ISZERO PUSH2 0x2999 JUMPI PUSH2 0x2998 PUSH2 0x19A3 JUMP JUMPDEST JUMPDEST PUSH2 0x29A3 DUP3 SLOAD PUSH2 0x2059 JUMP JUMPDEST PUSH2 0x29AE DUP3 DUP3 DUP6 PUSH2 0x28EE JUMP JUMPDEST PUSH0 PUSH1 0x20 SWAP1 POP PUSH1 0x1F DUP4 GT PUSH1 0x1 DUP2 EQ PUSH2 0x29DF JUMPI PUSH0 DUP5 ISZERO PUSH2 0x29CD JUMPI DUP3 DUP8 ADD MLOAD SWAP1 POP JUMPDEST PUSH2 0x29D7 DUP6 DUP3 PUSH2 0x295C JUMP JUMPDEST DUP7 SSTORE POP PUSH2 0x2A3E JUMP JUMPDEST PUSH1 0x1F NOT DUP5 AND PUSH2 0x29ED DUP7 PUSH2 0x27DA JUMP JUMPDEST PUSH0 JUMPDEST DUP3 DUP2 LT ISZERO PUSH2 0x2A14 JUMPI DUP5 DUP10 ADD MLOAD DUP3 SSTORE PUSH1 0x1 DUP3 ADD SWAP2 POP PUSH1 0x20 DUP6 ADD SWAP5 POP PUSH1 0x20 DUP2 ADD SWAP1 POP PUSH2 0x29EF JUMP JUMPDEST DUP7 DUP4 LT ISZERO PUSH2 0x2A31 JUMPI DUP5 DUP10 ADD MLOAD PUSH2 0x2A2D PUSH1 0x1F DUP10 AND DUP3 PUSH2 0x2940 JUMP JUMPDEST DUP4 SSTORE POP JUMPDEST PUSH1 0x1 PUSH1 0x2 DUP9 MUL ADD DUP9 SSTORE POP POP POP JUMPDEST POP POP POP POP POP POP JUMP JUMPDEST PUSH32 0x41667465722073657474696E67207468726573686F6C64000000000000000000 PUSH0 DUP3 ADD MSTORE POP JUMP JUMPDEST PUSH0 PUSH2 0x2A7A PUSH1 0x17 DUP4 PUSH2 0x1B30 JUMP JUMPDEST SWAP2 POP PUSH2 0x2A85 DUP3 PUSH2 0x2A46 JUMP JUMPDEST PUSH1 0x20 DUP3 ADD SWAP1 POP SWAP2 SWAP1 POP JUMP JUMPDEST PUSH0 PUSH1 0xC0 DUP3 ADD SWAP1 POP DUP2 DUP2 SUB PUSH0 DUP4 ADD MSTORE PUSH2 0x2AA7 DUP2 PUSH2 0x2A6E JUMP JUMPDEST SWAP1 POP DUP2 DUP2 SUB PUSH1 0x20 DUP4 ADD MSTORE PUSH2 0x2ABB DUP2 DUP9 PUSH2 0x1B4E JUMP JUMPDEST SWAP1 POP PUSH2 0x2ACA PUSH1 0x40 DUP4 ADD DUP8 PUSH2 0x1BD0 JUMP JUMPDEST PUSH2 0x2AD7 PUSH1 0x60 DUP4 ADD DUP7 PUSH2 0x1BD0 JUMP JUMPDEST PUSH2 0x2AE4 PUSH1 0x80 DUP4 ADD DUP6 PUSH2 0x1B17 JUMP JUMPDEST PUSH2 0x2AF1 PUSH1 0xA0 DUP4 ADD DUP5 PUSH2 0x1B17 JUMP JUMPDEST SWAP7 SWAP6 POP POP POP POP POP POP JUMP JUMPDEST PUSH0 PUSH1 0xC0 DUP3 ADD SWAP1 POP DUP2 DUP2 SUB PUSH0 DUP4 ADD MSTORE PUSH2 0x2B13 DUP2 DUP10 PUSH2 0x1B4E JUMP JUMPDEST SWAP1 POP PUSH2 0x2B22 PUSH1 0x20 DUP4 ADD DUP9 PUSH2 0x1B17 JUMP JUMPDEST PUSH2 0x2B2F PUSH1 0x40 DUP4 ADD DUP8 PUSH2 0x1B17 JUMP JUMPDEST PUSH2 0x2B3C PUSH1 0x60 DUP4 ADD DUP7 PUSH2 0x1BB6 JUMP JUMPDEST PUSH2 0x2B49 PUSH1 0x80 DUP4 ADD DUP6 PUSH2 0x1B17 JUMP JUMPDEST PUSH2 0x2B56 PUSH1 0xA0 DUP4 ADD DUP5 PUSH2 0x1B17 JUMP JUMPDEST SWAP8 SWAP7 POP POP POP POP POP POP POP JUMP JUMPDEST PUSH32 0x55736572207468726573686F6C647320617265206E6F74206163746976650000 PUSH0 DUP3 ADD MSTORE POP JUMP JUMPDEST PUSH0 PUSH2 0x2B95 PUSH1 0x1E DUP4 PUSH2 0x1B30 JUMP JUMPDEST SWAP2 POP PUSH2 0x2BA0 DUP3 PUSH2 0x2B61 JUMP JUMPDEST PUSH1 0x20 DUP3 ADD SWAP1 POP SWAP2 SWAP1 POP JUMP JUMPDEST PUSH0 PUSH1 0x20 DUP3 ADD SWAP1 POP DUP2 DUP2 SUB PUSH0 DUP4 ADD MSTORE PUSH2 0x2BC2 DUP2 PUSH2 0x2B89 JUMP JUMPDEST SWAP1 POP SWAP2 SWAP1 POP JUMP JUMPDEST PUSH0 PUSH1 0xA0 DUP3 ADD SWAP1 POP DUP2 DUP2 SUB PUSH0 DUP4 ADD MSTORE PUSH2 0x2BE1 DUP2 DUP9 PUSH2 0x1B4E JUMP JUMPDEST SWAP1 POP DUP2 DUP2 SUB PUSH1 0x20 DUP4 ADD MSTORE PUSH2 0x2BF5 DUP2 DUP8 PUSH2 0x1B4E JUMP JUMPDEST SWAP1 POP PUSH2 0x2C04 PUSH1 0x40 DUP4 ADD DUP7 PUSH2 0x1B17 JUMP JUMPDEST PUSH2 0x2C11 PUSH1 0x60 DUP4 ADD DUP6 PUSH2 0x1BB6 JUMP JUMPDEST PUSH2 0x2C1E PUSH1 0x80 DUP4 ADD DUP5 PUSH2 0x1B17 JUMP JUMPDEST SWAP7 SWAP6 POP POP POP POP POP POP JUMP JUMPDEST PUSH0 PUSH2 0x2C32 DUP3 PUSH2 0x1B0E JUMP JUMPDEST SWAP2 POP PUSH2 0x2C3D DUP4 PUSH2 0x1B0E JUMP JUMPDEST SWAP3 POP DUP3 DUP3 SUB SWAP1 POP DUP2 DUP2 GT ISZERO PUSH2 0x2C55 JUMPI PUSH2 0x2C54 PUSH2 0x2236 JUMP JUMPDEST JUMPDEST SWAP3 SWAP2 POP POP JUMP JUMPDEST PUSH0 PUSH1 0x60 DUP3 ADD SWAP1 POP PUSH2 0x2C6E PUSH0 DUP4 ADD DUP7 PUSH2 0x1B17 JUMP JUMPDEST PUSH2 0x2C7B PUSH1 0x20 DUP4 ADD DUP6 PUSH2 0x1B17 JUMP JUMPDEST PUSH2 0x2C88 PUSH1 0x40 DUP4 ADD DUP5 PUSH2 0x1B17 JUMP JUMPDEST SWAP5 SWAP4 POP POP POP POP JUMP JUMPDEST PUSH0 DUP2 SWAP1 POP SWAP3 SWAP2 POP POP JUMP JUMPDEST POP JUMP JUMPDEST PUSH0 PUSH2 0x2CA8 PUSH0 DUP4 PUSH2 0x2C90 JUMP JUMPDEST SWAP2 POP PUSH2 0x2CB3 DUP3 PUSH2 0x2C9A JUMP JUMPDEST PUSH0 DUP3 ADD SWAP1 POP SWAP2 SWAP1 POP JUMP JUMPDEST PUSH0 PUSH2 0x2CC7 DUP3 PUSH2 0x2C9D JUMP JUMPDEST SWAP2 POP DUP2 SWAP1 POP SWAP2 SWAP1 POP JUMP JUMPDEST PUSH32 0x466565207472616E73666572206661696C656400000000000000000000000000 PUSH0 DUP3 ADD MSTORE POP JUMP JUMPDEST PUSH0 PUSH2 0x2D05 PUSH1 0x13 DUP4 PUSH2 0x1B30 JUMP JUMPDEST SWAP2 POP PUSH2 0x2D10 DUP3 PUSH2 0x2CD1 JUMP JUMPDEST PUSH1 0x20 DUP3 ADD SWAP1 POP SWAP2 SWAP1 POP JUMP JUMPDEST PUSH0 PUSH1 0x20 DUP3 ADD SWAP1 POP DUP2 DUP2 SUB PUSH0 DUP4 ADD MSTORE PUSH2 0x2D32 DUP2 PUSH2 0x2CF9 JUMP JUMPDEST SWAP1 POP SWAP2 SWAP1 POP JUMP JUMPDEST PUSH0 PUSH2 0x2D43 DUP3 PUSH2 0x1B0E JUMP JUMPDEST SWAP2 POP PUSH2 0x2D4E DUP4 PUSH2 0x1B0E JUMP JUMPDEST SWAP3 POP DUP3 DUP3 ADD SWAP1 POP DUP1 DUP3 GT ISZERO PUSH2 0x2D66 JUMPI PUSH2 0x2D65 PUSH2 0x2236 JUMP JUMPDEST JUMPDEST SWAP3 SWAP2 POP POP JUMP JUMPDEST PUSH0 DUP2 MLOAD SWAP1 POP SWAP2 SWAP1 POP JUMP JUMPDEST PUSH0 DUP3 DUP3 MSTORE PUSH1 0x20 DUP3 ADD SWAP1 POP SWAP3 SWAP2 POP POP JUMP JUMPDEST PUSH0 PUSH2 0x2D90 DUP3 PUSH2 0x2D6C JUMP JUMPDEST PUSH2 0x2D9A DUP2 DUP6 PUSH2 0x2D76 JUMP JUMPDEST SWAP4 POP PUSH2 0x2DAA DUP2 DUP6 PUSH1 0x20 DUP7 ADD PUSH2 0x1B40 JUMP JUMPDEST PUSH2 0x2DB3 DUP2 PUSH2 0x1993 JUMP JUMPDEST DUP5 ADD SWAP2 POP POP SWAP3 SWAP2 POP POP JUMP JUMPDEST PUSH2 0x2DC7 DUP2 PUSH2 0x1BA5 JUMP JUMPDEST DUP3 MSTORE POP POP JUMP JUMPDEST PUSH2 0x2DD6 DUP2 PUSH2 0x1B0E JUMP JUMPDEST DUP3 MSTORE POP POP JUMP JUMPDEST PUSH0 PUSH1 0xA0 DUP4 ADD PUSH0 DUP4 ADD MLOAD DUP5 DUP3 SUB PUSH0 DUP7 ADD MSTORE PUSH2 0x2DF6 DUP3 DUP3 PUSH2 0x2D86 JUMP JUMPDEST SWAP2 POP POP PUSH1 0x20 DUP4 ADD MLOAD PUSH2 0x2E0B PUSH1 0x20 DUP7 ADD DUP3 PUSH2 0x2DBE JUMP JUMPDEST POP PUSH1 0x40 DUP4 ADD MLOAD PUSH2 0x2E1E PUSH1 0x40 DUP7 ADD DUP3 PUSH2 0x2DCD JUMP JUMPDEST POP PUSH1 0x60 DUP4 ADD MLOAD PUSH2 0x2E31 PUSH1 0x60 DUP7 ADD DUP3 PUSH2 0x2DCD JUMP JUMPDEST POP PUSH1 0x80 DUP4 ADD MLOAD PUSH2 0x2E44 PUSH1 0x80 DUP7 ADD DUP3 PUSH2 0x2DCD JUMP JUMPDEST POP DUP1 SWAP2 POP POP SWAP3 SWAP2 POP POP JUMP JUMPDEST PUSH0 PUSH1 0x20 DUP3 ADD SWAP1 POP DUP2 DUP2 SUB PUSH0 DUP4 ADD MSTORE PUSH2 0x2E67 DUP2 DUP5 PUSH2 0x2DDC JUMP JUMPDEST SWAP1 POP SWAP3 SWAP2 POP POP JUMP JUMPDEST PUSH32 0x4E487B7100000000000000000000000000000000000000000000000000000000 PUSH0 MSTORE PUSH1 0x32 PUSH1 0x4 MSTORE PUSH1 0x24 PUSH0 REVERT JUMPDEST PUSH0 DUP2 MLOAD SWAP1 POP SWAP2 SWAP1 POP JUMP JUMPDEST PUSH0 DUP3 DUP3 MSTORE PUSH1 0x20 DUP3 ADD SWAP1 POP SWAP3 SWAP2 POP POP JUMP JUMPDEST PUSH0 DUP2 SWAP1 POP PUSH1 0x20 DUP3 ADD SWAP1 POP SWAP2 SWAP1 POP JUMP JUMPDEST PUSH0 PUSH2 0x2ED0 DUP4 DUP4 PUSH2 0x2D86 JUMP JUMPDEST SWAP1 POP SWAP3 SWAP2 POP POP JUMP JUMPDEST PUSH0 PUSH1 0x20 DUP3 ADD SWAP1 POP SWAP2 SWAP1 POP JUMP JUMPDEST PUSH0 PUSH2 0x2EEE DUP3 PUSH2 0x2E9C JUMP JUMPDEST PUSH2 0x2EF8 DUP2 DUP6 PUSH2 0x2EA6 JUMP JUMPDEST SWAP4 POP DUP4 PUSH1 0x20 DUP3 MUL DUP6 ADD PUSH2 0x2F0A DUP6 PUSH2 0x2EB6 JUMP JUMPDEST DUP1 PUSH0 JUMPDEST DUP6 DUP2 LT ISZERO PUSH2 0x2F45 JUMPI DUP5 DUP5 SUB DUP10 MSTORE DUP2 MLOAD PUSH2 0x2F26 DUP6 DUP3 PUSH2 0x2EC5 JUMP JUMPDEST SWAP5 POP PUSH2 0x2F31 DUP4 PUSH2 0x2ED8 JUMP JUMPDEST SWAP3 POP PUSH1 0x20 DUP11 ADD SWAP10 POP POP PUSH1 0x1 DUP2 ADD SWAP1 POP PUSH2 0x2F0D JUMP JUMPDEST POP DUP3 SWAP8 POP DUP8 SWAP6 POP POP POP POP POP POP SWAP3 SWAP2 POP POP JUMP JUMPDEST PUSH0 PUSH1 0x20 DUP3 ADD SWAP1 POP DUP2 DUP2 SUB PUSH0 DUP4 ADD MSTORE PUSH2 0x2F6F DUP2 DUP5 PUSH2 0x2EE4 JUMP JUMPDEST SWAP1 POP SWAP3 SWAP2 POP POP JUMP JUMPDEST PUSH0 PUSH8 0xFFFFFFFFFFFFFFFF DUP3 GT ISZERO PUSH2 0x2F91 JUMPI PUSH2 0x2F90 PUSH2 0x19A3 JUMP JUMPDEST JUMPDEST PUSH1 0x20 DUP3 MUL SWAP1 POP PUSH1 0x20 DUP2 ADD SWAP1 POP SWAP2 SWAP1 POP JUMP JUMPDEST PUSH0 DUP1 REVERT JUMPDEST PUSH0 PUSH2 0x2FB8 PUSH2 0x2FB3 DUP5 PUSH2 0x1E12 JUMP JUMPDEST PUSH2 0x1A01 JUMP JUMPDEST SWAP1 POP DUP3 DUP2 MSTORE PUSH1 0x20 DUP2 ADD DUP5 DUP5 DUP5 ADD GT ISZERO PUSH2 0x2FD4 JUMPI PUSH2 0x2FD3 PUSH2 0x198F JUMP JUMPDEST JUMPDEST PUSH2 0x2FDF DUP5 DUP3 DUP6 PUSH2 0x1B40 JUMP JUMPDEST POP SWAP4 SWAP3 POP POP POP JUMP JUMPDEST PUSH0 DUP3 PUSH1 0x1F DUP4 ADD SLT PUSH2 0x2FFB JUMPI PUSH2 0x2FFA PUSH2 0x198B JUMP JUMPDEST JUMPDEST DUP2 MLOAD PUSH2 0x300B DUP5 DUP3 PUSH1 0x20 DUP7 ADD PUSH2 0x2FA6 JUMP JUMPDEST SWAP2 POP POP SWAP3 SWAP2 POP POP JUMP JUMPDEST PUSH0 PUSH2 0x3026 PUSH2 0x3021 DUP5 PUSH2 0x2F77 JUMP JUMPDEST PUSH2 0x1A01 JUMP JUMPDEST SWAP1 POP DUP1 DUP4 DUP3 MSTORE PUSH1 0x20 DUP3 ADD SWAP1 POP PUSH1 0x20 DUP5 MUL DUP4 ADD DUP6 DUP2 GT ISZERO PUSH2 0x3049 JUMPI PUSH2 0x3048 PUSH2 0x2FA2 JUMP JUMPDEST JUMPDEST DUP4 JUMPDEST DUP2 DUP2 LT ISZERO PUSH2 0x3090 JUMPI DUP1 MLOAD PUSH8 0xFFFFFFFFFFFFFFFF DUP2 GT ISZERO PUSH2 0x306E JUMPI PUSH2 0x306D PUSH2 0x198B JUMP JUMPDEST JUMPDEST DUP1 DUP7 ADD PUSH2 0x307B DUP10 DUP3 PUSH2 0x2FE7 JUMP JUMPDEST DUP6 MSTORE PUSH1 0x20 DUP6 ADD SWAP5 POP POP POP PUSH1 0x20 DUP2 ADD SWAP1 POP PUSH2 0x304B JUMP JUMPDEST POP POP POP SWAP4 SWAP3 POP POP POP JUMP JUMPDEST PUSH0 DUP3 PUSH1 0x1F DUP4 ADD SLT PUSH2 0x30AE JUMPI PUSH2 0x30AD PUSH2 0x198B JUMP JUMPDEST JUMPDEST DUP2 MLOAD PUSH2 0x30BE DUP5 DUP3 PUSH1 0x20 DUP7 ADD PUSH2 0x3014 JUMP JUMPDEST SWAP2 POP POP SWAP3 SWAP2 POP POP JUMP JUMPDEST PUSH0 PUSH1 0x20 DUP3 DUP5 SUB SLT ISZERO PUSH2 0x30DC JUMPI PUSH2 0x30DB PUSH2 0x1983 JUMP JUMPDEST JUMPDEST PUSH0 DUP3 ADD MLOAD PUSH8 0xFFFFFFFFFFFFFFFF DUP2 GT ISZERO PUSH2 0x30F9 JUMPI PUSH2 0x30F8 PUSH2 0x1987 JUMP JUMPDEST JUMPDEST PUSH2 0x3105 DUP5 DUP3 DUP6 ADD PUSH2 0x309A JUMP JUMPDEST SWAP2 POP POP SWAP3 SWAP2 POP POP JUMP JUMPDEST PUSH0 DUP2 PUSH1 0xE0 SHR SWAP1 POP SWAP2 SWAP1 POP JUMP JUMPDEST PUSH0 PUSH1 0x3 RETURNDATASIZE GT ISZERO PUSH2 0x3136 JUMPI PUSH1 0x4 PUSH0 DUP1 RETURNDATACOPY PUSH2 0x3133 PUSH0 MLOAD PUSH2 0x310E JUMP JUMPDEST SWAP1 POP JUMPDEST SWAP1 JUMP JUMPDEST PUSH0 PUSH1 0x44 RETURNDATASIZE LT PUSH2 0x31C5 JUMPI PUSH2 0x314A PUSH2 0x197A JUMP JUMPDEST PUSH1 0x4 RETURNDATASIZE SUB PUSH1 0x4 DUP3 RETURNDATACOPY DUP1 MLOAD RETURNDATASIZE PUSH1 0x24 DUP3 ADD GT PUSH8 0xFFFFFFFFFFFFFFFF DUP3 GT OR ISZERO PUSH2 0x3172 JUMPI POP POP PUSH2 0x31C5 JUMP JUMPDEST DUP1 DUP3 ADD DUP1 MLOAD PUSH8 0xFFFFFFFFFFFFFFFF DUP2 GT ISZERO PUSH2 0x3190 JUMPI POP POP POP POP PUSH2 0x31C5 JUMP JUMPDEST DUP1 PUSH1 0x20 DUP4 ADD ADD PUSH1 0x4 RETURNDATASIZE SUB DUP6 ADD DUP2 GT ISZERO PUSH2 0x31AD JUMPI POP POP POP POP POP PUSH2 0x31C5 JUMP JUMPDEST PUSH2 0x31BC DUP3 PUSH1 0x20 ADD DUP6 ADD DUP7 PUSH2 0x19D0 JUMP JUMPDEST DUP3 SWAP6 POP POP POP POP POP POP JUMPDEST SWAP1 JUMP JUMPDEST PUSH32 0x53776170206661696C6564207769746820726561736F6E000000000000000000 PUSH0 DUP3 ADD MSTORE POP JUMP JUMPDEST PUSH0 PUSH2 0x31FC PUSH1 0x17 DUP4 PUSH2 0x1B30 JUMP JUMPDEST SWAP2 POP PUSH2 0x3207 DUP3 PUSH2 0x31C8 JUMP JUMPDEST PUSH1 0x20 DUP3 ADD SWAP1 POP SWAP2 SWAP1 POP JUMP JUMPDEST PUSH0 DUP2 SWAP1 POP SWAP2 SWAP1 POP JUMP JUMPDEST PUSH0 PUSH2 0x3235 PUSH2 0x3230 PUSH2 0x322B DUP5 PUSH2 0x3212 JUMP JUMPDEST PUSH2 0x2858 JUMP JUMPDEST PUSH2 0x1B0E JUMP JUMPDEST SWAP1 POP SWAP2 SWAP1 POP JUMP JUMPDEST PUSH2 0x3245 DUP2 PUSH2 0x321B JUMP JUMPDEST DUP3 MSTORE POP POP JUMP JUMPDEST PUSH0 PUSH1 0x60 DUP3 ADD SWAP1 POP DUP2 DUP2 SUB PUSH0 DUP4 ADD MSTORE PUSH2 0x3262 DUP2 PUSH2 0x31F0 JUMP JUMPDEST SWAP1 POP PUSH2 0x3271 PUSH1 0x20 DUP4 ADD DUP6 PUSH2 0x323C JUMP JUMPDEST PUSH2 0x327E PUSH1 0x40 DUP4 ADD DUP5 PUSH2 0x1BB6 JUMP JUMPDEST SWAP4 SWAP3 POP POP POP JUMP JUMPDEST PUSH32 0x526F757465722063616C6C206661696C65643A20000000000000000000000000 PUSH0 DUP3 ADD MSTORE POP JUMP JUMPDEST PUSH0 PUSH2 0x32B9 PUSH1 0x14 DUP4 PUSH2 0x1F54 JUMP JUMPDEST SWAP2 POP PUSH2 0x32C4 DUP3 PUSH2 0x3285 JUMP JUMPDEST PUSH1 0x14 DUP3 ADD SWAP1 POP SWAP2 SWAP1 POP JUMP JUMPDEST PUSH0 PUSH2 0x32D9 DUP3 PUSH2 0x32AD JUMP JUMPDEST SWAP2 POP PUSH2 0x32E5 DUP3 DUP5 PUSH2 0x1F5E JUMP JUMPDEST SWAP2 POP DUP2 SWAP1 POP SWAP3 SWAP2 POP POP JUMP JUMPDEST PUSH32 0x53776170206661696C6564207769746820756E6B6E6F776E20726561736F6E00 PUSH0 DUP3 ADD MSTORE POP JUMP JUMPDEST PUSH0 PUSH2 0x3324 PUSH1 0x1F DUP4 PUSH2 0x1B30 JUMP JUMPDEST SWAP2 POP PUSH2 0x332F DUP3 PUSH2 0x32F0 JUMP JUMPDEST PUSH1 0x20 DUP3 ADD SWAP1 POP SWAP2 SWAP1 POP JUMP JUMPDEST PUSH0 PUSH1 0x60 DUP3 ADD SWAP1 POP DUP2 DUP2 SUB PUSH0 DUP4 ADD MSTORE PUSH2 0x3351 DUP2 PUSH2 0x3318 JUMP JUMPDEST SWAP1 POP PUSH2 0x3360 PUSH1 0x20 DUP4 ADD DUP6 PUSH2 0x323C JUMP JUMPDEST PUSH2 0x336D PUSH1 0x40 DUP4 ADD DUP5 PUSH2 0x1BB6 JUMP JUMPDEST SWAP4 SWAP3 POP POP POP JUMP JUMPDEST PUSH32 0x526F757465722063616C6C206661696C65643A20756E6B6E6F776E2072656173 PUSH0 DUP3 ADD MSTORE PUSH32 0x6F6E000000000000000000000000000000000000000000000000000000000000 PUSH1 0x20 DUP3 ADD MSTORE POP JUMP JUMPDEST PUSH0 PUSH2 0x33CE PUSH1 0x22 DUP4 PUSH2 0x1B30 JUMP JUMPDEST SWAP2 POP PUSH2 0x33D9 DUP3 PUSH2 0x3374 JUMP JUMPDEST PUSH1 0x40 DUP3 ADD SWAP1 POP SWAP2 SWAP1 POP JUMP JUMPDEST PUSH0 PUSH1 0x20 DUP3 ADD SWAP1 POP DUP2 DUP2 SUB PUSH0 DUP4 ADD MSTORE PUSH2 0x33FB DUP2 PUSH2 0x33C2 JUMP JUMPDEST SWAP1 POP SWAP2 SWAP1 POP JUMP JUMPDEST PUSH0 DUP2 MLOAD SWAP1 POP PUSH2 0x3410 DUP2 PUSH2 0x1C7D JUMP JUMPDEST SWAP3 SWAP2 POP POP JUMP JUMPDEST PUSH0 PUSH1 0x20 DUP3 DUP5 SUB SLT ISZERO PUSH2 0x342B JUMPI PUSH2 0x342A PUSH2 0x1983 JUMP JUMPDEST JUMPDEST PUSH0 PUSH2 0x3438 DUP5 DUP3 DUP6 ADD PUSH2 0x3402 JUMP JUMPDEST SWAP2 POP POP SWAP3 SWAP2 POP POP JUMP JUMPDEST PUSH32 0x5377617020737563636573730000000000000000000000000000000000000000 PUSH0 DUP3 ADD MSTORE POP JUMP JUMPDEST PUSH0 PUSH2 0x3475 PUSH1 0xC DUP4 PUSH2 0x1B30 JUMP JUMPDEST SWAP2 POP PUSH2 0x3480 DUP3 PUSH2 0x3441 JUMP JUMPDEST PUSH1 0x20 DUP3 ADD SWAP1 POP SWAP2 SWAP1 POP JUMP JUMPDEST PUSH0 PUSH1 0x60 DUP3 ADD SWAP1 POP DUP2 DUP2 SUB PUSH0 DUP4 ADD MSTORE PUSH2 0x34A2 DUP2 PUSH2 0x3469 JUMP JUMPDEST SWAP1 POP PUSH2 0x34B1 PUSH1 0x20 DUP4 ADD DUP6 PUSH2 0x1B17 JUMP JUMPDEST PUSH2 0x34BE PUSH1 0x40 DUP4 ADD DUP5 PUSH2 0x1BB6 JUMP JUMPDEST SWAP4 SWAP3 POP POP POP JUMP JUMPDEST PUSH32 0x496E76616C696420486564657261206163636F756E7420494420666F726D6174 PUSH0 DUP3 ADD MSTORE POP JUMP JUMPDEST PUSH0 PUSH2 0x34F9 PUSH1 0x20 DUP4 PUSH2 0x1B30 JUMP JUMPDEST SWAP2 POP PUSH2 0x3504 DUP3 PUSH2 0x34C5 JUMP JUMPDEST PUSH1 0x20 DUP3 ADD SWAP1 POP SWAP2 SWAP1 POP JUMP JUMPDEST PUSH0 PUSH1 0x20 DUP3 ADD SWAP1 POP DUP2 DUP2 SUB PUSH0 DUP4 ADD MSTORE PUSH2 0x3526 DUP2 PUSH2 0x34ED JUMP JUMPDEST SWAP1 POP SWAP2 SWAP1 POP JUMP JUMPDEST PUSH0 PUSH2 0x3537 DUP3 PUSH2 0x1B0E JUMP JUMPDEST SWAP2 POP PUSH32 0xFFFFFFFFFFFFFFFFFFFFFFFFFFFFFFFFFFFFFFFFFFFFFFFFFFFFFFFFFFFFFFFF DUP3 SUB PUSH2 0x3569 JUMPI PUSH2 0x3568 PUSH2 0x2236 JUMP JUMPDEST JUMPDEST PUSH1 0x1 DUP3 ADD SWAP1 POP SWAP2 SWAP1 POP JUMP JUMPDEST PUSH0 PUSH1 0xFF DUP3 AND SWAP1 POP SWAP2 SWAP1 POP JUMP JUMPDEST PUSH0 PUSH2 0x358A DUP3 PUSH2 0x3574 JUMP JUMPDEST SWAP2 POP PUSH2 0x3595 DUP4 PUSH2 0x3574 JUMP JUMPDEST SWAP3 POP DUP3 DUP3 SUB SWAP1 POP PUSH1 0xFF DUP2 GT ISZERO PUSH2 0x35AE JUMPI PUSH2 0x35AD PUSH2 0x2236 JUMP JUMPDEST JUMPDEST SWAP3 SWAP2 POP POP JUMP INVALID LOG2 PUSH5 0x6970667358 0x22 SLT KECCAK256 0xA8 0xE2 DUP9 SMOD DUP3 SWAP13 BYTE LOG1 0xD1 ADDRESS DUP14 DUP14 BLOCKHASH 0xBC 0xD4 MSTORE 0xB2 ADDMOD SWAP7 0xC4 EXTCODECOPY 0xC8 PUSH27 0x70B556888E234BC9F64736F6C634300081A003300000000000000 "
		},
		"gasEstimates": {
			"creation": {
				"codeDepositCost": "2760400",
				"executionCost": "infinite",
				"totalCost": "infinite"
			},
			"external": {
				"FEE_BASIS_POINTS()": "369",
				"approveRouter(address,uint256)": "infinite",
				"calculateFee(uint256)": "infinite",
				"currentPrice()": "2425",
				"deactivateThresholds(string)": "infinite",
				"executeTradeForUser(string,string,bytes)": "infinite",
				"feeCollector()": "2596",
				"getThreshold(string)": "infinite",
				"owner()": "2572",
				"setFeeCollector(address)": "26937",
				"setThresholds(uint256,uint256,string,address,uint256,uint256)": "infinite",
				"userThresholds(string)": "infinite"
			},
			"internal": {
				"_deriveRecipientAddress(string memory)": "infinite",
				"_executeSwap(string memory,uint256,bytes memory)": "infinite",
				"_handleFees(uint256)": "infinite",
				"calculateMinimumAmountOut(uint256,uint256)": "infinite",
				"split(string memory,string memory)": "infinite",
				"stringToUint(string memory)": "infinite",
				"substring(string memory,uint256,uint256)": "infinite"
			}
		},
		"methodIdentifiers": {
			"FEE_BASIS_POINTS()": "a525ad3c",
			"approveRouter(address,uint256)": "88a95e61",
			"calculateFee(uint256)": "99a5d747",
			"currentPrice()": "9d1b464a",
			"deactivateThresholds(string)": "552f9a8f",
			"executeTradeForUser(string,string,bytes)": "d3c0eac3",
			"feeCollector()": "c415b95c",
			"getThreshold(string)": "6cc3eb68",
			"owner()": "8da5cb5b",
			"setFeeCollector(address)": "a42dce80",
			"setThresholds(uint256,uint256,string,address,uint256,uint256)": "b5fa3dbd",
			"userThresholds(string)": "9286eddb"
		}
	},
	"abi": [
		{
			"inputs": [
				{
					"internalType": "address",
					"name": "_owner",
					"type": "address"
				}
			],
			"stateMutability": "nonpayable",
			"type": "constructor"
		},
		{
			"anonymous": false,
			"inputs": [
				{
					"indexed": false,
					"internalType": "string",
					"name": "message",
					"type": "string"
				},
				{
					"indexed": false,
					"internalType": "uint256",
					"name": "hbarAmount",
					"type": "uint256"
				},
				{
					"indexed": false,
					"internalType": "uint256",
					"name": "relevantAmount",
					"type": "uint256"
				},
				{
					"indexed": false,
					"internalType": "uint256",
					"name": "minimumOut",
					"type": "uint256"
				}
			],
			"name": "AmountDebug",
			"type": "event"
		},
		{
			"anonymous": false,
			"inputs": [
				{
					"indexed": false,
					"internalType": "string",
					"name": "message",
					"type": "string"
				},
				{
					"indexed": false,
					"internalType": "string",
					"name": "hederaAccountId",
					"type": "string"
				},
				{
					"indexed": false,
					"internalType": "bool",
					"name": "isActive",
					"type": "bool"
				},
				{
					"indexed": false,
					"internalType": "string",
					"name": "orderType",
					"type": "string"
				},
				{
					"indexed": false,
					"internalType": "uint256",
					"name": "amount",
					"type": "uint256"
				},
				{
					"indexed": false,
					"internalType": "bytes",
					"name": "path",
					"type": "bytes"
				}
			],
			"name": "ExecuteTradeDebug",
			"type": "event"
		},
		{
			"anonymous": false,
			"inputs": [
				{
					"indexed": false,
					"internalType": "uint256",
					"name": "tradeAmount",
					"type": "uint256"
				},
				{
					"indexed": false,
					"internalType": "uint256",
					"name": "feeAmount",
					"type": "uint256"
				},
				{
					"indexed": false,
					"internalType": "uint256",
					"name": "finalTradeAmount",
					"type": "uint256"
				}
			],
			"name": "FeeCalculated",
			"type": "event"
		},
		{
			"anonymous": false,
			"inputs": [
				{
					"indexed": true,
					"internalType": "address",
					"name": "collector",
					"type": "address"
				},
				{
					"indexed": false,
					"internalType": "uint256",
					"name": "amount",
					"type": "uint256"
				}
			],
			"name": "FeeCollected",
			"type": "event"
		},
		{
			"anonymous": false,
			"inputs": [
				{
					"indexed": false,
					"internalType": "string",
					"name": "message",
					"type": "string"
				},
				{
					"indexed": false,
					"internalType": "bytes[]",
					"name": "calls",
					"type": "bytes[]"
				}
			],
			"name": "MultiCallDebug",
			"type": "event"
		},
		{
			"anonymous": false,
			"inputs": [
				{
					"indexed": false,
					"internalType": "string",
					"name": "message",
					"type": "string"
				},
				{
					"indexed": false,
					"internalType": "uint256",
					"name": "callCount",
					"type": "uint256"
				},
				{
					"indexed": false,
					"internalType": "bytes",
					"name": "firstCall",
					"type": "bytes"
				},
				{
					"indexed": false,
					"internalType": "bytes",
					"name": "secondCall",
					"type": "bytes"
				}
			],
			"name": "MultiCallSetup",
			"type": "event"
		},
		{
			"anonymous": false,
			"inputs": [
				{
					"indexed": false,
					"internalType": "string",
					"name": "hederaAccountId",
					"type": "string"
				},
				{
					"indexed": false,
					"internalType": "string",
					"name": "orderType",
					"type": "string"
				},
				{
					"indexed": false,
					"internalType": "uint256",
					"name": "currentPrice",
					"type": "uint256"
				},
				{
					"indexed": false,
					"internalType": "address",
					"name": "tokenAddress",
					"type": "address"
				},
				{
					"indexed": false,
					"internalType": "uint256",
					"name": "amountOut",
					"type": "uint256"
				}
			],
			"name": "OrderExecuted",
			"type": "event"
		},
		{
			"anonymous": false,
			"inputs": [
				{
					"indexed": false,
					"internalType": "string",
					"name": "message",
					"type": "string"
				},
				{
					"indexed": false,
					"internalType": "bytes",
					"name": "path",
					"type": "bytes"
				},
				{
					"indexed": false,
					"internalType": "address",
					"name": "recipient",
					"type": "address"
				}
			],
			"name": "PathDebug",
			"type": "event"
		},
		{
			"anonymous": false,
			"inputs": [
				{
					"indexed": false,
					"internalType": "string",
					"name": "message",
					"type": "string"
				},
				{
					"indexed": false,
					"internalType": "uint256",
					"name": "msgValue",
					"type": "uint256"
				},
				{
					"indexed": false,
					"internalType": "uint256",
					"name": "thresholdAmount",
					"type": "uint256"
				},
				{
					"indexed": false,
					"internalType": "bool",
					"name": "thresholdActive",
					"type": "bool"
				},
				{
					"indexed": false,
					"internalType": "string",
					"name": "orderType",
					"type": "string"
				},
				{
					"indexed": false,
					"internalType": "bytes",
					"name": "path",
					"type": "bytes"
				}
			],
			"name": "PreTradeCheck",
			"type": "event"
		},
		{
			"anonymous": false,
			"inputs": [
				{
					"indexed": false,
					"internalType": "string",
					"name": "message",
					"type": "string"
				},
				{
					"indexed": false,
					"internalType": "string",
					"name": "hederaAccountId",
					"type": "string"
				},
				{
					"indexed": false,
					"internalType": "address",
					"name": "derivedAddress",
					"type": "address"
				}
			],
			"name": "RecipientDebug",
			"type": "event"
		},
		{
			"anonymous": false,
			"inputs": [
				{
					"indexed": false,
					"internalType": "string",
					"name": "message",
					"type": "string"
				},
				{
					"indexed": false,
					"internalType": "address",
					"name": "token",
					"type": "address"
				},
				{
					"indexed": false,
					"internalType": "uint256",
					"name": "amount",
					"type": "uint256"
				},
				{
					"indexed": false,
					"internalType": "int64",
					"name": "result",
					"type": "int64"
				}
			],
			"name": "RouterApprovalResult",
			"type": "event"
		},
		{
			"anonymous": false,
			"inputs": [
				{
					"indexed": false,
					"internalType": "string",
					"name": "message",
					"type": "string"
				},
				{
					"indexed": false,
					"internalType": "bytes",
					"name": "encodedCall",
					"type": "bytes"
				}
			],
			"name": "RouterCallDebug",
			"type": "event"
		},
		{
			"anonymous": false,
			"inputs": [
				{
					"indexed": false,
					"internalType": "string",
					"name": "message",
					"type": "string"
				},
				{
					"indexed": false,
					"internalType": "uint256",
					"name": "msgValue",
					"type": "uint256"
				},
				{
					"indexed": false,
					"internalType": "address",
					"name": "router",
					"type": "address"
				},
				{
					"indexed": false,
					"internalType": "address",
					"name": "recipient",
					"type": "address"
				},
				{
					"indexed": false,
					"internalType": "bytes",
					"name": "path",
					"type": "bytes"
				}
			],
			"name": "RouterCallDetails",
			"type": "event"
		},
		{
			"anonymous": false,
			"inputs": [
				{
					"indexed": false,
					"internalType": "string",
					"name": "message",
					"type": "string"
				},
				{
					"indexed": false,
					"internalType": "bytes",
					"name": "path",
					"type": "bytes"
				},
				{
					"indexed": false,
					"internalType": "address",
					"name": "recipient",
					"type": "address"
				},
				{
					"indexed": false,
					"internalType": "uint256",
					"name": "amountIn",
					"type": "uint256"
				},
				{
					"indexed": false,
					"internalType": "uint256",
					"name": "amountOutMinimum",
					"type": "uint256"
				},
				{
					"indexed": false,
					"internalType": "address",
					"name": "router",
					"type": "address"
				},
				{
					"indexed": false,
					"internalType": "uint256",
					"name": "deadline",
					"type": "uint256"
				}
			],
			"name": "RouterParams",
			"type": "event"
		},
		{
			"anonymous": false,
			"inputs": [
				{
					"indexed": false,
					"internalType": "string",
					"name": "message",
					"type": "string"
				},
				{
					"indexed": false,
					"internalType": "string",
					"name": "stored",
					"type": "string"
				},
				{
					"indexed": false,
					"internalType": "string",
					"name": "lookup",
					"type": "string"
				},
				{
					"indexed": false,
					"internalType": "bytes32",
					"name": "storedHash",
					"type": "bytes32"
				},
				{
					"indexed": false,
					"internalType": "bytes32",
					"name": "lookupHash",
					"type": "bytes32"
				}
			],
			"name": "StringCompare",
			"type": "event"
		},
		{
			"anonymous": false,
			"inputs": [
				{
					"indexed": false,
					"internalType": "string",
					"name": "message",
					"type": "string"
				},
				{
					"indexed": false,
					"internalType": "uint256",
					"name": "amountOut",
					"type": "uint256"
				},
				{
					"indexed": false,
					"internalType": "address",
					"name": "recipient",
					"type": "address"
				}
			],
			"name": "SwapResult",
			"type": "event"
		},
		{
			"anonymous": false,
			"inputs": [
				{
					"indexed": false,
					"internalType": "string",
					"name": "message",
					"type": "string"
				},
				{
					"indexed": false,
					"internalType": "string",
					"name": "hederaAccountId",
					"type": "string"
				},
				{
					"indexed": false,
					"internalType": "bool",
					"name": "exists",
					"type": "bool"
				},
				{
					"indexed": false,
					"internalType": "bool",
					"name": "isActive",
					"type": "bool"
				},
				{
					"indexed": false,
					"internalType": "uint256",
					"name": "stopLossAmount",
					"type": "uint256"
				},
				{
					"indexed": false,
					"internalType": "uint256",
					"name": "buyOrderAmount",
					"type": "uint256"
				}
			],
			"name": "ThresholdDebug",
			"type": "event"
		},
		{
			"anonymous": false,
			"inputs": [
				{
					"indexed": false,
					"internalType": "string",
					"name": "hederaAccountId",
					"type": "string"
				}
			],
			"name": "ThresholdsDeactivated",
			"type": "event"
		},
		{
			"anonymous": false,
			"inputs": [
				{
					"indexed": false,
					"internalType": "string",
					"name": "hederaAccountId",
					"type": "string"
				},
				{
					"indexed": false,
					"internalType": "uint256",
					"name": "stopLossThreshold",
					"type": "uint256"
				},
				{
					"indexed": false,
					"internalType": "uint256",
					"name": "buyOrderThreshold",
					"type": "uint256"
				},
				{
					"indexed": false,
					"internalType": "address",
					"name": "tokenAddress",
					"type": "address"
				},
				{
					"indexed": false,
					"internalType": "uint256",
					"name": "stopLossAmount",
					"type": "uint256"
				},
				{
					"indexed": false,
					"internalType": "uint256",
					"name": "buyOrderAmount",
					"type": "uint256"
				}
			],
			"name": "ThresholdsSet",
			"type": "event"
		},
		{
			"inputs": [],
			"name": "FEE_BASIS_POINTS",
			"outputs": [
				{
					"internalType": "uint256",
					"name": "",
					"type": "uint256"
				}
			],
			"stateMutability": "view",
			"type": "function"
		},
		{
			"inputs": [
				{
					"internalType": "address",
					"name": "token",
					"type": "address"
				},
				{
					"internalType": "uint256",
					"name": "amount",
					"type": "uint256"
				}
			],
			"name": "approveRouter",
			"outputs": [],
			"stateMutability": "nonpayable",
			"type": "function"
		},
		{
			"inputs": [
				{
					"internalType": "uint256",
					"name": "amount",
					"type": "uint256"
				}
			],
			"name": "calculateFee",
			"outputs": [
				{
					"internalType": "uint256",
					"name": "",
					"type": "uint256"
				}
			],
			"stateMutability": "pure",
			"type": "function"
		},
		{
			"inputs": [],
			"name": "currentPrice",
			"outputs": [
				{
					"internalType": "uint256",
					"name": "",
					"type": "uint256"
				}
			],
			"stateMutability": "view",
			"type": "function"
		},
		{
			"inputs": [
				{
					"internalType": "string",
					"name": "hederaAccountId",
					"type": "string"
				}
			],
			"name": "deactivateThresholds",
			"outputs": [],
			"stateMutability": "nonpayable",
			"type": "function"
		},
		{
			"inputs": [
				{
					"internalType": "string",
					"name": "hederaAccountId",
					"type": "string"
				},
				{
					"internalType": "string",
					"name": "orderType",
					"type": "string"
				},
				{
					"internalType": "bytes",
					"name": "path",
					"type": "bytes"
				}
			],
			"name": "executeTradeForUser",
			"outputs": [],
			"stateMutability": "payable",
			"type": "function"
		},
		{
			"inputs": [],
			"name": "feeCollector",
			"outputs": [
				{
					"internalType": "address",
					"name": "",
					"type": "address"
				}
			],
			"stateMutability": "view",
			"type": "function"
		},
		{
			"inputs": [
				{
					"internalType": "string",
					"name": "hederaAccountId",
					"type": "string"
				}
			],
			"name": "getThreshold",
			"outputs": [
				{
					"internalType": "uint256",
					"name": "stopLossThreshold",
					"type": "uint256"
				},
				{
					"internalType": "uint256",
					"name": "buyOrderThreshold",
					"type": "uint256"
				},
				{
					"internalType": "string",
					"name": "storedHederaId",
					"type": "string"
				},
				{
					"internalType": "address",
					"name": "tokenAddress",
					"type": "address"
				},
				{
					"internalType": "uint256",
					"name": "stopLossAmount",
					"type": "uint256"
				},
				{
					"internalType": "uint256",
					"name": "buyOrderAmount",
					"type": "uint256"
				},
				{
					"internalType": "bool",
					"name": "isActive",
					"type": "bool"
				}
			],
			"stateMutability": "view",
			"type": "function"
		},
		{
			"inputs": [],
			"name": "owner",
			"outputs": [
				{
					"internalType": "address",
					"name": "",
					"type": "address"
				}
			],
			"stateMutability": "view",
			"type": "function"
		},
		{
			"inputs": [
				{
					"internalType": "address",
					"name": "_newCollector",
					"type": "address"
				}
			],
			"name": "setFeeCollector",
			"outputs": [],
			"stateMutability": "nonpayable",
			"type": "function"
		},
		{
			"inputs": [
				{
					"internalType": "uint256",
					"name": "_stopLossThreshold",
					"type": "uint256"
				},
				{
					"internalType": "uint256",
					"name": "_buyOrderThreshold",
					"type": "uint256"
				},
				{
					"internalType": "string",
					"name": "_hederaAccountId",
					"type": "string"
				},
				{
					"internalType": "address",
					"name": "_tokenAddress",
					"type": "address"
				},
				{
					"internalType": "uint256",
					"name": "_stopLossAmount",
					"type": "uint256"
				},
				{
					"internalType": "uint256",
					"name": "_buyOrderAmount",
					"type": "uint256"
				}
			],
			"name": "setThresholds",
			"outputs": [],
			"stateMutability": "nonpayable",
			"type": "function"
		},
		{
			"inputs": [
				{
					"internalType": "string",
					"name": "",
					"type": "string"
				}
			],
			"name": "userThresholds",
			"outputs": [
				{
					"internalType": "uint256",
					"name": "stopLossThreshold",
					"type": "uint256"
				},
				{
					"internalType": "uint256",
					"name": "buyOrderThreshold",
					"type": "uint256"
				},
				{
					"internalType": "string",
					"name": "hederaAccountId",
					"type": "string"
				},
				{
					"internalType": "address",
					"name": "tokenAddress",
					"type": "address"
				},
				{
					"internalType": "uint256",
					"name": "stopLossAmount",
					"type": "uint256"
				},
				{
					"internalType": "uint256",
					"name": "buyOrderAmount",
					"type": "uint256"
				},
				{
					"internalType": "bool",
					"name": "isActive",
					"type": "bool"
				}
			],
			"stateMutability": "view",
			"type": "function"
		}
	]
}