{
	"data": {
		"bytecode": {
			"linkReferences": {},
			"object": "608060405234801561000f575f80fd5b5060405161370c38038061370c833981810160405281019061003191906100d4565b805f806101000a81548173ffffffffffffffffffffffffffffffffffffffff021916908373ffffffffffffffffffffffffffffffffffffffff160217905550506100ff565b5f80fd5b5f73ffffffffffffffffffffffffffffffffffffffff82169050919050565b5f6100a38261007a565b9050919050565b6100b381610099565b81146100bd575f80fd5b50565b5f815190506100ce816100aa565b92915050565b5f602082840312156100e9576100e8610076565b5b5f6100f6848285016100c0565b91505092915050565b6136008061010c5f395ff3fe60806040526004361061007a575f3560e01c80639286eddb1161004d5780639286eddb1461013a5780639d1b464a1461017c578063b5fa3dbd146101a6578063d3c0eac3146101ce5761007a565b8063552f9a8f1461007e5780636cc3eb68146100a657806388a95e61146100e85780638da5cb5b14610110575b5f80fd5b348015610089575f80fd5b506100a4600480360381019061009f919061192b565b6101ea565b005b3480156100b1575f80fd5b506100cc60048036038101906100c7919061192b565b6102c9565b6040516100df9796959493929190611a43565b60405180910390f35b3480156100f3575f80fd5b5061010e60048036038101906101099190611b0b565b61045f565b005b34801561011b575f80fd5b5061012461056b565b6040516101319190611b49565b60405180910390f35b348015610145575f80fd5b50610160600480360381019061015b919061192b565b61058e565b6040516101739796959493929190611a43565b60405180910390f35b348015610187575f80fd5b50610190610695565b60405161019d9190611b62565b60405180910390f35b3480156101b1575f80fd5b506101cc60048036038101906101c79190611b7b565b61069b565b005b6101e860048036038101906101e39190611cbe565b610ba5565b005b6002816040516101fa9190611d9c565b90815260200160405180910390206006015f9054906101000a900460ff16610257576040517f08c379a000000000000000000000000000000000000000000000000000000000815260040161024e90611dfc565b60405180910390fd5b5f6002826040516102689190611d9c565b90815260200160405180910390206006015f6101000a81548160ff0219169083151502179055507f81a7424122bfc6c777b03ba3e559003333e926b901ec6669fdecf699d354f809816040516102be9190611e1a565b60405180910390a150565b5f8060605f805f805f6002896040516102e29190611d9c565b90815260200160405180910390206040518060e00160405290815f82015481526020016001820154815260200160028201805461031e90611e67565b80601f016020809104026020016040519081016040528092919081815260200182805461034a90611e67565b80156103955780601f1061036c57610100808354040283529160200191610395565b820191905f5260205f20905b81548152906001019060200180831161037857829003601f168201915b50505050508152602001600382015f9054906101000a900473ffffffffffffffffffffffffffffffffffffffff1673ffffffffffffffffffffffffffffffffffffffff1673ffffffffffffffffffffffffffffffffffffffff1681526020016004820154815260200160058201548152602001600682015f9054906101000a900460ff1615151515815250509050805f015181602001518260400151836060015184608001518560a001518660c00151975097509750975097509750975050919395979092949650565b5f61016773ffffffffffffffffffffffffffffffffffffffff1663204d207c843062159398866040518563ffffffff1660e01b81526004016104a49493929190611e97565b6020604051808303815f875af11580156104c0573d5f803e3d5ffd5b505050506040513d601f19601f820116820180604052508101906104e49190611f10565b90507f81f3d08d09140e96158a86596b336e623b98d305c5c7b7f2dbe9546eaebcd5d783838360405161051993929190611f94565b60405180910390a15f8160070b14610566576040517f08c379a000000000000000000000000000000000000000000000000000000000815260040161055d90612026565b60405180910390fd5b505050565b5f8054906101000a900473ffffffffffffffffffffffffffffffffffffffff1681565b6002818051602081018201805184825260208301602085012081835280955050505050505f91509050805f0154908060010154908060020180546105d190611e67565b80601f01602080910402602001604051908101604052809291908181526020018280546105fd90611e67565b80156106485780601f1061061f57610100808354040283529160200191610648565b820191905f5260205f20905b81548152906001019060200180831161062b57829003601f168201915b505050505090806003015f9054906101000a900473ffffffffffffffffffffffffffffffffffffffff1690806004015490806005015490806006015f9054906101000a900460ff16905087565b60015481565b5f861180156106ac57506127108611155b6106eb576040517f08c379a00000000000000000000000000000000000000000000000000000000081526004016106e2906120b4565b60405180910390fd5b5f851180156106fc57506127108511155b61073b576040517f08c379a000000000000000000000000000000000000000000000000000000000815260040161073290612142565b60405180910390fd5b5f821161077d576040517f08c379a0000000000000000000000000000000000000000000000000000000008152600401610774906121d0565b60405180910390fd5b5f81116107bf576040517f08c379a00000000000000000000000000000000000000000000000000000000081526004016107b69061225e565b60405180910390fd5b5f73ffffffffffffffffffffffffffffffffffffffff168373ffffffffffffffffffffffffffffffffffffffff160361082d576040517f08c379a0000000000000000000000000000000000000000000000000000000008152600401610824906122c6565b60405180910390fd5b5f845111610870576040517f08c379a000000000000000000000000000000000000000000000000000000000815260040161086790612354565b60405180910390fd5b7f37e3403f90577c37d7124f91e9054e6918be9f2edbb8ec93108345299cae6069845f8085856040516108a79594939291906123bc565b60405180910390a16040518060e001604052808781526020018681526020018581526020018473ffffffffffffffffffffffffffffffffffffffff1681526020018381526020018281526020016001151581525060028560405161090b9190611d9c565b90815260200160405180910390205f820151815f015560208201518160010155604082015181600201908161094091906125c4565b506060820151816003015f6101000a81548173ffffffffffffffffffffffffffffffffffffffff021916908373ffffffffffffffffffffffffffffffffffffffff1602179055506080820151816004015560a0820151816005015560c0820151816006015f6101000a81548160ff0219169083151502179055509050505f6002856040516109ce9190611d9c565b90815260200160405180910390206040518060e00160405290815f820154815260200160018201548152602001600282018054610a0a90611e67565b80601f0160208091040260200160405190810160405280929190818152602001828054610a3690611e67565b8015610a815780601f10610a5857610100808354040283529160200191610a81565b820191905f5260205f20905b815481529060010190602001808311610a6457829003601f168201915b50505050508152602001600382015f9054906101000a900473ffffffffffffffffffffffffffffffffffffffff1673ffffffffffffffffffffffffffffffffffffffff1673ffffffffffffffffffffffffffffffffffffffff1681526020016004820154815260200160058201548152602001600682015f9054906101000a900460ff16151515158152505090507f37e3403f90577c37d7124f91e9054e6918be9f2edbb8ec93108345299cae60698560018360c0015184608001518560a00151604051610b539594939291906126dd565b60405180910390a17f04c4d68f06f8fe65a81365ebaaa0c26d6e3ea13e596bbc240a84e411b2582c12858888878787604051610b9496959493929190612748565b60405180910390a150505050505050565b5f600284604051610bb69190611d9c565b908152602001604051809103902090507f8c456aedf4877dc6046f0d3a800fa904853f4b7d92742fa60455f70d85b871e984826006015f9054906101000a900460ff16853486604051610c0d95949392919061284a565b60405180910390a1806006015f9054906101000a900460ff16610c65576040517f08c379a0000000000000000000000000000000000000000000000000000000008152600401610c5c9061290d565b60405180910390fd5b5f604051602001610c7590612975565b6040516020818303038152906040528051906020012084604051602001610c9c9190611d9c565b6040516020818303038152906040528051906020012003610cc35781600401549050610d1d565b604051602001610cd2906129d3565b6040516020818303038152906040528051906020012084604051602001610cf99190611d9c565b6040516020818303038152906040528051906020012003610d1c57816005015490505b5b80341115610d60576040517f08c379a0000000000000000000000000000000000000000000000000000000008152600401610d5790612a31565b60405180910390fd5b5f6215939890505f600367ffffffffffffffff811115610d8357610d82611807565b5b604051908082528060200260200182016040528015610db657816020015b6060815260200190600190039081610da15790505b509050610df8876040518060400160405280600181526020017f2e0000000000000000000000000000000000000000000000000000000000000081525061142f565b90506003815114610e3e576040517f08c379a0000000000000000000000000000000000000000000000000000000008152600401610e3590612a99565b60405180910390fd5b5f610e62825f81518110610e5557610e54612ab7565b5b6020026020010151611657565b90505f610e8983600181518110610e7c57610e7b612ab7565b5b6020026020010151611657565b90505f610eb084600281518110610ea357610ea2612ab7565b5b6020026020010151611657565b90505f81602084901b602886901b171790507fb8e396c6401e0a3d854974dd1e2be030bd1a4e36b51764b996765a9289e167233462159398838c604051610efa9493929190612b2e565b60405180910390a15f6040518060a001604052808b81526020018373ffffffffffffffffffffffffffffffffffffffff168152602001603c42610f3d9190612bb8565b81526020013481526020015f81525090505f600267ffffffffffffffff811115610f6a57610f69611807565b5b604051908082528060200260200182016040528015610f9d57816020015b6060815260200190600190039081610f885790505b50905063c04b8d5960e01b82604051602401610fb99190612cc4565b604051602081830303815290604052907bffffffffffffffffffffffffffffffffffffffffffffffffffffffff19166020820180517bffffffffffffffffffffffffffffffffffffffffffffffffffffffff8381831617835250505050815f8151811061102957611028612ab7565b5b60200260200101819052506312210e8a60e01b604051602401604051602081830303815290604052907bffffffffffffffffffffffffffffffffffffffffffffffffffffffff19166020820180517bffffffffffffffffffffffffffffffffffffffffffffffffffffffff8381831617835250505050816001815181106110b3576110b2612ab7565b5b60200260200101819052507f97518e16ecbcafcf3886a786d06019730b4d0cdab67c6c9ed714046d7cb497b58151825f815181106110f4576110f3612ab7565b5b6020026020010151836001815181106111105761110f612ab7565b5b602002602001015160405161112793929190612d2e565b60405180910390a17f7f9aa0c09e8dafed36d3cbd4240ca32ca3c86fa5dfc5a328f6d940952695b196825f015183602001518460600151856080015162159398876040015160405161117e96959493929190612dce565b60405180910390a15f8873ffffffffffffffffffffffffffffffffffffffff1663ac9650d834846040518363ffffffff1660e01b81526004016111c19190612f02565b5f6040518083038185885af19350505050801561120057506040513d5f823e3d601f19601f820116820180604052508101906111fd9190613072565b60015b6113365761120c6130c5565b806308c379a0036112c057506112206130e4565b8061122b57506112c2565b7f75775a37ad7d891f9f48727e889a78a65b96f98bd6265526f3928a303b7afb0b5f8660405161125c9291906131f6565b60405180910390a180604051602001611275919061327a565b6040516020818303038152906040526040517f08c379a00000000000000000000000000000000000000000000000000000000081526004016112b79190611e1a565b60405180910390fd5b505b7f75775a37ad7d891f9f48727e889a78a65b96f98bd6265526f3928a303b7afb0b5f856040516112f39291906132e5565b60405180910390a16040517f08c379a000000000000000000000000000000000000000000000000000000000815260040161132d9061338f565b60405180910390fd5b805f8151811061134957611348612ab7565b5b602002602001015180602001905181019061136491906133c1565b91507f75775a37ad7d891f9f48727e889a78a65b96f98bd6265526f3928a303b7afb0b8286604051611397929190613436565b60405180910390a1505f8b6006015f6101000a81548160ff0219169083151502179055507fc4f057e87b29411545a6f83503e316fda0dc00c7cd6bccefedb5e808cb0473a28e8e6001548e6003015f9054906101000a900473ffffffffffffffffffffffffffffffffffffffff1685604051611417959493929190613470565b60405180910390a15050505050505050505050505050565b60605f8390505f600190505f5b82518110156114e657845f8151811061145857611457612ab7565b5b602001015160f81c60f81b7effffffffffffffffffffffffffffffffffffffffffffffffffffffffffffff191683828151811061149857611497612ab7565b5b602001015160f81c60f81b7effffffffffffffffffffffffffffffffffffffffffffffffffffffffffffff1916036114d95781806114d5906134cf565b9250505b808060010191505061143c565b505f8167ffffffffffffffff81111561150257611501611807565b5b60405190808252806020026020018201604052801561153557816020015b60608152602001906001900390816115205790505b5090505f805f5b855181101561161e57875f8151811061155857611557612ab7565b5b602001015160f81c60f81b7effffffffffffffffffffffffffffffffffffffffffffffffffffffffffffff191686828151811061159857611597612ab7565b5b602001015160f81c60f81b7effffffffffffffffffffffffffffffffffffffffffffffffffffffffffffff191603611611576115d58984836116ec565b8483815181106115e8576115e7612ab7565b5b60200260200101819052506001816116009190612bb8565b9250818061160d906134cf565b9250505b808060010191505061153c565b5061162b888387516116ec565b83828151811061163e5761163d612ab7565b5b6020026020010181905250829550505050505092915050565b5f808290505f805b82518110156116e1575f83828151811061167c5761167b612ab7565b5b602001015160f81c60f81b60f81c905060308160ff16101580156116a4575060398160ff1611155b156116d3576030816116b69190613522565b60ff16600a846116c69190613556565b6116d09190612bb8565b92505b50808060010191505061165f565b508092505050919050565b60605f8490505f84846116ff9190613597565b67ffffffffffffffff81111561171857611717611807565b5b6040519080825280601f01601f19166020018201604052801561174a5781602001600182028036833780820191505090505b5090505f8590505b848110156117d15782818151811061176d5761176c612ab7565b5b602001015160f81c60f81b8287836117859190613597565b8151811061179657611795612ab7565b5b60200101907effffffffffffffffffffffffffffffffffffffffffffffffffffffffffffff191690815f1a9053508080600101915050611752565b5080925050509392505050565b5f604051905090565b5f80fd5b5f80fd5b5f80fd5b5f80fd5b5f601f19601f8301169050919050565b7f4e487b71000000000000000000000000000000000000000000000000000000005f52604160045260245ffd5b61183d826117f7565b810181811067ffffffffffffffff8211171561185c5761185b611807565b5b80604052505050565b5f61186e6117de565b905061187a8282611834565b919050565b5f67ffffffffffffffff82111561189957611898611807565b5b6118a2826117f7565b9050602081019050919050565b828183375f83830152505050565b5f6118cf6118ca8461187f565b611865565b9050828152602081018484840111156118eb576118ea6117f3565b5b6118f68482856118af565b509392505050565b5f82601f830112611912576119116117ef565b5b81356119228482602086016118bd565b91505092915050565b5f602082840312156119405761193f6117e7565b5b5f82013567ffffffffffffffff81111561195d5761195c6117eb565b5b611969848285016118fe565b91505092915050565b5f819050919050565b61198481611972565b82525050565b5f81519050919050565b5f82825260208201905092915050565b8281835e5f83830152505050565b5f6119bc8261198a565b6119c68185611994565b93506119d68185602086016119a4565b6119df816117f7565b840191505092915050565b5f73ffffffffffffffffffffffffffffffffffffffff82169050919050565b5f611a13826119ea565b9050919050565b611a2381611a09565b82525050565b5f8115159050919050565b611a3d81611a29565b82525050565b5f60e082019050611a565f83018a61197b565b611a63602083018961197b565b8181036040830152611a7581886119b2565b9050611a846060830187611a1a565b611a91608083018661197b565b611a9e60a083018561197b565b611aab60c0830184611a34565b98975050505050505050565b611ac081611a09565b8114611aca575f80fd5b50565b5f81359050611adb81611ab7565b92915050565b611aea81611972565b8114611af4575f80fd5b50565b5f81359050611b0581611ae1565b92915050565b5f8060408385031215611b2157611b206117e7565b5b5f611b2e85828601611acd565b9250506020611b3f85828601611af7565b9150509250929050565b5f602082019050611b5c5f830184611a1a565b92915050565b5f602082019050611b755f83018461197b565b92915050565b5f805f805f8060c08789031215611b9557611b946117e7565b5b5f611ba289828a01611af7565b9650506020611bb389828a01611af7565b955050604087013567ffffffffffffffff811115611bd457611bd36117eb565b5b611be089828a016118fe565b9450506060611bf189828a01611acd565b9350506080611c0289828a01611af7565b92505060a0611c1389828a01611af7565b9150509295509295509295565b5f67ffffffffffffffff821115611c3a57611c39611807565b5b611c43826117f7565b9050602081019050919050565b5f611c62611c5d84611c20565b611865565b905082815260208101848484011115611c7e57611c7d6117f3565b5b611c898482856118af565b509392505050565b5f82601f830112611ca557611ca46117ef565b5b8135611cb5848260208601611c50565b91505092915050565b5f805f60608486031215611cd557611cd46117e7565b5b5f84013567ffffffffffffffff811115611cf257611cf16117eb565b5b611cfe868287016118fe565b935050602084013567ffffffffffffffff811115611d1f57611d1e6117eb565b5b611d2b868287016118fe565b925050604084013567ffffffffffffffff811115611d4c57611d4b6117eb565b5b611d5886828701611c91565b9150509250925092565b5f81905092915050565b5f611d768261198a565b611d808185611d62565b9350611d908185602086016119a4565b80840191505092915050565b5f611da78284611d6c565b915081905092915050565b7f4e6f20616374697665207468726573686f6c647320666f756e640000000000005f82015250565b5f611de6601a83611994565b9150611df182611db2565b602082019050919050565b5f6020820190508181035f830152611e1381611dda565b9050919050565b5f6020820190508181035f830152611e3281846119b2565b905092915050565b7f4e487b71000000000000000000000000000000000000000000000000000000005f52602260045260245ffd5b5f6002820490506001821680611e7e57607f821691505b602082108103611e9157611e90611e3a565b5b50919050565b5f608082019050611eaa5f830187611a1a565b611eb76020830186611a1a565b611ec46040830185611a1a565b611ed1606083018461197b565b95945050505050565b5f8160070b9050919050565b611eef81611eda565b8114611ef9575f80fd5b50565b5f81519050611f0a81611ee6565b92915050565b5f60208284031215611f2557611f246117e7565b5b5f611f3284828501611efc565b91505092915050565b7f526f7574657220617070726f76616c20617474656d70740000000000000000005f82015250565b5f611f6f601783611994565b9150611f7a82611f3b565b602082019050919050565b611f8e81611eda565b82525050565b5f6080820190508181035f830152611fab81611f63565b9050611fba6020830186611a1a565b611fc7604083018561197b565b611fd46060830184611f85565b949350505050565b7f526f7574657220617070726f76616c206661696c6564000000000000000000005f82015250565b5f612010601683611994565b915061201b82611fdc565b602082019050919050565b5f6020820190508181035f83015261203d81612004565b9050919050565b7f53746f70206c6f7373207468726573686f6c64206d75737420626520626574775f8201527f65656e203120616e6420313030303020626173697320706f696e747300000000602082015250565b5f61209e603c83611994565b91506120a982612044565b604082019050919050565b5f6020820190508181035f8301526120cb81612092565b9050919050565b7f427579206f72646572207468726573686f6c64206d75737420626520626574775f8201527f65656e203120616e6420313030303020626173697320706f696e747300000000602082015250565b5f61212c603c83611994565b9150612137826120d2565b604082019050919050565b5f6020820190508181035f83015261215981612120565b9050919050565b7f53746f70206c6f737320616d6f756e74206d75737420626520677265617465725f8201527f207468616e207a65726f00000000000000000000000000000000000000000000602082015250565b5f6121ba602a83611994565b91506121c582612160565b604082019050919050565b5f6020820190508181035f8301526121e7816121ae565b9050919050565b7f427579206f7264657220616d6f756e74206d75737420626520677265617465725f8201527f207468616e207a65726f00000000000000000000000000000000000000000000602082015250565b5f612248602a83611994565b9150612253826121ee565b604082019050919050565b5f6020820190508181035f8301526122758161223c565b9050919050565b7f546f6b656e2061646472657373206d7573742062652076616c696400000000005f82015250565b5f6122b0601b83611994565b91506122bb8261227c565b602082019050919050565b5f6020820190508181035f8301526122dd816122a4565b9050919050565b7f486564657261206163636f756e74204944206d757374206e6f7420626520656d5f8201527f7074790000000000000000000000000000000000000000000000000000000000602082015250565b5f61233e602383611994565b9150612349826122e4565b604082019050919050565b5f6020820190508181035f83015261236b81612332565b9050919050565b7f4265666f72652073657474696e67207468726573686f6c6400000000000000005f82015250565b5f6123a6601883611994565b91506123b182612372565b602082019050919050565b5f60c0820190508181035f8301526123d38161239a565b905081810360208301526123e781886119b2565b90506123f66040830187611a34565b6124036060830186611a34565b612410608083018561197b565b61241d60a083018461197b565b9695505050505050565b5f819050815f5260205f209050919050565b5f6020601f8301049050919050565b5f82821b905092915050565b5f600883026124837fffffffffffffffffffffffffffffffffffffffffffffffffffffffffffffffff82612448565b61248d8683612448565b95508019841693508086168417925050509392505050565b5f819050919050565b5f6124c86124c36124be84611972565b6124a5565b611972565b9050919050565b5f819050919050565b6124e1836124ae565b6124f56124ed826124cf565b848454612454565b825550505050565b5f90565b6125096124fd565b6125148184846124d8565b505050565b5b818110156125375761252c5f82612501565b60018101905061251a565b5050565b601f82111561257c5761254d81612427565b61255684612439565b81016020851015612565578190505b61257961257185612439565b830182612519565b50505b505050565b5f82821c905092915050565b5f61259c5f1984600802612581565b1980831691505092915050565b5f6125b4838361258d565b9150826002028217905092915050565b6125cd8261198a565b67ffffffffffffffff8111156125e6576125e5611807565b5b6125f08254611e67565b6125fb82828561253b565b5f60209050601f83116001811461262c575f841561261a578287015190505b61262485826125a9565b86555061268b565b601f19841661263a86612427565b5f5b828110156126615784890151825560018201915060208501945060208101905061263c565b8683101561267e578489015161267a601f89168261258d565b8355505b6001600288020188555050505b505050505050565b7f41667465722073657474696e67207468726573686f6c640000000000000000005f82015250565b5f6126c7601783611994565b91506126d282612693565b602082019050919050565b5f60c0820190508181035f8301526126f4816126bb565b9050818103602083015261270881886119b2565b90506127176040830187611a34565b6127246060830186611a34565b612731608083018561197b565b61273e60a083018461197b565b9695505050505050565b5f60c0820190508181035f83015261276081896119b2565b905061276f602083018861197b565b61277c604083018761197b565b6127896060830186611a1a565b612796608083018561197b565b6127a360a083018461197b565b979650505050505050565b7f496e697469616c207374617465000000000000000000000000000000000000005f82015250565b5f6127e2600d83611994565b91506127ed826127ae565b602082019050919050565b5f81519050919050565b5f82825260208201905092915050565b5f61281c826127f8565b6128268185612802565b93506128368185602086016119a4565b61283f816117f7565b840191505092915050565b5f60c0820190508181035f830152612861816127d6565b9050818103602083015261287581886119b2565b90506128846040830187611a34565b818103606083015261289681866119b2565b90506128a5608083018561197b565b81810360a08301526128b78184612812565b90509695505050505050565b7f55736572207468726573686f6c647320617265206e6f742061637469766500005f82015250565b5f6128f7601e83611994565b9150612902826128c3565b602082019050919050565b5f6020820190508181035f830152612924816128eb565b9050919050565b7f73746f704c6f73730000000000000000000000000000000000000000000000005f82015250565b5f61295f600883611d62565b915061296a8261292b565b600882019050919050565b5f61297f82612953565b9150819050919050565b7f6275794f726465720000000000000000000000000000000000000000000000005f82015250565b5f6129bd600883611d62565b91506129c882612989565b600882019050919050565b5f6129dd826129b1565b9150819050919050565b7f416d6f756e742065786365656473207468726573686f6c64206c696d697400005f82015250565b5f612a1b601e83611994565b9150612a26826129e7565b602082019050919050565b5f6020820190508181035f830152612a4881612a0f565b9050919050565b7f496e76616c696420486564657261206163636f756e7420494420666f726d61745f82015250565b5f612a83602083611994565b9150612a8e82612a4f565b602082019050919050565b5f6020820190508181035f830152612ab081612a77565b9050919050565b7f4e487b71000000000000000000000000000000000000000000000000000000005f52603260045260245ffd5b7f526f7574657220736574757000000000000000000000000000000000000000005f82015250565b5f612b18600c83611994565b9150612b2382612ae4565b602082019050919050565b5f60a0820190508181035f830152612b4581612b0c565b9050612b54602083018761197b565b612b616040830186611a1a565b612b6e6060830185611a1a565b8181036080830152612b808184612812565b905095945050505050565b7f4e487b71000000000000000000000000000000000000000000000000000000005f52601160045260245ffd5b5f612bc282611972565b9150612bcd83611972565b9250828201905080821115612be557612be4612b8b565b5b92915050565b5f82825260208201905092915050565b5f612c05826127f8565b612c0f8185612beb565b9350612c1f8185602086016119a4565b612c28816117f7565b840191505092915050565b612c3c81611a09565b82525050565b612c4b81611972565b82525050565b5f60a083015f8301518482035f860152612c6b8282612bfb565b9150506020830151612c806020860182612c33565b506040830151612c936040860182612c42565b506060830151612ca66060860182612c42565b506080830151612cb96080860182612c42565b508091505092915050565b5f6020820190508181035f830152612cdc8184612c51565b905092915050565b7f4d756c746963616c6c20736574757000000000000000000000000000000000005f82015250565b5f612d18600f83611994565b9150612d2382612ce4565b602082019050919050565b5f6080820190508181035f830152612d4581612d0c565b9050612d54602083018661197b565b8181036040830152612d668185612812565b90508181036060830152612d7a8184612812565b9050949350505050565b7f46696e616c20706172616d7300000000000000000000000000000000000000005f82015250565b5f612db8600c83611994565b9150612dc382612d84565b602082019050919050565b5f60e0820190508181035f830152612de581612dac565b90508181036020830152612df98189612812565b9050612e086040830188611a1a565b612e15606083018761197b565b612e22608083018661197b565b612e2f60a0830185611a1a565b612e3c60c083018461197b565b979650505050505050565b5f81519050919050565b5f82825260208201905092915050565b5f819050602082019050919050565b5f612e7b8383612bfb565b905092915050565b5f602082019050919050565b5f612e9982612e47565b612ea38185612e51565b935083602082028501612eb585612e61565b805f5b85811015612ef05784840389528151612ed18582612e70565b9450612edc83612e83565b925060208a01995050600181019050612eb8565b50829750879550505050505092915050565b5f6020820190508181035f830152612f1a8184612e8f565b905092915050565b5f67ffffffffffffffff821115612f3c57612f3b611807565b5b602082029050602081019050919050565b5f80fd5b5f612f63612f5e84611c20565b611865565b905082815260208101848484011115612f7f57612f7e6117f3565b5b612f8a8482856119a4565b509392505050565b5f82601f830112612fa657612fa56117ef565b5b8151612fb6848260208601612f51565b91505092915050565b5f612fd1612fcc84612f22565b611865565b90508083825260208201905060208402830185811115612ff457612ff3612f4d565b5b835b8181101561303b57805167ffffffffffffffff811115613019576130186117ef565b5b8086016130268982612f92565b85526020850194505050602081019050612ff6565b5050509392505050565b5f82601f830112613059576130586117ef565b5b8151613069848260208601612fbf565b91505092915050565b5f60208284031215613087576130866117e7565b5b5f82015167ffffffffffffffff8111156130a4576130a36117eb565b5b6130b084828501613045565b91505092915050565b5f8160e01c9050919050565b5f60033d11156130e15760045f803e6130de5f516130b9565b90505b90565b5f60443d10613170576130f56117de565b60043d036004823e80513d602482011167ffffffffffffffff8211171561311d575050613170565b808201805167ffffffffffffffff81111561313b5750505050613170565b80602083010160043d038501811115613158575050505050613170565b61316782602001850186611834565b82955050505050505b90565b7f53776170206661696c6564207769746820726561736f6e0000000000000000005f82015250565b5f6131a7601783611994565b91506131b282613173565b602082019050919050565b5f819050919050565b5f6131e06131db6131d6846131bd565b6124a5565b611972565b9050919050565b6131f0816131c6565b82525050565b5f6060820190508181035f83015261320d8161319b565b905061321c60208301856131e7565b6132296040830184611a1a565b9392505050565b7f526f757465722063616c6c206661696c65643a200000000000000000000000005f82015250565b5f613264601483611d62565b915061326f82613230565b601482019050919050565b5f61328482613258565b91506132908284611d6c565b915081905092915050565b7f53776170206661696c6564207769746820756e6b6e6f776e20726561736f6e005f82015250565b5f6132cf601f83611994565b91506132da8261329b565b602082019050919050565b5f6060820190508181035f8301526132fc816132c3565b905061330b60208301856131e7565b6133186040830184611a1a565b9392505050565b7f526f757465722063616c6c206661696c65643a20756e6b6e6f776e20726561735f8201527f6f6e000000000000000000000000000000000000000000000000000000000000602082015250565b5f613379602283611994565b91506133848261331f565b604082019050919050565b5f6020820190508181035f8301526133a68161336d565b9050919050565b5f815190506133bb81611ae1565b92915050565b5f602082840312156133d6576133d56117e7565b5b5f6133e3848285016133ad565b91505092915050565b7f53776170207375636365737300000000000000000000000000000000000000005f82015250565b5f613420600c83611994565b915061342b826133ec565b602082019050919050565b5f6060820190508181035f83015261344d81613414565b905061345c602083018561197b565b6134696040830184611a1a565b9392505050565b5f60a0820190508181035f83015261348881886119b2565b9050818103602083015261349c81876119b2565b90506134ab604083018661197b565b6134b86060830185611a1a565b6134c5608083018461197b565b9695505050505050565b5f6134d982611972565b91507fffffffffffffffffffffffffffffffffffffffffffffffffffffffffffffffff820361350b5761350a612b8b565b5b600182019050919050565b5f60ff82169050919050565b5f61352c82613516565b915061353783613516565b9250828203905060ff8111156135505761354f612b8b565b5b92915050565b5f61356082611972565b915061356b83611972565b925082820261357981611972565b915082820484148315176135905761358f612b8b565b5b5092915050565b5f6135a182611972565b91506135ac83611972565b92508282039050818111156135c4576135c3612b8b565b5b9291505056fea2646970667358221220b139acb887f8e233b0ecf543b5be907694d17e8dcbe9983a2281f93619c104be64736f6c634300081a0033",
			"opcodes": "PUSH1 0x80 PUSH1 0x40 MSTORE CALLVALUE DUP1 ISZERO PUSH2 0xF JUMPI PUSH0 DUP1 REVERT JUMPDEST POP PUSH1 0x40 MLOAD PUSH2 0x370C CODESIZE SUB DUP1 PUSH2 0x370C DUP4 CODECOPY DUP2 DUP2 ADD PUSH1 0x40 MSTORE DUP2 ADD SWAP1 PUSH2 0x31 SWAP2 SWAP1 PUSH2 0xD4 JUMP JUMPDEST DUP1 PUSH0 DUP1 PUSH2 0x100 EXP DUP2 SLOAD DUP2 PUSH20 0xFFFFFFFFFFFFFFFFFFFFFFFFFFFFFFFFFFFFFFFF MUL NOT AND SWAP1 DUP4 PUSH20 0xFFFFFFFFFFFFFFFFFFFFFFFFFFFFFFFFFFFFFFFF AND MUL OR SWAP1 SSTORE POP POP PUSH2 0xFF JUMP JUMPDEST PUSH0 DUP1 REVERT JUMPDEST PUSH0 PUSH20 0xFFFFFFFFFFFFFFFFFFFFFFFFFFFFFFFFFFFFFFFF DUP3 AND SWAP1 POP SWAP2 SWAP1 POP JUMP JUMPDEST PUSH0 PUSH2 0xA3 DUP3 PUSH2 0x7A JUMP JUMPDEST SWAP1 POP SWAP2 SWAP1 POP JUMP JUMPDEST PUSH2 0xB3 DUP2 PUSH2 0x99 JUMP JUMPDEST DUP2 EQ PUSH2 0xBD JUMPI PUSH0 DUP1 REVERT JUMPDEST POP JUMP JUMPDEST PUSH0 DUP2 MLOAD SWAP1 POP PUSH2 0xCE DUP2 PUSH2 0xAA JUMP JUMPDEST SWAP3 SWAP2 POP POP JUMP JUMPDEST PUSH0 PUSH1 0x20 DUP3 DUP5 SUB SLT ISZERO PUSH2 0xE9 JUMPI PUSH2 0xE8 PUSH2 0x76 JUMP JUMPDEST JUMPDEST PUSH0 PUSH2 0xF6 DUP5 DUP3 DUP6 ADD PUSH2 0xC0 JUMP JUMPDEST SWAP2 POP POP SWAP3 SWAP2 POP POP JUMP JUMPDEST PUSH2 0x3600 DUP1 PUSH2 0x10C PUSH0 CODECOPY PUSH0 RETURN INVALID PUSH1 0x80 PUSH1 0x40 MSTORE PUSH1 0x4 CALLDATASIZE LT PUSH2 0x7A JUMPI PUSH0 CALLDATALOAD PUSH1 0xE0 SHR DUP1 PUSH4 0x9286EDDB GT PUSH2 0x4D JUMPI DUP1 PUSH4 0x9286EDDB EQ PUSH2 0x13A JUMPI DUP1 PUSH4 0x9D1B464A EQ PUSH2 0x17C JUMPI DUP1 PUSH4 0xB5FA3DBD EQ PUSH2 0x1A6 JUMPI DUP1 PUSH4 0xD3C0EAC3 EQ PUSH2 0x1CE JUMPI PUSH2 0x7A JUMP JUMPDEST DUP1 PUSH4 0x552F9A8F EQ PUSH2 0x7E JUMPI DUP1 PUSH4 0x6CC3EB68 EQ PUSH2 0xA6 JUMPI DUP1 PUSH4 0x88A95E61 EQ PUSH2 0xE8 JUMPI DUP1 PUSH4 0x8DA5CB5B EQ PUSH2 0x110 JUMPI JUMPDEST PUSH0 DUP1 REVERT JUMPDEST CALLVALUE DUP1 ISZERO PUSH2 0x89 JUMPI PUSH0 DUP1 REVERT JUMPDEST POP PUSH2 0xA4 PUSH1 0x4 DUP1 CALLDATASIZE SUB DUP2 ADD SWAP1 PUSH2 0x9F SWAP2 SWAP1 PUSH2 0x192B JUMP JUMPDEST PUSH2 0x1EA JUMP JUMPDEST STOP JUMPDEST CALLVALUE DUP1 ISZERO PUSH2 0xB1 JUMPI PUSH0 DUP1 REVERT JUMPDEST POP PUSH2 0xCC PUSH1 0x4 DUP1 CALLDATASIZE SUB DUP2 ADD SWAP1 PUSH2 0xC7 SWAP2 SWAP1 PUSH2 0x192B JUMP JUMPDEST PUSH2 0x2C9 JUMP JUMPDEST PUSH1 0x40 MLOAD PUSH2 0xDF SWAP8 SWAP7 SWAP6 SWAP5 SWAP4 SWAP3 SWAP2 SWAP1 PUSH2 0x1A43 JUMP JUMPDEST PUSH1 0x40 MLOAD DUP1 SWAP2 SUB SWAP1 RETURN JUMPDEST CALLVALUE DUP1 ISZERO PUSH2 0xF3 JUMPI PUSH0 DUP1 REVERT JUMPDEST POP PUSH2 0x10E PUSH1 0x4 DUP1 CALLDATASIZE SUB DUP2 ADD SWAP1 PUSH2 0x109 SWAP2 SWAP1 PUSH2 0x1B0B JUMP JUMPDEST PUSH2 0x45F JUMP JUMPDEST STOP JUMPDEST CALLVALUE DUP1 ISZERO PUSH2 0x11B JUMPI PUSH0 DUP1 REVERT JUMPDEST POP PUSH2 0x124 PUSH2 0x56B JUMP JUMPDEST PUSH1 0x40 MLOAD PUSH2 0x131 SWAP2 SWAP1 PUSH2 0x1B49 JUMP JUMPDEST PUSH1 0x40 MLOAD DUP1 SWAP2 SUB SWAP1 RETURN JUMPDEST CALLVALUE DUP1 ISZERO PUSH2 0x145 JUMPI PUSH0 DUP1 REVERT JUMPDEST POP PUSH2 0x160 PUSH1 0x4 DUP1 CALLDATASIZE SUB DUP2 ADD SWAP1 PUSH2 0x15B SWAP2 SWAP1 PUSH2 0x192B JUMP JUMPDEST PUSH2 0x58E JUMP JUMPDEST PUSH1 0x40 MLOAD PUSH2 0x173 SWAP8 SWAP7 SWAP6 SWAP5 SWAP4 SWAP3 SWAP2 SWAP1 PUSH2 0x1A43 JUMP JUMPDEST PUSH1 0x40 MLOAD DUP1 SWAP2 SUB SWAP1 RETURN JUMPDEST CALLVALUE DUP1 ISZERO PUSH2 0x187 JUMPI PUSH0 DUP1 REVERT JUMPDEST POP PUSH2 0x190 PUSH2 0x695 JUMP JUMPDEST PUSH1 0x40 MLOAD PUSH2 0x19D SWAP2 SWAP1 PUSH2 0x1B62 JUMP JUMPDEST PUSH1 0x40 MLOAD DUP1 SWAP2 SUB SWAP1 RETURN JUMPDEST CALLVALUE DUP1 ISZERO PUSH2 0x1B1 JUMPI PUSH0 DUP1 REVERT JUMPDEST POP PUSH2 0x1CC PUSH1 0x4 DUP1 CALLDATASIZE SUB DUP2 ADD SWAP1 PUSH2 0x1C7 SWAP2 SWAP1 PUSH2 0x1B7B JUMP JUMPDEST PUSH2 0x69B JUMP JUMPDEST STOP JUMPDEST PUSH2 0x1E8 PUSH1 0x4 DUP1 CALLDATASIZE SUB DUP2 ADD SWAP1 PUSH2 0x1E3 SWAP2 SWAP1 PUSH2 0x1CBE JUMP JUMPDEST PUSH2 0xBA5 JUMP JUMPDEST STOP JUMPDEST PUSH1 0x2 DUP2 PUSH1 0x40 MLOAD PUSH2 0x1FA SWAP2 SWAP1 PUSH2 0x1D9C JUMP JUMPDEST SWAP1 DUP2 MSTORE PUSH1 0x20 ADD PUSH1 0x40 MLOAD DUP1 SWAP2 SUB SWAP1 KECCAK256 PUSH1 0x6 ADD PUSH0 SWAP1 SLOAD SWAP1 PUSH2 0x100 EXP SWAP1 DIV PUSH1 0xFF AND PUSH2 0x257 JUMPI PUSH1 0x40 MLOAD PUSH32 0x8C379A000000000000000000000000000000000000000000000000000000000 DUP2 MSTORE PUSH1 0x4 ADD PUSH2 0x24E SWAP1 PUSH2 0x1DFC JUMP JUMPDEST PUSH1 0x40 MLOAD DUP1 SWAP2 SUB SWAP1 REVERT JUMPDEST PUSH0 PUSH1 0x2 DUP3 PUSH1 0x40 MLOAD PUSH2 0x268 SWAP2 SWAP1 PUSH2 0x1D9C JUMP JUMPDEST SWAP1 DUP2 MSTORE PUSH1 0x20 ADD PUSH1 0x40 MLOAD DUP1 SWAP2 SUB SWAP1 KECCAK256 PUSH1 0x6 ADD PUSH0 PUSH2 0x100 EXP DUP2 SLOAD DUP2 PUSH1 0xFF MUL NOT AND SWAP1 DUP4 ISZERO ISZERO MUL OR SWAP1 SSTORE POP PUSH32 0x81A7424122BFC6C777B03BA3E559003333E926B901EC6669FDECF699D354F809 DUP2 PUSH1 0x40 MLOAD PUSH2 0x2BE SWAP2 SWAP1 PUSH2 0x1E1A JUMP JUMPDEST PUSH1 0x40 MLOAD DUP1 SWAP2 SUB SWAP1 LOG1 POP JUMP JUMPDEST PUSH0 DUP1 PUSH1 0x60 PUSH0 DUP1 PUSH0 DUP1 PUSH0 PUSH1 0x2 DUP10 PUSH1 0x40 MLOAD PUSH2 0x2E2 SWAP2 SWAP1 PUSH2 0x1D9C JUMP JUMPDEST SWAP1 DUP2 MSTORE PUSH1 0x20 ADD PUSH1 0x40 MLOAD DUP1 SWAP2 SUB SWAP1 KECCAK256 PUSH1 0x40 MLOAD DUP1 PUSH1 0xE0 ADD PUSH1 0x40 MSTORE SWAP1 DUP2 PUSH0 DUP3 ADD SLOAD DUP2 MSTORE PUSH1 0x20 ADD PUSH1 0x1 DUP3 ADD SLOAD DUP2 MSTORE PUSH1 0x20 ADD PUSH1 0x2 DUP3 ADD DUP1 SLOAD PUSH2 0x31E SWAP1 PUSH2 0x1E67 JUMP JUMPDEST DUP1 PUSH1 0x1F ADD PUSH1 0x20 DUP1 SWAP2 DIV MUL PUSH1 0x20 ADD PUSH1 0x40 MLOAD SWAP1 DUP2 ADD PUSH1 0x40 MSTORE DUP1 SWAP3 SWAP2 SWAP1 DUP2 DUP2 MSTORE PUSH1 0x20 ADD DUP3 DUP1 SLOAD PUSH2 0x34A SWAP1 PUSH2 0x1E67 JUMP JUMPDEST DUP1 ISZERO PUSH2 0x395 JUMPI DUP1 PUSH1 0x1F LT PUSH2 0x36C JUMPI PUSH2 0x100 DUP1 DUP4 SLOAD DIV MUL DUP4 MSTORE SWAP2 PUSH1 0x20 ADD SWAP2 PUSH2 0x395 JUMP JUMPDEST DUP3 ADD SWAP2 SWAP1 PUSH0 MSTORE PUSH1 0x20 PUSH0 KECCAK256 SWAP1 JUMPDEST DUP2 SLOAD DUP2 MSTORE SWAP1 PUSH1 0x1 ADD SWAP1 PUSH1 0x20 ADD DUP1 DUP4 GT PUSH2 0x378 JUMPI DUP3 SWAP1 SUB PUSH1 0x1F AND DUP3 ADD SWAP2 JUMPDEST POP POP POP POP POP DUP2 MSTORE PUSH1 0x20 ADD PUSH1 0x3 DUP3 ADD PUSH0 SWAP1 SLOAD SWAP1 PUSH2 0x100 EXP SWAP1 DIV PUSH20 0xFFFFFFFFFFFFFFFFFFFFFFFFFFFFFFFFFFFFFFFF AND PUSH20 0xFFFFFFFFFFFFFFFFFFFFFFFFFFFFFFFFFFFFFFFF AND PUSH20 0xFFFFFFFFFFFFFFFFFFFFFFFFFFFFFFFFFFFFFFFF AND DUP2 MSTORE PUSH1 0x20 ADD PUSH1 0x4 DUP3 ADD SLOAD DUP2 MSTORE PUSH1 0x20 ADD PUSH1 0x5 DUP3 ADD SLOAD DUP2 MSTORE PUSH1 0x20 ADD PUSH1 0x6 DUP3 ADD PUSH0 SWAP1 SLOAD SWAP1 PUSH2 0x100 EXP SWAP1 DIV PUSH1 0xFF AND ISZERO ISZERO ISZERO ISZERO DUP2 MSTORE POP POP SWAP1 POP DUP1 PUSH0 ADD MLOAD DUP2 PUSH1 0x20 ADD MLOAD DUP3 PUSH1 0x40 ADD MLOAD DUP4 PUSH1 0x60 ADD MLOAD DUP5 PUSH1 0x80 ADD MLOAD DUP6 PUSH1 0xA0 ADD MLOAD DUP7 PUSH1 0xC0 ADD MLOAD SWAP8 POP SWAP8 POP SWAP8 POP SWAP8 POP SWAP8 POP SWAP8 POP SWAP8 POP POP SWAP2 SWAP4 SWAP6 SWAP8 SWAP1 SWAP3 SWAP5 SWAP7 POP JUMP JUMPDEST PUSH0 PUSH2 0x167 PUSH20 0xFFFFFFFFFFFFFFFFFFFFFFFFFFFFFFFFFFFFFFFF AND PUSH4 0x204D207C DUP5 ADDRESS PUSH3 0x159398 DUP7 PUSH1 0x40 MLOAD DUP6 PUSH4 0xFFFFFFFF AND PUSH1 0xE0 SHL DUP2 MSTORE PUSH1 0x4 ADD PUSH2 0x4A4 SWAP5 SWAP4 SWAP3 SWAP2 SWAP1 PUSH2 0x1E97 JUMP JUMPDEST PUSH1 0x20 PUSH1 0x40 MLOAD DUP1 DUP4 SUB DUP2 PUSH0 DUP8 GAS CALL ISZERO DUP1 ISZERO PUSH2 0x4C0 JUMPI RETURNDATASIZE PUSH0 DUP1 RETURNDATACOPY RETURNDATASIZE PUSH0 REVERT JUMPDEST POP POP POP POP PUSH1 0x40 MLOAD RETURNDATASIZE PUSH1 0x1F NOT PUSH1 0x1F DUP3 ADD AND DUP3 ADD DUP1 PUSH1 0x40 MSTORE POP DUP2 ADD SWAP1 PUSH2 0x4E4 SWAP2 SWAP1 PUSH2 0x1F10 JUMP JUMPDEST SWAP1 POP PUSH32 0x81F3D08D09140E96158A86596B336E623B98D305C5C7B7F2DBE9546EAEBCD5D7 DUP4 DUP4 DUP4 PUSH1 0x40 MLOAD PUSH2 0x519 SWAP4 SWAP3 SWAP2 SWAP1 PUSH2 0x1F94 JUMP JUMPDEST PUSH1 0x40 MLOAD DUP1 SWAP2 SUB SWAP1 LOG1 PUSH0 DUP2 PUSH1 0x7 SIGNEXTEND EQ PUSH2 0x566 JUMPI PUSH1 0x40 MLOAD PUSH32 0x8C379A000000000000000000000000000000000000000000000000000000000 DUP2 MSTORE PUSH1 0x4 ADD PUSH2 0x55D SWAP1 PUSH2 0x2026 JUMP JUMPDEST PUSH1 0x40 MLOAD DUP1 SWAP2 SUB SWAP1 REVERT JUMPDEST POP POP POP JUMP JUMPDEST PUSH0 DUP1 SLOAD SWAP1 PUSH2 0x100 EXP SWAP1 DIV PUSH20 0xFFFFFFFFFFFFFFFFFFFFFFFFFFFFFFFFFFFFFFFF AND DUP2 JUMP JUMPDEST PUSH1 0x2 DUP2 DUP1 MLOAD PUSH1 0x20 DUP2 ADD DUP3 ADD DUP1 MLOAD DUP5 DUP3 MSTORE PUSH1 0x20 DUP4 ADD PUSH1 0x20 DUP6 ADD KECCAK256 DUP2 DUP4 MSTORE DUP1 SWAP6 POP POP POP POP POP POP PUSH0 SWAP2 POP SWAP1 POP DUP1 PUSH0 ADD SLOAD SWAP1 DUP1 PUSH1 0x1 ADD SLOAD SWAP1 DUP1 PUSH1 0x2 ADD DUP1 SLOAD PUSH2 0x5D1 SWAP1 PUSH2 0x1E67 JUMP JUMPDEST DUP1 PUSH1 0x1F ADD PUSH1 0x20 DUP1 SWAP2 DIV MUL PUSH1 0x20 ADD PUSH1 0x40 MLOAD SWAP1 DUP2 ADD PUSH1 0x40 MSTORE DUP1 SWAP3 SWAP2 SWAP1 DUP2 DUP2 MSTORE PUSH1 0x20 ADD DUP3 DUP1 SLOAD PUSH2 0x5FD SWAP1 PUSH2 0x1E67 JUMP JUMPDEST DUP1 ISZERO PUSH2 0x648 JUMPI DUP1 PUSH1 0x1F LT PUSH2 0x61F JUMPI PUSH2 0x100 DUP1 DUP4 SLOAD DIV MUL DUP4 MSTORE SWAP2 PUSH1 0x20 ADD SWAP2 PUSH2 0x648 JUMP JUMPDEST DUP3 ADD SWAP2 SWAP1 PUSH0 MSTORE PUSH1 0x20 PUSH0 KECCAK256 SWAP1 JUMPDEST DUP2 SLOAD DUP2 MSTORE SWAP1 PUSH1 0x1 ADD SWAP1 PUSH1 0x20 ADD DUP1 DUP4 GT PUSH2 0x62B JUMPI DUP3 SWAP1 SUB PUSH1 0x1F AND DUP3 ADD SWAP2 JUMPDEST POP POP POP POP POP SWAP1 DUP1 PUSH1 0x3 ADD PUSH0 SWAP1 SLOAD SWAP1 PUSH2 0x100 EXP SWAP1 DIV PUSH20 0xFFFFFFFFFFFFFFFFFFFFFFFFFFFFFFFFFFFFFFFF AND SWAP1 DUP1 PUSH1 0x4 ADD SLOAD SWAP1 DUP1 PUSH1 0x5 ADD SLOAD SWAP1 DUP1 PUSH1 0x6 ADD PUSH0 SWAP1 SLOAD SWAP1 PUSH2 0x100 EXP SWAP1 DIV PUSH1 0xFF AND SWAP1 POP DUP8 JUMP JUMPDEST PUSH1 0x1 SLOAD DUP2 JUMP JUMPDEST PUSH0 DUP7 GT DUP1 ISZERO PUSH2 0x6AC JUMPI POP PUSH2 0x2710 DUP7 GT ISZERO JUMPDEST PUSH2 0x6EB JUMPI PUSH1 0x40 MLOAD PUSH32 0x8C379A000000000000000000000000000000000000000000000000000000000 DUP2 MSTORE PUSH1 0x4 ADD PUSH2 0x6E2 SWAP1 PUSH2 0x20B4 JUMP JUMPDEST PUSH1 0x40 MLOAD DUP1 SWAP2 SUB SWAP1 REVERT JUMPDEST PUSH0 DUP6 GT DUP1 ISZERO PUSH2 0x6FC JUMPI POP PUSH2 0x2710 DUP6 GT ISZERO JUMPDEST PUSH2 0x73B JUMPI PUSH1 0x40 MLOAD PUSH32 0x8C379A000000000000000000000000000000000000000000000000000000000 DUP2 MSTORE PUSH1 0x4 ADD PUSH2 0x732 SWAP1 PUSH2 0x2142 JUMP JUMPDEST PUSH1 0x40 MLOAD DUP1 SWAP2 SUB SWAP1 REVERT JUMPDEST PUSH0 DUP3 GT PUSH2 0x77D JUMPI PUSH1 0x40 MLOAD PUSH32 0x8C379A000000000000000000000000000000000000000000000000000000000 DUP2 MSTORE PUSH1 0x4 ADD PUSH2 0x774 SWAP1 PUSH2 0x21D0 JUMP JUMPDEST PUSH1 0x40 MLOAD DUP1 SWAP2 SUB SWAP1 REVERT JUMPDEST PUSH0 DUP2 GT PUSH2 0x7BF JUMPI PUSH1 0x40 MLOAD PUSH32 0x8C379A000000000000000000000000000000000000000000000000000000000 DUP2 MSTORE PUSH1 0x4 ADD PUSH2 0x7B6 SWAP1 PUSH2 0x225E JUMP JUMPDEST PUSH1 0x40 MLOAD DUP1 SWAP2 SUB SWAP1 REVERT JUMPDEST PUSH0 PUSH20 0xFFFFFFFFFFFFFFFFFFFFFFFFFFFFFFFFFFFFFFFF AND DUP4 PUSH20 0xFFFFFFFFFFFFFFFFFFFFFFFFFFFFFFFFFFFFFFFF AND SUB PUSH2 0x82D JUMPI PUSH1 0x40 MLOAD PUSH32 0x8C379A000000000000000000000000000000000000000000000000000000000 DUP2 MSTORE PUSH1 0x4 ADD PUSH2 0x824 SWAP1 PUSH2 0x22C6 JUMP JUMPDEST PUSH1 0x40 MLOAD DUP1 SWAP2 SUB SWAP1 REVERT JUMPDEST PUSH0 DUP5 MLOAD GT PUSH2 0x870 JUMPI PUSH1 0x40 MLOAD PUSH32 0x8C379A000000000000000000000000000000000000000000000000000000000 DUP2 MSTORE PUSH1 0x4 ADD PUSH2 0x867 SWAP1 PUSH2 0x2354 JUMP JUMPDEST PUSH1 0x40 MLOAD DUP1 SWAP2 SUB SWAP1 REVERT JUMPDEST PUSH32 0x37E3403F90577C37D7124F91E9054E6918BE9F2EDBB8EC93108345299CAE6069 DUP5 PUSH0 DUP1 DUP6 DUP6 PUSH1 0x40 MLOAD PUSH2 0x8A7 SWAP6 SWAP5 SWAP4 SWAP3 SWAP2 SWAP1 PUSH2 0x23BC JUMP JUMPDEST PUSH1 0x40 MLOAD DUP1 SWAP2 SUB SWAP1 LOG1 PUSH1 0x40 MLOAD DUP1 PUSH1 0xE0 ADD PUSH1 0x40 MSTORE DUP1 DUP8 DUP2 MSTORE PUSH1 0x20 ADD DUP7 DUP2 MSTORE PUSH1 0x20 ADD DUP6 DUP2 MSTORE PUSH1 0x20 ADD DUP5 PUSH20 0xFFFFFFFFFFFFFFFFFFFFFFFFFFFFFFFFFFFFFFFF AND DUP2 MSTORE PUSH1 0x20 ADD DUP4 DUP2 MSTORE PUSH1 0x20 ADD DUP3 DUP2 MSTORE PUSH1 0x20 ADD PUSH1 0x1 ISZERO ISZERO DUP2 MSTORE POP PUSH1 0x2 DUP6 PUSH1 0x40 MLOAD PUSH2 0x90B SWAP2 SWAP1 PUSH2 0x1D9C JUMP JUMPDEST SWAP1 DUP2 MSTORE PUSH1 0x20 ADD PUSH1 0x40 MLOAD DUP1 SWAP2 SUB SWAP1 KECCAK256 PUSH0 DUP3 ADD MLOAD DUP2 PUSH0 ADD SSTORE PUSH1 0x20 DUP3 ADD MLOAD DUP2 PUSH1 0x1 ADD SSTORE PUSH1 0x40 DUP3 ADD MLOAD DUP2 PUSH1 0x2 ADD SWAP1 DUP2 PUSH2 0x940 SWAP2 SWAP1 PUSH2 0x25C4 JUMP JUMPDEST POP PUSH1 0x60 DUP3 ADD MLOAD DUP2 PUSH1 0x3 ADD PUSH0 PUSH2 0x100 EXP DUP2 SLOAD DUP2 PUSH20 0xFFFFFFFFFFFFFFFFFFFFFFFFFFFFFFFFFFFFFFFF MUL NOT AND SWAP1 DUP4 PUSH20 0xFFFFFFFFFFFFFFFFFFFFFFFFFFFFFFFFFFFFFFFF AND MUL OR SWAP1 SSTORE POP PUSH1 0x80 DUP3 ADD MLOAD DUP2 PUSH1 0x4 ADD SSTORE PUSH1 0xA0 DUP3 ADD MLOAD DUP2 PUSH1 0x5 ADD SSTORE PUSH1 0xC0 DUP3 ADD MLOAD DUP2 PUSH1 0x6 ADD PUSH0 PUSH2 0x100 EXP DUP2 SLOAD DUP2 PUSH1 0xFF MUL NOT AND SWAP1 DUP4 ISZERO ISZERO MUL OR SWAP1 SSTORE POP SWAP1 POP POP PUSH0 PUSH1 0x2 DUP6 PUSH1 0x40 MLOAD PUSH2 0x9CE SWAP2 SWAP1 PUSH2 0x1D9C JUMP JUMPDEST SWAP1 DUP2 MSTORE PUSH1 0x20 ADD PUSH1 0x40 MLOAD DUP1 SWAP2 SUB SWAP1 KECCAK256 PUSH1 0x40 MLOAD DUP1 PUSH1 0xE0 ADD PUSH1 0x40 MSTORE SWAP1 DUP2 PUSH0 DUP3 ADD SLOAD DUP2 MSTORE PUSH1 0x20 ADD PUSH1 0x1 DUP3 ADD SLOAD DUP2 MSTORE PUSH1 0x20 ADD PUSH1 0x2 DUP3 ADD DUP1 SLOAD PUSH2 0xA0A SWAP1 PUSH2 0x1E67 JUMP JUMPDEST DUP1 PUSH1 0x1F ADD PUSH1 0x20 DUP1 SWAP2 DIV MUL PUSH1 0x20 ADD PUSH1 0x40 MLOAD SWAP1 DUP2 ADD PUSH1 0x40 MSTORE DUP1 SWAP3 SWAP2 SWAP1 DUP2 DUP2 MSTORE PUSH1 0x20 ADD DUP3 DUP1 SLOAD PUSH2 0xA36 SWAP1 PUSH2 0x1E67 JUMP JUMPDEST DUP1 ISZERO PUSH2 0xA81 JUMPI DUP1 PUSH1 0x1F LT PUSH2 0xA58 JUMPI PUSH2 0x100 DUP1 DUP4 SLOAD DIV MUL DUP4 MSTORE SWAP2 PUSH1 0x20 ADD SWAP2 PUSH2 0xA81 JUMP JUMPDEST DUP3 ADD SWAP2 SWAP1 PUSH0 MSTORE PUSH1 0x20 PUSH0 KECCAK256 SWAP1 JUMPDEST DUP2 SLOAD DUP2 MSTORE SWAP1 PUSH1 0x1 ADD SWAP1 PUSH1 0x20 ADD DUP1 DUP4 GT PUSH2 0xA64 JUMPI DUP3 SWAP1 SUB PUSH1 0x1F AND DUP3 ADD SWAP2 JUMPDEST POP POP POP POP POP DUP2 MSTORE PUSH1 0x20 ADD PUSH1 0x3 DUP3 ADD PUSH0 SWAP1 SLOAD SWAP1 PUSH2 0x100 EXP SWAP1 DIV PUSH20 0xFFFFFFFFFFFFFFFFFFFFFFFFFFFFFFFFFFFFFFFF AND PUSH20 0xFFFFFFFFFFFFFFFFFFFFFFFFFFFFFFFFFFFFFFFF AND PUSH20 0xFFFFFFFFFFFFFFFFFFFFFFFFFFFFFFFFFFFFFFFF AND DUP2 MSTORE PUSH1 0x20 ADD PUSH1 0x4 DUP3 ADD SLOAD DUP2 MSTORE PUSH1 0x20 ADD PUSH1 0x5 DUP3 ADD SLOAD DUP2 MSTORE PUSH1 0x20 ADD PUSH1 0x6 DUP3 ADD PUSH0 SWAP1 SLOAD SWAP1 PUSH2 0x100 EXP SWAP1 DIV PUSH1 0xFF AND ISZERO ISZERO ISZERO ISZERO DUP2 MSTORE POP POP SWAP1 POP PUSH32 0x37E3403F90577C37D7124F91E9054E6918BE9F2EDBB8EC93108345299CAE6069 DUP6 PUSH1 0x1 DUP4 PUSH1 0xC0 ADD MLOAD DUP5 PUSH1 0x80 ADD MLOAD DUP6 PUSH1 0xA0 ADD MLOAD PUSH1 0x40 MLOAD PUSH2 0xB53 SWAP6 SWAP5 SWAP4 SWAP3 SWAP2 SWAP1 PUSH2 0x26DD JUMP JUMPDEST PUSH1 0x40 MLOAD DUP1 SWAP2 SUB SWAP1 LOG1 PUSH32 0x4C4D68F06F8FE65A81365EBAAA0C26D6E3EA13E596BBC240A84E411B2582C12 DUP6 DUP9 DUP9 DUP8 DUP8 DUP8 PUSH1 0x40 MLOAD PUSH2 0xB94 SWAP7 SWAP6 SWAP5 SWAP4 SWAP3 SWAP2 SWAP1 PUSH2 0x2748 JUMP JUMPDEST PUSH1 0x40 MLOAD DUP1 SWAP2 SUB SWAP1 LOG1 POP POP POP POP POP POP POP JUMP JUMPDEST PUSH0 PUSH1 0x2 DUP5 PUSH1 0x40 MLOAD PUSH2 0xBB6 SWAP2 SWAP1 PUSH2 0x1D9C JUMP JUMPDEST SWAP1 DUP2 MSTORE PUSH1 0x20 ADD PUSH1 0x40 MLOAD DUP1 SWAP2 SUB SWAP1 KECCAK256 SWAP1 POP PUSH32 0x8C456AEDF4877DC6046F0D3A800FA904853F4B7D92742FA60455F70D85B871E9 DUP5 DUP3 PUSH1 0x6 ADD PUSH0 SWAP1 SLOAD SWAP1 PUSH2 0x100 EXP SWAP1 DIV PUSH1 0xFF AND DUP6 CALLVALUE DUP7 PUSH1 0x40 MLOAD PUSH2 0xC0D SWAP6 SWAP5 SWAP4 SWAP3 SWAP2 SWAP1 PUSH2 0x284A JUMP JUMPDEST PUSH1 0x40 MLOAD DUP1 SWAP2 SUB SWAP1 LOG1 DUP1 PUSH1 0x6 ADD PUSH0 SWAP1 SLOAD SWAP1 PUSH2 0x100 EXP SWAP1 DIV PUSH1 0xFF AND PUSH2 0xC65 JUMPI PUSH1 0x40 MLOAD PUSH32 0x8C379A000000000000000000000000000000000000000000000000000000000 DUP2 MSTORE PUSH1 0x4 ADD PUSH2 0xC5C SWAP1 PUSH2 0x290D JUMP JUMPDEST PUSH1 0x40 MLOAD DUP1 SWAP2 SUB SWAP1 REVERT JUMPDEST PUSH0 PUSH1 0x40 MLOAD PUSH1 0x20 ADD PUSH2 0xC75 SWAP1 PUSH2 0x2975 JUMP JUMPDEST PUSH1 0x40 MLOAD PUSH1 0x20 DUP2 DUP4 SUB SUB DUP2 MSTORE SWAP1 PUSH1 0x40 MSTORE DUP1 MLOAD SWAP1 PUSH1 0x20 ADD KECCAK256 DUP5 PUSH1 0x40 MLOAD PUSH1 0x20 ADD PUSH2 0xC9C SWAP2 SWAP1 PUSH2 0x1D9C JUMP JUMPDEST PUSH1 0x40 MLOAD PUSH1 0x20 DUP2 DUP4 SUB SUB DUP2 MSTORE SWAP1 PUSH1 0x40 MSTORE DUP1 MLOAD SWAP1 PUSH1 0x20 ADD KECCAK256 SUB PUSH2 0xCC3 JUMPI DUP2 PUSH1 0x4 ADD SLOAD SWAP1 POP PUSH2 0xD1D JUMP JUMPDEST PUSH1 0x40 MLOAD PUSH1 0x20 ADD PUSH2 0xCD2 SWAP1 PUSH2 0x29D3 JUMP JUMPDEST PUSH1 0x40 MLOAD PUSH1 0x20 DUP2 DUP4 SUB SUB DUP2 MSTORE SWAP1 PUSH1 0x40 MSTORE DUP1 MLOAD SWAP1 PUSH1 0x20 ADD KECCAK256 DUP5 PUSH1 0x40 MLOAD PUSH1 0x20 ADD PUSH2 0xCF9 SWAP2 SWAP1 PUSH2 0x1D9C JUMP JUMPDEST PUSH1 0x40 MLOAD PUSH1 0x20 DUP2 DUP4 SUB SUB DUP2 MSTORE SWAP1 PUSH1 0x40 MSTORE DUP1 MLOAD SWAP1 PUSH1 0x20 ADD KECCAK256 SUB PUSH2 0xD1C JUMPI DUP2 PUSH1 0x5 ADD SLOAD SWAP1 POP JUMPDEST JUMPDEST DUP1 CALLVALUE GT ISZERO PUSH2 0xD60 JUMPI PUSH1 0x40 MLOAD PUSH32 0x8C379A000000000000000000000000000000000000000000000000000000000 DUP2 MSTORE PUSH1 0x4 ADD PUSH2 0xD57 SWAP1 PUSH2 0x2A31 JUMP JUMPDEST PUSH1 0x40 MLOAD DUP1 SWAP2 SUB SWAP1 REVERT JUMPDEST PUSH0 PUSH3 0x159398 SWAP1 POP PUSH0 PUSH1 0x3 PUSH8 0xFFFFFFFFFFFFFFFF DUP2 GT ISZERO PUSH2 0xD83 JUMPI PUSH2 0xD82 PUSH2 0x1807 JUMP JUMPDEST JUMPDEST PUSH1 0x40 MLOAD SWAP1 DUP1 DUP3 MSTORE DUP1 PUSH1 0x20 MUL PUSH1 0x20 ADD DUP3 ADD PUSH1 0x40 MSTORE DUP1 ISZERO PUSH2 0xDB6 JUMPI DUP2 PUSH1 0x20 ADD JUMPDEST PUSH1 0x60 DUP2 MSTORE PUSH1 0x20 ADD SWAP1 PUSH1 0x1 SWAP1 SUB SWAP1 DUP2 PUSH2 0xDA1 JUMPI SWAP1 POP JUMPDEST POP SWAP1 POP PUSH2 0xDF8 DUP8 PUSH1 0x40 MLOAD DUP1 PUSH1 0x40 ADD PUSH1 0x40 MSTORE DUP1 PUSH1 0x1 DUP2 MSTORE PUSH1 0x20 ADD PUSH32 0x2E00000000000000000000000000000000000000000000000000000000000000 DUP2 MSTORE POP PUSH2 0x142F JUMP JUMPDEST SWAP1 POP PUSH1 0x3 DUP2 MLOAD EQ PUSH2 0xE3E JUMPI PUSH1 0x40 MLOAD PUSH32 0x8C379A000000000000000000000000000000000000000000000000000000000 DUP2 MSTORE PUSH1 0x4 ADD PUSH2 0xE35 SWAP1 PUSH2 0x2A99 JUMP JUMPDEST PUSH1 0x40 MLOAD DUP1 SWAP2 SUB SWAP1 REVERT JUMPDEST PUSH0 PUSH2 0xE62 DUP3 PUSH0 DUP2 MLOAD DUP2 LT PUSH2 0xE55 JUMPI PUSH2 0xE54 PUSH2 0x2AB7 JUMP JUMPDEST JUMPDEST PUSH1 0x20 MUL PUSH1 0x20 ADD ADD MLOAD PUSH2 0x1657 JUMP JUMPDEST SWAP1 POP PUSH0 PUSH2 0xE89 DUP4 PUSH1 0x1 DUP2 MLOAD DUP2 LT PUSH2 0xE7C JUMPI PUSH2 0xE7B PUSH2 0x2AB7 JUMP JUMPDEST JUMPDEST PUSH1 0x20 MUL PUSH1 0x20 ADD ADD MLOAD PUSH2 0x1657 JUMP JUMPDEST SWAP1 POP PUSH0 PUSH2 0xEB0 DUP5 PUSH1 0x2 DUP2 MLOAD DUP2 LT PUSH2 0xEA3 JUMPI PUSH2 0xEA2 PUSH2 0x2AB7 JUMP JUMPDEST JUMPDEST PUSH1 0x20 MUL PUSH1 0x20 ADD ADD MLOAD PUSH2 0x1657 JUMP JUMPDEST SWAP1 POP PUSH0 DUP2 PUSH1 0x20 DUP5 SWAP1 SHL PUSH1 0x28 DUP7 SWAP1 SHL OR OR SWAP1 POP PUSH32 0xB8E396C6401E0A3D854974DD1E2BE030BD1A4E36B51764B996765A9289E16723 CALLVALUE PUSH3 0x159398 DUP4 DUP13 PUSH1 0x40 MLOAD PUSH2 0xEFA SWAP5 SWAP4 SWAP3 SWAP2 SWAP1 PUSH2 0x2B2E JUMP JUMPDEST PUSH1 0x40 MLOAD DUP1 SWAP2 SUB SWAP1 LOG1 PUSH0 PUSH1 0x40 MLOAD DUP1 PUSH1 0xA0 ADD PUSH1 0x40 MSTORE DUP1 DUP12 DUP2 MSTORE PUSH1 0x20 ADD DUP4 PUSH20 0xFFFFFFFFFFFFFFFFFFFFFFFFFFFFFFFFFFFFFFFF AND DUP2 MSTORE PUSH1 0x20 ADD PUSH1 0x3C TIMESTAMP PUSH2 0xF3D SWAP2 SWAP1 PUSH2 0x2BB8 JUMP JUMPDEST DUP2 MSTORE PUSH1 0x20 ADD CALLVALUE DUP2 MSTORE PUSH1 0x20 ADD PUSH0 DUP2 MSTORE POP SWAP1 POP PUSH0 PUSH1 0x2 PUSH8 0xFFFFFFFFFFFFFFFF DUP2 GT ISZERO PUSH2 0xF6A JUMPI PUSH2 0xF69 PUSH2 0x1807 JUMP JUMPDEST JUMPDEST PUSH1 0x40 MLOAD SWAP1 DUP1 DUP3 MSTORE DUP1 PUSH1 0x20 MUL PUSH1 0x20 ADD DUP3 ADD PUSH1 0x40 MSTORE DUP1 ISZERO PUSH2 0xF9D JUMPI DUP2 PUSH1 0x20 ADD JUMPDEST PUSH1 0x60 DUP2 MSTORE PUSH1 0x20 ADD SWAP1 PUSH1 0x1 SWAP1 SUB SWAP1 DUP2 PUSH2 0xF88 JUMPI SWAP1 POP JUMPDEST POP SWAP1 POP PUSH4 0xC04B8D59 PUSH1 0xE0 SHL DUP3 PUSH1 0x40 MLOAD PUSH1 0x24 ADD PUSH2 0xFB9 SWAP2 SWAP1 PUSH2 0x2CC4 JUMP JUMPDEST PUSH1 0x40 MLOAD PUSH1 0x20 DUP2 DUP4 SUB SUB DUP2 MSTORE SWAP1 PUSH1 0x40 MSTORE SWAP1 PUSH28 0xFFFFFFFFFFFFFFFFFFFFFFFFFFFFFFFFFFFFFFFFFFFFFFFFFFFFFFFF NOT AND PUSH1 0x20 DUP3 ADD DUP1 MLOAD PUSH28 0xFFFFFFFFFFFFFFFFFFFFFFFFFFFFFFFFFFFFFFFFFFFFFFFFFFFFFFFF DUP4 DUP2 DUP4 AND OR DUP4 MSTORE POP POP POP POP DUP2 PUSH0 DUP2 MLOAD DUP2 LT PUSH2 0x1029 JUMPI PUSH2 0x1028 PUSH2 0x2AB7 JUMP JUMPDEST JUMPDEST PUSH1 0x20 MUL PUSH1 0x20 ADD ADD DUP2 SWAP1 MSTORE POP PUSH4 0x12210E8A PUSH1 0xE0 SHL PUSH1 0x40 MLOAD PUSH1 0x24 ADD PUSH1 0x40 MLOAD PUSH1 0x20 DUP2 DUP4 SUB SUB DUP2 MSTORE SWAP1 PUSH1 0x40 MSTORE SWAP1 PUSH28 0xFFFFFFFFFFFFFFFFFFFFFFFFFFFFFFFFFFFFFFFFFFFFFFFFFFFFFFFF NOT AND PUSH1 0x20 DUP3 ADD DUP1 MLOAD PUSH28 0xFFFFFFFFFFFFFFFFFFFFFFFFFFFFFFFFFFFFFFFFFFFFFFFFFFFFFFFF DUP4 DUP2 DUP4 AND OR DUP4 MSTORE POP POP POP POP DUP2 PUSH1 0x1 DUP2 MLOAD DUP2 LT PUSH2 0x10B3 JUMPI PUSH2 0x10B2 PUSH2 0x2AB7 JUMP JUMPDEST JUMPDEST PUSH1 0x20 MUL PUSH1 0x20 ADD ADD DUP2 SWAP1 MSTORE POP PUSH32 0x97518E16ECBCAFCF3886A786D06019730B4D0CDAB67C6C9ED714046D7CB497B5 DUP2 MLOAD DUP3 PUSH0 DUP2 MLOAD DUP2 LT PUSH2 0x10F4 JUMPI PUSH2 0x10F3 PUSH2 0x2AB7 JUMP JUMPDEST JUMPDEST PUSH1 0x20 MUL PUSH1 0x20 ADD ADD MLOAD DUP4 PUSH1 0x1 DUP2 MLOAD DUP2 LT PUSH2 0x1110 JUMPI PUSH2 0x110F PUSH2 0x2AB7 JUMP JUMPDEST JUMPDEST PUSH1 0x20 MUL PUSH1 0x20 ADD ADD MLOAD PUSH1 0x40 MLOAD PUSH2 0x1127 SWAP4 SWAP3 SWAP2 SWAP1 PUSH2 0x2D2E JUMP JUMPDEST PUSH1 0x40 MLOAD DUP1 SWAP2 SUB SWAP1 LOG1 PUSH32 0x7F9AA0C09E8DAFED36D3CBD4240CA32CA3C86FA5DFC5A328F6D940952695B196 DUP3 PUSH0 ADD MLOAD DUP4 PUSH1 0x20 ADD MLOAD DUP5 PUSH1 0x60 ADD MLOAD DUP6 PUSH1 0x80 ADD MLOAD PUSH3 0x159398 DUP8 PUSH1 0x40 ADD MLOAD PUSH1 0x40 MLOAD PUSH2 0x117E SWAP7 SWAP6 SWAP5 SWAP4 SWAP3 SWAP2 SWAP1 PUSH2 0x2DCE JUMP JUMPDEST PUSH1 0x40 MLOAD DUP1 SWAP2 SUB SWAP1 LOG1 PUSH0 DUP9 PUSH20 0xFFFFFFFFFFFFFFFFFFFFFFFFFFFFFFFFFFFFFFFF AND PUSH4 0xAC9650D8 CALLVALUE DUP5 PUSH1 0x40 MLOAD DUP4 PUSH4 0xFFFFFFFF AND PUSH1 0xE0 SHL DUP2 MSTORE PUSH1 0x4 ADD PUSH2 0x11C1 SWAP2 SWAP1 PUSH2 0x2F02 JUMP JUMPDEST PUSH0 PUSH1 0x40 MLOAD DUP1 DUP4 SUB DUP2 DUP6 DUP9 GAS CALL SWAP4 POP POP POP POP DUP1 ISZERO PUSH2 0x1200 JUMPI POP PUSH1 0x40 MLOAD RETURNDATASIZE PUSH0 DUP3 RETURNDATACOPY RETURNDATASIZE PUSH1 0x1F NOT PUSH1 0x1F DUP3 ADD AND DUP3 ADD DUP1 PUSH1 0x40 MSTORE POP DUP2 ADD SWAP1 PUSH2 0x11FD SWAP2 SWAP1 PUSH2 0x3072 JUMP JUMPDEST PUSH1 0x1 JUMPDEST PUSH2 0x1336 JUMPI PUSH2 0x120C PUSH2 0x30C5 JUMP JUMPDEST DUP1 PUSH4 0x8C379A0 SUB PUSH2 0x12C0 JUMPI POP PUSH2 0x1220 PUSH2 0x30E4 JUMP JUMPDEST DUP1 PUSH2 0x122B JUMPI POP PUSH2 0x12C2 JUMP JUMPDEST PUSH32 0x75775A37AD7D891F9F48727E889A78A65B96F98BD6265526F3928A303B7AFB0B PUSH0 DUP7 PUSH1 0x40 MLOAD PUSH2 0x125C SWAP3 SWAP2 SWAP1 PUSH2 0x31F6 JUMP JUMPDEST PUSH1 0x40 MLOAD DUP1 SWAP2 SUB SWAP1 LOG1 DUP1 PUSH1 0x40 MLOAD PUSH1 0x20 ADD PUSH2 0x1275 SWAP2 SWAP1 PUSH2 0x327A JUMP JUMPDEST PUSH1 0x40 MLOAD PUSH1 0x20 DUP2 DUP4 SUB SUB DUP2 MSTORE SWAP1 PUSH1 0x40 MSTORE PUSH1 0x40 MLOAD PUSH32 0x8C379A000000000000000000000000000000000000000000000000000000000 DUP2 MSTORE PUSH1 0x4 ADD PUSH2 0x12B7 SWAP2 SWAP1 PUSH2 0x1E1A JUMP JUMPDEST PUSH1 0x40 MLOAD DUP1 SWAP2 SUB SWAP1 REVERT JUMPDEST POP JUMPDEST PUSH32 0x75775A37AD7D891F9F48727E889A78A65B96F98BD6265526F3928A303B7AFB0B PUSH0 DUP6 PUSH1 0x40 MLOAD PUSH2 0x12F3 SWAP3 SWAP2 SWAP1 PUSH2 0x32E5 JUMP JUMPDEST PUSH1 0x40 MLOAD DUP1 SWAP2 SUB SWAP1 LOG1 PUSH1 0x40 MLOAD PUSH32 0x8C379A000000000000000000000000000000000000000000000000000000000 DUP2 MSTORE PUSH1 0x4 ADD PUSH2 0x132D SWAP1 PUSH2 0x338F JUMP JUMPDEST PUSH1 0x40 MLOAD DUP1 SWAP2 SUB SWAP1 REVERT JUMPDEST DUP1 PUSH0 DUP2 MLOAD DUP2 LT PUSH2 0x1349 JUMPI PUSH2 0x1348 PUSH2 0x2AB7 JUMP JUMPDEST JUMPDEST PUSH1 0x20 MUL PUSH1 0x20 ADD ADD MLOAD DUP1 PUSH1 0x20 ADD SWAP1 MLOAD DUP2 ADD SWAP1 PUSH2 0x1364 SWAP2 SWAP1 PUSH2 0x33C1 JUMP JUMPDEST SWAP2 POP PUSH32 0x75775A37AD7D891F9F48727E889A78A65B96F98BD6265526F3928A303B7AFB0B DUP3 DUP7 PUSH1 0x40 MLOAD PUSH2 0x1397 SWAP3 SWAP2 SWAP1 PUSH2 0x3436 JUMP JUMPDEST PUSH1 0x40 MLOAD DUP1 SWAP2 SUB SWAP1 LOG1 POP PUSH0 DUP12 PUSH1 0x6 ADD PUSH0 PUSH2 0x100 EXP DUP2 SLOAD DUP2 PUSH1 0xFF MUL NOT AND SWAP1 DUP4 ISZERO ISZERO MUL OR SWAP1 SSTORE POP PUSH32 0xC4F057E87B29411545A6F83503E316FDA0DC00C7CD6BCCEFEDB5E808CB0473A2 DUP15 DUP15 PUSH1 0x1 SLOAD DUP15 PUSH1 0x3 ADD PUSH0 SWAP1 SLOAD SWAP1 PUSH2 0x100 EXP SWAP1 DIV PUSH20 0xFFFFFFFFFFFFFFFFFFFFFFFFFFFFFFFFFFFFFFFF AND DUP6 PUSH1 0x40 MLOAD PUSH2 0x1417 SWAP6 SWAP5 SWAP4 SWAP3 SWAP2 SWAP1 PUSH2 0x3470 JUMP JUMPDEST PUSH1 0x40 MLOAD DUP1 SWAP2 SUB SWAP1 LOG1 POP POP POP POP POP POP POP POP POP POP POP POP POP POP JUMP JUMPDEST PUSH1 0x60 PUSH0 DUP4 SWAP1 POP PUSH0 PUSH1 0x1 SWAP1 POP PUSH0 JUMPDEST DUP3 MLOAD DUP2 LT ISZERO PUSH2 0x14E6 JUMPI DUP5 PUSH0 DUP2 MLOAD DUP2 LT PUSH2 0x1458 JUMPI PUSH2 0x1457 PUSH2 0x2AB7 JUMP JUMPDEST JUMPDEST PUSH1 0x20 ADD ADD MLOAD PUSH1 0xF8 SHR PUSH1 0xF8 SHL PUSH31 0xFFFFFFFFFFFFFFFFFFFFFFFFFFFFFFFFFFFFFFFFFFFFFFFFFFFFFFFFFFFFFF NOT AND DUP4 DUP3 DUP2 MLOAD DUP2 LT PUSH2 0x1498 JUMPI PUSH2 0x1497 PUSH2 0x2AB7 JUMP JUMPDEST JUMPDEST PUSH1 0x20 ADD ADD MLOAD PUSH1 0xF8 SHR PUSH1 0xF8 SHL PUSH31 0xFFFFFFFFFFFFFFFFFFFFFFFFFFFFFFFFFFFFFFFFFFFFFFFFFFFFFFFFFFFFFF NOT AND SUB PUSH2 0x14D9 JUMPI DUP2 DUP1 PUSH2 0x14D5 SWAP1 PUSH2 0x34CF JUMP JUMPDEST SWAP3 POP POP JUMPDEST DUP1 DUP1 PUSH1 0x1 ADD SWAP2 POP POP PUSH2 0x143C JUMP JUMPDEST POP PUSH0 DUP2 PUSH8 0xFFFFFFFFFFFFFFFF DUP2 GT ISZERO PUSH2 0x1502 JUMPI PUSH2 0x1501 PUSH2 0x1807 JUMP JUMPDEST JUMPDEST PUSH1 0x40 MLOAD SWAP1 DUP1 DUP3 MSTORE DUP1 PUSH1 0x20 MUL PUSH1 0x20 ADD DUP3 ADD PUSH1 0x40 MSTORE DUP1 ISZERO PUSH2 0x1535 JUMPI DUP2 PUSH1 0x20 ADD JUMPDEST PUSH1 0x60 DUP2 MSTORE PUSH1 0x20 ADD SWAP1 PUSH1 0x1 SWAP1 SUB SWAP1 DUP2 PUSH2 0x1520 JUMPI SWAP1 POP JUMPDEST POP SWAP1 POP PUSH0 DUP1 PUSH0 JUMPDEST DUP6 MLOAD DUP2 LT ISZERO PUSH2 0x161E JUMPI DUP8 PUSH0 DUP2 MLOAD DUP2 LT PUSH2 0x1558 JUMPI PUSH2 0x1557 PUSH2 0x2AB7 JUMP JUMPDEST JUMPDEST PUSH1 0x20 ADD ADD MLOAD PUSH1 0xF8 SHR PUSH1 0xF8 SHL PUSH31 0xFFFFFFFFFFFFFFFFFFFFFFFFFFFFFFFFFFFFFFFFFFFFFFFFFFFFFFFFFFFFFF NOT AND DUP7 DUP3 DUP2 MLOAD DUP2 LT PUSH2 0x1598 JUMPI PUSH2 0x1597 PUSH2 0x2AB7 JUMP JUMPDEST JUMPDEST PUSH1 0x20 ADD ADD MLOAD PUSH1 0xF8 SHR PUSH1 0xF8 SHL PUSH31 0xFFFFFFFFFFFFFFFFFFFFFFFFFFFFFFFFFFFFFFFFFFFFFFFFFFFFFFFFFFFFFF NOT AND SUB PUSH2 0x1611 JUMPI PUSH2 0x15D5 DUP10 DUP5 DUP4 PUSH2 0x16EC JUMP JUMPDEST DUP5 DUP4 DUP2 MLOAD DUP2 LT PUSH2 0x15E8 JUMPI PUSH2 0x15E7 PUSH2 0x2AB7 JUMP JUMPDEST JUMPDEST PUSH1 0x20 MUL PUSH1 0x20 ADD ADD DUP2 SWAP1 MSTORE POP PUSH1 0x1 DUP2 PUSH2 0x1600 SWAP2 SWAP1 PUSH2 0x2BB8 JUMP JUMPDEST SWAP3 POP DUP2 DUP1 PUSH2 0x160D SWAP1 PUSH2 0x34CF JUMP JUMPDEST SWAP3 POP POP JUMPDEST DUP1 DUP1 PUSH1 0x1 ADD SWAP2 POP POP PUSH2 0x153C JUMP JUMPDEST POP PUSH2 0x162B DUP9 DUP4 DUP8 MLOAD PUSH2 0x16EC JUMP JUMPDEST DUP4 DUP3 DUP2 MLOAD DUP2 LT PUSH2 0x163E JUMPI PUSH2 0x163D PUSH2 0x2AB7 JUMP JUMPDEST JUMPDEST PUSH1 0x20 MUL PUSH1 0x20 ADD ADD DUP2 SWAP1 MSTORE POP DUP3 SWAP6 POP POP POP POP POP POP SWAP3 SWAP2 POP POP JUMP JUMPDEST PUSH0 DUP1 DUP3 SWAP1 POP PUSH0 DUP1 JUMPDEST DUP3 MLOAD DUP2 LT ISZERO PUSH2 0x16E1 JUMPI PUSH0 DUP4 DUP3 DUP2 MLOAD DUP2 LT PUSH2 0x167C JUMPI PUSH2 0x167B PUSH2 0x2AB7 JUMP JUMPDEST JUMPDEST PUSH1 0x20 ADD ADD MLOAD PUSH1 0xF8 SHR PUSH1 0xF8 SHL PUSH1 0xF8 SHR SWAP1 POP PUSH1 0x30 DUP2 PUSH1 0xFF AND LT ISZERO DUP1 ISZERO PUSH2 0x16A4 JUMPI POP PUSH1 0x39 DUP2 PUSH1 0xFF AND GT ISZERO JUMPDEST ISZERO PUSH2 0x16D3 JUMPI PUSH1 0x30 DUP2 PUSH2 0x16B6 SWAP2 SWAP1 PUSH2 0x3522 JUMP JUMPDEST PUSH1 0xFF AND PUSH1 0xA DUP5 PUSH2 0x16C6 SWAP2 SWAP1 PUSH2 0x3556 JUMP JUMPDEST PUSH2 0x16D0 SWAP2 SWAP1 PUSH2 0x2BB8 JUMP JUMPDEST SWAP3 POP JUMPDEST POP DUP1 DUP1 PUSH1 0x1 ADD SWAP2 POP POP PUSH2 0x165F JUMP JUMPDEST POP DUP1 SWAP3 POP POP POP SWAP2 SWAP1 POP JUMP JUMPDEST PUSH1 0x60 PUSH0 DUP5 SWAP1 POP PUSH0 DUP5 DUP5 PUSH2 0x16FF SWAP2 SWAP1 PUSH2 0x3597 JUMP JUMPDEST PUSH8 0xFFFFFFFFFFFFFFFF DUP2 GT ISZERO PUSH2 0x1718 JUMPI PUSH2 0x1717 PUSH2 0x1807 JUMP JUMPDEST JUMPDEST PUSH1 0x40 MLOAD SWAP1 DUP1 DUP3 MSTORE DUP1 PUSH1 0x1F ADD PUSH1 0x1F NOT AND PUSH1 0x20 ADD DUP3 ADD PUSH1 0x40 MSTORE DUP1 ISZERO PUSH2 0x174A JUMPI DUP2 PUSH1 0x20 ADD PUSH1 0x1 DUP3 MUL DUP1 CALLDATASIZE DUP4 CALLDATACOPY DUP1 DUP3 ADD SWAP2 POP POP SWAP1 POP JUMPDEST POP SWAP1 POP PUSH0 DUP6 SWAP1 POP JUMPDEST DUP5 DUP2 LT ISZERO PUSH2 0x17D1 JUMPI DUP3 DUP2 DUP2 MLOAD DUP2 LT PUSH2 0x176D JUMPI PUSH2 0x176C PUSH2 0x2AB7 JUMP JUMPDEST JUMPDEST PUSH1 0x20 ADD ADD MLOAD PUSH1 0xF8 SHR PUSH1 0xF8 SHL DUP3 DUP8 DUP4 PUSH2 0x1785 SWAP2 SWAP1 PUSH2 0x3597 JUMP JUMPDEST DUP2 MLOAD DUP2 LT PUSH2 0x1796 JUMPI PUSH2 0x1795 PUSH2 0x2AB7 JUMP JUMPDEST JUMPDEST PUSH1 0x20 ADD ADD SWAP1 PUSH31 0xFFFFFFFFFFFFFFFFFFFFFFFFFFFFFFFFFFFFFFFFFFFFFFFFFFFFFFFFFFFFFF NOT AND SWAP1 DUP2 PUSH0 BYTE SWAP1 MSTORE8 POP DUP1 DUP1 PUSH1 0x1 ADD SWAP2 POP POP PUSH2 0x1752 JUMP JUMPDEST POP DUP1 SWAP3 POP POP POP SWAP4 SWAP3 POP POP POP JUMP JUMPDEST PUSH0 PUSH1 0x40 MLOAD SWAP1 POP SWAP1 JUMP JUMPDEST PUSH0 DUP1 REVERT JUMPDEST PUSH0 DUP1 REVERT JUMPDEST PUSH0 DUP1 REVERT JUMPDEST PUSH0 DUP1 REVERT JUMPDEST PUSH0 PUSH1 0x1F NOT PUSH1 0x1F DUP4 ADD AND SWAP1 POP SWAP2 SWAP1 POP JUMP JUMPDEST PUSH32 0x4E487B7100000000000000000000000000000000000000000000000000000000 PUSH0 MSTORE PUSH1 0x41 PUSH1 0x4 MSTORE PUSH1 0x24 PUSH0 REVERT JUMPDEST PUSH2 0x183D DUP3 PUSH2 0x17F7 JUMP JUMPDEST DUP2 ADD DUP2 DUP2 LT PUSH8 0xFFFFFFFFFFFFFFFF DUP3 GT OR ISZERO PUSH2 0x185C JUMPI PUSH2 0x185B PUSH2 0x1807 JUMP JUMPDEST JUMPDEST DUP1 PUSH1 0x40 MSTORE POP POP POP JUMP JUMPDEST PUSH0 PUSH2 0x186E PUSH2 0x17DE JUMP JUMPDEST SWAP1 POP PUSH2 0x187A DUP3 DUP3 PUSH2 0x1834 JUMP JUMPDEST SWAP2 SWAP1 POP JUMP JUMPDEST PUSH0 PUSH8 0xFFFFFFFFFFFFFFFF DUP3 GT ISZERO PUSH2 0x1899 JUMPI PUSH2 0x1898 PUSH2 0x1807 JUMP JUMPDEST JUMPDEST PUSH2 0x18A2 DUP3 PUSH2 0x17F7 JUMP JUMPDEST SWAP1 POP PUSH1 0x20 DUP2 ADD SWAP1 POP SWAP2 SWAP1 POP JUMP JUMPDEST DUP3 DUP2 DUP4 CALLDATACOPY PUSH0 DUP4 DUP4 ADD MSTORE POP POP POP JUMP JUMPDEST PUSH0 PUSH2 0x18CF PUSH2 0x18CA DUP5 PUSH2 0x187F JUMP JUMPDEST PUSH2 0x1865 JUMP JUMPDEST SWAP1 POP DUP3 DUP2 MSTORE PUSH1 0x20 DUP2 ADD DUP5 DUP5 DUP5 ADD GT ISZERO PUSH2 0x18EB JUMPI PUSH2 0x18EA PUSH2 0x17F3 JUMP JUMPDEST JUMPDEST PUSH2 0x18F6 DUP5 DUP3 DUP6 PUSH2 0x18AF JUMP JUMPDEST POP SWAP4 SWAP3 POP POP POP JUMP JUMPDEST PUSH0 DUP3 PUSH1 0x1F DUP4 ADD SLT PUSH2 0x1912 JUMPI PUSH2 0x1911 PUSH2 0x17EF JUMP JUMPDEST JUMPDEST DUP2 CALLDATALOAD PUSH2 0x1922 DUP5 DUP3 PUSH1 0x20 DUP7 ADD PUSH2 0x18BD JUMP JUMPDEST SWAP2 POP POP SWAP3 SWAP2 POP POP JUMP JUMPDEST PUSH0 PUSH1 0x20 DUP3 DUP5 SUB SLT ISZERO PUSH2 0x1940 JUMPI PUSH2 0x193F PUSH2 0x17E7 JUMP JUMPDEST JUMPDEST PUSH0 DUP3 ADD CALLDATALOAD PUSH8 0xFFFFFFFFFFFFFFFF DUP2 GT ISZERO PUSH2 0x195D JUMPI PUSH2 0x195C PUSH2 0x17EB JUMP JUMPDEST JUMPDEST PUSH2 0x1969 DUP5 DUP3 DUP6 ADD PUSH2 0x18FE JUMP JUMPDEST SWAP2 POP POP SWAP3 SWAP2 POP POP JUMP JUMPDEST PUSH0 DUP2 SWAP1 POP SWAP2 SWAP1 POP JUMP JUMPDEST PUSH2 0x1984 DUP2 PUSH2 0x1972 JUMP JUMPDEST DUP3 MSTORE POP POP JUMP JUMPDEST PUSH0 DUP2 MLOAD SWAP1 POP SWAP2 SWAP1 POP JUMP JUMPDEST PUSH0 DUP3 DUP3 MSTORE PUSH1 0x20 DUP3 ADD SWAP1 POP SWAP3 SWAP2 POP POP JUMP JUMPDEST DUP3 DUP2 DUP4 MCOPY PUSH0 DUP4 DUP4 ADD MSTORE POP POP POP JUMP JUMPDEST PUSH0 PUSH2 0x19BC DUP3 PUSH2 0x198A JUMP JUMPDEST PUSH2 0x19C6 DUP2 DUP6 PUSH2 0x1994 JUMP JUMPDEST SWAP4 POP PUSH2 0x19D6 DUP2 DUP6 PUSH1 0x20 DUP7 ADD PUSH2 0x19A4 JUMP JUMPDEST PUSH2 0x19DF DUP2 PUSH2 0x17F7 JUMP JUMPDEST DUP5 ADD SWAP2 POP POP SWAP3 SWAP2 POP POP JUMP JUMPDEST PUSH0 PUSH20 0xFFFFFFFFFFFFFFFFFFFFFFFFFFFFFFFFFFFFFFFF DUP3 AND SWAP1 POP SWAP2 SWAP1 POP JUMP JUMPDEST PUSH0 PUSH2 0x1A13 DUP3 PUSH2 0x19EA JUMP JUMPDEST SWAP1 POP SWAP2 SWAP1 POP JUMP JUMPDEST PUSH2 0x1A23 DUP2 PUSH2 0x1A09 JUMP JUMPDEST DUP3 MSTORE POP POP JUMP JUMPDEST PUSH0 DUP2 ISZERO ISZERO SWAP1 POP SWAP2 SWAP1 POP JUMP JUMPDEST PUSH2 0x1A3D DUP2 PUSH2 0x1A29 JUMP JUMPDEST DUP3 MSTORE POP POP JUMP JUMPDEST PUSH0 PUSH1 0xE0 DUP3 ADD SWAP1 POP PUSH2 0x1A56 PUSH0 DUP4 ADD DUP11 PUSH2 0x197B JUMP JUMPDEST PUSH2 0x1A63 PUSH1 0x20 DUP4 ADD DUP10 PUSH2 0x197B JUMP JUMPDEST DUP2 DUP2 SUB PUSH1 0x40 DUP4 ADD MSTORE PUSH2 0x1A75 DUP2 DUP9 PUSH2 0x19B2 JUMP JUMPDEST SWAP1 POP PUSH2 0x1A84 PUSH1 0x60 DUP4 ADD DUP8 PUSH2 0x1A1A JUMP JUMPDEST PUSH2 0x1A91 PUSH1 0x80 DUP4 ADD DUP7 PUSH2 0x197B JUMP JUMPDEST PUSH2 0x1A9E PUSH1 0xA0 DUP4 ADD DUP6 PUSH2 0x197B JUMP JUMPDEST PUSH2 0x1AAB PUSH1 0xC0 DUP4 ADD DUP5 PUSH2 0x1A34 JUMP JUMPDEST SWAP9 SWAP8 POP POP POP POP POP POP POP POP JUMP JUMPDEST PUSH2 0x1AC0 DUP2 PUSH2 0x1A09 JUMP JUMPDEST DUP2 EQ PUSH2 0x1ACA JUMPI PUSH0 DUP1 REVERT JUMPDEST POP JUMP JUMPDEST PUSH0 DUP2 CALLDATALOAD SWAP1 POP PUSH2 0x1ADB DUP2 PUSH2 0x1AB7 JUMP JUMPDEST SWAP3 SWAP2 POP POP JUMP JUMPDEST PUSH2 0x1AEA DUP2 PUSH2 0x1972 JUMP JUMPDEST DUP2 EQ PUSH2 0x1AF4 JUMPI PUSH0 DUP1 REVERT JUMPDEST POP JUMP JUMPDEST PUSH0 DUP2 CALLDATALOAD SWAP1 POP PUSH2 0x1B05 DUP2 PUSH2 0x1AE1 JUMP JUMPDEST SWAP3 SWAP2 POP POP JUMP JUMPDEST PUSH0 DUP1 PUSH1 0x40 DUP4 DUP6 SUB SLT ISZERO PUSH2 0x1B21 JUMPI PUSH2 0x1B20 PUSH2 0x17E7 JUMP JUMPDEST JUMPDEST PUSH0 PUSH2 0x1B2E DUP6 DUP3 DUP7 ADD PUSH2 0x1ACD JUMP JUMPDEST SWAP3 POP POP PUSH1 0x20 PUSH2 0x1B3F DUP6 DUP3 DUP7 ADD PUSH2 0x1AF7 JUMP JUMPDEST SWAP2 POP POP SWAP3 POP SWAP3 SWAP1 POP JUMP JUMPDEST PUSH0 PUSH1 0x20 DUP3 ADD SWAP1 POP PUSH2 0x1B5C PUSH0 DUP4 ADD DUP5 PUSH2 0x1A1A JUMP JUMPDEST SWAP3 SWAP2 POP POP JUMP JUMPDEST PUSH0 PUSH1 0x20 DUP3 ADD SWAP1 POP PUSH2 0x1B75 PUSH0 DUP4 ADD DUP5 PUSH2 0x197B JUMP JUMPDEST SWAP3 SWAP2 POP POP JUMP JUMPDEST PUSH0 DUP1 PUSH0 DUP1 PUSH0 DUP1 PUSH1 0xC0 DUP8 DUP10 SUB SLT ISZERO PUSH2 0x1B95 JUMPI PUSH2 0x1B94 PUSH2 0x17E7 JUMP JUMPDEST JUMPDEST PUSH0 PUSH2 0x1BA2 DUP10 DUP3 DUP11 ADD PUSH2 0x1AF7 JUMP JUMPDEST SWAP7 POP POP PUSH1 0x20 PUSH2 0x1BB3 DUP10 DUP3 DUP11 ADD PUSH2 0x1AF7 JUMP JUMPDEST SWAP6 POP POP PUSH1 0x40 DUP8 ADD CALLDATALOAD PUSH8 0xFFFFFFFFFFFFFFFF DUP2 GT ISZERO PUSH2 0x1BD4 JUMPI PUSH2 0x1BD3 PUSH2 0x17EB JUMP JUMPDEST JUMPDEST PUSH2 0x1BE0 DUP10 DUP3 DUP11 ADD PUSH2 0x18FE JUMP JUMPDEST SWAP5 POP POP PUSH1 0x60 PUSH2 0x1BF1 DUP10 DUP3 DUP11 ADD PUSH2 0x1ACD JUMP JUMPDEST SWAP4 POP POP PUSH1 0x80 PUSH2 0x1C02 DUP10 DUP3 DUP11 ADD PUSH2 0x1AF7 JUMP JUMPDEST SWAP3 POP POP PUSH1 0xA0 PUSH2 0x1C13 DUP10 DUP3 DUP11 ADD PUSH2 0x1AF7 JUMP JUMPDEST SWAP2 POP POP SWAP3 SWAP6 POP SWAP3 SWAP6 POP SWAP3 SWAP6 JUMP JUMPDEST PUSH0 PUSH8 0xFFFFFFFFFFFFFFFF DUP3 GT ISZERO PUSH2 0x1C3A JUMPI PUSH2 0x1C39 PUSH2 0x1807 JUMP JUMPDEST JUMPDEST PUSH2 0x1C43 DUP3 PUSH2 0x17F7 JUMP JUMPDEST SWAP1 POP PUSH1 0x20 DUP2 ADD SWAP1 POP SWAP2 SWAP1 POP JUMP JUMPDEST PUSH0 PUSH2 0x1C62 PUSH2 0x1C5D DUP5 PUSH2 0x1C20 JUMP JUMPDEST PUSH2 0x1865 JUMP JUMPDEST SWAP1 POP DUP3 DUP2 MSTORE PUSH1 0x20 DUP2 ADD DUP5 DUP5 DUP5 ADD GT ISZERO PUSH2 0x1C7E JUMPI PUSH2 0x1C7D PUSH2 0x17F3 JUMP JUMPDEST JUMPDEST PUSH2 0x1C89 DUP5 DUP3 DUP6 PUSH2 0x18AF JUMP JUMPDEST POP SWAP4 SWAP3 POP POP POP JUMP JUMPDEST PUSH0 DUP3 PUSH1 0x1F DUP4 ADD SLT PUSH2 0x1CA5 JUMPI PUSH2 0x1CA4 PUSH2 0x17EF JUMP JUMPDEST JUMPDEST DUP2 CALLDATALOAD PUSH2 0x1CB5 DUP5 DUP3 PUSH1 0x20 DUP7 ADD PUSH2 0x1C50 JUMP JUMPDEST SWAP2 POP POP SWAP3 SWAP2 POP POP JUMP JUMPDEST PUSH0 DUP1 PUSH0 PUSH1 0x60 DUP5 DUP7 SUB SLT ISZERO PUSH2 0x1CD5 JUMPI PUSH2 0x1CD4 PUSH2 0x17E7 JUMP JUMPDEST JUMPDEST PUSH0 DUP5 ADD CALLDATALOAD PUSH8 0xFFFFFFFFFFFFFFFF DUP2 GT ISZERO PUSH2 0x1CF2 JUMPI PUSH2 0x1CF1 PUSH2 0x17EB JUMP JUMPDEST JUMPDEST PUSH2 0x1CFE DUP7 DUP3 DUP8 ADD PUSH2 0x18FE JUMP JUMPDEST SWAP4 POP POP PUSH1 0x20 DUP5 ADD CALLDATALOAD PUSH8 0xFFFFFFFFFFFFFFFF DUP2 GT ISZERO PUSH2 0x1D1F JUMPI PUSH2 0x1D1E PUSH2 0x17EB JUMP JUMPDEST JUMPDEST PUSH2 0x1D2B DUP7 DUP3 DUP8 ADD PUSH2 0x18FE JUMP JUMPDEST SWAP3 POP POP PUSH1 0x40 DUP5 ADD CALLDATALOAD PUSH8 0xFFFFFFFFFFFFFFFF DUP2 GT ISZERO PUSH2 0x1D4C JUMPI PUSH2 0x1D4B PUSH2 0x17EB JUMP JUMPDEST JUMPDEST PUSH2 0x1D58 DUP7 DUP3 DUP8 ADD PUSH2 0x1C91 JUMP JUMPDEST SWAP2 POP POP SWAP3 POP SWAP3 POP SWAP3 JUMP JUMPDEST PUSH0 DUP2 SWAP1 POP SWAP3 SWAP2 POP POP JUMP JUMPDEST PUSH0 PUSH2 0x1D76 DUP3 PUSH2 0x198A JUMP JUMPDEST PUSH2 0x1D80 DUP2 DUP6 PUSH2 0x1D62 JUMP JUMPDEST SWAP4 POP PUSH2 0x1D90 DUP2 DUP6 PUSH1 0x20 DUP7 ADD PUSH2 0x19A4 JUMP JUMPDEST DUP1 DUP5 ADD SWAP2 POP POP SWAP3 SWAP2 POP POP JUMP JUMPDEST PUSH0 PUSH2 0x1DA7 DUP3 DUP5 PUSH2 0x1D6C JUMP JUMPDEST SWAP2 POP DUP2 SWAP1 POP SWAP3 SWAP2 POP POP JUMP JUMPDEST PUSH32 0x4E6F20616374697665207468726573686F6C647320666F756E64000000000000 PUSH0 DUP3 ADD MSTORE POP JUMP JUMPDEST PUSH0 PUSH2 0x1DE6 PUSH1 0x1A DUP4 PUSH2 0x1994 JUMP JUMPDEST SWAP2 POP PUSH2 0x1DF1 DUP3 PUSH2 0x1DB2 JUMP JUMPDEST PUSH1 0x20 DUP3 ADD SWAP1 POP SWAP2 SWAP1 POP JUMP JUMPDEST PUSH0 PUSH1 0x20 DUP3 ADD SWAP1 POP DUP2 DUP2 SUB PUSH0 DUP4 ADD MSTORE PUSH2 0x1E13 DUP2 PUSH2 0x1DDA JUMP JUMPDEST SWAP1 POP SWAP2 SWAP1 POP JUMP JUMPDEST PUSH0 PUSH1 0x20 DUP3 ADD SWAP1 POP DUP2 DUP2 SUB PUSH0 DUP4 ADD MSTORE PUSH2 0x1E32 DUP2 DUP5 PUSH2 0x19B2 JUMP JUMPDEST SWAP1 POP SWAP3 SWAP2 POP POP JUMP JUMPDEST PUSH32 0x4E487B7100000000000000000000000000000000000000000000000000000000 PUSH0 MSTORE PUSH1 0x22 PUSH1 0x4 MSTORE PUSH1 0x24 PUSH0 REVERT JUMPDEST PUSH0 PUSH1 0x2 DUP3 DIV SWAP1 POP PUSH1 0x1 DUP3 AND DUP1 PUSH2 0x1E7E JUMPI PUSH1 0x7F DUP3 AND SWAP2 POP JUMPDEST PUSH1 0x20 DUP3 LT DUP2 SUB PUSH2 0x1E91 JUMPI PUSH2 0x1E90 PUSH2 0x1E3A JUMP JUMPDEST JUMPDEST POP SWAP2 SWAP1 POP JUMP JUMPDEST PUSH0 PUSH1 0x80 DUP3 ADD SWAP1 POP PUSH2 0x1EAA PUSH0 DUP4 ADD DUP8 PUSH2 0x1A1A JUMP JUMPDEST PUSH2 0x1EB7 PUSH1 0x20 DUP4 ADD DUP7 PUSH2 0x1A1A JUMP JUMPDEST PUSH2 0x1EC4 PUSH1 0x40 DUP4 ADD DUP6 PUSH2 0x1A1A JUMP JUMPDEST PUSH2 0x1ED1 PUSH1 0x60 DUP4 ADD DUP5 PUSH2 0x197B JUMP JUMPDEST SWAP6 SWAP5 POP POP POP POP POP JUMP JUMPDEST PUSH0 DUP2 PUSH1 0x7 SIGNEXTEND SWAP1 POP SWAP2 SWAP1 POP JUMP JUMPDEST PUSH2 0x1EEF DUP2 PUSH2 0x1EDA JUMP JUMPDEST DUP2 EQ PUSH2 0x1EF9 JUMPI PUSH0 DUP1 REVERT JUMPDEST POP JUMP JUMPDEST PUSH0 DUP2 MLOAD SWAP1 POP PUSH2 0x1F0A DUP2 PUSH2 0x1EE6 JUMP JUMPDEST SWAP3 SWAP2 POP POP JUMP JUMPDEST PUSH0 PUSH1 0x20 DUP3 DUP5 SUB SLT ISZERO PUSH2 0x1F25 JUMPI PUSH2 0x1F24 PUSH2 0x17E7 JUMP JUMPDEST JUMPDEST PUSH0 PUSH2 0x1F32 DUP5 DUP3 DUP6 ADD PUSH2 0x1EFC JUMP JUMPDEST SWAP2 POP POP SWAP3 SWAP2 POP POP JUMP JUMPDEST PUSH32 0x526F7574657220617070726F76616C20617474656D7074000000000000000000 PUSH0 DUP3 ADD MSTORE POP JUMP JUMPDEST PUSH0 PUSH2 0x1F6F PUSH1 0x17 DUP4 PUSH2 0x1994 JUMP JUMPDEST SWAP2 POP PUSH2 0x1F7A DUP3 PUSH2 0x1F3B JUMP JUMPDEST PUSH1 0x20 DUP3 ADD SWAP1 POP SWAP2 SWAP1 POP JUMP JUMPDEST PUSH2 0x1F8E DUP2 PUSH2 0x1EDA JUMP JUMPDEST DUP3 MSTORE POP POP JUMP JUMPDEST PUSH0 PUSH1 0x80 DUP3 ADD SWAP1 POP DUP2 DUP2 SUB PUSH0 DUP4 ADD MSTORE PUSH2 0x1FAB DUP2 PUSH2 0x1F63 JUMP JUMPDEST SWAP1 POP PUSH2 0x1FBA PUSH1 0x20 DUP4 ADD DUP7 PUSH2 0x1A1A JUMP JUMPDEST PUSH2 0x1FC7 PUSH1 0x40 DUP4 ADD DUP6 PUSH2 0x197B JUMP JUMPDEST PUSH2 0x1FD4 PUSH1 0x60 DUP4 ADD DUP5 PUSH2 0x1F85 JUMP JUMPDEST SWAP5 SWAP4 POP POP POP POP JUMP JUMPDEST PUSH32 0x526F7574657220617070726F76616C206661696C656400000000000000000000 PUSH0 DUP3 ADD MSTORE POP JUMP JUMPDEST PUSH0 PUSH2 0x2010 PUSH1 0x16 DUP4 PUSH2 0x1994 JUMP JUMPDEST SWAP2 POP PUSH2 0x201B DUP3 PUSH2 0x1FDC JUMP JUMPDEST PUSH1 0x20 DUP3 ADD SWAP1 POP SWAP2 SWAP1 POP JUMP JUMPDEST PUSH0 PUSH1 0x20 DUP3 ADD SWAP1 POP DUP2 DUP2 SUB PUSH0 DUP4 ADD MSTORE PUSH2 0x203D DUP2 PUSH2 0x2004 JUMP JUMPDEST SWAP1 POP SWAP2 SWAP1 POP JUMP JUMPDEST PUSH32 0x53746F70206C6F7373207468726573686F6C64206D7573742062652062657477 PUSH0 DUP3 ADD MSTORE PUSH32 0x65656E203120616E6420313030303020626173697320706F696E747300000000 PUSH1 0x20 DUP3 ADD MSTORE POP JUMP JUMPDEST PUSH0 PUSH2 0x209E PUSH1 0x3C DUP4 PUSH2 0x1994 JUMP JUMPDEST SWAP2 POP PUSH2 0x20A9 DUP3 PUSH2 0x2044 JUMP JUMPDEST PUSH1 0x40 DUP3 ADD SWAP1 POP SWAP2 SWAP1 POP JUMP JUMPDEST PUSH0 PUSH1 0x20 DUP3 ADD SWAP1 POP DUP2 DUP2 SUB PUSH0 DUP4 ADD MSTORE PUSH2 0x20CB DUP2 PUSH2 0x2092 JUMP JUMPDEST SWAP1 POP SWAP2 SWAP1 POP JUMP JUMPDEST PUSH32 0x427579206F72646572207468726573686F6C64206D7573742062652062657477 PUSH0 DUP3 ADD MSTORE PUSH32 0x65656E203120616E6420313030303020626173697320706F696E747300000000 PUSH1 0x20 DUP3 ADD MSTORE POP JUMP JUMPDEST PUSH0 PUSH2 0x212C PUSH1 0x3C DUP4 PUSH2 0x1994 JUMP JUMPDEST SWAP2 POP PUSH2 0x2137 DUP3 PUSH2 0x20D2 JUMP JUMPDEST PUSH1 0x40 DUP3 ADD SWAP1 POP SWAP2 SWAP1 POP JUMP JUMPDEST PUSH0 PUSH1 0x20 DUP3 ADD SWAP1 POP DUP2 DUP2 SUB PUSH0 DUP4 ADD MSTORE PUSH2 0x2159 DUP2 PUSH2 0x2120 JUMP JUMPDEST SWAP1 POP SWAP2 SWAP1 POP JUMP JUMPDEST PUSH32 0x53746F70206C6F737320616D6F756E74206D7573742062652067726561746572 PUSH0 DUP3 ADD MSTORE PUSH32 0x207468616E207A65726F00000000000000000000000000000000000000000000 PUSH1 0x20 DUP3 ADD MSTORE POP JUMP JUMPDEST PUSH0 PUSH2 0x21BA PUSH1 0x2A DUP4 PUSH2 0x1994 JUMP JUMPDEST SWAP2 POP PUSH2 0x21C5 DUP3 PUSH2 0x2160 JUMP JUMPDEST PUSH1 0x40 DUP3 ADD SWAP1 POP SWAP2 SWAP1 POP JUMP JUMPDEST PUSH0 PUSH1 0x20 DUP3 ADD SWAP1 POP DUP2 DUP2 SUB PUSH0 DUP4 ADD MSTORE PUSH2 0x21E7 DUP2 PUSH2 0x21AE JUMP JUMPDEST SWAP1 POP SWAP2 SWAP1 POP JUMP JUMPDEST PUSH32 0x427579206F7264657220616D6F756E74206D7573742062652067726561746572 PUSH0 DUP3 ADD MSTORE PUSH32 0x207468616E207A65726F00000000000000000000000000000000000000000000 PUSH1 0x20 DUP3 ADD MSTORE POP JUMP JUMPDEST PUSH0 PUSH2 0x2248 PUSH1 0x2A DUP4 PUSH2 0x1994 JUMP JUMPDEST SWAP2 POP PUSH2 0x2253 DUP3 PUSH2 0x21EE JUMP JUMPDEST PUSH1 0x40 DUP3 ADD SWAP1 POP SWAP2 SWAP1 POP JUMP JUMPDEST PUSH0 PUSH1 0x20 DUP3 ADD SWAP1 POP DUP2 DUP2 SUB PUSH0 DUP4 ADD MSTORE PUSH2 0x2275 DUP2 PUSH2 0x223C JUMP JUMPDEST SWAP1 POP SWAP2 SWAP1 POP JUMP JUMPDEST PUSH32 0x546F6B656E2061646472657373206D7573742062652076616C69640000000000 PUSH0 DUP3 ADD MSTORE POP JUMP JUMPDEST PUSH0 PUSH2 0x22B0 PUSH1 0x1B DUP4 PUSH2 0x1994 JUMP JUMPDEST SWAP2 POP PUSH2 0x22BB DUP3 PUSH2 0x227C JUMP JUMPDEST PUSH1 0x20 DUP3 ADD SWAP1 POP SWAP2 SWAP1 POP JUMP JUMPDEST PUSH0 PUSH1 0x20 DUP3 ADD SWAP1 POP DUP2 DUP2 SUB PUSH0 DUP4 ADD MSTORE PUSH2 0x22DD DUP2 PUSH2 0x22A4 JUMP JUMPDEST SWAP1 POP SWAP2 SWAP1 POP JUMP JUMPDEST PUSH32 0x486564657261206163636F756E74204944206D757374206E6F7420626520656D PUSH0 DUP3 ADD MSTORE PUSH32 0x7074790000000000000000000000000000000000000000000000000000000000 PUSH1 0x20 DUP3 ADD MSTORE POP JUMP JUMPDEST PUSH0 PUSH2 0x233E PUSH1 0x23 DUP4 PUSH2 0x1994 JUMP JUMPDEST SWAP2 POP PUSH2 0x2349 DUP3 PUSH2 0x22E4 JUMP JUMPDEST PUSH1 0x40 DUP3 ADD SWAP1 POP SWAP2 SWAP1 POP JUMP JUMPDEST PUSH0 PUSH1 0x20 DUP3 ADD SWAP1 POP DUP2 DUP2 SUB PUSH0 DUP4 ADD MSTORE PUSH2 0x236B DUP2 PUSH2 0x2332 JUMP JUMPDEST SWAP1 POP SWAP2 SWAP1 POP JUMP JUMPDEST PUSH32 0x4265666F72652073657474696E67207468726573686F6C640000000000000000 PUSH0 DUP3 ADD MSTORE POP JUMP JUMPDEST PUSH0 PUSH2 0x23A6 PUSH1 0x18 DUP4 PUSH2 0x1994 JUMP JUMPDEST SWAP2 POP PUSH2 0x23B1 DUP3 PUSH2 0x2372 JUMP JUMPDEST PUSH1 0x20 DUP3 ADD SWAP1 POP SWAP2 SWAP1 POP JUMP JUMPDEST PUSH0 PUSH1 0xC0 DUP3 ADD SWAP1 POP DUP2 DUP2 SUB PUSH0 DUP4 ADD MSTORE PUSH2 0x23D3 DUP2 PUSH2 0x239A JUMP JUMPDEST SWAP1 POP DUP2 DUP2 SUB PUSH1 0x20 DUP4 ADD MSTORE PUSH2 0x23E7 DUP2 DUP9 PUSH2 0x19B2 JUMP JUMPDEST SWAP1 POP PUSH2 0x23F6 PUSH1 0x40 DUP4 ADD DUP8 PUSH2 0x1A34 JUMP JUMPDEST PUSH2 0x2403 PUSH1 0x60 DUP4 ADD DUP7 PUSH2 0x1A34 JUMP JUMPDEST PUSH2 0x2410 PUSH1 0x80 DUP4 ADD DUP6 PUSH2 0x197B JUMP JUMPDEST PUSH2 0x241D PUSH1 0xA0 DUP4 ADD DUP5 PUSH2 0x197B JUMP JUMPDEST SWAP7 SWAP6 POP POP POP POP POP POP JUMP JUMPDEST PUSH0 DUP2 SWAP1 POP DUP2 PUSH0 MSTORE PUSH1 0x20 PUSH0 KECCAK256 SWAP1 POP SWAP2 SWAP1 POP JUMP JUMPDEST PUSH0 PUSH1 0x20 PUSH1 0x1F DUP4 ADD DIV SWAP1 POP SWAP2 SWAP1 POP JUMP JUMPDEST PUSH0 DUP3 DUP3 SHL SWAP1 POP SWAP3 SWAP2 POP POP JUMP JUMPDEST PUSH0 PUSH1 0x8 DUP4 MUL PUSH2 0x2483 PUSH32 0xFFFFFFFFFFFFFFFFFFFFFFFFFFFFFFFFFFFFFFFFFFFFFFFFFFFFFFFFFFFFFFFF DUP3 PUSH2 0x2448 JUMP JUMPDEST PUSH2 0x248D DUP7 DUP4 PUSH2 0x2448 JUMP JUMPDEST SWAP6 POP DUP1 NOT DUP5 AND SWAP4 POP DUP1 DUP7 AND DUP5 OR SWAP3 POP POP POP SWAP4 SWAP3 POP POP POP JUMP JUMPDEST PUSH0 DUP2 SWAP1 POP SWAP2 SWAP1 POP JUMP JUMPDEST PUSH0 PUSH2 0x24C8 PUSH2 0x24C3 PUSH2 0x24BE DUP5 PUSH2 0x1972 JUMP JUMPDEST PUSH2 0x24A5 JUMP JUMPDEST PUSH2 0x1972 JUMP JUMPDEST SWAP1 POP SWAP2 SWAP1 POP JUMP JUMPDEST PUSH0 DUP2 SWAP1 POP SWAP2 SWAP1 POP JUMP JUMPDEST PUSH2 0x24E1 DUP4 PUSH2 0x24AE JUMP JUMPDEST PUSH2 0x24F5 PUSH2 0x24ED DUP3 PUSH2 0x24CF JUMP JUMPDEST DUP5 DUP5 SLOAD PUSH2 0x2454 JUMP JUMPDEST DUP3 SSTORE POP POP POP POP JUMP JUMPDEST PUSH0 SWAP1 JUMP JUMPDEST PUSH2 0x2509 PUSH2 0x24FD JUMP JUMPDEST PUSH2 0x2514 DUP2 DUP5 DUP5 PUSH2 0x24D8 JUMP JUMPDEST POP POP POP JUMP JUMPDEST JUMPDEST DUP2 DUP2 LT ISZERO PUSH2 0x2537 JUMPI PUSH2 0x252C PUSH0 DUP3 PUSH2 0x2501 JUMP JUMPDEST PUSH1 0x1 DUP2 ADD SWAP1 POP PUSH2 0x251A JUMP JUMPDEST POP POP JUMP JUMPDEST PUSH1 0x1F DUP3 GT ISZERO PUSH2 0x257C JUMPI PUSH2 0x254D DUP2 PUSH2 0x2427 JUMP JUMPDEST PUSH2 0x2556 DUP5 PUSH2 0x2439 JUMP JUMPDEST DUP2 ADD PUSH1 0x20 DUP6 LT ISZERO PUSH2 0x2565 JUMPI DUP2 SWAP1 POP JUMPDEST PUSH2 0x2579 PUSH2 0x2571 DUP6 PUSH2 0x2439 JUMP JUMPDEST DUP4 ADD DUP3 PUSH2 0x2519 JUMP JUMPDEST POP POP JUMPDEST POP POP POP JUMP JUMPDEST PUSH0 DUP3 DUP3 SHR SWAP1 POP SWAP3 SWAP2 POP POP JUMP JUMPDEST PUSH0 PUSH2 0x259C PUSH0 NOT DUP5 PUSH1 0x8 MUL PUSH2 0x2581 JUMP JUMPDEST NOT DUP1 DUP4 AND SWAP2 POP POP SWAP3 SWAP2 POP POP JUMP JUMPDEST PUSH0 PUSH2 0x25B4 DUP4 DUP4 PUSH2 0x258D JUMP JUMPDEST SWAP2 POP DUP3 PUSH1 0x2 MUL DUP3 OR SWAP1 POP SWAP3 SWAP2 POP POP JUMP JUMPDEST PUSH2 0x25CD DUP3 PUSH2 0x198A JUMP JUMPDEST PUSH8 0xFFFFFFFFFFFFFFFF DUP2 GT ISZERO PUSH2 0x25E6 JUMPI PUSH2 0x25E5 PUSH2 0x1807 JUMP JUMPDEST JUMPDEST PUSH2 0x25F0 DUP3 SLOAD PUSH2 0x1E67 JUMP JUMPDEST PUSH2 0x25FB DUP3 DUP3 DUP6 PUSH2 0x253B JUMP JUMPDEST PUSH0 PUSH1 0x20 SWAP1 POP PUSH1 0x1F DUP4 GT PUSH1 0x1 DUP2 EQ PUSH2 0x262C JUMPI PUSH0 DUP5 ISZERO PUSH2 0x261A JUMPI DUP3 DUP8 ADD MLOAD SWAP1 POP JUMPDEST PUSH2 0x2624 DUP6 DUP3 PUSH2 0x25A9 JUMP JUMPDEST DUP7 SSTORE POP PUSH2 0x268B JUMP JUMPDEST PUSH1 0x1F NOT DUP5 AND PUSH2 0x263A DUP7 PUSH2 0x2427 JUMP JUMPDEST PUSH0 JUMPDEST DUP3 DUP2 LT ISZERO PUSH2 0x2661 JUMPI DUP5 DUP10 ADD MLOAD DUP3 SSTORE PUSH1 0x1 DUP3 ADD SWAP2 POP PUSH1 0x20 DUP6 ADD SWAP5 POP PUSH1 0x20 DUP2 ADD SWAP1 POP PUSH2 0x263C JUMP JUMPDEST DUP7 DUP4 LT ISZERO PUSH2 0x267E JUMPI DUP5 DUP10 ADD MLOAD PUSH2 0x267A PUSH1 0x1F DUP10 AND DUP3 PUSH2 0x258D JUMP JUMPDEST DUP4 SSTORE POP JUMPDEST PUSH1 0x1 PUSH1 0x2 DUP9 MUL ADD DUP9 SSTORE POP POP POP JUMPDEST POP POP POP POP POP POP JUMP JUMPDEST PUSH32 0x41667465722073657474696E67207468726573686F6C64000000000000000000 PUSH0 DUP3 ADD MSTORE POP JUMP JUMPDEST PUSH0 PUSH2 0x26C7 PUSH1 0x17 DUP4 PUSH2 0x1994 JUMP JUMPDEST SWAP2 POP PUSH2 0x26D2 DUP3 PUSH2 0x2693 JUMP JUMPDEST PUSH1 0x20 DUP3 ADD SWAP1 POP SWAP2 SWAP1 POP JUMP JUMPDEST PUSH0 PUSH1 0xC0 DUP3 ADD SWAP1 POP DUP2 DUP2 SUB PUSH0 DUP4 ADD MSTORE PUSH2 0x26F4 DUP2 PUSH2 0x26BB JUMP JUMPDEST SWAP1 POP DUP2 DUP2 SUB PUSH1 0x20 DUP4 ADD MSTORE PUSH2 0x2708 DUP2 DUP9 PUSH2 0x19B2 JUMP JUMPDEST SWAP1 POP PUSH2 0x2717 PUSH1 0x40 DUP4 ADD DUP8 PUSH2 0x1A34 JUMP JUMPDEST PUSH2 0x2724 PUSH1 0x60 DUP4 ADD DUP7 PUSH2 0x1A34 JUMP JUMPDEST PUSH2 0x2731 PUSH1 0x80 DUP4 ADD DUP6 PUSH2 0x197B JUMP JUMPDEST PUSH2 0x273E PUSH1 0xA0 DUP4 ADD DUP5 PUSH2 0x197B JUMP JUMPDEST SWAP7 SWAP6 POP POP POP POP POP POP JUMP JUMPDEST PUSH0 PUSH1 0xC0 DUP3 ADD SWAP1 POP DUP2 DUP2 SUB PUSH0 DUP4 ADD MSTORE PUSH2 0x2760 DUP2 DUP10 PUSH2 0x19B2 JUMP JUMPDEST SWAP1 POP PUSH2 0x276F PUSH1 0x20 DUP4 ADD DUP9 PUSH2 0x197B JUMP JUMPDEST PUSH2 0x277C PUSH1 0x40 DUP4 ADD DUP8 PUSH2 0x197B JUMP JUMPDEST PUSH2 0x2789 PUSH1 0x60 DUP4 ADD DUP7 PUSH2 0x1A1A JUMP JUMPDEST PUSH2 0x2796 PUSH1 0x80 DUP4 ADD DUP6 PUSH2 0x197B JUMP JUMPDEST PUSH2 0x27A3 PUSH1 0xA0 DUP4 ADD DUP5 PUSH2 0x197B JUMP JUMPDEST SWAP8 SWAP7 POP POP POP POP POP POP POP JUMP JUMPDEST PUSH32 0x496E697469616C20737461746500000000000000000000000000000000000000 PUSH0 DUP3 ADD MSTORE POP JUMP JUMPDEST PUSH0 PUSH2 0x27E2 PUSH1 0xD DUP4 PUSH2 0x1994 JUMP JUMPDEST SWAP2 POP PUSH2 0x27ED DUP3 PUSH2 0x27AE JUMP JUMPDEST PUSH1 0x20 DUP3 ADD SWAP1 POP SWAP2 SWAP1 POP JUMP JUMPDEST PUSH0 DUP2 MLOAD SWAP1 POP SWAP2 SWAP1 POP JUMP JUMPDEST PUSH0 DUP3 DUP3 MSTORE PUSH1 0x20 DUP3 ADD SWAP1 POP SWAP3 SWAP2 POP POP JUMP JUMPDEST PUSH0 PUSH2 0x281C DUP3 PUSH2 0x27F8 JUMP JUMPDEST PUSH2 0x2826 DUP2 DUP6 PUSH2 0x2802 JUMP JUMPDEST SWAP4 POP PUSH2 0x2836 DUP2 DUP6 PUSH1 0x20 DUP7 ADD PUSH2 0x19A4 JUMP JUMPDEST PUSH2 0x283F DUP2 PUSH2 0x17F7 JUMP JUMPDEST DUP5 ADD SWAP2 POP POP SWAP3 SWAP2 POP POP JUMP JUMPDEST PUSH0 PUSH1 0xC0 DUP3 ADD SWAP1 POP DUP2 DUP2 SUB PUSH0 DUP4 ADD MSTORE PUSH2 0x2861 DUP2 PUSH2 0x27D6 JUMP JUMPDEST SWAP1 POP DUP2 DUP2 SUB PUSH1 0x20 DUP4 ADD MSTORE PUSH2 0x2875 DUP2 DUP9 PUSH2 0x19B2 JUMP JUMPDEST SWAP1 POP PUSH2 0x2884 PUSH1 0x40 DUP4 ADD DUP8 PUSH2 0x1A34 JUMP JUMPDEST DUP2 DUP2 SUB PUSH1 0x60 DUP4 ADD MSTORE PUSH2 0x2896 DUP2 DUP7 PUSH2 0x19B2 JUMP JUMPDEST SWAP1 POP PUSH2 0x28A5 PUSH1 0x80 DUP4 ADD DUP6 PUSH2 0x197B JUMP JUMPDEST DUP2 DUP2 SUB PUSH1 0xA0 DUP4 ADD MSTORE PUSH2 0x28B7 DUP2 DUP5 PUSH2 0x2812 JUMP JUMPDEST SWAP1 POP SWAP7 SWAP6 POP POP POP POP POP POP JUMP JUMPDEST PUSH32 0x55736572207468726573686F6C647320617265206E6F74206163746976650000 PUSH0 DUP3 ADD MSTORE POP JUMP JUMPDEST PUSH0 PUSH2 0x28F7 PUSH1 0x1E DUP4 PUSH2 0x1994 JUMP JUMPDEST SWAP2 POP PUSH2 0x2902 DUP3 PUSH2 0x28C3 JUMP JUMPDEST PUSH1 0x20 DUP3 ADD SWAP1 POP SWAP2 SWAP1 POP JUMP JUMPDEST PUSH0 PUSH1 0x20 DUP3 ADD SWAP1 POP DUP2 DUP2 SUB PUSH0 DUP4 ADD MSTORE PUSH2 0x2924 DUP2 PUSH2 0x28EB JUMP JUMPDEST SWAP1 POP SWAP2 SWAP1 POP JUMP JUMPDEST PUSH32 0x73746F704C6F7373000000000000000000000000000000000000000000000000 PUSH0 DUP3 ADD MSTORE POP JUMP JUMPDEST PUSH0 PUSH2 0x295F PUSH1 0x8 DUP4 PUSH2 0x1D62 JUMP JUMPDEST SWAP2 POP PUSH2 0x296A DUP3 PUSH2 0x292B JUMP JUMPDEST PUSH1 0x8 DUP3 ADD SWAP1 POP SWAP2 SWAP1 POP JUMP JUMPDEST PUSH0 PUSH2 0x297F DUP3 PUSH2 0x2953 JUMP JUMPDEST SWAP2 POP DUP2 SWAP1 POP SWAP2 SWAP1 POP JUMP JUMPDEST PUSH32 0x6275794F72646572000000000000000000000000000000000000000000000000 PUSH0 DUP3 ADD MSTORE POP JUMP JUMPDEST PUSH0 PUSH2 0x29BD PUSH1 0x8 DUP4 PUSH2 0x1D62 JUMP JUMPDEST SWAP2 POP PUSH2 0x29C8 DUP3 PUSH2 0x2989 JUMP JUMPDEST PUSH1 0x8 DUP3 ADD SWAP1 POP SWAP2 SWAP1 POP JUMP JUMPDEST PUSH0 PUSH2 0x29DD DUP3 PUSH2 0x29B1 JUMP JUMPDEST SWAP2 POP DUP2 SWAP1 POP SWAP2 SWAP1 POP JUMP JUMPDEST PUSH32 0x416D6F756E742065786365656473207468726573686F6C64206C696D69740000 PUSH0 DUP3 ADD MSTORE POP JUMP JUMPDEST PUSH0 PUSH2 0x2A1B PUSH1 0x1E DUP4 PUSH2 0x1994 JUMP JUMPDEST SWAP2 POP PUSH2 0x2A26 DUP3 PUSH2 0x29E7 JUMP JUMPDEST PUSH1 0x20 DUP3 ADD SWAP1 POP SWAP2 SWAP1 POP JUMP JUMPDEST PUSH0 PUSH1 0x20 DUP3 ADD SWAP1 POP DUP2 DUP2 SUB PUSH0 DUP4 ADD MSTORE PUSH2 0x2A48 DUP2 PUSH2 0x2A0F JUMP JUMPDEST SWAP1 POP SWAP2 SWAP1 POP JUMP JUMPDEST PUSH32 0x496E76616C696420486564657261206163636F756E7420494420666F726D6174 PUSH0 DUP3 ADD MSTORE POP JUMP JUMPDEST PUSH0 PUSH2 0x2A83 PUSH1 0x20 DUP4 PUSH2 0x1994 JUMP JUMPDEST SWAP2 POP PUSH2 0x2A8E DUP3 PUSH2 0x2A4F JUMP JUMPDEST PUSH1 0x20 DUP3 ADD SWAP1 POP SWAP2 SWAP1 POP JUMP JUMPDEST PUSH0 PUSH1 0x20 DUP3 ADD SWAP1 POP DUP2 DUP2 SUB PUSH0 DUP4 ADD MSTORE PUSH2 0x2AB0 DUP2 PUSH2 0x2A77 JUMP JUMPDEST SWAP1 POP SWAP2 SWAP1 POP JUMP JUMPDEST PUSH32 0x4E487B7100000000000000000000000000000000000000000000000000000000 PUSH0 MSTORE PUSH1 0x32 PUSH1 0x4 MSTORE PUSH1 0x24 PUSH0 REVERT JUMPDEST PUSH32 0x526F757465722073657475700000000000000000000000000000000000000000 PUSH0 DUP3 ADD MSTORE POP JUMP JUMPDEST PUSH0 PUSH2 0x2B18 PUSH1 0xC DUP4 PUSH2 0x1994 JUMP JUMPDEST SWAP2 POP PUSH2 0x2B23 DUP3 PUSH2 0x2AE4 JUMP JUMPDEST PUSH1 0x20 DUP3 ADD SWAP1 POP SWAP2 SWAP1 POP JUMP JUMPDEST PUSH0 PUSH1 0xA0 DUP3 ADD SWAP1 POP DUP2 DUP2 SUB PUSH0 DUP4 ADD MSTORE PUSH2 0x2B45 DUP2 PUSH2 0x2B0C JUMP JUMPDEST SWAP1 POP PUSH2 0x2B54 PUSH1 0x20 DUP4 ADD DUP8 PUSH2 0x197B JUMP JUMPDEST PUSH2 0x2B61 PUSH1 0x40 DUP4 ADD DUP7 PUSH2 0x1A1A JUMP JUMPDEST PUSH2 0x2B6E PUSH1 0x60 DUP4 ADD DUP6 PUSH2 0x1A1A JUMP JUMPDEST DUP2 DUP2 SUB PUSH1 0x80 DUP4 ADD MSTORE PUSH2 0x2B80 DUP2 DUP5 PUSH2 0x2812 JUMP JUMPDEST SWAP1 POP SWAP6 SWAP5 POP POP POP POP POP JUMP JUMPDEST PUSH32 0x4E487B7100000000000000000000000000000000000000000000000000000000 PUSH0 MSTORE PUSH1 0x11 PUSH1 0x4 MSTORE PUSH1 0x24 PUSH0 REVERT JUMPDEST PUSH0 PUSH2 0x2BC2 DUP3 PUSH2 0x1972 JUMP JUMPDEST SWAP2 POP PUSH2 0x2BCD DUP4 PUSH2 0x1972 JUMP JUMPDEST SWAP3 POP DUP3 DUP3 ADD SWAP1 POP DUP1 DUP3 GT ISZERO PUSH2 0x2BE5 JUMPI PUSH2 0x2BE4 PUSH2 0x2B8B JUMP JUMPDEST JUMPDEST SWAP3 SWAP2 POP POP JUMP JUMPDEST PUSH0 DUP3 DUP3 MSTORE PUSH1 0x20 DUP3 ADD SWAP1 POP SWAP3 SWAP2 POP POP JUMP JUMPDEST PUSH0 PUSH2 0x2C05 DUP3 PUSH2 0x27F8 JUMP JUMPDEST PUSH2 0x2C0F DUP2 DUP6 PUSH2 0x2BEB JUMP JUMPDEST SWAP4 POP PUSH2 0x2C1F DUP2 DUP6 PUSH1 0x20 DUP7 ADD PUSH2 0x19A4 JUMP JUMPDEST PUSH2 0x2C28 DUP2 PUSH2 0x17F7 JUMP JUMPDEST DUP5 ADD SWAP2 POP POP SWAP3 SWAP2 POP POP JUMP JUMPDEST PUSH2 0x2C3C DUP2 PUSH2 0x1A09 JUMP JUMPDEST DUP3 MSTORE POP POP JUMP JUMPDEST PUSH2 0x2C4B DUP2 PUSH2 0x1972 JUMP JUMPDEST DUP3 MSTORE POP POP JUMP JUMPDEST PUSH0 PUSH1 0xA0 DUP4 ADD PUSH0 DUP4 ADD MLOAD DUP5 DUP3 SUB PUSH0 DUP7 ADD MSTORE PUSH2 0x2C6B DUP3 DUP3 PUSH2 0x2BFB JUMP JUMPDEST SWAP2 POP POP PUSH1 0x20 DUP4 ADD MLOAD PUSH2 0x2C80 PUSH1 0x20 DUP7 ADD DUP3 PUSH2 0x2C33 JUMP JUMPDEST POP PUSH1 0x40 DUP4 ADD MLOAD PUSH2 0x2C93 PUSH1 0x40 DUP7 ADD DUP3 PUSH2 0x2C42 JUMP JUMPDEST POP PUSH1 0x60 DUP4 ADD MLOAD PUSH2 0x2CA6 PUSH1 0x60 DUP7 ADD DUP3 PUSH2 0x2C42 JUMP JUMPDEST POP PUSH1 0x80 DUP4 ADD MLOAD PUSH2 0x2CB9 PUSH1 0x80 DUP7 ADD DUP3 PUSH2 0x2C42 JUMP JUMPDEST POP DUP1 SWAP2 POP POP SWAP3 SWAP2 POP POP JUMP JUMPDEST PUSH0 PUSH1 0x20 DUP3 ADD SWAP1 POP DUP2 DUP2 SUB PUSH0 DUP4 ADD MSTORE PUSH2 0x2CDC DUP2 DUP5 PUSH2 0x2C51 JUMP JUMPDEST SWAP1 POP SWAP3 SWAP2 POP POP JUMP JUMPDEST PUSH32 0x4D756C746963616C6C2073657475700000000000000000000000000000000000 PUSH0 DUP3 ADD MSTORE POP JUMP JUMPDEST PUSH0 PUSH2 0x2D18 PUSH1 0xF DUP4 PUSH2 0x1994 JUMP JUMPDEST SWAP2 POP PUSH2 0x2D23 DUP3 PUSH2 0x2CE4 JUMP JUMPDEST PUSH1 0x20 DUP3 ADD SWAP1 POP SWAP2 SWAP1 POP JUMP JUMPDEST PUSH0 PUSH1 0x80 DUP3 ADD SWAP1 POP DUP2 DUP2 SUB PUSH0 DUP4 ADD MSTORE PUSH2 0x2D45 DUP2 PUSH2 0x2D0C JUMP JUMPDEST SWAP1 POP PUSH2 0x2D54 PUSH1 0x20 DUP4 ADD DUP7 PUSH2 0x197B JUMP JUMPDEST DUP2 DUP2 SUB PUSH1 0x40 DUP4 ADD MSTORE PUSH2 0x2D66 DUP2 DUP6 PUSH2 0x2812 JUMP JUMPDEST SWAP1 POP DUP2 DUP2 SUB PUSH1 0x60 DUP4 ADD MSTORE PUSH2 0x2D7A DUP2 DUP5 PUSH2 0x2812 JUMP JUMPDEST SWAP1 POP SWAP5 SWAP4 POP POP POP POP JUMP JUMPDEST PUSH32 0x46696E616C20706172616D730000000000000000000000000000000000000000 PUSH0 DUP3 ADD MSTORE POP JUMP JUMPDEST PUSH0 PUSH2 0x2DB8 PUSH1 0xC DUP4 PUSH2 0x1994 JUMP JUMPDEST SWAP2 POP PUSH2 0x2DC3 DUP3 PUSH2 0x2D84 JUMP JUMPDEST PUSH1 0x20 DUP3 ADD SWAP1 POP SWAP2 SWAP1 POP JUMP JUMPDEST PUSH0 PUSH1 0xE0 DUP3 ADD SWAP1 POP DUP2 DUP2 SUB PUSH0 DUP4 ADD MSTORE PUSH2 0x2DE5 DUP2 PUSH2 0x2DAC JUMP JUMPDEST SWAP1 POP DUP2 DUP2 SUB PUSH1 0x20 DUP4 ADD MSTORE PUSH2 0x2DF9 DUP2 DUP10 PUSH2 0x2812 JUMP JUMPDEST SWAP1 POP PUSH2 0x2E08 PUSH1 0x40 DUP4 ADD DUP9 PUSH2 0x1A1A JUMP JUMPDEST PUSH2 0x2E15 PUSH1 0x60 DUP4 ADD DUP8 PUSH2 0x197B JUMP JUMPDEST PUSH2 0x2E22 PUSH1 0x80 DUP4 ADD DUP7 PUSH2 0x197B JUMP JUMPDEST PUSH2 0x2E2F PUSH1 0xA0 DUP4 ADD DUP6 PUSH2 0x1A1A JUMP JUMPDEST PUSH2 0x2E3C PUSH1 0xC0 DUP4 ADD DUP5 PUSH2 0x197B JUMP JUMPDEST SWAP8 SWAP7 POP POP POP POP POP POP POP JUMP JUMPDEST PUSH0 DUP2 MLOAD SWAP1 POP SWAP2 SWAP1 POP JUMP JUMPDEST PUSH0 DUP3 DUP3 MSTORE PUSH1 0x20 DUP3 ADD SWAP1 POP SWAP3 SWAP2 POP POP JUMP JUMPDEST PUSH0 DUP2 SWAP1 POP PUSH1 0x20 DUP3 ADD SWAP1 POP SWAP2 SWAP1 POP JUMP JUMPDEST PUSH0 PUSH2 0x2E7B DUP4 DUP4 PUSH2 0x2BFB JUMP JUMPDEST SWAP1 POP SWAP3 SWAP2 POP POP JUMP JUMPDEST PUSH0 PUSH1 0x20 DUP3 ADD SWAP1 POP SWAP2 SWAP1 POP JUMP JUMPDEST PUSH0 PUSH2 0x2E99 DUP3 PUSH2 0x2E47 JUMP JUMPDEST PUSH2 0x2EA3 DUP2 DUP6 PUSH2 0x2E51 JUMP JUMPDEST SWAP4 POP DUP4 PUSH1 0x20 DUP3 MUL DUP6 ADD PUSH2 0x2EB5 DUP6 PUSH2 0x2E61 JUMP JUMPDEST DUP1 PUSH0 JUMPDEST DUP6 DUP2 LT ISZERO PUSH2 0x2EF0 JUMPI DUP5 DUP5 SUB DUP10 MSTORE DUP2 MLOAD PUSH2 0x2ED1 DUP6 DUP3 PUSH2 0x2E70 JUMP JUMPDEST SWAP5 POP PUSH2 0x2EDC DUP4 PUSH2 0x2E83 JUMP JUMPDEST SWAP3 POP PUSH1 0x20 DUP11 ADD SWAP10 POP POP PUSH1 0x1 DUP2 ADD SWAP1 POP PUSH2 0x2EB8 JUMP JUMPDEST POP DUP3 SWAP8 POP DUP8 SWAP6 POP POP POP POP POP POP SWAP3 SWAP2 POP POP JUMP JUMPDEST PUSH0 PUSH1 0x20 DUP3 ADD SWAP1 POP DUP2 DUP2 SUB PUSH0 DUP4 ADD MSTORE PUSH2 0x2F1A DUP2 DUP5 PUSH2 0x2E8F JUMP JUMPDEST SWAP1 POP SWAP3 SWAP2 POP POP JUMP JUMPDEST PUSH0 PUSH8 0xFFFFFFFFFFFFFFFF DUP3 GT ISZERO PUSH2 0x2F3C JUMPI PUSH2 0x2F3B PUSH2 0x1807 JUMP JUMPDEST JUMPDEST PUSH1 0x20 DUP3 MUL SWAP1 POP PUSH1 0x20 DUP2 ADD SWAP1 POP SWAP2 SWAP1 POP JUMP JUMPDEST PUSH0 DUP1 REVERT JUMPDEST PUSH0 PUSH2 0x2F63 PUSH2 0x2F5E DUP5 PUSH2 0x1C20 JUMP JUMPDEST PUSH2 0x1865 JUMP JUMPDEST SWAP1 POP DUP3 DUP2 MSTORE PUSH1 0x20 DUP2 ADD DUP5 DUP5 DUP5 ADD GT ISZERO PUSH2 0x2F7F JUMPI PUSH2 0x2F7E PUSH2 0x17F3 JUMP JUMPDEST JUMPDEST PUSH2 0x2F8A DUP5 DUP3 DUP6 PUSH2 0x19A4 JUMP JUMPDEST POP SWAP4 SWAP3 POP POP POP JUMP JUMPDEST PUSH0 DUP3 PUSH1 0x1F DUP4 ADD SLT PUSH2 0x2FA6 JUMPI PUSH2 0x2FA5 PUSH2 0x17EF JUMP JUMPDEST JUMPDEST DUP2 MLOAD PUSH2 0x2FB6 DUP5 DUP3 PUSH1 0x20 DUP7 ADD PUSH2 0x2F51 JUMP JUMPDEST SWAP2 POP POP SWAP3 SWAP2 POP POP JUMP JUMPDEST PUSH0 PUSH2 0x2FD1 PUSH2 0x2FCC DUP5 PUSH2 0x2F22 JUMP JUMPDEST PUSH2 0x1865 JUMP JUMPDEST SWAP1 POP DUP1 DUP4 DUP3 MSTORE PUSH1 0x20 DUP3 ADD SWAP1 POP PUSH1 0x20 DUP5 MUL DUP4 ADD DUP6 DUP2 GT ISZERO PUSH2 0x2FF4 JUMPI PUSH2 0x2FF3 PUSH2 0x2F4D JUMP JUMPDEST JUMPDEST DUP4 JUMPDEST DUP2 DUP2 LT ISZERO PUSH2 0x303B JUMPI DUP1 MLOAD PUSH8 0xFFFFFFFFFFFFFFFF DUP2 GT ISZERO PUSH2 0x3019 JUMPI PUSH2 0x3018 PUSH2 0x17EF JUMP JUMPDEST JUMPDEST DUP1 DUP7 ADD PUSH2 0x3026 DUP10 DUP3 PUSH2 0x2F92 JUMP JUMPDEST DUP6 MSTORE PUSH1 0x20 DUP6 ADD SWAP5 POP POP POP PUSH1 0x20 DUP2 ADD SWAP1 POP PUSH2 0x2FF6 JUMP JUMPDEST POP POP POP SWAP4 SWAP3 POP POP POP JUMP JUMPDEST PUSH0 DUP3 PUSH1 0x1F DUP4 ADD SLT PUSH2 0x3059 JUMPI PUSH2 0x3058 PUSH2 0x17EF JUMP JUMPDEST JUMPDEST DUP2 MLOAD PUSH2 0x3069 DUP5 DUP3 PUSH1 0x20 DUP7 ADD PUSH2 0x2FBF JUMP JUMPDEST SWAP2 POP POP SWAP3 SWAP2 POP POP JUMP JUMPDEST PUSH0 PUSH1 0x20 DUP3 DUP5 SUB SLT ISZERO PUSH2 0x3087 JUMPI PUSH2 0x3086 PUSH2 0x17E7 JUMP JUMPDEST JUMPDEST PUSH0 DUP3 ADD MLOAD PUSH8 0xFFFFFFFFFFFFFFFF DUP2 GT ISZERO PUSH2 0x30A4 JUMPI PUSH2 0x30A3 PUSH2 0x17EB JUMP JUMPDEST JUMPDEST PUSH2 0x30B0 DUP5 DUP3 DUP6 ADD PUSH2 0x3045 JUMP JUMPDEST SWAP2 POP POP SWAP3 SWAP2 POP POP JUMP JUMPDEST PUSH0 DUP2 PUSH1 0xE0 SHR SWAP1 POP SWAP2 SWAP1 POP JUMP JUMPDEST PUSH0 PUSH1 0x3 RETURNDATASIZE GT ISZERO PUSH2 0x30E1 JUMPI PUSH1 0x4 PUSH0 DUP1 RETURNDATACOPY PUSH2 0x30DE PUSH0 MLOAD PUSH2 0x30B9 JUMP JUMPDEST SWAP1 POP JUMPDEST SWAP1 JUMP JUMPDEST PUSH0 PUSH1 0x44 RETURNDATASIZE LT PUSH2 0x3170 JUMPI PUSH2 0x30F5 PUSH2 0x17DE JUMP JUMPDEST PUSH1 0x4 RETURNDATASIZE SUB PUSH1 0x4 DUP3 RETURNDATACOPY DUP1 MLOAD RETURNDATASIZE PUSH1 0x24 DUP3 ADD GT PUSH8 0xFFFFFFFFFFFFFFFF DUP3 GT OR ISZERO PUSH2 0x311D JUMPI POP POP PUSH2 0x3170 JUMP JUMPDEST DUP1 DUP3 ADD DUP1 MLOAD PUSH8 0xFFFFFFFFFFFFFFFF DUP2 GT ISZERO PUSH2 0x313B JUMPI POP POP POP POP PUSH2 0x3170 JUMP JUMPDEST DUP1 PUSH1 0x20 DUP4 ADD ADD PUSH1 0x4 RETURNDATASIZE SUB DUP6 ADD DUP2 GT ISZERO PUSH2 0x3158 JUMPI POP POP POP POP POP PUSH2 0x3170 JUMP JUMPDEST PUSH2 0x3167 DUP3 PUSH1 0x20 ADD DUP6 ADD DUP7 PUSH2 0x1834 JUMP JUMPDEST DUP3 SWAP6 POP POP POP POP POP POP JUMPDEST SWAP1 JUMP JUMPDEST PUSH32 0x53776170206661696C6564207769746820726561736F6E000000000000000000 PUSH0 DUP3 ADD MSTORE POP JUMP JUMPDEST PUSH0 PUSH2 0x31A7 PUSH1 0x17 DUP4 PUSH2 0x1994 JUMP JUMPDEST SWAP2 POP PUSH2 0x31B2 DUP3 PUSH2 0x3173 JUMP JUMPDEST PUSH1 0x20 DUP3 ADD SWAP1 POP SWAP2 SWAP1 POP JUMP JUMPDEST PUSH0 DUP2 SWAP1 POP SWAP2 SWAP1 POP JUMP JUMPDEST PUSH0 PUSH2 0x31E0 PUSH2 0x31DB PUSH2 0x31D6 DUP5 PUSH2 0x31BD JUMP JUMPDEST PUSH2 0x24A5 JUMP JUMPDEST PUSH2 0x1972 JUMP JUMPDEST SWAP1 POP SWAP2 SWAP1 POP JUMP JUMPDEST PUSH2 0x31F0 DUP2 PUSH2 0x31C6 JUMP JUMPDEST DUP3 MSTORE POP POP JUMP JUMPDEST PUSH0 PUSH1 0x60 DUP3 ADD SWAP1 POP DUP2 DUP2 SUB PUSH0 DUP4 ADD MSTORE PUSH2 0x320D DUP2 PUSH2 0x319B JUMP JUMPDEST SWAP1 POP PUSH2 0x321C PUSH1 0x20 DUP4 ADD DUP6 PUSH2 0x31E7 JUMP JUMPDEST PUSH2 0x3229 PUSH1 0x40 DUP4 ADD DUP5 PUSH2 0x1A1A JUMP JUMPDEST SWAP4 SWAP3 POP POP POP JUMP JUMPDEST PUSH32 0x526F757465722063616C6C206661696C65643A20000000000000000000000000 PUSH0 DUP3 ADD MSTORE POP JUMP JUMPDEST PUSH0 PUSH2 0x3264 PUSH1 0x14 DUP4 PUSH2 0x1D62 JUMP JUMPDEST SWAP2 POP PUSH2 0x326F DUP3 PUSH2 0x3230 JUMP JUMPDEST PUSH1 0x14 DUP3 ADD SWAP1 POP SWAP2 SWAP1 POP JUMP JUMPDEST PUSH0 PUSH2 0x3284 DUP3 PUSH2 0x3258 JUMP JUMPDEST SWAP2 POP PUSH2 0x3290 DUP3 DUP5 PUSH2 0x1D6C JUMP JUMPDEST SWAP2 POP DUP2 SWAP1 POP SWAP3 SWAP2 POP POP JUMP JUMPDEST PUSH32 0x53776170206661696C6564207769746820756E6B6E6F776E20726561736F6E00 PUSH0 DUP3 ADD MSTORE POP JUMP JUMPDEST PUSH0 PUSH2 0x32CF PUSH1 0x1F DUP4 PUSH2 0x1994 JUMP JUMPDEST SWAP2 POP PUSH2 0x32DA DUP3 PUSH2 0x329B JUMP JUMPDEST PUSH1 0x20 DUP3 ADD SWAP1 POP SWAP2 SWAP1 POP JUMP JUMPDEST PUSH0 PUSH1 0x60 DUP3 ADD SWAP1 POP DUP2 DUP2 SUB PUSH0 DUP4 ADD MSTORE PUSH2 0x32FC DUP2 PUSH2 0x32C3 JUMP JUMPDEST SWAP1 POP PUSH2 0x330B PUSH1 0x20 DUP4 ADD DUP6 PUSH2 0x31E7 JUMP JUMPDEST PUSH2 0x3318 PUSH1 0x40 DUP4 ADD DUP5 PUSH2 0x1A1A JUMP JUMPDEST SWAP4 SWAP3 POP POP POP JUMP JUMPDEST PUSH32 0x526F757465722063616C6C206661696C65643A20756E6B6E6F776E2072656173 PUSH0 DUP3 ADD MSTORE PUSH32 0x6F6E000000000000000000000000000000000000000000000000000000000000 PUSH1 0x20 DUP3 ADD MSTORE POP JUMP JUMPDEST PUSH0 PUSH2 0x3379 PUSH1 0x22 DUP4 PUSH2 0x1994 JUMP JUMPDEST SWAP2 POP PUSH2 0x3384 DUP3 PUSH2 0x331F JUMP JUMPDEST PUSH1 0x40 DUP3 ADD SWAP1 POP SWAP2 SWAP1 POP JUMP JUMPDEST PUSH0 PUSH1 0x20 DUP3 ADD SWAP1 POP DUP2 DUP2 SUB PUSH0 DUP4 ADD MSTORE PUSH2 0x33A6 DUP2 PUSH2 0x336D JUMP JUMPDEST SWAP1 POP SWAP2 SWAP1 POP JUMP JUMPDEST PUSH0 DUP2 MLOAD SWAP1 POP PUSH2 0x33BB DUP2 PUSH2 0x1AE1 JUMP JUMPDEST SWAP3 SWAP2 POP POP JUMP JUMPDEST PUSH0 PUSH1 0x20 DUP3 DUP5 SUB SLT ISZERO PUSH2 0x33D6 JUMPI PUSH2 0x33D5 PUSH2 0x17E7 JUMP JUMPDEST JUMPDEST PUSH0 PUSH2 0x33E3 DUP5 DUP3 DUP6 ADD PUSH2 0x33AD JUMP JUMPDEST SWAP2 POP POP SWAP3 SWAP2 POP POP JUMP JUMPDEST PUSH32 0x5377617020737563636573730000000000000000000000000000000000000000 PUSH0 DUP3 ADD MSTORE POP JUMP JUMPDEST PUSH0 PUSH2 0x3420 PUSH1 0xC DUP4 PUSH2 0x1994 JUMP JUMPDEST SWAP2 POP PUSH2 0x342B DUP3 PUSH2 0x33EC JUMP JUMPDEST PUSH1 0x20 DUP3 ADD SWAP1 POP SWAP2 SWAP1 POP JUMP JUMPDEST PUSH0 PUSH1 0x60 DUP3 ADD SWAP1 POP DUP2 DUP2 SUB PUSH0 DUP4 ADD MSTORE PUSH2 0x344D DUP2 PUSH2 0x3414 JUMP JUMPDEST SWAP1 POP PUSH2 0x345C PUSH1 0x20 DUP4 ADD DUP6 PUSH2 0x197B JUMP JUMPDEST PUSH2 0x3469 PUSH1 0x40 DUP4 ADD DUP5 PUSH2 0x1A1A JUMP JUMPDEST SWAP4 SWAP3 POP POP POP JUMP JUMPDEST PUSH0 PUSH1 0xA0 DUP3 ADD SWAP1 POP DUP2 DUP2 SUB PUSH0 DUP4 ADD MSTORE PUSH2 0x3488 DUP2 DUP9 PUSH2 0x19B2 JUMP JUMPDEST SWAP1 POP DUP2 DUP2 SUB PUSH1 0x20 DUP4 ADD MSTORE PUSH2 0x349C DUP2 DUP8 PUSH2 0x19B2 JUMP JUMPDEST SWAP1 POP PUSH2 0x34AB PUSH1 0x40 DUP4 ADD DUP7 PUSH2 0x197B JUMP JUMPDEST PUSH2 0x34B8 PUSH1 0x60 DUP4 ADD DUP6 PUSH2 0x1A1A JUMP JUMPDEST PUSH2 0x34C5 PUSH1 0x80 DUP4 ADD DUP5 PUSH2 0x197B JUMP JUMPDEST SWAP7 SWAP6 POP POP POP POP POP POP JUMP JUMPDEST PUSH0 PUSH2 0x34D9 DUP3 PUSH2 0x1972 JUMP JUMPDEST SWAP2 POP PUSH32 0xFFFFFFFFFFFFFFFFFFFFFFFFFFFFFFFFFFFFFFFFFFFFFFFFFFFFFFFFFFFFFFFF DUP3 SUB PUSH2 0x350B JUMPI PUSH2 0x350A PUSH2 0x2B8B JUMP JUMPDEST JUMPDEST PUSH1 0x1 DUP3 ADD SWAP1 POP SWAP2 SWAP1 POP JUMP JUMPDEST PUSH0 PUSH1 0xFF DUP3 AND SWAP1 POP SWAP2 SWAP1 POP JUMP JUMPDEST PUSH0 PUSH2 0x352C DUP3 PUSH2 0x3516 JUMP JUMPDEST SWAP2 POP PUSH2 0x3537 DUP4 PUSH2 0x3516 JUMP JUMPDEST SWAP3 POP DUP3 DUP3 SUB SWAP1 POP PUSH1 0xFF DUP2 GT ISZERO PUSH2 0x3550 JUMPI PUSH2 0x354F PUSH2 0x2B8B JUMP JUMPDEST JUMPDEST SWAP3 SWAP2 POP POP JUMP JUMPDEST PUSH0 PUSH2 0x3560 DUP3 PUSH2 0x1972 JUMP JUMPDEST SWAP2 POP PUSH2 0x356B DUP4 PUSH2 0x1972 JUMP JUMPDEST SWAP3 POP DUP3 DUP3 MUL PUSH2 0x3579 DUP2 PUSH2 0x1972 JUMP JUMPDEST SWAP2 POP DUP3 DUP3 DIV DUP5 EQ DUP4 ISZERO OR PUSH2 0x3590 JUMPI PUSH2 0x358F PUSH2 0x2B8B JUMP JUMPDEST JUMPDEST POP SWAP3 SWAP2 POP POP JUMP JUMPDEST PUSH0 PUSH2 0x35A1 DUP3 PUSH2 0x1972 JUMP JUMPDEST SWAP2 POP PUSH2 0x35AC DUP4 PUSH2 0x1972 JUMP JUMPDEST SWAP3 POP DUP3 DUP3 SUB SWAP1 POP DUP2 DUP2 GT ISZERO PUSH2 0x35C4 JUMPI PUSH2 0x35C3 PUSH2 0x2B8B JUMP JUMPDEST JUMPDEST SWAP3 SWAP2 POP POP JUMP INVALID LOG2 PUSH5 0x6970667358 0x22 SLT KECCAK256 0xB1 CODECOPY 0xAC 0xB8 DUP8 0xF8 0xE2 CALLER 0xB0 0xEC CREATE2 NUMBER 0xB5 0xBE SWAP1 PUSH23 0x94D17E8DCBE9983A2281F93619C104BE64736F6C634300 ADDMOD BYTE STOP CALLER "
		},
		"gasEstimates": {
			"creation": {
				"codeDepositCost": "2764800",
				"executionCost": "infinite",
				"totalCost": "infinite"
			},
			"external": {
				"approveRouter(address,uint256)": "infinite",
				"currentPrice()": "2447",
				"deactivateThresholds(string)": "infinite",
				"executeTradeForUser(string,string,bytes)": "infinite",
				"getThreshold(string)": "infinite",
				"owner()": "2572",
				"setThresholds(uint256,uint256,string,address,uint256,uint256)": "infinite",
				"userThresholds(string)": "infinite"
			},
			"internal": {
				"calculateMinimumAmountOut(uint256,uint256)": "infinite",
				"split(string memory,string memory)": "infinite",
				"stringToUint(string memory)": "infinite",
				"substring(string memory,uint256,uint256)": "infinite"
			}
		},
		"methodIdentifiers": {
			"approveRouter(address,uint256)": "88a95e61",
			"currentPrice()": "9d1b464a",
			"deactivateThresholds(string)": "552f9a8f",
			"executeTradeForUser(string,string,bytes)": "d3c0eac3",
			"getThreshold(string)": "6cc3eb68",
			"owner()": "8da5cb5b",
			"setThresholds(uint256,uint256,string,address,uint256,uint256)": "b5fa3dbd",
			"userThresholds(string)": "9286eddb"
		}
	},
	"abi": [
		{
			"inputs": [
				{
					"internalType": "address",
					"name": "_owner",
					"type": "address"
				}
			],
			"stateMutability": "nonpayable",
			"type": "constructor"
		},
		{
			"anonymous": false,
			"inputs": [
				{
					"indexed": false,
					"internalType": "string",
					"name": "message",
					"type": "string"
				},
				{
					"indexed": false,
					"internalType": "uint256",
					"name": "hbarAmount",
					"type": "uint256"
				},
				{
					"indexed": false,
					"internalType": "uint256",
					"name": "relevantAmount",
					"type": "uint256"
				},
				{
					"indexed": false,
					"internalType": "uint256",
					"name": "minimumOut",
					"type": "uint256"
				}
			],
			"name": "AmountDebug",
			"type": "event"
		},
		{
			"anonymous": false,
			"inputs": [
				{
					"indexed": false,
					"internalType": "string",
					"name": "message",
					"type": "string"
				},
				{
					"indexed": false,
					"internalType": "string",
					"name": "hederaAccountId",
					"type": "string"
				},
				{
					"indexed": false,
					"internalType": "bool",
					"name": "isActive",
					"type": "bool"
				},
				{
					"indexed": false,
					"internalType": "string",
					"name": "orderType",
					"type": "string"
				},
				{
					"indexed": false,
					"internalType": "uint256",
					"name": "amount",
					"type": "uint256"
				},
				{
					"indexed": false,
					"internalType": "bytes",
					"name": "path",
					"type": "bytes"
				}
			],
			"name": "ExecuteTradeDebug",
			"type": "event"
		},
		{
			"anonymous": false,
			"inputs": [
				{
					"indexed": false,
					"internalType": "string",
					"name": "message",
					"type": "string"
				},
				{
					"indexed": false,
					"internalType": "bytes[]",
					"name": "calls",
					"type": "bytes[]"
				}
			],
			"name": "MultiCallDebug",
			"type": "event"
		},
		{
			"anonymous": false,
			"inputs": [
				{
					"indexed": false,
					"internalType": "string",
					"name": "message",
					"type": "string"
				},
				{
					"indexed": false,
					"internalType": "uint256",
					"name": "callCount",
					"type": "uint256"
				},
				{
					"indexed": false,
					"internalType": "bytes",
					"name": "firstCall",
					"type": "bytes"
				},
				{
					"indexed": false,
					"internalType": "bytes",
					"name": "secondCall",
					"type": "bytes"
				}
			],
			"name": "MultiCallSetup",
			"type": "event"
		},
		{
			"anonymous": false,
			"inputs": [
				{
					"indexed": false,
					"internalType": "string",
					"name": "hederaAccountId",
					"type": "string"
				},
				{
					"indexed": false,
					"internalType": "string",
					"name": "orderType",
					"type": "string"
				},
				{
					"indexed": false,
					"internalType": "uint256",
					"name": "currentPrice",
					"type": "uint256"
				},
				{
					"indexed": false,
					"internalType": "address",
					"name": "tokenAddress",
					"type": "address"
				},
				{
					"indexed": false,
					"internalType": "uint256",
					"name": "amountOut",
					"type": "uint256"
				}
			],
			"name": "OrderExecuted",
			"type": "event"
		},
		{
			"anonymous": false,
			"inputs": [
				{
					"indexed": false,
					"internalType": "string",
					"name": "message",
					"type": "string"
				},
				{
					"indexed": false,
					"internalType": "bytes",
					"name": "path",
					"type": "bytes"
				},
				{
					"indexed": false,
					"internalType": "address",
					"name": "recipient",
					"type": "address"
				}
			],
			"name": "PathDebug",
			"type": "event"
		},
		{
			"anonymous": false,
			"inputs": [
				{
					"indexed": false,
					"internalType": "string",
					"name": "message",
					"type": "string"
				},
				{
					"indexed": false,
					"internalType": "uint256",
					"name": "msgValue",
					"type": "uint256"
				},
				{
					"indexed": false,
					"internalType": "uint256",
					"name": "thresholdAmount",
					"type": "uint256"
				},
				{
					"indexed": false,
					"internalType": "bool",
					"name": "thresholdActive",
					"type": "bool"
				},
				{
					"indexed": false,
					"internalType": "string",
					"name": "orderType",
					"type": "string"
				},
				{
					"indexed": false,
					"internalType": "bytes",
					"name": "path",
					"type": "bytes"
				}
			],
			"name": "PreTradeCheck",
			"type": "event"
		},
		{
			"anonymous": false,
			"inputs": [
				{
					"indexed": false,
					"internalType": "string",
					"name": "message",
					"type": "string"
				},
				{
					"indexed": false,
					"internalType": "string",
					"name": "hederaAccountId",
					"type": "string"
				},
				{
					"indexed": false,
					"internalType": "address",
					"name": "derivedAddress",
					"type": "address"
				}
			],
			"name": "RecipientDebug",
			"type": "event"
		},
		{
			"anonymous": false,
			"inputs": [
				{
					"indexed": false,
					"internalType": "string",
					"name": "message",
					"type": "string"
				},
				{
					"indexed": false,
					"internalType": "address",
					"name": "token",
					"type": "address"
				},
				{
					"indexed": false,
					"internalType": "uint256",
					"name": "amount",
					"type": "uint256"
				},
				{
					"indexed": false,
					"internalType": "int64",
					"name": "result",
					"type": "int64"
				}
			],
			"name": "RouterApprovalResult",
			"type": "event"
		},
		{
			"anonymous": false,
			"inputs": [
				{
					"indexed": false,
					"internalType": "string",
					"name": "message",
					"type": "string"
				},
				{
					"indexed": false,
					"internalType": "bytes",
					"name": "encodedCall",
					"type": "bytes"
				}
			],
			"name": "RouterCallDebug",
			"type": "event"
		},
		{
			"anonymous": false,
			"inputs": [
				{
					"indexed": false,
					"internalType": "string",
					"name": "message",
					"type": "string"
				},
				{
					"indexed": false,
					"internalType": "uint256",
					"name": "msgValue",
					"type": "uint256"
				},
				{
					"indexed": false,
					"internalType": "address",
					"name": "router",
					"type": "address"
				},
				{
					"indexed": false,
					"internalType": "address",
					"name": "recipient",
					"type": "address"
				},
				{
					"indexed": false,
					"internalType": "bytes",
					"name": "path",
					"type": "bytes"
				}
			],
			"name": "RouterCallDetails",
			"type": "event"
		},
		{
			"anonymous": false,
			"inputs": [
				{
					"indexed": false,
					"internalType": "string",
					"name": "message",
					"type": "string"
				},
				{
					"indexed": false,
					"internalType": "bytes",
					"name": "path",
					"type": "bytes"
				},
				{
					"indexed": false,
					"internalType": "address",
					"name": "recipient",
					"type": "address"
				},
				{
					"indexed": false,
					"internalType": "uint256",
					"name": "amountIn",
					"type": "uint256"
				},
				{
					"indexed": false,
					"internalType": "uint256",
					"name": "amountOutMinimum",
					"type": "uint256"
				},
				{
					"indexed": false,
					"internalType": "address",
					"name": "router",
					"type": "address"
				},
				{
					"indexed": false,
					"internalType": "uint256",
					"name": "deadline",
					"type": "uint256"
				}
			],
			"name": "RouterParams",
			"type": "event"
		},
		{
			"anonymous": false,
			"inputs": [
				{
					"indexed": false,
					"internalType": "string",
					"name": "message",
					"type": "string"
				},
				{
					"indexed": false,
					"internalType": "string",
					"name": "stored",
					"type": "string"
				},
				{
					"indexed": false,
					"internalType": "string",
					"name": "lookup",
					"type": "string"
				},
				{
					"indexed": false,
					"internalType": "bytes32",
					"name": "storedHash",
					"type": "bytes32"
				},
				{
					"indexed": false,
					"internalType": "bytes32",
					"name": "lookupHash",
					"type": "bytes32"
				}
			],
			"name": "StringCompare",
			"type": "event"
		},
		{
			"anonymous": false,
			"inputs": [
				{
					"indexed": false,
					"internalType": "string",
					"name": "message",
					"type": "string"
				},
				{
					"indexed": false,
					"internalType": "uint256",
					"name": "amountOut",
					"type": "uint256"
				},
				{
					"indexed": false,
					"internalType": "address",
					"name": "recipient",
					"type": "address"
				}
			],
			"name": "SwapResult",
			"type": "event"
		},
		{
			"anonymous": false,
			"inputs": [
				{
					"indexed": false,
					"internalType": "string",
					"name": "message",
					"type": "string"
				},
				{
					"indexed": false,
					"internalType": "string",
					"name": "hederaAccountId",
					"type": "string"
				},
				{
					"indexed": false,
					"internalType": "bool",
					"name": "exists",
					"type": "bool"
				},
				{
					"indexed": false,
					"internalType": "bool",
					"name": "isActive",
					"type": "bool"
				},
				{
					"indexed": false,
					"internalType": "uint256",
					"name": "stopLossAmount",
					"type": "uint256"
				},
				{
					"indexed": false,
					"internalType": "uint256",
					"name": "buyOrderAmount",
					"type": "uint256"
				}
			],
			"name": "ThresholdDebug",
			"type": "event"
		},
		{
			"anonymous": false,
			"inputs": [
				{
					"indexed": false,
					"internalType": "string",
					"name": "hederaAccountId",
					"type": "string"
				}
			],
			"name": "ThresholdsDeactivated",
			"type": "event"
		},
		{
			"anonymous": false,
			"inputs": [
				{
					"indexed": false,
					"internalType": "string",
					"name": "hederaAccountId",
					"type": "string"
				},
				{
					"indexed": false,
					"internalType": "uint256",
					"name": "stopLossThreshold",
					"type": "uint256"
				},
				{
					"indexed": false,
					"internalType": "uint256",
					"name": "buyOrderThreshold",
					"type": "uint256"
				},
				{
					"indexed": false,
					"internalType": "address",
					"name": "tokenAddress",
					"type": "address"
				},
				{
					"indexed": false,
					"internalType": "uint256",
					"name": "stopLossAmount",
					"type": "uint256"
				},
				{
					"indexed": false,
					"internalType": "uint256",
					"name": "buyOrderAmount",
					"type": "uint256"
				}
			],
			"name": "ThresholdsSet",
			"type": "event"
		},
		{
			"inputs": [
				{
					"internalType": "address",
					"name": "token",
					"type": "address"
				},
				{
					"internalType": "uint256",
					"name": "amount",
					"type": "uint256"
				}
			],
			"name": "approveRouter",
			"outputs": [],
			"stateMutability": "nonpayable",
			"type": "function"
		},
		{
			"inputs": [],
			"name": "currentPrice",
			"outputs": [
				{
					"internalType": "uint256",
					"name": "",
					"type": "uint256"
				}
			],
			"stateMutability": "view",
			"type": "function"
		},
		{
			"inputs": [
				{
					"internalType": "string",
					"name": "hederaAccountId",
					"type": "string"
				}
			],
			"name": "deactivateThresholds",
			"outputs": [],
			"stateMutability": "nonpayable",
			"type": "function"
		},
		{
			"inputs": [
				{
					"internalType": "string",
					"name": "hederaAccountId",
					"type": "string"
				},
				{
					"internalType": "string",
					"name": "orderType",
					"type": "string"
				},
				{
					"internalType": "bytes",
					"name": "path",
					"type": "bytes"
				}
			],
			"name": "executeTradeForUser",
			"outputs": [],
			"stateMutability": "payable",
			"type": "function"
		},
		{
			"inputs": [
				{
					"internalType": "string",
					"name": "hederaAccountId",
					"type": "string"
				}
			],
			"name": "getThreshold",
			"outputs": [
				{
					"internalType": "uint256",
					"name": "stopLossThreshold",
					"type": "uint256"
				},
				{
					"internalType": "uint256",
					"name": "buyOrderThreshold",
					"type": "uint256"
				},
				{
					"internalType": "string",
					"name": "storedHederaId",
					"type": "string"
				},
				{
					"internalType": "address",
					"name": "tokenAddress",
					"type": "address"
				},
				{
					"internalType": "uint256",
					"name": "stopLossAmount",
					"type": "uint256"
				},
				{
					"internalType": "uint256",
					"name": "buyOrderAmount",
					"type": "uint256"
				},
				{
					"internalType": "bool",
					"name": "isActive",
					"type": "bool"
				}
			],
			"stateMutability": "view",
			"type": "function"
		},
		{
			"inputs": [],
			"name": "owner",
			"outputs": [
				{
					"internalType": "address",
					"name": "",
					"type": "address"
				}
			],
			"stateMutability": "view",
			"type": "function"
		},
		{
			"inputs": [
				{
					"internalType": "uint256",
					"name": "_stopLossThreshold",
					"type": "uint256"
				},
				{
					"internalType": "uint256",
					"name": "_buyOrderThreshold",
					"type": "uint256"
				},
				{
					"internalType": "string",
					"name": "_hederaAccountId",
					"type": "string"
				},
				{
					"internalType": "address",
					"name": "_tokenAddress",
					"type": "address"
				},
				{
					"internalType": "uint256",
					"name": "_stopLossAmount",
					"type": "uint256"
				},
				{
					"internalType": "uint256",
					"name": "_buyOrderAmount",
					"type": "uint256"
				}
			],
			"name": "setThresholds",
			"outputs": [],
			"stateMutability": "nonpayable",
			"type": "function"
		},
		{
			"inputs": [
				{
					"internalType": "string",
					"name": "",
					"type": "string"
				}
			],
			"name": "userThresholds",
			"outputs": [
				{
					"internalType": "uint256",
					"name": "stopLossThreshold",
					"type": "uint256"
				},
				{
					"internalType": "uint256",
					"name": "buyOrderThreshold",
					"type": "uint256"
				},
				{
					"internalType": "string",
					"name": "hederaAccountId",
					"type": "string"
				},
				{
					"internalType": "address",
					"name": "tokenAddress",
					"type": "address"
				},
				{
					"internalType": "uint256",
					"name": "stopLossAmount",
					"type": "uint256"
				},
				{
					"internalType": "uint256",
					"name": "buyOrderAmount",
					"type": "uint256"
				},
				{
					"internalType": "bool",
					"name": "isActive",
					"type": "bool"
				}
			],
			"stateMutability": "view",
			"type": "function"
		}
	]
}