{
	"data": {
		"bytecode": {
			"linkReferences": {},
			"object": "608060405234801561000f575f80fd5b50604051612498380380612498833981810160405281019061003191906100d4565b805f806101000a81548173ffffffffffffffffffffffffffffffffffffffff021916908373ffffffffffffffffffffffffffffffffffffffff160217905550506100ff565b5f80fd5b5f73ffffffffffffffffffffffffffffffffffffffff82169050919050565b5f6100a38261007a565b9050919050565b6100b381610099565b81146100bd575f80fd5b50565b5f815190506100ce816100aa565b92915050565b5f602082840312156100e9576100e8610076565b5b5f6100f6848285016100c0565b91505092915050565b61238c8061010c5f395ff3fe608060405234801561000f575f80fd5b5060043610610060575f3560e01c8063552f9a8f146100645780638da5cb5b146100805780639286eddb1461009e5780639d1b464a146100d4578063b5fa3dbd146100f2578063d3c0eac31461010e575b5f80fd5b61007e60048036038101906100799190610dcd565b61012a565b005b610088610209565b6040516100959190610e53565b60405180910390f35b6100b860048036038101906100b39190610dcd565b61022c565b6040516100cb9796959493929190610efe565b60405180910390f35b6100dc610333565b6040516100e99190610f72565b60405180910390f35b61010c60048036038101906101079190610fdf565b610339565b005b61012860048036038101906101239190611122565b6106e4565b005b60028160405161013a9190611200565b90815260200160405180910390206006015f9054906101000a900460ff16610197576040517f08c379a000000000000000000000000000000000000000000000000000000000815260040161018e90611260565b60405180910390fd5b5f6002826040516101a89190611200565b90815260200160405180910390206006015f6101000a81548160ff0219169083151502179055507f81a7424122bfc6c777b03ba3e559003333e926b901ec6669fdecf699d354f809816040516101fe919061127e565b60405180910390a150565b5f8054906101000a900473ffffffffffffffffffffffffffffffffffffffff1681565b6002818051602081018201805184825260208301602085012081835280955050505050505f91509050805f01549080600101549080600201805461026f906112cb565b80601f016020809104026020016040519081016040528092919081815260200182805461029b906112cb565b80156102e65780601f106102bd576101008083540402835291602001916102e6565b820191905f5260205f20905b8154815290600101906020018083116102c957829003601f168201915b505050505090806003015f9054906101000a900473ffffffffffffffffffffffffffffffffffffffff1690806004015490806005015490806006015f9054906101000a900460ff16905087565b60015481565b5f8611801561034a57506127108611155b610389576040517f08c379a00000000000000000000000000000000000000000000000000000000081526004016103809061136b565b60405180910390fd5b5f8511801561039a57506127108511155b6103d9576040517f08c379a00000000000000000000000000000000000000000000000000000000081526004016103d0906113f9565b60405180910390fd5b5f821161041b576040517f08c379a000000000000000000000000000000000000000000000000000000000815260040161041290611487565b60405180910390fd5b5f811161045d576040517f08c379a000000000000000000000000000000000000000000000000000000000815260040161045490611515565b60405180910390fd5b5f73ffffffffffffffffffffffffffffffffffffffff168373ffffffffffffffffffffffffffffffffffffffff16036104cb576040517f08c379a00000000000000000000000000000000000000000000000000000000081526004016104c29061157d565b60405180910390fd5b5f84511161050e576040517f08c379a00000000000000000000000000000000000000000000000000000000081526004016105059061160b565b60405180910390fd5b7f37e3403f90577c37d7124f91e9054e6918be9f2edbb8ec93108345299cae6069845f808585604051610545959493929190611673565b60405180910390a16040518060e001604052808781526020018681526020018581526020018473ffffffffffffffffffffffffffffffffffffffff168152602001838152602001828152602001600115158152506002856040516105a99190611200565b90815260200160405180910390205f820151815f01556020820151816001015560408201518160020190816105de919061187b565b506060820151816003015f6101000a81548173ffffffffffffffffffffffffffffffffffffffff021916908373ffffffffffffffffffffffffffffffffffffffff1602179055506080820151816004015560a0820151816005015560c0820151816006015f6101000a81548160ff0219169083151502179055509050507f37e3403f90577c37d7124f91e9054e6918be9f2edbb8ec93108345299cae6069846001808585604051610693959493929190611994565b60405180910390a17f04c4d68f06f8fe65a81365ebaaa0c26d6e3ea13e596bbc240a84e411b2582c128487878686866040516106d4969594939291906119ff565b60405180910390a1505050505050565b7f8c456aedf4877dc6046f0d3a800fa904853f4b7d92742fa60455f70d85b871e9835f845f8560405161071b959493929190611b3a565b60405180910390a17f6f073b33260541cda6fd369ef634f431c9386b4af2fb098a771a7054a097f3e16002846040516107549190611200565b9081526020016040518091039020600201846002866040516107769190611200565b90815260200160405180910390206002016040516107949190611c4f565b604051809103902086805190602001206040516107b49493929190611d48565b60405180910390a15f6002846040516107cd9190611200565b90815260200160405180910390206040518060e00160405290815f820154815260200160018201548152602001600282018054610809906112cb565b80601f0160208091040260200160405190810160405280929190818152602001828054610835906112cb565b80156108805780601f1061085757610100808354040283529160200191610880565b820191905f5260205f20905b81548152906001019060200180831161086357829003601f168201915b50505050508152602001600382015f9054906101000a900473ffffffffffffffffffffffffffffffffffffffff1673ffffffffffffffffffffffffffffffffffffffff1673ffffffffffffffffffffffffffffffffffffffff1681526020016004820154815260200160058201548152602001600682015f9054906101000a900460ff16151515158152505090507f37e3403f90577c37d7124f91e9054e6918be9f2edbb8ec93108345299cae6069845f8360800151118061094557505f8360a00151115b8360c0015184608001518560a00151604051610965959493929190611df6565b60405180910390a17f8c456aedf4877dc6046f0d3a800fa904853f4b7d92742fa60455f70d85b871e9848260c00151858460800151866040516109ac959493929190611e61565b60405180910390a15f6040516020016109c490611f24565b60405160208183030381529060405280519060200120846040516020016109eb9190611200565b6040516020818303038152906040528051906020012003610a125781608001519050610a6c565b604051602001610a2190611f82565b6040516020818303038152906040528051906020012084604051602001610a489190611200565b6040516020818303038152906040528051906020012003610a6b578160a0015190505b5b7f8c456aedf4877dc6046f0d3a800fa904853f4b7d92742fa60455f70d85b871e9858360c00151868487604051610aa7959493929190611fe0565b60405180910390a18160c00151610af3576040517f08c379a0000000000000000000000000000000000000000000000000000000008152600401610aea906120a3565b60405180910390fd5b5f623c437a90505f6040518060a0016040528086815260200188805190602001205f1c73ffffffffffffffffffffffffffffffffffffffff16815260200161038442610b3f91906120ee565b8152602001848152602001610b56856103e3610c5e565b81525090505f8273ffffffffffffffffffffffffffffffffffffffff1663c04b8d59836040518263ffffffff1660e01b8152600401610b9591906121fa565b6020604051808303815f875af1158015610bb1573d5f803e3d5ffd5b505050506040513d601f19601f82011682018060405250810190610bd5919061222e565b90505f600289604051610be89190611200565b90815260200160405180910390206006015f6101000a81548160ff0219169083151502179055507fc4f057e87b29411545a6f83503e316fda0dc00c7cd6bccefedb5e808cb0473a28888600154886060015185604051610c4c959493929190612259565b60405180910390a15050505050505050565b5f6103e88284610c6e91906122b8565b610c789190612326565b905092915050565b5f604051905090565b5f80fd5b5f80fd5b5f80fd5b5f80fd5b5f601f19601f8301169050919050565b7f4e487b71000000000000000000000000000000000000000000000000000000005f52604160045260245ffd5b610cdf82610c99565b810181811067ffffffffffffffff82111715610cfe57610cfd610ca9565b5b80604052505050565b5f610d10610c80565b9050610d1c8282610cd6565b919050565b5f67ffffffffffffffff821115610d3b57610d3a610ca9565b5b610d4482610c99565b9050602081019050919050565b828183375f83830152505050565b5f610d71610d6c84610d21565b610d07565b905082815260208101848484011115610d8d57610d8c610c95565b5b610d98848285610d51565b509392505050565b5f82601f830112610db457610db3610c91565b5b8135610dc4848260208601610d5f565b91505092915050565b5f60208284031215610de257610de1610c89565b5b5f82013567ffffffffffffffff811115610dff57610dfe610c8d565b5b610e0b84828501610da0565b91505092915050565b5f73ffffffffffffffffffffffffffffffffffffffff82169050919050565b5f610e3d82610e14565b9050919050565b610e4d81610e33565b82525050565b5f602082019050610e665f830184610e44565b92915050565b5f819050919050565b610e7e81610e6c565b82525050565b5f81519050919050565b5f82825260208201905092915050565b8281835e5f83830152505050565b5f610eb682610e84565b610ec08185610e8e565b9350610ed0818560208601610e9e565b610ed981610c99565b840191505092915050565b5f8115159050919050565b610ef881610ee4565b82525050565b5f60e082019050610f115f83018a610e75565b610f1e6020830189610e75565b8181036040830152610f308188610eac565b9050610f3f6060830187610e44565b610f4c6080830186610e75565b610f5960a0830185610e75565b610f6660c0830184610eef565b98975050505050505050565b5f602082019050610f855f830184610e75565b92915050565b610f9481610e6c565b8114610f9e575f80fd5b50565b5f81359050610faf81610f8b565b92915050565b610fbe81610e33565b8114610fc8575f80fd5b50565b5f81359050610fd981610fb5565b92915050565b5f805f805f8060c08789031215610ff957610ff8610c89565b5b5f61100689828a01610fa1565b965050602061101789828a01610fa1565b955050604087013567ffffffffffffffff81111561103857611037610c8d565b5b61104489828a01610da0565b945050606061105589828a01610fcb565b935050608061106689828a01610fa1565b92505060a061107789828a01610fa1565b9150509295509295509295565b5f67ffffffffffffffff82111561109e5761109d610ca9565b5b6110a782610c99565b9050602081019050919050565b5f6110c66110c184611084565b610d07565b9050828152602081018484840111156110e2576110e1610c95565b5b6110ed848285610d51565b509392505050565b5f82601f83011261110957611108610c91565b5b81356111198482602086016110b4565b91505092915050565b5f805f6060848603121561113957611138610c89565b5b5f84013567ffffffffffffffff81111561115657611155610c8d565b5b61116286828701610da0565b935050602084013567ffffffffffffffff81111561118357611182610c8d565b5b61118f86828701610da0565b925050604084013567ffffffffffffffff8111156111b0576111af610c8d565b5b6111bc868287016110f5565b9150509250925092565b5f81905092915050565b5f6111da82610e84565b6111e481856111c6565b93506111f4818560208601610e9e565b80840191505092915050565b5f61120b82846111d0565b915081905092915050565b7f4e6f20616374697665207468726573686f6c647320666f756e640000000000005f82015250565b5f61124a601a83610e8e565b915061125582611216565b602082019050919050565b5f6020820190508181035f8301526112778161123e565b9050919050565b5f6020820190508181035f8301526112968184610eac565b905092915050565b7f4e487b71000000000000000000000000000000000000000000000000000000005f52602260045260245ffd5b5f60028204905060018216806112e257607f821691505b6020821081036112f5576112f461129e565b5b50919050565b7f53746f70206c6f7373207468726573686f6c64206d75737420626520626574775f8201527f65656e203120616e6420313030303020626173697320706f696e747300000000602082015250565b5f611355603c83610e8e565b9150611360826112fb565b604082019050919050565b5f6020820190508181035f83015261138281611349565b9050919050565b7f427579206f72646572207468726573686f6c64206d75737420626520626574775f8201527f65656e203120616e6420313030303020626173697320706f696e747300000000602082015250565b5f6113e3603c83610e8e565b91506113ee82611389565b604082019050919050565b5f6020820190508181035f830152611410816113d7565b9050919050565b7f53746f70206c6f737320616d6f756e74206d75737420626520677265617465725f8201527f207468616e207a65726f00000000000000000000000000000000000000000000602082015250565b5f611471602a83610e8e565b915061147c82611417565b604082019050919050565b5f6020820190508181035f83015261149e81611465565b9050919050565b7f427579206f7264657220616d6f756e74206d75737420626520677265617465725f8201527f207468616e207a65726f00000000000000000000000000000000000000000000602082015250565b5f6114ff602a83610e8e565b915061150a826114a5565b604082019050919050565b5f6020820190508181035f83015261152c816114f3565b9050919050565b7f546f6b656e2061646472657373206d7573742062652076616c696400000000005f82015250565b5f611567601b83610e8e565b915061157282611533565b602082019050919050565b5f6020820190508181035f8301526115948161155b565b9050919050565b7f486564657261206163636f756e74204944206d757374206e6f7420626520656d5f8201527f7074790000000000000000000000000000000000000000000000000000000000602082015250565b5f6115f5602383610e8e565b91506116008261159b565b604082019050919050565b5f6020820190508181035f830152611622816115e9565b9050919050565b7f4265666f72652073657474696e67207468726573686f6c6400000000000000005f82015250565b5f61165d601883610e8e565b915061166882611629565b602082019050919050565b5f60c0820190508181035f83015261168a81611651565b9050818103602083015261169e8188610eac565b90506116ad6040830187610eef565b6116ba6060830186610eef565b6116c76080830185610e75565b6116d460a0830184610e75565b9695505050505050565b5f819050815f5260205f209050919050565b5f6020601f8301049050919050565b5f82821b905092915050565b5f6008830261173a7fffffffffffffffffffffffffffffffffffffffffffffffffffffffffffffffff826116ff565b61174486836116ff565b95508019841693508086168417925050509392505050565b5f819050919050565b5f61177f61177a61177584610e6c565b61175c565b610e6c565b9050919050565b5f819050919050565b61179883611765565b6117ac6117a482611786565b84845461170b565b825550505050565b5f90565b6117c06117b4565b6117cb81848461178f565b505050565b5b818110156117ee576117e35f826117b8565b6001810190506117d1565b5050565b601f82111561183357611804816116de565b61180d846116f0565b8101602085101561181c578190505b611830611828856116f0565b8301826117d0565b50505b505050565b5f82821c905092915050565b5f6118535f1984600802611838565b1980831691505092915050565b5f61186b8383611844565b9150826002028217905092915050565b61188482610e84565b67ffffffffffffffff81111561189d5761189c610ca9565b5b6118a782546112cb565b6118b28282856117f2565b5f60209050601f8311600181146118e3575f84156118d1578287015190505b6118db8582611860565b865550611942565b601f1984166118f1866116de565b5f5b82811015611918578489015182556001820191506020850194506020810190506118f3565b868310156119355784890151611931601f891682611844565b8355505b6001600288020188555050505b505050505050565b7f41667465722073657474696e67207468726573686f6c640000000000000000005f82015250565b5f61197e601783610e8e565b91506119898261194a565b602082019050919050565b5f60c0820190508181035f8301526119ab81611972565b905081810360208301526119bf8188610eac565b90506119ce6040830187610eef565b6119db6060830186610eef565b6119e86080830185610e75565b6119f560a0830184610e75565b9695505050505050565b5f60c0820190508181035f830152611a178189610eac565b9050611a266020830188610e75565b611a336040830187610e75565b611a406060830186610e44565b611a4d6080830185610e75565b611a5a60a0830184610e75565b979650505050505050565b7f4265666f7265206c6f6f6b7570000000000000000000000000000000000000005f82015250565b5f611a99600d83610e8e565b9150611aa482611a65565b602082019050919050565b5f819050919050565b5f611ad2611acd611ac884611aaf565b61175c565b610e6c565b9050919050565b611ae281611ab8565b82525050565b5f81519050919050565b5f82825260208201905092915050565b5f611b0c82611ae8565b611b168185611af2565b9350611b26818560208601610e9e565b611b2f81610c99565b840191505092915050565b5f60c0820190508181035f830152611b5181611a8d565b90508181036020830152611b658188610eac565b9050611b746040830187610eef565b8181036060830152611b868186610eac565b9050611b956080830185611ad9565b81810360a0830152611ba78184611b02565b90509695505050505050565b5f81905092915050565b5f819050815f5260205f209050919050565b5f8154611bdb816112cb565b611be58186611bb3565b9450600182165f8114611bff5760018114611c1457611c46565b60ff1983168652811515820286019350611c46565b611c1d85611bbd565b5f5b83811015611c3e57815481890152600182019150602081019050611c1f565b838801955050505b50505092915050565b5f611c5a8284611bcf565b915081905092915050565b7f436f6d706172696e6720494473000000000000000000000000000000000000005f82015250565b5f611c99600d83610e8e565b9150611ca482611c65565b602082019050919050565b5f8154611cbb816112cb565b611cc58186610e8e565b9450600182165f8114611cdf5760018114611cf557611d27565b60ff198316865281151560200286019350611d27565b611cfe856116de565b5f5b83811015611d1f57815481890152600182019150602081019050611d00565b808801955050505b50505092915050565b5f819050919050565b611d4281611d30565b82525050565b5f60a0820190508181035f830152611d5f81611c8d565b90508181036020830152611d738187611caf565b90508181036040830152611d878186610eac565b9050611d966060830185611d39565b611da36080830184611d39565b95945050505050565b7f4166746572206c6f6f6b757000000000000000000000000000000000000000005f82015250565b5f611de0600c83610e8e565b9150611deb82611dac565b602082019050919050565b5f60c0820190508181035f830152611e0d81611dd4565b90508181036020830152611e218188610eac565b9050611e306040830187610eef565b611e3d6060830186610eef565b611e4a6080830185610e75565b611e5760a0830184610e75565b9695505050505050565b5f60c0820190508181035f830152611e7881611dd4565b90508181036020830152611e8c8188610eac565b9050611e9b6040830187610eef565b8181036060830152611ead8186610eac565b9050611ebc6080830185610e75565b81810360a0830152611ece8184611b02565b90509695505050505050565b7f73746f704c6f73730000000000000000000000000000000000000000000000005f82015250565b5f611f0e6008836111c6565b9150611f1982611eda565b600882019050919050565b5f611f2e82611f02565b9150819050919050565b7f6275794f726465720000000000000000000000000000000000000000000000005f82015250565b5f611f6c6008836111c6565b9150611f7782611f38565b600882019050919050565b5f611f8c82611f60565b9150819050919050565b7f4265666f72652061637469766520636865636b000000000000000000000000005f82015250565b5f611fca601383610e8e565b9150611fd582611f96565b602082019050919050565b5f60c0820190508181035f830152611ff781611fbe565b9050818103602083015261200b8188610eac565b905061201a6040830187610eef565b818103606083015261202c8186610eac565b905061203b6080830185610e75565b81810360a083015261204d8184611b02565b90509695505050505050565b7f55736572207468726573686f6c647320617265206e6f742061637469766500005f82015250565b5f61208d601e83610e8e565b915061209882612059565b602082019050919050565b5f6020820190508181035f8301526120ba81612081565b9050919050565b7f4e487b71000000000000000000000000000000000000000000000000000000005f52601160045260245ffd5b5f6120f882610e6c565b915061210383610e6c565b925082820190508082111561211b5761211a6120c1565b5b92915050565b5f82825260208201905092915050565b5f61213b82611ae8565b6121458185612121565b9350612155818560208601610e9e565b61215e81610c99565b840191505092915050565b61217281610e33565b82525050565b61218181610e6c565b82525050565b5f60a083015f8301518482035f8601526121a18282612131565b91505060208301516121b66020860182612169565b5060408301516121c96040860182612178565b5060608301516121dc6060860182612178565b5060808301516121ef6080860182612178565b508091505092915050565b5f6020820190508181035f8301526122128184612187565b905092915050565b5f8151905061222881610f8b565b92915050565b5f6020828403121561224357612242610c89565b5b5f6122508482850161221a565b91505092915050565b5f60a0820190508181035f8301526122718188610eac565b905081810360208301526122858187610eac565b90506122946040830186610e75565b6122a16060830185610e44565b6122ae6080830184610e75565b9695505050505050565b5f6122c282610e6c565b91506122cd83610e6c565b92508282026122db81610e6c565b915082820484148315176122f2576122f16120c1565b5b5092915050565b7f4e487b71000000000000000000000000000000000000000000000000000000005f52601260045260245ffd5b5f61233082610e6c565b915061233b83610e6c565b92508261234b5761234a6122f9565b5b82820490509291505056fea2646970667358221220a41e341ad1f15447f28060261ba8eb0d2cebc930dfe65d31125f3e5ab089ff1b64736f6c634300081a0033",
			"opcodes": "PUSH1 0x80 PUSH1 0x40 MSTORE CALLVALUE DUP1 ISZERO PUSH2 0xF JUMPI PUSH0 DUP1 REVERT JUMPDEST POP PUSH1 0x40 MLOAD PUSH2 0x2498 CODESIZE SUB DUP1 PUSH2 0x2498 DUP4 CODECOPY DUP2 DUP2 ADD PUSH1 0x40 MSTORE DUP2 ADD SWAP1 PUSH2 0x31 SWAP2 SWAP1 PUSH2 0xD4 JUMP JUMPDEST DUP1 PUSH0 DUP1 PUSH2 0x100 EXP DUP2 SLOAD DUP2 PUSH20 0xFFFFFFFFFFFFFFFFFFFFFFFFFFFFFFFFFFFFFFFF MUL NOT AND SWAP1 DUP4 PUSH20 0xFFFFFFFFFFFFFFFFFFFFFFFFFFFFFFFFFFFFFFFF AND MUL OR SWAP1 SSTORE POP POP PUSH2 0xFF JUMP JUMPDEST PUSH0 DUP1 REVERT JUMPDEST PUSH0 PUSH20 0xFFFFFFFFFFFFFFFFFFFFFFFFFFFFFFFFFFFFFFFF DUP3 AND SWAP1 POP SWAP2 SWAP1 POP JUMP JUMPDEST PUSH0 PUSH2 0xA3 DUP3 PUSH2 0x7A JUMP JUMPDEST SWAP1 POP SWAP2 SWAP1 POP JUMP JUMPDEST PUSH2 0xB3 DUP2 PUSH2 0x99 JUMP JUMPDEST DUP2 EQ PUSH2 0xBD JUMPI PUSH0 DUP1 REVERT JUMPDEST POP JUMP JUMPDEST PUSH0 DUP2 MLOAD SWAP1 POP PUSH2 0xCE DUP2 PUSH2 0xAA JUMP JUMPDEST SWAP3 SWAP2 POP POP JUMP JUMPDEST PUSH0 PUSH1 0x20 DUP3 DUP5 SUB SLT ISZERO PUSH2 0xE9 JUMPI PUSH2 0xE8 PUSH2 0x76 JUMP JUMPDEST JUMPDEST PUSH0 PUSH2 0xF6 DUP5 DUP3 DUP6 ADD PUSH2 0xC0 JUMP JUMPDEST SWAP2 POP POP SWAP3 SWAP2 POP POP JUMP JUMPDEST PUSH2 0x238C DUP1 PUSH2 0x10C PUSH0 CODECOPY PUSH0 RETURN INVALID PUSH1 0x80 PUSH1 0x40 MSTORE CALLVALUE DUP1 ISZERO PUSH2 0xF JUMPI PUSH0 DUP1 REVERT JUMPDEST POP PUSH1 0x4 CALLDATASIZE LT PUSH2 0x60 JUMPI PUSH0 CALLDATALOAD PUSH1 0xE0 SHR DUP1 PUSH4 0x552F9A8F EQ PUSH2 0x64 JUMPI DUP1 PUSH4 0x8DA5CB5B EQ PUSH2 0x80 JUMPI DUP1 PUSH4 0x9286EDDB EQ PUSH2 0x9E JUMPI DUP1 PUSH4 0x9D1B464A EQ PUSH2 0xD4 JUMPI DUP1 PUSH4 0xB5FA3DBD EQ PUSH2 0xF2 JUMPI DUP1 PUSH4 0xD3C0EAC3 EQ PUSH2 0x10E JUMPI JUMPDEST PUSH0 DUP1 REVERT JUMPDEST PUSH2 0x7E PUSH1 0x4 DUP1 CALLDATASIZE SUB DUP2 ADD SWAP1 PUSH2 0x79 SWAP2 SWAP1 PUSH2 0xDCD JUMP JUMPDEST PUSH2 0x12A JUMP JUMPDEST STOP JUMPDEST PUSH2 0x88 PUSH2 0x209 JUMP JUMPDEST PUSH1 0x40 MLOAD PUSH2 0x95 SWAP2 SWAP1 PUSH2 0xE53 JUMP JUMPDEST PUSH1 0x40 MLOAD DUP1 SWAP2 SUB SWAP1 RETURN JUMPDEST PUSH2 0xB8 PUSH1 0x4 DUP1 CALLDATASIZE SUB DUP2 ADD SWAP1 PUSH2 0xB3 SWAP2 SWAP1 PUSH2 0xDCD JUMP JUMPDEST PUSH2 0x22C JUMP JUMPDEST PUSH1 0x40 MLOAD PUSH2 0xCB SWAP8 SWAP7 SWAP6 SWAP5 SWAP4 SWAP3 SWAP2 SWAP1 PUSH2 0xEFE JUMP JUMPDEST PUSH1 0x40 MLOAD DUP1 SWAP2 SUB SWAP1 RETURN JUMPDEST PUSH2 0xDC PUSH2 0x333 JUMP JUMPDEST PUSH1 0x40 MLOAD PUSH2 0xE9 SWAP2 SWAP1 PUSH2 0xF72 JUMP JUMPDEST PUSH1 0x40 MLOAD DUP1 SWAP2 SUB SWAP1 RETURN JUMPDEST PUSH2 0x10C PUSH1 0x4 DUP1 CALLDATASIZE SUB DUP2 ADD SWAP1 PUSH2 0x107 SWAP2 SWAP1 PUSH2 0xFDF JUMP JUMPDEST PUSH2 0x339 JUMP JUMPDEST STOP JUMPDEST PUSH2 0x128 PUSH1 0x4 DUP1 CALLDATASIZE SUB DUP2 ADD SWAP1 PUSH2 0x123 SWAP2 SWAP1 PUSH2 0x1122 JUMP JUMPDEST PUSH2 0x6E4 JUMP JUMPDEST STOP JUMPDEST PUSH1 0x2 DUP2 PUSH1 0x40 MLOAD PUSH2 0x13A SWAP2 SWAP1 PUSH2 0x1200 JUMP JUMPDEST SWAP1 DUP2 MSTORE PUSH1 0x20 ADD PUSH1 0x40 MLOAD DUP1 SWAP2 SUB SWAP1 KECCAK256 PUSH1 0x6 ADD PUSH0 SWAP1 SLOAD SWAP1 PUSH2 0x100 EXP SWAP1 DIV PUSH1 0xFF AND PUSH2 0x197 JUMPI PUSH1 0x40 MLOAD PUSH32 0x8C379A000000000000000000000000000000000000000000000000000000000 DUP2 MSTORE PUSH1 0x4 ADD PUSH2 0x18E SWAP1 PUSH2 0x1260 JUMP JUMPDEST PUSH1 0x40 MLOAD DUP1 SWAP2 SUB SWAP1 REVERT JUMPDEST PUSH0 PUSH1 0x2 DUP3 PUSH1 0x40 MLOAD PUSH2 0x1A8 SWAP2 SWAP1 PUSH2 0x1200 JUMP JUMPDEST SWAP1 DUP2 MSTORE PUSH1 0x20 ADD PUSH1 0x40 MLOAD DUP1 SWAP2 SUB SWAP1 KECCAK256 PUSH1 0x6 ADD PUSH0 PUSH2 0x100 EXP DUP2 SLOAD DUP2 PUSH1 0xFF MUL NOT AND SWAP1 DUP4 ISZERO ISZERO MUL OR SWAP1 SSTORE POP PUSH32 0x81A7424122BFC6C777B03BA3E559003333E926B901EC6669FDECF699D354F809 DUP2 PUSH1 0x40 MLOAD PUSH2 0x1FE SWAP2 SWAP1 PUSH2 0x127E JUMP JUMPDEST PUSH1 0x40 MLOAD DUP1 SWAP2 SUB SWAP1 LOG1 POP JUMP JUMPDEST PUSH0 DUP1 SLOAD SWAP1 PUSH2 0x100 EXP SWAP1 DIV PUSH20 0xFFFFFFFFFFFFFFFFFFFFFFFFFFFFFFFFFFFFFFFF AND DUP2 JUMP JUMPDEST PUSH1 0x2 DUP2 DUP1 MLOAD PUSH1 0x20 DUP2 ADD DUP3 ADD DUP1 MLOAD DUP5 DUP3 MSTORE PUSH1 0x20 DUP4 ADD PUSH1 0x20 DUP6 ADD KECCAK256 DUP2 DUP4 MSTORE DUP1 SWAP6 POP POP POP POP POP POP PUSH0 SWAP2 POP SWAP1 POP DUP1 PUSH0 ADD SLOAD SWAP1 DUP1 PUSH1 0x1 ADD SLOAD SWAP1 DUP1 PUSH1 0x2 ADD DUP1 SLOAD PUSH2 0x26F SWAP1 PUSH2 0x12CB JUMP JUMPDEST DUP1 PUSH1 0x1F ADD PUSH1 0x20 DUP1 SWAP2 DIV MUL PUSH1 0x20 ADD PUSH1 0x40 MLOAD SWAP1 DUP2 ADD PUSH1 0x40 MSTORE DUP1 SWAP3 SWAP2 SWAP1 DUP2 DUP2 MSTORE PUSH1 0x20 ADD DUP3 DUP1 SLOAD PUSH2 0x29B SWAP1 PUSH2 0x12CB JUMP JUMPDEST DUP1 ISZERO PUSH2 0x2E6 JUMPI DUP1 PUSH1 0x1F LT PUSH2 0x2BD JUMPI PUSH2 0x100 DUP1 DUP4 SLOAD DIV MUL DUP4 MSTORE SWAP2 PUSH1 0x20 ADD SWAP2 PUSH2 0x2E6 JUMP JUMPDEST DUP3 ADD SWAP2 SWAP1 PUSH0 MSTORE PUSH1 0x20 PUSH0 KECCAK256 SWAP1 JUMPDEST DUP2 SLOAD DUP2 MSTORE SWAP1 PUSH1 0x1 ADD SWAP1 PUSH1 0x20 ADD DUP1 DUP4 GT PUSH2 0x2C9 JUMPI DUP3 SWAP1 SUB PUSH1 0x1F AND DUP3 ADD SWAP2 JUMPDEST POP POP POP POP POP SWAP1 DUP1 PUSH1 0x3 ADD PUSH0 SWAP1 SLOAD SWAP1 PUSH2 0x100 EXP SWAP1 DIV PUSH20 0xFFFFFFFFFFFFFFFFFFFFFFFFFFFFFFFFFFFFFFFF AND SWAP1 DUP1 PUSH1 0x4 ADD SLOAD SWAP1 DUP1 PUSH1 0x5 ADD SLOAD SWAP1 DUP1 PUSH1 0x6 ADD PUSH0 SWAP1 SLOAD SWAP1 PUSH2 0x100 EXP SWAP1 DIV PUSH1 0xFF AND SWAP1 POP DUP8 JUMP JUMPDEST PUSH1 0x1 SLOAD DUP2 JUMP JUMPDEST PUSH0 DUP7 GT DUP1 ISZERO PUSH2 0x34A JUMPI POP PUSH2 0x2710 DUP7 GT ISZERO JUMPDEST PUSH2 0x389 JUMPI PUSH1 0x40 MLOAD PUSH32 0x8C379A000000000000000000000000000000000000000000000000000000000 DUP2 MSTORE PUSH1 0x4 ADD PUSH2 0x380 SWAP1 PUSH2 0x136B JUMP JUMPDEST PUSH1 0x40 MLOAD DUP1 SWAP2 SUB SWAP1 REVERT JUMPDEST PUSH0 DUP6 GT DUP1 ISZERO PUSH2 0x39A JUMPI POP PUSH2 0x2710 DUP6 GT ISZERO JUMPDEST PUSH2 0x3D9 JUMPI PUSH1 0x40 MLOAD PUSH32 0x8C379A000000000000000000000000000000000000000000000000000000000 DUP2 MSTORE PUSH1 0x4 ADD PUSH2 0x3D0 SWAP1 PUSH2 0x13F9 JUMP JUMPDEST PUSH1 0x40 MLOAD DUP1 SWAP2 SUB SWAP1 REVERT JUMPDEST PUSH0 DUP3 GT PUSH2 0x41B JUMPI PUSH1 0x40 MLOAD PUSH32 0x8C379A000000000000000000000000000000000000000000000000000000000 DUP2 MSTORE PUSH1 0x4 ADD PUSH2 0x412 SWAP1 PUSH2 0x1487 JUMP JUMPDEST PUSH1 0x40 MLOAD DUP1 SWAP2 SUB SWAP1 REVERT JUMPDEST PUSH0 DUP2 GT PUSH2 0x45D JUMPI PUSH1 0x40 MLOAD PUSH32 0x8C379A000000000000000000000000000000000000000000000000000000000 DUP2 MSTORE PUSH1 0x4 ADD PUSH2 0x454 SWAP1 PUSH2 0x1515 JUMP JUMPDEST PUSH1 0x40 MLOAD DUP1 SWAP2 SUB SWAP1 REVERT JUMPDEST PUSH0 PUSH20 0xFFFFFFFFFFFFFFFFFFFFFFFFFFFFFFFFFFFFFFFF AND DUP4 PUSH20 0xFFFFFFFFFFFFFFFFFFFFFFFFFFFFFFFFFFFFFFFF AND SUB PUSH2 0x4CB JUMPI PUSH1 0x40 MLOAD PUSH32 0x8C379A000000000000000000000000000000000000000000000000000000000 DUP2 MSTORE PUSH1 0x4 ADD PUSH2 0x4C2 SWAP1 PUSH2 0x157D JUMP JUMPDEST PUSH1 0x40 MLOAD DUP1 SWAP2 SUB SWAP1 REVERT JUMPDEST PUSH0 DUP5 MLOAD GT PUSH2 0x50E JUMPI PUSH1 0x40 MLOAD PUSH32 0x8C379A000000000000000000000000000000000000000000000000000000000 DUP2 MSTORE PUSH1 0x4 ADD PUSH2 0x505 SWAP1 PUSH2 0x160B JUMP JUMPDEST PUSH1 0x40 MLOAD DUP1 SWAP2 SUB SWAP1 REVERT JUMPDEST PUSH32 0x37E3403F90577C37D7124F91E9054E6918BE9F2EDBB8EC93108345299CAE6069 DUP5 PUSH0 DUP1 DUP6 DUP6 PUSH1 0x40 MLOAD PUSH2 0x545 SWAP6 SWAP5 SWAP4 SWAP3 SWAP2 SWAP1 PUSH2 0x1673 JUMP JUMPDEST PUSH1 0x40 MLOAD DUP1 SWAP2 SUB SWAP1 LOG1 PUSH1 0x40 MLOAD DUP1 PUSH1 0xE0 ADD PUSH1 0x40 MSTORE DUP1 DUP8 DUP2 MSTORE PUSH1 0x20 ADD DUP7 DUP2 MSTORE PUSH1 0x20 ADD DUP6 DUP2 MSTORE PUSH1 0x20 ADD DUP5 PUSH20 0xFFFFFFFFFFFFFFFFFFFFFFFFFFFFFFFFFFFFFFFF AND DUP2 MSTORE PUSH1 0x20 ADD DUP4 DUP2 MSTORE PUSH1 0x20 ADD DUP3 DUP2 MSTORE PUSH1 0x20 ADD PUSH1 0x1 ISZERO ISZERO DUP2 MSTORE POP PUSH1 0x2 DUP6 PUSH1 0x40 MLOAD PUSH2 0x5A9 SWAP2 SWAP1 PUSH2 0x1200 JUMP JUMPDEST SWAP1 DUP2 MSTORE PUSH1 0x20 ADD PUSH1 0x40 MLOAD DUP1 SWAP2 SUB SWAP1 KECCAK256 PUSH0 DUP3 ADD MLOAD DUP2 PUSH0 ADD SSTORE PUSH1 0x20 DUP3 ADD MLOAD DUP2 PUSH1 0x1 ADD SSTORE PUSH1 0x40 DUP3 ADD MLOAD DUP2 PUSH1 0x2 ADD SWAP1 DUP2 PUSH2 0x5DE SWAP2 SWAP1 PUSH2 0x187B JUMP JUMPDEST POP PUSH1 0x60 DUP3 ADD MLOAD DUP2 PUSH1 0x3 ADD PUSH0 PUSH2 0x100 EXP DUP2 SLOAD DUP2 PUSH20 0xFFFFFFFFFFFFFFFFFFFFFFFFFFFFFFFFFFFFFFFF MUL NOT AND SWAP1 DUP4 PUSH20 0xFFFFFFFFFFFFFFFFFFFFFFFFFFFFFFFFFFFFFFFF AND MUL OR SWAP1 SSTORE POP PUSH1 0x80 DUP3 ADD MLOAD DUP2 PUSH1 0x4 ADD SSTORE PUSH1 0xA0 DUP3 ADD MLOAD DUP2 PUSH1 0x5 ADD SSTORE PUSH1 0xC0 DUP3 ADD MLOAD DUP2 PUSH1 0x6 ADD PUSH0 PUSH2 0x100 EXP DUP2 SLOAD DUP2 PUSH1 0xFF MUL NOT AND SWAP1 DUP4 ISZERO ISZERO MUL OR SWAP1 SSTORE POP SWAP1 POP POP PUSH32 0x37E3403F90577C37D7124F91E9054E6918BE9F2EDBB8EC93108345299CAE6069 DUP5 PUSH1 0x1 DUP1 DUP6 DUP6 PUSH1 0x40 MLOAD PUSH2 0x693 SWAP6 SWAP5 SWAP4 SWAP3 SWAP2 SWAP1 PUSH2 0x1994 JUMP JUMPDEST PUSH1 0x40 MLOAD DUP1 SWAP2 SUB SWAP1 LOG1 PUSH32 0x4C4D68F06F8FE65A81365EBAAA0C26D6E3EA13E596BBC240A84E411B2582C12 DUP5 DUP8 DUP8 DUP7 DUP7 DUP7 PUSH1 0x40 MLOAD PUSH2 0x6D4 SWAP7 SWAP6 SWAP5 SWAP4 SWAP3 SWAP2 SWAP1 PUSH2 0x19FF JUMP JUMPDEST PUSH1 0x40 MLOAD DUP1 SWAP2 SUB SWAP1 LOG1 POP POP POP POP POP POP JUMP JUMPDEST PUSH32 0x8C456AEDF4877DC6046F0D3A800FA904853F4B7D92742FA60455F70D85B871E9 DUP4 PUSH0 DUP5 PUSH0 DUP6 PUSH1 0x40 MLOAD PUSH2 0x71B SWAP6 SWAP5 SWAP4 SWAP3 SWAP2 SWAP1 PUSH2 0x1B3A JUMP JUMPDEST PUSH1 0x40 MLOAD DUP1 SWAP2 SUB SWAP1 LOG1 PUSH32 0x6F073B33260541CDA6FD369EF634F431C9386B4AF2FB098A771A7054A097F3E1 PUSH1 0x2 DUP5 PUSH1 0x40 MLOAD PUSH2 0x754 SWAP2 SWAP1 PUSH2 0x1200 JUMP JUMPDEST SWAP1 DUP2 MSTORE PUSH1 0x20 ADD PUSH1 0x40 MLOAD DUP1 SWAP2 SUB SWAP1 KECCAK256 PUSH1 0x2 ADD DUP5 PUSH1 0x2 DUP7 PUSH1 0x40 MLOAD PUSH2 0x776 SWAP2 SWAP1 PUSH2 0x1200 JUMP JUMPDEST SWAP1 DUP2 MSTORE PUSH1 0x20 ADD PUSH1 0x40 MLOAD DUP1 SWAP2 SUB SWAP1 KECCAK256 PUSH1 0x2 ADD PUSH1 0x40 MLOAD PUSH2 0x794 SWAP2 SWAP1 PUSH2 0x1C4F JUMP JUMPDEST PUSH1 0x40 MLOAD DUP1 SWAP2 SUB SWAP1 KECCAK256 DUP7 DUP1 MLOAD SWAP1 PUSH1 0x20 ADD KECCAK256 PUSH1 0x40 MLOAD PUSH2 0x7B4 SWAP5 SWAP4 SWAP3 SWAP2 SWAP1 PUSH2 0x1D48 JUMP JUMPDEST PUSH1 0x40 MLOAD DUP1 SWAP2 SUB SWAP1 LOG1 PUSH0 PUSH1 0x2 DUP5 PUSH1 0x40 MLOAD PUSH2 0x7CD SWAP2 SWAP1 PUSH2 0x1200 JUMP JUMPDEST SWAP1 DUP2 MSTORE PUSH1 0x20 ADD PUSH1 0x40 MLOAD DUP1 SWAP2 SUB SWAP1 KECCAK256 PUSH1 0x40 MLOAD DUP1 PUSH1 0xE0 ADD PUSH1 0x40 MSTORE SWAP1 DUP2 PUSH0 DUP3 ADD SLOAD DUP2 MSTORE PUSH1 0x20 ADD PUSH1 0x1 DUP3 ADD SLOAD DUP2 MSTORE PUSH1 0x20 ADD PUSH1 0x2 DUP3 ADD DUP1 SLOAD PUSH2 0x809 SWAP1 PUSH2 0x12CB JUMP JUMPDEST DUP1 PUSH1 0x1F ADD PUSH1 0x20 DUP1 SWAP2 DIV MUL PUSH1 0x20 ADD PUSH1 0x40 MLOAD SWAP1 DUP2 ADD PUSH1 0x40 MSTORE DUP1 SWAP3 SWAP2 SWAP1 DUP2 DUP2 MSTORE PUSH1 0x20 ADD DUP3 DUP1 SLOAD PUSH2 0x835 SWAP1 PUSH2 0x12CB JUMP JUMPDEST DUP1 ISZERO PUSH2 0x880 JUMPI DUP1 PUSH1 0x1F LT PUSH2 0x857 JUMPI PUSH2 0x100 DUP1 DUP4 SLOAD DIV MUL DUP4 MSTORE SWAP2 PUSH1 0x20 ADD SWAP2 PUSH2 0x880 JUMP JUMPDEST DUP3 ADD SWAP2 SWAP1 PUSH0 MSTORE PUSH1 0x20 PUSH0 KECCAK256 SWAP1 JUMPDEST DUP2 SLOAD DUP2 MSTORE SWAP1 PUSH1 0x1 ADD SWAP1 PUSH1 0x20 ADD DUP1 DUP4 GT PUSH2 0x863 JUMPI DUP3 SWAP1 SUB PUSH1 0x1F AND DUP3 ADD SWAP2 JUMPDEST POP POP POP POP POP DUP2 MSTORE PUSH1 0x20 ADD PUSH1 0x3 DUP3 ADD PUSH0 SWAP1 SLOAD SWAP1 PUSH2 0x100 EXP SWAP1 DIV PUSH20 0xFFFFFFFFFFFFFFFFFFFFFFFFFFFFFFFFFFFFFFFF AND PUSH20 0xFFFFFFFFFFFFFFFFFFFFFFFFFFFFFFFFFFFFFFFF AND PUSH20 0xFFFFFFFFFFFFFFFFFFFFFFFFFFFFFFFFFFFFFFFF AND DUP2 MSTORE PUSH1 0x20 ADD PUSH1 0x4 DUP3 ADD SLOAD DUP2 MSTORE PUSH1 0x20 ADD PUSH1 0x5 DUP3 ADD SLOAD DUP2 MSTORE PUSH1 0x20 ADD PUSH1 0x6 DUP3 ADD PUSH0 SWAP1 SLOAD SWAP1 PUSH2 0x100 EXP SWAP1 DIV PUSH1 0xFF AND ISZERO ISZERO ISZERO ISZERO DUP2 MSTORE POP POP SWAP1 POP PUSH32 0x37E3403F90577C37D7124F91E9054E6918BE9F2EDBB8EC93108345299CAE6069 DUP5 PUSH0 DUP4 PUSH1 0x80 ADD MLOAD GT DUP1 PUSH2 0x945 JUMPI POP PUSH0 DUP4 PUSH1 0xA0 ADD MLOAD GT JUMPDEST DUP4 PUSH1 0xC0 ADD MLOAD DUP5 PUSH1 0x80 ADD MLOAD DUP6 PUSH1 0xA0 ADD MLOAD PUSH1 0x40 MLOAD PUSH2 0x965 SWAP6 SWAP5 SWAP4 SWAP3 SWAP2 SWAP1 PUSH2 0x1DF6 JUMP JUMPDEST PUSH1 0x40 MLOAD DUP1 SWAP2 SUB SWAP1 LOG1 PUSH32 0x8C456AEDF4877DC6046F0D3A800FA904853F4B7D92742FA60455F70D85B871E9 DUP5 DUP3 PUSH1 0xC0 ADD MLOAD DUP6 DUP5 PUSH1 0x80 ADD MLOAD DUP7 PUSH1 0x40 MLOAD PUSH2 0x9AC SWAP6 SWAP5 SWAP4 SWAP3 SWAP2 SWAP1 PUSH2 0x1E61 JUMP JUMPDEST PUSH1 0x40 MLOAD DUP1 SWAP2 SUB SWAP1 LOG1 PUSH0 PUSH1 0x40 MLOAD PUSH1 0x20 ADD PUSH2 0x9C4 SWAP1 PUSH2 0x1F24 JUMP JUMPDEST PUSH1 0x40 MLOAD PUSH1 0x20 DUP2 DUP4 SUB SUB DUP2 MSTORE SWAP1 PUSH1 0x40 MSTORE DUP1 MLOAD SWAP1 PUSH1 0x20 ADD KECCAK256 DUP5 PUSH1 0x40 MLOAD PUSH1 0x20 ADD PUSH2 0x9EB SWAP2 SWAP1 PUSH2 0x1200 JUMP JUMPDEST PUSH1 0x40 MLOAD PUSH1 0x20 DUP2 DUP4 SUB SUB DUP2 MSTORE SWAP1 PUSH1 0x40 MSTORE DUP1 MLOAD SWAP1 PUSH1 0x20 ADD KECCAK256 SUB PUSH2 0xA12 JUMPI DUP2 PUSH1 0x80 ADD MLOAD SWAP1 POP PUSH2 0xA6C JUMP JUMPDEST PUSH1 0x40 MLOAD PUSH1 0x20 ADD PUSH2 0xA21 SWAP1 PUSH2 0x1F82 JUMP JUMPDEST PUSH1 0x40 MLOAD PUSH1 0x20 DUP2 DUP4 SUB SUB DUP2 MSTORE SWAP1 PUSH1 0x40 MSTORE DUP1 MLOAD SWAP1 PUSH1 0x20 ADD KECCAK256 DUP5 PUSH1 0x40 MLOAD PUSH1 0x20 ADD PUSH2 0xA48 SWAP2 SWAP1 PUSH2 0x1200 JUMP JUMPDEST PUSH1 0x40 MLOAD PUSH1 0x20 DUP2 DUP4 SUB SUB DUP2 MSTORE SWAP1 PUSH1 0x40 MSTORE DUP1 MLOAD SWAP1 PUSH1 0x20 ADD KECCAK256 SUB PUSH2 0xA6B JUMPI DUP2 PUSH1 0xA0 ADD MLOAD SWAP1 POP JUMPDEST JUMPDEST PUSH32 0x8C456AEDF4877DC6046F0D3A800FA904853F4B7D92742FA60455F70D85B871E9 DUP6 DUP4 PUSH1 0xC0 ADD MLOAD DUP7 DUP5 DUP8 PUSH1 0x40 MLOAD PUSH2 0xAA7 SWAP6 SWAP5 SWAP4 SWAP3 SWAP2 SWAP1 PUSH2 0x1FE0 JUMP JUMPDEST PUSH1 0x40 MLOAD DUP1 SWAP2 SUB SWAP1 LOG1 DUP2 PUSH1 0xC0 ADD MLOAD PUSH2 0xAF3 JUMPI PUSH1 0x40 MLOAD PUSH32 0x8C379A000000000000000000000000000000000000000000000000000000000 DUP2 MSTORE PUSH1 0x4 ADD PUSH2 0xAEA SWAP1 PUSH2 0x20A3 JUMP JUMPDEST PUSH1 0x40 MLOAD DUP1 SWAP2 SUB SWAP1 REVERT JUMPDEST PUSH0 PUSH3 0x3C437A SWAP1 POP PUSH0 PUSH1 0x40 MLOAD DUP1 PUSH1 0xA0 ADD PUSH1 0x40 MSTORE DUP1 DUP7 DUP2 MSTORE PUSH1 0x20 ADD DUP9 DUP1 MLOAD SWAP1 PUSH1 0x20 ADD KECCAK256 PUSH0 SHR PUSH20 0xFFFFFFFFFFFFFFFFFFFFFFFFFFFFFFFFFFFFFFFF AND DUP2 MSTORE PUSH1 0x20 ADD PUSH2 0x384 TIMESTAMP PUSH2 0xB3F SWAP2 SWAP1 PUSH2 0x20EE JUMP JUMPDEST DUP2 MSTORE PUSH1 0x20 ADD DUP5 DUP2 MSTORE PUSH1 0x20 ADD PUSH2 0xB56 DUP6 PUSH2 0x3E3 PUSH2 0xC5E JUMP JUMPDEST DUP2 MSTORE POP SWAP1 POP PUSH0 DUP3 PUSH20 0xFFFFFFFFFFFFFFFFFFFFFFFFFFFFFFFFFFFFFFFF AND PUSH4 0xC04B8D59 DUP4 PUSH1 0x40 MLOAD DUP3 PUSH4 0xFFFFFFFF AND PUSH1 0xE0 SHL DUP2 MSTORE PUSH1 0x4 ADD PUSH2 0xB95 SWAP2 SWAP1 PUSH2 0x21FA JUMP JUMPDEST PUSH1 0x20 PUSH1 0x40 MLOAD DUP1 DUP4 SUB DUP2 PUSH0 DUP8 GAS CALL ISZERO DUP1 ISZERO PUSH2 0xBB1 JUMPI RETURNDATASIZE PUSH0 DUP1 RETURNDATACOPY RETURNDATASIZE PUSH0 REVERT JUMPDEST POP POP POP POP PUSH1 0x40 MLOAD RETURNDATASIZE PUSH1 0x1F NOT PUSH1 0x1F DUP3 ADD AND DUP3 ADD DUP1 PUSH1 0x40 MSTORE POP DUP2 ADD SWAP1 PUSH2 0xBD5 SWAP2 SWAP1 PUSH2 0x222E JUMP JUMPDEST SWAP1 POP PUSH0 PUSH1 0x2 DUP10 PUSH1 0x40 MLOAD PUSH2 0xBE8 SWAP2 SWAP1 PUSH2 0x1200 JUMP JUMPDEST SWAP1 DUP2 MSTORE PUSH1 0x20 ADD PUSH1 0x40 MLOAD DUP1 SWAP2 SUB SWAP1 KECCAK256 PUSH1 0x6 ADD PUSH0 PUSH2 0x100 EXP DUP2 SLOAD DUP2 PUSH1 0xFF MUL NOT AND SWAP1 DUP4 ISZERO ISZERO MUL OR SWAP1 SSTORE POP PUSH32 0xC4F057E87B29411545A6F83503E316FDA0DC00C7CD6BCCEFEDB5E808CB0473A2 DUP9 DUP9 PUSH1 0x1 SLOAD DUP9 PUSH1 0x60 ADD MLOAD DUP6 PUSH1 0x40 MLOAD PUSH2 0xC4C SWAP6 SWAP5 SWAP4 SWAP3 SWAP2 SWAP1 PUSH2 0x2259 JUMP JUMPDEST PUSH1 0x40 MLOAD DUP1 SWAP2 SUB SWAP1 LOG1 POP POP POP POP POP POP POP POP JUMP JUMPDEST PUSH0 PUSH2 0x3E8 DUP3 DUP5 PUSH2 0xC6E SWAP2 SWAP1 PUSH2 0x22B8 JUMP JUMPDEST PUSH2 0xC78 SWAP2 SWAP1 PUSH2 0x2326 JUMP JUMPDEST SWAP1 POP SWAP3 SWAP2 POP POP JUMP JUMPDEST PUSH0 PUSH1 0x40 MLOAD SWAP1 POP SWAP1 JUMP JUMPDEST PUSH0 DUP1 REVERT JUMPDEST PUSH0 DUP1 REVERT JUMPDEST PUSH0 DUP1 REVERT JUMPDEST PUSH0 DUP1 REVERT JUMPDEST PUSH0 PUSH1 0x1F NOT PUSH1 0x1F DUP4 ADD AND SWAP1 POP SWAP2 SWAP1 POP JUMP JUMPDEST PUSH32 0x4E487B7100000000000000000000000000000000000000000000000000000000 PUSH0 MSTORE PUSH1 0x41 PUSH1 0x4 MSTORE PUSH1 0x24 PUSH0 REVERT JUMPDEST PUSH2 0xCDF DUP3 PUSH2 0xC99 JUMP JUMPDEST DUP2 ADD DUP2 DUP2 LT PUSH8 0xFFFFFFFFFFFFFFFF DUP3 GT OR ISZERO PUSH2 0xCFE JUMPI PUSH2 0xCFD PUSH2 0xCA9 JUMP JUMPDEST JUMPDEST DUP1 PUSH1 0x40 MSTORE POP POP POP JUMP JUMPDEST PUSH0 PUSH2 0xD10 PUSH2 0xC80 JUMP JUMPDEST SWAP1 POP PUSH2 0xD1C DUP3 DUP3 PUSH2 0xCD6 JUMP JUMPDEST SWAP2 SWAP1 POP JUMP JUMPDEST PUSH0 PUSH8 0xFFFFFFFFFFFFFFFF DUP3 GT ISZERO PUSH2 0xD3B JUMPI PUSH2 0xD3A PUSH2 0xCA9 JUMP JUMPDEST JUMPDEST PUSH2 0xD44 DUP3 PUSH2 0xC99 JUMP JUMPDEST SWAP1 POP PUSH1 0x20 DUP2 ADD SWAP1 POP SWAP2 SWAP1 POP JUMP JUMPDEST DUP3 DUP2 DUP4 CALLDATACOPY PUSH0 DUP4 DUP4 ADD MSTORE POP POP POP JUMP JUMPDEST PUSH0 PUSH2 0xD71 PUSH2 0xD6C DUP5 PUSH2 0xD21 JUMP JUMPDEST PUSH2 0xD07 JUMP JUMPDEST SWAP1 POP DUP3 DUP2 MSTORE PUSH1 0x20 DUP2 ADD DUP5 DUP5 DUP5 ADD GT ISZERO PUSH2 0xD8D JUMPI PUSH2 0xD8C PUSH2 0xC95 JUMP JUMPDEST JUMPDEST PUSH2 0xD98 DUP5 DUP3 DUP6 PUSH2 0xD51 JUMP JUMPDEST POP SWAP4 SWAP3 POP POP POP JUMP JUMPDEST PUSH0 DUP3 PUSH1 0x1F DUP4 ADD SLT PUSH2 0xDB4 JUMPI PUSH2 0xDB3 PUSH2 0xC91 JUMP JUMPDEST JUMPDEST DUP2 CALLDATALOAD PUSH2 0xDC4 DUP5 DUP3 PUSH1 0x20 DUP7 ADD PUSH2 0xD5F JUMP JUMPDEST SWAP2 POP POP SWAP3 SWAP2 POP POP JUMP JUMPDEST PUSH0 PUSH1 0x20 DUP3 DUP5 SUB SLT ISZERO PUSH2 0xDE2 JUMPI PUSH2 0xDE1 PUSH2 0xC89 JUMP JUMPDEST JUMPDEST PUSH0 DUP3 ADD CALLDATALOAD PUSH8 0xFFFFFFFFFFFFFFFF DUP2 GT ISZERO PUSH2 0xDFF JUMPI PUSH2 0xDFE PUSH2 0xC8D JUMP JUMPDEST JUMPDEST PUSH2 0xE0B DUP5 DUP3 DUP6 ADD PUSH2 0xDA0 JUMP JUMPDEST SWAP2 POP POP SWAP3 SWAP2 POP POP JUMP JUMPDEST PUSH0 PUSH20 0xFFFFFFFFFFFFFFFFFFFFFFFFFFFFFFFFFFFFFFFF DUP3 AND SWAP1 POP SWAP2 SWAP1 POP JUMP JUMPDEST PUSH0 PUSH2 0xE3D DUP3 PUSH2 0xE14 JUMP JUMPDEST SWAP1 POP SWAP2 SWAP1 POP JUMP JUMPDEST PUSH2 0xE4D DUP2 PUSH2 0xE33 JUMP JUMPDEST DUP3 MSTORE POP POP JUMP JUMPDEST PUSH0 PUSH1 0x20 DUP3 ADD SWAP1 POP PUSH2 0xE66 PUSH0 DUP4 ADD DUP5 PUSH2 0xE44 JUMP JUMPDEST SWAP3 SWAP2 POP POP JUMP JUMPDEST PUSH0 DUP2 SWAP1 POP SWAP2 SWAP1 POP JUMP JUMPDEST PUSH2 0xE7E DUP2 PUSH2 0xE6C JUMP JUMPDEST DUP3 MSTORE POP POP JUMP JUMPDEST PUSH0 DUP2 MLOAD SWAP1 POP SWAP2 SWAP1 POP JUMP JUMPDEST PUSH0 DUP3 DUP3 MSTORE PUSH1 0x20 DUP3 ADD SWAP1 POP SWAP3 SWAP2 POP POP JUMP JUMPDEST DUP3 DUP2 DUP4 MCOPY PUSH0 DUP4 DUP4 ADD MSTORE POP POP POP JUMP JUMPDEST PUSH0 PUSH2 0xEB6 DUP3 PUSH2 0xE84 JUMP JUMPDEST PUSH2 0xEC0 DUP2 DUP6 PUSH2 0xE8E JUMP JUMPDEST SWAP4 POP PUSH2 0xED0 DUP2 DUP6 PUSH1 0x20 DUP7 ADD PUSH2 0xE9E JUMP JUMPDEST PUSH2 0xED9 DUP2 PUSH2 0xC99 JUMP JUMPDEST DUP5 ADD SWAP2 POP POP SWAP3 SWAP2 POP POP JUMP JUMPDEST PUSH0 DUP2 ISZERO ISZERO SWAP1 POP SWAP2 SWAP1 POP JUMP JUMPDEST PUSH2 0xEF8 DUP2 PUSH2 0xEE4 JUMP JUMPDEST DUP3 MSTORE POP POP JUMP JUMPDEST PUSH0 PUSH1 0xE0 DUP3 ADD SWAP1 POP PUSH2 0xF11 PUSH0 DUP4 ADD DUP11 PUSH2 0xE75 JUMP JUMPDEST PUSH2 0xF1E PUSH1 0x20 DUP4 ADD DUP10 PUSH2 0xE75 JUMP JUMPDEST DUP2 DUP2 SUB PUSH1 0x40 DUP4 ADD MSTORE PUSH2 0xF30 DUP2 DUP9 PUSH2 0xEAC JUMP JUMPDEST SWAP1 POP PUSH2 0xF3F PUSH1 0x60 DUP4 ADD DUP8 PUSH2 0xE44 JUMP JUMPDEST PUSH2 0xF4C PUSH1 0x80 DUP4 ADD DUP7 PUSH2 0xE75 JUMP JUMPDEST PUSH2 0xF59 PUSH1 0xA0 DUP4 ADD DUP6 PUSH2 0xE75 JUMP JUMPDEST PUSH2 0xF66 PUSH1 0xC0 DUP4 ADD DUP5 PUSH2 0xEEF JUMP JUMPDEST SWAP9 SWAP8 POP POP POP POP POP POP POP POP JUMP JUMPDEST PUSH0 PUSH1 0x20 DUP3 ADD SWAP1 POP PUSH2 0xF85 PUSH0 DUP4 ADD DUP5 PUSH2 0xE75 JUMP JUMPDEST SWAP3 SWAP2 POP POP JUMP JUMPDEST PUSH2 0xF94 DUP2 PUSH2 0xE6C JUMP JUMPDEST DUP2 EQ PUSH2 0xF9E JUMPI PUSH0 DUP1 REVERT JUMPDEST POP JUMP JUMPDEST PUSH0 DUP2 CALLDATALOAD SWAP1 POP PUSH2 0xFAF DUP2 PUSH2 0xF8B JUMP JUMPDEST SWAP3 SWAP2 POP POP JUMP JUMPDEST PUSH2 0xFBE DUP2 PUSH2 0xE33 JUMP JUMPDEST DUP2 EQ PUSH2 0xFC8 JUMPI PUSH0 DUP1 REVERT JUMPDEST POP JUMP JUMPDEST PUSH0 DUP2 CALLDATALOAD SWAP1 POP PUSH2 0xFD9 DUP2 PUSH2 0xFB5 JUMP JUMPDEST SWAP3 SWAP2 POP POP JUMP JUMPDEST PUSH0 DUP1 PUSH0 DUP1 PUSH0 DUP1 PUSH1 0xC0 DUP8 DUP10 SUB SLT ISZERO PUSH2 0xFF9 JUMPI PUSH2 0xFF8 PUSH2 0xC89 JUMP JUMPDEST JUMPDEST PUSH0 PUSH2 0x1006 DUP10 DUP3 DUP11 ADD PUSH2 0xFA1 JUMP JUMPDEST SWAP7 POP POP PUSH1 0x20 PUSH2 0x1017 DUP10 DUP3 DUP11 ADD PUSH2 0xFA1 JUMP JUMPDEST SWAP6 POP POP PUSH1 0x40 DUP8 ADD CALLDATALOAD PUSH8 0xFFFFFFFFFFFFFFFF DUP2 GT ISZERO PUSH2 0x1038 JUMPI PUSH2 0x1037 PUSH2 0xC8D JUMP JUMPDEST JUMPDEST PUSH2 0x1044 DUP10 DUP3 DUP11 ADD PUSH2 0xDA0 JUMP JUMPDEST SWAP5 POP POP PUSH1 0x60 PUSH2 0x1055 DUP10 DUP3 DUP11 ADD PUSH2 0xFCB JUMP JUMPDEST SWAP4 POP POP PUSH1 0x80 PUSH2 0x1066 DUP10 DUP3 DUP11 ADD PUSH2 0xFA1 JUMP JUMPDEST SWAP3 POP POP PUSH1 0xA0 PUSH2 0x1077 DUP10 DUP3 DUP11 ADD PUSH2 0xFA1 JUMP JUMPDEST SWAP2 POP POP SWAP3 SWAP6 POP SWAP3 SWAP6 POP SWAP3 SWAP6 JUMP JUMPDEST PUSH0 PUSH8 0xFFFFFFFFFFFFFFFF DUP3 GT ISZERO PUSH2 0x109E JUMPI PUSH2 0x109D PUSH2 0xCA9 JUMP JUMPDEST JUMPDEST PUSH2 0x10A7 DUP3 PUSH2 0xC99 JUMP JUMPDEST SWAP1 POP PUSH1 0x20 DUP2 ADD SWAP1 POP SWAP2 SWAP1 POP JUMP JUMPDEST PUSH0 PUSH2 0x10C6 PUSH2 0x10C1 DUP5 PUSH2 0x1084 JUMP JUMPDEST PUSH2 0xD07 JUMP JUMPDEST SWAP1 POP DUP3 DUP2 MSTORE PUSH1 0x20 DUP2 ADD DUP5 DUP5 DUP5 ADD GT ISZERO PUSH2 0x10E2 JUMPI PUSH2 0x10E1 PUSH2 0xC95 JUMP JUMPDEST JUMPDEST PUSH2 0x10ED DUP5 DUP3 DUP6 PUSH2 0xD51 JUMP JUMPDEST POP SWAP4 SWAP3 POP POP POP JUMP JUMPDEST PUSH0 DUP3 PUSH1 0x1F DUP4 ADD SLT PUSH2 0x1109 JUMPI PUSH2 0x1108 PUSH2 0xC91 JUMP JUMPDEST JUMPDEST DUP2 CALLDATALOAD PUSH2 0x1119 DUP5 DUP3 PUSH1 0x20 DUP7 ADD PUSH2 0x10B4 JUMP JUMPDEST SWAP2 POP POP SWAP3 SWAP2 POP POP JUMP JUMPDEST PUSH0 DUP1 PUSH0 PUSH1 0x60 DUP5 DUP7 SUB SLT ISZERO PUSH2 0x1139 JUMPI PUSH2 0x1138 PUSH2 0xC89 JUMP JUMPDEST JUMPDEST PUSH0 DUP5 ADD CALLDATALOAD PUSH8 0xFFFFFFFFFFFFFFFF DUP2 GT ISZERO PUSH2 0x1156 JUMPI PUSH2 0x1155 PUSH2 0xC8D JUMP JUMPDEST JUMPDEST PUSH2 0x1162 DUP7 DUP3 DUP8 ADD PUSH2 0xDA0 JUMP JUMPDEST SWAP4 POP POP PUSH1 0x20 DUP5 ADD CALLDATALOAD PUSH8 0xFFFFFFFFFFFFFFFF DUP2 GT ISZERO PUSH2 0x1183 JUMPI PUSH2 0x1182 PUSH2 0xC8D JUMP JUMPDEST JUMPDEST PUSH2 0x118F DUP7 DUP3 DUP8 ADD PUSH2 0xDA0 JUMP JUMPDEST SWAP3 POP POP PUSH1 0x40 DUP5 ADD CALLDATALOAD PUSH8 0xFFFFFFFFFFFFFFFF DUP2 GT ISZERO PUSH2 0x11B0 JUMPI PUSH2 0x11AF PUSH2 0xC8D JUMP JUMPDEST JUMPDEST PUSH2 0x11BC DUP7 DUP3 DUP8 ADD PUSH2 0x10F5 JUMP JUMPDEST SWAP2 POP POP SWAP3 POP SWAP3 POP SWAP3 JUMP JUMPDEST PUSH0 DUP2 SWAP1 POP SWAP3 SWAP2 POP POP JUMP JUMPDEST PUSH0 PUSH2 0x11DA DUP3 PUSH2 0xE84 JUMP JUMPDEST PUSH2 0x11E4 DUP2 DUP6 PUSH2 0x11C6 JUMP JUMPDEST SWAP4 POP PUSH2 0x11F4 DUP2 DUP6 PUSH1 0x20 DUP7 ADD PUSH2 0xE9E JUMP JUMPDEST DUP1 DUP5 ADD SWAP2 POP POP SWAP3 SWAP2 POP POP JUMP JUMPDEST PUSH0 PUSH2 0x120B DUP3 DUP5 PUSH2 0x11D0 JUMP JUMPDEST SWAP2 POP DUP2 SWAP1 POP SWAP3 SWAP2 POP POP JUMP JUMPDEST PUSH32 0x4E6F20616374697665207468726573686F6C647320666F756E64000000000000 PUSH0 DUP3 ADD MSTORE POP JUMP JUMPDEST PUSH0 PUSH2 0x124A PUSH1 0x1A DUP4 PUSH2 0xE8E JUMP JUMPDEST SWAP2 POP PUSH2 0x1255 DUP3 PUSH2 0x1216 JUMP JUMPDEST PUSH1 0x20 DUP3 ADD SWAP1 POP SWAP2 SWAP1 POP JUMP JUMPDEST PUSH0 PUSH1 0x20 DUP3 ADD SWAP1 POP DUP2 DUP2 SUB PUSH0 DUP4 ADD MSTORE PUSH2 0x1277 DUP2 PUSH2 0x123E JUMP JUMPDEST SWAP1 POP SWAP2 SWAP1 POP JUMP JUMPDEST PUSH0 PUSH1 0x20 DUP3 ADD SWAP1 POP DUP2 DUP2 SUB PUSH0 DUP4 ADD MSTORE PUSH2 0x1296 DUP2 DUP5 PUSH2 0xEAC JUMP JUMPDEST SWAP1 POP SWAP3 SWAP2 POP POP JUMP JUMPDEST PUSH32 0x4E487B7100000000000000000000000000000000000000000000000000000000 PUSH0 MSTORE PUSH1 0x22 PUSH1 0x4 MSTORE PUSH1 0x24 PUSH0 REVERT JUMPDEST PUSH0 PUSH1 0x2 DUP3 DIV SWAP1 POP PUSH1 0x1 DUP3 AND DUP1 PUSH2 0x12E2 JUMPI PUSH1 0x7F DUP3 AND SWAP2 POP JUMPDEST PUSH1 0x20 DUP3 LT DUP2 SUB PUSH2 0x12F5 JUMPI PUSH2 0x12F4 PUSH2 0x129E JUMP JUMPDEST JUMPDEST POP SWAP2 SWAP1 POP JUMP JUMPDEST PUSH32 0x53746F70206C6F7373207468726573686F6C64206D7573742062652062657477 PUSH0 DUP3 ADD MSTORE PUSH32 0x65656E203120616E6420313030303020626173697320706F696E747300000000 PUSH1 0x20 DUP3 ADD MSTORE POP JUMP JUMPDEST PUSH0 PUSH2 0x1355 PUSH1 0x3C DUP4 PUSH2 0xE8E JUMP JUMPDEST SWAP2 POP PUSH2 0x1360 DUP3 PUSH2 0x12FB JUMP JUMPDEST PUSH1 0x40 DUP3 ADD SWAP1 POP SWAP2 SWAP1 POP JUMP JUMPDEST PUSH0 PUSH1 0x20 DUP3 ADD SWAP1 POP DUP2 DUP2 SUB PUSH0 DUP4 ADD MSTORE PUSH2 0x1382 DUP2 PUSH2 0x1349 JUMP JUMPDEST SWAP1 POP SWAP2 SWAP1 POP JUMP JUMPDEST PUSH32 0x427579206F72646572207468726573686F6C64206D7573742062652062657477 PUSH0 DUP3 ADD MSTORE PUSH32 0x65656E203120616E6420313030303020626173697320706F696E747300000000 PUSH1 0x20 DUP3 ADD MSTORE POP JUMP JUMPDEST PUSH0 PUSH2 0x13E3 PUSH1 0x3C DUP4 PUSH2 0xE8E JUMP JUMPDEST SWAP2 POP PUSH2 0x13EE DUP3 PUSH2 0x1389 JUMP JUMPDEST PUSH1 0x40 DUP3 ADD SWAP1 POP SWAP2 SWAP1 POP JUMP JUMPDEST PUSH0 PUSH1 0x20 DUP3 ADD SWAP1 POP DUP2 DUP2 SUB PUSH0 DUP4 ADD MSTORE PUSH2 0x1410 DUP2 PUSH2 0x13D7 JUMP JUMPDEST SWAP1 POP SWAP2 SWAP1 POP JUMP JUMPDEST PUSH32 0x53746F70206C6F737320616D6F756E74206D7573742062652067726561746572 PUSH0 DUP3 ADD MSTORE PUSH32 0x207468616E207A65726F00000000000000000000000000000000000000000000 PUSH1 0x20 DUP3 ADD MSTORE POP JUMP JUMPDEST PUSH0 PUSH2 0x1471 PUSH1 0x2A DUP4 PUSH2 0xE8E JUMP JUMPDEST SWAP2 POP PUSH2 0x147C DUP3 PUSH2 0x1417 JUMP JUMPDEST PUSH1 0x40 DUP3 ADD SWAP1 POP SWAP2 SWAP1 POP JUMP JUMPDEST PUSH0 PUSH1 0x20 DUP3 ADD SWAP1 POP DUP2 DUP2 SUB PUSH0 DUP4 ADD MSTORE PUSH2 0x149E DUP2 PUSH2 0x1465 JUMP JUMPDEST SWAP1 POP SWAP2 SWAP1 POP JUMP JUMPDEST PUSH32 0x427579206F7264657220616D6F756E74206D7573742062652067726561746572 PUSH0 DUP3 ADD MSTORE PUSH32 0x207468616E207A65726F00000000000000000000000000000000000000000000 PUSH1 0x20 DUP3 ADD MSTORE POP JUMP JUMPDEST PUSH0 PUSH2 0x14FF PUSH1 0x2A DUP4 PUSH2 0xE8E JUMP JUMPDEST SWAP2 POP PUSH2 0x150A DUP3 PUSH2 0x14A5 JUMP JUMPDEST PUSH1 0x40 DUP3 ADD SWAP1 POP SWAP2 SWAP1 POP JUMP JUMPDEST PUSH0 PUSH1 0x20 DUP3 ADD SWAP1 POP DUP2 DUP2 SUB PUSH0 DUP4 ADD MSTORE PUSH2 0x152C DUP2 PUSH2 0x14F3 JUMP JUMPDEST SWAP1 POP SWAP2 SWAP1 POP JUMP JUMPDEST PUSH32 0x546F6B656E2061646472657373206D7573742062652076616C69640000000000 PUSH0 DUP3 ADD MSTORE POP JUMP JUMPDEST PUSH0 PUSH2 0x1567 PUSH1 0x1B DUP4 PUSH2 0xE8E JUMP JUMPDEST SWAP2 POP PUSH2 0x1572 DUP3 PUSH2 0x1533 JUMP JUMPDEST PUSH1 0x20 DUP3 ADD SWAP1 POP SWAP2 SWAP1 POP JUMP JUMPDEST PUSH0 PUSH1 0x20 DUP3 ADD SWAP1 POP DUP2 DUP2 SUB PUSH0 DUP4 ADD MSTORE PUSH2 0x1594 DUP2 PUSH2 0x155B JUMP JUMPDEST SWAP1 POP SWAP2 SWAP1 POP JUMP JUMPDEST PUSH32 0x486564657261206163636F756E74204944206D757374206E6F7420626520656D PUSH0 DUP3 ADD MSTORE PUSH32 0x7074790000000000000000000000000000000000000000000000000000000000 PUSH1 0x20 DUP3 ADD MSTORE POP JUMP JUMPDEST PUSH0 PUSH2 0x15F5 PUSH1 0x23 DUP4 PUSH2 0xE8E JUMP JUMPDEST SWAP2 POP PUSH2 0x1600 DUP3 PUSH2 0x159B JUMP JUMPDEST PUSH1 0x40 DUP3 ADD SWAP1 POP SWAP2 SWAP1 POP JUMP JUMPDEST PUSH0 PUSH1 0x20 DUP3 ADD SWAP1 POP DUP2 DUP2 SUB PUSH0 DUP4 ADD MSTORE PUSH2 0x1622 DUP2 PUSH2 0x15E9 JUMP JUMPDEST SWAP1 POP SWAP2 SWAP1 POP JUMP JUMPDEST PUSH32 0x4265666F72652073657474696E67207468726573686F6C640000000000000000 PUSH0 DUP3 ADD MSTORE POP JUMP JUMPDEST PUSH0 PUSH2 0x165D PUSH1 0x18 DUP4 PUSH2 0xE8E JUMP JUMPDEST SWAP2 POP PUSH2 0x1668 DUP3 PUSH2 0x1629 JUMP JUMPDEST PUSH1 0x20 DUP3 ADD SWAP1 POP SWAP2 SWAP1 POP JUMP JUMPDEST PUSH0 PUSH1 0xC0 DUP3 ADD SWAP1 POP DUP2 DUP2 SUB PUSH0 DUP4 ADD MSTORE PUSH2 0x168A DUP2 PUSH2 0x1651 JUMP JUMPDEST SWAP1 POP DUP2 DUP2 SUB PUSH1 0x20 DUP4 ADD MSTORE PUSH2 0x169E DUP2 DUP9 PUSH2 0xEAC JUMP JUMPDEST SWAP1 POP PUSH2 0x16AD PUSH1 0x40 DUP4 ADD DUP8 PUSH2 0xEEF JUMP JUMPDEST PUSH2 0x16BA PUSH1 0x60 DUP4 ADD DUP7 PUSH2 0xEEF JUMP JUMPDEST PUSH2 0x16C7 PUSH1 0x80 DUP4 ADD DUP6 PUSH2 0xE75 JUMP JUMPDEST PUSH2 0x16D4 PUSH1 0xA0 DUP4 ADD DUP5 PUSH2 0xE75 JUMP JUMPDEST SWAP7 SWAP6 POP POP POP POP POP POP JUMP JUMPDEST PUSH0 DUP2 SWAP1 POP DUP2 PUSH0 MSTORE PUSH1 0x20 PUSH0 KECCAK256 SWAP1 POP SWAP2 SWAP1 POP JUMP JUMPDEST PUSH0 PUSH1 0x20 PUSH1 0x1F DUP4 ADD DIV SWAP1 POP SWAP2 SWAP1 POP JUMP JUMPDEST PUSH0 DUP3 DUP3 SHL SWAP1 POP SWAP3 SWAP2 POP POP JUMP JUMPDEST PUSH0 PUSH1 0x8 DUP4 MUL PUSH2 0x173A PUSH32 0xFFFFFFFFFFFFFFFFFFFFFFFFFFFFFFFFFFFFFFFFFFFFFFFFFFFFFFFFFFFFFFFF DUP3 PUSH2 0x16FF JUMP JUMPDEST PUSH2 0x1744 DUP7 DUP4 PUSH2 0x16FF JUMP JUMPDEST SWAP6 POP DUP1 NOT DUP5 AND SWAP4 POP DUP1 DUP7 AND DUP5 OR SWAP3 POP POP POP SWAP4 SWAP3 POP POP POP JUMP JUMPDEST PUSH0 DUP2 SWAP1 POP SWAP2 SWAP1 POP JUMP JUMPDEST PUSH0 PUSH2 0x177F PUSH2 0x177A PUSH2 0x1775 DUP5 PUSH2 0xE6C JUMP JUMPDEST PUSH2 0x175C JUMP JUMPDEST PUSH2 0xE6C JUMP JUMPDEST SWAP1 POP SWAP2 SWAP1 POP JUMP JUMPDEST PUSH0 DUP2 SWAP1 POP SWAP2 SWAP1 POP JUMP JUMPDEST PUSH2 0x1798 DUP4 PUSH2 0x1765 JUMP JUMPDEST PUSH2 0x17AC PUSH2 0x17A4 DUP3 PUSH2 0x1786 JUMP JUMPDEST DUP5 DUP5 SLOAD PUSH2 0x170B JUMP JUMPDEST DUP3 SSTORE POP POP POP POP JUMP JUMPDEST PUSH0 SWAP1 JUMP JUMPDEST PUSH2 0x17C0 PUSH2 0x17B4 JUMP JUMPDEST PUSH2 0x17CB DUP2 DUP5 DUP5 PUSH2 0x178F JUMP JUMPDEST POP POP POP JUMP JUMPDEST JUMPDEST DUP2 DUP2 LT ISZERO PUSH2 0x17EE JUMPI PUSH2 0x17E3 PUSH0 DUP3 PUSH2 0x17B8 JUMP JUMPDEST PUSH1 0x1 DUP2 ADD SWAP1 POP PUSH2 0x17D1 JUMP JUMPDEST POP POP JUMP JUMPDEST PUSH1 0x1F DUP3 GT ISZERO PUSH2 0x1833 JUMPI PUSH2 0x1804 DUP2 PUSH2 0x16DE JUMP JUMPDEST PUSH2 0x180D DUP5 PUSH2 0x16F0 JUMP JUMPDEST DUP2 ADD PUSH1 0x20 DUP6 LT ISZERO PUSH2 0x181C JUMPI DUP2 SWAP1 POP JUMPDEST PUSH2 0x1830 PUSH2 0x1828 DUP6 PUSH2 0x16F0 JUMP JUMPDEST DUP4 ADD DUP3 PUSH2 0x17D0 JUMP JUMPDEST POP POP JUMPDEST POP POP POP JUMP JUMPDEST PUSH0 DUP3 DUP3 SHR SWAP1 POP SWAP3 SWAP2 POP POP JUMP JUMPDEST PUSH0 PUSH2 0x1853 PUSH0 NOT DUP5 PUSH1 0x8 MUL PUSH2 0x1838 JUMP JUMPDEST NOT DUP1 DUP4 AND SWAP2 POP POP SWAP3 SWAP2 POP POP JUMP JUMPDEST PUSH0 PUSH2 0x186B DUP4 DUP4 PUSH2 0x1844 JUMP JUMPDEST SWAP2 POP DUP3 PUSH1 0x2 MUL DUP3 OR SWAP1 POP SWAP3 SWAP2 POP POP JUMP JUMPDEST PUSH2 0x1884 DUP3 PUSH2 0xE84 JUMP JUMPDEST PUSH8 0xFFFFFFFFFFFFFFFF DUP2 GT ISZERO PUSH2 0x189D JUMPI PUSH2 0x189C PUSH2 0xCA9 JUMP JUMPDEST JUMPDEST PUSH2 0x18A7 DUP3 SLOAD PUSH2 0x12CB JUMP JUMPDEST PUSH2 0x18B2 DUP3 DUP3 DUP6 PUSH2 0x17F2 JUMP JUMPDEST PUSH0 PUSH1 0x20 SWAP1 POP PUSH1 0x1F DUP4 GT PUSH1 0x1 DUP2 EQ PUSH2 0x18E3 JUMPI PUSH0 DUP5 ISZERO PUSH2 0x18D1 JUMPI DUP3 DUP8 ADD MLOAD SWAP1 POP JUMPDEST PUSH2 0x18DB DUP6 DUP3 PUSH2 0x1860 JUMP JUMPDEST DUP7 SSTORE POP PUSH2 0x1942 JUMP JUMPDEST PUSH1 0x1F NOT DUP5 AND PUSH2 0x18F1 DUP7 PUSH2 0x16DE JUMP JUMPDEST PUSH0 JUMPDEST DUP3 DUP2 LT ISZERO PUSH2 0x1918 JUMPI DUP5 DUP10 ADD MLOAD DUP3 SSTORE PUSH1 0x1 DUP3 ADD SWAP2 POP PUSH1 0x20 DUP6 ADD SWAP5 POP PUSH1 0x20 DUP2 ADD SWAP1 POP PUSH2 0x18F3 JUMP JUMPDEST DUP7 DUP4 LT ISZERO PUSH2 0x1935 JUMPI DUP5 DUP10 ADD MLOAD PUSH2 0x1931 PUSH1 0x1F DUP10 AND DUP3 PUSH2 0x1844 JUMP JUMPDEST DUP4 SSTORE POP JUMPDEST PUSH1 0x1 PUSH1 0x2 DUP9 MUL ADD DUP9 SSTORE POP POP POP JUMPDEST POP POP POP POP POP POP JUMP JUMPDEST PUSH32 0x41667465722073657474696E67207468726573686F6C64000000000000000000 PUSH0 DUP3 ADD MSTORE POP JUMP JUMPDEST PUSH0 PUSH2 0x197E PUSH1 0x17 DUP4 PUSH2 0xE8E JUMP JUMPDEST SWAP2 POP PUSH2 0x1989 DUP3 PUSH2 0x194A JUMP JUMPDEST PUSH1 0x20 DUP3 ADD SWAP1 POP SWAP2 SWAP1 POP JUMP JUMPDEST PUSH0 PUSH1 0xC0 DUP3 ADD SWAP1 POP DUP2 DUP2 SUB PUSH0 DUP4 ADD MSTORE PUSH2 0x19AB DUP2 PUSH2 0x1972 JUMP JUMPDEST SWAP1 POP DUP2 DUP2 SUB PUSH1 0x20 DUP4 ADD MSTORE PUSH2 0x19BF DUP2 DUP9 PUSH2 0xEAC JUMP JUMPDEST SWAP1 POP PUSH2 0x19CE PUSH1 0x40 DUP4 ADD DUP8 PUSH2 0xEEF JUMP JUMPDEST PUSH2 0x19DB PUSH1 0x60 DUP4 ADD DUP7 PUSH2 0xEEF JUMP JUMPDEST PUSH2 0x19E8 PUSH1 0x80 DUP4 ADD DUP6 PUSH2 0xE75 JUMP JUMPDEST PUSH2 0x19F5 PUSH1 0xA0 DUP4 ADD DUP5 PUSH2 0xE75 JUMP JUMPDEST SWAP7 SWAP6 POP POP POP POP POP POP JUMP JUMPDEST PUSH0 PUSH1 0xC0 DUP3 ADD SWAP1 POP DUP2 DUP2 SUB PUSH0 DUP4 ADD MSTORE PUSH2 0x1A17 DUP2 DUP10 PUSH2 0xEAC JUMP JUMPDEST SWAP1 POP PUSH2 0x1A26 PUSH1 0x20 DUP4 ADD DUP9 PUSH2 0xE75 JUMP JUMPDEST PUSH2 0x1A33 PUSH1 0x40 DUP4 ADD DUP8 PUSH2 0xE75 JUMP JUMPDEST PUSH2 0x1A40 PUSH1 0x60 DUP4 ADD DUP7 PUSH2 0xE44 JUMP JUMPDEST PUSH2 0x1A4D PUSH1 0x80 DUP4 ADD DUP6 PUSH2 0xE75 JUMP JUMPDEST PUSH2 0x1A5A PUSH1 0xA0 DUP4 ADD DUP5 PUSH2 0xE75 JUMP JUMPDEST SWAP8 SWAP7 POP POP POP POP POP POP POP JUMP JUMPDEST PUSH32 0x4265666F7265206C6F6F6B757000000000000000000000000000000000000000 PUSH0 DUP3 ADD MSTORE POP JUMP JUMPDEST PUSH0 PUSH2 0x1A99 PUSH1 0xD DUP4 PUSH2 0xE8E JUMP JUMPDEST SWAP2 POP PUSH2 0x1AA4 DUP3 PUSH2 0x1A65 JUMP JUMPDEST PUSH1 0x20 DUP3 ADD SWAP1 POP SWAP2 SWAP1 POP JUMP JUMPDEST PUSH0 DUP2 SWAP1 POP SWAP2 SWAP1 POP JUMP JUMPDEST PUSH0 PUSH2 0x1AD2 PUSH2 0x1ACD PUSH2 0x1AC8 DUP5 PUSH2 0x1AAF JUMP JUMPDEST PUSH2 0x175C JUMP JUMPDEST PUSH2 0xE6C JUMP JUMPDEST SWAP1 POP SWAP2 SWAP1 POP JUMP JUMPDEST PUSH2 0x1AE2 DUP2 PUSH2 0x1AB8 JUMP JUMPDEST DUP3 MSTORE POP POP JUMP JUMPDEST PUSH0 DUP2 MLOAD SWAP1 POP SWAP2 SWAP1 POP JUMP JUMPDEST PUSH0 DUP3 DUP3 MSTORE PUSH1 0x20 DUP3 ADD SWAP1 POP SWAP3 SWAP2 POP POP JUMP JUMPDEST PUSH0 PUSH2 0x1B0C DUP3 PUSH2 0x1AE8 JUMP JUMPDEST PUSH2 0x1B16 DUP2 DUP6 PUSH2 0x1AF2 JUMP JUMPDEST SWAP4 POP PUSH2 0x1B26 DUP2 DUP6 PUSH1 0x20 DUP7 ADD PUSH2 0xE9E JUMP JUMPDEST PUSH2 0x1B2F DUP2 PUSH2 0xC99 JUMP JUMPDEST DUP5 ADD SWAP2 POP POP SWAP3 SWAP2 POP POP JUMP JUMPDEST PUSH0 PUSH1 0xC0 DUP3 ADD SWAP1 POP DUP2 DUP2 SUB PUSH0 DUP4 ADD MSTORE PUSH2 0x1B51 DUP2 PUSH2 0x1A8D JUMP JUMPDEST SWAP1 POP DUP2 DUP2 SUB PUSH1 0x20 DUP4 ADD MSTORE PUSH2 0x1B65 DUP2 DUP9 PUSH2 0xEAC JUMP JUMPDEST SWAP1 POP PUSH2 0x1B74 PUSH1 0x40 DUP4 ADD DUP8 PUSH2 0xEEF JUMP JUMPDEST DUP2 DUP2 SUB PUSH1 0x60 DUP4 ADD MSTORE PUSH2 0x1B86 DUP2 DUP7 PUSH2 0xEAC JUMP JUMPDEST SWAP1 POP PUSH2 0x1B95 PUSH1 0x80 DUP4 ADD DUP6 PUSH2 0x1AD9 JUMP JUMPDEST DUP2 DUP2 SUB PUSH1 0xA0 DUP4 ADD MSTORE PUSH2 0x1BA7 DUP2 DUP5 PUSH2 0x1B02 JUMP JUMPDEST SWAP1 POP SWAP7 SWAP6 POP POP POP POP POP POP JUMP JUMPDEST PUSH0 DUP2 SWAP1 POP SWAP3 SWAP2 POP POP JUMP JUMPDEST PUSH0 DUP2 SWAP1 POP DUP2 PUSH0 MSTORE PUSH1 0x20 PUSH0 KECCAK256 SWAP1 POP SWAP2 SWAP1 POP JUMP JUMPDEST PUSH0 DUP2 SLOAD PUSH2 0x1BDB DUP2 PUSH2 0x12CB JUMP JUMPDEST PUSH2 0x1BE5 DUP2 DUP7 PUSH2 0x1BB3 JUMP JUMPDEST SWAP5 POP PUSH1 0x1 DUP3 AND PUSH0 DUP2 EQ PUSH2 0x1BFF JUMPI PUSH1 0x1 DUP2 EQ PUSH2 0x1C14 JUMPI PUSH2 0x1C46 JUMP JUMPDEST PUSH1 0xFF NOT DUP4 AND DUP7 MSTORE DUP2 ISZERO ISZERO DUP3 MUL DUP7 ADD SWAP4 POP PUSH2 0x1C46 JUMP JUMPDEST PUSH2 0x1C1D DUP6 PUSH2 0x1BBD JUMP JUMPDEST PUSH0 JUMPDEST DUP4 DUP2 LT ISZERO PUSH2 0x1C3E JUMPI DUP2 SLOAD DUP2 DUP10 ADD MSTORE PUSH1 0x1 DUP3 ADD SWAP2 POP PUSH1 0x20 DUP2 ADD SWAP1 POP PUSH2 0x1C1F JUMP JUMPDEST DUP4 DUP9 ADD SWAP6 POP POP POP JUMPDEST POP POP POP SWAP3 SWAP2 POP POP JUMP JUMPDEST PUSH0 PUSH2 0x1C5A DUP3 DUP5 PUSH2 0x1BCF JUMP JUMPDEST SWAP2 POP DUP2 SWAP1 POP SWAP3 SWAP2 POP POP JUMP JUMPDEST PUSH32 0x436F6D706172696E672049447300000000000000000000000000000000000000 PUSH0 DUP3 ADD MSTORE POP JUMP JUMPDEST PUSH0 PUSH2 0x1C99 PUSH1 0xD DUP4 PUSH2 0xE8E JUMP JUMPDEST SWAP2 POP PUSH2 0x1CA4 DUP3 PUSH2 0x1C65 JUMP JUMPDEST PUSH1 0x20 DUP3 ADD SWAP1 POP SWAP2 SWAP1 POP JUMP JUMPDEST PUSH0 DUP2 SLOAD PUSH2 0x1CBB DUP2 PUSH2 0x12CB JUMP JUMPDEST PUSH2 0x1CC5 DUP2 DUP7 PUSH2 0xE8E JUMP JUMPDEST SWAP5 POP PUSH1 0x1 DUP3 AND PUSH0 DUP2 EQ PUSH2 0x1CDF JUMPI PUSH1 0x1 DUP2 EQ PUSH2 0x1CF5 JUMPI PUSH2 0x1D27 JUMP JUMPDEST PUSH1 0xFF NOT DUP4 AND DUP7 MSTORE DUP2 ISZERO ISZERO PUSH1 0x20 MUL DUP7 ADD SWAP4 POP PUSH2 0x1D27 JUMP JUMPDEST PUSH2 0x1CFE DUP6 PUSH2 0x16DE JUMP JUMPDEST PUSH0 JUMPDEST DUP4 DUP2 LT ISZERO PUSH2 0x1D1F JUMPI DUP2 SLOAD DUP2 DUP10 ADD MSTORE PUSH1 0x1 DUP3 ADD SWAP2 POP PUSH1 0x20 DUP2 ADD SWAP1 POP PUSH2 0x1D00 JUMP JUMPDEST DUP1 DUP9 ADD SWAP6 POP POP POP JUMPDEST POP POP POP SWAP3 SWAP2 POP POP JUMP JUMPDEST PUSH0 DUP2 SWAP1 POP SWAP2 SWAP1 POP JUMP JUMPDEST PUSH2 0x1D42 DUP2 PUSH2 0x1D30 JUMP JUMPDEST DUP3 MSTORE POP POP JUMP JUMPDEST PUSH0 PUSH1 0xA0 DUP3 ADD SWAP1 POP DUP2 DUP2 SUB PUSH0 DUP4 ADD MSTORE PUSH2 0x1D5F DUP2 PUSH2 0x1C8D JUMP JUMPDEST SWAP1 POP DUP2 DUP2 SUB PUSH1 0x20 DUP4 ADD MSTORE PUSH2 0x1D73 DUP2 DUP8 PUSH2 0x1CAF JUMP JUMPDEST SWAP1 POP DUP2 DUP2 SUB PUSH1 0x40 DUP4 ADD MSTORE PUSH2 0x1D87 DUP2 DUP7 PUSH2 0xEAC JUMP JUMPDEST SWAP1 POP PUSH2 0x1D96 PUSH1 0x60 DUP4 ADD DUP6 PUSH2 0x1D39 JUMP JUMPDEST PUSH2 0x1DA3 PUSH1 0x80 DUP4 ADD DUP5 PUSH2 0x1D39 JUMP JUMPDEST SWAP6 SWAP5 POP POP POP POP POP JUMP JUMPDEST PUSH32 0x4166746572206C6F6F6B75700000000000000000000000000000000000000000 PUSH0 DUP3 ADD MSTORE POP JUMP JUMPDEST PUSH0 PUSH2 0x1DE0 PUSH1 0xC DUP4 PUSH2 0xE8E JUMP JUMPDEST SWAP2 POP PUSH2 0x1DEB DUP3 PUSH2 0x1DAC JUMP JUMPDEST PUSH1 0x20 DUP3 ADD SWAP1 POP SWAP2 SWAP1 POP JUMP JUMPDEST PUSH0 PUSH1 0xC0 DUP3 ADD SWAP1 POP DUP2 DUP2 SUB PUSH0 DUP4 ADD MSTORE PUSH2 0x1E0D DUP2 PUSH2 0x1DD4 JUMP JUMPDEST SWAP1 POP DUP2 DUP2 SUB PUSH1 0x20 DUP4 ADD MSTORE PUSH2 0x1E21 DUP2 DUP9 PUSH2 0xEAC JUMP JUMPDEST SWAP1 POP PUSH2 0x1E30 PUSH1 0x40 DUP4 ADD DUP8 PUSH2 0xEEF JUMP JUMPDEST PUSH2 0x1E3D PUSH1 0x60 DUP4 ADD DUP7 PUSH2 0xEEF JUMP JUMPDEST PUSH2 0x1E4A PUSH1 0x80 DUP4 ADD DUP6 PUSH2 0xE75 JUMP JUMPDEST PUSH2 0x1E57 PUSH1 0xA0 DUP4 ADD DUP5 PUSH2 0xE75 JUMP JUMPDEST SWAP7 SWAP6 POP POP POP POP POP POP JUMP JUMPDEST PUSH0 PUSH1 0xC0 DUP3 ADD SWAP1 POP DUP2 DUP2 SUB PUSH0 DUP4 ADD MSTORE PUSH2 0x1E78 DUP2 PUSH2 0x1DD4 JUMP JUMPDEST SWAP1 POP DUP2 DUP2 SUB PUSH1 0x20 DUP4 ADD MSTORE PUSH2 0x1E8C DUP2 DUP9 PUSH2 0xEAC JUMP JUMPDEST SWAP1 POP PUSH2 0x1E9B PUSH1 0x40 DUP4 ADD DUP8 PUSH2 0xEEF JUMP JUMPDEST DUP2 DUP2 SUB PUSH1 0x60 DUP4 ADD MSTORE PUSH2 0x1EAD DUP2 DUP7 PUSH2 0xEAC JUMP JUMPDEST SWAP1 POP PUSH2 0x1EBC PUSH1 0x80 DUP4 ADD DUP6 PUSH2 0xE75 JUMP JUMPDEST DUP2 DUP2 SUB PUSH1 0xA0 DUP4 ADD MSTORE PUSH2 0x1ECE DUP2 DUP5 PUSH2 0x1B02 JUMP JUMPDEST SWAP1 POP SWAP7 SWAP6 POP POP POP POP POP POP JUMP JUMPDEST PUSH32 0x73746F704C6F7373000000000000000000000000000000000000000000000000 PUSH0 DUP3 ADD MSTORE POP JUMP JUMPDEST PUSH0 PUSH2 0x1F0E PUSH1 0x8 DUP4 PUSH2 0x11C6 JUMP JUMPDEST SWAP2 POP PUSH2 0x1F19 DUP3 PUSH2 0x1EDA JUMP JUMPDEST PUSH1 0x8 DUP3 ADD SWAP1 POP SWAP2 SWAP1 POP JUMP JUMPDEST PUSH0 PUSH2 0x1F2E DUP3 PUSH2 0x1F02 JUMP JUMPDEST SWAP2 POP DUP2 SWAP1 POP SWAP2 SWAP1 POP JUMP JUMPDEST PUSH32 0x6275794F72646572000000000000000000000000000000000000000000000000 PUSH0 DUP3 ADD MSTORE POP JUMP JUMPDEST PUSH0 PUSH2 0x1F6C PUSH1 0x8 DUP4 PUSH2 0x11C6 JUMP JUMPDEST SWAP2 POP PUSH2 0x1F77 DUP3 PUSH2 0x1F38 JUMP JUMPDEST PUSH1 0x8 DUP3 ADD SWAP1 POP SWAP2 SWAP1 POP JUMP JUMPDEST PUSH0 PUSH2 0x1F8C DUP3 PUSH2 0x1F60 JUMP JUMPDEST SWAP2 POP DUP2 SWAP1 POP SWAP2 SWAP1 POP JUMP JUMPDEST PUSH32 0x4265666F72652061637469766520636865636B00000000000000000000000000 PUSH0 DUP3 ADD MSTORE POP JUMP JUMPDEST PUSH0 PUSH2 0x1FCA PUSH1 0x13 DUP4 PUSH2 0xE8E JUMP JUMPDEST SWAP2 POP PUSH2 0x1FD5 DUP3 PUSH2 0x1F96 JUMP JUMPDEST PUSH1 0x20 DUP3 ADD SWAP1 POP SWAP2 SWAP1 POP JUMP JUMPDEST PUSH0 PUSH1 0xC0 DUP3 ADD SWAP1 POP DUP2 DUP2 SUB PUSH0 DUP4 ADD MSTORE PUSH2 0x1FF7 DUP2 PUSH2 0x1FBE JUMP JUMPDEST SWAP1 POP DUP2 DUP2 SUB PUSH1 0x20 DUP4 ADD MSTORE PUSH2 0x200B DUP2 DUP9 PUSH2 0xEAC JUMP JUMPDEST SWAP1 POP PUSH2 0x201A PUSH1 0x40 DUP4 ADD DUP8 PUSH2 0xEEF JUMP JUMPDEST DUP2 DUP2 SUB PUSH1 0x60 DUP4 ADD MSTORE PUSH2 0x202C DUP2 DUP7 PUSH2 0xEAC JUMP JUMPDEST SWAP1 POP PUSH2 0x203B PUSH1 0x80 DUP4 ADD DUP6 PUSH2 0xE75 JUMP JUMPDEST DUP2 DUP2 SUB PUSH1 0xA0 DUP4 ADD MSTORE PUSH2 0x204D DUP2 DUP5 PUSH2 0x1B02 JUMP JUMPDEST SWAP1 POP SWAP7 SWAP6 POP POP POP POP POP POP JUMP JUMPDEST PUSH32 0x55736572207468726573686F6C647320617265206E6F74206163746976650000 PUSH0 DUP3 ADD MSTORE POP JUMP JUMPDEST PUSH0 PUSH2 0x208D PUSH1 0x1E DUP4 PUSH2 0xE8E JUMP JUMPDEST SWAP2 POP PUSH2 0x2098 DUP3 PUSH2 0x2059 JUMP JUMPDEST PUSH1 0x20 DUP3 ADD SWAP1 POP SWAP2 SWAP1 POP JUMP JUMPDEST PUSH0 PUSH1 0x20 DUP3 ADD SWAP1 POP DUP2 DUP2 SUB PUSH0 DUP4 ADD MSTORE PUSH2 0x20BA DUP2 PUSH2 0x2081 JUMP JUMPDEST SWAP1 POP SWAP2 SWAP1 POP JUMP JUMPDEST PUSH32 0x4E487B7100000000000000000000000000000000000000000000000000000000 PUSH0 MSTORE PUSH1 0x11 PUSH1 0x4 MSTORE PUSH1 0x24 PUSH0 REVERT JUMPDEST PUSH0 PUSH2 0x20F8 DUP3 PUSH2 0xE6C JUMP JUMPDEST SWAP2 POP PUSH2 0x2103 DUP4 PUSH2 0xE6C JUMP JUMPDEST SWAP3 POP DUP3 DUP3 ADD SWAP1 POP DUP1 DUP3 GT ISZERO PUSH2 0x211B JUMPI PUSH2 0x211A PUSH2 0x20C1 JUMP JUMPDEST JUMPDEST SWAP3 SWAP2 POP POP JUMP JUMPDEST PUSH0 DUP3 DUP3 MSTORE PUSH1 0x20 DUP3 ADD SWAP1 POP SWAP3 SWAP2 POP POP JUMP JUMPDEST PUSH0 PUSH2 0x213B DUP3 PUSH2 0x1AE8 JUMP JUMPDEST PUSH2 0x2145 DUP2 DUP6 PUSH2 0x2121 JUMP JUMPDEST SWAP4 POP PUSH2 0x2155 DUP2 DUP6 PUSH1 0x20 DUP7 ADD PUSH2 0xE9E JUMP JUMPDEST PUSH2 0x215E DUP2 PUSH2 0xC99 JUMP JUMPDEST DUP5 ADD SWAP2 POP POP SWAP3 SWAP2 POP POP JUMP JUMPDEST PUSH2 0x2172 DUP2 PUSH2 0xE33 JUMP JUMPDEST DUP3 MSTORE POP POP JUMP JUMPDEST PUSH2 0x2181 DUP2 PUSH2 0xE6C JUMP JUMPDEST DUP3 MSTORE POP POP JUMP JUMPDEST PUSH0 PUSH1 0xA0 DUP4 ADD PUSH0 DUP4 ADD MLOAD DUP5 DUP3 SUB PUSH0 DUP7 ADD MSTORE PUSH2 0x21A1 DUP3 DUP3 PUSH2 0x2131 JUMP JUMPDEST SWAP2 POP POP PUSH1 0x20 DUP4 ADD MLOAD PUSH2 0x21B6 PUSH1 0x20 DUP7 ADD DUP3 PUSH2 0x2169 JUMP JUMPDEST POP PUSH1 0x40 DUP4 ADD MLOAD PUSH2 0x21C9 PUSH1 0x40 DUP7 ADD DUP3 PUSH2 0x2178 JUMP JUMPDEST POP PUSH1 0x60 DUP4 ADD MLOAD PUSH2 0x21DC PUSH1 0x60 DUP7 ADD DUP3 PUSH2 0x2178 JUMP JUMPDEST POP PUSH1 0x80 DUP4 ADD MLOAD PUSH2 0x21EF PUSH1 0x80 DUP7 ADD DUP3 PUSH2 0x2178 JUMP JUMPDEST POP DUP1 SWAP2 POP POP SWAP3 SWAP2 POP POP JUMP JUMPDEST PUSH0 PUSH1 0x20 DUP3 ADD SWAP1 POP DUP2 DUP2 SUB PUSH0 DUP4 ADD MSTORE PUSH2 0x2212 DUP2 DUP5 PUSH2 0x2187 JUMP JUMPDEST SWAP1 POP SWAP3 SWAP2 POP POP JUMP JUMPDEST PUSH0 DUP2 MLOAD SWAP1 POP PUSH2 0x2228 DUP2 PUSH2 0xF8B JUMP JUMPDEST SWAP3 SWAP2 POP POP JUMP JUMPDEST PUSH0 PUSH1 0x20 DUP3 DUP5 SUB SLT ISZERO PUSH2 0x2243 JUMPI PUSH2 0x2242 PUSH2 0xC89 JUMP JUMPDEST JUMPDEST PUSH0 PUSH2 0x2250 DUP5 DUP3 DUP6 ADD PUSH2 0x221A JUMP JUMPDEST SWAP2 POP POP SWAP3 SWAP2 POP POP JUMP JUMPDEST PUSH0 PUSH1 0xA0 DUP3 ADD SWAP1 POP DUP2 DUP2 SUB PUSH0 DUP4 ADD MSTORE PUSH2 0x2271 DUP2 DUP9 PUSH2 0xEAC JUMP JUMPDEST SWAP1 POP DUP2 DUP2 SUB PUSH1 0x20 DUP4 ADD MSTORE PUSH2 0x2285 DUP2 DUP8 PUSH2 0xEAC JUMP JUMPDEST SWAP1 POP PUSH2 0x2294 PUSH1 0x40 DUP4 ADD DUP7 PUSH2 0xE75 JUMP JUMPDEST PUSH2 0x22A1 PUSH1 0x60 DUP4 ADD DUP6 PUSH2 0xE44 JUMP JUMPDEST PUSH2 0x22AE PUSH1 0x80 DUP4 ADD DUP5 PUSH2 0xE75 JUMP JUMPDEST SWAP7 SWAP6 POP POP POP POP POP POP JUMP JUMPDEST PUSH0 PUSH2 0x22C2 DUP3 PUSH2 0xE6C JUMP JUMPDEST SWAP2 POP PUSH2 0x22CD DUP4 PUSH2 0xE6C JUMP JUMPDEST SWAP3 POP DUP3 DUP3 MUL PUSH2 0x22DB DUP2 PUSH2 0xE6C JUMP JUMPDEST SWAP2 POP DUP3 DUP3 DIV DUP5 EQ DUP4 ISZERO OR PUSH2 0x22F2 JUMPI PUSH2 0x22F1 PUSH2 0x20C1 JUMP JUMPDEST JUMPDEST POP SWAP3 SWAP2 POP POP JUMP JUMPDEST PUSH32 0x4E487B7100000000000000000000000000000000000000000000000000000000 PUSH0 MSTORE PUSH1 0x12 PUSH1 0x4 MSTORE PUSH1 0x24 PUSH0 REVERT JUMPDEST PUSH0 PUSH2 0x2330 DUP3 PUSH2 0xE6C JUMP JUMPDEST SWAP2 POP PUSH2 0x233B DUP4 PUSH2 0xE6C JUMP JUMPDEST SWAP3 POP DUP3 PUSH2 0x234B JUMPI PUSH2 0x234A PUSH2 0x22F9 JUMP JUMPDEST JUMPDEST DUP3 DUP3 DIV SWAP1 POP SWAP3 SWAP2 POP POP JUMP INVALID LOG2 PUSH5 0x6970667358 0x22 SLT KECCAK256 LOG4 0x1E CALLVALUE BYTE 0xD1 CALL SLOAD SELFBALANCE CALLCODE DUP1 PUSH1 0x26 SHL 0xA8 0xEB 0xD 0x2C 0xEB 0xC9 ADDRESS 0xDF 0xE6 TSTORE BALANCE SLT PUSH0 RETURNDATACOPY GAS 0xB0 DUP10 SELFDESTRUCT SHL PUSH5 0x736F6C6343 STOP ADDMOD BYTE STOP CALLER "
		},
		"gasEstimates": {
			"creation": {
				"codeDepositCost": "1820000",
				"executionCost": "infinite",
				"totalCost": "infinite"
			},
			"external": {
				"currentPrice()": "2469",
				"deactivateThresholds(string)": "infinite",
				"executeTradeForUser(string,string,bytes)": "infinite",
				"owner()": "2505",
				"setThresholds(uint256,uint256,string,address,uint256,uint256)": "infinite",
				"userThresholds(string)": "infinite"
			},
			"internal": {
				"calculateMinimumAmountOut(uint256,uint256)": "infinite"
			}
		},
		"methodIdentifiers": {
			"currentPrice()": "9d1b464a",
			"deactivateThresholds(string)": "552f9a8f",
			"executeTradeForUser(string,string,bytes)": "d3c0eac3",
			"owner()": "8da5cb5b",
			"setThresholds(uint256,uint256,string,address,uint256,uint256)": "b5fa3dbd",
			"userThresholds(string)": "9286eddb"
		}
	},
	"abi": [
		{
			"inputs": [
				{
					"internalType": "address",
					"name": "_owner",
					"type": "address"
				}
			],
			"stateMutability": "nonpayable",
			"type": "constructor"
		},
		{
			"anonymous": false,
			"inputs": [
				{
					"indexed": false,
					"internalType": "string",
					"name": "message",
					"type": "string"
				},
				{
					"indexed": false,
					"internalType": "string",
					"name": "hederaAccountId",
					"type": "string"
				},
				{
					"indexed": false,
					"internalType": "bool",
					"name": "isActive",
					"type": "bool"
				},
				{
					"indexed": false,
					"internalType": "string",
					"name": "orderType",
					"type": "string"
				},
				{
					"indexed": false,
					"internalType": "uint256",
					"name": "amount",
					"type": "uint256"
				},
				{
					"indexed": false,
					"internalType": "bytes",
					"name": "path",
					"type": "bytes"
				}
			],
			"name": "ExecuteTradeDebug",
			"type": "event"
		},
		{
			"anonymous": false,
			"inputs": [
				{
					"indexed": false,
					"internalType": "string",
					"name": "hederaAccountId",
					"type": "string"
				},
				{
					"indexed": false,
					"internalType": "string",
					"name": "orderType",
					"type": "string"
				},
				{
					"indexed": false,
					"internalType": "uint256",
					"name": "currentPrice",
					"type": "uint256"
				},
				{
					"indexed": false,
					"internalType": "address",
					"name": "tokenAddress",
					"type": "address"
				},
				{
					"indexed": false,
					"internalType": "uint256",
					"name": "amountOut",
					"type": "uint256"
				}
			],
			"name": "OrderExecuted",
			"type": "event"
		},
		{
			"anonymous": false,
			"inputs": [
				{
					"indexed": false,
					"internalType": "string",
					"name": "message",
					"type": "string"
				},
				{
					"indexed": false,
					"internalType": "string",
					"name": "stored",
					"type": "string"
				},
				{
					"indexed": false,
					"internalType": "string",
					"name": "lookup",
					"type": "string"
				},
				{
					"indexed": false,
					"internalType": "bytes32",
					"name": "storedHash",
					"type": "bytes32"
				},
				{
					"indexed": false,
					"internalType": "bytes32",
					"name": "lookupHash",
					"type": "bytes32"
				}
			],
			"name": "StringCompare",
			"type": "event"
		},
		{
			"anonymous": false,
			"inputs": [
				{
					"indexed": false,
					"internalType": "string",
					"name": "message",
					"type": "string"
				},
				{
					"indexed": false,
					"internalType": "string",
					"name": "hederaAccountId",
					"type": "string"
				},
				{
					"indexed": false,
					"internalType": "bool",
					"name": "exists",
					"type": "bool"
				},
				{
					"indexed": false,
					"internalType": "bool",
					"name": "isActive",
					"type": "bool"
				},
				{
					"indexed": false,
					"internalType": "uint256",
					"name": "stopLossAmount",
					"type": "uint256"
				},
				{
					"indexed": false,
					"internalType": "uint256",
					"name": "buyOrderAmount",
					"type": "uint256"
				}
			],
			"name": "ThresholdDebug",
			"type": "event"
		},
		{
			"anonymous": false,
			"inputs": [
				{
					"indexed": false,
					"internalType": "string",
					"name": "hederaAccountId",
					"type": "string"
				}
			],
			"name": "ThresholdsDeactivated",
			"type": "event"
		},
		{
			"anonymous": false,
			"inputs": [
				{
					"indexed": false,
					"internalType": "string",
					"name": "hederaAccountId",
					"type": "string"
				},
				{
					"indexed": false,
					"internalType": "uint256",
					"name": "stopLossThreshold",
					"type": "uint256"
				},
				{
					"indexed": false,
					"internalType": "uint256",
					"name": "buyOrderThreshold",
					"type": "uint256"
				},
				{
					"indexed": false,
					"internalType": "address",
					"name": "tokenAddress",
					"type": "address"
				},
				{
					"indexed": false,
					"internalType": "uint256",
					"name": "stopLossAmount",
					"type": "uint256"
				},
				{
					"indexed": false,
					"internalType": "uint256",
					"name": "buyOrderAmount",
					"type": "uint256"
				}
			],
			"name": "ThresholdsSet",
			"type": "event"
		},
		{
			"inputs": [],
			"name": "currentPrice",
			"outputs": [
				{
					"internalType": "uint256",
					"name": "",
					"type": "uint256"
				}
			],
			"stateMutability": "view",
			"type": "function"
		},
		{
			"inputs": [
				{
					"internalType": "string",
					"name": "hederaAccountId",
					"type": "string"
				}
			],
			"name": "deactivateThresholds",
			"outputs": [],
			"stateMutability": "nonpayable",
			"type": "function"
		},
		{
			"inputs": [
				{
					"internalType": "string",
					"name": "hederaAccountId",
					"type": "string"
				},
				{
					"internalType": "string",
					"name": "orderType",
					"type": "string"
				},
				{
					"internalType": "bytes",
					"name": "path",
					"type": "bytes"
				}
			],
			"name": "executeTradeForUser",
			"outputs": [],
			"stateMutability": "nonpayable",
			"type": "function"
		},
		{
			"inputs": [],
			"name": "owner",
			"outputs": [
				{
					"internalType": "address",
					"name": "",
					"type": "address"
				}
			],
			"stateMutability": "view",
			"type": "function"
		},
		{
			"inputs": [
				{
					"internalType": "uint256",
					"name": "_stopLossThreshold",
					"type": "uint256"
				},
				{
					"internalType": "uint256",
					"name": "_buyOrderThreshold",
					"type": "uint256"
				},
				{
					"internalType": "string",
					"name": "_hederaAccountId",
					"type": "string"
				},
				{
					"internalType": "address",
					"name": "_tokenAddress",
					"type": "address"
				},
				{
					"internalType": "uint256",
					"name": "_stopLossAmount",
					"type": "uint256"
				},
				{
					"internalType": "uint256",
					"name": "_buyOrderAmount",
					"type": "uint256"
				}
			],
			"name": "setThresholds",
			"outputs": [],
			"stateMutability": "nonpayable",
			"type": "function"
		},
		{
			"inputs": [
				{
					"internalType": "string",
					"name": "",
					"type": "string"
				}
			],
			"name": "userThresholds",
			"outputs": [
				{
					"internalType": "uint256",
					"name": "stopLossThreshold",
					"type": "uint256"
				},
				{
					"internalType": "uint256",
					"name": "buyOrderThreshold",
					"type": "uint256"
				},
				{
					"internalType": "string",
					"name": "hederaAccountId",
					"type": "string"
				},
				{
					"internalType": "address",
					"name": "tokenAddress",
					"type": "address"
				},
				{
					"internalType": "uint256",
					"name": "stopLossAmount",
					"type": "uint256"
				},
				{
					"internalType": "uint256",
					"name": "buyOrderAmount",
					"type": "uint256"
				},
				{
					"internalType": "bool",
					"name": "isActive",
					"type": "bool"
				}
			],
			"stateMutability": "view",
			"type": "function"
		}
	]
}