{
  "_format": "hh-sol-artifact-1",
  "contractName": "HederaEthereumMapping",
  "sourceName": "src/app/contracts/associateAccounts.sol",
  "abi": [
    {
      "inputs": [
        {
          "internalType": "string",
          "name": "hederaAccountId",
          "type": "string"
        },
        {
          "internalType": "address",
          "name": "ethereumAddress",
          "type": "address"
        }
      ],
      "name": "associate",
      "outputs": [],
      "stateMutability": "nonpayable",
      "type": "function"
    },
    {
      "inputs": [
        {
          "internalType": "string",
          "name": "hederaAccountId",
          "type": "string"
        }
      ],
      "name": "getEthereumAddress",
      "outputs": [
        {
          "internalType": "address",
          "name": "",
          "type": "address"
        }
      ],
      "stateMutability": "view",
      "type": "function"
    },
    {
      "inputs": [
        {
          "internalType": "string",
          "name": "",
          "type": "string"
        }
      ],
      "name": "hederaToEthereum",
      "outputs": [
        {
          "internalType": "address",
          "name": "",
          "type": "address"
        }
      ],
      "stateMutability": "view",
      "type": "function"
    }
  ],
  "bytecode": "0x608060405234801561001057600080fd5b506102d5806100206000396000f3fe608060405234801561001057600080fd5b50600436106100415760003560e01c80635312a1ce146100465780638d54040a14610075578063933752da1461008a575b600080fd5b6100596100543660046101d5565b6100be565b6040516001600160a01b03909116815260200160405180910390f35b610088610083366004610212565b6100ee565b005b6100596100983660046101d5565b80516020818301810180516000825292820191909301209152546001600160a01b031681565b600080826040516100cf9190610270565b908152604051908190036020019020546001600160a01b031692915050565b806000836040516100ff9190610270565b90815260405190819003602001902080546001600160a01b03929092166001600160a01b03199092169190911790555050565b634e487b7160e01b600052604160045260246000fd5b600082601f83011261015957600080fd5b813567ffffffffffffffff8082111561017457610174610132565b604051601f8301601f19908116603f0116810190828211818310171561019c5761019c610132565b816040528381528660208588010111156101b557600080fd5b836020870160208301376000602085830101528094505050505092915050565b6000602082840312156101e757600080fd5b813567ffffffffffffffff8111156101fe57600080fd5b61020a84828501610148565b949350505050565b6000806040838503121561022557600080fd5b823567ffffffffffffffff81111561023c57600080fd5b61024885828601610148565b92505060208301356001600160a01b038116811461026557600080fd5b809150509250929050565b6000825160005b818110156102915760208186018101518583015201610277565b50600092019182525091905056fea2646970667358221220f9fff15633c96a96c65c7483d34f8ec4ab74aa979dcf6f33a5096eeb207e703e64736f6c63430008140033",
  "linkReferences": {},
  "deployedLinkReferences": {}
}