{
  "_format": "hh-sol-artifact-1",
  "contractName": "MockHederaTokenService",
  "sourceName": "src/app/contracts/MockHederaTokenService.sol",
  "abi": [
    {
      "inputs": [],
      "stateMutability": "nonpayable",
      "type": "constructor"
    },
    {
      "inputs": [
        {
          "internalType": "uint256",
          "name": "allowance",
          "type": "uint256"
        },
        {
          "internalType": "uint256",
          "name": "required",
          "type": "uint256"
        }
      ],
      "name": "InsufficientClxyAllowance",
      "type": "error"
    },
    {
      "inputs": [
        {
          "internalType": "uint256",
          "name": "allowance",
          "type": "uint256"
        },
        {
          "internalType": "uint256",
          "name": "required",
          "type": "uint256"
        }
      ],
      "name": "InsufficientSauceAllowance",
      "type": "error"
    },
    {
      "inputs": [
        {
          "internalType": "address",
          "name": "token",
          "type": "address"
        },
        {
          "internalType": "address",
          "name": "caller",
          "type": "address"
        }
      ],
      "name": "NoSupplyKeyPermission",
      "type": "error"
    },
    {
      "anonymous": false,
      "inputs": [
        {
          "indexed": true,
          "internalType": "address",
          "name": "account",
          "type": "address"
        },
        {
          "indexed": true,
          "internalType": "address",
          "name": "token",
          "type": "address"
        }
      ],
      "name": "TokenAssociated",
      "type": "event"
    },
    {
      "anonymous": false,
      "inputs": [
        {
          "indexed": true,
          "internalType": "address",
          "name": "token",
          "type": "address"
        },
        {
          "indexed": false,
          "internalType": "uint256",
          "name": "amount",
          "type": "uint256"
        }
      ],
      "name": "TokenBurned",
      "type": "event"
    },
    {
      "anonymous": false,
      "inputs": [
        {
          "indexed": true,
          "internalType": "address",
          "name": "token",
          "type": "address"
        },
        {
          "indexed": false,
          "internalType": "string",
          "name": "name",
          "type": "string"
        },
        {
          "indexed": false,
          "internalType": "string",
          "name": "symbol",
          "type": "string"
        },
        {
          "indexed": false,
          "internalType": "address",
          "name": "treasury",
          "type": "address"
        }
      ],
      "name": "TokenCreated",
      "type": "event"
    },
    {
      "anonymous": false,
      "inputs": [
        {
          "indexed": true,
          "internalType": "address",
          "name": "token",
          "type": "address"
        },
        {
          "indexed": false,
          "internalType": "uint256",
          "name": "amount",
          "type": "uint256"
        }
      ],
      "name": "TokenMinted",
      "type": "event"
    },
    {
      "anonymous": false,
      "inputs": [
        {
          "indexed": true,
          "internalType": "address",
          "name": "token",
          "type": "address"
        },
        {
          "indexed": true,
          "internalType": "address",
          "name": "from",
          "type": "address"
        },
        {
          "indexed": true,
          "internalType": "address",
          "name": "to",
          "type": "address"
        },
        {
          "indexed": false,
          "internalType": "uint256",
          "name": "amount",
          "type": "uint256"
        }
      ],
      "name": "TokenTransferred",
      "type": "event"
    },
    {
      "inputs": [
        {
          "internalType": "address",
          "name": "token",
          "type": "address"
        },
        {
          "internalType": "address",
          "name": "owner",
          "type": "address"
        },
        {
          "internalType": "address",
          "name": "spender",
          "type": "address"
        }
      ],
      "name": "allowance",
      "outputs": [
        {
          "internalType": "uint256",
          "name": "",
          "type": "uint256"
        }
      ],
      "stateMutability": "view",
      "type": "function"
    },
    {
      "inputs": [
        {
          "internalType": "address",
          "name": "account",
          "type": "address"
        },
        {
          "internalType": "address",
          "name": "token",
          "type": "address"
        }
      ],
      "name": "associateToken",
      "outputs": [
        {
          "internalType": "int64",
          "name": "",
          "type": "int64"
        }
      ],
      "stateMutability": "nonpayable",
      "type": "function"
    },
    {
      "inputs": [
        {
          "internalType": "address",
          "name": "token",
          "type": "address"
        },
        {
          "internalType": "address",
          "name": "account",
          "type": "address"
        }
      ],
      "name": "balanceOf",
      "outputs": [
        {
          "internalType": "uint256",
          "name": "",
          "type": "uint256"
        }
      ],
      "stateMutability": "view",
      "type": "function"
    },
    {
      "inputs": [
        {
          "internalType": "address",
          "name": "token",
          "type": "address"
        },
        {
          "internalType": "uint256",
          "name": "amount",
          "type": "uint256"
        },
        {
          "internalType": "bytes[]",
          "name": "",
          "type": "bytes[]"
        }
      ],
      "name": "burnToken",
      "outputs": [
        {
          "internalType": "int64",
          "name": "",
          "type": "int64"
        }
      ],
      "stateMutability": "nonpayable",
      "type": "function"
    },
    {
      "inputs": [
        {
          "components": [
            {
              "internalType": "string",
              "name": "name",
              "type": "string"
            },
            {
              "internalType": "string",
              "name": "symbol",
              "type": "string"
            },
            {
              "internalType": "address",
              "name": "treasury",
              "type": "address"
            },
            {
              "internalType": "string",
              "name": "memo",
              "type": "string"
            },
            {
              "internalType": "bool",
              "name": "supplyType",
              "type": "bool"
            },
            {
              "internalType": "uint32",
              "name": "maxSupply",
              "type": "uint32"
            },
            {
              "internalType": "bool",
              "name": "freezeDefault",
              "type": "bool"
            },
            {
              "internalType": "address[]",
              "name": "freezeKey",
              "type": "address[]"
            },
            {
              "internalType": "address[]",
              "name": "wipeKey",
              "type": "address[]"
            },
            {
              "internalType": "address[]",
              "name": "supplyKey",
              "type": "address[]"
            },
            {
              "internalType": "address[]",
              "name": "adminKey",
              "type": "address[]"
            },
            {
              "internalType": "address[]",
              "name": "kycKey",
              "type": "address[]"
            },
            {
              "internalType": "uint8",
              "name": "decimals",
              "type": "uint8"
            }
          ],
          "internalType": "struct IHederaTokenService.HederaToken",
          "name": "token",
          "type": "tuple"
        },
        {
          "internalType": "uint256",
          "name": "initialTotalSupply",
          "type": "uint256"
        },
        {
          "internalType": "uint8[]",
          "name": "keys",
          "type": "uint8[]"
        },
        {
          "internalType": "address[]",
          "name": "keyAddresses",
          "type": "address[]"
        }
      ],
      "name": "createToken",
      "outputs": [
        {
          "internalType": "int64",
          "name": "responseCode",
          "type": "int64"
        },
        {
          "internalType": "address",
          "name": "tokenAddress",
          "type": "address"
        }
      ],
      "stateMutability": "payable",
      "type": "function"
    },
    {
      "inputs": [],
      "name": "getMockHtsPrecompile",
      "outputs": [
        {
          "internalType": "address",
          "name": "",
          "type": "address"
        }
      ],
      "stateMutability": "view",
      "type": "function"
    },
    {
      "inputs": [
        {
          "internalType": "address",
          "name": "token",
          "type": "address"
        }
      ],
      "name": "getSupplyKeyHolder",
      "outputs": [
        {
          "internalType": "address",
          "name": "",
          "type": "address"
        }
      ],
      "stateMutability": "view",
      "type": "function"
    },
    {
      "inputs": [
        {
          "internalType": "address",
          "name": "token",
          "type": "address"
        },
        {
          "internalType": "address",
          "name": "supplyAddress",
          "type": "address"
        }
      ],
      "name": "isSupplyKey",
      "outputs": [
        {
          "internalType": "bool",
          "name": "",
          "type": "bool"
        }
      ],
      "stateMutability": "view",
      "type": "function"
    },
    {
      "inputs": [
        {
          "internalType": "address",
          "name": "account",
          "type": "address"
        },
        {
          "internalType": "address",
          "name": "token",
          "type": "address"
        }
      ],
      "name": "isTokenAssociated",
      "outputs": [
        {
          "internalType": "bool",
          "name": "",
          "type": "bool"
        }
      ],
      "stateMutability": "view",
      "type": "function"
    },
    {
      "inputs": [
        {
          "internalType": "address",
          "name": "token",
          "type": "address"
        },
        {
          "internalType": "uint256",
          "name": "amount",
          "type": "uint256"
        },
        {
          "internalType": "bytes[]",
          "name": "",
          "type": "bytes[]"
        }
      ],
      "name": "mintToken",
      "outputs": [
        {
          "internalType": "int64",
          "name": "",
          "type": "int64"
        }
      ],
      "stateMutability": "nonpayable",
      "type": "function"
    },
    {
      "inputs": [
        {
          "internalType": "int64",
          "name": "responseCode",
          "type": "int64"
        },
        {
          "internalType": "address",
          "name": "tokenAddress",
          "type": "address"
        }
      ],
      "name": "mockCreateTokenResponse",
      "outputs": [],
      "stateMutability": "nonpayable",
      "type": "function"
    },
    {
      "inputs": [
        {
          "internalType": "address",
          "name": "token",
          "type": "address"
        },
        {
          "internalType": "address",
          "name": "supplyAddress",
          "type": "address"
        },
        {
          "internalType": "bool",
          "name": "result",
          "type": "bool"
        }
      ],
      "name": "mockIsSupplyKey",
      "outputs": [],
      "stateMutability": "nonpayable",
      "type": "function"
    },
    {
      "inputs": [
        {
          "internalType": "address",
          "name": "token",
          "type": "address"
        },
        {
          "internalType": "address",
          "name": "owner",
          "type": "address"
        },
        {
          "internalType": "address",
          "name": "spender",
          "type": "address"
        },
        {
          "internalType": "uint256",
          "name": "amount",
          "type": "uint256"
        }
      ],
      "name": "setAllowance",
      "outputs": [],
      "stateMutability": "nonpayable",
      "type": "function"
    },
    {
      "inputs": [
        {
          "internalType": "address",
          "name": "token",
          "type": "address"
        },
        {
          "internalType": "address",
          "name": "account",
          "type": "address"
        },
        {
          "internalType": "uint256",
          "name": "amount",
          "type": "uint256"
        }
      ],
      "name": "setBalance",
      "outputs": [],
      "stateMutability": "nonpayable",
      "type": "function"
    },
    {
      "inputs": [
        {
          "internalType": "address",
          "name": "token",
          "type": "address"
        },
        {
          "internalType": "bool",
          "name": "enabled",
          "type": "bool"
        }
      ],
      "name": "setMintingEnabled",
      "outputs": [],
      "stateMutability": "nonpayable",
      "type": "function"
    },
    {
      "inputs": [
        {
          "internalType": "address",
          "name": "_mockHtsPrecompile",
          "type": "address"
        }
      ],
      "name": "setMockHtsPrecompile",
      "outputs": [],
      "stateMutability": "nonpayable",
      "type": "function"
    },
    {
      "inputs": [
        {
          "internalType": "bool",
          "name": "skip",
          "type": "bool"
        }
      ],
      "name": "setSkipSauceAllowanceCheck",
      "outputs": [],
      "stateMutability": "nonpayable",
      "type": "function"
    },
    {
      "inputs": [
        {
          "internalType": "address",
          "name": "token",
          "type": "address"
        },
        {
          "internalType": "address",
          "name": "supplyKeyHolder",
          "type": "address"
        }
      ],
      "name": "setSupplyKeyHolder",
      "outputs": [],
      "stateMutability": "nonpayable",
      "type": "function"
    },
    {
      "inputs": [
        {
          "internalType": "address",
          "name": "account",
          "type": "address"
        },
        {
          "internalType": "address",
          "name": "token",
          "type": "address"
        },
        {
          "internalType": "bool",
          "name": "associated",
          "type": "bool"
        }
      ],
      "name": "setTokenAssociated",
      "outputs": [],
      "stateMutability": "nonpayable",
      "type": "function"
    },
    {
      "inputs": [
        {
          "internalType": "address",
          "name": "token",
          "type": "address"
        },
        {
          "internalType": "address",
          "name": "from",
          "type": "address"
        },
        {
          "internalType": "address",
          "name": "to",
          "type": "address"
        },
        {
          "internalType": "uint256",
          "name": "amount",
          "type": "uint256"
        }
      ],
      "name": "transferToken",
      "outputs": [
        {
          "internalType": "int64",
          "name": "",
          "type": "int64"
        }
      ],
      "stateMutability": "nonpayable",
      "type": "function"
    },
    {
      "stateMutability": "payable",
      "type": "receive"
    }
  ],
  "bytecode": "0x60806040526008805460ff1916905534801561001a57600080fd5b507fa15bc60c955c405d20d9149c709e2460f1c2d9a497496a7f46004d1772c3054c805460ff1990811660019081179092557fc3a24b0501bd2c13a7e57f2db4369ec4c223447539fc0724a9d55ac4a06ebd4d80548216831790557fcbc4e5fb02c3d1de23a9f1e014b4d2ee5aeaea9505df5e855c9210bf472495af8054909116909117905560046020527fabd6e7cb50984ff9c2f3e18a2660c3353dadf4e3291deeb275dae2cd1e44fe0580546001600160a01b03199081169091557f91da3fd0782e51c6b3986e9e672fd566868e71f3dbc2d6c2cd6fbb3e361af2a780548216905560036000527f2e174c10e159ea99b867ce3205125c24a42d128804e4070ed6fcc8cc98166aa08054909116905561194a8061013a6000396000f3fe6080604052600436106101235760003560e01c8063927da105116100a0578063c1fcc80f11610064578063c1fcc80f14610521578063cc2456b71461054f578063ec12dc02146105a4578063f3fc76fa146105c4578063f7888aec146105e457600080fd5b8063927da10514610390578063a7070373146103ee578063a7796a901461043e578063ac9e6d7a14610493578063b5c9cbbe146104dc57600080fd5b806349146bde116100e757806349146bde146102535780634b8555a3146102735780634d2c5311146102ac5780635c34c68a14610317578063725fe8a41461034757600080fd5b806301b620ca1461012f57806303bd8900146101695780631abb194a146101a857806324a94e01146101ee5780632c54de4f1461022057600080fd5b3661012a57005b600080fd5b61014261013d366004611323565b610628565b6040805160079390930b83526001600160a01b039091166020830152015b60405180910390f35b34801561017557600080fd5b506101a661018436600461153e565b600580546001600160a01b0319166001600160a01b0392909216919091179055565b005b3480156101b457600080fd5b506101a66101c3366004611559565b6001600160a01b03919091166000908152600360205260409020805460ff1916911515919091179055565b3480156101fa57600080fd5b506005546001600160a01b03165b6040516001600160a01b039091168152602001610160565b34801561022c57600080fd5b5061024061023b36600461158c565b6109b5565b60405160079190910b8152602001610160565b34801561025f57600080fd5b5061024061026e3660046115d7565b610d88565b34801561027f57600080fd5b5061020861028e36600461153e565b6001600160a01b039081166000908152600460205260409020541690565b3480156102b857600080fd5b506101a66102c7366004611601565b6005805467ffffffffffffffff909316600160a01b0267ffffffffffffffff60a01b1990931692909217909155600680546001600160a01b039092166001600160a01b0319909216919091179055565b34801561032357600080fd5b506103376103323660046115d7565b610df0565b6040519015158152602001610160565b34801561035357600080fd5b506103376103623660046115d7565b6001600160a01b03918216600090815260026020908152604080832093909416825291909152205460ff1690565b34801561039c57600080fd5b506103e06103ab366004611625565b6001600160a01b0392831660009081526001602090815260408083209486168352938152838220929094168152925290205490565b604051908152602001610160565b3480156103fa57600080fd5b506101a661040936600461158c565b6001600160a01b0393841660009081526001602090815260408083209587168352948152848220939095168152919093522055565b34801561044a57600080fd5b506101a6610459366004611668565b6001600160a01b03928316600090815260026020908152604080832094909516825292909252919020805460ff1916911515919091179055565b34801561049f57600080fd5b506101a66104ae3660046115d7565b6001600160a01b03918216600090815260046020526040902080546001600160a01b03191691909216179055565b3480156104e857600080fd5b506101a66104f73660046116a2565b6001600160a01b039283166000908152602081815260408083209490951682529290925291902055565b34801561052d57600080fd5b506101a661053c3660046116de565b6008805460ff1916911515919091179055565b34801561055b57600080fd5b506101a661056a366004611668565b6001600160a01b03928316600090815260076020908152604080832094909516825292909252919020805460ff1916911515919091179055565b3480156105b057600080fd5b506102406105bf3660046116f9565b610e4f565b3480156105d057600080fd5b506102406105df3660046116f9565b610fa4565b3480156105f057600080fd5b506103e06105ff3660046115d7565b6001600160a01b0391821660009081526020818152604080832093909416825291909152205490565b60065460009081906001600160a01b0316156107f857505060068054600580546001600160a01b0319831690935567ffffffffffffffff60a01b19831690556001600160a01b03166000818152600360205260409020805460ff19166001179055600160a01b90910460070b9084156106c6576001600160a01b038082166000908152602081815260408083208a8201519094168352929052208590555b6040808701516001600160a01b03908116600090815260026020908152838220928516825291909152908120805460ff191660011790555b84518110156107a157848181518110610719576107196117dc565b602002602001015160ff1660040361078f5783818151811061073d5761073d6117dc565b602002602001015160046000846001600160a01b03166001600160a01b0316815260200190815260200160002060006101000a8154816001600160a01b0302191690836001600160a01b031602179055505b8061079981611808565b9150506106fe565b50806001600160a01b03167f6596c1670eb3390048d23721809c3da5d3f531375ac0e2cab0f77a808ed643318760000151886020015189604001516040516107eb93929190611871565b60405180910390a26109ac565b855160405161080e9142913391906020016118af565b60408051601f1981840301815291815281516020928301206001600160a01b038116600090815260039093529120805460ff191660011790559050841561087a576001600160a01b038082166000908152602081815260408083208a8201519094168352929052208590555b6040808701516001600160a01b03908116600090815260026020908152838220928516825291909152908120805460ff191660011790555b8451811015610955578481815181106108cd576108cd6117dc565b602002602001015160ff16600403610943578381815181106108f1576108f16117dc565b602002602001015160046000846001600160a01b03166001600160a01b0316815260200190815260200160002060006101000a8154816001600160a01b0302191690836001600160a01b031602179055505b8061094d81611808565b9150506108b2565b50806001600160a01b03167f6596c1670eb3390048d23721809c3da5d3f531375ac0e2cab0f77a808ed6433187600001518860200151896040015160405161099f93929190611871565b60405180910390a2600091505b94509492505050565b6001600160a01b03808416600090815260026020908152604080832093881683529290529081205460ff16610a315760405162461bcd60e51b815260206004820181905260248201527f546f6b656e206e6f74206173736f63696174656420776974682073656e64657260448201526064015b60405180910390fd5b6001600160a01b0380841660009081526002602090815260408083209389168352929052205460ff16610ab15760405162461bcd60e51b815260206004820152602260248201527f546f6b656e206e6f74206173736f63696174656420776974682072656365697660448201526132b960f11b6064820152608401610a28565b6001600160a01b0380861660009081526020818152604080832093881683529290522054821115610b1b5760405162461bcd60e51b8152602060048201526014602482015273496e73756666696369656e742062616c616e636560601b6044820152606401610a28565b6001600160a01b0384163314610cb0576001600160a01b038086166000818152600160209081526040808320948916835293815283822033835290529190912054906002148015610b6f575060085460ff16155b15610ba45782811015610b9f57604051636dc9c10b60e01b81526004810182905260248101849052604401610a28565b610c4a565b6001600160a01b038616600303610be05782811015610b9f576040516303ab67df60e01b81526004810182905260248101849052604401610a28565b60026001600160a01b038716141580610bfc575060085460ff16155b15610c4a5782811015610c4a5760405162461bcd60e51b8152602060048201526016602482015275496e73756666696369656e7420616c6c6f77616e636560501b6044820152606401610a28565b60026001600160a01b038716148015610c65575060085460ff165b610cae576001600160a01b038087166000908152600160209081526040808320938916835292815282822033835290529081208054859290610ca89084906118ee565b90915550505b505b6001600160a01b0380861660009081526020818152604080832093881683529290529081208054849290610ce59084906118ee565b90915550506001600160a01b0380861660009081526020818152604080832093871683529290529081208054849290610d1f908490611901565b92505081905550826001600160a01b0316846001600160a01b0316866001600160a01b03167f9af266b6ca4909f988dc948fb50ad15153abbe525351881bad4fa858be96515c85604051610d7591815260200190565b60405180910390a4506000949350505050565b6001600160a01b03808316600081815260026020908152604080832094861680845294909152808220805460ff1916600117905551909291907f6ba8f0debf54740777149db87bd08717b4dbdcb36073d53cdc784019dafac16f908490a35060005b92915050565b6001600160a01b03808316600090815260076020908152604080832093851683529290529081205460ff168015610e2b576001915050610dea565b50506001600160a01b03918216600090815260046020526040902054821691161490565b6001600160a01b03831660009081526003602052604081205460ff16610ec25760405162461bcd60e51b815260206004820152602260248201527f4d696e74696e67206e6f7420656e61626c656420666f72207468697320746f6b60448201526132b760f11b6064820152608401610a28565b6001600160a01b03808516600090815260046020526040902054168015801590610ef55750336001600160a01b03821614155b15610f2457604051630d27cbf560e11b81526001600160a01b0386166004820152336024820152604401610a28565b6001600160a01b03851660009081526020818152604080832033845290915281208054869290610f55908490611901565b90915550506040518481526001600160a01b038616907fb9144c96c86541f6fa89c9f2f02495cccf4b08cd6643e26d34ee00aa586558a8906020015b60405180910390a2506000949350505050565b6001600160a01b038084166000908152600460205260408120549091168015801590610fd95750336001600160a01b03821614155b1561100857604051630d27cbf560e11b81526001600160a01b0386166004820152336024820152604401610a28565b6001600160a01b0385166000908152602081815260408083203384529091529020548411156110795760405162461bcd60e51b815260206004820152601c60248201527f496e73756666696369656e742062616c616e636520746f206275726e000000006044820152606401610a28565b6001600160a01b038516600090815260208181526040808320338452909152812080548692906110aa9084906118ee565b90915550506040518481526001600160a01b038616907f1af5163f80e79b5e554f61e1d052084d3a3fe1166e42a265798c4e2ddce8ffa290602001610f91565b634e487b7160e01b600052604160045260246000fd5b6040516101a0810167ffffffffffffffff81118282101715611124576111246110ea565b60405290565b604051601f8201601f1916810167ffffffffffffffff81118282101715611153576111536110ea565b604052919050565b600067ffffffffffffffff831115611175576111756110ea565b611188601f8401601f191660200161112a565b905082815283838301111561119c57600080fd5b828260208301376000602084830101529392505050565b600082601f8301126111c457600080fd5b6111d38383356020850161115b565b9392505050565b80356001600160a01b03811681146111f157600080fd5b919050565b803580151581146111f157600080fd5b803563ffffffff811681146111f157600080fd5b600067ffffffffffffffff821115611234576112346110ea565b5060051b60200190565b600082601f83011261124f57600080fd5b8135602061126461125f8361121a565b61112a565b82815260059290921b8401810191818101908684111561128357600080fd5b8286015b848110156112a557611298816111da565b8352918301918301611287565b509695505050505050565b803560ff811681146111f157600080fd5b600082601f8301126112d257600080fd5b813560206112e261125f8361121a565b82815260059290921b8401810191818101908684111561130157600080fd5b8286015b848110156112a557611316816112b0565b8352918301918301611305565b6000806000806080858703121561133957600080fd5b843567ffffffffffffffff8082111561135157600080fd5b908601906101a0828903121561136657600080fd5b61136e611100565b82358281111561137d57600080fd5b6113898a8286016111b3565b82525060208301358281111561139e57600080fd5b6113aa8a8286016111b3565b6020830152506113bc604084016111da565b60408201526060830135828111156113d357600080fd5b6113df8a8286016111b3565b6060830152506113f1608084016111f6565b608082015261140260a08401611206565b60a082015261141360c084016111f6565b60c082015260e08301358281111561142a57600080fd5b6114368a82860161123e565b60e083015250610100808401358381111561145057600080fd5b61145c8b82870161123e565b828401525050610120808401358381111561147657600080fd5b6114828b82870161123e565b828401525050610140808401358381111561149c57600080fd5b6114a88b82870161123e565b82840152505061016080840135838111156114c257600080fd5b6114ce8b82870161123e565b8284015250506101806114e28185016112b0565b90820152955060208701359450604087013591508082111561150357600080fd5b61150f888389016112c1565b9350606087013591508082111561152557600080fd5b506115328782880161123e565b91505092959194509250565b60006020828403121561155057600080fd5b6111d3826111da565b6000806040838503121561156c57600080fd5b611575836111da565b9150611583602084016111f6565b90509250929050565b600080600080608085870312156115a257600080fd5b6115ab856111da565b93506115b9602086016111da565b92506115c7604086016111da565b9396929550929360600135925050565b600080604083850312156115ea57600080fd5b6115f3836111da565b9150611583602084016111da565b6000806040838503121561161457600080fd5b82358060070b81146115f357600080fd5b60008060006060848603121561163a57600080fd5b611643846111da565b9250611651602085016111da565b915061165f604085016111da565b90509250925092565b60008060006060848603121561167d57600080fd5b611686846111da565b9250611694602085016111da565b915061165f604085016111f6565b6000806000606084860312156116b757600080fd5b6116c0846111da565b92506116ce602085016111da565b9150604084013590509250925092565b6000602082840312156116f057600080fd5b6111d3826111f6565b60008060006060848603121561170e57600080fd5b611717846111da565b9250602080850135925060408086013567ffffffffffffffff8082111561173d57600080fd5b818801915088601f83011261175157600080fd5b813561175f61125f8261121a565b81815260059190911b8301850190858101908b83111561177e57600080fd5b8685015b838110156117ca5780358581111561179a5760008081fd5b8601603f81018e136117ac5760008081fd5b6117bc8e8a8301358a840161115b565b845250918701918701611782565b50809750505050505050509250925092565b634e487b7160e01b600052603260045260246000fd5b634e487b7160e01b600052601160045260246000fd5b60006001820161181a5761181a6117f2565b5060010190565b60005b8381101561183c578181015183820152602001611824565b50506000910152565b6000815180845261185d816020860160208601611821565b601f01601f19169290920160200192915050565b6060815260006118846060830186611845565b82810360208401526118968186611845565b91505060018060a01b0383166040830152949350505050565b8381526bffffffffffffffffffffffff198360601b166020820152600082516118df816034850160208701611821565b91909101603401949350505050565b81810381811115610dea57610dea6117f2565b80820180821115610dea57610dea6117f256fea2646970667358221220f07af898da5c6f5900ca6234d5cc2d0b8ae573c99b00183a0e3a94589016e5af64736f6c63430008140033",
  "linkReferences": {},
  "deployedLinkReferences": {}
}